:040000000C94150344
:080014000C94D2180C94E418BE
:040030000C94BE1C52
:04003C000C943025CB
:0C0044000C9429240C945A260C9481265C
:040064000C94AE1B2F
:080078000C944F240C947B242E
:14008C009E560000C84200FF7F470000484300FEFF460000CF
:1400A00000420000204100002041F9FFA4FFB0FF99FF92FFD5
:1400B40082FF000048430000003F00A02A450000003F00009F
:1400C800204100000000000080BF0000803F7E0030006D00AA
:1400DC00790033005B005F0070007F007B00000001007700C8
:1400F0001F004E003D004F0047005F00370004003C000000E6
:140104000E00000015001D006700000005005B000F001C00B5
:14011800000000000000000000000A000A000A000A000A00A1
:14012C00CDCC4C3E0000C03F0000000000000000CDCC4C3F79
:140140000000003F0000C8420000C8420000803F0000803FDA
:140154000000C04000409C4600008040FFFFFF7F0000000039
:14016800008000000000002020202020202020203030303023
:14017C0030202020202020202020202020202020202020906F
:140190004040404040404040404040404040400C0C0C0C0C5F
:1401A4000C0C0C0C0C40404040404040090909090909010113
:1401B8000101010101010101010101010101010101014040A1
:1401CC00404040400A0A0A0A0A0A02020202020202020202CF
:1401E0000202020202020202020240404040200000000000D7
:1401F4000000000000000000000000000000000000000000F7
:140208000000000000000000000000000000000000000000E2
:14021C000000000000000000000000000000000000000000CE
:140230000000000000000000000000000000000000000000BA
:140244000000000000000000000000000000000000000000A6
:14025800000000000000000000000000000000000000000092
:14026C00000000F304B53F288DA641A6E3E6406D4C6C3D00E6
:1402800000003F3BAAB83F0000803F00000000FFFF7F7F187C
:1402940072B1420000000050ACAEC200000000000000000085
:1402A8000000001872313F4D11D43F4E1154402642653F00D8
:1402BC0000803FF304353FFFFF7FFF000000000000803F00C9
:1402D00000000000000000000000CF0000004F0000003F00BD
:1402E4000000000000003F17B7D138000020410000803F00D0
:1402F8000080BF000000000000000000000000570000005408
:14030C005443303031000015000400010054544330303120FF
:1403200054454320436F6E74726F6C6C6572000000000000A9
:140334000000000000000000000000000000000000000000B5
:1403480000000000000000000000000000000000000100019F
:14035C000000000000000000003200000000000000000064F7
:1403700000305C0A0001001E000100080001003EFEE2040197
:1403840000000061080A0081506400000000004D656D6F72BD
:140398007920636C65617265642E0D00436C6561722E2E2E3C
:1403AC000D00636C720044656661756C747320726573746F6A
:1403C0007265642E0D00526573746F72652E2E2E0D00727353
:1403D40074006461740061646400736E720076616C006467DE
:1403E8006E0069676E0070676E006461630053656C65637488
:1403FC00204368616E6E656C2025640D006D757800746563C8
:1404100000502564004C2564004C4F41440000860400000080
:14042400004C4F4144006C6F6164657200010000000000002C
:140438000000000000000000000000000000000000000001AF
:14044C00003EFEE20401004552524F520000000000000002ED
:140460000002000200020002000200000044495350204741A6
:14047400494E5353454E5352435552204C425249544550499A
:14048800442020414E20494E54204C494D554E495453542039
:14049C00414354504741494E414435393000000000000000E2
:1404B000000000504944204C4F464620204849204C20430074
:1404C4000000004355525220494741494E5448323020000042
:1404D8000000000000000000504944205350494420204C4F08
:1404EC00204C20460000000044454C5441444741494E5448C1
:1405000032303000000000000000000000504944205243556E
:1405140052522000000000000000000000554E4954534155E6
:14052800544F0000000000000000000000000000000000001C
:14053C000000000000000000000000000000000000000000AB
:14055000000000006572726F7200502564004C256400FFFFC1
:14056400FFFFFFFF000000000000000000005334005333007A
:14057800533200533100433A5C574F524B5C56365C6C6962CF
:14058C007372632E6176722F2E2E2F6C69627372632E636F63
:1405A0006D6D6F6E2F737464696F2F5F7072696E74662E638C
:1405B4000073697A656F66202862756629203E3D20465F464F
:1405C800505F4246525F53495A4500286E756C6C20707472A3
:1405DC002070617373656429006162636465660030006162FA
:1405F0006364656600300066746F612829204572726F720010
:140604004E756D62657220697320746F6F20736D616C6C00D2
:140618004E756D62657220697320746F6F2062696700CFEFE7
:14062C00D0E1CDBFDEBFCC53D0400AEA08830024EBE2F4E06D
:1406400018E0ED30F10711F00192FBCF0083EFEFF2E0A0E088
:14065400B1E016E0EA32F10721F0C89531960D92F9CF0E94B9
:140668002A0DFFCF0E94284469015801249704E010E0960182
:14067C000E94BD4318012A0C3B1C510188E090E0F101218065
:140690003324442455248A93810192010E947B44F5012080F5
:1406A400332444245524200E311E421E531E62807724882493
:1406B8009924862C972C66247724260C371C481C591C88E110
:1406CC0090E063807724882499248A93830194010E947B442C
:1406E000200E311E421E531EFE01208231824282538200814A
:1406F40011812281338124960E94034408950E942444580166
:140708002A972090000130900101222011F4332099F0C501C0
:14071C00069640E050E060E070E4FC014080518062807380E6
:14073000442A552A662A772A408251826282738226E030E013
:1407440008E811E00E949D182AE030E085010E949D18809161
:140758006201909163018130E0E09E0751F4809164019091B3
:14076C0065010196909365018093640106C022243324309256
:140780006501209264012A960E94004408950E9422430E94FC
:140794002C445901EF97EF97EF97AC9700241124FE01EB511E
:1407A800FF4F00821182FE01ED50FF4F808191818130E0E0CC
:1407BC009E0759F4209087043324322C2224C0908604DD2426
:1407D000C228D32801C0650156018CE894E0FE01E951FF4F43
:1407E4008083918322242D8281E08E8380E58F83C501803492
:1407F800E8E09E0709F453C18134E8E09E0709F430C381E4F8
:14080C0098E08C159D050CF441C0C5018131E0E09E0709F442
:14082000AEC68231E0E09E0709F4BDC68431E0E09E0709F4A1
:14083400D4C68531E0E09E0711F40C94920C8831E0E09E079A
:1408480009F48FC088E190E08A159B056CF0C5018230E0E0A4
:14085C009E0709F4B0C68530E0E09E0709F4A6C00C94A60CA1
:14087000C5018536E0E09E0709F47FC08536E0E09E0714F42A
:140884000C94A60CC5018332E2E09E0709F459C60C94A60CBE
:14089800C5018236E8E09E0709F47CC082E698E08A159B0509
:1408AC0094F0C5018035E8E09E0709F4CEC28135E8E09E071C
:1408C00009F457C68235E8E09E0709F455C60C94A60CC501B6
:1408D4008834E4E59E0769F08834E4E59E0714F40C94A60C09
:1408E800C5018836E4E79E0711F00C94A60C85E090E05C0183
:1408FC000E94AF240030010729F404E610E00E94D2250BC0E0
:14091000C50101965C010E94C52486E894E0F501E80FF91FA7
:14092400008386E894E0F501E80FF91F80818D3019F70E94E5
:14093800AF240030010741F00E94C52486E894E0F501E80F15
:14094C00F91F008386E894E0F501E80FF91F2224208208E83D
:1409600014E00E9497150C94B80C00241124FE01EB51FF4FFB
:1409740000821182FBC786E68A8322242B8220907004309048
:1409880071042C8281E090E0FE01EB51FF4F80839183EAC716
:14099C0000241124FE01EB51FF4F00821182222433243092F1
:1409B000650120926401DCC781E090E0909369018093680139
:1409C40086E08A8322242B8284E58C838E8180688E83409069
:1409D8006E0150906F0120906C0130906D01FE0120863186A5
:1409EC004286538640E452E46FE070E07A936A935A934A9389
:140A0000810192010E947F4347E550E060E070E00417150746
:140A14002607370749F040EC53E86FE275E0FE01408751877F
:140A28006287738741EC53E86FE275E0FE0140875187628742
:140A3C0073878085918590708093080188E090E02084318444
:140A5000428453848A93810192010E942743C80190708093DB
:140A64000901FE012084318442845384842D952D90708093F9
:140A78000A0188E190E08A93810192010E942743C80190707F
:140A8C0080930B0188E091E06C0181E090E0FE01EB51FF4F97
:140AA0008083918365C7E0908C04FF24C7018130E0E09E07FE
:140AB400D1F08330E0E09E0709F4C1C18530E0E09E0709F4BF
:140AC80050C08730E0E09E0709F4B7C18930E0E09E0709F45E
:140ADC00BAC08B30E0E09E0709F40AC1ACC120908E04309035
:140AF0008F04422C532C1201442437FC4094552447FC509450
:140B0400FE01E45BFF4F20823182428253820E94A21E0130D0
:140B1800E0E01E07D1F44AE050E060E070E0FE01E45BFF4FA9
:140B2C0020803180428053807A936A935A934A9381019201E6
:140B40000E947A43FE01E45BFF4F0083118322833383FE0145
:140B5400E45BFF4F00811181228133810E948F1F0E94A81AE2
:140B68006CC120908E0430908F04422C532C1201442437FC1C
:140B7C004094552447FC5094FE01E45BFF4F2082318242824C
:140B900053820E94D51A41E050E060E070E0FE01E45BFF4F7E
:140BA4002080318042805380240E351E461E571E3801882414
:140BB80099246214730484049504B1F00E94A22341E050E005
:140BCC0060E070E0FE01E45BFF4F2080318042805380240EE1
:140BE000351E461E571E81010E94D01A0E94B93720909004F1
:140BF40030909104022D132D0E944547FE01EF52FF4F0083EA
:140C0800118322833383E15DF040EF52FF4F208031804280D9
:140C1C0053805A924A923A922A9206EA10E00E9467443A93A7
:140C30002A931A930A930E9423460E948347FE01E45BFF4FA6
:140C440000831183228333830E949E1AF8C020908E04309016
:140C58008F04422C532C1201442437FC4094552447FC5094E6
:140C6C00FE01E45BFF4F2082318242825382EC54F040E45B4B
:140C8000FF4F008111810E94B21A2090900430909104422C8A
:140C9400532C1201442437FC4094552447FC5094FE01E45B6D
:140CA800FF4F2082318242825382EC54F040E45BFF4F00817E
:140CBC0011810E94BC1A2090920430909304422C532C12017D
:140CD000442437FC4094552447FC5094FE01E45BFF4F2082D3
:140CE400318242825382EC54F040E45BFF4F008111810E94FE
:140CF800C61AA3C020908E0430908F04422C532C12014424A8
:140D0C0037FC4094552447FC5094FE01E45BFF4F208231824B
:140D200042825382EC54F04041E050E060E070E02416350660
:140D34004606570654F441E050E060E070E0E45BFF4F408389
:140D480051836283738340E150E060E070E0FE01E45BFF4F7B
:140D5C002080318042805380EC54F04042155305640575059B
:140D700054F440E150E060E070E0E45BFF4F4083518362833D
:140D8400738341E050E060E070E0FE01E45BFF4F20803180A7
:140D980042805380241A350A460A570A81010E948B1A20900B
:140DAC00900430909104422C532C1201442437FC4094552462
:140DC00047FC5094FE01E45BFF4F208231824282538240E05E
:140DD40050E060E070E02416350646065706E1F041E050E00B
:140DE80060E070E02416350646065706C1F042E050E060E006
:140DFC0070E02416350646065706A1F043E050E060E070E001
:140E1000241635064606570681F013C001E010E00E94DA1A05
:140E24000EC001E010E00E94DA1A09C002E010E00E94DA1A54
:140E380004C003E010E00E94DA1A0E94EA2B00241124FE016A
:140E4C00EB51FF4F008211828DC50E94EA2B00241124FE0192
:140E6000EB51FF4F0082118283C582E498E08A8388E08B8336
:140E7400FE01ED50FF4F808191818130E0E09E0721F4E09032
:140E88008804FF2405C0FE01E950FF4FE080F1808E81806894
:140E9C008E83EC8622242D8684E08C8381E090E0FE01EB5147
:140EB000FF4F80839183C7018130E0E09E07D1F08330E0E0B7
:140EC4009E0709F490C08530E0E09E0709F463C18730E0E076
:140ED8009E0709F4EDC18930E0E09E0709F422C28B30E0E03C
:140EEC009E0709F4BAC23EC50E94AD1A1801442437FC4094E0
:140F0000552447FC5094FE01E45BFF4F2082318242825382C3
:140F1400EC54F040E45BFF4F00811181228133810E94DB1EC7
:140F2800FE01E45BFF4F00831183228333830E94A21E013024
:140F3C00E0E01E07D1F4FE01E45BFF4F208031804280538085
:140F50004AE050E060E070E05A924A923A922A928A019B012C
:140F64000E94CD43FE01E45BFF4F008311832283338384E065
:140F78008C83EC8622242D864FEF50E060E070E0FE01E45BAF
:140F8C00FF4F2080318042805380EC54F040242235224622A8
:140FA00057222E8688E090E0E45BFF4F2080318042805380C5
:140FB4008A93810192010E942743180129014FEF50E060E0FA
:140FC80070E024223522462257222F86CE010C966C0181E053
:140FDC0090E0FE01EB51FF4F80839183C3C488E08C83EC8681
:140FF00022242D8604E010E00E94211E9E012E5A3F4F8E01FB
:14100400005B1F4F0E945A17FE01E05BFF4F208031804424BB
:1410180037FC4094552447FC5094810192010E9420204AE0FC
:14102C0050E060E070E03A932A931A930A938A019B010E9453
:14104000CD43FE01E45BFF4F0083118322833383EC54F0401E
:141054004FEF50E060E070E0E45BFF4F208031804280538017
:14106800EC54F04024223522462257222E8688E090E0E45BBB
:14107C00FF4F20803180428053808A93810192010E942743EE
:14109000180129014FEF50E060E070E024223522462257228D
:1410A4002F860E94A21E0E94761E58019E012E5A3F4F8E014E
:1410B800005B1F4F0E945A17FE01E05BFF4F20803180442407
:1410CC0037FC4094552447FC5094810192010E94DB1EFE01BA
:1410E000E45BFF4F0083118322833383EC54F040C501EA934A
:1410F4008130E0E09E07E991C9F4E45BFF4F208031804280FB
:1411080053804AE050E060E070E05A924A923A922A928A013B
:14111C009B010E94CD43FE01E45BFF4F008311832283338373
:141130004FEF50E060E070E0FE01E45BFF4F2080318042800E
:141144005380EC54F0402422352246225722288A88E090E04C
:14115800E45BFF4F20803180428053808A93810192010E943C
:14116C002743180129014FEF50E060E070E0242235224622BF
:141180005722298ACE010C966C0181E090E0FE01EB51FF4FF7
:1411940080839183EBC386E08C838E8180688E8385E08C878D
:1411A80022242D860E94D51AC80101971C0144245524FE014B
:1411BC00E45BFF4F2082318242825382EC54F0404FEF50E0C6
:1411D00060E070E024223522462257222E8688E090E0E45B32
:1411E400FF4F20803180428053808A93810192010E94274385
:1411F800180129014FEF50E060E070E0242235224622572224
:14120C002F860E94A31A180144245524FE01E45BFF4F208292
:141220003182428253824AE050E060E070E05A924A923A92F0
:141234002A928A019B010E94CD43FE01E45BFF4F008311836E
:1412480022833383EC54F0404FEF50E060E070E0E45BFF4F3C
:14125C002080318042805380EC54F0402422352246225722AA
:14127000288A88E090E0E45BFF4F20803180428053808A9350
:14128400810192010E942743180129014FEF50E060E070E0F4
:141298002422352246225722298ACE010C966C0181E090E062
:1412AC00FE01EB51FF4F808391835CC386E08C83EC86222442
:1412C0002D864FEF50E060E070E0FE01E45BFF4F208031808C
:1412D40042805380EC54F04024223522462257222E8688E067
:1412E80090E0E45BFF4F20803180428053808A9381019201DD
:1412FC000E942743180129014FEF50E060E070E024223522F4
:14131000462257222F86CE010C966C0181E090E0FE01EB5149
:14132400FF4F8083918322C388E08C83EC8622242D860E94E7
:14133800B71A180144245524FE01E45BFF4F20823182428231
:14134C005382EC54F0404FEF50E060E070E024223522462245
:1413600057222E8688E090E0E45BFF4F208031804280538001
:141374008A93810192010E942743180129014FEF50E060E036
:1413880070E024223522462257222F860E94C11A18014424D0
:14139C005524FE01E45BFF4F2082318242825382EC54F040DA
:1413B0004FEF50E060E070E02422352246225722288A88E093
:1413C40090E0E45BFF4F20803180428053808A938101920100
:1413D8000E942743180129014FEF50E060E070E02422352217
:1413EC0046225722298A0E94CB1A180144245524FE01E45B9A
:14140000FF4F2082318242825382EC54F0404FEF50E060E07E
:1414140070E024223522462257222A8A88E090E0E45BFF4FDD
:1414280020803180428053808A93810192010E942743180173
:14143C0029014FEF50E060E070E024223522462257222B8A41
:14145000CE010C966C0181E090E0FE01EB51FF4F8083918339
:1414640085C288E08C83EC8622242D860E94991AC801019696
:141478001C0144245524FE01E45BFF4F2082318242825382E8
:14148C00EC54F0404FEF50E060E070E0242235224622572260
:1414A0002E8688E090E0E45BFF4F20803180428053808A931C
:1414B400810192010E942743180129014FEF50E060E070E0C2
:1414C80024223522462257222F860E94DF1A18014424552448
:1414DC00FE01E45BFF4F2082318242825382EC54F0404FEFD4
:1414F00050E060E070E02422352246225722288A88E090E020
:14150400E45BFF4F20803180428053808A93810192010E948C
:141518002743180129014FEF50E060E070E02422352246220F
:14152C005722298ACE010C966C0181E090E0FE01EB51FF4F47
:141540008083918315C220906A0130906B01222041F4332098
:1415540031F481E090E090936B0180936A0100241124FE0128
:14156800EB51FF4F00821182FFC10E943C23FCC10E949B23F2
:14157C00F9C181E090E0909361018093600122243324309278
:1415900065012092640100241124FE01EB51FF4F00821182D3
:1415A400E5C122243324309261012092600100241124FE0161
:1415B800EB51FF4F00821182D7C184E090E090936901809374
:1415CC00680100241124FE01EB51FF4F00821182C9C1FE0122
:1415E000E951FF4F00801180FE01EF52FF4F00821182222772
:1415F4003327800139D8FE01ED52FF4F0083118322833383F9
:1416080021E030E0FE01EF52FF4F008111812AD8FE01E952E0
:14161C00FF4F008311832283338322E030E0FE01EF52FF4F5A
:14163000008111811BD8FE01E552FF4F0083118322833383AA
:1416440023E030E0FE01EF52FF4F008111810CD8FE01E152C8
:14165800FF4F0083118322833383EF5DF04047E150E060E0AA
:14166C0070E0ED52FF4F2080318042805380241635064606E6
:14168000570609F4DDC047E150E060E070E04215530564055F
:141694007505E4F041E050E060E070E0FE01ED52FF4F2080E7
:1416A800318042805380241635064606570609F438C042E0B3
:1416BC0050E060E070E0241635064606570609F453C01BC150
:1416D00040E951E060E070E0FE01ED52FF4F2080318042807D
:1416E4005380241635064606570609F4D6C040E951E060E0D4
:1416F80070E024163506460657060CF400C148E552E060E010
:14170C0070E0FE01ED52FF4F20803180428053802416350692
:141720004606570609F4E0C0EEC0FE01E952FF4F20803180E8
:141734004280538030926D0120926C0150926F0140926E012A
:141748000E941A1A8CE190E088839983222733270CE611E02D
:14175C000E940A260E941F1A00241124FE01EB51FF4F008268
:141770001182D0C04FEF50E060E070E040906E0150906F01B5
:1417840020906C0130906D01242235224622572220922F04A3
:1417980088E090E040906E0150906F0120906C0130906D018B
:1417AC008A93810192010E948744180129014FEF50E060E099
:1417C00070E02422352246225722209230044FEF50E060E0B3
:1417D40070E040906E0150906F0120906C0130906D01242C87
:1417E800352C4424552424223522462257222092310488E1DD
:1417FC0090E040906E0150906F0120906C0130906D018A9372
:14181000810192010E948744180129014FEF50E060E070E001
:1418240024223522462257222092320400241124FE01EB51B6
:14183800FF4F008211826AC040E050E060E070E0FE01E952F5
:14184C00FF4F2080318042805380E75DF0402416350646061F
:14186000570679F081E090E09093630180936201E552FF4F5B
:1418740020803180309267012092660106C0222433243092A7
:1418880063012092620100241124FE01EB51FF4F00821182DC
:14189C003BC045EC57E060E070E0FE01E952FF4F208031806C
:1418B00042805380241635064606570659F50AE112E00E94A4
:1418C400E734FE01ED51FF4F008311830E94C12B0E94E92A10
:1418D80000241124FE01EB51FF4F0082118216C0FE01E952F5
:1418EC00FF4F008111810E948B1A00241124FE01EB51FF4F5E
:141900000082118207C000241124FE01EB51FF4F0082118200
:1419140000241124FE01EB51FF4F0082118226C086E18A836E
:1419280022242B8288E28C838E8180688E838BE294E06C01E9
:14193C0081E090E0FE01EB51FF4F8083918312C000241124FB
:14195000FE01EB51FF4F0082118205C00E94C5240D3009F45B
:1419640005C00E94AF2400300107B1F7FE01EB51FF4F00804C
:141978001180002011F4112079F026E030E08E010E5F1F4F8B
:14198C000E949D182E8027FE05C02C81332786010E949D1873
:1419A000FE01ED50FF4F808191818130E0E09E0719F422242D
:1419B40020921F02EF96EF96EF96AC960E9406442496089538
:1419C8000E942044B901A801EF97699702E010E0061B170B07
:1419DC000E944547088319832A833B8302EA10E00E9467440E
:1419F0000E94704FFE01048315832683378309E010E09A018D
:141A04000E94BD4325E030E00E9435430E9445473A932A9345
:141A18001A930A930EE910E00E9467443A932A931A930A9368
:141A2C00FE0124843584468457845A924A923A922A920E94AF
:141A4000EE460E9483450E947547EF9669960E94FD43089593
:141A5400EF97659740E050E060E070E0FE0141AF52AF63AF1A
:141A680074AF4BE257E060E070E041AF52AF63AF74AF0E948B
:141A7C00F6180E941A1A81E090E088839983222733278E0148
:141A9000035E1F4F0E9427268CE190E08883998322273327DD
:141AA4008E01035E1F4F0E9427260E941F1A8FA998AD853ACA
:141AB800EAE59E0769F509A11AA10E949E1A0BA11CA10E947E
:141ACC00A81A0DA11EA10E94B21A0FA118A50E94BC1A09A5D6
:141AE0001AA50E94C61A0DA51EA50E948B1A0FA518A90E94DE
:141AF400DA1A0BA51CA50E94D01A09A91AA90E94EE1A0BA91A
:141B08001CA90E94F81A0DA91EA90E94021B02C00E94F216A8
:141B1C000E94991A202F02E00E94B4232FEF0FE70E94E223FB
:141B300004E010E00E94211E9E01285E3F4F8E010E5E1F4FD0
:141B44000E945A172A883B88309207012092060122243324E5
:141B58003092730420927204309281042092800430927D0458
:141B6C0020927C0482E090E090935B0280935A020E94123886
:141B800029E004E00E94B42340E050E060E070E04C835D835C
:141B94006E837F8340E050E060E070E0488359836A837B83D8
:141BA80021E030E001E010E00E94B31D0E94761E40E050E04F
:141BBC0060E070E0FE0146875787608B718B222433242886A9
:141BD0003986288639862A863B8689C70E94A02080916A0136
:141BE40090916B018130E0E09E0791F482E090E090936B0164
:141BF80080936A0185E0FE01E15BFF4F808391838CE291E077
:141C0C00909377048093760480916A0190916B018230E0E01E
:141C20009E07B1F52090760430907704222081F5332071F58F
:141C3400FE01E15BFF4F20803180C1010197FE01E15BFF4FDF
:141C480080839183222051F4332041F42224332430926B0197
:141C5C0020926A011E9A16C022E030E0FE01E15BFF4F0081AD
:141C700011810E9433430130E0E01E0711F41E9A01C01E986C
:141C84008CE291E090937704809376040E94C817FE01E95B7E
:141C9800FF4F008311830038E0E01E0718F00E94FD191CC01A
:141CAC0020901F022220C1F0222433242882398222273327BB
:141CC00001E010E00E94C70380917C0490917D048A30E0E026
:141CD4009E0734F482E390E090937D0480937C04209066010C
:141CE8003090670140906401509065012414350430F422246A
:141CFC003324309261012092600120907C0430907D04222093
:141D100009F090C4332009F08DC484EF91E090937D0480933A
:141D24007C040E94071BFE01E55BFF4F008311839E01285E9E
:141D38003F4F8E010E5E1F4F0E945A172A883B88FE01EF5AD0
:141D4C00FF4F208231822A883B88442437FC4094552447FC40
:141D60005094810192010E94DB1EFE01E35BFF4F0083118339
:141D740081E090E0FE01E55BFF4F008011808015910524F4A9
:141D880003E010E00E94211E2A893B89002711270E94A82053
:141D9C0000300107C1F080917204909173048130E0E09E0715
:141DB00011F40E94A22381E090E09093010180930001002485
:141DC4001124FE01E35BFF4F0082118206C022243324309211
:141DD80001012092000181E090E0FE01E55BFF4F00801180D3
:141DEC008015910544F49E01285E3F4F8E01035C1F4F0E94CF
:141E00005A170E94AD1A1801442437FC4094552447FC5094CC
:141E1400309258042092570450925A04409259048091720499
:141E2800909173048130E0E09E0709F06FC306E010E00E9455
:141E3C00661B180144245524FE01FF96208231824282538295
:141E500044E650E060E070E042195309640975098FEF9FEFE6
:141E6400A0E0B0E07A936A935A934A938C019D010E94CD43A9
:141E780048EC50E060E070E07A936A935A934A930E947A432F
:141E8C00FE01018F128F238F348F22243324409055045090F7
:141EA0005604241435047CF4C20101979093560480935504AF
:141EB4008030890731F482E090E090935B0280935A020024D0
:141EC8001124FE01E75BFF4F0082118204E010E00E94211E78
:141EDC00FE01E55BFF4F808191818330E0E09E0709F04DC034
:141EF0000DAD1EAD0E9445473A932A931A930A93FE01258CA7
:141F0400368C478C50A042E050E060E070E05A924A923A92CE
:141F18002A928A019B010E94CD434FEF5FEF60E070E0401BA9
:141F2C00510B620B730B8A019B010E944B473A932A931A93C8
:141F40000A930E94EE460AE910E00E9467443A932A931A93B3
:141F54000A930E942046FE01058D168D278D30A10E944B47E7
:141F68003A932A931A930A930E9483450E9483471093030114
:141F7C00009302013093050120930401A8C0FE01E55BFF4F45
:141F9000808191818230E0E09E0709F071C00E94FD1A0F938E
:141FA4001F930E94F31A3F902F900F931F932F923F920E94B2
:141FB800F31A3F902F905F904F9038010DAD1EAD0E944547C0
:141FCC003A932A931A930A938101041915090E9445473A9375
:141FE0002A931A930A930E94EE460AE910E00E9467443A9313
:141FF4002A931A930A930E94204683010E9445473A932A938E
:142008001A930A930E9483450E948347FE01ED5BFF4F00838C
:14201C001183228333830E948F1FFE01ED5BFF4F00831183C5
:1420300022833383409004015090050120900201309003010F
:142044002C823D824E825F82FE01EF5AFF4F2080318044241B
:1420580037FC4094552447FC5094288239824A825B820E941D
:14206C009427109303010093020130930501209304012DC0FA
:14208000409004015090050120900201309003012C823D82AD
:142094004E825F82FE01EF5AFF4F20803180442437FC409431
:1420A800552447FC5094288239824A825B82209159043091A7
:1420BC005A0400915704109158040E94942710930301009332
:1420D00002013093050120930401FE0121AC32AC43AC54ACDF
:1420E4008090040190900501609002017090030162147304C9
:1420F8008404950409F47DC0218C328C438C548C6214730472
:14210C008404950444F4309203012092020150920501409231
:142120000401FE01218C328C438C548C4FEF5FEF60E070E071
:14213400421953096409750940900401509005012090020187
:14214800309003014215530564057505A4F4218C328C438C5B
:14215C00548C4FEF5FEF60E070E042195309640975095093EE
:1421700003014093020170930501609304014FEF50E060E0D2
:1421840070E04090040150900501209002013090030124227F
:14219800352246225722222D88E090E0409004015090050119
:1421AC0020900201309003012F933F938A93810192010E9440
:1421C0002743180129013F912F914FEF50E060E070E024228A
:1421D400352246225722022D0E94E22340900401509005012E
:1421E8002090020130900301FE0121AE32AE43AE54AE9E012C
:1421FC00285E3F4F8E010E5E1F4F0E945A170E94761EFE010A
:14221000E75BFF4F008311832A883B88FE01EF5AFF4F208266
:142224003182442437FC4094552447FC5094810192010E942D
:1422380020204AE050E060E070E03A932A931A930A938A0109
:14224C009B010E94CD430887198741E050E060E070E0FE0121
:1422600046875787608B718B80915A0290915B028230E0E07B
:142274009E0709F03BC180916303909164038F3FEFEF9E076C
:1422880009F032C10E94DF1A58010130E0E01E0709F436C059
:14229C000230E0E01E0731F00330E0E01E0709F44CC0E6C02F
:1422B00082E090E0FE01E75BFF4F808391832A883B884424C5
:1422C40037FC4094552447FC5094810192010E9420200A8BD3
:1422D8001B8B81E4FE01ED5AFF4F808340E450E060E070E06C
:1422EC00FE012684378440885188242A352A462A572A26868F
:142300003786408A518ABAC0FE01E35BFF4F008011800A8ABD
:142314001B8A0E94C01EFE01ED5AFF4F008340E150E060E0E8
:1423280070E0FE012684378440885188242A352A462A572AAE
:14233C0026863786408A518A9BC020905704309058042A8A49
:142350003B8AFE01E55BFF4F808191818230E0E09E0709F004
:1423640041C00E94FD1A0F931F930E94F31A3F902F900F9378
:142378001F932F923F920E94F31A3F902F905F904F903801C9
:14238C000DAD1EAD0E9445473A932A931A930A938101041917
:1423A00015090E9445473A932A931A930A930E94EE460AE940
:1423B40010E00E9467443A932A931A930A930E942046830178
:1423C8000E9445473A932A931A930A930E9483450E94754737
:1423DC00FE01ED5BFF4F0083118325C0FE01E55BFF4F8081CE
:1423F00091818330E0E09E0759F4FE01E35BFF4F00801180C6
:14240400FE01ED5BFF4F0082118211C02A883B88442437FC39
:142418004094552447FC5094810192010E94DB1EFE01ED5B45
:14242C00FF4F00831183FE01ED5BFF4F20803180FE01E35B14
:14244000FF4F40805180421853084A8A5B8A0E94C01EFE01BC
:14245400ED5AFF4F008340E850E060E070E0FE012684378410
:1424680040885188242A352A462A572A26863786408A518A13
:14247C00FE01ED5AFF4F80818334B9F40CE010E00E94661B54
:142490000230E0E01E0779F486E4FE01ED5AFF4F8083FE01B4
:1424A400E75BFF4F208131810A891B898BDA680102C0CA8828
:1424B800DB88FE01ED5AFF4F00800A82FE01E75BFF4F0080FE
:1424CC001180088219821601442437FC4094552447FC509420
:1424E000810192010E94E23278010E94C12B60C040E150E0A5
:1424F40060E070E0FE012684378440885188242A352A462A22
:14250800572A26863786408A518A4EC040E050E060E070E042
:14251C00FE0146875787608B718B40E150E060E070E026848F
:14253000378440885188242A352A462A572A26863786408A6A
:14254400518A22243324288639864090550450905604241403
:142558003504ACF4C201019790935604809355048030890712
:14256C0061F482E090E090935B0280935A020E94123829E050
:1425800004E00E94B42380915A0290915B028230E0E09E07E8
:1425940031F40E94123829E004E00E94B4230E94761EFE0187
:1425A800E75BFF4F008311830E94A21EFE01E75BFF4F008304
:1425BC0011830130E0E01E0721F52091590430915A0400918D
:1425D0005704109158040E94DB1E4AE050E060E070E03A934D
:1425E4002A931A930A938A019B010E94CD430C871D870AE0E2
:1425F80010E0FE01E35BFF4F208131810E94BD430A871B872C
:14260C0013C02091590430915A0400915704109158040E942F
:14262000DB1E0C871D87FE01E35BFF4F008011800A861B86A9
:1426340020908004309081042220A9F4332099F484E690E080
:1426480090938104809380042090600130906101222011F4C5
:14265C00332029F08E01085F1F4F0E9481030E94FB1DFE01BB
:14267000048B158B268B378B40E050E060E070E0248835886B
:1426840046885788241635064606570609F421C288EE93E0AE
:1426980090937D0480937C0420905A0230905B02222011F487
:1426AC00332071F080915A0290915B028130E0E09E0761F014
:1426C0008230E0E09E0709F4F6C005C2FE01048915890E94A9
:1426D400412CFFC180915C0290915D028730E0E09E07E9F4DD
:1426E8002224332440905504509056042414350434F486E0DF
:1426FC0090E090935604809355040E94A21EFE01E75BFF4F80
:14271000008311830E94C01EFE01ED5AFF4F008372C08091C4
:142724005C0290915D028530E0E09E0709F049C0FE012488FC
:14273800358846885788288239824A825B8220906E04309033
:14274C006F04442437FC4094552447FC5094810192010E9440
:14276000D71C10936F0400936E0480915E0290915F028130B3
:14277400E0E09E0759F418012882398226E132E08E01015C1C
:142788001F4F0E94A8560DC020906E0430906F0428823982A8
:14279C0022E132E08E01015C1F4F0E94A8568E01015C1F4FC0
:1427B0000E94E73478010E94C12B0024FE01ED5AFF4F008217
:1427C40088C180915C0290915D028330E0E09E0769F482E0F2
:1427D80090E0FE01E75BFF4F8083918381E4FE01ED5AFF4FDE
:1427EC0080830BC000241124FE01E75BFF4F00821182FE010F
:14280000ED5AFF4F0082FE0124883588468857882882398233
:142814004A825B8220906E0430906F04442437FC40945524CA
:1428280047FC5094810192010E94D71C10936F0400936E04B0
:14283C006801FE01ED5AFF4F80818334C1F40CE010E00E94A0
:14285000661B0230E0E01E0781F486E4FE01ED5AFF4F808366
:14286400FE01E75BFF4F2081318100916E0410916F04A8D8E7
:142878006801FE01ED5AFF4F00800A82FE01E75BFF4F008034
:14288C001180088219821601442437FC4094552447FC50945C
:1428A000810192010E94E23278010E94CD3187010E94C12B2A
:1428B40010C120905A0230905B02222019F4332009F407C1AF
:1428C800FE01E55BFF4F808191818230E0E09E0709F074C018
:1428DC000E94C01EFE01ED5AFF4F00830E94A21EFE01E75BAE
:1428F000FF4F0083118321E004E00E94B4230E94FD1A0F93B6
:142904001F930E94F31A3F902F900F931F932F923F920E9448
:14291800F31A3F902F905F904F9038010DAD1EAD0E94454756
:14292C003A932A931A930A938101041915090E9445473A930B
:142940002A931A930A930E94EE460AE910E00E9467443A93A9
:142954002A931A930A930E94204683010E9445473A932A9324
:142968001A930A930E9483450E94834710935804009357044E
:14297C0030935A0420935904FE01ED5AFF4F00800A82FE0177
:14299000E75BFF4F00801180088219820E94E2327801C70176
:1429A4000896FC01808191818068808391830E94C12B86E07E
:1429B80090E0909356048093550489C0FE01E55BFF4F8081DB
:1429CC0091818330E0E09E0709F064C021E004E00E94B42352
:1429E00082E090E0FE01E75BFF4F8083918381E4FE01ED5AC0
:1429F400FF4F808306E910E00E9467443A932A931A930A937E
:142A0800209104013091050100910201109103010E944B47D0
:142A1C003A932A931A930A930E94EE4602E910E00E946744D4
:142A30003A932A931A930A930E9420460EE810E00E94674483
:142A44003A932A931A930A930E948B45FE01FF96008311838D
:142A580022833383FE01ED5AFF4F00800A82FE01E75BFF4FE0
:142A6C0000801180088219820E9483470E94E2327801C701BD
:142A80000896FC01808191818068808391830E94C12B86E0A1
:142A940090E090935604809355041BC021E004E00E94B4239C
:142AA8002224332430925B0220925A0287E090E090935D02F7
:142ABC0080935C0230925F0220925E0286E09093560480936A
:142AD00055040E94802D0E94A335209074043090750422202D
:142AE40021F4332011F40E94F92B76C8809168019091690168
:142AF8008130E0E09E0731F482E090E09093690180936801B4
:142B0C0080916801909169018430E0E09E0731F422243324D5
:142B20003092690120926801EF96659608950E9428445801D6
:142B3400EF97639783E090E0888399832EE032E085010E94CB
:142B4800D6560030010749F4F5018381803319F40E94A223B7
:142B5C0002C00E943C2383E090E0888399832AE032E0850106
:142B70000E94D65600300107D1F485010D5F1F4F0E94D94764
:142B84000E94211E85010D5F1F4F0E94D9470883198327EFFD
:142B980031E08E010E5F1F4F0E94A8568E010E5F1F4F0E9402
:142BAC00681E83E090E08883998323EF31E085010E94D6561E
:142BC0000030010709F039C085010D5F1F4F0E942C481093BE
:142BD40003010093020130930501209304014FEF50E060E024
:142BE80070E0180129012422352246225722222D88E090E0A1
:142BFC00409004015090050120900201309003012F933F93FF
:142C10008A93810192010E942743180129013F912F914FEF61
:142C240050E060E070E02422352246225722022D0E94E22388
:142C3800A89A83E090E0888399832FEE31E085010E94D656CA
:142C4C000030010749F485010D5F1F4F0E942C480E94B21A1B
:142C60000E94EA2B83E090E0888399832BEE31E085010E945D
:142C7400D6560030010749F485010D5F1F4F0E942C480E9493
:142C8800BC1A0E94EA2B83E090E08883998327EE31E0850105
:142C9C000E94D6560030010749F485010D5F1F4F0E942C486B
:142CB0000E94C61A0E94EA2B83E090E08883998323EE31E0BB
:142CC40085010E94D6560030010749F485010D5F1F4F0E9431
:142CD8002C480E94A81A0E94EA2B83E090E0888399832FED43
:142CEC0031E085010E94D6560030010749F485010D5F1F4F9A
:142D00000E942C480E94D01A0E94EA2B83E090E0888399836C
:142D14002BED31E085010E94D6560030010749F485010D5FC7
:142D28001F4F0E942C48109354040093530483E090E0888350
:142D3C00998327ED31E085010E94D6560030010759F48501E3
:142D50000D5F1F4F0E942C4868012C2D009153040E94B4235C
:142D640083E090E08883998323ED31E085010E94D6560030BC
:142D7800010759F407EC11E00E94681E2FD00E94F92B03EB33
:142D8C0011E00E94681E83E090E0888399832FEA31E0850170
:142DA0000E94D65600300107C1F405EA11E00E94681E18D074
:142DB4000E94F92B81E090E05C0185010E94CF21C5010196A2
:142DC8005C018630E0E09E07B4F304E911E00E94681EEF964D
:142DDC0063960E940344089500917001109171010E949E1AF5
:142DF00000917201109173010E94A81A009174011091750135
:142E04000E94B21A00917601109177010E94BC1A00917801A9
:142E1800109179010E94C61A00917C0110917D010E948B1A95
:142E2C0000917E0110917F010E94DA1A00917A0110917B01A2
:142E40000E94D01A00918001109181010E94EE1A00918201FF
:142E5400109183010E94F81A00918401109185010C94021B97
:142E68000E942044B901A801262F042F0E94B4230E94FD430A
:142E7C0008950E940D27002319F40027112713C00E9438276C
:142E9000002319F401E010E00CC00CE94FD0002319F402E03B
:142EA40010E005C084E98093740003E010E008950E942444F7
:142EB8005901A80164E10E940D27002309F437C00E945927AF
:142ECC00002309F432C00E947A27202E3324322C2224FA0159
:142EE000208231820E947A27202E3324FA01408051804228AB
:142EF4005328408251820E947A27F5010083208027FE0AC06F
:142F08000E940D27002309F412C00E945927002309F40DC0DE
:142F1C00F501208027FE06C0862F8150682F882309F0D1CFBF
:142F300084E9809374000E94004408950093730084E8809391
:142F440074008FEF90E09093790480937804209078043090FC
:142F58007904222011F4332021F02090740027FEF4CF809120
:142F6C0071008C7F80936D04883211F0002709C02224332409
:142F8000309279042092780420926D0401E008950E94204429
:142F94002297662777270E94AF24B8010030010719F401E0F1
:142FA80010E0C3C02090240230902502222019F4332009F446
:142FBC0055C020902202309023026215730528F14427552744
:142FD0000DC00E94C524E0912002F09121020193F093210224
:142FE400E09320024F5F5F4F20902202309023024215530580
:142FF80060F322243324309223022092220281E080931F0283
:14300C00309225022092240226C0442755270DC00E94C524CA
:14302000E0912002F09121020193F0932102E09320024F5FE8
:143034005F4F4617570780F32090220230902302261A370A72
:143048003092230220922202222420921F0281E090E09093AA
:14305C0025028093240202E010E065C06630E0E07E0718F422
:1430700003E010E05EC0442755270AC00E94C52486E894E03D
:14308400FA01E80FF91F00834F5F5F4F4630E0E05E0790F331
:1430980086E090E0888399832BE232E006E814E00E94D65658
:1430AC000030010761F406E212E00E94E734B8010E94C12BA5
:1430C0000E94E92A01E010E034C08CE894E090932102809341
:1430D400200220908A0427FE1FC081E090E090932502809356
:1430E8002402222420921F0220908904222019F001E910E033
:1430FC001AC020908804332430922302209222028AE790E0B5
:143110008215930560F402E910E00BC02224332430922502FC
:143124002092240281E080931F0204E010E022960E94FD43BC
:1431380008950E942844A9015801BA01A50127C00E94B8240F
:14314C0058010617170788F4CC24DD2408C0FA010191AF0169
:143160000E94D924C60101966C01CA14DB04A8F36A197B0992
:1431740010C0CC24DD2408C0FA010191AF010E94D924C6011B
:1431880001966C01C616D706A8F3662777276030670709F0B9
:14319C00D5CF0E94034408958A939A938FB78A9380919201A4
:1431B000909193018160909393018093920189918FBF999186
:1431C400899118958A939A938FB78A9380919201909193012A
:1431D8008260909393018093920189918FBF9991899118954B
:1431EC000E9428442F9720909900332444245524FE012382D6
:14320000348245825682222427BE40E050E060E070E02380B7
:14321400348045805680241635064606570631F422242BBAE9
:143228008FEF8ABB20926A00222428BA8FEF87BB2ABE0E9441
:14323C00AF23222425BA8FEF84BB05E010E00E9431242224B8
:1432500022BA8FE381BB2FBC8EE08EBD20927A0081E090E03F
:1432640090934B0080934A000E94FC26222423B880EC82B9FF
:143278008AE08ABF80E389BF80EF83B983B1807483B9209223
:14328C008B0085E480938A0020928C008FEF9FE890938700B0
:1432A0008093860080E280937D0080EA8093620080EF80932E
:1432B400610080E487B90E9419257894D3D0109371040093C7
:1432C80070040F3FEFEF1E0721F481E090E06C0102C0CC2428
:1432DC00DD245601CC2011F4DD2011F0DF9801C0DF9A40E0C6
:1432F00050E060E070E0FE01238034804580568024163506A4
:143304004606570669F4DD98DE9804E610E00E94D225AA2087
:1433180011F4BB2011F0DE9A01C0DD9A0E943F1724E003E031
:14332C000E94B42327E002E00E94B423222701E00E94B4230F
:1433400021E004E00E94B42321E007E00E94B42300ED17E0D6
:143354000E94D225222707E00E94B42348E650E060E070E035
:14336800FE01478350876187728722242A8282E090E0888301
:14337C00998307811085218532850E94E23258010E94C12B0A
:1433900000ED17E00E94D22580917004909171048F3FEFEFE5
:1433A4009E0791F022242A823324288239821C01442437FC89
:1433B8004094552447FC5094810192010E94E23258010CC09D
:1433CC0022242A8233242882398200E010E020E030E00E94BD
:1433E000E232580185010E94C12B08EE13E00E94D2252F9611
:1433F4000E94034408950E940944A801279722242A823324A0
:14340800288239821A0144245524810192010E94E232A801DB
:14341C000E94C12B08EB1BE00E94D225F894FFCF27960E94CE
:143430000C440895959A03E010E00C94D2259598089581E0D7
:1434440090E090933302809332020895222433243092330234
:14345800209232020895009132021091330208950E9424449B
:14346C0080EC86B904E110E00E94D2253099FACF80EC86B9F6
:1434800004E110E00E94D2253099FACFA4B0BB2425B03324D9
:14349400322C2224A20CB31C29E930E08501045B1F4F0E94EC
:1434A8005243B8016F5F7F4F86E090E08617970710F0AB0169
:1434BC0002C04FEF5FEF042F152F0E940044089501B11127CA
:1434D0001595079515950795159507951595079503701070DD
:1434E40020903402309035020215130569F083E090E0180183
:1434F80028263926309237022092360210933502009334028B
:14350C00009136021091370208950E940944A80150933D02B1
:1435200040933C02242F02E00E94B4230E940C4408950091B8
:143534003C0210913D02089510933F0200933E0208950091E3
:143548003E0210913F020895109341020093400208950091C7
:14355C004002109141020895109343020093420208950091AB
:1435700042021091430208951093450200934402089500918F
:14358400440210914502089510934702009346020895009173
:14359800460210914702089510934902009348020895009157
:1435AC00480210914902089510934B0200934A02089500913B
:1435C0004A0210914B02089510934D0200934C02089500911F
:1435D4004C0210914D02089510934F0200934E020895009103
:1435E8004E0210914F020895109351020093500208950091E7
:1435FC005002109151020895109353020093520208950091CB
:1436100052021091530208950E942044A901B8016030670758
:1436240041F16130E0E07E0739F16230E0E07E0759F16330AC
:14363800E0E07E0709F42EC06430E0E07E0709F434C06530EF
:14364C00E0E07E0709F432C06630E0E07E0751F06730E0E0C3
:143660007E0721F16C30E0E07E0709F42AC02BC08A0164DF3E
:1436740028C08A016BDF25C08A0172DF76DF10935C040093D9
:143688005B041DC08A0174DF78DF1093600400935F0415C0EB
:14369C008A0176DF7ADF10935E0400935D040DC08A0182DF2F
:1436B0000AC08A0175DF07C08A01015010402BDF02C08A0113
:1436C40081DF0E94FD4308950E940944A8014030450721F1AD
:1436D8004130E0E05E0719F14230E0E05E0711F14330E0E072
:1436EC005E0709F14430E0E05E0719F14530E0E05E0711F12C
:143700004630E0E05E0749F04730E0E05E07A1F04C30E0E078
:143714005E07D9F01CC015DFA80119C01CDFA80116C023DFA5
:14372800A80113C02ADFA80110C031DFA8010DC042DFA8013F
:14373C000AC035DFA80107C0F6DEA8014F5F5F4F02C041DF70
:14375000A801042F152F0E940C4408950A921A922A923A92E6
:143764004A925A926A927A928A929A920A931A932A933A9365
:143778008A939A93AA93BA93EA93FA930FB60A920E942044F8
:14378C00249783B18F7783B92090280530902905222079F47E
:1437A000332069F422243324309289002092880081E090E072
:1437B4009093290580932805C5C080912805909129058130AD
:1437C800E0E09E0709F0BCC0209088003090890044245524B1
:1437DC003092250520922405509227054092260548EB5BE099
:1437F00060E070E0421553056405750564F448EB5BE060E09D
:1438040070E05093250540932405709327056093260540903A
:14381800180550901905209016053090170580901405909091
:14382C00150560901205709013056218730884089508409061
:14384000260550902705209024053090250548EB5BE060E0CC
:1438540070E042195309640975099A928A927A926A928A0193
:143868009B010E94CD4348EB5BE060E070E07A936A935A9309
:14387C004A930E947A4318012901809018059090190560905E
:14389000160570901705260C371C481C591CFE01208231823B
:1438A4004282538240901405509015052090120530901305F5
:1438B8006080718082809380261437044804590424F420823E
:1438CC00318242825382409018055090190520901605309026
:1438E0001705FE0160807180828093806214730484049504C5
:1438F40024F420823182428253822090220530902305442493
:1439080037FC4094552447FC5094FE0160807180828093801F
:14391C005A924A923A922A92830194010E94CD4310930F05C5
:1439300000930E0530931105209310052224332430922905AF
:143944002092280524960E94FD4309900FBEF991E991B99140
:14395800A991999189913991299119910991999089907990CA
:14396C00699059904990399029901990099018958A939A93D1
:143980008FB78A93879B07C081E090E0909323058093220591
:1439940006C08FEF9FEF90932305809322051F9A89918FBFA7
:1439A8009991899118950E9422430E942044249740E050E002
:1439BC0060E070E0FE0124843584468457844215530564054A
:1439D00075050CF038C0208431844284538480901C0590902E
:1439E4001D0560901A0570901B0562187308840895082484B8
:1439F80035844684578462147304840495046CF440901C05FE
:143A0C0050901D0520901A0530901B05208231824282538207
:143A20006CC0FE01248435844684578460847184828493846B
:143A3400620C731C841C951C60827182828293825AC0FE0129
:143A480004851585268537850E944B470E947E451801290104
:143A5C00FE0100851185228533850E944B473A932A931A9372
:143A70000A93209120053091210500911E0510911F050E94CD
:143A84004B473A932A931A930A930E948B452F923F924F92E3
:143A98005F920E947E455F904F903F902F903A932A931A9331
:143AAC000A935A924A923A922A920E947D4674F44090200557
:143AC0005090210520901E0530901F05FE012082318242821D
:143AD400538211C0FE01248435844684578460847184828454
:143AE8009384620C731C841C951C60827182828293824090A7
:143AFC001C0550901D0520901A0530901B05FE016080718014
:143B100082809380261437044804590424F42082318242823D
:143B24005382409020055090210520901E0530901F05FE0107
:143B38006080718082809380621473048404950424F42082CB
:143B4C00318242825382FE01008111812281338124960E9454
:143B6000FD43249608950E9420441801442437FC40945524B3
:143B740047FC5094309217052092160550921905409218057C
:143B88001901442437FC4094552447FC509430921305209274
:143B9C0012055092150540921405FE01208431844284538422
:143BB00030921B0520921A0550921D0540921C0524803580FE
:143BC4004680578030921F0520921E05509221054092200596
:143BD80040E050E060E070E050930F0540930E057093110503
:143BEC00609310050E94FD4308950E9420442497F894409021
:143C000010055090110520900E0530900F05FE0120823182BA
:143C14004282538240E050E060E070E050930F0540930E0546
:143C2800709311056093100578940081118122813381249637
:143C3C000E94FD4308950E940944A8014030450789F04130B7
:143C5000E0E05E0779F04230E0E05E0781F04330E0E05E0732
:143C640091F04430E0E05E07A1F01BC0AA981AC08BB3837F6A
:143C78008BBBAA9A15C08BB3837F8BBBDA9AAA9A0FC08BB38E
:143C8C00837F8BBBDB9AAA9A09C08BB3837F8BBB8BB38C60AA
:143CA0008BBBAA9A01C0AA980E943F170E940C4408950E945A
:143CB4002044A80108C08A010E941643B8019B018A010E941F
:143CC8009D180E94FD4308950E942044A8018A010E9416437F
:143CDC00B8019B018A010E949D180E94FD4308950E9409442F
:143CF0005CDCA8010130E0E01E0749F00230E0E01E0761F028
:143D04000330E0E01E0779F016C041E050E002E010E095DFBD
:143D1800D99A0FC042E050E001E010E08EDFD99A08C041E069
:143D2C0050E001E010E087DF8BB38D7F8BBB042F152F0E9473
:143D40000C4408950E94094430DCA8010130E0E01E0749F08F
:143D54000230E0E01E0741F00330E0E01E0739F008C041E0E9
:143D680050E005C042E050E002C041E050E0042F152F0E94D4
:143D7C000C4408950E94094412DCA8010130E0E01E0749F071
:143D90000230E0E01E0739F00330E0E01E0729F006C003E401
:143DA40005C0002703C0002701C000E20E940C4408950E9461
:143DB80022430E9424442497F4DB58010130E0E01E0759F046
:143DCC000230E0E01E0709F431C00330E0E01E0709F461C0A8
:143DE00094C048E050E060E070E0FE01228433844484558496
:143DF4007A936A935A934A93810192010E947A430E944B473F
:143E08000E946D503A932A931A930A930EEB10E00E9467443D
:143E1C003A932A931A930A930E948B450E948347FE0100835E
:143E300011832283338369C0FE01228433844484558440ED3C
:143E440057E060E070E05A924A923A922A928A019B010E948A
:143E5800CD434FEF5FE760E070E07A936A935A934A930E94BC
:143E6C007A430E944B473A932A931A930A930AEB10E00E94F6
:143E800067443A932A931A930A930E9483450E946D500E9444
:143E94008347FE01008311832283338334C0FE01228433848F
:143EA8004484558440ED57E060E070E05A924A923A922A9221
:143EBC008A019B010E94CD434FEF5FE760E070E07A936A93FB
:143ED0005A934A930E947A430E944B473A932A931A930A93AD
:143EE4000AEB10E00E9467443A932A931A930A930E9483455A
:143EF8000E946D500E948347FE010083118322833383FE017B
:143F0C00008111812281338124960E940044249608950E949E
:143F200022430E942444249740DB58010130E0E01E0751F098
:143F34000230E0E01E0759F10330E0E01E0709F44DC072C0C4
:143F4800FE01228433844484558448E050E060E070E05A9294
:143F5C004A923A922A928A019B010E94CD4340E555E560E075
:143F700070E0040F151F261F371F0E944B470E946D500E94D6
:143F84008347FE0100831183228333834DC0FE012284338485
:143F9800448455844FEF5FE760E070E05A924A923A922A9210
:143FAC008A019B010E94CD4340ED57E060E070E07A936A932A
:143FC0005A934A930E947A430E944B470E946D500E948347C5
:143FD400FE01008311832283338326C0FE012284338444845E
:143FE80055844FEF5FE760E070E05A924A923A922A928A01FD
:143FFC009B010E94CD4340ED57E060E070E07A936A935A9378
:144010004A930E947A430E944B470E946D500E948347FE0162
:144024000083118322833383FE0100811181228133812496F3
:144038000E940044249608950E9422430E94204428972090BB
:14404C00060130900701442437FC4094552447FC5094FE0183
:144060006484758486849784621873088408950848EC50E0C4
:1440740060E070E09A928A927A926A928A019B010E94CD437F
:1440880040E054E660E070E07A936A935A934A930E947A4307
:14409C000E944B470E946D500E948347FE0100831183228356
:1440B000338328960E94FD43249608950E9422430E94204442
:1440C40024972090060130900701442437FC4094552447FC83
:1440D8005094FE016084718482849384620C731C841C951CAD
:1440EC0040E054E660E070E09A928A927A926A928A019B015F
:144100000E94CD430E944B470E946D503A932A931A930A9392
:1441140006EB10E00E9467443A932A931A930A930E9423468A
:144128000E948347FE01008311832283338324960E94FD430A
:14413C002496089580E890E028B233242826392628BA0895E3
:144150000E942044A901B801239760306707C9F024DA013052
:14416400E0E01E0721F402E010E069DD03C001E010E065DD5F
:144178009E012E5F3F4F8E010E945A179E012E5F3F4F8E018E
:14418C000E945A1702C04883598309DA0130E0E01E0749F46D
:1441A00088819981843FE1E09E0764F401E010E00BC08881C2
:1441B40099818F3FEFE79E0719F401E010E002C00027112795
:1441C80023960E94FD4308950E940944A801EF97EF97609710
:1441DC002BD981E090E088839983222733278E010E5F1F4FC6
:1441F0000E94272688EA90E088839983222733278E010E5F24
:144204001F4F0E94272619D90CE110E09A010E94BD43F80144
:14421800CE014C96E80FF91F80819181853AEAE59E0709F093
:14422C0090C00CE110E09A010E94BD43F801CE010696E80FB9
:14424000F91F008111817AD90CE110E09A010E94BD43F801D9
:14425400CE010896E80FF91F0081118177D90CE110E09A01FF
:144268000E94BD43F801CE010A96E80FF91F0081118174D9C9
:14427C000CE110E09A010E94BD43F801CE010C96E80FF91F9B
:144290000081118171D90CE110E09A010E94BD43F801CE01DB
:1442A4000E96E80FF91F008111816ED90CE110E09A010E94DF
:1442B800BD43F801CE014296E80FF91F0081118126D90CE144
:1442CC0010E09A010E94BD43F801CE014496E80FF91F00817F
:1442E000118168D90CE110E09A010E94BD43F801CE0140963F
:1442F400E80FF91F0081118151D90CE110E09A010E94BD4350
:14430800F801CE014696E80FF91F0081118162D90CE110E0C3
:14431C009A010E94BD43F801CE014896E80FF91F0081118188
:144330005FD90CE110E09A010E94BD43F801CE014A96E80F88
:14434400F91F008111815CD902C00E94F21685E090E08883B9
:14435800998321E438E0002711270E94C70389E090E0888369
:14436C00998321E438E0002711270E94C7038BE090E0888353
:14438000998321E438E0002711270E94C7030E94EA2BEF96E9
:14439400EF9660960E940C4408950E940944A801EF97EF9767
:1443A800609744D881E090E088839983222733278E010E5F57
:1443BC001F4F0E94272688EA90E088839983222733278E0155
:1443D0000E5F1F4F0E94272632D8B5D818010CE110E09A01E7
:1443E4000E94BD43F801CE010696E80FF91F20823182B1D8D2
:1443F80018010CE110E09A010E94BD43F801CE010896E80F21
:14440C00F91F20823182ADD818010CE110E09A010E94BD4377
:14442000F801CE010A96E80FF91F20823182A9D818010CE135
:1444340010E09A010E94BD43F801CE010C96E80FF91F20822C
:144448003182A5D818010CE110E09A010E94BD43F801CE0135
:14445C000E96E80FF91F2082318265D818010CE110E09A0176
:144470000E94BD43F801CE014296E80FF91F208231829DD81D
:1444840018010CE110E09A010E94BD43F801CE014496E80F58
:14449800F91F2082318285D818010CE110E09A010E94BD4313
:1444AC00F801CE014096E80FF91F2082318295D818010CE187
:1444C00010E09A010E94BD43F801CE014696E80FF91F208266
:1444D400318291D818010CE110E09A010E94BD43F801CE01BD
:1444E8004896E80FF91F208231828DD818010CE110E09A0188
:1444FC000E94BD43F801CE014A96E80FF91F208231820CE111
:1445100010E09A010E94BD43F801CE014C96E80FF91F85EA42
:144524009AE5808391830E941A1A88EA90E0888399832227C5
:1445380033278E010E5F1F4F0E940A260E941F1AEF96EF96F4
:14454C0060960E940C4408950E940944A8016E974130E0E008
:144560005E0749F04230E0E05E07F9F04330E0E05E07B1F1EF
:1445740051C006E616E00E94A81A05E010E00E94B21A01E0B8
:1445880010E00E94BC1A07E010E00E94C61A02E010E002D8B2
:14459C00002711271DD800ED17E024D837C000E31CE50E945A
:1445B000A81A0FE010E00E94B21A01E010E00E94BC1A08E2B5
:1445C40010E00E94C61A01E010E00E94D01A00E510E002D865
:1445D80002EE14E009D81CC006E616E00E94A81A0CE010E00C
:1445EC000E94B21A01E010E00E94BC1A04E110E00E94C61AAD
:1446000002E010E00E94D01A002711270E94EE1A00ED17E05B
:144614000E94F81A04E610E00E949E1A08E010E00E948B1A8B
:1446280001E010E00E94DA1A85E090E08883998321E438E0FE
:14463C00002711270E94C70389E090E08883998321E438E082
:14465000002711270E94C7038BE090E08883998321E438E06C
:14466400002711270E94C7030E94EA2B6E960E940C4408952D
:144678000E9424442227332701E010E065DD00300107E1F065
:14468C0004E512E00E94E73458010E94C12B21E004E00E9414
:1446A000B42300ED17E00E94D2250E94123829E004E00E9437
:1446B400B42381E090E0909301018093000136C00E94B71AA8
:1446C80010935C0400935B040E94CB1A10935E0400935D0469
:1446DC000E94C11A1093600400935F044FEF5FE760E070E03C
:1446F00050930301409302017093050160930401222433245B
:1447040030927D0420927C0421E004E00E94B42381E090E0FD
:144718009093730480937204A89AE4DA222433243092010109
:14472C00209200010E940044089506D00E94123829E004E094
:144740000C94B42322243324309273042092720485B38E7FAB
:1447540085BB2FEF0FE70C94E22380E58DB922242EB80895E4
:144768000E942044422F602FF6DF85B3877F85BB8FEF90E0F6
:14477C0090937F0480937E046FB9779908C020907E043090FC
:144790007F042220C1F73320B1F78FEF90E090937F048093F6
:1447A4007E044FB9779908C020907E0430907F042220C1F730
:1447B8003320B1F7AB9A0E94FD43089589E58DB922242EB84E
:1447CC0085B38D7F85BB8FEF90E090937F0480937E042FB845
:1447E000779908C020907E0430907F042220C1F73320B1F783
:1447F4008FEF90E090937F0480937E040FB9779908C0209038
:144808007E0430907F042220C1F73320B1F78FEF90E09093D1
:14481C007F0480937E042FB9779908C020907E0430907F043B
:144830002220C1F73320B1F72224332430927F0420927E0469
:14484400A99A2DB808950FB90FB1112708950A920FB60A9241
:14485800000009900FBE099018950E9409441801232C3324F2
:14486C002092980000939900222420929B0088E980939A0011
:1448800086E080939D00442740936C0540936D0540932A0518
:1448940040932B050E940C4408952A920A932A938A939A931E
:1448A800EA93FA932FB62A920E9409440FB720919C0040917E
:1448BC006D054F5F4F7F20906C05421549F040936D058EE690
:1448D00095E0E42FFF27E80FF91F20830FBF0E940C442990FB
:1448E4002FBEF991E9919991899129910991299018952A9215
:1448F8003A920A932A933A938A939A93EA93FA932FB62A92C4
:14490C000FB720902A0530902B05321481F020912A052F5FDD
:144920002F7320932A058CE295E0E22FFF27E80FF91F208036
:1449340020929C0005C080919A008F7D80939A000FBF299071
:144948002FBEF991E991999189913991299109913990299086
:14495C00189520906C05332400916D05112702191309089513
:1449700020902B05332440902A0555244218530800E410E0FB
:1449840004191509089520906C0530906D053214D1F3009159
:144998006C050F5F0F7F00936C058EE695E0E02FFF27E80F85
:1449AC00F91F008108950E94094440912B054F5F4F732090B1
:1449C0002A054215E1F38CE295E0E42FFF27E80FF91F0083DB
:1449D40040932B0580919A00806280939A000E940C44089503
:1449E8000E94094420906C0530906D053214A1F0003001076A
:1449FC0079F040916C054F5F4F7F8EE695E0E42FFF27E80F67
:144A1000F91F20803324F8012082318201E001C000270E94CA
:144A24000C44089520906C0520926D0508950E9420448CE03D
:144A380083BF8CEA81BF82E187BF40E050E060E070E0509306
:144A4C0083044093820470938504609384040E94FD430895F0
:144A60002A923A924A925A928A939A93AA93BA93EA932FB6BC
:144A74002A920E94204441E050E060E070E040908404509053
:144A880085042090820430908304240E351E461E571E3092F4
:144A9C00830420928204509285044092840420907A04309094
:144AB0007B04222011F4332049F080917A0490917B040197D9
:144AC40090937B0480937A0422243324409080045090810455
:144AD8002414350434F4C201019790938104809380042090E7
:144AEC00780430907904222011F4332049F08091780490917C
:144B000079040197909379048093780420907E0430907F04E8
:144B1400222011F4332049F080917E0490917F0401979093C8
:144B28007F0480937E042224332440907C0450907D042414DB
:144B3C00350434F4C201019790937D0480937C0422243324D5
:144B500040907404509075042414350434F4C2010197909399
:144B64007504809374042224332440907604509077042414BF
:144B7800350434F4C201019790937704809376040E94FD4360
:144B8C0029902FBEE991B991A99199918991599049903990A2
:144BA000299018950E940944A80150937B0440937A0402C08E
:144BB4000E94A02020907A0430907B042220C1F73320B1F729
:144BC8000E940C4408950E942243229781E090E08883998392
:144BDC009E012E5F3F4F0C811D810E942245269608950E94DC
:144BF0000944A801239781E090E0888399839E012E5F3F4F4F
:144C04008A010E94FE440A8123960E940C4408950E94244450
:144C1800B90158014E815F8122243324241635060CF00EC0EA
:144C2C001B016F5F7F4F9101F50101915F01C9DFCA01019737
:144C4000AC014030450791F70E94004408950E942444B90128
:144C540058014E815F8122243324241635060CF00EC01B014C
:144C68006F5F7F4F8101BFDFF50101935F01CA010197AC0182
:144C7C004030450791F70E94004408950E9409441801232C06
:144C900033242092900009B988E98AB944274093B106409339
:144CA400B20640936F06409370060E940C4408952A920A93CB
:144CB8002A933A938A939A93EA93FA932FB62A920CB12091FB
:144CCC00B2062F5F2F7F2090B106221549F02093B20683EB30
:144CE00096E0E22FFF27E80FF91F008329902FBEF991E991D7
:144CF40099918991399129910991299018952A923A920A93BF
:144D08001A938A939A93EA93FA932FB62A9220906F06309010
:144D1C007006321479F000916F060F5F0F7300936F0681E7F8
:144D300096E0E02FFF27E80FF91F20802CB801C055982990CA
:144D44002FBEF991E9919991899119910991399029901895B3
:144D58002090B1063090B2063214D1F30091B1060F5F0F7F1A
:144D6C000093B10683EB96E0E02FFF27E80FF91F00810895A3
:144D80000E940944409170064F5F4F7320906F064215E1F329
:144D940081E796E0E42FFF27E80FF91F008340937006559A2A
:144DA8000E940C4408950E9409442090B1063090B206321454
:144DBC00A1F00030010779F04091B1064F5F4F7F83EB96E0C9
:144DD000E42FFF27E80FF91F20803324F8012082318201E061
:144DE40001C000270E940C4408952090B1062092B2060895D6
:144DF80085E88093740080E180937000809171008C7F80932F
:144E0C007100222420926D04209278040895222420926D0484
:144E200084EA8093740002E310E00E94D2258FEF809378040E
:144E340020907804222021F02090740027FEF8CF8091710059
:144E48008C7F80936D0420907804222021F0883021F08031CE
:144E5C0011F0002706C022242092780420926D0401E008953F
:144E700080E98093730084E8809374008FEF8093780420908F
:144E84007804222021F02090740027FEF8CF809171008C7FAE
:144E980080936D04883111F0002706C02224209278042092B5
:144EAC006D0401E0089581E98093730084EC809374008FEF9E
:144EC0008093780420907804222021F02090740027FEF8CFC0
:144ED400809171008C7F80936D04803411F0002706C02224D1
:144EE8002092780420926D0401E008958FEF8093780484EC6A
:144EFC008093740020907804222021F02090740027FEF8CF8C
:144F100020907804222011F40FEF05C0222420927804009152
:144F2400730008950E9422430E942444A897FE0126A437A475
:144F380040A851A830926A042092690450926C0440926B04A2
:144F4C0022A833A844A855A866A477A480A891A86218730848
:144F600084089508830194010E944B47FE010083118322830C
:144F740033838FEF9FEF2090630330906403821593050CF0FF
:144F88003EC002A913A924A935A90E946B38209063033090EA
:144F9C006403222011F4332069F080916303909164038130F7
:144FB000E0E09E0779F08230E0E09E07A9F01DC04FEF5FE70E
:144FC40060E070E0FE01448355836683778313C04FEE58E57B
:144FD80060E070E0FE01448355836683778309C04FE057EA7B
:144FEC0060E070E0FE014483558366837783FE010481158186
:1450000026813781EFC10E94D51A58010130E0E01E0709F094
:1450140019C002ED10E00E9467443A932A931A930A93FE01B0
:1450280024803580468057805A924A923A922A920E94F14655
:14503C00FE01008311832283338318C00EEC10E00E946744E0
:145050003A932A931A930A93FE0124803580468057805A9297
:145064004A923A922A920E94F146FE0100831183228333838A
:14507800FE0100811181228133810E94834740906704509034
:14508C0068042090650430906604200E311E421E531E309251
:1450A0006604209265045092680440926704FE01208031809C
:1450B400428053805A924A923A922A920AEC10E00E946744D0
:1450C8003A932A931A930A930E947D4609F043C040E050E04F
:1450DC0060E070E04090670450906804209065043090660466
:1450F000241635064606570691F140E050E060E070E04215D5
:145104005305640575058CF441E050E060E070E0241A350A7E
:14511800460A570A3092660420926504509268044092670400
:14512C0018C041E050E060E070E0409067045090680420907F
:14514000650430906604240E351E461E571E3092660420928C
:145154006504509268044092670449E150E060E070E0409099
:14516800670450906804209065043090660442155305640521
:14517C00750564F449E150E060E070E05093660440936504DA
:14519000709368046093670447EE5FEF6FEF7FEF40906704B4
:1451A40050906804209065043090660424163506460657064A
:1451B80064F447EE5FEF6FEF7FEF50936604409365047093B0
:1451CC0068046093670400915B0410915C040E9445473A9319
:1451E0002A931A930A93FE0124803580468057805A924A92F7
:1451F4003A922A920E94EE4606EC10E00E9467443A932A9390
:145208001A930A930E942346FE01008711872287338720900C
:14521C005F0430906004442437FC4094552447FC50948090D8
:1452300067049090680460906504709066045A924A923A921C
:145244002A92830194010E94CD430E944B473A932A931A9364
:145258000A9306EC10E00E9467443A932A931A930A930E9400
:14526C002346FE01048715872687378720915D0430915E04FF
:1452800005E010E00E94BD430E9445473A932A931A930A93A1
:14529400FE0124803580468057805A924A923A922A92209110
:1452A80063043091640400916104109162040E944B473A9364
:1452BC002A931A930A930E9488450E94F146FE01008B118B69
:1452D000228B338B20843184428453845A924A923A922A9219
:1452E400FE0120883188428853885A924A923A922A920E94BF
:1452F8008045FE0124883588468857885A924A923A922A9278
:14530C000E94804502EC10E00E9467443A932A931A930A9327
:145320000E9483450E948347FE0104831583268337830081A1
:145334001181228133810E948347109362040093610430934C
:14534800640420936304FE0126A837A840AC51AC4FEF5FEFAE
:14535C0060E070E04219530964097509248035804680578015
:1453700042155305640575054CF44FEF5FEF60E070E0448374
:1453840055836683778311C0FE0126A837A840AC51AC648010
:14539800758086809780620C731C841C951C648275828682BC
:1453AC00978240E050E060E070E0FE012480358046805780FF
:1453C000241635064606570644F440E050E060E070E04483DC
:1453D400558366837783FE010481158126813781A8960E94B1
:1453E8000044249608950E942C4428970E94B62B81E08BBF17
:1453FC0080E09FED8C839D8322278C010E94A52B58010834A5
:14541000E4E51E0711F001E0CEC08C819D8102968C839D8338
:1454240022278C010E94A52B58010235EFE41E0711F001E0C2
:14543800BEC08C819D8102968C839D8322278C010E94A52BA8
:14544C0058010134ECE41E0711F001E0AEC08C819D810296B6
:145460008C839D8322278C010E94A52B58010335E2E41E0745
:1454740011F001E09EC000279CC08C819D8102968C839D836F
:1454880022278C010E94A52B0E831F838C819D8102968C83C3
:14549C009D8322278C010E94A52B78010E801F80E00CF11CF5
:1454B0008C819D8102968C839D8322278C010E94A52B680145
:1454C400AA24BB242E803F804424552440E051E060E070E0F8
:1454D8005A924A923A922A928A019B010E94CD43FE01008315
:1454EC0011832283338341C040E050E061E070E0FE0120803C
:14550000318042805380242235224622572240E050E060E043
:1455140070E0241635064606570619F081E08BBF02C0222459
:145528002BBE4FEF5FEF60E070E0FE01208031804280538085
:14553C0024223522462257222C823D82222781010E94A52B33
:14555000A00EB11E42E050E060E070E0FE01208031804280D6
:145564005380240E351E461E571E20823182428253821701FC
:145578004424552440E051E060E070E05A924A923A922A920D
:14558C008A019B010E94CD43FE012080318042805380201617
:1455A00031064206530608F4A5CFAC14BD0411F002E001C08A
:1455B400002728960E9406440895F89422242BBE81E085BF15
:1455C80025BEA6D00C94000008950E94094429E003E010E06E
:1455DC000E94A52B402F46954370F89481E085BF82E085BF75
:1455F00055274030450769F04130E0E05E0761F04230E0E0FD
:145604005E0759F04330E0E05E0751F00BC00C9400F008C0E8
:145618000C9400F805C00C9400FC02C00C9400FE0E940C4433
:14562C0008950E942444622FA02E4FB7ABBE262E3324322CEC
:145640002224B10123E081010E94942B25E08B010E94942B86
:145654000E94B62B22242BBE4FBF0E94004408950E942444F5
:14566800622FA02E4FB7ABBE262E3324322C2224B10123E05C
:14567C0081010E94942B0E94B62B22242BBE4FBF0E94004491
:1456900008950E9422430E942C44622F4FB7AA24262E332440
:1456A400322C2224B101EE24FF241AC00A840BBE22278B0161
:1456B8000E0D1F1D0E94A52B6801C60190702A2C3324280E02
:1456CC00391EC601892F992790703324280E391EA22CC701BA
:1456E00002967C01C7018030E1E09E0708F34FBF0A2D0E94E1
:1456F4000644249608950E942044602F677068604FB7F8943B
:1457080088E181BD61BD4FBFA8950E94FD4308950FB7F894AC
:14571C0088E181BD222421BC0FBF089527D0F12FE02F20936B
:145730006800E895089520D0F32FE22F112E002E31E030937F
:145744006800E8950895F12FE02F20FD20936800D895002DCE
:14575800E395D895102D0895002E19E010936800E895089532
:14576C0005D0B1E1B0936800E8950895B0916800B0FDFCCFDC
:1457800008950E940944A801FA012081318100E210E00E941E
:145794003417FA012281338101E210E00E943417FA01248104
:1457A800358102E210E00E943417FA012681378103E210E047
:1457BC000E943417FA012085318504E210E00E9434170E9431
:1457D0000C44089580917404909175048030E0E09E0734F478
:1457E40088E893E1909375048093740408956E978FEF9FEFF8
:1457F80090937504809374040E94A31A0E831F830E94AD1A7B
:14580C00088719870E94B71A0A871B870E94C11A0C871D87FF
:145820000E94CB1A0E871F870E94D51A088B198B0E94991A95
:145834000A8B1B8B0E94DF1A0C8B1D8B0E94F31A0E8B1F8B59
:145848000E94FD1A088F198F0E94071B0A8F1B8F85EA9AE55F
:14585C008C8F9D8F0E941A1A8CE190E0888399832227332774
:145870008E010E5F1F4F0E940A260E941F1A6E9608950E94CA
:1458840028445801289740E050E060E070E04C835D836E830C
:145898007F8340E050E060E070E0488359836A837B8321E087
:1458AC0030E001E010E00E94B31D20907204309073042220F6
:1458C00031F4332021F482E090E06C0103C081E090E06C0107
:1458D40020905E0230905F02222039F5332029F520905C02A0
:1458E80030905D022A0C3B1C30925D0220925C02C101873056
:1458FC00E0E09E0734F02224332430925D0220925C02809130
:145910005C0290915D028030E0E09E070CF0BBC086E090E043
:1459240090935D0280935C02B4C0AA2009F045C0BB2009F06C
:1459380042C020905C0230905D02222011F43320C9F08091C8
:14594C005C0290915D028230E0E09E07D1F08030E0E09E077C
:1459600074F180915C0290915D028630E0E09E07B9F0883063
:14597400E0E09E07D1F021C007E010E00E94661B10935F021A
:1459880000935E0218C004E010E00E94661B10935F020093B2
:14599C005E020FC00E94071B10935F0200935E0208C00CE059
:1459B00010E00E94661B10935F0200935E0220905E02309009
:1459C4005F022A0C3B1C30925F0220925E02C1018530E0E075
:1459D8009E0734F081E090E090935F0280935E0220915E0219
:1459EC0030915F020DE210E00E94BD438EE692E01801280ECF
:145A0000391E20915C0230915D0205E010E00E94BD43020D86
:145A1400131D0E9416430030010731F481E090E090935F02A1
:145A280080935E022224332440905E0250905F022414350478
:145A3C0064F184E090E090935F0280935E0209C080915E02FC
:145A500090915F02019790935F0280935E0220915E0230915F
:145A64005F020DE210E00E94BD438EE692E01801280E391EC0
:145A780020915C0230915D0205E010E00E94BD43020D131D35
:145A8C000E94164300300107D9F220915E0230915F020DE2E6
:145AA00010E00E94BD438EE692E01801280E391E20915C02C5
:145AB40030915D0205E010E00E94BD43020D131D84D7580154
:145AC8002224332440905E0250905F02241435046CF48091DA
:145ADC005C0290915D028130E0E09E0729F08530E0E09E078F
:145AF00009F053D4850145DE28960E94034408950E942C4483
:145B04002D9720905A0230905B02222009F06DC2332009F0EA
:145B18006AC220905E0230905F02222009F0CFC0332009F006
:145B2C00CCC080915C0290915D028330E0E09E0709F463C0B2
:145B40008430E0E09E0709F488C08730E0E09E0709F0ACC072
:145B5400002711270E94661B10936F0400936E040027112741
:145B68000E947C360E94A21E0B871C8720906E0430906F04E9
:145B7C00442437FC4094552447FC5094810192010E94DB1E56
:145B900010936F0400936E040E94C01EE02E0334A1F40CE0A0
:145BA40010E00E94661B0230E0E01E0761F486E4E82E2B853E
:145BB8003C8500916E0410916F040E94E40C680104C0C090F2
:145BCC006E04D0906F04EA820B841C84088219821601442441
:145BE00037FC4094552447FC509481019201EAD45801D3D338
:145BF4008501C5DD81E090E090935B0280935A02C6C306E046
:145C080010E00E94661B10936F0400936E0406E010E00E94E2
:145C1C007C3681E48A8382E090E08883998320906E04309075
:145C30006F04442437FC4094552447FC509481019201C0D435
:145C44005801A9D385019BDD81E090E090935B0280935A02B9
:145C58009CC305E010E00E94661B10936F0400936E0405E0E1
:145C6C0010E00E947C3622242A8233242882398220906E0410
:145C800030906F04442437FC4094552447FC509481019201B9
:145C940097D4580180D3850172DD81E090E090935B028093AC
:145CA8005A0273C380915E0290915F02019690935F02809335
:145CBC005E0200271127DFDD66C320905C0230905D022220C1
:145CD00019F4332009F4A1C080915C0290915D028130E0E0A2
:145CE4009E07D1F08230E0E09E0709F4C7C08530E0E09E0791
:145CF80009F447C08630E0E09E0709F4B5C08730E0E09E07EB
:145D0C0009F4DEC08830E0E09E0709F418C120C180915E02A3
:145D200090915F028430E0E09E0719F40E945C3830C300910D
:145D34005E0210915F020E94661B10936F0400936E0400912A
:145D48005E0210915F02D4D722242A823324288239822090DC
:145D5C006E0430906F04442437FC4094552447FC50948101FD
:145D7000920128D4580111D3850103DD81E090E090935B029C
:145D840080935A0204C380915E0290915F028130E0E09E07CC
:145D9800E1F481E090E090936F0480936E0408E010E0A6D7E1
:145DAC0020906E0430906F04288239822FE533E08E01085F0C
:145DC0001F4F0E94A8568E01085F1F4F00D658011BC081E0F2
:145DD40090E090936F0480936E0409E010E08AD720906E04D4
:145DE80030906F04288239822BE533E08E01085F1F4F0E94E6
:145DFC00A8568E01085F1F4FE4D558018501BBDC81E090E031
:145E100090935B0280935A02BCC280915E0290915F0284306A
:145E2400E0E09E0779F488E090E090935D0280935C0281E06C
:145E380090935F0280935E02002711271EDDA5C220915E028D
:145E4C0030915F0207E010E00E940C1BBDDC8BE090E0888301
:145E6000998321E438E0002711270E94C70376C000915E0203
:145E740010915F020E94021BABDC6EC00E94A22320915E022C
:145E880030915F0204E010E00E940C1B0E94B9379DDC87E0D5
:145E9C0090E090935D0280935C0281E090935F0280935E0237
:145EB00000271127E6DC85E090E08883998321E438E000277D
:145EC40011270E94C70363C20E94A21E0B871C8780915E02F9
:145ED80090915F028130E0E09E0751F40E94FD1A10936F040A
:145EEC0000936E040BE010E001D709C00E94F31A10936F045C
:145F000000936E040AE010E0F7D60E94C01EE02EEA820B8458
:145F14001C840882198220906E0430906F04442437FC4094F0
:145F2800552447FC50948101920148D3580131D2850123DCB4
:145F3C0081E090E090935B0280935A0224C220915E023091D9
:145F50005F020CE010E00E940C1B3CDC20915E0230915F02EC
:145F64000DE210E00E94BD438EE692E01801280E391E20916B
:145F78005C0230915D0205E010E00E94BD43020D131D21D5EB
:145F8C0058012224332440905E0250905F02241435044CF4E9
:145FA00080915C0290915D028130E0E09E0709F0F4D18501A4
:145FB400E6DB08EE13E00E94D22580915C0290915D028830EF
:145FC800E0E09E0731F42224332430925D0220925C02222427
:145FDC00332430925F0220925E02002711274BDCD2C18091FB
:145FF0005A0290915B028130E0E09E0709F0B4C180915C02D0
:1460040090915D028130E0E09E0709F40DC18330E0E09E070F
:1460180009F4D7C08430E0E09E0709F4EBC08530E0E09E0705
:14602C0009F418C18730E0E09E0709F05CC120905E02309088
:146040005F02222009F0A4C0332009F0A1C020906E043090BD
:146054006F04442437FC4094552447FC5094810192010E94FF
