:020000040800F2
:100000005023002059970008779700087997000837
:100010007B9700087D9700087F970008000000008C
:1000200000000000000000000000000081970008B0
:100030008397000800000000859700088797000854
:100040008997000889970008899700088997000810
:100050008997000889970008899700088997000800
:1000600089970008899700088997000889970008F0
:1000700089970008899700088997000889970008E0
:1000800089970008899700088997000889970008D0
:1000900089970008899700088997000889970008C0
:1000A00089970008899700088997000889970008B0
:1000B00089970008FF4D0008899700088997000874
:1000C000899700088997000889970008E954000873
:1000D0008997000889970008899700088997000880
:1000E0008997000889970008899700088997000870
:1000F0008997000889970008899700088997000860
:10010000899700088997000889970008899700084F
:10011000899700088997000889970008899700083F
:10012000899700088997000889970008899700082F
:10013000899700088997000889970008899700081F
:10014000899700088997000889970008899700080F
:1001500089970008899700088997000889970008FF
:1001600089970008899700088997000889970008EF
:1001700089970008899700088997000889970008DF
:10018000899700088997000800F002F800F05CF8F1
:100190000AA090E8000C82448344AAF10107DA45E2
:1001A00001D100F051F8AFF2090EBAE80F0013F0D8
:1001B000010F18BFFB1A43F0010318475CAC0000A5
:1001C0007CAC00000A444FF0000C10F8013B13F027
:1001D000070408BF10F8014B1D1108BF10F8015BA0
:1001E000641E05D010F8016B641E01F8016BF9D193
:1001F00013F0080F1EBF10F8014BAD1C0C1B09D1EA
:100200006D1E58BF01F801CBFAD505E014F8016B5B
:1002100001F8016B6D1EF9D59142D6D370470000ED
:100220000023002400250026103A28BF78C1FBD8FF
:10023000520728BF30C148BF0B6070471FB50AF096
:1002400047FD1FBD10B510BD09F06AFB1146FFF751
:10025000F5FF03F041FD09F088FB03B4FFF7F2FF5F
:1002600003BC09F08BFB000010B50446B4F5886FA1
:100270007ED011DC40F22341A4EB01008C4278D007
:1002800005DCA4F2134098B1032873D137E00328AA
:1002900071D01728F9D1A2E0B4F5966F6CD0A4F212
:1002A000B340002869D0032868D04D28EDD14EE135
:1002B0000020FA494861FA48016CF8488162F84820
:1002C000416CF648C162F648816CF4480163F44819
:1002D000C16CF2484163F248016DF0488163F04817
:1002E000416DEE48C163EE48816DEC480164EC4815
:1002F000C16DEA4841644AF65521816446E1E84807
:10030000D0F88010E548C164E548D0F88410E3488F
:100310000165E348D0F88810E0484165E048D0F82E
:100320008C10DE488165DE48D0F89010DB48C1654E
:10033000DB48D0F89410D9480166D948D0F8981015
:10034000D6484166D648D0F89C10D4488166D44837
:10035000016ED248C166D248416ED0480167D0488C
:10036000816ECE484167CE48C16ECC48816706E0B9
:1003700036E03BE009E1E4E0BBE0D7E03CE0C84820
:10038000016FC648C167C648416FC448C0F88010B5
:10039000C348816FC148C0F88410C148C16FBF48CD
:1003A000C0F88810BE48D0F8A010BC48C0F8901023
:1003B000BB48D0F8A410B948C0F89410B848D0F899
:1003C000A810B648C0F89810B548D0F8AC10B3489B
:1003D000C0F89C104AF65521C0F8A010D6E0D5E030
:1003E0004AF65521AD48C0F8C010CFE04AF6552175
:1003F000AA48C0F8D810C9E0A948D0F8B010A7485A
:10040000C0F8DC10A648D0F8B410A448C0F8E0103A
:10041000A348D0F8B810A148C0F8E410A048D0F81C
:10042000BC109E48C0F8E8109D48D0F8C0109B480A
:10043000C0F8EC109A48D0F8C4109848C0F8F010F2
:100440009748D0F8C8109548C0F8F4109448D0F8F0
:10045000CC109248C0F8F8109148D0F8D0108F48CE
:10046000C0F8FC108E48D0F8D4108C48C0F80011A9
:100470008B48D0F8D8108948C0F804118848D0F8C3
:10048000DC108648C0F808118548D0F8E010834891
:10049000C0F80C118248D0F8E4108048C0F8101160
:1004A0007F48D0F8E8107D48C0F814117C48D0F897
:1004B000EC107A48C0F818117948D0F8F010774855
:1004C000C0F81C117648D0F8F4107448C0F8201118
:1004D0007348D0F8F8107148C0F824117048D0F86B
:1004E000FC106E48C0F828114AF65521C0F82C11AE
:1004F0004CE06B48D0F800116848C0F838116848E3
:10050000D0F804116548C0F83C116548D0F80811CE
:100510006248C0F840116248D0F80C115F48C0F83A
:1005200044114AF65521C0F848112FE05D48B0F853
:1005300078105A48C0F830114AF65521C0F83411E5
:1005400024E04AF655215548C0F854111EE056489B
:1005500001685248C0F86011534841684F48C0F8DC
:100560006411514881684D48C0F868114E48C1680F
:100570004A48C0F86C114C4801694848C0F87011ED
:100580004AF65521C0F8741100E000BF00BF47488B
:100590004249486005F0A9FD10BD30B54448841FAC
:1005A000E488A3B2092B5FD004DC052B07D0072B0E
:1005B00073D11DE0112B7DD0132BF9D1CBE04288F4
:1005C000012A03D10024364D2C6010E0022A03D109
:1005D0000024334D6C600AE0042A03D10024304D1E
:1005E000AC6004E0082A02D100242D4DEC600CE13F
:1005F000418801242A4DC5F82441012906D0022949
:100600000FD0042918D008292CD120E08488244D4B
:10061000C5F81441D0F806402C65D0F80A402C6487
:1006200020E085881E4CC4F81851D0F80650656546
:10063000D0F80A50656415E08588194CC4F81C513F
:10064000D0F80650A565D0F80A50A5640AE0858860
:10065000134CC4F82051D0F80650E565D0F80A5084
:10066000E56400BF00BFD0E04188012906D002291F
:1006700021D004292ED008294AD13AE08488084D97
:10068000C5F88040D0F80640C5F89040D0F80A4040
:100690002C67D0F80E402C663AE0B5E0541B0020E1
:1006A000BC0200209C010020080000200200010084
:1006B000B60C00202EE08588F74CC4F88450D0F8A2
:1006C0000650C4F89450D0F80A506567D0F80E5020
:1006D00065661DE08588F04CC4F88850D0F8065057
:1006E000C4F89850D0F80A50A567D0F80E50A56607
:1006F0000EE08588E84CC4F88C50D0F80650C4F859
:100700009C50D0F80A50E567D0F80E50E56600BF5F
:1007100000BF7AE04188012906D0022909D00429C6
:100720000CD0082914D10EE04468DB4DC5F8004117
:100730000FE04568D84CC4F804510AE04568D64C2F
:10074000C4F8085105E04568D34CC4F80C5100E0EA
:1007500000BF00BF59E04188012906D0022917D007
:10076000042928D008294CD138E08488CA4DC5F81E
:10077000B040D0F80640C5F8C040D0F80A40C5F8EF
:10078000D040C489C5F8E040048AC5F8F04039E09B
:100790008588C14CC4F8B450D0F80650C4F8C45091
:1007A000D0F80A50C4F8D450C589C4F8E450058A7A
:1007B000C4F8F45026E08588B74CC4F8B850D0F897
:1007C0000650C4F8C850D0F80A50C4F8D850C589AB
:1007D000C4F8E850058AC4F8F85013E08588AE4C98
:1007E000C4F8BC50D0F80650C4F8CC50D0F80A5029
:1007F000C4F8DC50C589C4F8EC50058AC4F8FC5034
:1008000000E000BF00BF00E000BF00BF30BD1FB56B
:1008100004460E20A14988700020C870812008710C
:10082000012C0BD10120ADF800009B480068CDF8E9
:1008300002000020CDF80600CDF80A00022C0BD1F2
:100840000220ADF8000094484068CDF80200002076
:10085000CDF80600CDF80A00042C0BD10420ADF829
:1008600000008D488068CDF802000020CDF8060019
:10087000CDF80A00082C0BD10820ADF800008648FE
:10088000C068CDF802000020CDF80600CDF80A00BF
:100890000621824804F03FF90E21684604F03BF936
:1008A0001FBD2DE9F0410146002000278446DFF8F6
:1008B000F08198F802300B2B7ED008DC032B0DD092
:1008C000052B16D0072B78D0092B77D139E00F2BC9
:1008D00075D0112B74D0132BF7D175E108200B8044
:1008E0004FF00108A1F802804FF06408C1F80480BD
:1008F00003E2DFF8AC8198F803200C200B804A80DB
:10090000012A04D1DFF89081D8F8004013E0022AD0
:1009100004D1DFF88481D8F804400CE0042A04D123
:10092000DFF87481D8F8084005E0082A03D1DFF821
:100930006881D8F80C404C604FF00008C1F808807E
:10094000DBE1DFF85C8198F8032012200B804A80FD
:10095000012A18D1DFF84081B8F88080A1F804801E
:10096000DFF83481D8F89080C1F80680DFF828815C
:10097000D8F87080C1F80A80DFF81C81D8F8608050
:10098000C1F80E8055E0022A1ED1DFF80C81B8F8BC
:100990008480A1F80480DFF80081D8F89480C1F841
:1009A0000680DFF8F480D8F87480C1F80A80DFF898
:1009B000E880D8F8648004E0BBE03BE09CE19BE089
:1009C000D3E0C1F80E8034E0042A18D1DFF8C880E3
:1009D000B8F88880A1F80480DFF8BC80D8F8988047
:1009E000C1F80680DFF8B080D8F87880C1F80A80B6
:1009F000DFF8A480D8F86880C1F80E8019E0082AD2
:100A000017D1DFF89480B8F88C80A1F80480DFF863
:100A10008880D8F89C80C1F80680DFF87C80D8F800
:100A20007C80C1F80A80DFF87080D8F86C80C1F84B
:100A30000E8062E1DFF8688098F803200E200B80BA
:100A40004A80012A12D1DFF85080B8F81481A1F849
:100A50000480DFF84480D8F85080C1F80680DFF8C1
:100A60003880D8F84080C1F80A8044E0022A19D1C1
:100A7000DFF82480B8F81881A1F80480DFF8188026
:100A8000D8F85480C1F80680DFF80C80D8F844808C
:100A9000C1F80A802FE00000BC02002034000020D2
:100AA000B00C0020042A12D1DFF82C86B8F81C8183
:100AB000A1F80480DFF82086D8F85880C1F80680B5
:100AC000DFF81486D8F84880C1F80A8013E0082AB5
:100AD00011D1DFF80486B8F82081A1F80480DFF88E
:100AE000F885D8F85C80C1F80680DFF8EC85D8F886
:100AF0004C80C1F80A8000E110200B804FF0010803
:100B0000A1F80280012A08D1A1F80480A1F806808A
:100B100032268E600A25CD600AE0022A08D190466E
:100B2000A1F80480A1F8068032268E600C25CD60E5
:100B3000E3E00A200B804FF00108A1F80280012AAF
:100B400008D14FF00408A1F804804FF00108A1F883
:100B5000088009E0022A07D14FF00408A1F80480B8
:100B60004FF00108A1F80880C7E0DFF8708598F819
:100B7000032008200B804A8042F21078C1F80480DC
:100B8000012A06D1DFF85085D8F80081C1F8048029
:100B900019E0022A06D1DFF84085D8F80481C1F8AF
:100BA000048010E0042A06D1DFF82C85D8F80881EB
:100BB000C1F8048007E0082A05D1DFF81C85D8F8C1
:100BC0000C81C1F8048098E0DFF8108598F80320C4
:100BD00012200B804A80012A22D14FF00108A1F88F
:100BE0000280DFF8F484B8F8B080A1F80480DFF860
:100BF000E884D8F8C080C1F80680DFF8DC84D8F833
:100C0000D080C1F80A80DFF8D084B8F8E080A1F87D
:100C10000E80DFF8C484B8F8F080A1F810806AE094
:100C2000022A21D19046A1F80280DFF8AC84B8F8FE
:100C3000B480A1F80480DFF8A084D8F8C480C1F89B
:100C40000680DFF89484D8F8D480C1F80A80DFF8F1
:100C50008884B8F8E480A1F80E80DFF87C84B8F8C6
:100C6000F480A1F8108046E0042A21D19046A1F832
:100C70000280DFF86484B8F8B880A1F80480DFF857
:100C80005884D8F8C880C1F80680DFF84C84D8F8BA
:100C9000D880C1F80A80DFF84084B8F8E880A1F86D
:100CA0000E80DFF83484B8F8F880A1F8108022E0D4
:100CB000082A20D19046A1F80280DFF81C84B8F8F9
:100CC000BC80A1F80480DFF81084D8F8CC80C1F88B
:100CD0000680DFF80484D8F8DC80C1F80A80DFF8E9
:100CE000F883B8F8EC80A1F80E80DFF8EC83B8F850
:100CF000FC80A1F8108000E000BF00BFBDE8F081DB
:100D000010B502460020F649F64B32B1012A15D043
:100D1000022A25D0032A47D134E08C6A012C04D062
:100D200091F82C4004F001043CB1EB4CD4F848415C
:100D30001CB940F0100040F0200036E08C6A012C15
:100D400004D091F82C4004F0010444B1E24CD4F8F2
:100D50004841012C03D140F0100040F0200024E075
:100D60008C6A012C04D091F82C4004F0010444B1A9
:100D7000D94CD4F84841022C03D140F0100040F087
:100D8000200012E08C6A012C04D091F82C4004F071
:100D9000010444B1D04CD4F84841032C03D140F0B5
:100DA000100040F0200000E000BF00BF10BD2DE9A2
:100DB000F04F2DED048BA9B0002008909FEDCA0ADA
:100DC000B0EE409A06909FEDC90AF0EE408AC54CFD
:100DD000C34EDFF81C93C148008880B2119012AD59
:100DE000AF1DDFF8F88208F106080020E870012046
:100DF000287150206871002010900F901198B0F564
:100E00008A6F01F002805ADC40F21342A0EB02012B
:100E1000904275D02DDC40F21122A0EB02019042ED
:100E20006FD012DC12286DD007DC02286BD00528A9
:100E30006AD0112842F039810FE114287CD015289E
:100E40007BD0B0F5047FF5D1FEE3B1F5FC7F75D022
:100E500006DC022973D0032972D01229EAD1F5E009
:100E6000A1F2F91100296CD006296BD00729E1D134
:100E7000EBE3282967D012DC10296ED008DC0129A9
:100E80006CD0032901F087800429D3D101F093B8F5
:100E9000112977D0162976D02729CBD1FEE3A1F1ED
:100EA0002D00092882F00181DFE810F0D306E0066A
:100EB000FF10F906FF1040074507FF10660740F2D4
:100EC000F342811A904201F0A28148DC40F2B14223
:100ED000A0EB0201904201F006811FDC40F2654266
:100EE000A0EB0201904201F035800EDCA0F25140EF
:100EF00000287DD002287CD006289BD100F0E2BFDC
:100F0000F2E3F2E3B2E0B9E059E0052901F06D80C7
:100F10002D296FD04B298DD101F0D6B8062901F0CB
:100F20003B8111DC022901F0EF80032901F0F280FE
:100F3000052988D101F000B992E2F8E3F8E3F8E37B
:100F4000F8E3F8E3F8E3F8E308297DD0352901F068
:100F5000FE8236298BD101F0DBBAEFE3EFE340F2FA
:100F6000DD32881A914201F01C8619DC0E296CD002
:100F70000ADC012901F03181022901F037810D29B4
:100F80008BD1EFE3EFE3EFE3A1F2CD31002901F0E4
:100F90000386012901F0F5820229AED101F0ECBAF5
:100FA0000A2882F08280DFE810F08010BF0C8010E9
:100FB000E20B090B560C8010A60B8010C00C06200B
:100FC00028805420A870287940F08000287154228D
:100FD0004849384608F016FC47A0007887F84200D8
:100FE00045A041784320C15543A0C178442002E088
:100FF000FEE3FEE33FE0C1553FA001794520C15526
:1010000040A00079202801D1302001E03DA00079E6
:101010004621C8553BA041794720C15539A00178E8
:101020004820C15537A041784920C15535A0817865
:101030004A20C15500214B20C155012010900220AB
:101040003349086002F032B81EE0E7E3012031497D
:10105000C1F89800A1F87800F4E7706A20F40070F5
:1010600000F50070706200207063EBE7706A20F496
:1010700000707062E6E700207063E3E70420244913
:10108000086000201090DDE704F07AFEB8F8020056
:1010900011901198B0F5886F7ED011DC40F2234298
:1010A000A0EB0201904278D005DCA0F2134098B387
:1010B000032873D158E0032971D01729F9D1C3E06F
:1010C000B0F5966F6CD0A0F2B340002869D0032829
:1010D00068D04D28EDD19BE1BC020020B00C00206F
:1010E00074020020781A00200000803D00000000FB
:1010F000CC1C00202601002031353A34313A3334FB
:10110000000000004E6F762031352032303137003C
:10111000401B00209C010020FFE70020F8494861A7
:10112000F848016CF6488162F648416CF448C162A7
:10113000F448816CF2480163F248C16CF0484163A5
:10114000F048016DEE48C163EE48416DEC48C16363
:10115000EC48816DEA48C163EA48C16DE848C16363
:101160004AF65521816472E1E648D0F88010E448DF
:10117000C164E448D0F88410E1480165E148D0F842
:101180008810DF484165DF48D0F88C10DC48816565
:10119000DC48D0F8901006E062E073E056E12BE105
:1011A00002E11EE183E0D648C165D648D0F894102C
:1011B000D3480166D348D0F89810D1484166D14849
:1011C000D0F89C10CE488166CE48016ECC48C166EE
:1011D000CC48416ECA480167CA48816EC848416719
:1011E000C848C16EC6488167C648016FC448C16718
:1011F000C448416FC248C0F88010C248816FC048DF
:10120000C0F88410BF48C16FBD48C0F88810BD4801
:10121000D0F8A010BA48C0F89010BA48D0F8A4107E
:10122000B748C0F89410B748D0F8A810B448C0F830
:101230009810B448D0F8AC10B148C0F89C104AF6E9
:101240005521C0F8A01002E1AD48216BC0F8A410F0
:10125000216BC0F8A8104AF65521C0F8AC10F6E092
:10126000A748E16BC0F8B010216CC0F8B410616BF6
:10127000C0F8B810616CC0F8BC104AF65521C0F82F
:10128000C010E4E09E48216EC0F8C410616EC0F842
:10129000C810A16EC0F8CC10E16EC0F8D010216F5C
:1012A000C0F8D4104AF65521C0F8D810CFE09548C0
:1012B000D0F8B0109248C0F8DC109248D0F8B410C2
:1012C0008F48C0F8E0108F48D0F8B8108C48C0F8AC
:1012D000E4108C48D0F8BC108948C0F8E810894860
:1012E000D0F8C0108648C0F8EC108648D0F8C4107A
:1012F0008348C0F8F0108348D0F8C8108048C0F880
:10130000F4108048D0F8CC107D48C0F8F8107D4823
:10131000D0F8D0107A48C0F8FC107A48D0F8D41031
:101320007748C0F800117748D0F8D8107448C0F852
:1013300004117448D0F8DC107148C0F808117148E5
:10134000D0F8E0106E48C0F80C116E48D0F8E410E8
:101350006B48C0F810116B48D0F8E8106848C0F826
:1013600014116848D0F8EC106548C0F818116548A9
:10137000D0F8F0106248C0F81C116248D0F8F410A0
:101380005F48C0F820115F48D0F8F8105C48C0F8FA
:1013900024115C48D0F8FC105948C0F828114AF6CE
:1013A0005521C0F82C1152E05648D0F8001154488D
:1013B000C0F838115348D0F804115148C0F83C1116
:1013C0005048D0F808114E48C0F840114D48D0F8A8
:1013D0000C114B48C0F844114AF65521C0F8481189
:1013E00035E04948B0F878104548C0F830114AF661
:1013F0005521C0F834112AE04148616FC0F84C1102
:10140000A16FC0F850114AF65521C0F854111EE0E2
:101410003E4801683A48C0F860113C484168384885
:10142000C0F86411394881683548C0F868113748F8
:10143000C1683348C0F86C11344801693048C0F8BD
:1014400070114AF65521C0F8741100E000BF00BFCA
:101450002F482B49486004F048FE04F06FFCF1E58A
:10146000D8F800000490D8F804000390D8F80800D9
:101470000290D8F80C000190049822287AD018DC49
:101480000F2878D00CDC0C2844D004DC022849D08A
:10149000042871D130E00D2840D00E28F9D128E180
:1014A000102821D0112824D020287CD02128F0D148
:1014B00041E0282861D008DCA0F1230005285BD298
:1014C000DFE800F0748DA3A8AE0029286CD02A288C
:1014D00006D0B0F5C87F68D0B0F5A06FD9D135E19E
:1014E0000398FEF7C1FE9CE106490398C1F86C0120
:1014F00097E107F0F0FB94E1D8F80400606790E111
:10150000541B0020BC0200209C0100200800002089
:1015100002000100D8F80400A06282E1D8F80400BB
:1015200060627EE1D8F80400FE49086004F0DDFD49
:101530000020109075E10398B0F57A7F0AD1112050
:10154000F9490860012048610F2088610298C8624B
:1015500001988860039810F57A7F0AD11220F24929
:10156000086001204861052088610298C8620198DE
:10157000886056E107E0C8E052E1EC49039808644E
:10158000029808654DE10398B0F57A7F02D1E649EB
:1015900002988863039810F57A7F03D14FF0FF30EB
:1015A000E14908603DE1CBE07BE0FDE00398B0F568
:1015B0007A7F03D14FF00040DD4908600398B0F511
:1015C000FA6F03D14FF40040D949086040F6B831B2
:1015D0000398884202D10120D349C86321E10398CE
:1015E00010B9D149039808640398012802D1CE4963
:1015F000039808640298002806DD0298B0F5FA6F97
:1016000002DAC949029888600BE1C8490398C1F819
:10161000700106E1C549039848650298486400E1F5
:10162000039801280AD1029818B94FF48030C149B3
:1016300088610298012801D1BE4988610398022877
:101640000ED1029830B901E0FCE192E24FF4003093
:10165000B84988610298012802D10220B549886101
:10166000039803280BD1029818B94FF48020B14990
:1016700088610298012802D10420AE49886103984C
:1016800004280DD1029818B94FF40020A9498861A7
:101690000298012804D10820A64900E02CE38861C3
:1016A000BFE0039830B101280BD002280FD00328E7
:1016B0001CD113E04FF400109F49086040000860FF
:1016C00015E020209C490860400408600FE04FF4BA
:1016D0000010994908604020086008E020209649E1
:1016E00008604020086002E067E207E200BF00BF38
:1016F00000BFD8F804008B49C8604AF6552008613D
:1017000004F0F3FC002010908BE0D8F8041085481A
:10171000C0F858114AF65521C0F85C1104F0E5FCF8
:101720008048D0F85801E0670020109079E07AE016
:1017300006E26BE175E106E216E2E6E25DE245E211
:10174000039881B27D48A0F8D0106AE0D8F8040070
:101750000E90D8F808000C900E98012805D1784911
:10176000086005E0A2E058E214E200207449086035
:101770000C9830B1022808D004280AD0082810D1CB
:101780000BE000206E4948600CE002206C49486084
:1017900008E004206A49486004E00820684948607D
:1017A00000E000BF00BF00BF40F2C571039888424F
:1017B00035D1029888BB642003F0EBF872B661481B
:1017C000006820F480005F4908600846006820F443
:1017D000001008605C495D48016000BF00BF00BFA9
:1017E00000BF00BFBFF34F8F00BF00BF00BF01E0CD
:1017F00010E321E35648006800F4E06055490843CF
:10180000001D5349086000BF00BF00BFBFF34F8FEA
:1018100000BF00BF00BF00BFFEE700E0D0E000E077
:1018200000BF00BF0EE4162028700020687028203A
:10183000A870287940F0800028712822464938464F
:1018400007F0E0FF394890ED590AB8EEC00AB0EE53
:10185000408A9FED420A28EE000AB0EE408ABDEEB3
:10186000C80A8DED070A90ED5A0AB8EEC00AF0EEEC
:10187000408A9FED3A0A28EE800AF0EE408ABDEEDB
:10188000E80A8DED060A07983860069878602748C0
:10189000D0F87401B8602548D0F87801F860234882
:1018A000D0F85C01F86001201090D8E52C48C07891
:1018B0000E900E9800F001000D900D9818B10120C7
:1018C0001F49086002E000201D4908602448C078D4
:1018D0000E900E9800F00E000D900D98022804D086
:1018E000042806D008280CD107E0022014494860DB
:1018F0000BE004201249486007E0082010494860C6
:1019000003E000200E49486000BF00BF1448C078C3
:101910000E900E9800F010000D900D98102827D111
:1019200001201FE0541B002040040020BC020020C6
:101930001808024000000240180402409C010020E8
:101940000800002030380240EFBEADDEF01F00205E
:101950000CED00E00000FA05880400200000803D46
:10196000B00C0020FD4988608007FD49086006E052
:101970000020FA4988604FF48040F9490860F9482E
:10198000C0780E900E9800F0E0000D900D98202881
:1019900004D0402806D080280CD107E02020EF4951
:1019A000C8600BE04020ED49C86007E08020EB49AB
:1019B000C86003E00020E949C86000BF00BF4EE5F1
:1019C00000200D90E548C0680D90E448806801282B
:1019D00003D10D9840F010000D90E04840680D993B
:1019E00008430D90DD4800680D9908430D900220D2
:1019F0002870052068700120A8700D98E8700120FB
:101A00002871502068710120109028E5D548807811
:101A100000F0010010B100200D9001E001200D90B8
:101A20001DE540F2152028600D9828B90020A87007
:101A3000E8700120109004E00020A870E8700120F8
:101A400010900CE5C74880780D900D98012806D0BD
:101A5000022818D0042829D008284DD139E00020C8
:101A6000C149C1F848014FF40010C0490860400066
:101A700008600220BE4988610420886108208861CE
:101A80004003886138E00120B749C1F848012020AF
:101A9000B6490860400408600120B5498861042007
:101AA0008861082088618003886125E00220AE49B2
:101AB000C1F848010005AD490860402008600120D8
:101AC000AB4988610220886108208861C003886171
:101AD00012E00320A449C1F848012020A34908606E
:101AE000402008600120A24988610220886104200A
:101AF00088614004886100BF00BFB0E440F212205A
:101B000028609948D0F8480108B90120A870964883
:101B1000D0F84801012801D10220A8709248D0F8DD
:101B20004801022801D10420A8708F48D0F848014C
:101B3000032801D10820A8700120E87010908EE4DD
:101B4000D8F802A08BE440F20B4028600620A87071
:101B5000287940F08000287101203880D6F804A050
:101B6000C7F802A010907AE4D8F802A0C6F804A042
:101B700075E440F2124028600620A870287940F0F1
:101B80008000287101203880D6F804A0C7F802A090
:101B9000109064E440F22A4028600620A87028795A
:101BA00040F080002871012038800020FFF7A8F85D
:101BB000C7F802000120109051E4D8F80600A06098
:101BC000A068E060D8F80A00206148E440F21540BF
:101BD00028600E20A870287940F08000287101202C
:101BE00038800020C7F80200A068C7F80600206906
:101BF000C7F80A000120109031E4B8F8020020660E
:101C0000B8F804006066D8F80600A066D8F80A00A4
:101C1000E066B8F80E00206721E440F22540286015
:101C20001020A870287940F08000287101203880A9
:101C300034F8600F7880A088B880A068C7F80600E4
:101C4000E068C7F80A00208A603CF8810120109003
:101C500005E4D8F806006063B8F80200E063B8F85D
:101C600004002064D8F80A006064DBE540F24240DA
:101C700028600E20A870287940F08000287101208B
:101C80003880A08F7880B4F84000B880606BC7F8C7
:101C90000600606CC7F80A0001201090C2E5B06A27
:101CA00000B1BFE50620C9F800004FF08040C9F838
:101CB00004000020C9F808004AF28700A063C9F8B0
:101CC0000C00606BC9F81000E06BC9F81800002028
:101CD000C9F81400C9F81C0001203063B062F06A32
:101CE00020F00100F062706A20F020002030706265
:101CF000606BC9F8100095E5D8F802002063206BEE
:101D0000002801DA002020638CE540F23C40286086
:101D10000620A870287940F08000287101203880C2
:101D2000206BC7F80200012010907BE5D8F8020074
:101D30001049086076E540F2474028600620A87008
:101D4000287940F080002871012038800948006817
:101D5000C7F802000120109064E500000800002090
:101D600018080240B00C0020BC02002018040240F9
:101D7000000002400000002096F82C0000F0010056
:101D800008B1B06A28B9B06A20B1D9F81C0002289D
:101D900000D147E5D6F804A0FB48007940F0800068
:101DA00018B1D8F80200824402E0F8480068824482
:101DB0000120B062F06A20F00100F062706A20F049
:101DC000020070620120C9F80000C9F804A0D9F827
:101DD00004007168884201DA206B00E00020C9F835
:101DE0000800A068C9F80C002069C9F810006069F3
:101DF000C9F81400A069C9F81C00706A20F0080036
:101E00000830706206F0ECFE0CE5D8F80200DF49FD
:101E1000486007E540F2524028600620A870287903
:101E200040F08000287101203880D8484068C7F809
:101E3000020001201090F5E496F82C0000F001005B
:101E400008B1B06A28B9B06A20B1D9F81C000228DC
:101E500000D1E7E4CC48007940F0800010B1D8F818
:101E600002A002E0C948D0F804A00120B062F06AE4
:101E700020F00100F062706A20F002007062012020
:101E8000C9F80000C9F804A0D9F8040071688842B4
:101E900001DA206B00E00020C9F80800A068C9F84A
:101EA0000C002069C9F810006069C9F81400A06925
:101EB000C9F81C00706A20F008000830706206F053
:101EC00048FEAFE496F82C0000F0010008B1B06ABB
:101ED00028B9B06A20B1D9F81C00022800D1A1E4C9
:101EE0002069C9F81000D9F810000B900120B062E9
:101EF000F06A20F00100F062706A20F00200706267
:101F00002069C9F810000120C9F80000C9F804A030
:101F10000020C9F80800A068C9F80C002069C9F8B9
:101F200010006069C9F81400A069C9F81C00706A43
:101F300020F0080070629448C078012802D106F0B1
:101F40008AFE06E0D9F810004042C9F8100006F0F9
:101F500082FE67E48C48C078012802D106F061F95E
:101F600001E006F05EF9706A20F008007062706AA5
:101F700020F01000103070620520C9F80000306BAE
:101F80000D2802D1306B306301E000203063002067
:101F90007F49086146E4B8F80200E061D8F804001F
:101FA0002062D8F80C006062D8F81000A062B8F87F
:101FB0001400E06236E44FF4836028601620A870B5
:101FC000287940F08000287101203880A08B78802B
:101FD000206A78600020B860606AF860A06A3861A2
:101FE000A08DB882012010901CE496F82C0000F01F
:101FF000010008B1B06A28B9B06A20B1D9F81C0054
:10200000022800D10EE40120B062F06A20F0010045
:10201000F062706A20F4805000F580507062706A3F
:1020200020F0020070620120C9F800000020C9F809
:102030000800606AC9F80C00A06AC9F8100060695D
:10204000C9F81400A069C9F81C00E06901281AD178
:10205000A06AC9F81000D9F810000B904A48C0785F
:10206000012804D10321089806F05FFD06E00B98D3
:1020700040420B900521089806F057FD706A20F049
:10208000080070621FE04048C07801280BD17068DA
:10209000216A0844C9F80400D9F804A0042108986A
:1020A00006F043FD0AE07068216A401AC9F804008E
:1020B000D9F804A00621089806F037FD706A20F0D0
:1020C0000800083070627AE4D8F804003149C86624
:1020D0000846C06E0A900A98C11700EBD151491208
:1020E0002C4A11676BE440F2B24028601A20A870B5
:1020F000287940F080002871012038802548C06E82
:102100007860012010905AE4B8F802002149A1F843
:10211000780054E440F2B54028600420A870287983
:1021200040F080002871012038801A48B0F878000B
:1021300078800120109042E41648B0F87A000990A7
:10214000B8F802001349A1F87A000846B0F87A10EE
:102150000998814203D003200E49C1F89800B8F8CD
:1021600002000C49A1F87A00D8F80400C867D8F832
:102170000800C1F88000B8F80C00A1F88400B8F895
:102180000E00A1F886001AE4B00C00200000002028
:10219000080000209C0100204FF497602860102068
:1021A000A870287940F08000287101203880FD480F
:1021B000B0F87A007880FB48C06F7860F948D0F8B2
:1021C0008000B860F748B0F88400B881F548B0F8EE
:1021D0008600F8810120109017E4B8F80200F14958
:1021E00008840121882005F0F9FE0EE440F2F64053
:1021F00028600420A870287940F080002871012010
:102200003880E848008C78800120109008E4002095
:10221000E5494861E548D0F81411E3488161E34895
:10222000016CE1488162E148016DDF488163DF486C
:10223000D0F81811DC48C161DC48416CDA48C16251
:10224000DA48416DD848C163D848D0F81C11D64847
:102250000162D648816CD4480163D448816DD2486C
:102260000164D248D0F82011CF484162CF48C16CF8
:10227000CD484163CD48C16DCB4841644AF65521F4
:102280008164CA48D0F88010C748C164C748D0F8F4
:102290008410C5480165C548D0F88810C24841651A
:1022A000C248D0F88C10C0488165C048D0F8901062
:1022B000BD48C165BD48D0F89410BB480166BB4815
:1022C000D0F89810B8484166B848D0F89C10B64885
:1022D0008166B648016EB448C166B448416EB248E2
:1022E0000167B248816EB0484167B048C16EAE48E0
:1022F0008167AE48016FAC48C167AC48416FAA48DE
:10230000C0F88010A948816FA748C0F88410A7487A
:10231000C16FA548C0F88810A448D0F8A010A24802
:10232000C0F89010A148D0F8A4109F48C0F89410AD
:102330009E48D0F8A8109C48C0F898109B48D0F848
:10234000AC109948C0F89C100021C0F88C104AF6D7
:102350005521C0F8A0109649C0F8A410C0F8A810E4
:102360004AF65521C0F8AC100221C0F8B010012186
:10237000C0F8B4108F49C0F8B8104FF44821C0F825
:10238000BC104AF65521C0F8C0100221C0F8C41094
:10239000C0F8C8100021C0F8CC10C0F8D01001213E
:1023A000C0F8D4104AF65521C0F8D8107F48D0F8AC
:1023B000B0107D48C0F8DC107C48D0F8B4107A48E2
:1023C000C0F8E0107948D0F8B8107748C0F8E410A9
:1023D0007648D0F8BC107448C0F8E8107348D0F8BC
:1023E000C0107148C0F8EC107048D0F8C4106E48A6
:1023F000C0F8F0106D48D0F8C8106B48C0F8F41061
:102400006A48D0F8CC106848C0F8F8106748D0F88F
:10241000D0106548C0F8FC106448D0F8D410624869
:10242000C0F800116148D0F8D8105F48C0F8041116
:102430005E48D0F8DC105C48C0F808115B48D0F862
:10244000E0105948C0F80C115848D0F8E41056482C
:10245000C0F810115548D0F8E8105348C0F81411CE
:102460005248D0F8EC105048C0F818114F48D0F836
:10247000F0104D48C0F81C114C48D0F8F4104A48F0
:10248000C0F820114948D0F8F8104748C0F8241186
:102490004648D0F8FC104448C0F828114AF65521A7
:1024A000C0F82C114148D0F800113F48C0F838114D
:1024B0003E48D0F804113C48C0F83C113B48D0F8E5
:1024C00008113948C0F840113848D0F80C11364886
:1024D000C0F844114AF65521C0F848113148B0F807
:1024E00078103148C0F830114AF65521C0F834113F
:1024F0001E21C0F84C110521C0F850114AF6552193
:10250000C0F854112C482849486003F0EEFD0CE453
:102510004FF49D6028601420A870287940F0800056
:1025200028710120BF1C27F8020CA06C3860E06CF9
:102530007860206DB860606DF860BF1EA06D08B156
:10254000022000E0012078820120109004E4D8F8F5
:102550000200A064D8F80600E064D8F80A002065FC
:10256000D8F80E006065B8F81200022801D10120E9
:1025700000E00020A0650CE4FEF70FF800201090AA
:1025800007E43846FEF78DF90F90C2202870082026
:1025900068700F98A870287940F080002871012099
:1025A000109031E49C010020541B0020BC0200204C
:1025B00055150200FC7A4F0102000100B8F800B086
:1025C000D8F802A0FE48806A90B3FE48D0F84801CF
:1025D00038B900BFFB49D1F8480105F061FA00287D
:1025E000F8D1F848D0F84801012807D100BFF549D3
:1025F000D1F8480105F054FA0028F8D1F148D0F894
:102600004801022807D100BFEE49D1F8480105F082
:1026100047FA0028F8D1EB48D0F84801032807D141
:1026200000BFE849D1F8480105F03AFA0028F8D18E
:102630000BF00100A0B1E348C0F810A00069E14927
:102640000968401ADF49C1F828010846D0F8280176
:1026500030B10121002005F0CAF80120D849886274
:102660000BF00200A0B1D748C0F814A04069D549CA
:102670004968401AD349C1F828010846D0F8280112
:1026800030B10121084605F0B2F80120CC4988623A
:102690000BF00400A0B1CB48C0F818A08069C9496C
:1026A0008968401AC749C1F828010846D0F82801AE
:1026B00030B10121022005F09AF80120C04988625A
:1026C0000BF00800A0B1BF48C0F81CA0C069BD490C
:1026D000C968401ABB49C1F828010846D0F828014A
:1026E00030B10121032005F082F80120B44988624D
:1026F000002010904FE2B44890F802B00BF00100B7
:1027000050B100BFAF49D1F8480105F0C9F9002820
:10271000F8D10120FEF77BF80BF0020050B100BFAA
:10272000A849D1F8480105F0BBF90028F8D10220EA
:10273000FEF76DF80BF0040050B100BFA149D1F8CD
:10274000480105F0ADF90028F8D10420FEF75FF844
:102750000BF0080050B100BF9A49D1F8480105F0CC
:102760009FF90028F8D10820FEF751F813E2B8F8D5
:1027700000B0D8F802A09248806A90B39148D0F88F
:10278000480138B900BF8F49D1F8480105F088F9F0
:102790000028F8D18B48D0F84801012807D100BFA4
:1027A0008849D1F8480105F07BF90028F8D185481F
:1027B000D0F84801022807D100BF8249D1F848016A
:1027C00005F06EF90028F8D17E48D0F848010328BA
:1027D00007D100BF7B49D1F8480105F061F9002815
:1027E000F8D1BAF1000F33D00BF0010048B17548B1
:1027F000C0F828A10121002004F0F9FF0120704950
:1028000088620BF0020048B16E48C0F828A101218F
:10281000084604F0ECFF0120694988620BF00400CF
:1028200048B16848C0F828A10121022004F0DFFF68
:102830000120634988620BF0080048B16148C0F884
:1028400028A10121032004F0D2FF01205C49886205
:10285000002010909FE15C48C07805905A4890F89D
:1028600002B00BF00100A0B10598012808D157482B
:102870005449C1F828010121002004F0B8FF08E004
:10288000524840424F49C1F828010121002004F07C
:10289000AEFF0BF00200A0B10598012808D14B480B
:1028A0004849C1F828010121084604F0A0FF08E0CA
:1028B000464840424349C1F828010121084604F036
:1028C00096FF0BF00400A0B10598012808D13F48FD
:1028D0003C49C1F828010121022004F088FF08E0EA
:1028E0003A4840423749C1F828010121022004F04A
:1028F0007EFF0BF00800A0B10598012808D13348ED
:102900003049C1F828010121032004F070FF08E0DC
:102910002E4840422B49C1F828010121032004F030
:1029200066FF00201090C1E300BF2748C0780590E3
:10293000254890F802B02348D0F84811903050F85C
:1029400021A09038D0F84811203040F821A01D492E
:10295000D1F8480104F037FF83461948806AB8B3BC
:102960001848D0F8480138B900BF1649D1F84801D5
:1029700005F096F80028F8D11248D0F8480101284F
:1029800007D100BF0F49D1F8480105F089F80028A8
:10299000F8D10C48D0F84801022807D100BF0949F6
:1029A000D1F8480105F07CF80028F8D10548D0F8A6
:1029B0004801032811D100BF0249D1F8480108E0BD
:1029C00074020020BC020020B00C002078FDFF7FC4
:1029D00003E005F065F80028EED10BF0010098B394
:1029E000FE48D0F88000022815D10598012805D1AD
:1029F000FA48006AF949C1F8280108E00598022858
:102A000005D1F648006A4042F449C1F82801022184
:102A1000002004F0ECFEF148D0F88000012813D12A
:102A20000598012804D1EE48EC49C1F8280107E0D7
:102A30000598022804D1EA484042E849C1F8280133
:102A40000221002004F0D3FE0BF0020098B3E3480B
:102A5000D0F88400022815D10598012805D1DF4857
:102A6000406ADE49C1F8280108E00598022805D12E
:102A7000DA48406A4042D949C1F8280102210120C0
:102A800004F0B5FED548D0F88400012813D105988C
:102A9000012804D1D248D149C1F8280107E005989E
:102AA000022804D1CE484042CC49C1F82801022175
:102AB000012004F09CFE0BF0040098B3C748D0F846
:102AC0008800022815D10598012805D1C348806ADD
:102AD000C249C1F8280108E00598022805D1BF487D
:102AE000806A4042BD49C1F828010221084604F02D
:102AF0007EFEBA48D0F88800012813D10598012835
:102B000004D1B748B549C1F8280107E00598022863
:102B100004D1B3484042B149C1F828010221084616
:102B200004F065FE0BF0080098B3AC48D0F88C00B8
:102B3000022815D10598012805D1A848C06AA749DF
:102B4000C1F8280108E00598022805D1A348C06A09
:102B50004042A249C1F828010221032004F047FEA7
:102B60009E48D0F88C00012813D10598012804D183
:102B70009B489A49C1F8280107E00598022804D12A
:102B8000974840429549C1F828010221032004F0EA
:102B90002EFE0020109089E2FDF7FFFC002010902F
:102BA00084E203F0EDF8B8F80000119040F23A42E8
:102BB0001198811A90427DD00FDC13287BD006DC5F
:102BC000072817D0092852D0112875D1BEE0A0F2ED
:102BD0002340E8B303286FD131E279296DD004DCBA
:102BE00006296BD0762967D101E27C2967D0C629F6
:102BF00062D130E200207B4948617848D0F8141156
:102C0000784881617548016C764881627348016D2E
:102C1000744881637148D0F818117248C1616F48D7
:102C2000416C7048C1626D48416D6E48C1636B482C
:102C3000D0F81C116B4801626848816C69480163D7
:102C40006648816D674801646448D0F8201100E04F
:102C50003BE1644841626148C16C624841635F483E
:102C6000C16D604841644AF65521816412E25B48B7
:102C7000D0F880105B48C1645848D0F88410594897
:102C800001655648D0F88810564841655348D0F839
:102C90008C10544881655148D0F890105148C16556
:102CA0004E48D0F894104F4801664C48D0F8981020
:102CB0004C4805E0EBE066E0EBE1B5E1F3E019E15B
:102CC00041664648D0F89C10464881664348016EEC
:102CD0004448C1664148416E424801673F48816EA1
:102CE000404841673D48C16E3E4881673B48016F9F
:102CF0003C48C1673948416F3A48C0F880103748AE
:102D0000816F3848C0F884103448C16F3548C0F826
:102D100088103248D0F8A0103248C0F890102F48E0
:102D2000D0F8A4102F48C0F894102C48D0F8A81060
:102D30002C48C0F898102948D0F8AC102948C0F8A1
:102D40009C104AF65521C0F8A010A3E12348D0F802
:102D500000112448C0F838112048D0F80411214847
:102D6000C0F83C111D48D0F808111E48C0F84011A9
:102D70001A48D0F80C111B48C0F844114AF65521E6
:102D8000C0F8481186E11548D0F8B0101548C0F8D1
:102D9000DC101248D0F8B4101248C0F8E0100F4808
:102DA000D0F8B8100F48C0F8E4100C48D0F8BC10A8
:102DB0000C48C0F8E8100948D0F8C0100948C0F81D
:102DC000EC100648D0F8C4100648C0F8F0100348CC
:102DD000D0F8C8100348C0F8F41005E0BC02002089
:102DE00078FDFF7F541B0020FE48D0F8CC10FE4831
:102DF000C0F8F810FB48D0F8D010FB48C0F8FC1021
:102E0000F848D0F8D410F848C0F80011F548D0F8C8
:102E1000D810F548C0F80411F248D0F8DC10F24898
:102E2000C0F80811EF48D0F8E010EF48C0F80C11D6
:102E3000EC48D0F8E410EC48C0F81011E948D0F89C
:102E4000E810E948C0F81411E648D0F8EC10E6485C
:102E5000C0F81811E348D0F8F010E348C0F81C118E
:102E6000E048D0F8F410E048C0F82011DD48D0F870
:102E7000F810DD48C0F82411DA48D0F8FC10DA4820
:102E8000C0F828114AF65521C0F82C1102E1D648A5
:102E9000216BC0F8A410216BC0F8A8104AF6552188
:102EA000C0F8AC10F6E0D048E16BC0F8B010216C6F
:102EB000C0F8B410616BC0F8B810616CC0F8BC10F9
:102EC0004AF65521C0F8C010E4E0C748216EC0F8AA
:102ED000C410616EC0F8C810A16EC0F8CC10E16ECD
:102EE000C0F8D010216FC0F8D4104AF65521C0F8B0
:102EF000D810CFE0BB48D0F8B010BB48C0F8DC1009
:102F0000B848D0F8B410B848C0F8E010B548D0F8C8
:102F1000B810B548C0F8E410B248D0F8BC10B248B8
:102F2000C0F8E810AF48D0F8C010AF48C0F8EC10B7
:102F3000AC48D0F8C410AC48C0F8F010A948D0F89C
:102F4000C810A948C0F8F410A648D0F8CC10A6487C
:102F5000C0F8F810A348D0F8D010A348C0F8FC106F
:102F6000A048D0F8D410A048C0F800119D48D0F86F
:102F7000D8109D48C0F804119A48D0F8DC109A483F
:102F8000C0F808119748D0F8E0109748C0F80C1125
:102F90009448D0F8E4109448C0F810119148D0F843
:102FA000E8109148C0F814118E48D0F8EC108E4803
:102FB000C0F818118B48D0F8F0108B48C0F81C11DD
:102FC0008848D0F8F4108848C0F820118548D0F817
:102FD000F8108548C0F824118248D0F8FC108248C7
:102FE000C0F828114AF65521C0F82C1152E07D484E
:102FF000D0F800117C48C0F838117A48D0F8041194
:103000007948C0F83C117748D0F808117648C0F8E4
:1030100040117448D0F80C117348C0F844114AF6B6
:103020005521C0F8481135E07048B0F878106E4866
:10303000C0F830114AF65521C0F834112AE06A4828
:10304000616FC0F84C11A16FC0F850114AF65521BC
:10305000C0F854111EE0664801686348C0F860116A
:10306000634841686048C0F86411614881685E48FF
:10307000C0F868115E48C1685B48C0F86C115C48D4
:1030800001695948C0F870114AF65521C0F8741109
:1030900000E000BF00BF57485349486003F025F8DF
:1030A00002F04CFE0020109000E000BF00BF10981E
:1030B00070B19DF84C0000F0800018B19DF84A00F6
:1030C000801D00E006200F9012A80F9901F023FD4B
:1030D00029B0BDEC048BBDE8F08F70B5464C02F012
:1030E0004FFE00234FF4BC7219463F4802F05EFFCA
:1030F00005463D48806C4AF65521884231D13A4810
:1031000080693849C1F814013748806A0864364834
:10311000806B08653448C1693248C0F818113248DC
:10312000C16A304841643048C16B2E4841652E4821
:10313000016A2C48C0F81C112B48016B2948816496
:103140002948016C274881652748416A2548C0F80D
:1031500020112548416B2348C1642348416C214814
:10316000C1652148D0F8A0004AF6552188426FD1A8
:103170001D48C06C1B49C1F880001B48016D1948EF
:10318000C0F884101848416D1648C0F888101648D9
:10319000816D1448C0F88C101348C06D1149C1F8F6
:1031A00090001148016E0F48C0F894100E48416E0F
:1031B0000C48C0F898100C48C16D0A48C0F89C1023
:1031C0000948C06E074908660748016F054841660F
:1031D0000548416F034881660348816F0148C16615
:1031E00001480BE0BC020020541B00209C01002081
:1031F0000800002002000100781A0020C06FFC497E
:103200000867FC48D0F88010F9484167F948D0F8C1
:103210008410F7488167F748D0F88810F448C167F0
:10322000F448D0F89000F249C1F8A000F148D0F875
:103230009410EF48C0F8A410EE48D0F89810EC486D
:10324000C0F8A810EB48D0F89C10E948C0F8AC10C2
:10325000E848D0F8AC004AF65521884207D1E54845
:10326000D0F8A4002063E348D0F8A8002063E14828
:10327000D0F8C0004AF6552188420FD1DD48D0F879
:10328000B000E063DB48D0F8B4002064D948D0F83F
:10329000B8006063D748D0F8BC006064D548D0F867
:1032A000D8004AF65521884213D1D248D0F8C4003C
:1032B0002066D048D0F8C8006066CE48D0F8CC0070
:1032C000A066CC48D0F8D000E066CA48D0F8D40058
:1032D0002067C848D0F82C014AF65521884277D19A
:1032E000C448D0F8DC00C249C1F8B000C148D0F8E9
:1032F000E010BF48C0F8B410BE48D0F8E410BC4895
:10330000C0F8B810BB48D0F8E810B948C0F8BC10F5
:10331000B848D0F8EC00B649C1F8C000B548D0F8BC
:10332000F010B348C0F8C410B248D0F8F410B04858
:10333000C0F8C810AF48D0F8F810AD48C0F8CC10AD
:10334000AC48D0F8FC00AA49C1F8D000A948D0F890
:103350000011A748C0F8D410A648D0F80411A4481A
:10336000C0F8D810A348D0F80811A148C0F8DC1064
:10337000A048D0F80C019E49C1F8E0009D48D0F863
:1033800010119B48C0F8E4109A48D0F814119848DE
:10339000C0F8E8109748D0F818119548C0F8EC101C
:1033A0009448D0F81C019249C1F8F0009148D0F837
:1033B00020118F48C0F8F4108E48D0F824118C48A2
:1033C000C0F8F8108B48D0F828118948C0F8FC10D4
:1033D0008848D0F848014AF65521884217D18548D7
:1033E000D0F838018249C1F800018248D0F83C1178
:1033F0007F48C0F804117F48D0F840117C48C0F8DD
:1034000008117C48D0F844117948C0F80C1179486B
:10341000D0F834014AF65521884203D1012076497B
:10342000A1F878007348D0F854014AF65521884233
:1034300007D17048D0F84C0160676E48D0F8500151
:10344000A0676C48D0F85C014AF65521884203D148
:103450006848D0F85801E0676648D0F874014AF629
:103460005521884214D16348D0F86001634908604F
:103470006048D0F8640148605E48D0F86801886010
:103480005C48D0F86C01C8605A48D0F870010861F7
:10349000584800694AF65521884211D15548C068FC
:1034A0000F2804D156A1584806F088F90CE051487D
:1034B000C0681E2808D152A1534806F07FF903E0E6
:1034C0004FA1514806F07AF902F038FC70BD1FB5E3
:1034D0004E4C0120ADF800004748406860606068CD
:1034E000CDF8020044488068E060A08980B2ADF861
:1034F00006000020ADF808000621454801F00BFB4E
:103500000E21684601F007FB1FBD30B58FB00446A1
:103510003E4D50203F4948710C70200A48703820B9
:1035200088700020C8708120087140F244408442B5
:1035300004D10020C8700120887008710120ADF806
:103540000400002068602A480068CDF806000020CA
:10355000CDF80A00FDF7D4FBCDF80E000220ADF83F
:103560001200002068602248406805900020069004
:103570000120FDF7C5FB07900420ADF820000020D6
:1035800068601B488068CDF822000020CDF8260036
:103590000220FDF7B5FBCDF82A000820ADF82E007B
:1035A000002068601248C0680C9000200D90032035
:1035B000FDF7A6FB0E900621164801F0ACFA40F28A
:1035C0004440844203D0382101A801F0A4FA0FB08E
:1035D00030BD10B5044601200F49C87008468470FC
:1035E0000120087106210C4801F095FA10BD000079
:1035F000BC020020541B00209C0100200800002079
:1036000054494D31303100002A010020740200205D
:103610001C00002022000020280000201FB50446C6
:103620000E20FE4988700020C87081200871012C8E
:103630000BD10120ADF80000F9480068CDF8020078
:103640000020CDF80600CDF80A00022C0BD1022094
:10365000ADF80000F2484068CDF802000020CDF837
:103660000600CDF80A00042C0BD10420ADF80000B0
:10367000EB488068CDF802000020CDF80600CDF8B8
:103680000A00082C0BD10820ADF80000E448C068FF
:10369000CDF802000020CDF80600CDF80A00062182
:1036A000DE4801F038FA0E21684601F034FA1FBDF9
:1036B00010B5044672B6012C04D0022C06D0032C9F
:1036C00022D11DE0002002F059FD1DE0012002F092
:1036D00055FDD448808F012801D1002002E0D24856
:1036E000B0F91800D0498883CE48808F012801D1D5
:1036F000002002E0CC48B0F91A00CB49C88303E0AF
:10370000012002F03BFD00BF00BFC748048462B641
:1037100010BD10B503F0EEFD0446C4480068A04299
:1037200009D0012C03D1C1480460012010BDBF485D
:1037300004600220FAE70020F8E72DE9F041B94ED5
:103740005036BB4CBB4DBC484068022804D004280E
:1037500045D008286FD184E0B7480069022800D11D
:10376000A9E094F82C0000F0010008B1A06A20B98B
:10377000A06A18B1E869022800D19CE0D4F804805E
:103780006768AE4800680744474500D193E00120D0
:10379000A062E06A20F00100E062606A20F00200AE
:1037A0006062012028606F6068686168884201DAA1
:1037B000306B00E00020A860B068E86030692861E4
:1037C00070696861B069E861606A20F008000830DB
:1037D000606202209849086105F002FA6BE09648A1
:1037E0000069042800D166E094F82C0000F0010084
:1037F00008B1A06A20B9A06A18B1E869022800D10E
:1038000059E0D4F804808D484768B84500D152E0AB
:103810000120A062E06A20F00100E062606A20F00E
:1038200002006062012028606F60686861688842F9
:1038300002DA306B01E03DE00020A860B068E8608B
:103840003069286170696861B069E861606A20F078
:1038500008000830606204207749086105F079F9B2
:1038600029E075480069082800D124E00620286076
:103870004FF0804068600020A8604AF28700B06383
:10388000E860706B2861F06BA86100206861E861F6
:1038900001202063A062E06A20F00100E062606A1B
:1038A00020F0200020306062706B2861082062499F
:1038B000086100E000BF00BFBDE8F08110B5FFF770
:1038C00028FF04465C480068012804D1012C02D17D
:1038D000FFF733FF06E05848006818B9022C01D101
:1038E000FFF72BFF10BD70B5514C5348C06800283E
:1038F0006FD000255048C568202D04D0402D2CD015
:10390000802D7AD152E0A06A012807D14A48806808
:10391000012803D180034A49086008E0A06A30B951
:1039200045488068012802D1800745490860A06A9F
:10393000012807D14048806820B94FF080404049B5
:10394000086009E0A06A012806D13B48806818B9E0
:103950004FF480403A49086050E0A06A38B93648D0
:103960008068012803D180033549086009E0A06A16
:10397000012806D130488068012802D180073049EB
:103980000860A06A38B92C48806820B94FF08040A0
:103990002B49086009E0A06A012806D12648806802
:1039A00018B94FF480402649086027E001210B2018
:1039B00004F014FB234890F82C0000F002000028CB
:1039C0000EDD1D488068012805D180031C49086070
:1039D00012E05BE011E04FF08040194908600BE015
:1039E00015488068012803D180071549086003E065
:1039F0004FF480401249086000E000BF00BFA06A99
:103A000001282CD10C48806801281DD10A48C068C3
:103A1000202819D140020A49086036E02E00002013
:103A2000BC020020281A0020181B00203C000020A7
:103A300074020020CC1C00200800002000000020A0
:103A4000180802409C010020FE488068E8B9FD4843
:103A5000C068202819D14006FB49086015E0F948E4
:103A60008068012807D1F748C068202803D14006A4
:103A7000F549086009E0F348806830B9F148C0684A
:103A8000202802D14002F049086000BF70BD2DE936
:103A9000F0412DED048B044600269FEDEC0AB0EEBC
:103AA000408A9FEDEA0AF0EE408A9FEDE80AB0EE08
:103AB000409AB0460027E64DE64850F82460072EAD
:103AC0007DD2DFE806F0041E7DBBC5054D00DFE0BA
:103AD000E048E83850F82430503890ED550ABDEEF3
:103AE000C00A10EE102AD0F82811204603F027FE55
:103AF0000021D84840F824100020D749C1F84C01D3
:103B0000C6E00221D34840F824100220D249C1F86F
:103B10004C01084690ED550AD0ED540A30EE200ACB
:103B200080ED550A90ED550ABCEEC00ACB4880EDF9
:103B3000020A8068CA49B1FBF0F0C8494862C64829
:103B4000503050F82430503890ED550ABDEEC00A80
:103B500010EE102AD0F82811204603F0F0FD97E06F
:103B60000221BC4840F824100220BB49C1F84C0196
:103B7000084690ED550AD0ED540A30EE200A80ED4B
:103B8000550A90ED550ABCEEC00AB44880ED020A11
:103B90008068B349B1FBF0F0B0494862AE4870307C
:103BA00050F82430703890ED550ABDEEC00A10EE82
:103BB000102AD0F82811204603F0C1FD68E066E025
:103BC000A54890ED550AD0ED540A30EE200A80ED5C
:103BD000550A90ED550ABCEEC00AA04880ED020AD5
:103BE00080689F49B1FBF0F09C4948620846406AF2
:103BF000322801D2322048629848406A9849884267
:103C000002D90846954948629348D0F84C010228E9
:103C100013DD9148D0F84C01032802D004280AD1C2
:103C200004E003218B4840F8241005E00421894872
:103C300040F8241000E000BF00BF29E08648D0F81B
:103C40004C01032803DD0421824840F824101FE0C2
:103C5000814890ED550AD0ED540A30EE600A80EDAF
:103C6000550A90ED550ABCEEC00A7C4880ED020A68
:103C700080687B49B1FBF0F0784948627648D0F81B
:103C80004C0118B90021734840F8241000E000BF2F
:103C900000BFA88CC0F34020D0B16F49D1F84801D3
:103CA00003F091FDC7B2686C90B1686C012802D036
:103CB00002280CD105E03846FFF7B0FC002068640C
:103CC00005E03846FCF7A3FD0020686400BF00BF94
:103CD000BDEC048BBDE8F0810026002700BF00BFCB
:103CE00000255B4C06F0F4FF05F0C7FC00F016FE63
:103CF00000F029FE642000F05AFE00F003FA00F004
:103D0000E3FB00F0E5F805F021F801F07BFE02F09E
:103D100052F802F035F801F07BFF00F03BFF01F0B4
:103D20000AF803F02DFC012002F008FAFFF7D5F99C
:103D3000606A20F400606062606A20F00400001D88
:103D40006062606A20F4806000F5806060624FF419
:103D500000403D490860B6E000F0A4FE414800681C
:103D600020B1FDF724F800203E49086000F0E8FE8D
:103D70003948D0F848013C49086002F02BFD06465E
:103D800039480168304602F08DFE0746394636480C
:103D9000006802F0C3FE00F022FEF8B1A08CC0F370
:103DA000402018B140F6E100FFF7AFFBA06A012800
:103DB00004D094F82C0000F0010018B1012002F0AA
:103DC000C6F902E0002002F0C2F92849D1F89800B3
:103DD00003F0B3FA03F0D1F803F094F900F0CDFD4D
:103DE00023490988401A80B2092855DD00F0C5FD35
:103DF0001F4908801848D0F8240101280DD100205F
:103E00001549C1F82401D1F8482101F58A7151F80A
:103E1000220002F0BFFA114988631049886B02F052
:103E200066FB0E498863C86B02F001FA0B49C86350
:103E30000B200949C1F87001D1F8700101F031FF80
:103E4000054617E0080000201808024000000000A6
:103E500074020020F4030020BC0200204004002073
:103E6000A086010058000020480000209C0100208E
:103E70004C000020681C78B11348D0F870010B2862
:103E800002D11148C0F878510F48D0F870010428C9
:103E900002D10D48C0F8745100F06FFD0B4909883C
:103EA000401A80B2042808DD00F067FD0749088049
:103EB0000549D1F84801FFF7EAFD05F063F9FFF77E
:103EC00012FD02F0A8FB47E7BC0200204E000020D4
:103ED0008548006840F48020834908608248103893
:103EE00000688249084380491039086080480068AA
:103EF00020F480107E4908600846006840F40010F5
:103F00000860081D006820F48060091D086078487A
:103F10000C30006820F4401075490C310860081F0F
:103F2000006820F44010091F08607148406A20F4BE
:103F3000706040F4E0616E484162006820F48000E7
:103F40006B4908600846006840F400000860684853
:103F50000C30006820F4400065490C31086064486A
:103F6000406A20F4704040F4E0416148416240F210
:103F70006D106049088000205E4908310880091DE5
:103F800008805C48001D008840F400505949091D14
:103F9000088058480C30008840F0C00055490C316A
:103FA00008805548806D20F001005349886500E085
:103FB00000BF5148806D00F001000028F8D14E4844
:103FC000806D20F060604C4988650846806D40F047
:103FD000006088650846806D40F4886088654548C3
:103FE000001F08660020C8650846806A20F00100AE
:103FF000886200E000BF4048806A00F001000028AD
:10400000F8D13D48806A20F060603B4988620846EC
:10401000806A40F0006088620846806A40F4A060D0
:1040200088623448001F0863344848630815C86232
:1040300030480838008820F040002E4908390880B0
:104040002C48001D008840F00C002A49091D0880FA
:104050002948806A40F00100274988627047264954
:10406000C96AC1F58061264A1268914202D14FF6B1
:10407000FF700FE022490A680968491C204B19604B
:104080001E49885C19460968B1F5806F02D100218C
:104090001A4611607047184A926D22F00102164BC1
:1040A0009A6500E000BF144A926D02F00102002AF6
:1040B000F8D1114A5066D1650E4A083A128822F0AA
:1040C00040020C4B083B1A804FF000620A4B9A608A
:1040D0001A46926D42F001029A6570470548083809
:1040E000008800F040007047403802400200200085
:1040F000000402400848004000600240B004002074
:1041000050000020E548006840F00100E3490860E5
:10411000E348006820F44030E14908600846C06880
:1041200020F48030C8600846C06820F40030C860C1
:1041300008460068DB490843D9490860084600681A
:10414000D9490840D64908600846806940F40040D3
:1041500088610846806940F00100886108468069EE
:1041600040F0020088610846806940F004008861E0
:104170000846806940F008008861C848006840F03F
:104180000200C6490860C9480068C9490843C749D0
:10419000086008460068C7490840C44908600846E6
:1041A000006840F0805008600846006820F0005029
:1041B00008600846006840F08040086008460068D3
:1041C00020F000400860B9481830006840F48030A2
:1041D000B649183108600846006840F400300860AD
:1041E0000846006840F4001008600846006840F087
:1041F000400008600846006840F00070086008460B
:10420000006840F0805008600846006840F4804034
:1042100008600846006840F000400860A348006855
:1042200020F0C000A1490860A0480C30006820F0D0
:1042300040009E490C3108600846006820F080006C
:1042400008609A48006820F44070984908609748D0
:104250000C30006820F4807094490C3108600846E6
:10426000006820F4007008609048006820F04070FA
:104270008E4908608D480C30006820F080708B49B2
:104280000C3108600846006820F00070086087481C
:10429000006820F040608549086084480C30006860
:1042A00020F0806081490C3108600846006820F0E9
:1042B000006008607D48006820F440407B49086049
:1042C0007A480C30006820F4804078490C3108604E
:1042D0000846006820F4004008607448006820F434
:1042E00040307249086071480C30006820F480301A
:1042F0006E490C3108600846006820F40030086000
:104300006A48006820F040606849086067480C30DF
:10431000006820F0806065490C310860084600683C
:1043200020F0006008605D48006840F004005B49D0
:1043300008606148006840F2511108435E49086016
:104340000846006840F2A22188435B49086008469D
:1043500000685A49084358490860084600685849A7
:104360000840554908600846006820F080600860F1
:1043700051480C30006820F080604F490C310860D3
:104380000846006820F0006008604B48006820F094
:1043900080404949086048480C30006820F080405F
:1043A00045490C3108600846006820F0004008606C
:1043B0004148006820F004003F4908603E480C3046
:1043C000006820F004003C490C3108600846006891
:1043D00020F0080008603848006820F48040364922
:1043E000086035480C30006820F4804032490C31B8
:1043F00008600846006820F4004008602E48183025
:10440000006840F001002C49183108600846006837
:1044100040F4802008600846006840F400200860EE
:104420000846006840F0100008600846006840F048
:10443000200008600846006840F4800008600846D4
:10444000006840F4807008600846006840F0007022
:1044500008600846006840F0804008600846006830
:1044600040F4004008600D48006840F008000B4927
:1044700008601448006840F01000124908600846BF
:10448000006820F0200008600E480830006840F006
:1044900030000C4908310860704700003038024095
:1044A000000002405500004055FFFF7F000402401D
:1044B00005140400F5D7F7FF0008024000140510AA
:1044C000FFD7F5DF000C0240F948006840F010000B
:1044D000F7490860F64814380068F6490843F4497B
:1044E00014390860F448006820F48020F24908601C
:1044F0000846006840F4002008600846406820F440
:10450000007048600846C06820F44020C860084633
:10451000806820F4402088600846406A20F0F0005F
:1045200040F07001E4484162006820F48010E249E4
:1045300008600846006840F4001008600846C0683B
:1045400020F40010C8600846C06840F48010C860BD
:104550000846406A20F4706040F4E061D648416249
:10456000C002D54988610846006840F08070086044
:104570000846006820F0007008600846806840F037
:10458000407088600846006820F4400008600846D3
:10459000C06820F40000C8600846C06840F480008D
:1045A000C86040F2D920C54908810020088288826D
:1045B0000846808940F4005088810846808A40F08F
:1045C000C0008882BE48006820F00100BC49086035
:1045D00000E000BFBA48006800F001000028F8D1F0
:1045E000B748006820F06060B54908600846006878
:1045F00040F0006008600846006840F48860086089
:10460000AE48001DAE49083108600020091F08604F
:10461000AB487838006820F00100A9497839086073
:1046200000E000BFA6487838006800F001000028CC
:10463000F7D1A3487838006820F06060A049783945
:1046400008600846006840F000600860084600689E
:1046500040F4A06008609948001D994970390860CD
:104660009848091D086008159549743908609348F1
:10467000008820F04000914908800846808940F079
:104680000C0088818E487838006840F001008C4921
:104690007839086070478648001F006840F4003091
:1046A0008349091F08600846006882490843804919
:1046B000091F08608048006820F480207E49086057
:1046C0000846006840F4002008600846406820F46E
:1046D000007048600846C06820F44020C860084662
:1046E000806820F4402088600846406A20F0F0008E
:1046F00040F0700170484162006820F480106E49FB
:1047000008600846006840F4001008600846C06869
:1047100020F40010C8600846C06840F48010C860EB
:104720000846406A20F4706040F4E06162484162EB
:10473000C002614988610846006840F080700860E6
:104740000846006820F0007008600846806840F065
:10475000407088600846006820F440000860084601
:10476000C06820F40000C8600846C06840F48000BB
:10477000C86040F2D920514908810020088288820F
:104780000846808940F4005088810846808A40F0BD
:10479000C00088824A48006820F00100484908604B
:1047A00000E000BF4648006800F001000028F8D192
:1047B0004348006820F0606041490860084600688E
:1047C00040F0006008600846006840F488600860B7
:1047D0003A48001D3A49083108600020091F086066
:1047E00037487838006820F001003549783908608A
:1047F00000E000BF32487838006800F0010000286F
:10480000F7D12F487838006820F060602C4978395B
:1048100008600846006840F00060086008460068CC
:1048200040F4A06008602548001D254970390860E3
:104830002448091D086008152149743908601F487B
:10484000008820F040001D4908800846808940F01B
:104850000C0088811A487838006840F00100184937
:10486000783908607047164974390968C1F5806164
:10487000154A1268914202D14FF6FF700FE01249BB
:104880000A680968491C104B19600E49885C194672
:104890000968B1F5806F02D100211A461160704796
:1048A000074A126822F00102054B1A600FE000006F
:1048B0004438024001004000000002400010014066
:1048C000B8640240B00800205400002000BF114A24
:1048D000126802F00102002AF8D10E4A0C32106070
:1048E0000C4A121D11600C4A128822F040020A4B39
:1048F0001A804FF00062074BAC3B1A60054A126801
:1049000042F00102034B1A6070470348008800F030
:1049100040007047B8640240001001405B480068E6
:1049200040F00100594908600806008840F0010085
:10493000090608804AF20F4008850846808A40F040
:104940000100888270475148006840F008004F49D4
:1049500008604F48008840F001004D49088045F24A
:1049600008204B492831088049481430008840F01D
:1049700001004749143108807047454824300068D9
:10498000C0F34F0070474FF08040406AC0F34F00C3
:10499000704700B50146FFF7F6FF024600E000BF92
:1049A000FFF7F1FF801A80B28842F8DB00BD0246B3
:1049B000384850434FF47A73B0FBF3F1B1F1807F84
:1049C00001D3012070474FF0E020006940F0010062
:1049D0004FF0E0231861184641610020F2E74FF0E4
:1049E000E020006900F4803070472848006840F0FB
:1049F0008050264908602848006840F480702649A5
:104A0000086022483030006840F440701F4930315F
:104A100008600846006840F400400860CA201F494A
:104A20000860532008601D481838006840F0800076
:104A30001A491839086000E000BF184818380068A3
:104A400000F040000028F7D01448143800686FF3D5
:104A50000C0041F63F7108441049143908600846BB
:104A6000006820F4FE0040F4F800086000200B49C4
:104A7000243908600A48091D086008481838006889
:104A800020F080000549183908607047403802401E
:104A9000000C0040406F400100700040242800409E
:104AA0000244130010B534480068012801D11020D9
:104AB00010BD23E0314802680068401C2F4B18608D
:104AC0002F4884541846006806280BD12C480079DA
:104AD00000F0800010B12A48807800E00020801D9E
:104AE000284908602548006826490968884205D198
:104AF00000202249086001201F4908601E48006804
:104B0000012806D0FFF7AFFE04464FF6FF7188423A
:104B1000D0D10420CCE710B51B4B1B681B4C24687C
:104B20001A191A4B1B680B44184C236003E010F849
:104B3000013B02F8013B0B1EA1F10101F7D110BDB1
:104B400010B512480068B0B1FFF7DFFE98B10F480A
:104B500001680D480068FFF7A3FE0B4800680C4988
:104B6000884202D101F5806000E0094806490860EA
:104B700000200649086010BD580000206400002095
:104B8000B00C0020680000205C00002060000020C5
:104B9000B010002030B50023F84BF948006840F011
:104BA0000200F7490860F748006820F00100F54965
:104BB00008600846006840F002000860081D0068B0
:104BC00020F00100091D0860EE480C30006820F05C
:104BD0000300EC490C310860081F006840F0030036
:104BE000091F0860E7482030006820F00F00801C93
:104BF000E44920310860E348006820F00400E149FE
:104C000008600846006840F008000860081D006859
:104C100020F00200091D0860DA480C30006820F01E
:104C20000C00D8490C310860081F006840F00C00E7
:104C3000091F0860D3482030006820F0F00040F0E1
:104C40002000D04920310860CD481030006840F085
:104C50000200CB49103108600720CB490880312081
:104C6000091D0860682008602820C74914310860C1
:104C7000C5480C38008840F06800C3490C390880EA
:104C8000081D008840F48070091D08800520BE4979
:104C900018310860BC480C38008840F4D040BA494C
:104CA0000C390880081D008840F48050091D0880D8
:104CB000B5481438008840F00100B3491439088021
:104CC000B1481C38008840F00800AF491C39088002
:104CD000AD482838008840F00100AB4928390880E9
:104CE00003200246A94C21684FF6FF042140A84C3E
:104CF0000C4344EA0221A54C216000BF1D20012184
:104D0000002808DA0A07150EA04A0C3200F00F043A
:104D1000241F155503E00A07140E9E4A145400BFC1
:104D20001D20012181404209920002F1E022C2F8D7
:104D3000001100BF30BD002090489149096841F042
:104D400004018F4A11609449096821F48051924A04
:104D500011601146096841F400511160111D096884
:104D600021F04001121D11608B490C31096821F4BA
:104D70004051894A0C321160111F096841F44051B9
:104D8000121F116084492031096821F0706141F0DF
:104D90004071814A2032116079491431096841F02B
:104DA0000201774A1432116007217C4A1180F021F8
:104DB000121D11600521794A0C32116077491039B2
:104DC000098841F06001754A103A11807349083929
:104DD000098841F00101714A083A11806F491C317C
:104DE000098841F400416D4A1C3211806B49283911
:104DF000098841F00101694A283A1180704710B5CD
:104E0000002461481838008820F008005E491839ED
:104E100008800846008820F0100008805F48183895
:104E2000008820F002005D491839088000205649AA
:104E300014310860091D08605948006802287DD0B7
:104E400003DC38B101280AD156E0112808D0122815
:104E5000F9D106E0142404204F49183108601AE300
:104E600000BF01204F4988624D48006820F0F000E3
:104E70004B49086008460068012810D142481C3898
:104E8000008840F0080040491C3908800846008826
:104E900020F0100008800520414988610FE03A4861
:104EA0001C38008840F0100037491C39088008463B
:104EB000008820F0080008800520394988613848BA
:104EC000806810B9012036498860354880683649C5
:104ED000B1FBF0F0324908620846006A48620846B1
:104EE000006A3249086000202D49C8614FF48020D3
:104EF000294918310860CEE22948406907287DD247
:104F0000DFE800F07C0427566A809D0001202449D8
:104F10004864084680691C491431086023480068C9
:104F20001F4908624FF480201B49183108601C4853
:104F3000C069401C1A49C861084600E02DE1C069FB
:104F4000072805D1022048610020C8610A20886135
:104F500021E1134880690C49143108601048C06988
:104F6000401C0F49C8610846C069092805D10320C3
:104F700048610020C8610F2088610CE180DE80025A
:104F80003038024000040240280400400CED00E0EC
:104F90000000FA0500E400E0000802402804014097
:104FA0004004002074020020A0860100A800002018
:104FB000FE488069FE490860FC48C069401CFB4906
:104FC000C8610846C069082805D10420486100204E
:104FD000C8610A208861DEE0F4488069F44908600D
:104FE000F248C069401CF149C8610846C0690728F9
:104FF00007D1052048610020C86100E0CAE0052013
:105000008861C8E0E9488069E9490860E748C06903
:10501000401CE649C8610846C06906280ED9002030
:1050200088610846C069072808D906204861002021
:105030008861C8610846006A20380862ABE0DB4836
:10504000C069A8B90420DB490860D848C069401C81
:10505000D649C86108464068D74951F82000401C2D
:10506000D2494968D44A42F821000020CF49486417
:10507000CE48006A002878D1CF48D0F84C0130B132
:10508000022805D0032829D0042838D136E037E09B
:10509000C648C06AC549096B884204D80420C6497D
:1050A000C1F84C0119E0C148406AC049896A884288
:1050B00013D8C148D0F82801BC49C96A401ABE4972
:1050C000C1F83001B948C06AD1F83011401ABA4964
:1050D000C1F834010320C1F84C0111E0B648D0F802
:1050E000340118B90420B449C1F84C01B248D0F8D1
:1050F0003401401EB049C1F8340101E000E000BFB6
:1051000000BFAA48C06A78B3A848C06A401EA74931
:10511000C8620020C8610846C06A38BB0846006CF7
:10512000012811D148610520886108468068A3499B
:10513000B1FBF0F09D4908620846006AA04908608A
:1051400001209A49C86224E000209849086048611B
:105150009949C1F84C019B48806A012801D19949BD
:10516000486400209749886213E00DE0FFE70120C2
:105170008E494861052088610846406A08620846F1
:10518000406A8F49086004E08848006A401E8749E9
:10519000086200E000BF00BF7DE184484069072845
:1051A00075D2DFE800F074045F758A9FBD000120AE
:1051B0007E4948648248006808620846C06970B940
:1051C00004207C4908607948C069401C7749C8615F
:1051D0000520886100207649091D086041E0734878
:1051E000C06901280FD18004724908600820086056
:1051F0006E48C069401C6D49C861084680696C49A9
:10520000091D08602DE06948C06902280AD1674875
:10521000C069401C6549C861084680696449091D28
:1052200008601EE06148C06902281AD95F48806999
:105230005F49091D0860624800685C4908620846C9
:10524000C069401CC8610846C069082809D100042B
:10525000584908600220554948610020C86105206E
:10526000886117E1514880695149091D08604F481C
:10527000C069401C4D49C8610846C069072805D16E
:10528000032048610020C8614620886102E100E1F6
:10529000464880694649091D08604448C069401C69
:1052A0004249C8610846C069082805D10420486100
:1052B0000020C8613C208861ECE03C4880693C49A2
:1052C000091D08603948C069401C3849C861084652
:1052D000C069092805D1052048610020C861142053
:1052E0008861D7E0314880693149091D08602F483D
:1052F000C069401C2D49C8610846C06905280ED9FF
:10530000002088610846C069062808D9062048613F
:1053100000208861C8610846006A20380862B9E048
:105320002248C069A0B904202249086000201F4912
:1053300048640846C069401CC861084640681E4968
:1053400051F82000401E194949681B4A42F82100C3
:105350001648006A002877D11748D0F84C0130B1C0
:10536000022805D0032839D0042848D146E047E078
:105370000E48C06A0D49096B884204D804200E49C2
:10538000C1F84C0129E00948406A0849896A884205
:1053900023D80948D0F828010449C96A401A0649A7
:1053A000C1F830010148C06A0EE00000400400204E
:1053B0003C04004018080240BC020020A086010006
:1053C000A800002074020020D1F83011401AFE49D4
:1053D000C1F834010320C1F84C0111E0FA48D0F8BB
:1053E000340118B90420F849C1F84C01F648D0F846
:1053F0003401401EF449C1F8340101E000E000BF6F
:1054000000BFF248C06A80B3F048C06A401EEF494E
:10541000C8620020C8610846C06A38BB0846006CF4
:10542000012812D148610520886108468068E84952
:10543000B1FBF0F0E54908620846006AE5490860FA
:105440000120E249C86223E01DE00020DF49086036
:105450004861DD49C1F84C01DF48806A012801D16B
:10546000DD4948640020DC49886211E00120D74909
:105470004861052088610846406A08620846406A1B
:10548000D449086004E0D148006A401ECF49086250
:1054900000E000BF00BF00BFD048006830B9012065
:1054A00000F065FC0120CD49086017E0C648D0F83F
:1054B0006001022808D1002000F059FC00F058FDDE
:1054C000C149C1F85C0106E0BF48D0F8600101287D
:1054D00001D100F04CFC0020C0490860BA48D0F867
:1054E0006C01BF49086010BD00B52DED088B81B07F
:1054F000BC48006800F0100000287CD0BA488089C1
:10550000BA490968401A00EE100AF8EEC09AB84885
:105510000088B6494968401A00EE100AB8EEC09AF1
:10552000B4484088B1498968401A00EE100AB8EEC4
:10553000C0AA9FEDB10A29EE800AB048D0ED020A58
:105540009FEDAF1A01EE200A80ED020A9FEDAA0A34
:1055500029EE000AD0ED030A9FEDA91A01EE200AF8
:1055600080ED030A9FEDA70A2AEE000AD0ED050A96
:105570009FEDA51A01EE200A80ED050AC0ED009A04
:1055800080ED019A80ED04AAA04890ED120A20EE69
:10559000298A90ED130A60EE098AD0ED010A9C4831
:1055A00090ED000A08EE200A80ED000A90ED000A56
:1055B000DFED980AB4EEE00AF1EE10FA04DD9FED9B
:1055C000950A80ED000A0DE0914890ED000ADFEDAC
:1055D000920AB4EEE00AF1EE10FA03D29FED8E0AC1
:1055E00080ED000A8948D0ED010A8C4890ED000A50
:1055F00008EEA00A00E0D2E180ED000A90ED000A7A
:10560000DFED840AB4EEE00AF1EE10FA04DD9FED5E
:10561000810A80ED000A0DE0804890ED000ADFED80
:105620007E0AB4EEE00AF1EE10FA03D29FED7A0A98
:1056300080ED000A754890ED030A7948D0ED000A24
:1056400078EE600A20EE200A7048D0ED030AB7EE2B
:10565000001A71EE600A734890ED001A00EE810A9C
:1056600080ED000A694890ED030A6F48D0ED000A0A
:1056700078EEE00A20EE200A6448D0ED030AB7EE87
:10568000001A71EE600A694890ED001A00EE810A76
:1056900080ED000A624880ED008A6348C0ED008A10
:1056A0005A48D0ED000A5A4890ED000A08EE200A48
:1056B0005648D0ED020A5B4890ED001AF0EE40AA81
:1056C00041EE20AA5148D0ED000A544890ED000A5E
:1056D00008EEA00A4D48D0ED020A544890ED001A99
:1056E000B0EE40BA01EE20BA514890ED000A5148A0
:1056F00080ED000A504890ED000A4D4880ED000A08
:105700004E4890ED000A4E4880ED000A4D4890ED5D
:10571000000A4A4880ED000A4748C0ED00AA4A48FE
:10572000006890ED000A4448D0ED000A20EE200AFF
:1057300045480068D0ED010A3D4890ED001A01EEA1
:10574000200A41480068D0ED020A3A4890ED001A5C
:1057500001EE200A3C480068D0ED030A374890ED7E
:10576000001A01EE200A38480068D0ED040A3448D7
:1057700090ED001A01EE200A324880ED000A33480D
:1057800090ED000A324880ED000A324890ED000AA0
:105790002E4880ED000A304890ED000A2F4880ED39
:1057A000000A2F4890ED000A2B4880ED000A294896
:1057B00080ED00BA2448006890ED000A2548D0ED3D
:1057C000000A20EE200A4DE0BC0200204004002028
:1057D000A0860100A800002074020020A000002084
:1057E000340401401408024000300140001B002036
:1057F0000C380040C4000020A69BC43B181B0020AE
:10580000C9767E3F6F12833A77BE7F3F281A002009
:10581000AC00002000FEFF4600FEFFC6B0000020E6
:10582000B4000020BC000020B8000020C000002010
:10583000740000207800002070000020800000200C
:10584000840000207C0000206C0000208C000020E0
:105850009000002088000020980000209C0000207C
:105860009400002057480068D0ED010A564890ED9A
:10587000001A01EE200A53480068D0ED020A53488E
:1058800090ED001A01EE200A4E480068D0ED030AA0
:105890004F4890ED001A01EE200A4A480068D0ED0A
:1058A000040A4C4890ED001A01EE200A4A4880EDA7
:1058B000000A4A48008C032810D14948006805F0C6
:1058C000BAF900F30F00454908834348006805F022
:1058D000B2F900F30F00414948831AE03F48808B3A
:1058E0003E4908830846C08B48839FED3E0A3C48EA
:1058F00080ED000A9FED3B0A374880ED000A9FEDDE
:10590000390A394880ED000A9FED360A374880EDA4
:10591000000A3248B0F918003549B1F93E10884202
:1059200004DA3348C08F2D4908830CE02B48B0F9C6
:1059300018002F49B1F94010884204DD2C48B0F816
:105940004000264908832548B0F91A002849B1F9D2
:105950004210884205DA2648B0F842001F494883C1
:105960000CE01E48B0F91A002149B1F944108842F0
:1059700004DD1F48B0F84400184948834FF4401034
:105980001C4908601548408B00F500401A49088002
:105990001248008B00F50040184988810EE0174836
:1059A00080890090144800880090302011490860D8
:1059B0001348806840F080401149886001B0BDEC18
:1059C000088B00BD6C0000208C000020900000209F
:1059D000980000209C00002094000020181B00204C
:1059E0007C00002000000000AC000020B00000207F
:1059F000281A0020180802400C38004000300140EE
:105A00000020014008B57E48006840F001007C4954
:105A100008607B481430006840F4805078491431A5
:105A200008607848006820F480407649086008469D
:105A3000006840F4004008600846406820F080009C
:105A400048600846C06820F44040C8600846806846
:105A500060F4404088600846006A20F0704040F0E2
:105A6000A04008620846006820F48060086008468C
:105A7000006840F4006008600846406820F020009C
:105A800048600846C06820F44060C86008468068E6
:105A900060F4406088600846006A20F4700040F4BA
:105AA000A00008620846006820F48050086008469C
:105AB000006840F4005008600846C06840F4805018
:105AC000C8600846C06820F40050C8600846006AF4
:105AD00020F0706040F0A06008624948006840F023
