:020000040000fa
:08000000000c040000000000e8
:020000040000fa
:08020000000c000001000000e9
:020000040000fa
:101800002fa72000003f21000001880000000000f9
:101810000c000700407523000100200011000700a4
:10182000000020000000e000020032000000020082
:10183000000000008a1b0200000000000040da00e7
:101840000000fe004440a900a03620000000e00097
:101850000300320000002000a00188004440a800de
:101860000000060091018800800078000000eb0075
:1018700015003700e280400032a0b4009101ba00a8
:10188000e280400032a0b4009102ba00e280400041
:1018900032a0b4000002eb00472bde00f507b200d7
:1018a000602ce10004003a000059eb008301e900dc
:1018b000fdff3e00040037006128e1000100320016
:1018c0000082eb00040007001101ba000200e000f2
:1018d000e8ff3a00000006003159ba008301e90030
:1018e0000c0032002159ba008301e90008003200df
:1018f0000400e00003003a00e280400032a0b4009f
:10190000f5ff370011d9ba008301e900faff3a0068
:101910008100e800e180400032a0b4000000060031
:101920000000000000000000020007000400be00ec
:10193000000006006022b800060220000000d0006f
:101940008180d2000482d2008582d2000000a000f3
:101950000202520083825a00030031000202420058
:1019600083824a000000a1000603e900f3ff3a0069
:04197000000006006d
:020000040000fa
:0200000401f009
:04000c007aff000077
:020000040000fa
:0200000401f009
:040010005eff00008f
:020000040000fa
:0200000401f009
:040014007fff00006a
:020000040000fa
:0200000401f009
:04001800ffff0000e6
:020000040000fa
:0200000401f009
:04001c00dfff000002
:020000040000fa
:10000800883a0000883a0000883a0000883a0000e0
:10001800883a0000883a0000883a0000883a0000d0
:10002800883a0000883a0000883a0000883a0000c0
:10003800883a0000883a0000883a0000883a0000b0
:10004800883a0000883a0000883a0000883a0000a0
:10005800883a0000883a0000883a0000883a000090
:10006800883a0000883a0000883a0000883a000080
:10007800883a0000883a0000883a0000883a000070
:10008800883a0000883a0000883a0000883a000060
:10009800883a0000883a0000883a0000883a000050
:1000a800883a0000883a0000883a0000883a000040
:1000b800883a0000883a0000883a0000883a000030
:1000c800883a0000883a0000883a0000883a000020
:1000d800883a0000883a0000883a0000883a000010
:1000e800883a0000883a0000883a0000883a000000
:1000f800883a0000883a0000883a0000883a0000f0
:10010800883a000024100000883a0000883a00006d
:10011800883a0000883a0000883a0000883a0000cf
:10012800883a0000883a0000883a0000883a0000bf
:10013800883a0000883a0000883a0000883a0000af
:10014800883a0000883a0000883a0000883a00009f
:10015800883a0000883a0000883a0000883a00008f
:10016800883a0000883a0000883a0000883a00007f
:10017800883a0000883a0000883a0000883a00006f
:10018800883a0000883a0000883a0000883a00005f
:10019800883a0000883a0000883a0000883a00004f
:1001a800883a0000883a0000883a0000883a00003f
:1001b800883a0000883a0000883a0000883a00002f
:1001c800883a0000883a0000883a0000883a00001f
:1001d800883a0000883a0000883a0000883a00000f
:1001e800883a0000883a0000883a0000883a0000ff
:0801f800883a0000883a00007b
:020000040000fa
:10020800883a0000883a0000883a0000883a0000de
:10021800883a0000883a0000883a0000883a0000ce
:10022800883a0000883a0000883a0000883a0000be
:10023800883a0000883a0000883a0000883a0000ae
:10024800883a0000883a0000883a0000883a00009e
:10025800883a0000883a0000883a0000883a00008e
:10026800883a0000883a0000883a0000883a00007e
:10027800883a0000883a0000883a0000883a00006e
:10028800883a0000883a0000883a0000883a00005e
:10029800883a0000883a0000883a0000883a00004e
:1002a800883a0000883a0000883a0000883a00003e
:1002b800883a0000883a0000883a0000883a00002e
:1002c800883a0000883a0000883a0000883a00001e
:1002d800883a0000883a0000883a0000883a00000e
:1002e800883a0000883a0000883a0000883a0000fe
:1002f800883a0000883a0000883a0000883a0000ee
:10030800883a000024100000883a0000883a00006b
:10031800883a0000883a0000883a0000883a0000cd
:10032800883a0000883a0000883a0000883a0000bd
:10033800883a0000883a0000883a0000883a0000ad
:10034800883a0000883a0000883a0000883a00009d
:10035800883a0000883a0000883a0000883a00008d
:10036800883a0000883a0000883a0000883a00007d
:10037800883a0000883a0000883a0000883a00006d
:10038800883a0000883a0000883a0000883a00005d
:10039800883a0000883a0000883a0000883a00004d
:1003a800883a0000883a0000883a0000883a00003d
:1003b800883a0000883a0000883a0000883a00002d
:1003c800883a0000883a0000883a0000883a00001d
:1003d800883a0000883a0000883a0000883a00000d
:1003e800883a0000883a0000883a0000883a0000fd
:0803f800883a0000883a000079
:020000040000fa
:101974000d0a00000a540000444300003030000007
:101984003120000044430000205300006572000031
:10199400766f0000204d00006f7400006f7200002d
:1019a400204300006f6e0000747200006f6c000032
:1019b4006c650000720d00000a0000000d0a0000b2
:1019c4005265000073650000743a0000095200007b
:1019d400434f00004e2000003d20000030780000fe
:1019e4002558000000760000616c00006964000066
:1019f400006900006e760000616c000069640000fc
:101a0400000d00000a450000454400006174000018
:101a1400613a000009250000730000000d0a00006f
:101a24005374000061670000653a00000925000056
:101a3400642c000020520000203d000020250000fe
:101a4400752000004f6800006d730000000d000059
:101a54000a5300002f4e00003a090000256c0000d4
:101a6400750000000d0a000050490000443a0000cf
:101a7400094b0000702000003d2000002564000098
:101a84002c2000004b690000203d000020250000b0
:101a9400642c0000204b0000642000003d20000066
:101aa400256400002c200000496c0000203d00004b
:101ab40020250000642c0000206400007420000035
:101ac4003d20000025640000000d00000a4d0000c8
:101ad4006f760000657300003a0900005665000047
:101ae4006c2000003d200000256c0000642c0000e8
:101af4002041000063630000203d00002025000019
:101b04006c6400002c200000426300006b6c000039
:101b140073680000203d0000202500006c64000074
:101b2400000d00000a530000774c0000696d0000ae
:101b3400733a00000952000065760000203d000061
:101b4400202500006c6400002c2000004677000073
:101b5400642000003d200000256c0000642c00007f
:101b6400204d00006f640000652000003d2000004f
:101b740025640000000d00000a4a00006f670000a1
:101b8400733a000009560000656c0000203d000017
:101b9400202500006c6400002c200000416300003c
:101ba400632000003d200000256c0000642c000030
:101bb4002053000074650000702000003d200000e8
:101bc400256c0000640000002c2000004a6f000017
:101bd400674d00006f640000652000003d20000098
:101be400256400002c200000537400006f70000076
:101bf4004d6f000064650000203d000020250000ba
:101c0400640000000d0a0000486f00006d650000cc
:101c14003a090000566500006c2000003d200000d9
:101c2400256c0000642c0000204f00006666000054
:101c3400732000003d200000256c000064000000bb
:101c44002c20000044690000722000003d200000a8
:101c5400256300002c2000004c6900006d53000037
:101c6400572000003d20000025630000000d000007
:101c74000a4d0000656d0000627200003a09000020
:101c8400427400006e4d00006f6400006520000087
:101c94003d200000256400002c200000506f00004f
:101ca40073310000203d0000202500006c6400001a
:101cb4002c200000506f000073320000203d000013
:101cc400202500006c640000000d00000a50000094
:101cd40050610000727300003a0900006431000092
:101ce400203d000020250000642c00002076000028
:101cf400312000003d20000025640000000d00009c
:101d04000a09000064320000203d00002025000084
:101d1400642c000020760000322000003d200000ea
:101d240025640000000d00000a090000643300006f
:101d3400203d000020250000642c000020760000d7
:101d4400332000003d20000025640000000d000049
:101d54000a09000064340000203d00002025000032
:101d6400642c000020760000342000003d20000098
:101d740025640000000d00000a0000000d0a0000a8
:101d84004d6f000076650000496e00006800000099
:101d94000d0a00004d6f000076650000206600000b
:101da400726f00006d200000256c000064200000ac
:101db400746f0000202500006c640000000d00001a
:101dc4000a530000746f0000702e00002e2e0000d5
:101dd400000d00000a530000746f00007021000021
:101de400000d00000a4800005374000061720000f6
:101df400740000000d0a0000484700006f54000002
:101e04006f4c0000696d0000000d00000a480000de
:101e1400537400006f700000417400004c690000ae
:101e24006d0000000d0a0000484700006f540000d8
:101e34006f4800006f6d0000655000006f73000074
:101e44003a2000006f6600006673000065740000ad
:101e5400203d0000202500006c640000000d0000ff
:101e64000a4800004d6f0000766500004f750000c1
:101e7400744f0000664c0000696d00006974000036
:101e8400000d00000a480000537400006f70000049
:101e94004f7500007473000069640000654c000015
:101ea400696d000069740000000d00000a4800001c
:101eb400436f00006d7000006c65000074650000e5
:101ec40064000000c07a0000f204000054440000e2
:101ed400433000003031000000000000100000001a
:101ee40008000000020000005444000043300000d9
:101ef40030310000204400004320000053650000fe
:101f0400727600006f2000004472000069760000c1
:101f14006500000000000000000000000000000058
:101f240000000000000000000000000000000000ad
:101f3400000000000000000000000000000000009d
:101f4400000000000000000000000000000000008d
:101f54000000000000000000000000000800000075
:101f64000200000000000000010000004404000022
:101f740001000000015000000d0a0000457200003d
:101f8400726f000072000000200000000d0a0000c3
:101f940053610000766500006420000045450000a0
:101fa40050610000726100006d7300000045000084
:101fb4004557000072690000746500000045000088
:101fc4004556000065720000696600007900000053
:101fd400910400000e000000815000000000000089
:101fe40000000000000000000000000000000000ed
:101ff40000000000000000004d6f0000746f00003e
:10200400722000004f7600006572000063750000c6
:1020140072720000656e0000740000003031000030
:102024003233000034350000363700003839000000
:102034004142000043440000454600000000000007
:0420440068350000fb
:020000040000fa
:1020480000a0fe003600f800849fbe00869fbe00f8
:10205800181207004f03be004f02be003600f900f9
:102068000080fe00004006003a14070040a7a900bf
:102078001e150700ec1307002713070000202c008b
:10208800110020003612070034140700ef1407006f
:10209800471407000b150700b514070000000600d9
:1020a8002800fa00e0fb2800801f780060fd2f0060
:1020b8000f0040002e0e070060fd2f000f004000ab
:1020c800490d07008f87e9000080fa00000006002c
:1020d8005a00fa00889fbe0061a080000040eb0013
:1020e800d0679f0010c0b300e0679f0000c5b30031
:1020f800f0679f0010442000808f5000400232009b
:102108004c003e0000412000808f50000401320046
:1021180020003e00f58f5000940432000b003e0072
:10212800f18f5000c400320003003e00e58f5000dc
:10213800ba043a0093003700f28f5000c30032000f
:10214800f48f5000b5043a004f04370030222000c5
:10215800808f5000b300320007003e00730050002b
:10216800808f5000bb0032000000e800808f5000d4
:10217800aa043a00d200370090402000808f500017
:10218800e70032000000e800808f5000a3043a0006
:10219800d500370030422000808f500055013200b2
:1021a80012003e006f005000808f50000e01320078
:1021b80007003e0063005000808f5000e1003200ad
:1021c8000080e800808f500094043a00fd0037003a
:1021d80060412000808f5000180132000000e800a4
:1021e800808f50008d043a0025013700a04320005d
:1021f800808f50002902320007003e007600500010
:10220800808f50008701320065004000808f5000a9
:1022180082043a00de003700b0432000808f50006f
:102228002802320065004000808f50007b043a008d
:10223800d4013700c0462000808f50001d033200b3
:1022480028003e007b005000808f50006f02320053
:1022580012003e006b005000808f50002c023200ac
:1022680007003e0063005000808f500002023200d9
:102278000080e800808f500068043a001f02370091
:1022880080442000808f50002f02320068004000f8
:10229800808f500061043a005702370050462000f2
:1022a800808f5000ad02320007003e0072005000df
:1022b800808f50006302320064004000808f50001d
:1022c80056043a0085023700a0462000808f50004f
:1022d800b30232000000e800808f50004f043a003b
:1022e800f2023700104b2000808f50008503320027
:1022f80012003e0071005000808f5000ef02320043
:1023080007003e0070005000808f50009b00320094
:102318000080e800808f500040043a009a0037009f
:10232800104a2000808f5000fc0232006f004000ed
:10233800808f500039043a0058033700604b200062
:10234800808f50009103320007003e006300500068
:10235800808f50000f0332000000e800808f50008b
:102368002e043a002c033700704b2000808f500059
:10237800910332000080e800808f500027043a0063
:10238800a40337006000200090979f0040c5b30069
:10239800c0679f006f6097000074a000e0679f000f
:1023a80081fa2f000f80400042f62800290009001a
:1023b800321878004005b1000443800015438000be
:1023c8000488be00f50d0700a0bf9f0011c3b3002d
:1023d800a1ef9f0000c3b300b0ef9f00634040002f
:1023e800c0ef9f0065404000d0ef9f00e1ef9f00e5
:1023f8000040e800f0ef9f006840400080f79f0031
:1024080050c7b30090f79f006e405000a0f79f00a0
:102418000040eb00b0f79f002000200080528800a9
:10242800fb0337005f28ab00fc03320030002000bc
:10243800150e0700f903370042e9a8003c29ef0010
:10244800a00f200084130700f403370042e9a90015
:10245800f2033700f040210015c0b30090cf1200fe
:102468000f003a0062fc2800010028000000eb0081
:10247800840407003049800041498000404d8800ad
:10248800514d8800ac29ef00ae29ef001000200064
:10249800204d8800681307004309a800df033700b0
:1024a8004309a90020002000d049880030002000fe
:1024b800204d88004349a90061130700d70337005e
:1024c8002021200090979f0011c0b300c1679f0092
:1024d80020c0b3004309ab0001003200014078007e
:1024e800d0679f00ca033700b040200090979f0034
:1024f80060c0b300c0679f006f6097000074a000c1
:10250800e0679f0010002000c0979f0032498000bc
:1025180043498000d2979f00e3979f00bc03370090
:10252800a8a08000b9a080000800be00ab1007007a
:10253800484d8800594d8800ac29ef00ae29ef00be
:10254800b60337002041200090979f0060c0b30079
:10255800c0679f006f6097000074a000e0679f004d
:1025680010002000c0979f00344980004549800032
:10257800d4979f00e5979f00a503370010492000d6
:10258800bf030700a50337003c29ef00a30337006a
:10259800a042200090979f0060c0b300c0679f00d2
:1025a8006f6097000074a000e0679f001000200093
:1025b800c0979f00d6030700d0979f00e1979f0020
:1025c80093033700c0a08000d1a08000404088005d
:1025d80051408800e2a08000f3a08000624088009b
:1025e800734088008d0337005041200090979f006a
:1025f800e0c0b300c0679f006f6097000074a00040
:10260800e0679f0010002000c0979f006000b8009e
:10261800d0979f00e1979f0044408000554080007c
:10262800f4979f00859f9f00604080007140800064
:10263800909f9f00a19f9f0075033700a1a0800075
:1026480081408800b2a08000c3a08000924088002a
:10265800a3408800f4a0800005a18000b440880051
:10266800c540880010a1800021a18000d0408800ca
:10267800e140880031a18000f140880067033700fd
:102688008041200090979f0060c1b300c0679f0001
:102698006f6097000074a000e0679f0010002000a2
:1026a800c0979f0082408000d2979f00944080008e
:1026b800a5408000e4979f00f5979f006000b80050
:1026c800809f9f00919f9f00b0408000c140800084
:1026d800a09f9f00b19f9f00d2408000e3408000f0
:1026e800c29f9f00d39f9f00f3408000e39f9f00fd
:1026f8004703370021412100b0a08000e30f5000bc
:102708001200320005003e00e10f500008003200c0
:10271800e20f500018003a0008003700e40f50009c
:102728000e003200e50f500013003a000f0037008a
:102738005e08a9005e48a9000f0037005e08a800df
:102748005e48a8005e88a8000b0037005e08a80055
:102758005e48a8005e88a900070037005e08a90047
:102768005e48a8005e88a800030037005e08a9003c
:102778005e48a8005e88a90011009000e30f500091
:102788001200320005003e00e10f50000800320040
:10279800e20f500018003a0008003700e40f50001c
:1027a8000e003200e50f500013003a000f0037000a
:1027b8005e28a9005e68a9000f0037005e28a800ff
:1027c8005e68a8005ea8a8000b0037005e28a80075
:1027d8005e68a8005ea8a900070037005e28a90067
:1027e8005e68a8005ea8a800030037005e28a9005c
:1027f8005e68a8005ea8a90031029000c10290009e
:10280800a4428800b542880051019000e10190007f
:10281800c2428800d3428800f1009000e14288005b
:10282800fe0237005042200090979f0000c1b3007d
:10283800c0679f006f6097000074a000e0679f006a
:1028480084fa2f008f0142001000200080097800d0
:10285800f1428000008160004211dd000100d100da
:102868006200600000017100c408de00e1806000c1
:1028780001007100e30f50000e00320003003c001d
:10288800e20f500011003a000d003700e60f50002b
:1028980005003200e70f50000c003a00200020002d
:1028a800a00198000b00370030002000a00198001c
:1028b8000800370040002000a001980005003700fc
:1028c80050002000a00198000200370010002000ee
:1028d800a0019800f04280000001d000640161006e
:1028e800c200de00e2806000010171004500de00e8
:1028f8006100600000007100e30f50000e0032001c
:1029080003003c00e20f500011003a000d003700b0
:10291800e60f500005003200e70f50000c003a00a7
:1029280020002000900198000b00370030002000a4
:10293800900198000800370040002000900198009e
:102948000500370050002000900198000200370071
:102958001000200090019800c0428000d142800001
:10296800d0019800e1019800a4428000b54280009f
:10297800b4019800c5019800e5428000f50198006f
:10298800a3023700c0a08000d1a0800020418800a9
:1029980031418800e2a08000f3a0800062418800f5
:1029a800734188000040eb00a1a08000e18f500037
:1029b80001003a0001407800610060004600dd0037
:1029c800f14280000160a10080807000f14288001f
:1029d8008040eb00b0a08000e40f500001003a00f6
:1029e80011c0b300e1806000c708dd00f04280003c
:1029f8000070a10001007000f042880087023700d3
:102a08002044200090979f00e0c0b300c0679f005b
:102a18006f6097000074a000e0679f0083fa2f00a2
:102a28000f804100120020000208780021002000d9
:102a38005ec8ab00010032008200780011009800e7
:102a4800410020005ee8ab0001003a0011002000c0
:102a5800210098002441800035418000340098000e
:102a68004500980062418000734180005200980040
:102a780063009800660237004309ab006702320022
:102a880042c9a90010002000d049880043e9a800e5
:102a980042a9a8004269a90060023700a0a08000ee
:102aa800b1a080000041880011418800e00f50006b
:102ab800e08f580059023d002028ef002228ef003f
:102ac80056023700c043200090979f0060c0b300b3
:102ad800c0679f006f6097000074a000e0679f00c8
:102ae80010002000c0979f0004418000154180001d
:102af800d4979f00e5979f0045023700a0a080006b
:102b0800b1a0800090528800a1528800430237008b
:102b18007044200090979f0060c0b300c0679f007a
:102b28006f6097000074a000e0679f00100020000d
:102b3800c0979f0092528000a3528000d2979f00b6
:102b4800e3979f0032023700104a800001102400ea
:102b58000100600001102000810f50002f023a0090
:102b680032498000434980001054e20005003d00ce
:102b7800a0a08000b1a0800002014000838148002d
:102b88000400370020a5200030024100a08249003f
:102b98000401be0010002000204d8800424d88002e
:102ba800534d88006022b8003049800041498000b8
:102bb800800f5100818f590002003d0004418000c0
:102bc80015418000644d8800754d880040408000a4
:102bd80051408000804d8800914d880062408000ff
:102be80073408000a24d8800b34d880043e9a800d7
:102bf8004269a80009023700a4a08000b5a080009f
:102c0800b4528800c55288000402370020452000cd
:102c180090979f0060c0b300c0679f006f609700e7
:102c28000074a000e0679f0010002000c0979f007c
:102c3800b0528000c1528000d0979f00e1979f005a
:102c4800f3013700104a80000110240001006000e1
:102c580001102000810f5000f0013a001054e200ea
:102c680003003d00a2a08000b3a08000020037004e
:102c7800b2528000c352800010002000204d88000e
:102c8800424d8800534d88006022b80030498000ca
:102c980041498000800f5100818f590002003d009a
:102ca8000441800015418000644d8800754d8800fe
:102cb8004240800053408000824d8800934d880038
:102cc8006440800075408000a44d8800b54d8800a0
:102cd8004269a80043e9a800d0013700104a8000e3
:102ce800011024000100600001102000810f500035
:102cf800ca013a00f040210025c0b30090cf12006d
:102d080003003a00024080001340800002003700b0
:102d1800224080003340800010002000204d8800b1
:102d2800424d8800534d8800ac29ef00ae29ef00d2
:102d38004040800051408000804d8800914d8800bf
:102d48006240800073408000a24d8800b34d880027
:102d580043e9a8004269a900b00137004349ab0024
:102d6800ae013200f040210013c0b30090cf110033
:102d780003003a0030002000204d88000200370090
:102d880020002000204d880020002000d049880025
:102d98004269a9004289a80043e9a8009f013700b9
:102da800104a80000110240001006000011020007a
:102db800810f500099013a004329a8008040800003
:102dc800e10f50000b003a00f040210024c0b3008e
:102dd800904f120003003a00024080001340800028
:102de8000200370022408000334080004269a90079
:102df8001e003700f040210025c0b30090cf12001c
:102e08000d003a0090408000a140800034498000c5
:102e18004549800004014000858148000040800049
:102e280011408000800f5100818f59000e0034003e
:102e38000001be000c003700324980004349800081
:102e480090408000a140800000015100818159001c
:102e58002040800031408000800f5100818f590050
:102e680001003d000001be004269a80043e9a80036
:102e780010002000204d8800424d8800534d8800e6
:102e8800ac29ef00ae29ef00b0408000c1408000bf
:102e9800804d8800914d8800d2408000e34080003a
:102ea800a24d8800b34d88005c0137004249a90053
:102eb8005a0137004249a800580137002241210031
:102ec80021a180000108a3000200320003a18000b4
:102ed800b3a58800010078000138a3000200320081
:102ee8001202900084a588000028a3000200320086
:102ef800b202900095a588000018a30002003200d5
:102f080052019000a2a588004808de00c0a58800ec
:102f18000180fb001049880040013700204a20004a
:102f280090979f0040c1b300c0679f006f609700f3
:102f38000074a000e0679f0010002000c0979f0069
:102f4800b0a58000cf80de00b09f9f00c19f9f008a
:102f580080a58000cf80de00d0979f00e1979f007a
:102f680090a58000cf80de00f0979f00819f9f0092
:102f7800a0a58000cf80de00909f9f00a19f9f00aa
:102f8800c0a580004800dd002209b700d09f9f003f
:102f98001f013700a2a08000c710dd000110b20099
:102fa800f04280000080a10001007000e100610093
:102fb800c908dd000090a10001007000c310de0008
:102fc800e1806000ca08dd0000a0a10001007000d7
:102fd8004411de000204a200610161004b11dd0012
:102fe80000b0a10002007000f04288004b00de0033
:102ff8000000a200614060004200dd00512c20006a
:10300800914078000124a10080c070000100780080
:10301800c5e2b70001013700504b200090979f0090
:1030280040c0b300c0679f006f6097000074a000a5
:10303800e0679f0080fa2f008f00400010002000fa
:10304800800878000000eb00d0979f005f08ab0075
:103058000200320020002000d0979f005f28ab00bc
:1030680003003200110090000000a00090009800ba
:103078005f48ab0003003200110090000030a00050
:10308800900098005f68ab00e1003a0011009000e2
:103098000040a00090009800dd003700a1a080004b
:1030a8004142880081418800b4a08000c5a080000a
:1030b80094418800a5418800d5a08000b5418800ca
:1030c800e0a08000f1a08000c0418800d1418800c4
:1030d80001a18000e141880012a1800023a18000a5
:1030e800f24188000342880033a18000134288001f
:1030f80044a1800055a18000244288003542880000
:10310800c6003700204b200090979f00a0c1b30055
:10311800c0679f006f6097000074a000e0679f0081
:1031280010002000c0979f0085418000d5979f0020
:1031380090418000a1418000e0979f00f1979f0097
:10314800b1418000819f9f00c2418000d34180002f
:10315800929f9f00a39f9f00e3418000b39f9f0021
:10316800f441800005428000c49f9f00d59f9f00c6
:1031780015428000e59f9f00204280003142800078
:10318800f09f9f0081a79f00a1003700a1a08000a9
:1031980051428800b2a08000c3a08000624288002b
:1031a80073428800d4a08000e5a080008442880093
:1031b8009542880099003700804b200090979f0027
:1031c80000c1b300c0679f006f6097000074a00043
:1031d800e0679f0010002000c0979f0055428000c4
:1031e800d5979f006042800071428000e0979f0061
:1031f800f1979f008242800093428000829f9f0047
:10320800939f9f00007d2000a09f9f00b09f9f007c
:103218007f003700a0a08000e40f500004003200b7
:10322800e90f500002003200ed0f50007b003a0019
:1032380084a5800095a58000344388004543880014
:10324800a0a58000b1a58000504388006143880094
:10325800c1a58000714388000287200003802000f8
:103268002f00090033197800f449800024438800ae
:10327800a0a52900804688006b00070080fc280074
:10328800d908070065003700294121009900780016
:10329800e0142000808f50001b00320006003c0024
:1032a800e28f50000b0032000000e900808f5000d0
:1032b8005a003a000d003700f0142000808f5000ab
:1032c8002500320000192000808f500053003a007a
:1032d8002300370029009000b900900000438800bf
:1032e80011438800500007004c0037002904900063
:1032f800240d0700a0002000d70f07000800780061
:10330800c90f0700450037001e0d0700290090006f
:103318000000e0000d0032000004eb00401f200018
:10332800c10f070040062000cb0f0700c0e02f00a8
:10333800bd0f070040062000c70f07000804e8007b
:1033480029009000880f5000f4ff3e000000eb00b9
:10335800b50f070031003700000d07002f003700b8
:103368004007a9000000fe002c0037006001200083
:1033780090979f0072404000c0679f006f60970061
:103388000074a000e0679f008001eb002207200086
:103398008300780000862000e90d070081fa2f00dd
:1033a8008f844000090078006011b8008102200075
:1033b800898040000298be00810f5000fdff3a004e
:1033c8000243800013438000820c9800930c9800fd
:1033d8000000eb0010100700000478001000200027
:1033e8000d10070080005400400620000088b90036
:1033f800121d2000811f7800110009004208d80022
:10340800cf007800cf80de00a00c9800b10c9800a7
:1034180020fa2f000f004000c00f07004f04be0025
:103428000080fa0000000600220720008000eb0060
:1034380000862000f30d0700e10f50000400320061
:1034480092fd2800014d28000000eb008d000700c8
:1034580013002000220720008000eb0000862000d7
:10346800b70d07000000e0000400320012fe28003b
:10347800014d28000000eb00820007000000060054
:103488001400fa000001780074805700a1fe28009b
:1034980013000900315878004001b10042e9ab003f
:1034a80004003200e149800020032000808f500092
:1034b80015003c0000c5b30090f79f00c2ef9f00c5
:1034c8004810de00d0ef9f001000200090bf9f0042
:1034d8003049800041498000a0bf9f00b1bf9f00d4
:1034e800b1498000c1bf9f000000eb00d0bf9f0022
:1034f80007000700e0bf9f00f1bf9f0074805700de
:10350800860f07003c29ec000080fa000000060046
:10351800164a800004002000050021000688a30048
:103528001200320050498000614980003249800011
:103538004349800002005000838058000271220035
:1035480003002000000041008180490004002000a1
:1035580005002d0002e22400820f5000e08f580081
:1035680002003e000400200005002900f049800008
:10357800e10f5000010032000480a00006d8a3002b
:103588000100320005e0a00006a8a30008003200f0
:1035980000012000010020003609e20002003c0082
:1035a80000022000010020000002720081827200e7
:1035b8000668a3000200320004a0a0000300370040
:1035c8003809e200010034000490a000312c2000ea
:1035d800914078008100d100e1806000f0428000d5
:1035e8004400de006140600080cf500001003a00d6
:1035f8000410a000212c200091407800c408de00af
:10360800e1806000f04280004500de00614060001b
:1036180080cf500001003a000400a0003249800029
:1036280043498000a0428000b1428000800f5100d1
:10363800818f5900010035000430a000c04280008d
:10364800d1428000800f5100818f590001003c0059
:103658000420a0000698a3000800320000042000ff
:10366800010020003609e20002003c0000082000aa
:103678000100200000027200818272000400be0076
:10368800000006005a00fa00881f780080017800c0
:103698000104780020498000810f50001800320092
:1036a80000002800808f500014003200100820000d
:1036b800a0979f0040c4b300e0679f000040eb0064
:1036c800f0679f0010c8b300806f9f0000c5b3006b
:1036d800906f9f00d3979f00e1979f00e1fa2f001a
:1036e8000f804000125878003204e000fdff3a00d5
:1036f80040fa2f000f004000080f070028498800f3
:103708004f0478000080fa0000000600889fbe0081
:103718008a1f780054fa0700d4a2a90020032000c9
:10372800cd0e07009a0907000004eb00d84988006d
:10373800c849880042c9a900084a88004229a90046
:103748004269a9004289a90042e9a9004249a800a2
:10375800e84988004349a90043a9a90043c9a90029
:1037680043e9a9004309a8004409a900284d880095
:1037780030002000304d880010002000010020009b
:10378800804d8800914d8800a04d8800b14d88007b
:103798001000200050428800d4a2a8004006200053
:1037a800ad0e070088017800220720008800780005
:1037b80000862000e20c070000542800d1b02f003a
:1037c80002438000134380000200400083804800c9
:1037d800f2232400f3002000820f5000838f58004a
:1037e8000400360003ac270003438800234f200061
:1037f8001343880020032000970e0700e7080700fe
:103808000004780096050700f84988008146800082
:10381800a0a52900808f500012003a0020438000a4
:10382800800f54000f003a0030438000414380006d
:1038380080a5880091a588005243800063438000da
:10384800a2a58800b3a5880073438000c3a588009b
:1038580000802000018720002f000900311878001f
:103868004409a80002012000424188002a28ef00ec
:10387800590a070040062000770e0700d4a2a900c5
:1038880040062000740e0700d4a2a800700e07009e
:1038980080047800b10b0700c4e2a800c542a90063
:1038a8000005eb00760e0700ba54e2000200320071
:1038b80007fa0700ba74ef001081840000000100c5
:1038c800630e07000900500041062000810f5000d8
:1038d800410036005e0e07008004780042e9ab0024
:1038e8000200320010492000e5fe07000000eb004e
:1038f800c90e07000004780010002000c60e07005b
:1039080000045400080078001e030700300020005f
:10391800c10e0700000178008040eb00800c2000f9
:10392800800f51000100340011c0b30061806000b5
:103938004d00dd00114a800001d0a1008080700098
:10394800114a8800000022000080600002003a004e
:10395800000578000f0037000205450000fa200036
:10396800800f55000b003600e2ff2800a18b2800cd
:103978000000eb0043ff07004309a90020002000d6
:10398800d049880030002000204d88004349a90014
:103998002b0e0700e0010700c0498000ea0f500025
:1039a80009003a0042c9a800104a80000058a30044
:1039b800050032000028a3000200320080fb280026
:1039c800560e070042a9a900b7080700f00807002b
:1039d8008800780031090700730b070040000700d2
:1039e800304d8000e30f500013003a004329a9002e
:1039f8004349a900104a80000038a300050032009e
:103a08000028a30002003200404620009cfe070068
:103a18004269a900104a80000048a300050032004e
:103a28000028a300020032006046200094fe070030
:103a38004289a90043e9a900312c2000914078006f
:103a48008100d100e1806000f24280004410de0075
:103a58006140600080cf500002003a000208a300d5
:103a68000b003a00212c200091407800c408de00a9
:103a7800e1806000f24280004510de006140600095
:103a880080cf50000a003a000218a3000800320054
:103a98005f08ab0003003200200020007a0807000e
:103aa80080ff37000000eb00770807007dff370034
:103ab8005f48ab0007003200114a80000040200038
:103ac8008080600003003200100020006e080700ac
:103ad80074ff37000000eb006b08070071ff370028
:103ae8000400fa00889fbe008a1f78008c9fbe00e1
:103af800c3c2bf000000d10061006000f242800034
:103b0800c410de00e1c46000894f500003003a0091
:103b1800170020000208a30001003a008003eb0010
:103b2800c2c2bf004400de0061006000f2428000b3
:103b3800c510de0061c46000884f500003003a00e1
:103b4800160020000218a30001003a000003eb0051
:103b580042c9ab00170032005c88ed00e10f50004d
:103b680014003e0034498000454980000041eb00c4
:103b7800a0428000b1428000800f5200818f5a001d
:103b880001003d0012c0b300024078000004a2000a
:103b98000081fb008001eb00c0428000d142800020
:103ba800840f5000858f5800040035001300200052
:103bb800020037008001eb00030178000700e000f5
:103bc80004003a000200e00002003a00070578000d
:103bd800010037001a0020000600e00004003a0047
:103be8000300e00002003a00860278000100370076
:103bf80015002000e4428000e30f520009003a005b
:103c08000200e00002003a000300e0000500320074
:103c18000700e00003003a00820020000600e000f0
:103c28000100320092002000004a8000e10f50009d
:103c38000f003a005ee8ab0006003200c3c2bf00c6
:103c48000000d1006100600080cf540008003a00f5
:103c580005003700c2c2bf004400de0061006000fa
:103c6800804f540002003a0020002000004a8800db
:103c7800204d8000e20f50000d003200e30f50008d
:103c880012003200e10f500013003a00304d80005e
:103c9800e20f5000020032000000e00002003a008b
:103ca80010002000304d8800a429ef000a003700da
:103cb800304d8000e20f500002003a0080002000e2
:103cc800304d8800a429ef00030037009000200041
:103cd800304d8800a429ef00304d8000cf80de00f1
:103ce80061005000e0805800eb0f5000e08f580052
:103cf80003013e00006001000b0037006e00370032
:103d0800c7003700a5003700ad0037008c0037002a
:103d18009d003700c5003700d0003700ef0037009e
:103d2800f70037008300370042c9ab002600320095
:103d3800e40f520024003a00424d8000534d8000a9
:103d4800a0428000b1428000800f5100818f59004d
:103d5800090034003249800043498000820f500036
:103d6800838f580001003d000200be00404d8800ce
:103d7800514d880014003700c6428000d7428000a9
:103d8800604d8000714d8000000051008180590015
:103d9800860f5000878f58000b003d003249800085
:103da800434980000600be00820f5300838f5b00ea
:103db800010034000200be00404d8800514d8800cb
:103dc800ac29ef00ae29ef003c4980004d49800046
:103dd8000041eb00404d8000514d80008c0f500099
:103de8008d8f580001003d0012c0b300e100610052
:103df800104d80000000a10001007000104d8800e7
:103e08000008a300030032000500e00003003a00a8
:103e1800070037000a00e0000c00320030002000e4
:103e2800304d880000ec2800ef050700b40037008b
:103e3800424d8000534d8000604d8000714d8000e0
:103e4800000451008184590002003700484d800069
:103e5800594d8000a64d8000b74d8000844d8000ec
:103e6800954d80000801be000c00be00e903070064
:103e7800889fbe003049800041498000809fbe0075
:103e8800a1ec2800811f7800809b2000b80607005d
:103e9800809b2000d40507004349a8004369a90076
:103ea8004209a90020002000304d88004389a9005c
:103eb800ea87570092003700a209ab0003003200de
:103ec8000500e00003003a00080037000a00e0009f
:103ed800060032004389ab0004003a00324d8800e6
:103ee800ac29ef00ae29ef00850037004209ab008e
:103ef8008300320032e9ab0003003200c00020002a
:103f0800304d88007e003700604d8000714d800084
:103f1800e00f5000e08f58000300320060002000de
:103f2800304d88007600370040002000304d880072
:103f38007300370010002000304d880070003700f3
:103f4800ac29ef00ae29ef00a209a900200020004b
:103f5800304d88004209a900a64d8000b74d800069
:103f6800844d8000954d8000424d8000534d800067
:103f78003049800041498000a603070070002000f6
:103f8800304d88005e0037004209ab005c0032000b
:103f980040002000304d880059003700ac0c070065
:103fa800d04c88003049800041498000b04c8800de
:103fb800c14c880050002000304d88005000370068
:103fc800b04c8000c14c80003249800043498000d9
:103fd800020050008380580061004000e0804800e3
:103fe800e20f5000e08f58000a003e00980c0700ce
:103ff800d14c80000100500041062000810f500084
:104008003f0036004369a80030002000304d88008a
:104018003b00370040002000304d88003800370052
:104028004389a900a629ef003500370010ee2800c3
:104038006d0507004389a8004349a8004209a90063
:10404800ac29ef00ae29ef00100020007c03070028
:10405800a0002000304d880029003700780c0700a8
:10406800b0ee280060050700ac29ef00ae29ef008c
:104078004389a8004349a8004209a800200020005d
:104088006f0307006e8057009301070030498000d6
:1040980041498000404d8800514d8800b90907000a
:1040a8003049800041498000a64d8000b74d80000e
:1040b800844d8000954d80000001be005503070027
:1040c8006e80570084010700a40907005a0c0700f6
:1040d800a0002000304d880009003700104a8000f9
:1040e8000008a300060032000038a30002003200d6
:1040f8004269a9004289a80040002000304d88008c
:10410800304d80004f06be004f0578004f04be00ba
:104118000080fa0000000600d0498000e10f50003e
:1041280003003200e20f50000d003a00080037008b
:104138003809e20002003a0010002000c049880057
:104148000000eb00d0498800004a880004003700ce
:104158000000eb00c0498800d0498800004a880068
:10416800c0498000cf80de0061005000e080580028
:10417800e90f5000e08f5800cb003e0000600100be
:1041880009003700480037004e0037005700370055
:10419800760037007d00370084003700a50037001f
:1041a800ae003700bd00370010002000204d880009
:1041b800ac29ef00ae29ef0040418000514180005a
:1041c800804d8800914d8800224180003341800055
:1041d800a24d8800b34d8800f04280000068a3001b
:1041e80018003200312c2000914078008100d10065
:1041f800e18060004400de006140600080cf500034
:1042080008003a0003002c00534d8800a829ef004d
:1042180030002000004a880050002000c049880073
:10422800a100370000002400504d8800a829ef00a5
:1042380010002000004a880020002000c0498800a3
:1042480099003700212c200091407800c408de0036
:10425800e1806000f04280004500de0061406000bf
:1042680080cf500008003a0001002400514d88001a
:10427800a829ef0030002000004a880050002000e4
:10428800c04988008800370002002c00524d880081
:10429800a829ef0010002000004a88002000200014
:1042a800c049880080003700004a8000e20f5000b3
:1042b8007d003a0030002000204d8800c049880069
:1042c80079003700a609e20077003a00204d800007
:1042d800e10f500074003200dd0b0700f04c88003d
:1042e80040002000c04988006f003700d80b070045
:1042f800f14c80000100500001192000810f50008e
:104308006900360010002000204d88005ec8ab0010
:104318000400320003002c00534d8800a829ef0048
:104328000300370000002400504d8800a829ef0042
:10433800ac29ef00ae29ef004241800053418000d4
:10434800824d8800934d88002041800031418000d3
:10435800a04d8800b14d880030002000004a880038
:1043680050002000c04988004f003700004a8000f4
:10437800e40f50004c003a0030002000204d880027
:1043880060002000c049880047003700a609e20005
:1043980045003a00204d8000e10f500042003200f5
:1043a80070002000c04988003f003700100020003e
:1043b800204d8800ac29ef00ae29ef004241800073
:1043c80053418000824d8800934d88002041800031
:1043d80031418000a04d8800b14d88005ec8ab0017
:1043e80009003200704980008149800062418000e4
:1043f800734180000200500083805800404d8800bf
:10440800514d8800080037006041800071418000ec
:104418007249800083498000020040008380480080
:10442800404d8800514d880080002000c049880018
:104438001d003700a609e2001b003a00204d80004d
:10444800e10f500018003200810b0700f04c880083
:1044580090002000c0498800130037007c0b07003b
:10446800f14c80000100500001192000810f50001c
:104478000d0036006000b800d80807006000b800da
:10448800404d8800514d8800604d8800714d88006e
:10449800a0002000c0498800030037000000eb009e
:1044a800004a8800c0498800c1498000e04c80006b
:1044b800808f500031003200e14c8800e58f5000b9
:1044c8002600320007003c00e28f50000e00320048
:1044d800e38f50000f003200e18f500027003a00b0
:1044e80006003700e78f50000d0032001e0035002f
:1044f800ea8f500021003a001e00370030ef2800f4
:10450800390407001d003700c0ef280036040700f3
:104518001a00370070f0280033040700170037002e
:1045280030498000414980007249800083498000f9
:104538000200500083805800809fbe0043f128008d
:10454800831f7800809b200009050700809b2000be
:1045580025040700e68757000800370010f32800f5
:10456800210407000500370030f428001e04070066
:104578000200370070f528001b040700c0498000be
:1045880000000600000278004209e20051003500f0
:10459800d2c2bf000018a3004e003200d2c2bf0032
:1045a8000028a3004b003200f003200000a0b9004f
:1045b800f20d2000110009000200d800801f7800c9
:1045c80001007800cf0078000100e00001003d0004
:1045d8008100ea00f0072000808f500001003400bd
:1045e800800078008001eb0000832000908f50004d
:1045f800040035008301e80066004000e48f5100a4
:10460800faff3a000400e00001003d008301ea00df
:10461800004d8000808f51002e0032000098b900b4
:104628000000e00004003d0030002000204d88001c
:10463800a029ef00270037000300e00004003a003b
:1046480030002000204d880043c9a9002000370011
:104658000300e0000a00340000002400504d8800e8
:10466800a829ef006618b900c282200002004000a5
:104678001002be00a44d8800b54d88000a0037001e
:1046880005002c00554d8800a829ef00a0ff2f0039
:104698000098b900c2822000020040001002be004b
:1046a800a44d8800b54d880010002000204d8800da
:1046b800ac29ef00ae29ef00404080005140800057
:1046c800804d8800914d88004269a90043c9a8001f
:1046d800034d880000000600fe874700889fbe0043
:1046e8008a9fbe008c9fbe008e1f7800000778004e
:1046f800a0508000b1508000b0b79f00c1b79f00a4
:1047080045a320005503be004502be00f4af9f003c
:1047180085b79f0096b79f00a7b79f0050508000ad
:10472800e20f5000b3003200e30f5000b500320032
:10473800e10f5000b6003a0040508000e10f5000f1
:1047480048003a000252800013528000025188004b
:10475800135188004652800057528000e650880066
:10476800f75088006052800071528000c050880065
:10477800d15088002052800031528000020350003e
:10478800838358008650880097508800e00f5300b4
:10479800e08f5b00120034004fbade00cfa2de00cb
:1047a8000600be000401780084017800c111dd0014
:1047b8004f0ade00830172004109dd004f02de006e
:1047c80002017200c100dd000000eb00c5a220005c
:1047d800809abe008292be000c2aef0013003700b8
:1047e80060001300e0801b004f8ade00cfa2de00cd
:1047f8000401780084017800c111dd004f0bde0050
:10480800830173004109dd004f03de0002017300dc
:10481800c100dd000000eb00c7a22000809bbe00a5
:104828008293be001000200060508800142aef0018
:10483800162aef006000b8006011b80048a22000f6
:10484800009cbe000294be0044a32000009abe0053
:104858000292be000e2aef0020002000405088007f
:1048680062003700225280003352800000518000dd
:10487800115180000003510081835900865088003f
:10488800975088000c0ae200130032006000130001
:10489800e0801b004f8ade00cfa2de000401780012
:1048a80084017800c111dd00cf0ade008381720027
:1048b8004109dd00cf02de0002817200c100dd0087
:1048c8000000eb00b0af9f00c1af9f00d2af9f00c8
:1048d800e3af9f00110037004fbade00cfa2de0021
:1048e8000600be000401780084017800c111dd00d3
:1048f8004f0bde00830173004109dd004f03de002a
:1049080002017300c100dd000000eb00b0af9f00a2
:10491800c1af9f00d2af9f00e3af9f0047a2200026
:104928003704be002705be003fa89700cfa8970010
:104938005fa99700efa997000804500089845800e0
:104948000a0559008b855900ac508000bd50800085
:104958004feade00cfa2de000c00be0004017800a2
:104968008401780045a320005503be004502be001f
:104978000000420081804a0002014b0083814b0005
:104988000040e10001c8e10002d0e10003d8e100e5
:10499800120034003fa89700cfa897005fa997009e
:1049a800efa99700c4a22000009abe000292be00a0
:1049b8006052800071528000c0508800d150880039
:1049c800220020008c0f50008d8f580001003c0001
:1049d800020420004250880004003700000820002c
:1049e8007050880000012000405088000a2aef001b
:1049f8000700370000012000405088000a2aef0015
:104a08000300370000022000405088000a2aef0007
:104a180041508000f08f50007b00320005003c00c0
:104a2800e28f50000a003200e88f5000a1003a00df
:104a38002d00370000022000808f50008b003200cc
:104a480000042000808f50009a003a004800370088
:104a5800e0508000f1508000a6508000b7508000e0
:104a68000601400087814800a2508800b3508800a2
:104a7800c0508000d1508000800f5100818f5900b4
:104a8800070034003fb09700cfb09700a0508800cf
:104a9800b150880040002000405088008500370051
:104aa80048a320003fb29700cfb29700040041000e
:104ab800858049004f8ade00cfa2de00040178001d
:104ac800840178003802be002803be0000004200be
:104ad80081804a0002014b0083814b00009cbe008c
:104ae8000294be0073003700a2508000b3508000cb
:104af800e0508000f1508000000051008180590092
:104b0800a0508800b1508800e00f5000e08f580096
:104b180005003d00142aef00162aef0010002000bf
:104b2800405088006300370048a320003fb3970037
:104b3800cfb3970006004000878048004f8ade0008
:104b4800cfa2de0004017800840178003802be009c
:104b58002803be000002520081825a0002035b0053
:104b680083835b00049cbe000694be00510037009e
:104b7800a0508000b1508000e2508000f3508000c7
:104b88000201500083815800a2508800b350880069
:104b9800c0508000d1508000800f5100818f590093
:104ba80007003d003fb09700cfb09700a0508800a5
:104bb800b150880040002000405088003d00370078
:104bc80048a320003fb29700cfb2970004004100ed
:104bd800858049004f8ade00cfa2de0004017800fc
:104be800840178003802be002803be00000252008b
:104bf80081825a0002035b0083835b00049cbe0031
:104c08000694be002b003700a4508000b5508000e9
:104c18004fabde00cfb3de000400be000601780013
:104c28008601780048a220003802be002803be0092
:104c38000000420081804a0002014b0083814b0042
:104c480048a320003802be002803be00000042002e
:104c580081804a0002014b0083814b00c4a22000de
:104c6800009abe000292be00120037006000b80031
:104c7800a0508800b150880044a220005403be0010
:104c88004402be00c8a22000049cbe000694be00d8
:104c98006022b8006033b80048a32000049cbe001e
:104ca8000694be001200200042508800b0b79f0052
:104cb800c1b79f004ca22000a0508000b1508000d6
:104cc8003fb19700cfb197000200400083804800b1
:104cd8004f8ade00cfa2de0004017800840178004c
:104ce8003c02be002c03be000000420081804a0046
:104cf80002014b0083814b00009ebe000296be005d
:104d0800c4a220003404be002405be0000005400e4
:104d180081805c0002015d0083815d004da320005d
:104d28003d02be002d03be000400e1000588e1003d
:104d38000690e1000798e10012003d003fb397009c
:104d4800cfb39700a6508800b75088007faa970075
:104d58008fb297001fb39700afb3970004005400b9
:104d680085805c0006015d0087815d00009ebe00b5
:104d78000296be00849ebe008696be00800020007b
:104d88004050880045a220003500be002501be0025
:104d98004108de004f13dd0000007300c110de0083
:104da8004f1bdd00810073000001be000c0ae20009
:104db80007003200005180001151800002005000ad
:104dc80083805800e0518800f151880006003700c0
:104dd800005180001151800002004000838048008b
:104de800e0518800f1518800e0518000f1518000c5
:104df800008fbe00405080000e0ab7004f077800b1
:104e08004f06be004f05be004f04be00ef01b100c3
:104e180000000600005288001152880022528800c3
:104e280033528800445288005552880066528800e0
:104e380077528800100020005050880000000600bb
:104e4800e10f500003003a00200020005050880075
:104e58000200370030002000505088000000060093
:104e6800889fbe00000478005f08a8005f28a8009b
:104e78005f48a8005f68a8000200200003002c001b
:104e880022408800334088000000200001002400f0
:104e98000040880011408800a0428800b142880084
:104ea800c2428800d342880011002000e1428800f5
:104eb8005e08a8005e28a8005e48a8005e68a800f2
:104ec8005e88a8005ea8a800400120004042880033
:104ed800804188007e004000b04188007e0040008c
:104ee800e041880074004000104288005142880068
:104ef8002000200080408800f04088000001200049
:104f0800404188002a28ef006140b9006200500043
:104f1800e0805800e90f5000e08f58003c003e0048
:104f280000600100090037000d003700110037004c
:104f380015003700180037001c0037002000370024
:104f480024003700280037002c0037000200240016
:104f58000240880022002000124088003c003700f0
:104f68000400280004408800440020001440880001
:104f7800370037000600260006408800960020000b
:104f88001640880032003700990020001940880038
:104f98000028ef005d003700f0b7280000408800c7
:104fa800a00020001040880088003700026021001f
:104fb80002408800d200200012408800b00037006c
:104fc80004c0220004408800a40120001440880086
:104fd800ab0037000660210006408800d60020009c
:104fe80016408800d3003700098024000940880053
:104ff8006900200019408800ce00370000402200d8
:10500800004088003000200010408800c9003700a8
:1050180002002400124088000028ef00e60f540028
:105028006a00320005003c00e20f5400ee00350033
:10503800e40f54000600340034003700e80f540031
:105048008f003400eb0f5400e7003c00b900370034
:10505800500920000100200040408800514088008d
:10506800d2872000530020006240880073408800e7
:10507800d41b2300244188004400200034418800c8
:10508800040026000500200064418800754188005e
:1050980096992000964088001428ef00b0408800b8
:1050a800c1408800d2408800e3408800590f2000a2
:1050b800094188002228ef00f0d72a009041880093
:1050c80010002000a0418800e6af2500c6418800f6
:1050d80036002000d6418800f2418800034288004b
:1050e800c95f2b00294288006900200039428800e6
:1050f800644288007542880000002e0080428800c3
:105108001000200090428800e60037003206200098
:10511800424088000a28ef00249527006440880050
:10512800440020007440880096ca2300270020000d
:1051380026418800374188007214200003002000af
:1051480062418800734188006466200005002000e1
:1051580094408800a5408800a9042000b940880030
:105168001828ef00e0af250031002000d04088006b
:10517800e1408800024188001341880042e521008f
:105188009241880012002000a2418800c641880090
:10519800d7418800f041880001428800767a2900ca
:1051a8002642880056002000364288006442880063
:1051b8007542880009002200894288005228ef00c1
:1051c8005e08a9005e28a900b60037002009200063
:1051d800404088000a28ef0050bc280061002000e9
:1051e8006040880071408800204188003141880073
:1051f800e2df2100624188002e28ef00e4572200f8
:10520800944088001428ef00b60d2000b6408800ae
:105218001828ef00791a2d00d9408800990020003d
:10522800e9408800f2772000024188002228ef0038
:1052380034792a00944188003428ef00c04188005e
:10524800d1418800a0782100d1002000f0418800d9
:10525800014288002042880031428800c6af2400fd
:10526800664288004e28ef00895f2900894288003d
:105278005228ef005e08a9005e28a90089003700bf
:105288008218200003002000424088005340880014
:10529800200e2c0001022000604088007140880028
:1052a800a4292b00b500200024418800354188003e
:1052b80006602800070020006641880077418800c2
:1052c80009302400994088001428ef00b240880073
:1052d800c3408800d0408800e1408800326b20003d
:1052e800024188002228ef00d9942d0099418800b6
:1052f80059002000a9418800c4418800d541880090
:1053080042532600f24188007201200002428800c0
:10531800204288003142880066428800774288002f
:1053280004e0290084428800240020009442880078
:105338005c00370086182000464088000a28ef00e5
:10534800240e2c0005022000644088007540880067
:10535800a2292b00b3002000224188003341880095
:1053680039832200694188002e28ef0060d620008a
:10537800904088001428ef00a6202000b64088003e
:105388001828ef004053260071012000d040880003
:10539800e140880099352000094188002228ef0063
:1053a800d6942d009641880056002000a64188001a
:1053b800c2418800d3418800f0418800014288003a
:1053c8002442880035428800096028006942880024
:1053d8004e28ef0000e029008042880020002000cd
:1053e800904288002f00370050092000010020005b
:1053f8004040880051408800d28720005300200098
:105408006240880073408800d41b23002441880030
:1054180044002000344188000400260005002000d4
:10542800644188007541880096992000964088005c
:105438001428ef00b0408800c1408800d24088009e
:10544800e3408800590f2000094188002228ef0016
:10545800f0d72a009041880010002000a041880061
:10546800e6af2500c641880036002000d6418800f6
:10547800f241880003428800c95f2b002942880056
:10548800690020003942880064428800754288001b
:1054980000002e0080428800100020009042880002
:1054a8005e08a900b834ef00e60f54001600320079
:1054b80003003c00e50f540003003a000a003700df
:1054c800e80f540019003400301b200080a5880024
:1054d800310c200091a58800103e2000a0a588006e
:1054e800b1a58800180037002035200080a5880065
:1054f8002103200091a5880000aa2000a0a588000b
:10550800b1a58800100037002035200080a588004c
:105518006009200090a5880000aa2000a0a58800a6
:1055280020032000b0a588000700370010332000b2
:1055380080a588003103200091a5880000aa2000da
:10554800a0a58800b1a588004f04be000000060091
:10555800889fbe008a9fbe008c1f78008005780057
:10556800010678000005eb000a06070080047800b1
:10557800e14f4000fcff3200ea4f500014003200b7
:10558800ed4f500012003200e84f50000a003a0078
:105598000a00e000f4ff32001106070000c2b30061
:1055a8000f060700094078000d0607000a05e90004
:1055b8008b05e900ecff37008c0f5500eaff31003e
:1055c80007060700895d78000a05e800e6ff37004e
:1055d800804deb000a0078004f0678004f05be00aa
:1055e8004f04be0000000600881f78000004780001
:1055f800104078000004e00004003200f8050700bd
:10560800584078000004e000fcff3a004f0478009e
:10561800000006000c00fa00889fbe008a9fbe00aa
:10562800800578000100e00008003200e00f51001a
:10563800e08f590005003d0060041100e084190066
:10564800d0c2b300805d7800010037000204be00bc
:105658000005eb00a2002000030020000800be00a7
:10566800aff007000043b000f480570080707d0061
:105678000a05e800a2002000030020000800be0080
:10568800aaf007000004be00e00f5000e08f5800a9
:1056980006003200efff3700a25878000a80450064
:1056a800810f50000a003200fbff37000a00e000bb
:1056b80002003c008b007800050037000a00e90072
:1056c800f4805700008140008b007800f2ff37001b
:1056d800010078004f05be004f04be000080fa00ac
:1056e800000006000c00fa00881f7800800278008d
:1056f8000002eb00060129006f00610060447b0096
:10570800ee83570088737a000402e8004c18dd0025
:105718004411de0002017000c499de008100e90036
:105728004240a90006003400f3ff3700a258780071
:1057380004804200808f50000a003200fbff3700cf
:105748000400e00002003c008500780005003700f6
:105758000400e900ee8057000081400085007800d1
:10576800f2ff3700010078004f0478000080fa004b
:1057780000000600889fbe008a1f78000005780098
:1057880082047800114178000204e00002003a0027
:1057980000027800710037000002780050c2b300a0
:1057a800804f510003003200025a7800010478004b
:1057b800660037000104e80018417800c0c6b3004d
:1057c800804f51003f0032000a003c006940500001
:1057d800804f5100110032000040e800804f510016
:1057e8001a0032006c405000804f510056003a00b9
:1057f8002400370050c7b300804f51001a00320010
:1058080063404000804f5100250032006540500041
:10581800804f51004c003a00030037008984e900aa
:10582800195a780049003700c900780011407800fb
:105838000004e00045003200005a7800514078002a
:105848000004e00041003200fbff37004901780006
:10585800cf91de0011002000040078006dff0700e2
:105868000002780039003700490178000300200061
:105878008000eb000400780066ff07000002780053
:105888003200370049017800cf91de004100200046
:105898000400780093ff0700000278002b0037000f
:1058a8008984e900194178000281fb000300200087
:1058b80021002000040078008aff07000002780019
:1058c800220037004901be000184e80098407800b2
:1058d80040c6b30080cf50000c00320004003c00ea
:1058e8006c40500080cf500018003a00110037007b
:1058f80050c7b30080cf5000090032006340400019
:1059080080cf500011003a000a0037001100200033
:10591800040078003fff0700000278000b00370002
:105928008000eb00040078003aff070000027800ce
:1059380006003700810020000400780069ff070096
:105948000002780001003700025a78008800e80059
:10595800114178000204e00090ff3a00005aeb0081
:105968000a0052004f0578004f04be0000000600f0
:105978000000fa00cfb89700688157007dff070044
:105988000080fa0000000600889fbe008a9fbe00c3
:1059980000057800900278008005eb00d0c2b300c3
:1059a800954f100002003a008502e8001b00200015
:1059b8001542780000cdb300004042006033b800c3
:1059c800e94f500012003e006033b8001800200074
:1059d80009fd2f006a31b8006a38b9008301400018
:1059e8000400fb0009004000cf80de0002034000f5
:1059f800838348005542780009404200e94f50002f
:105a080003003e000804e800ec0f5400f1ff3a00e0
:105a1800050d78000b00e00002003200600313005f
:105a2800e0831b000600be004f05be004f04be0009
:105a3800000006000200fa00889fbe008a9fbe0090
:105a480082057800b0bf9f001104e0003e003a00d4
:105a58003b0037008301e800b3bf9f001341780083
:105a680000cdb30000404100e94f50000600360069
:105a78000204e0003e003200d0c2b300804f510063
:105a880003003200f3ff37000204e0003800320060
:105a980050c2b300914f1000020032008104780018
:105aa8001a0037008104e80019417800c0c6b30025
:105ab800804f51000c00320069404000804f510077
:105ac8000300320071405000804f51000f003a002f
:105ad8004b0478006a805700abff0700000c780081
:105ae8000a05e800090037008184e80040c6b300d1
:105af800994f100005003a004b0478006a8057005f
:105b0800a1ff0700008cbe000a05e8008900e80034
:105b18001104e000160032003fb897001004e000be
:105b280013003200bfb997001341780000cdb300cd
:105b380000404100e94f5000d3ff3600060037000f
:105b48000005eb000a0037000005eb001004e00038
:105b5800f4ff3a00faff37000204e00004003200c4
:105b6800d0c2b300804f5100baff3a00c8ff3700d7
:105b78000a0078004f05be004f04be000080fa00fe
:105b8800000006000000fa00cfb8970068815700af
:105b9800a8ff07000080fa0000000600881f7800b0
:105ba800200020001c0607000004780010002000d8
:105bb80019060700411f20000142b8006101b80022
:105bc8000400be0059ef0700800078001200200092
:105bd800f90f500029003600220020007004200030
:105be800808f500025003600320020007009200008
:105bf800808f5000210036004200200090102000c5
:105c0800808f50001d0036005200200070162000c2
:105c1800808f50001900360062002000101c200000
:105c2800808f5000150036007200200020222000ce
:105c3800808f5000110036008200200000282000cc
:105c4800808f50000d00360092002000602e20004a
:105c5800808f500009003600a20020004035200047
:105c6800808f500005003600b2002000a03b2000c5
:105c7800808f500001003600c2002000020078002a
:105c88004f0478000000060051538000e38f500055
:105c980004003200e28f5000010032006c2aef004d
:105ca800505388000000060050538000e10f500058
:105cb8003300320003003c000000e00032003200f4
:105cc80032003700e20f500003003200e30f5000ab
:105cd8002e003a00110037006c0aec00605388006f
:105ce800e50f500029003a00c4c2bf000080fb0045
:105cf8004700de000004a2004700dd00412c200020
:105d0800914078000174a10080c070000100780003
:105d1800c4e2b7006c2aef001c0037006353800010
:105d280052002000110009008201d800010078000b
:105d38000000e0000b003a00c4c2bf000080fb0076
:105d48004700de000004a2004700dd00412c2000cf
:105d5800914078000174a10080c0700001007800b3
:105d6800c4e2b7008300e8006153880020032000e4
:105d7800808f500005003a006a2aef0003003700c0
:105d8800c4e2a90001003700c4e2a8000000060030
:105d9800212d200091407800c208de00e1806000db
:105da800e2ff2f0010a580000200600001007000d3
:105db80010a58800212d2000914078008100d10095
:105dc800e180600040a580000200600001007000d2
:105dd80040a58800624a2100244a2100434a210044
:105de8000003eb00840078000609780014007800ae
:105df8000008a3000b003a001500200005097800f0
:105e080094037800628063000400320030002000b0
:105e180000097800850978000e0037009309e8002a
:105e28000c0037000018a300020032008609780031
:105e38000800370040012000930f100003003400d1
:105e48008000200000097800020037004000200090
:105e5800000978009142780061c06200610060002a
:105e6800000040001110a100910870006601410077
:105e780066024200e6814100204b2100820f50005b
:105e8800d8ff3a00804a210000a5880060a580005c
:105e98004400dd00a614b7000000060000017800e9
:105ea800f80f50001f0032000d003c00e40f5000b6
:105eb8002900320005003c00e10f5000b300320019
:105ec800e30f5000c3003a006e003700e80f50009f
:105ed80054003200f00f5000be003a00ab0037000b
:105ee80000082000800f51004e00320007003c00df
:105ef80000032000800f5100620032007000400053
:105f0800800f5100b3003a0013003700100820003a
:105f1800800f51000300320067004000800f5100dd
:105f2800ac003a0070a58000e10f500002003a0072
:105f3800ae34ef00a70037004309ab00a5003200dc
:105f480042c9a90010002000d049880042a9a90030
:105f580070a588009f00370070a58000e10f5000f1
:105f680002003a00ae34ef009a0037003809e20028
:105f78000500340030002000204d8800200020005b
:105f8800d04988009300370050428000e20f50004b
:105f980090003a004349ab00030032003000200073
:105fa800204d88008b00370010002000204d88000d
:105fb800e40f510003003a006242800073428000ff
:105fc800020037008242800093428000424d8800e0
:105fd800534d88006022b800304980004149800054
:105fe800800f5100818f590002003d00044180005c
:105ff80015418000644d8800754d88004040800040
:1060080051408000804d8800914d8800624080009a
:1060180073408000a24d8800b34d88004269a900f2
:106028006c00370070a58000e10f500002003a00b4
:10603800ae34ef006700370050428000e20f500096
:1060480064003a00e80f510005003a00304980002a
:10605800414980006042880071428800040037008e
:106068003249800043498000824288009342880078
:106078005f28ab00570032003000200002ff070005
:1060880054003700810cb00000192000808f5000a8
:1060980050003e003809e2000700340030002000bc
:1060a800204d880020002000d049880010002000e2
:1060b80070a588004700370050428000e10f50006b
:1060c80044003a004329ab0042003a004329a800a3
:1060d8004269a900e30f510010003a009040800087
:1060e800a1408000324980004349800002004000fe
:1060f80083804800404d8800514d88000240800050
:1061080013408000820f5000838f58001200340023
:10611800424d8800534d88000f00370030498000f9
:106128004149800092408000a34080000200500056
:1061380083805800404d8800514d880022408000df
:1061480033408000820f5000838f580002003d00ca
:10615800424d8800534d880010002000204d8800d3
:10616800ac29ef00ae29ef00b0408000c1408000ac
:10617800804d8800914d8800d2408000e340800027
:10618800a24d8800b34d880012003700800c200013
:10619800808f500007003400200020005042880003
:1061a8001000200070a5880030002000b6fe07000f
:1061b8000800370080f32f00808f500005003d0055
:1061c800100020005042880070a588003000200090
:1061d800adfe0700000006000000fa00881f7800e6
:1061e800a0cb280000fd0700a00020001a0407002b
:1061f800003a8000801f780001ce2800811f7800b7
:10620800208d2000dafd0700208d2000f6fc070015
:10621800a000200010040700e487570050cf280092
:106228004409ab0001003a00b0cf2800801f780075
:1062380030d02800801f7800208d2000ccfd07007a
:10624800208d2000e8fc0700a000200002040700c1
:1062580020002000700407000004780010002000cf
:106268006d04070080007800001321000008b800c2
:106278000801e800801f7800110009004288d80052
:10628800800078004f00780080762f00809f4000c3
:106298003e09f80001d12800811f7800208d2000d8
:1062a800b3fd0700208d2000cffc0700200320004d
:1062b800e90307000043800011438000809fbe006f
:1062c80091d22800811f7800208d2000a8fd0700aa
:1062d800208d2000c4fc0700a0002000de0307007a
:1062e800b814f800b614f800b414f800b214f800a2
:1062f800b014f80040d32800801f7800208d2000bb
:106308009bfd0700208d2000b7fc0700a00020009f
:10631800d10307000041800011418000809fbe002a
:106328004040800051408000809fbe006040800057
:1063380071408000809fbe0071d62800811f7800c0
:10634800208d20008afd070060fd2f008087470010
:10635800208d2000a4fc0700a0002000be03070039
:106368005c08f800a0428000b1428000809fbe0017
:10637800c0428000d1428000809fbe0031d92800f1
:10638800811f7800208d200079fd0700208d2000d6
:1063980095fc0700a0002000af0307009040800094
:1063a800a1408000809fbe00b0408000c1408000b6
:1063b800809fbe00d0408000e1408000809fbe00ea
:1063c800d1db2800811f7800208d200068fd0700a0
:1063d800208d200084fc0700a00020009e030700f9
:1063e8001e08f8001008f80060de2800801f7800fa
:1063f800208d20005efd070000fe2f0080874700eb
:10640800208d200078fc0700a000200092030700e0
:106418006041800071418000809fbe002041800063
:1064280031418000809fbe0041e02800811f780034
:10643800208d20004efd0700208d20006afc0700fb
:10644800a000200084030700f0428000ea8757007c
:10645800620420000078a30001003a002205200011
:10646800610420000068a30001003a002105200013
:10647800821f7800811f780020e22800801f7800a2
:10648800208d20003afd0700208d200056fc0700d3
:10649800a000200070030700804280009142800025
:1064a800809fbe006042800071428000809fbe00d5
:1064b8004a08f80091e32800811f7800208d200009
:1064c8002bfd0700208d200047fc0700a0002000be
:1064d8006103070090418000a1418000809fbe00b9
:1064e8003008f80071e62800811f7800208d200010
:1064f8001ffd0700208d20003bfc0700a0002000a6
:1065080055030700c0418000d1418000809fbe0034
:106518003608f80011e82800811f7800208d200037
:1065280013fd0700e0fd2f0080874700208d200025
:106538002dfc0700a000200047030700f041800061
:1065480001428000809fbe003c08f80051e9280005
:10655800811f7800208d200005fd0700208d200078
:1065680021fc0700a00020003b0307002042800018
:1065780031428000809fbe004208f80091ea28005e
:10658800811f7800208d2000f9fc0700208d200055
:1065980015fc0700a00020002f030700d0eb2800ff
:1065a80011fc0700f08757004f0478000080fa00bc
:1065b80000000600881f78000001be00f8ff2700d1
:1065c800f0ff2700800f5100e08f590007003c00c2
:1065d8000800280000002800f1ff2f00800f51005c
:1065e800818f590001003500020478006142b9002a
:1065f80060a4800071a480000401400085814800e7
:1066080062a4880073a48800b0a58000cf80de0053
:10661800c808dd000080fd00804078000040eb00e5
:10662800800f5100818f59000300340060a4880056
:1066380071a488000700370060001000e08018008f
:10664800800f5100818f590002003d0060a488002e
:1066580071a4880060a4800071a480004809dd004e
:106668004800de0000007100c888de0092a58000a6
:106678000283b900a1a480000100e800a0a488005a
:10668800c0a58000808f5000160035009434ef00bc
:1066980080a48000cf80de000001520081815a0072
:1066a80000002800f1ff2f00800f5100818f590052
:1066b80003003d000000280090a48800080037006f
:1066c800f0ff2700800f5100e08f590003003400cd
:1066d800f0ff270090a488000100370092a48800ea
:1066e80088a4880080a5800000c2b90092a4800018
:1066f800e10f510005003200e10f410003003200b4
:10670800a0a580000091b900010037006011b80011
:106718000600420087804a00020140008381480049
:10672800f4ff2700f0ff2700800f5100e08f590089
:1067380007003c000400280000002800f1ff2f009b
:10674800800f5100818f5900010035000202780046
:10675800040078004f047800000006008c34ef0035
:106768008e34ef001000fc00c0c0bf000044a10040
:106778000046b300c0e0b7008b20a9009b20a8000a
:10678800000006009b20a900c0c0bf00f1c8b300ec
:1067980001406000c0e0b7008b20a9008c34ef00f6
:1067a8008e34ef00000006009b20a900d0a48000d2
:1067b800e1a480005049880061498800b0a48000a5
:1067c800c1a4800030498800414988009b20a80066
:1067d800f1a48000b1498800000006000400fa0016
:1067e800e0bf9f00f1bf9f00e6ff07006fb897006a
:1067f800ffb897003049880041498800b0a4880054
:10680800c1a488006033b8000602be000001be00c3
:1068180080f9070064805700aff7070020002000c8
:1068280087f9070064805700abf70700cbff070024
:106838000080fa0000000600004a8000e30f5000c4
:106848001b003a00f04280000078a30009003200e3
:10685800312c2000914078008100d100e180600057
:106868004400de006140600080cf50000a003a001a
:106878000f003700212c200091407800c408de006a
:10688800e1806000f04280004500de006140600069
:1068980080cf500006003200b0a48000c1a4800060
:1068a800704988008149880040002000004a88001b
:1068b80000000600889fbe002200f8002400f800af
:1068c8002600f800d402a8008b20a90002030700c4
:1068d800f0a488006101b900b0a48000c1a48000c0
:1068e8000200400083804800b0a48800c1a488004a
:1068f800a049210078f7070080047800d0a4800020
:10690800e1a48000b2a48000c3a48000020050006b
:106918008380580027ff0700000478007453800024
:10692800800278001301c0000000cd003e0207007d
:10693800a8498800994988000908a3000100320085
:106948004209a800bcff0700d402a9002600f900ec
:106958002400f9002200f9004f04be0000000600e0
:106968000001be0031e2a9004218dd00ce11de00b0
:10697800830170004211dd00000024009111200005
:10698800eaeb07000000e9000000d100c011880010
:1069980087e0a90097e0a9008010280080118800ee
:1069a800004020009011880087c0a9000000240042
:1069b800c01c8800f00f2000101d8800e001200096
:1069c800d01c880060232000001d880000302000b3
:1069d800e01c8800e01c8000d052880010002600cf
:1069e800801d8800f0012000901d880040232000b1
:1069f800c01d880000202000a01d8800ba23ef00d9
:106a080089c0a90099e3a80000000600d2528000be
:106a1800e01c80000082eb00800f51000c00320067
:106a2800033020008300510000702100614078008d
:106a38000082fb008200e800d1528800001020008c
:106a480003004000808f500001003a00d3528800b4
:106a58000400780000000600889fbe00804478008b
:106a6800e2528000d01d800000004100e10f2000ac
:106a7800810f50000700360001047800120007005b
:106a8800e252800002007800ba03b400880f500078
:106a9800faff3e00f05280000160210009f0780002
:106aa8000000e800f052880001102000810f50001b
:106ab80001003a005e2aef000200e800e052880078
:106ac8004f04be00000006005c0ae2001b00340010
:106ad800b143e2001900350033c2bf000008a3002b
:106ae80016003200035380000020200003004000fd
:106af800a01d88000010200083005000e252800092
:106b0800828f500006003c000100e900d01d88007b
:106b1800602aef0001005100e052880005003700ac
:106b28000200e900d01d880002804100005388005f
:106b38005c2aef00b1e3a800b3e3a8000000060058
:106b4800889fbe008a9fbe008c1f780001047800d1
:106b58008204780083057800000578008280400070
:106b6800f07f2000808f500021003e00d522a90030
:106b780030c0b300400207004840de003e02070074
:106b8800084078003c0207001c0020000900e000d3
:106b9800130032000004eb001c0020000040eb0052
:106ba800350207000b00e00002003a00005d7800a3
:106bb800080037000c00e00004003200ba4f500013
:106bc80002003a0010002000010037000000eb002e
:106bd800000678000804e800888f5400efff3a00a8
:106be800d522a8000000eb00e10f5600010032009a
:106bf800100020004f0678004f05be004f04be006d
:106c080000000600889fbe008a9fbe008c9fbe00c1
:106c18008e1f780080017800810578008286400008
:106c280011002000f07f2000808f560034003e00c5
:106c380002003700210020003100370003077800e8
:106c48008d8f55002c0031000b0578000006eb00f5
:106c58007f0465008b0f5500020032000800e00039
:106c68000b003a00d522a90060c0b3000202070059
:106c7800d522a800d522a90020c0b300fe01070034
:106c88004850de00fc0107000b404600fa010700ef
:106c98003e407800f8010700ff0f5400030032005f
:106ca8000d00e900800f55000e003a00d522a8001b
:106cb8000004eb00a93e2000d522a90050c0b30073
:106cc800ed0107000040eb00eb010700d522a8000a
:106cd8000804e800890f5400d6ff32000008a3001a
:106ce800f5ff3a000a05e8000c06e8000b8056009c
:106cf800800f5600d6ff3a00d522a80011002000c8
:106d0800010078004f0778004f06be004f05be000f
:106d18004f04be000000060021e2a9003001200057
:106d2800401188008580a9009580a90080802800ee
:106d38000011880000402000101188008560a9001b
:106d480000002400601c8800f0072000b01c8800a8
:106d5800b0002000701c880060222000a01c880061
:106d6800c00b2000801c8800801c80001053880005
:106d780010002600201d8800c0002000301d88005b
:106d880040222000601d88008880a9008de3a800ab
:106d98000000060012538000801c80000082eb0077
:106da800800f51000c003200c30b200083005100fb
:106db800c04b2100614078000082fb008200e8009f
:106dc800115388000008200003004000808f500005
:106dd80001003a0013538800040078000000060000
:106de80000417800235380008080eb00300c2000a5
:106df800808f510028003c0030538000c15321008f
:106e080002f078000000e80030538800410c2000b0
:106e1800810f500001003a00662aef000301e800e4
:106e280022538800a543e2001a00350023c2bf00a0
:106e38000008a3001700320043538000c01320004d
