:020000040800F2
:10000000B811002069020008870200088902000870
:100010008B0200088D0200088F020008000000001B
:100020000000000000000000000000009102000835
:1000300093020008000000009502000897020008E3
:100040009902000899020008990200089902000824
:100050009902000899020008990200089902000814
:100060009902000899020008990200089902000804
:1000700099020008990200089902000899020008F4
:100080009902000899020008990200080000000087
:1000900000000000000000000000000099020008BD
:1000A00099020008990200089902000899020008C4
:1000B00099020008990200089902000899020008B4
:1000C00099020008990200089902000899020008A4
:1000D0009902000899020008990200089902000894
:1000E0009902000899020008990200080000000027
:1000F0000000000000000000000000000000000000
:1001000000000000000000000000000000000000EF
:100110000000000000000000990200089902000899
:1001200000F002F800F090F80AA090E8000C824479
:100130008344AAF10107DA4501D100F085F8AFF256
:10014000090EBAE80F0013F0010F18BFFB1A43F0B5
:1001500001031847F036000010370000103A24BFA2
:1001600078C878C1FAD8520724BF30C830C144BF1C
:1001700004680C607047000000230024002500265E
:10018000103A28BF78C1FBD8520728BF30C148BFFA
:100190000B6070476E2901F0FF87702901F08E8592
:1001A000662903F0E182652903F0DE82672903F006
:1001B000DB826129AFF3008003681B0A28BF41F08E
:1001C0008001692901F0AC87642901F0A9877529AC
:1001D00001F0A6876F2902F0D380782901F05A85B3
:1001E000E92902F06B80E42902F06880F52902F029
:1001F0006580EF2902F0D080F82901F05985036865
:10020000DB0928BF41F08001632902F07B83732959
:1002100002F08083E32902F08B83F32902F09083BC
:10022000002070471FB502F095FD0400002000215A
:1002300003F084FA401C60600020002103F068FA9B
:10024000E0601FBD10B510BD02F056FD1146FFF76E
:10025000E9FF00F063F902F033FE03B4FFF7F2FFA9
:1002600003BC02F077FE00000F48104902680060EE
:100270008A4203D00E4880470E4800470E48D0F807
:1002800000D040680047FEE7FEE7FEE7FEE7FEE736
:10029000FEE7FEE7FEE7FEE7FEE700000748084945
:1002A000084A094B70470000F01F0020EFBEADDE8A
:1002B000870300082101000800F0FF1FB80B002091
:1002C000B8110020B80D0020B80D0020002000213A
:1002D0003C4A126842F480323A4B1A6000BF394AF5
:1002E000126802F40031401C11B9B0F5A06FF6D1CC
:1002F000344A126812F4003F40D0334A126842F088
:100300001002314B1A601A46126822F003021A607A
:100310001A4612681A602B4A52682A4B5A601A46CB
:1003200052685A601A4652685A601A46526822F455
:100330007C125A601A46526842F498125A601A4661
:10034000126842F080721A6000E000BF1D4A126815
:1003500012F0007FF9D01B4A526822F00302194BB9
:100360005A601A46526842F002025A6000E000BF2A
:10037000144A526802F00C02082AF8D1704710B5EE
:10038000FFF7A4FF10BD10B50E48006840F0010053
:100390000C490860084600680C4908400949086093
:1003A0000846006820F4802008600846406820F471
:1003B000FE0048604FF41F0088600020C862FFF70D
:1003C000DEFF10BD0010024000200240FFFFF6FEDD
:1003D0000FB438B505A800903D48009A049900680C
:1003E00001F0D8FB04460020009000E000BF01F0BF
:1003F000B3FB0028FAD021463548006801F091FB94
:10040000334800683349884202D101F1800000E09E
:1004100030482F490860204638BC5DF814FB2DE9B0
:10042000F04104460F460025A84600BF01F05EFBE0
:100430000646A0F57F41FF3925D0082E04D00A2EAC
:1004400013D00D2E14D10FE06DB1082122A0FFF7BB
:10045000BFFF202120A0FFF7BBFF08211EA0FFF750
:10046000B7FF6D1E641E0DE000BF4FF0010809E0EC
:10047000BD4206D2314618A0FFF7AAFF04F8016B6F
:100480006D1C00BF00BFB8F1010FCFD1002004F8F0
:10049000010B2846BDE8F08170B505460E460FA059
:1004A000FFF796FF00240FE0295D0DA0FFF790FFF6
:1004B000E11704EB11710911A4EB01110F2902D10D
:1004C00006A0FFF785FF641CB442EDDB70BD0000A1
:1004D000040000207C000020256300000D0A0000BD
:1004E000253032582000000010B57BA0FFF770FFC8
:1004F0007DA0FFF76DFF82A0FFF76AFF86A0FFF7E0
:1005000067FF8AA0FFF764FF8EA0FFF761FF93A04B
:10051000FFF75EFF97A0FFF75BFF10BD08B500F087
:10052000B7FD01F05FFA01F08DF901F0C7F901F0B4
:100530000EFA01F0B7F900F0FDFE00F019FE4FF4DD
:10054000FA71084601F0F8F94FF4FA7001F09CF9DD
:1005500000214FF4FA7001F0EFF987A0FFF738FFA0
:1005600000F0E8FF84B2A4F510501F3801D191A02B
:1005700000E091A00246214691A0FFF729FF96A036
:10058000FFF726FF00F08FFA04460CB989A100E0BE
:1005900097A10846FFF71CFFFFF7A6FF8BE096A088
:1005A000FFF716FF13219648FFF739FF94480578A7
:1005B000702D4FD006DC622D09D0632D3CD0662D06
:1005C00075D16CE0722D26D0782D70D111E08DA000
:1005D000FFF7FEFE642001F057F972B690484069BB
:1005E00020F001008E4948618E488F49086000F074
:1005F00063F88EA0FFF7ECFE642001F045F972B6B7
:100600008748406920F001008549486100208649FB
:10061000086000F051F88CA0FFF7DAFE132178484B
:10062000FFF7FDFE6A468EA1754801F019FC002017
:10063000009900F0E5F93DE08AA0FFF7C9FE00F05F
:1006400032FA04460CB95BA100E069A10846FFF745
:10065000BFFE2FE089A0FFF7BBFEFA21480001F0A2
:100660006BF900F03AFC04466CB900F0EDFC06466C
:100670003246314687A0FFF7ABFE00214FF4FA70F7
:1006800001F05AF90AE021468AA0FFF7A1FE3221C3
:10069000642001F051F900E000BFFDE70AE08BA300
:1006A0008DA290A191A0FFF793FE03E0FFE7FFF773
:1006B0001BFF00BF00BF72E7BFF34F8F9348006876
:1006C00000F4E06092490843001D90490860BFF3C0
:1006D0004F8F00BFFEE700000D0A0A4F7074696F6C
:1006E0006E733A0A000000000D0A286329202D20AD
:1006F000436F6E666967757265204650474100001A
:100700000D0A287029202D2050726F6772616D20AC
:10071000666C6173680000000D0A287229202D2084
:100720005265616420466C61736800000D0A28629E
:1007300029202D2043616C6C20626F6F746C6F6197
:10074000646572000D0A287829202D205265736592
:10075000742070726F636573736F72000D0A286680
:1007600029202D204669726D7761726520696E6659
:100770006F0000000D0A00000D0A0A465047412094
:10078000436F6E66696775726174696F6E20466C3F
:100790006173682050726F6772616D6D657220546D
:1007A000686F726C616273202863292032303137A0
:1007B0000D0A00004F4B00004572726F720000007E
:1007C0000D0A466C617368204944203D203078252D
:1007D0003034583A202573000D0A436F6E666967FE
:1007E0007572696E6720465047413A20200000002C
:1007F0006661696C656400000D0A3E20000000001F
:100800007C0100200D0A456E746572696E67206276
:100810006F6F746C6F616465722E2E2E0D0A00006E
:1008200000100240EFBEADDEF01F00200D0A526541
:1008300073657474696E672070726F636573736F2C
:10084000722E2E2E0D0A00000D0A4D617820616473
:100850006472657373205B4865785D203D200000FD
:10086000255800000D0A436F6E6669677572696EE0
:100870006720465047413A20000000000D0A446FAF
:10088000776E6C6F6164204D43532066696C653AE6
:10089000200000000D0A52656365697665642025B5
:1008A0006420283078255829206279746573204F98
:1008B0004B2E00000D0A4572726F722C207374610A
:1008C000747573203D2025640000000030373A35F0
:1008D000393A3536000000004F637420203520324D
:1008E00030313700312E302E330000000D0A4669BA
:1008F000726D77617265207265766973696F6E3AA1
:100900002025732028257320257329000CED00E095
:100910000000FA052DE9FE4F82460E4693461F461B
:100920003D46544666E0B44213D114F00F0F08D090
:10093000FE4800784042C2B2FDA1284601F03CF9D1
:100940000544FDA1284601F037F90544E81BBDE840
:10095000FE8F2004000C13D14FEA1468C4F307493A
:1009600008F1060048444042F04908700846007803
:100970004B464246F4A10090284601F01DF905447B
:1009800014F00F0F19D1301B102801DA301B00E0D2
:100990001020C0B20290C4F3072804F0FF094346B8
:1009A000CDF80090EEA12846029A01F005F9054421
:1009B000029840444844DD4908701BF8010B01903F
:1009C000DBA12846019A01F0F7F80544D7480178E1
:1009D00001980844D549087004F00F000F2808D189
:1009E000084600784042C2B2D1A1284601F0E4F89E
:1009F0000544641C0AF58470844294DBE81BA6E776
:100A00002DE9F04706460F464FF000094FF4847079
:100A100096FBF0F497FBF0F82146D648006800F00A
:100A2000C6FD3CE000F0CCFD0546042D37D1B9F100
:100A3000000F0CD104EB4411C800CF490B68CD491D
:100A40000A683946FFF766FF82464FF0010901F058
:100A500083F820B35146C848006801F062F8C548E1
:100A60000068C649884202D101F5847000E0C3489D
:100A7000C0490860C0480068C149884202D101F5F8
:100A8000607000E0BE48BC490860641C444506DC58
:100A90002146B848006800F08AFD4FF0000944453F
:100AA000C0DDBDE8F08770B5B648006840F400705E
:100AB000B4490860022000F0E7FEB248006840F048
:100AC0000070B04908600A2000F0DEFEAD4808382A
:100AD000006810F0400F02D04FF0FF3070BD0024CE
:100AE00040F2DE660021A348006800F060FD28E0C7
:100AF00000F066FD0546042D23D100F0C5FB00B3D0
:100B0000A0480838006810F0400F00D01DE04FF4F6
:100B1000847298480168002000F0C4FB9548006882
:100B20009649884202D101F5847000E093489149CA
:100B30000860641CB44204DC21468E48006800F062
:100B400036FD40F2DE608442D2DD00BF8D480838B9
:100B5000006810F0400F01D00020BFE74FF0FF30D9
:100B6000BCE70A46002102E0FF234354491C91429E
:100B7000FADB854B186070473EB504460D2C0ED04D
:100B80000A2C0CD03A2C0AD0302C01DB392C06DD93
:100B9000412C01DB462C02DD6FF001003EBD7B489D
:100BA00002680068401C794B1860794884541846E4
:100BB0000068322802DB6FF00300EFE77548006839
:100BC00009281DD2DFE800F01C05061DB11CB0AFDE
:100BD0007A0000BF0A2C05D00D2C02D03A2C09D186
:100BE00004E000BF00206949086008E0032069496B
:100BF000086004E06FF002006649086000BF00BFB3
:100C00005EE1624800680A2857D163486349644B33
:100C1000644ACDE9001064A15D4801F021F9614802
:100C200000685F49096808445C49096808445A49F2
:100C3000096808446049086057480068A0B1012865
:100C400031D0042833D157480068022807D15448CE
:100C5000006820B95148006808B9082001E06FF029
:100C600004004C49086027E04E480068102803DD66
:100C70006FF0030047490860494800684F490988F8
:100C8000C1F30721884205D14C48007843490968DF
:100C9000884204D06FF006003E49086002E006205A
:100CA0003C49086008E004203A49086004E04FF03D
:100CB000FF303849086000BF00BF01E133480068D9
:100CC0000F282FD13E483F4B3F4A38A10090304873
:100CD000093001F0C5F83C4800683A490968084401
:100CE00037490968084434490968084432490860AA
:100CF0000846007818B902202649086003E06FF022
:100D00000500244908602D480068000E2E49096836
:100D100088425CD12B48006828490968C1F3074123
:100D2000884253E057E057E057E0B2E0200000204F
:100D300025303258000000000D0A3A303030303093
:100D400030303146460000000D0A3A303230303043
:100D50003030342530325825303258253032580062
:100D60000D0A3A2530325825303258253032583065
:100D7000300000000C000020080000209008002037
:100D800090010020100C01404C0000201C000020AD
:100D9000A00A0020140000204000002034000020A1
:100DA000300000202C0000203A25325825325825EA
:100DB000325825325800000044000020180000205E
:100DC000480000203C0000203800002003D06FF0D5
:100DD00006009F49086073E000BF9E4800680B282A
:100DE0002FDB9D480068401E40000B309949096880
:100DF000884226DB9748007810F0010F21D09549F2
:100E00000968891E954A881802AA95A101F028F858
:100E10000298C0B29349096808449249086092490F
:100E200002980968087090480068401C8E49086064
:100E30008E480068401C8D4908600720844908607E
:100E400026E08548006840000B30824909688842E6
:100E50001BD180490968891E804A8818844A80A16C
:100E600000F0FEFF7F4800688149096808447D4919
:100E700008600846007818B902207549086007E044
:100E80006FF005007249086002E0062070490860B2
:100E900016E0704800680B2811D1754A70A16F48A0
:100EA000093000F0DDFF72480068FF2803D10520FB
:100EB0006749086003E06FF005006549086000BFFE
:100EC00000BF6348006869E60120614908600020AE
:100ED000664908605F49086070472DE9F0470027C0
:100EE000B946B846BA46FFF7EFFF4FF48471614840
:100EF0000068FFF736FE00BF00F0F8FD0646A6F5D5
:100F00007F41FF3913D03046FFF736FE0546072DE7
:100F10000DD109F1010908F10108B8F5847F06D166
:100F20004FF000084FF0010A53A0FFF751FA002DCF
:100F300003DAA5F16400BDE8F08700F098FB0446F1
:100F4000002C02DAA4F1C800F5E7BAF1000F26D0B0
:100F5000052D24D00C2C1FD139467F1C4548006834
:100F600000F07CFB00F083FB044644A0FFF730FA5E
:100F7000404800684249884202D101F5847000E08F
:100F80003F483C4908604FF484713A480068FFF7D5
:100F9000E8FD4FF0000A02E06FF00900CBE7052DF5
:100FA000AAD10C2CA8D139463248006800F056FB73
:100FB00032A0FFF70DFA00BF00F059FB0446002CE9
:100FC00002DAA4F1C800B6E70C2CF5D10020B2E794
:100FD00070B5FFF779FF4FF4847126480068FFF77A
:100FE000C0FD00BF00F082FD0546A5F57F40FF383B
:100FF00022D02846FFF7C0FD0446072C1CD121480B
:101000000068401C1F4908601F480068401C1E49BA
:10101000086008460068B0F5847F0DD100200860A4
:101020001748144908604FF4847112480068FFF7AC
:1010300098FD16A0FFF7CCF9002C01DA204670BD10
:10104000052CCFD10020FAE708480068704700005F
:10105000140000201C0000202C000020A00A00200A
:1010600025325800440000204C00002018000020C9
:1010700048000020100000207200000070000000F6
:101080009008002024000020280000202A000000F2
:101090002D49896941F004012B4A91612B49086867
:1010A0002B4908432B4908402B4908402749086031
:1010B000091D086829490843294908402949084069
:1010C0002249091D086021491031096841F6511271
:1010D00011431E4A103211601B49896941F0080111
:1010E000194A91612049086840F68801084349106F
:1010F000884340F2333188431B49103109681B4A49
:101100001143194A1032116040F0444020F0084069
:1011100020F04C5014490860091D086840F0040094
:1011200020F0080020F0030020F0C00020F0200094
:1011300040F010001146096841F4007111600A493D
:10114000091D0860704700000010024000080140BF
:1011500008000808FBFFFBFBFCFFFCFC0880080004
:10116000FBBFFBFFFCCFFCFF000C014003000400B1
:101170006B49896941F205021143694A91616949E4
:10118000096841F08061674A11601146096821F0E1
:10119000006111601146096821F04071116011462B
:1011A000096821F4800111601146096841F40001C9
:1011B00011601146096841F4401111601146096837
:1011C00021F0804111601146096841F00041116031
:1011D0001146096841F040511160524910310968C7
:1011E00041F010014F4A103211604E49096821F454
:1011F00080214C4A11601146096821F400211160D8
:101200001146096841F4403111604FF44571464A76
:1012100011801146098841F04001118011468988EA
:1012200041F003019180114688893F490C313F4AC2
:1012300091630021516342F2900111633A490C31EC
:101240005162002111624FF40251D1611146096BC4
:1012500041F0010111631146C96941F00101D161F9
:10126000704740B12F491031096841F010012D4AF3
:101270001032116007E02B491031096841F48011E8
:10128000284A1032116070472748008910F0020F79
:1012900006D02548008910F0800F01D10120704749
:1012A0000020FCE710B5214BDB6923F001031F4C44
:1012B000E36123461A6238B91D4BA3622346DB69FA
:1012C00023F08003E36106E0184B9862DB6943F08A
:1012D0008003164CE361154BDB6943F00103134CAB
:1012E000E36123461B6B23F00103236323465A6308
:1012F00039B90F4BE36323461B6B23F08003236351
:1013000006E00A4BD9631B6B43F08003074C236351
:10131000064B1B6B43F00103044C236310BD00001C
:10132000001002400008014000300140000002406F
:10133000500000207A49896941F00801784A91619A
:101340001146C96941F48041D1617649096841F08B
:101350008061744A11601146096821F000611160D2
:101360001146096821F0407111601146096821F0A9
:10137000804111601146096841F000411160114639
:10138000096841F0405111601146096821F480015B
:1013900011601146096841F40001116011460968A5
:1013A00041F4401111605F490C31096841F48051EA
:1013B0005C4A0C3211605B49096821F48021594A6A
:1013C00011601146096821F4002111601146096875
:1013D00041F4403111604FF44571534A1180114678
:1013E000098841F040011180111D098841F0030175
:1013F000121D11804C490C3108884C4A116600219D
:10140000D16542F29001916547490C31D1640021C8
:1014100091644FF4025151641146496C41F001014D
:1014200051641146896D41F001019165704740B1E9
:101430003C490C31096841F480513A4A0C32116040
:1014400007E038490C31096841F08051354A0C32C7
:1014500011607047014600E000BF334A083212882D
:1014600012F0020FF8D0304A0C32118000E000BFB9
:101470002D4A0832128812F0010FF8D02A4A0C3295
:101480001288D0B2704728480830008810F0020F48
:1014900007D025480830008810F0800F01D10120C6
:1014A00070470020FCE710B5204B5B6C23F0010374
:1014B0001E4C636423469A6438B91D4B236523464A
:1014C0005B6C23F08003636406E0184B18655B6C6B
:1014D00043F08003154C6364144B5B6C43F00103D1
:1014E000124C636423469B6D23F00103A3652346DE
:1014F000DA6539B90E4B636623469B6D23F0800392
:10150000A36506E0094B59669B6D43F08003074CC9
:10151000A365064B9B6D43F00103044CA36510BD0E
:1015200000100240040C014000380040000002405E
:101530005100002008B50020FFF779FF9F208DF8AB
:101540000000012269460020FFF7ADFF00E000BF68
:10155000FFF799FF0028FAD0042200216846FFF720
:10156000A2FF00E000BFFFF78EFF0028FAD00120A5
:10157000FFF75DFF009808BD08B50020FFF757FF93
:10158000D7208DF8000000208DF801000222694666
:10159000881CFFF788FF00E000BFFFF774FF0028FA
:1015A000FAD00120FFF743FF9DF8030008BD9D4AD4
:1015B00010604A009C4B1A6000229C4B1A607047D6
:1015C00010B59A48006830B1012827D002282CD0E5
:1015D00003283FD134E094480068B0F5006F03D38E
:1015E0004FF0FF30914908600020FFF720FFD22024
:1015F0008F4908708C480088000A48708A48007833
:1016000088700020C870087148718871C8710822FC
:10161000FFF749FF0120854908601BE0FFF733FF12
:1016200010B102208149086014E04FF48472002157
:101630007C480068FFF737FF03207C49086009E019
:10164000FFF721FF28B10120FFF7F1FE04207749C1
:10165000086000BF00BF7548006810BD754A106083
:101660004A00714B1A600022734B1A60704710B524
:10167000714800680C2874D2DFE800F006252C378A
:1016800045555C7B919BABB267480068B0F5006F35
:1016900003D34FF0FF30684908600020FFF7C7FE12
:1016A00082206649087060480088000A48705E48D9
:1016B000007888700020C8700422FFF7F4FE012033
:1016C0005D490860A9E0FFF7DEFE10B102205A492B
:1016D0000860A2E04FF48472564801680020FFF7CA
:1016E000E2FE03205449086097E0FFF7CCFE48B1C2
:1016F0000120FFF79CFE00F0C3F851490880042048
:101700004D49086089E00020FFF791FED7204B4942
:101710000870002048700222881CFFF7C4FE0520D4
:101720004549086079E0FFF7AEFE10B10620424956
:10173000086072E000F0A4F841490988401A84B2B8
:10174000232C04DD6FF001003B4908600DE03B48AD
:10175000C07800F09C009C2804D10720364908601E
:1017600003E056E00420344908600120FFF75FFEE3
:1017700053E00020FFF75BFE6020304908702A48E4
:101780000088000A48702848007888700020C870D7
:101790000422FFF788FE0820274908603DE0FFF794
:1017A00072FE28B10120FFF742FE0920224908609D
:1017B00033E00020FFF73BFED720204908700020CF
:1017C00048700222881CFFF76EFE0A201A49086042
:1017D00023E0FFF758FE10B10B20174908601CE00A
:1017E0001648C07800F09C009C280BD11348C078A4
:1017F00010F0400F02D06FF0020000E00C200E4904
:10180000086002E009200C4908600120FFF70FFE84
:1018100003E00120FFF70BFE00BF00BF0648006891
:1018200010BD00006C00002070000020540000205B
:101830005C0000207400002058000020640000209C
:10184000680000206148C06940F002005F49C8613B
:101850005F48008840F001005D4908805D480068ED
:101860004FF47A71B0FBF1F059492831088058489B
:101870001430008840F00100554914310880704749
:10188000534824300088704700B50146FFF7F8FF41
:10189000024600E000BFFFF7F3FF801A80B28842E3
:1018A000F8DB00BD4FF0E020006940F001004FF090
:1018B000E02108616FF07F404861704743488069CC
:1018C00040F00500414988614348006820F040002D
:1018D000414908600846006840F0800008600846FA
:1018E000006840F0300008603848C06940F00100EE
:1018F0003649C861374800684FF47A71B0FBF1F09F
:10190000C906088540F2F3108885002088870846BC
:10191000808A40F0010088820846008B40F4C04075
:1019200008830846008C40F01000088408460088B0
:1019300040F00100088070474FF080431987421E35
:101940009A851A46928A42F001029A8270471F488D
:10195000C06940F0C0501D49C8612048006840F48B
:1019600080701E4908601948006A40F40340174916
:10197000086200E000BF1A48008810F0200FF9D07C
:101980001748008840F01000154908800020091D04
:1019900008804FF22340091D0880002010491431AF
:1019A0000880091D08800E48008820F010000C49AE
:1019B000088000E000BF0A48008810F0200FF9D02E
:1019C0007047074818300088704700000010024038
:1019D00000040040000000200008014000700040AA
:1019E000042800405F48806940F005005D49886137
:1019F0000846C06940F40030C8610846406940F0BC
:101A0000010048615848006840F480405649086029
:101A10000846006820F4004008600846006820F48A
:101A2000405008600846006820F48060086008465E
:101A3000006840F4006008600846006840F44070A8
:101A400008604A48006840004FF4E131B0FBF1F013
:101A5000401CC0F34F00464908800020091D088043
:101A6000091D0880091D08804148001D008840F4B8
:101A700050503F49091D08803D480C30008840F017
:101A8000C0003B490C3108803948001F39490860C3
:101A90004FF000003849C1F8840042F29000374905
:101AA0000860374834494867364888674FF08000F7
:101AB000086742F2A000C8663348008820F0400062
:101AC000314908803148008840F00C002F490880D7
:101AD0002948D0F8800040F001002749C1F8800073
:101AE0000846C06E40F00100C86670472249096F81
:101AF000C1F18001264A1268914202D14FF6FF706F
:101B00000EE023490A680968491C214B19601D49E8
:101B1000885C19460968802902D100211A461160A3
:101B20007047164A126822F00102134BC3F8802056
:101B30001A46C2F88C00C2F88410134A128822F0A8
:101B40004002114B1A800C4AD2F8802042F0010268
:101B5000094BC3F8802070470B48008800F0400014
:101B60007047000000100240000801400000002003
:101B7000084400408800024000000240800002400B
:101B800004440040D20A0020004400400C440040BD
:101B9000780000201CB50C46064B7B44694600903B
:101BA000204600F014FB04460020694600F022FBAA
:101BB00020461CBD570600000FB41CB5084B06AAF2
:101BC0007B4469460090059800F001FB0446002024
:101BD000694600F00FFB20461CBC5DF814FB0000BA
:101BE0003106000070B5044685690068C10601D55C
:101BF000302600E02026C00708D070BDD4E90121BE
:101C000030469047206A00F1010020626D1EF5D534
:101C100070BD70B5044685690078C00708D170BDF5
:101C2000D4E9012120209047206A00F101002062C0
:101C30006D1EF5D570BD0000F0B40D460188090594
:101C400002D5234C7C4402E0214C7C440E3400211C
:101C500000F124060BE002F00F074FEA1212E75DD5
:101C600042EA03724FEA1313775401F1010152EA79
:101C70000307F0D102780023120704D5702D06D097
:101C800009B1113402232246F0BC00F0EDB9103442
:101C90000123F8E770B504460D462146106800F0B0
:101CA000B1F9024629462046BDE870400023C3E74B
:101CB000D21D22F00703D3E90023BDE703681268B1
:101CC00043F0200303600823C3610023B4E700004E
:101CD000241B00002DE9F05F894604464FF0000AFE
:101CE000DFF878B1FB44C0F820A02046E1688847BF
:101CF000002875D0252806D0D4E901219047206A14
:101D0000401C2062F1E700265F462046E1688847D4
:101D10002028054608DB312D06D207EB050010F818
:101D2000200C08B10643F0E7B00701D526F0040601
:101D3000C4F81CA00027C4F818A02A2D09D02846F2
:101D400001F0DEFC38B304EB8708303DC8F81850CA
:101D500019E059F8041B204604EB87029161E16801
:101D60008847012F054618D1E069002820DA26F0BF
:101D700020061DE0D8F8180000EB800005EB4000BD
:101D80003038C8F818002046E1688847054601F059
:101D9000B7FC0028EED1012F0AD02E2D08D1204605
:101DA000E16888477F1C0546022F46F02006C4DB09
:101DB000A069002803DA404246F00106A061F0075E
:101DC00001D026F010066C2D0BD0682D09D04C2DBB
:101DD00039D06A2D35D0742D35D07A2D33D016E018
:101DE00038E0E1682F4620468847B842054609D1C9
:101DF0006C2F26D04FF48060E16806432046884768
:101E0000054604E06C2F1AD04FF4807006430DB3E2
:101E1000A5F14100192802D8203546F400664A464B
:101E20002946204626604E46FEF7B4F980B10128C7
:101E30000BD0F61D26F0070000F1080955E74020F9
:101E4000E4E78020D8E70020D6E706F104094CE754
:101E5000284651E7206ABDE8F09F0000AC1A000058
:101E60000FB400B58DB010A9099000910B904FF000
:101E7000FF300A9000200C900648784406900648EF
:101E800078446A4607900F9909A800F0A3FA0DB0AC
:101E90005DF814FB770500008F0500002DE9FF5F5A
:101EA0001D464FF0FF3B91464FF000085F46D5E9D5
:101EB0000146A96901987F1C8847296A824688479C
:101EC0000028F6D11AF101000CD0002E24F4C064D1
:101ED00019DD600614D5BAF12B0F09D0BAF12D0F18
:101EE0000ED103E0584604B0BDE8F09F44F480648E
:101EF000A96901987F1C8847761E8246002E02DD64
:101F0000BAF1300F03D0B9F1000F26D032E0A96941
:101F1000761E01987F1C44F400748847002E824688
:101F200005DDBAF1780F06D0BAF1580F03D0B9F138
:101F3000000F10D01EE0B9F1000F02D0B9F1100F60
:101F400018D1A969761E01987F1C24F40074884773
:101F50008246102002E0082000E00A20814609E0C5
:101F6000A96908FB0908761E01987F1C44F40074D7
:101F700088478246002E05DD4946504600F016FA95
:101F80000028EDDAE96901988847A00502D46FF0CE
:101F90000100A8E7E00727D1600614D5600502D547
:101FA000C8F1000000E04046296801F104022A60FF
:101FB0000968220501D5087016E0220701D50880BE
:101FC00012E0086010E0286800F104012960006850
:101FD000210502D580F8008006E0210702D5A0F88F
:101FE000008001E0C0F8008038467CE77047704709
:101FF000704709684A0501D540B27047C905FCD54C
:1020000000B2704709684A0501D5C0B27047C905DA
:10201000FCD580B2704770B50C460546012A05D044
:102020002878800600D5EA69002302E0012305E054
:102030005B1C934202D2E05C0028F9D1A869E61843
:10204000C01AA861286A184428622846FFF7CAFD0A
:1020500004E0D5E9012114F8010B9047B442F8D30C
:102060002846FFF7D6FD70BD2DE9F0470D4699468D
:102070009246044600F124080168880604D5E06908
:1020800021F01001216000E00120A84202DDA0EB58
:10209000050700E00027A16907EB050202EB090034
:1020A000A1EB0000A0612078C00602D42046FFF713
:1020B00099FD002608E0D4E901211AF806009047AE
:1020C000206A401C761C20624E45F4DB2078C00656
:1020D0000AD52046FFF786FD06E0D4E9012130202D
:1020E0009047206A401C2062381EA7F10107F4DCEB
:1020F00007E0D4E9012118F805009047206A401C48
:102100002062281EA5F10105F3DC2046FFF781FDC2
:102110002078000602D50220BDE8F0870120FBE709
:102120002DE9F0410646002410687529314616A5B0
:1021300011D0FFF75EFF002803DAC0F1000013A5FD
:1021400007E031688A0701D511A502E0490704D5E7
:1021500010A5012401E0FFF755FF00210A2306F135
:10216000240707E0B0FBF3F203FB12003030785491
:102170001046491C0028F5D123462A463046BDE8C2
:10218000F041FFF771BF0000000000002D000000CB
:102190002B0000002000000011680268006A53054F
:1021A00001D508700BE0D30501D5088007E01306C0
:1021B00003D5C217C1E9000201E052060860012000
:1021C0007047000001694A1C02610878704700B539
:1021D0008FB0CDE901310021059105497944CDE960
:1021E000031011466846FFF775FD0FB000BD0000F3
:1021F000E5FFFFFF0A6802F8010B0A607047000064
:102200002DE9FF5F15468A460446DFF8AC80F844A6
:102210000027D8E900103E46CDE9001011E03AF859
:1022200016106A4602A800F047FD411C07D021782D
:10223000890603D5E269391891420ED8074406F1A0
:1022400001062078800602D5E069B84205DDAE427D
:10225000E5DB3AF816000028E1D1A069C01BA061B7
:102260002046FFF7BFFCD8E90010CDE900100020A0
:1022700016E03AF818106A4602A800F01DFD8146E3
:10228000401C0BD000250DF1080B05E0D4E901211D
:102290001BF8050090476D1C4D45F7D308F1010070
:1022A000B0428046E5DB206A384420622046FFF7D2
:1022B000B0FCBDE8FF9F0000961500002DE9F0413D
:1022C0008046D21D22F007020025D2E90002F5293E
:1022D00014A612D0002A06DA0023D0EB030063EB29
:1022E000020211A608E0D8F800108B0701D50FA64E
:1022F00002E0490701D50EA601251146002408F188
:10230000240704E000F096F830323A55641C50EA95
:102310000102F7D12B46324621464046BDE8F04146
:10232000FFF7A2BE000000002D0000002B000000FF
:102330002000000030B4002100F124040CE002F081
:10234000070505F130054FEAD20242EA43726554AF
:1023500001F101014FEAD30352EA0305EFD104680A
:10236000002310A2250708D504F020040C4304D054
:10237000C46901230CA2641EC46130BCFFF774BEA3
:1023800010B5044621461068FFF73CFE0246204681
:10239000BDE810400023CDE7D21D22F00701D1E9AE
:1023A0000023C7E700000000300000003A2800D2F8
:1023B000303820F02002412A01D3A2F137008842B0
:1023C00001D34FF0FF307047026811441378016069
:1023D00018467047D16005497944516104497944F0
:1023E000116200211161114600F0AEBAEDFFFFFF4E
:1023F000DD000000426842B1016811F8013B23B1E1
:10240000521EC0E90012184670470121C160881EA3
:10241000704742685AB1C368016843B983688B4208
:1024200005D0491E521CC0E90012002070474FF031
:10243000FF30704730B5B0F10A024FEA900E71F1EB
:1024400000034EEA817EB0EB0E0061EB91014FEA92
:10245000101E4EEA017E10EB0E0041EB11114FEA07
:10246000102E4EEA016E10EB0E0041EB11214FEAE7
:10247000104E4EEA014E10EB0E0041EB1141401898
:1024800041F100014FEAD00040EA41704FEAD1012A
:1024900010EB80054FEA810444EA907444EB010498
:1024A0006D1944EB0404521BA3414FF0000348BFD5
:1024B0000A3200D530BD401C41F1000130BD10B5DD
:1024C000044600F03FFC0068005D00F0010010BD14
:1024D00070472DE9FF4F0C461E464FF0FF378BB07B
:1024E000D2E90001DDF860800A908A46C1F30A55FE
:1024F00005B93D46002108464FF00000BAF1000F33
:1025000000F4400005DA00EB80004FF4400101EADE
:1025100050004FEA9059B9F1010F00DDB9460A9811
:1025200050EA4A000ED044F61050A5F2FF3545435C
:102530002F14B8F1000F1ED07542291E1EDDC9F1FF
:1025400000021CE0B8F1010F4FF0000001D0302173
:1025500003E0F24305E02154401CB042FBDB30466F
:102560000022002121540B99C1F80880C1E9002004
:102570000FB0BDE8F08FBD1B6D1CDEE74A4600DAE8
:10258000694206A800F02AFC06AB07CB03AB07C3E1
:1025900050460A9900F0E5FC8DE80700A0F50050D0
:1025A0001F3800900398002D09DD42F21F014A46B2
:1025B000084403A90390684600F044FF08E0A0F532
:1025C00000504A461F3803A90390684600F04EFFAA
:1025D0008DE807000004000C03D04FF0FF304108E5
:1025E00000E01046B8F1000F03D00022009215461B
:1025F0001FE0751E06D4FFF71DFF02F13002625581
:102600006D1EF8D5B3460122084302D000227F1C7C
:1026100004E02078302801D100227F1E002A09978B
:1026200087D01DE0112D07DAFFF704FF3032625525
:102630006D1C50EA0102F5D108430FD10021681E3C
:1026400005E0235C625C6354491C2254401E8142B5
:10265000F7DBAB46A81B401E099001E0009848B18B
:10266000002004F80B000B98099AC0F80880C0E914
:10267000002B7DE711264FF000085AE72DE9F04FB7
:1026800088460446D21D22F0070191B0D1E900012D
:10269000CDE90A0101F020F802460B98C00F01D0E5
:1026A0002D2007E02068810701D52B2002E02021A2
:1026B00001EAC000032A099001D0072A05DB03467E
:1026C0004146204600F04AFB0FE12078800601D504
:1026D000E06900E00620B8F1650F814606D0B8F148
:1026E000660F18D0B8F1670F72D132E00020B9F14F
:1026F000110F009001DB112301E009F101030AAA87
:1027000001A90CA8FFF7E5FEDDE90C70002609F130
:102710000105834648E001204B4600904FF00047FA
:102720000AAA01A90CA8FFF7D4FEDDE90DB00C99A7
:102730005D46002618B909F1010001EB0005B9EB6F
:10274000050003D4C0F1FF3609F10105A5EB09002E
:102750002BE0B9F1010F01DA4FF001090020B9F1C6
:10276000110F0090484601DD112300E003460AAA3C
:1027700001A90CA8FFF7ADFEDDE90C704D4600265F
:102780008346207800070AD4AB4500DA5D4601A8ED
:10279000012D04DD411911F8011C302907D04F45E6
:1027A00002DA17F1040F04DA0120824610E06D1EF0
:1027B000EEE7002F02DCED1B3E4403E0781CA8424C
:1027C00000DD0546A7EB060000F1010A4FF00047C7
:1027D0002078000703D4AA4501DB4FF0FF3A00211F
:1027E000B7F1004F0DF143088DF8431023D00220BC
:1027F0002B23002F01DA7F422D234FF00A0C011EFC
:10280000A0F1010000DC4FB197FBFCF10CFB117251
:102810000F4602F1300208F8012DF0E7A8F101009F
:1028200003702188090501D5452100E06521A0F14B
:10283000010800F8011C09980FA9A1EB080707F18E
:10284000070700B1012000EB050101EBEA70A16967
:102850003844A1EB0000A0F10100A0612078C0067F
:1028600002D42046FFF7BEF9099830B1D4E901211E
:102870009047206A00F1010020622078C00620D530
:102880002046FFF7AFF91CE0002E04DBB34502DD64
:1028900001A8805D00E03020D4E901219047206A42
:1028A000761C401CBAF1010A20620AD100F052FAEB
:1028B000C0680168405CD4E901219047206A401C4F
:1028C0002062281EA5F10105DEDC07E0D4E9012124
:1028D00018F8010B9047206A401C2062381EA7F1AF
:1028E0000107F3DC2046FFF794F9022011B040E61F
:1028F00010B5436913B1AFF3008001E0FFF78BFB24
:10290000012010BD127800F124010A7000224A70E3
:102910000122EDE711684FF0FF32E9E710B5436996
:1029200013B1AFF3008001E0FFF76AFC012010BD96
:10293000128800F1240182840022C2840122EDE782
:1029400011684FF0FF32E9E72DE9F34F4FF0000A2D
:102950000C4656468DB001200C9001F10C000B90F6
:1029600062690B980121904705002DD0252D2CD0B0
:10297000216A8847C0B162690B9801219047216A9A
:1029800088470028F7D16269411E0B98904700E004
:10299000761CA1690D988847216A88470028F7D1DD
:1029A000E1690D988847DBE7A1690D988847A8423F
:1029B000074601D1761CD3E7E1690D9888477F1C53
:1029C00002D1BAF1000F6FD06AE162690B9800275B
:1029D0003D46394690472A2804D162690B98012167
:1029E00090470125DFF8CC8262690B98012190475E
:1029F000A0F130010A290AD24745E5DC07EB87013F
:102A000000EB4107303FDFD445F01005ECE7E90665
:102A100001D46FF000476C280AD04C2814D06828E5
:102A200015D06A280DD074281CD07A281AD01DE041
:102A300062690B98012190476C2802D045F004058B
:102A400014E045F002050DE045F020050AE062695A
:102A50000B9801219047682802D045F0080505E051
:102A600045F4006562690B9801219047C4E901575C
:102A700065283DD019DC582879D00CDC452837D0A2
:102A800004DC252826D041289ED131E046282FD0CD
:102A9000472899D12CE05B287FD0612828D0632873
:102AA0007BD0642890D159E0F5E06F2847D008DC4E
:102AB00066281DD067281BD0692821D06E2816D122
:102AC00027E0702844D0732867D0752846D078282E
:102AD0000DD14CE0A1690D988847252805463FF4A3
:102AE00069AFE1690D9888476D1C3FF46AAFD7E084
:102AF0000D9923466A466FF00100AFF30080C4E0F1
:102B000045F0400023464FF000026060A80735D42E
:102B10003DE0206800F1040121600068290501D52D
:102B200006701DE7290701D5068019E7A90704D516
:102B30004FEAE671C0E9006112E7066010E745F070
:102B4000400023464FF008026060A80716D41EE03C
:102B500040F60E0125EA0100606016E045F04000F5
:102B600023464FF00A026060A80707D40FE045F043
:102B700040006060A80708D5234610220D996FF029
:102B80000100AFF3008080E007E0102223460D999A
:102B90006FF00100FFF782F977E04FF0000963283A
:102BA0004F46C8464B46CB4602D05B2806D038E09D
:102BB000E80601D40120A060012732E06269D4F860
:102BC0000CB00B98012190475E2807D14FF0010906
:102BD00049466269D4F80CB00B989047216939B91D
:102BE00000210B4603AA42F82130491C0829FADBD0
:102BF000D8B3216949B308F1010862690B98012132
:102C000090475D28F4D1B9F1000F09D0002003A945
:102C100051F82020D24341F82020401C0828F7DB3F
:102C200003AB2069002820794FEA40701ED05B4634
:102C30002246CDF80080CDE901970D9900286FF06C
:102C4000010020DAAFF300801FE0C11700EBD16272
:102C500003A9531122F01F0201EB8301821A0B68B2
:102C60000120904003430B60C7E719E00D9922460D
:102C700000286FF00100009702DAAFF3008004E053
:102C8000AFF3008001E0AFF3008000280ADA401CB7
:102C900006D10C9820B14FF0FF300FB0BDE8F08F97
:102CA0005046FAE7E90701D10AF1010A064400207B
:102CB0000C9055E6CCCCCC0C70B50C4616460546AF
:102CC00000F040F8036893F80101012806D0FF2CBA
:102CD0000FD8185D68B101202C7070BDD3F80701C2
:102CE0003246214603442846BDE8704003F20713EC
:102CF00018474FF0FF3070BD754600F0E7F8AE465C
:102D000005006946534620F00700854618B020B5F7
:102D1000FDF7C4FABDE820404FF000064FF0000771
:102D20004FF000084FF0000B21F00701AC46ACE873
:102D3000C009ACE8C009ACE8C009ACE8C0098D46E0
:102D40007047000010B500F005F8001D10BD00BF71
:102D5000ED09000000487047740B00202DE9F04198
:102D60001F46044603260168072A01F4006004DBBD
:102D700008B116A505E016A503E008B115A500E009
:102D800015A521F010002060A069C01EA0610FB140
:102D9000401EA0612046FEF725FF4FB1D4E9012176
:102DA00038469047206A401C2062C01C206206E022
:102DB000206AFAE7D4E9012115F8010B9047761E45
:102DC000F8D22046FEF725FFBDE8F0814E414E00C7
:102DD0006E616E00494E4600696E66002DE9F0474F
:102DE000814616468AB035487844D0E90023806889
:102DF0000092CDE90130314878440C38D0E9022303
:102E0000006903924FF03702CDE9043041F69B3060
:102E1000014491FBF2F0A0F1800502FB10141B3C71
:102E200002D56442012000E00020DFF890A0804637
:102E30000027FA44AAF1C60A0DE0E00709D032469D
:102E4000684607EB47010AEB810100F00FFB8DE8B4
:102E5000070064107F1C002CEFD1184F7F44B43F53
:102E600017E0E80713D007EB04100DF1180A90E8FB
:102E70000E00AAE80E00C068F04201D1981908902F
:102E8000324606A903A800F0F1FA03AB07C36D10A0
:102E9000641C002DE5D132466946B8F1000F03A845
:102EA00002D000F0CFFA01E000F0E0FAC9E9000139
:102EB000C9F808200AB0BDE8F0870000400A000009
:102EC0000446AFF300802046FDF7C7F9004870477D
:102ED000540B00204FF0013C50F8042B51F8043BF8
:102EE0009A4221D1A2EB0C03934313EACC1317D1DE
:102EF00050F8042B51F8043B9A4215D1A2EB0C0375
:102F0000934313EACC130BD150F8042B51F8043B34
:102F10009A4209D1A2EB0C03934313EACC13DBD002
:102F20004FF00000704700BFD01A01BAB1FA81F12A
:102F300001F0180122FA01F0CB40C1F12001DBB20F
:102F4000C0B2C01A2CFA01F3D11A914311EAC3118D
:102F5000E6D1704701491820ABBEFEE7260002000B
:102F600070475FEA400C08BF91F0000F4FEA8C23D6
:102F70004FEAC12243EA51514FEA1C5018BF00F5F5
:102F8000F0404FEA300018BF41F000415FEA6C5C4E
:102F900000F02980BCF1FF3F08BF40F0804070473F
:102FA000130C06BF12044FF0100C4FF0000C130E60
:102FB00004BF12020CF1080C130F04BF12010CF134
:102FC000040C930F04BF92000CF1020CD30F04BF4A
:102FD00052000CF1010C11464FF00002A0F11F004D
:102FE000A0EB0C00704711F0004F08BF704731F0A4
:102FF00000413FF4D5AF0B0C06BF09044FF0100C95
:103000004FF0000C0B0E04BF09020CF1080C0B0F63
:1030100004BF09010CF1040C8B0F04BF89000CF1F3
:10302000020CCB0F04BF49000CF1010CCCF12003C2
:10303000A0EB0C0022FA03F302FA0CF241EA0301BE
:1030400000F10100704720F07F4C80EA030023F07C
:103050007F47ACEB070303F57C5300F0004003F11E
:10306000FF032DE980494FEA154B09B44FEA144399
:1030700025EA0B4E24EA03480FF2042606EB132739
:1030800049083E785FEA320203FB0667C7F500078E
:1030900007FB06F64FEA54374FEAD64606F102061A
:1030A00007FB066CCCF1005C4FEA1C472CEA074C8E
:1030B00007FB06F40CFB06F504EB15464FEA9616E3
:1030C00034BF00204FF000404FEAD13706FB07FC29
:1030D0004FEA1C4C0CFB0BF7D21B03FB0CF761EB0C
:1030E00007010CFB0EF7B0EB074072EB17420CFB2D
:1030F00008F734BFA2EB0742B2EB074261EB17417E
:103100004FEA0C444FEA910706FB07FC4FEA1C4CC0
:103110000CFB0BF7B0EBC74072EB573203FB0CF71D
:1031200034BFA2EBC742B2EBC74261EB57310CFB95
:103130000EF7B0EBC70072EB57720CFB08F734BF09
:10314000A2EBC702B2EBC70261EB5771039F4FEAD4
:10315000816141EA921104EBCC044FEAD1374FEA86
:10316000826206FB07FC42EA90124FEA80604FEA57
:103170001C4C0CFB0BF7D21B03FB0CF761EB07019C
:103180000CFB0EF7B0EB074072EB17420CFB08F795
:1031900034BFA2EB0742B2EB074261EB17414FEAA3
:1031A0008C554FEA910704EB9C2406FB07FC4FEA81
:1031B0001C4C0CFB0BF7B0EBC74072EB573203FB18
:1031C0000CF734BFA2EBC742B2EBC74261EB5731F9
:1031D0000CFB0EF7B0EBC70072EB57720CFB08F755
:1031E00034BFA2EBC702B2EBC70261EB577115EB1C
:1031F0004C254FEA816141EA92114FEA82624FEA1F
:10320000D13742EA901206FB07FC44F100044FEA72
:1032100080604FEA1C4C0CFB0BF7D21B03FB0CF736
:1032200061EB07010CFB0EF7B0EB074072EB1742A6
:103230000CFB08F734BFA2EB0742B2EB074261EB8D
:10324000174115EB1C154FEA813141EA92414FEAD3
:10325000823242EA90424FEA80304FEA0C7644F1E3
:10326000000448EA03434EEA0B484FF0000EB2EB6D
:10327000080C71EB030724BF624639464EEB0E0E75
:103280004FF0000B0018524149414BEB0B0BB2EBD6
:10329000080C71EB03077BF1000B24BF6246394633
:1032A0004EEB0E0E4FF0000B0018524149414BEB14
:1032B0000B0BB2EB080C71EB03077BF1000B24BF87
:1032C000624639464EEB0E0E51EA020718BF46F031
:1032D000010616EB0E7655F1000254F1000103D5FC
:1032E000BDE88901BDE80088BDE88901BDE8004866
:1032F000B619524141EB0101A3F1010370478080EF
:103300007F7E7D7C7B7A797877767675747372713F
:1033100071706F6E6E6D6C6C6B6A6A6968686766F7
:1033200066656464636362616160605F5F5E5E5D89
:103330005D5C5C5B5B5A5A595958585757565655FD
:1033400055555454535352525251515050504F4F5F
:103350004F4E4E4D4D4D4C4C4C4B4B4B4A4A4A49AF
:1033600049494848484747474746464645454544F2
:103370004444444343434342424242414141002B7F
:1033800026D4770021D01CB54FEA370703B44FF09D
:1033900010004FF010014FF000000FBCBDE81040CE
:1033A0000BF1010BBBF1010F08BF5FEA170722BF4A
:1033B00012F1010211F101014FF0004143F100034C
:1033C00000F0004043EA00007047F9D35708DAE7FD
:1033D00046EA064613F1400F4FEA16461FDD13F189
:1033E000200FDFBF16430A46002120335B42C8D0BE
:1033F000C3F1200746EA064602FA07F74FEA1646E7
:1034000046EA0706C3F1200722FA03F201FA07F79A
:1034100021FA03F14FF0000342EA0702B1E746EA5E
:10342000020646EA06464FEA164646EA0106BCBFD1
:1034300046EA0646360C4FF000034FF000024FF00C
:1034400000019EE72DE9C048934630B491E838006A
:1034500007C831EA400C48BF34EA430C03D5FFF7F4
:10346000F2FDFFF78CFFF0BCBDE800882DE9C048F5
:10347000934630B491E8380007C810F0804F08BF79
:1034800013F0804F03D100F005F8FFF778FFF0BC90
:10349000BDE8008820F07F4780EA030023F07F4CDE
:1034A00007EB0C03A3F57C5300F00040A3F1FE03EF
:1034B00092F0000F00F0B38095F0000F00F07780DD
:1034C0002DE901494FEA11404FEA144621EA00482C
:1034D00000FB06FC24EA064708FB06F607FB08F893
:1034E00000FB07F718EB06484CEB164C4FEA124B63
:1034F00018EB07484FEA15464CEB174022EA0B4EF3
:103500000BFB06FC25EA06470EFB06F607FB0EFE44
:103510000BFB07F71EEB064E4CEB164C4FF000066C
:103520001EEB074E4CEB174B18EB0B0840F100005D
:1035300018EB0E0B58EB000840F100008F1A4FF00B
:1035400000013CBFC943661B14BFB5EB040C00214E
:103550003CBFC943F61B4FEA17444EEA8E0E27EADA
:1035600004454FEA1C4704FB07622CEA074C05FBA5
:1035700007F70CFB05F604FB0CFC16EB074642EBC9
:10358000174216EB0C4642EB1C421BEB060658EBAF
:103590000202414146EA9E0601D5BDE80189B619FD
:1035A000524141EB0101A3F10103BDE801894FEA5A
:1035B00014454FEA114724EA054621EA074C05FB6A
:1035C00007F406FB07F70CFB06F105FB0CFC11EBFF
:1035D000074144EB17444FEA124711EB0C4144EB0F
:1035E0001C4422EA074C05FB07F206FB07F70CFB1D
:1035F00006F605FB0CFC16EB074642EB174216EBF2
:103600000C4642EB1C456A1854F1000148BF704754
:10361000B619524141EB0101A3F10103704795F046
:10362000000F37D04FEA11424FEA144721EA024611
:1036300024EA074C02FB07F106FB07F70CFB06F434
:1036400002FB0CFC14EB074441EB17414FEA154712
:1036500014EB0C4441EB1C4125EA074C02FB07F537
:1036600006FB07F70CFB06F602FB0CFC16EB074605
:1036700045EB174516EB0C4645EB1C42121951F170
:10368000000148BF7047B619524141EB0101A3F157
:10369000010370474FEA14454FEA114724EA0546F3
:1036A00021EA074C05FB07F106FB07F70CFB06F2C6
:1036B0004FF0000605FB0CFC12EB074241EB1741F3
:1036C00012EB0C4251EB1C4148BF7047921841EB82
:1036D0000101A3F101037047490050EAC12018BF5E
:1036E00004204A0D18BF40F0010040F2FF72B2EB17
:1036F000515F08BF40F00200012808BF0520704755
:1037000030380A2801D2012070470020704700009D
:1037100010B500290AD00878002807D00548784459
:10372000FFF7D8FB002801D0002010BD02487844E4
:1037300010BD0000460100003E01000010B5002948
:103740000AD00878002807D005487844FFF7C2FB64
:10375000002801D0002010BD0248784410BD0000B0
:10376000360100002E010000FEF788BF30313233F1
:1037700034353637383941424344454640305800A5
:1037800030313233343536373839616263646566D7
:103790004030780004000008000000000000000233
:1037A0000001000010000000000000000000000008
:1037B00002400000000000A00000000005400000E2
:1037C000000000C8000000000C4000000000409C09
:1037D00000000000194000000020BCBE00000000F6
:1037E00034400000BFC91B8E00000004B54000003B
:1037F000504BCFD06607E2CF010000006C410000C3
:103800003E8251AADFEEA73401000000D942000039
:10381000DCB5A0E23A301F97FFFFFFFFB445000080
:10382000FD25A0C8E9A3C14FFFFFFFFFFF3F000038
:103830000000008000000000FF3F0000000000804A
:103840000000000090390008000000207C0000000B
:103850005C0100080C3A00087C0000203C110000CC
:10386000780100081C00000043000000F8FFFFFF83
:103870000C0000000E0000000F0000002E000000F1
:103880001001000043000000F8FFFFFF004040402F
:103890004040404040404141414141404040404023
:1038A00040404040404040404040404040050202CF
:1038B000020202020202020202020202022020208E
:1038C00020202020202020020202020202029090EA
:1038D00090909090101010101010101010101010E8
:1038E000101010101010101002020202020288883C
:1038F0008888888808080808080808080808080848
:10390000080808080808080802020202400000002F
:1039100000000000000000000000000000000000A7
:103920000000000000000000000000000000000097
:103930000000000000000000000000000000000087
:103940000000000000000000000000000000000077
:103950000000000000000000000000000000000067
:103960000000000000000000000000000000000057
:103970000000000000000000000000000000000047
:103980000000000000000000000000000000000037
:1039900000366E017C00002090010020900800207D
:1039A000900800200000000000000000000000005F
:1039B0000000000000000000000000000000000007
:1039C00000000000000000000000000000000000F7
:1039D00000000000000000000000000000000000E7
:1039E00000000000040000000C00000000000000C7
:1039F00000000000000000000000000000000000C7
:0C3A0000000000000000000000000000BA
:0400000508000121CD
:00000001FF
