:020000040000fa
:08000000000c040000000000e8
:020000040000fa
:08020000000c000002000000e8
:020000040000fa
:10180000cf3921000e7f22000e0188000000000069
:101810000c000700806b270001002000110007006a
:10182000000020000000e000020032000000020082
:101830000000000016360200000000000040da0040
:101840000000fe004440a900403c20000000e000f1
:101850000300320000002000a00188004440a800de
:101860000000060091018800800078000000eb0075
:1018700015003700e280400032a0b4009101ba00a8
:10188000e280400032a0b4009102ba00e280400041
:1018900032a0b4000002eb00472bde00f507b200d7
:1018a000602ce10004003a000059eb008301e900dc
:1018b000fdff3e00040037006128e1000100320016
:1018c0000082eb00040007001101ba000200e000f2
:1018d000e8ff3a00000006003159ba008301e90030
:1018e0000c0032002159ba008301e90008003200df
:1018f0000400e00003003a00e280400032a0b4009f
:10190000f5ff370011d9ba008301e900faff3a0068
:101910008100e800e180400032a0b4000000060031
:10192000020007000400be00000006006022b800ac
:10193000060220000000d0008180d2000482d20084
:101940008582d2000000a0000202520083825a0069
:10195000030031000202420083824a000000a1001d
:101960000603e900f3ff3a0000000600889fbe006e
:101970008a9fbe00010578000100e00004003500e8
:1019800008003c000000e0002000320005003700a5
:1019900060001000e080180002003b0001f02c0005
:1019a0001a0037000004be006011b8006b09200067
:1019b0000982cf00020039000882cf000441b00044
:1019c000694252000e00320008003b008281710023
:1019d000610164008904d1000884d3008b05e8000c
:1019e0000442e800f9ff3a0005003700080444000b
:1019f00089844c008b05e9000442e900fbff3a00b2
:101a0000b40007000af0a70001f0a0004f05be00d7
:101a10004f04be0000000600889fbe008a9fbe00e3
:101a20008c1f7800d1000700d800330003866c00bb
:101a30006450e100240032006420e10027003200fd
:101a40006150e100220032006120e10021003200fb
:101a50008b854200eb07b1000134b800003ab800b2
:101a60000804420089844a00013ab8000030b800f6
:101a70008880400009014a00040033000000400053
:101a800081804800020149008b05e900c909dd0099
:101a9000830170000100320013002000c814de0032
:101aa0004814dd004709de001200b200c808de005d
:101ab000088470008700070001f0a1000cf0a70067
:101ac00001f0a000ba0037006120e100bc00320044
:101ad0000801be000200be00f7ff37006150e100c0
:101ae000fcff3a00b600370003f0a200889fbe005a
:101af0008a9fbe008c1f78009c000700a300330063
:101b00006450e1004f0032006420e10052003200d6
:101b100003826c0007003b000905d0000306d000db
:101b2000820f54000c065d000200390002003200f2
:101b300089017800030678008582550004003d0085
:101b40000003fd008103fd008502ea008b85420051
:101b5000840f720002003b0060001000e08018005b
:101b60006011b8000005eb007a28e1000a00390096
:101b700006007800c75ddd00f707b20087807500ba
:101b80002d003700828171000a0178006105600034
:101b90008180d1000080d3008502e900f9ff3b007d
:101ba000060440008784480002003b0060041400e3
:101bb000e0841c000988a300070032008a817100bc
:101bc00082817100610164008904d1000884d3001e
:101bd0008b05e800170037000978a30013003a00ce
:101be0000b00e000130034008b05e90008044400fa
:101bf00089844c000a4474000978a3000d003a005f
:101c00000b00e000070034008b05e90008044400e5
:101c100089844c0001003a000b0020000978a300e1
:101c2000f7ff32000001eb000200370082817100f3
:101c30000a017800270007000cf0a70001f0a000bf
:101c40005b0037006420e10002003a00838f6c00e3
:101c50005b0033000801be000200be0054003700e4
:101c60000001eb00590037000001be00c000070072
:101c70000470a70003f0a10003f8a30013003a00ca
:101c80006509b10010003200090035006928e10043
:101c9000020035000100280000000500000040009f
:101ca000818048008502e900fcff3a000000060040
:101cb000f88f4200050035008100d1000080d3007c
:101cc0008502e800fcff3a00000006008000eb00ff
:101cd0000000050081002000618055000b003d00e0
:101ce0000b00200061fe2f000100e1001d00340008
:101cf00082817100610164008904d1000884d300ed
:101d00000000e800faff3a00710020006100640062
:101d1000030070000200600009003200610444000a
:101d2000e0844c000988a500050032008b05e8001e
:101d30006808e10002003a008904d1000884d30059
:101d4000f20f20000258e10005003d00c75ddd00f4
:101d5000f907b200898075000800780000000600cd
:101d60000bf827008b007800000005000004be007f
:101d70007f0007000003be000405be000200be0095
:101d80007b000700844f7500000006000200be00c3
:101d90006450e100050036006420e10002003600d6
:101da0000968a30001003a000800be000160a0001d
:101db0004f0678004f05be004f04be00000006002d
:101dc000f0ff2f00f1ff2700f9ff3700889fbe00ca
:101dd0008a9fbe008c9fbe00820578000004be0072
:101de000630007000800be006420e100070039001e
:101df00002003a00f1ff2700f0ff2f000160a00071
:101e000012022000d29c8800550037006120e100ba
:101e100003003a000b00a70001f823005000370030
:101e200001f0a10002002100936424006500070076
:101e30000800be0004003500b2fd2000930c240011
:101e4000620007000004be000005eb000b00a600c6
:101e50004f0dde0001f0a1000004be0032982f00fb
:101e600023ea2300ecfe07000001eb0003f023004f
:101e70000b00a70003f823001cff07005500070014
:101e80000000a7000a00a200b8fe07000b00e00057
:101e9000030032000200200003f0230012ff0700bd
:101ea00001f0a2000006be000200200093042400fe
:101eb000d9fe07000801be000cff0700809fbe008e
:101ec0000c00be0022a22a00d3a72300d2fe0700e6
:101ed0004f01be0005ff07000004be0001f0a10095
:101ee0000200200003982300360007000800be000f
:101ef000190035000001be00c7fe07000006be0045
:101f0000b2c52900e3622300c3fe070022222b0092
:101f1000f3942b00f5fe07000c01be00befe070087
:101f2000e273280083c02300f0fe07000c01be000e
:101f3000b9fe070042aa2a00a3e22b00ebfe07002d
:101f40000c01be00b4fe07000801be00b2fe07008f
:101f50000801be00e5fe07000a00a70001f0a2008c
:101f60004f06be004f05be004f04be000000060035
:101f7000c70ade00f107b200f50fb2000800320018
:101f8000e1cf4200020032000170a00024000500f1
:101f9000810f7000010032000408050044000500b4
:101fa000810f700002003a00140005008502e9006c
:101fb0000000400081c04800fcff3b000170a00011
:101fc0002400050014002000230037000400200036
:101fd0003c0037000001be00e5ff07000470a700c9
:101fe00003f0a1006509b100160032000d003500b4
:101ff0006828e10006003500f0ff2f00f1ff270000
:102000000300e00013003b00010028000000050071
:1020100000004000818048008502e900fcff3a0092
:1020200008003700f88f420002003c008000eb00ff
:10203000000005008100d1000080d3008502e80087
:10204000fcff3a000300e00002003b0060001000cb
:10205000e080180000000600889fbe008a9fbe0036
:10206000841f780041ff07004f0078001100330003
:10207000f0ff2f00838f6c0006003b000405650015
:102080000a00a7000800370009f0a6001000200091
:1020900008003700820f5400838f5c000300390072
:1020a0001000200001003e000000200009f0a70001
:1020b0000000ea004f05be004f04be000000e00033
:1020c00000000600889fbe008a9fbe008c1f78001b
:1020d0004f26dd0025ff07002cff33006120e100c3
:1020e000430032006250e10041003e003e003900f2
:1020f0006420e1003c003200058255000f003b00e7
:102100000402e80038003a00800f5300818f5b0022
:10211000350034000800be0003f0a10001f0a60065
:1021200003f0a0000cf0a70070fe070020ff3700ae
:102130000603430087834b000c464600000553000e
:1021400081855b00020033000a03be000c00a00082
:102150000402e900f6ff3b00850578000602430013
:1021600087824b0004003a006000b80009f0a70025
:1021700001f0a0000eff37000002520081825a00d9
:102180000704e000040033000603430087834b008c
:102190008b05e900faff3700090578000604be0048
:1021a0000203be006011b800cafe0700e00f520033
:1021b000e08f5a000700350002003c000c08a30025
:1021c000040032000601be0003f0a0000cf0a700de
:1021d00046fe07000a85680001f0a1000af0a7008a
:1021e00001f0a000f2fe37000800be00f0fe37004c
:1021f000100220000cf0a600d09c8800f0fe3700f2
:020000040000fa
:020000040001f9
:0457f0007fff000037
:020000040000fa
:020000040001f9
:0457f400fffc0000b6
:020000040000fa
:020000040001f9
:0457f800cefa0000e5
:020000040000fa
:020000040001f9
:0457fc007f3f0000eb
:020000040000fa
:10000800ca790000ca790000ca790000ca790000dc
:10001800ca790000ca790000ca790000ca790000cc
:10002800ca790000ca790000ca790000ca790000bc
:10003800ca790000ca790000ca790000ca790000ac
:1000480034150000ca790000ca790000c414000001
:10005800e0140000ca790000ca790000ca790000db
:10006800ca790000ca790000ca790000501500005a
:10007800ca790000ca790000ca790000ca7900006c
:10008800ca790000ca790000ca790000ca7900005c
:10009800ca790000ca790000fc1400001815000095
:1000a800ca790000ca790000ca790000ca7900003c
:1000b800ca790000ca790000ca790000ca7900002c
:1000c800ca790000ca790000ca790000ca7900001c
:1000d800ca790000ca790000ca790000ca7900000c
:1000e800ca790000ca790000ca790000ca790000fc
:1000f800ca790000ca790000ca790000ca790000ec
:10010800ca790000ca790000ca790000ca790000db
:10011800ca790000ca790000ca790000ca790000cb
:10012800ca790000ca790000ca790000ca790000bb
:10013800ca790000ca790000ca790000ca790000ab
:10014800ca790000ca790000ca790000ca7900009b
:10015800ca790000ca790000ca790000ca7900008b
:10016800ca790000ca790000ca790000ca7900007b
:10017800ca790000ca790000ca790000ca7900006b
:10018800ca790000ca790000ca790000ca7900005b
:10019800ca790000ca790000ca790000ca7900004b
:1001a800ca790000ca790000ca790000ca7900003b
:1001b800ca790000ca790000ca790000ca7900002b
:1001c800ca790000ca790000ca790000ca7900001b
:1001d800ca790000ca790000ca790000ca7900000b
:1001e800ca790000ca790000ca790000ca790000fb
:0801f800ca790000ca79000079
:020000040000fa
:10020800ca790000ca790000ca790000ca790000da
:10021800ca790000ca790000ca790000ca790000ca
:10022800ca790000ca790000ca790000ca790000ba
:10023800ca790000ca790000ca790000ca790000aa
:1002480034150000ca790000ca790000c4140000ff
:10025800e0140000ca790000ca790000ca790000d9
:10026800ca790000ca790000ca7900005015000058
:10027800ca790000ca790000ca790000ca7900006a
:10028800ca790000ca790000ca790000ca7900005a
:10029800ca790000ca790000fc1400001815000093
:1002a800ca790000ca790000ca790000ca7900003a
:1002b800ca790000ca790000ca790000ca7900002a
:1002c800ca790000ca790000ca790000ca7900001a
:1002d800ca790000ca790000ca790000ca7900000a
:1002e800ca790000ca790000ca790000ca790000fa
:1002f800ca790000ca790000ca790000ca790000ea
:10030800ca790000ca790000ca790000ca790000d9
:10031800ca790000ca790000ca790000ca790000c9
:10032800ca790000ca790000ca790000ca790000b9
:10033800ca790000ca790000ca790000ca790000a9
:10034800ca790000ca790000ca790000ca79000099
:10035800ca790000ca790000ca790000ca79000089
:10036800ca790000ca790000ca790000ca79000079
:10037800ca790000ca790000ca790000ca79000069
:10038800ca790000ca790000ca790000ca79000059
:10039800ca790000ca790000ca790000ca79000049
:1003a800ca790000ca790000ca790000ca79000039
:1003b800ca790000ca790000ca790000ca79000029
:1003c800ca790000ca790000ca790000ca79000019
:1003d800ca790000ca790000ca790000ca79000009
:1003e800ca790000ca790000ca790000ca790000f9
:0803f800ca790000ca79000077
:020000040000fa
:102200000025000064000000256c0000002500008f
:1022100064250000640000002564000025640000bf
:1022200025640000000000001a0000000200000009
:102230000091000034000000020000000191000045
:10224000370000000600000000910000a60000001a
:1022500004000000009100003100000004000000b4
:1022600000910000ad000000060000000091000099
:10227000a4000000040000000091000047000000de
:102280000200000000910000d000000002000000e9
:10229000019100004d0000000200000004910000c8
:1022a0003b00000002000000049100004800000014
:1022b00002000000079100009700000002000000eb
:1022c00004910000aa00000002000000019100003b
:1022d000bc0000000200000001910000a800000006
:1022e0000200000001910000be000000020000009a
:1022f000019100006a00000002000000049100004b
:10230000da0000000200000001910000de00000081
:102310000200000007910000a00000000200000081
:1023200001910000ae0000000200000001910000d9
:1023300014000000020000000491000025000000cd
:1023400002000000019100002700000002000000d0
:102350000191000026000000020000000191000031
:102360009e000000020000000191000093000000a8
:1023700002000000019100002b000000020000009c
:10238000019100000f000000020000000191000018
:102390000600000002000000019100009c00000007
:1023a0000200000001910000950000000200000002
:1023b000049100007700000002000000019100007d
:1023c000eb00000002000000019100002f0000005f
:1023d0000200000001910000a200000002000000c5
:1023e00001910000d80000000200000001910000ef
:1023f000750000000200000001910000e2000000f2
:102400000200000001910000e8000000020000004e
:1024100001910000e40000000200000001910000b2
:10242000720000000200000001910000e6000000c0
:102430000200000001910000d60000000200000030
:102440000c910000d4000000020000000791000081
:102450001b000000020000000191000008000000c5
:1024600002000000019100000c00000002000000ca
:1024700001910000430000000200000001910000f3
:10248000f600000002000000079100007300000049
:1024900002000000079100005e0000000200000042
:1024a0000791000045000000020000000c910000b0
:1024b000fb0000000200000001910000620000002b
:1024c000020000000791000041000000020000002f
:1024d000079100006500000002000000019100006b
:1024e0009000000002000000049100009100000034
:1024f0000200000004910000110000000200000032
:10250000049100001300000002000000049100008c
:102510001000000002000000049100008f00000085
:1025200006000000009100007a0000000200000098
:10253000009100003600000006000000009100003d
:102540002e0000000200000000910000f5000000d5
:10255000020000000491000085000000020000005d
:10256000079100000e000000040000000091000030
:10257000290000000200000007910000ef000000a9
:102580000400000001910000c0560000fe0300009e
:1025900054420000443000003031000000000000d0
:1025a0001000000003000000010000000000000017
:1025b000000000000000000000000000000000001b
:1025c000000000000000000000000000000000000b
:1025d00000000000000000000000000000000000fb
:1025e00000000000000000000000000000000000eb
:1025f00000000000000000000000000000000000db
:1026000000000000000000000100000000000000c9
:1026100000000000000000000000000000000000ba
:1026200000000000010000000000000001000000a8
:10263000526500007365000074000000496e0000e0
:10264000766100006c69000064200000496e0000a3
:10265000737400007275000063740000696f0000fd
:102660006e000000496e0000766100006c69000099
:1026700064200000417800006973000000490000f8
:102680006e760000616c000069640000205000005c
:1026900061720000616d00006574000065720000e9
:1026a0000035000000360000003700000038000050
:1026b00000420000616400002043000068650000e3
:1026c000636b0000737500006d0000003130000086
:1026d000004e00006567000061740000697600002c
:1026e00065200000566500006c6f00006369000003
:1026f00074790000005300002d6300007572000023
:102700007665000020430000686100006e670000ed
:1027100065000000496e0000766100006c690000f1
:10272000642000004d6f000076650000204100002d
:1027300066740000657200002045000076650000a8
:102740006e740000004d00006f76000065200000f0
:10275000496e0000746f0000204c0000696d00009d
:10276000697400000031000035000000496e00006f
:10277000766100006c690000642000004f7000006a
:102780004d6f000064650000204100006674000089
:102790006572000020450000766500006e74000040
:1027a000004900006e760000616c00006964000062
:1027b000204900006e730000747200007563000011
:1027c000746900006f6e0000204300006f6e00000f
:1027d0007465000078740000000000000d0a00001d
:1027e0004e7500006d2000006d65000073730000e1
:1027f0006167000065730000203d00002025000097
:10280000640000000d0a00004d7300006720000006
:102810006e7500006d620000657200003a200000d5
:1028200025640000000d00000a2000002054000074
:10283000782000006c6500006e2000003d20000044
:1028400025640000000d00000a200000204d00005b
:102850007367000020540000783a00002000000058
:1028600025780000200000000d0a00002020000054
:102870004d7300006720000052780000206c0000bb
:10288000656e0000203d000020250000640000006f
:102890000d0a0000202000004d730000672000009a
:1028a000527800003a200000000d00000a200000cd
:1028b0002053000074610000747500007320000054
:1028c0003d2000002564000000200000205400008e
:1028d000535400003130000031000000415000002e
:1028e0005420000053740000657000007065000003
:1028f000722000004d6f0000746f00007220000015
:10290000436f00006e740000726f00006c6c00007a
:1029100065720000002000000045000045570000df
:102920007269000074650000004500004556000013
:1029300065720000696600007900000081040000f3
:102940000e000000815000000000000000000000a8
:102950000000000000000000000000000000000077
:102960000000000030310000323300003435000038
:10297000363700003839000041420000434400006f
:082980004546000000000000c4
:020000040000fa
:102988003600f800809fbe00829fbe00849fbe0074
:10299800869fbe000000fa001d3007000080fa0084
:1029a8004f03be004f02be004f01be004f00be00e5
:1029b8003600f900004006003600f800809fbe008f
:1029c800829fbe00849fbe00869fbe000000fa0062
:1029d800453007000080fa004f03be004f02be00da
:1029e8004f01be004f00be003600f900004006004f
:1029f8003600f800809fbe00829fbe00849fbe0004
:102a0800869fbe000000fa00822f07000080fa00af
:102a18004f03be004f02be004f01be004f00be0074
:102a28003600f900004006003600f800809fbe001e
:102a3800829fbe00849fbe00869fbe000000fa00f1
:102a4800ab2f07000080fa004f03be004f02be0004
:102a58004f01be004f00be003600f90000400600de
:102a68003600f800809fbe00829fbe00849fbe0093
:102a7800869fbe000000fa00122e07000080fa00b0
:102a88004f03be004f02be004f01be004f00be0004
:102a98003600f900004006003600f800809fbe00ae
:102aa800829fbe00849fbe00869fbe000000fa0081
:102ab800ae2907000080fa004f03be004f02be0097
:102ac8004f01be004f00be003600f900004006006e
:102ad8000000fa0037300700c09b8800d4e2a80045
:102ae800cc82a800b52f070000202c001100200080
:102af8002b2f0700c92d070046310700b431070006
:102b08007c310700a3310700b81507000080fa00e0
:102b1800000006002e00fa000000eb0010079800e5
:102b280020408000e6004700801f7800e03e290032
:102b3800801f780001007800d4260700e48757003a
:102b48006600470061250700670037009e00900077
:102b58001e0090000000e80010079800660147007a
:102b6800811f780020402900801f7800020078002b
:102b7800c6260700e487570066004700532507006c
:102b88001e00780010009000e6004700801f7800c3
:102b980030412900801f780001007800bb2607001b
:102ba800e48757006600470048250700304229009f
:102bb800462507000000eb002007980012003700a8
:102bc8002e0090009e007800640040000100400044
:102bd800104078000000fb00e6004700801f7800e6
:102be80000432900801f780001007800a72607000d
:102bf800e487570066004700342507002e00900040
:102c08000000e800200798002e0090009e00780041
:102c180091009000810f5000e9ff39001e007800f4
:102c280010089000e6004700801f78004043290004
:102c3800801f78000100780094260700e487570079
:102c48006600470021250700804429001f2507004a
:102c58000000eb0020079800120037002e009000bb
:102c68009e00780076004000010040001040780087
:102c78000000fb00e6004700801f780000432900a1
:102c8800801f78000100780080260700e48757003d
:102c9800660047000d2507002e0090000000e800a0
:102ca800200798002e0090009e0078009108900060
:102cb800810f5000e9ff39001e00780000089000dd
:102cc800e6004700801f780050452900801f7800e3
:102cd800010078006d260700e4875700660047006a
:102ce800fa240700e62a0700982b0700000f78004f
:102cf8001e00e00095ff3a0010002000c8280700d9
:102d08000080fa00000006000400fa000000eb0052
:102d1800900188000000eb001000ba00100798002e
:102d28000000eb001080ba00000f78001e00780049
:102d380001002000c001dd00020020001e009000fc
:102d48000100200000007100818071000080fa00fd
:102d5800000006000c00fa001007980021079800f0
:102d68003207980043079800e0f32000000f78002e
:102d7800615e800000072000808f50000400320050
:102d8800615e800050072000808f500003003a00e9
:102d98000000eb00500798003c0037001e00780048
:102da80020109000610060000000e0001800320070
:102db8001e009000ae009000e00f5000e08f580019
:102dc80008003a003e009000ce009000e00f50004e
:102dd800e08f58000e003d001000200050079800ba
:102de8002a0037001e00780020019000b0019000f2
:102df8001e009000ae009000800f5100818f590096
:102e08000300340010002000500798001f0037000e
:102e18001e00780020109000640060000000e000b0
:102e2800180032001e009000ae009000e00f500025
:102e3800e08f580008003a003e009000ce00900055
:102e4800e00f5000e08f58000e0034001000200002
:102e5800500798000d0037001e00780020019000f0
:102e6800b00190001e009000ae009000800f51004d
:102e7800818f590003003d00100020005007980082
:102e8800020037000000eb00500798005e00900039
:102e98000080fa0000000600a600fa00881f7800eb
:102ea8006000b80070079800010f98000000eb0060
:102eb800600798000000eb0050079800a0dc200095
:102ec8004007980080e3200030079800c0bc20002d
:102ed80020079800e0f1200010079800e0f3200098
:102ee800000f7800002a21001000780000179800d1
:102ef800a4d2bf000074a100405f980080022000a7
:102f08000e00400030179800800220000e0040009c
:102f18006600400020179800602a210010179800ca
:102f28003e109000e30040000040eb00804878002d
:102f38003e109000e400400010c0b30080487800c4
:102f48003e109000e500400000c5b30080487800be
:102f58000040eb00305f98000e109000708f9800d2
:102f680000442000fe889000808f50001903320032
:102f7800004420007e899000800f510086003e00aa
:102f880090402000fe899000808f51001b02320083
:102f9800904020007e8a9000800f52003a003e0048
:102fa80000062000fe889000808f50004501320006
:102fb800000620007e899000800f510014003e001a
:102fc800fe899000f28f5100750132007e8a9000d0
:102fd800f20f520007003e007e889000e50f500077
:102fe800f9003200fe889000f18f50006301320032
:102ff800f30937007e899000f40f51002709320049
:10300800fe899000f58f5100c2093200ec093700a3
:10301800302120007e8a9000800f52006601320025
:1030280030212000fe889000808f500009003e006b
:10303800002120007e899000800f51009501320008
:1030480010212000fe899000808f5100bc013200c1
:10305800db093700302220007e8a9000800f520062
:103068001501320090222000fe889000808f5000c9
:103078002e013200402120007e899000800f5100ef
:1030880067013200ce09370070412000fe899000a8
:10309800808f510063053200704120007e8a9000c5
:1030a800800f52001e003e0010412000fe88900054
:1030b800808f50000a023200104120007e89900063
:1030c800800f510009003e00a0402000fe899000ba
:1030d800808f5100d6013200004120007e8a900086
:1030e800800f5200f1013200b5093700404120003d
:1030f800fe889000808f50004b0232006041200013
:103108007e899000800f510029053200304120004f
:10311800fe899000808f510030023200a8093700e4
:10312800604220007e8a9000800f52009f0132008a
:1031380060422000fe889000808f500009003e0009
:10314800304220007e899000800f51005b023200df
:1031580040422000fe899000808f510070023200aa
:1031680097093700a04320007e8a9000800f520004
:103178001d033200b0432000fe889000808f50006d
:103188002a033200904220007e899000800f51006f
:10319800f90132008a09370020492000fe89900091
:1031a800808f5100f0013200204920007e8a900073
:1031b800800f520040003e0000452000fe8890002d
:1031c800808f5000ca033200004520007e8990009d
:1031d800800f51001a003e0050442000fe899000e4
:1031e800808f51002c033200504420007e8a9000ca
:1031f800800f520009003e0010442000fe88900015
:10320800808f500088023200304420007e89900070
:10321800800f5100ad023200690937006044200078
:10322800fe899000808f51002103320080442000e5
:103238007e8a9000800f5200370332006009370001
:1032480070452000fe889000808f500037043200bf
:10325800704520007e899000800f510009003e00d3
:1032680010452000fe899000808f5100a70332008e
:10327800304520007e8a9000800f5200be03320045
:103288004f093700a0462000fe889000808f50002c
:1032980017053200004920007e899000800f5100f8
:1032a800ae01320050462000fe899000808f510008
:1032b8009e04320042093700904b20007e8a90001d
:1032c800800f5200a6073200904b2000fe88900025
:1032d800808f50001e003e00304b20007e899000f9
:1032e800800f51001b063200304b2000fe899000f1
:1032f800808f510009003e00004b20007e8a90001c
:10330800800f5200d8053200104b2000fe88900034
:10331800808f5000f505320029093700604b2000e6
:103328007e899000800f510026063200704b2000e5
:10333800fe899000808f510041063200404b2000ea
:103348007e8a9000800f5200060632001c09370062
:10335800304f2000fe889000808f50004a083200cd
:10336800304f20007e899000800f510009003e00f8
:10337800604e2000fe899000808f51005407320073
:10338800704e20007e8a9000800f52001507320090
:103398000b093700504f2000fe889000808f5000a6
:1033a80056063200504f20007e899000800f510051
:1033b8004b063900e04f2000fe899000808f5100b5
:1033c80066063200fe083700be109000600020003c
:1033d800800878003e1090008080e80040c5b30067
:1033e800804878003e109000640140003e10900034
:1033f800640040009040780000c8b30000c070002e
:10340800004978002e1090000403210029000900cb
:10341800341878004005b1002e1190001075800016
:10342800217580000089be002e109000e400400045
:1034380050462900801f7800010078009324070077
:103448008f87e900ae10900000012000e00098008e
:103458002e119000500020003100200070019800cb
:10346800010998002e109000f2004000e046290063
:10347800801f780001007800842407008f87e90006
:10348800ae10900030002000f0209800ae109000a0
:103498001000200090289800ae1090000000eb006b
:1034a8008028980010c0b300305f980020002000ea
:1034b800d09b8800c408370010002000b07f880027
:1034c800c1083700a2d2bf00205f9800be1090004c
:1034d80010062000800878003e1090008080e800e8
:1034e8002e589000804878003e10900063004000fd
:1034f800608f98002e5890000004e00003003a0006
:1035080010c0b300205f99000200370021c0b3004b
:10351800215f9900ae5991006e89900003497800a7
:1035280010c0b300305f9800a7083700a3d2bf00cf
:1035380038efb700be109000002320008008780004
:103548003e1090008080e8000040eb008048780042
:103558003e109000e30040000040eb0080487800f7
:103568003e109000e500400038cfbf00804878004a
:1035780010c0b300305f9800930837001e01780030
:10358800d2089000002020000080700050099800a8
:103598009e0078000000eb00f00898008a083700c9
:1035a8001e017800d2089000f0df2f000080600034
:1035b8005009980084083700a2d2bf000000fb0021
:1035c800610060000004e000070032004e00900037
:1035d800b018900000402000808070004e009000dd
:1035e80031189800060037004e009000b01890007f
:1035f800f0bf2f00808060004e00900031189800c6
:103608004e00900030189000801f7800200a20009b
:10361800801f780061290700e48757006a0837008f
:10362800be10900050212000800878001e0078000d
:10363800300890004a00de00e10060004e00900073
:10364800301890004a00de0061006000808f500052
:1036580005003a003e1090008080e80010c0b300da
:1036680080487800040037003e1090008080e80011
:103678000040eb00804878003e109000e3004000d6
:103688000040eb008048780010c0b300305f98001d
:103698004d083700a3d2bf008000fb00f00f2000c8
:1036a80000806000e10f500014003a00b248290081
:1036b800010028000000eb00d20a07001e01780074
:1036c800d2089000f07f2f00008060005009980019
:1036d8009e007800510890000020a000d0089800b3
:1036e8001e017800d2089000004020000080700081
:1036f80050099800c4e2a900330837001e01780079
:10370800d2089000b0ff2f00008060005009980098
:103718001e017800d2089000f0ff2d0000806000a4
:10372800500998001e017800d2089000f0bf2f00c1
:103738000080600050099800c4e2a8002208370001
:10374800be10900020212000800878003e109000d4
:103758008080e80010c0b300804878003e109000d8
:1037680063004000408f98001e007800d008900049
:1037780000402000008060000000e00003003200ec
:1037880014c0b300645799000200370020c0b3008a
:10379800605799006e519100ce8890008248780059
:1037a80010c0b300305f9800070837001e10900063
:1037b800a00090003e009000013098001e1090007c
:1037c800900090003e009000113098003e0090005c
:1037d80000309000ec1307003e009000103090007d
:1037e8001b150700271907005619070011002000ac
:1037f800500d2000c1110700f30737001e1090007c
:1038080010019000a0019000320f9800430f98001b
:103818003e089000ce089000809fbe00d004200093
:10382800801f7800dd280700e6875700e607370085
:10383800be109000b0402000800878003e10900034
:103848008080e80060c0b300804878003e10900097
:10385800640140003e1090006400400090407800f1
:1038680000c8b30000c0700000497800ae10900096
:1038780010002000800878001e00780020019000c9
:10388800b0019000320f9800430f98002e1090005e
:103898003e099000ce09900012009800230098007d
:1038a80010c0b300305f9800c70737001e109000a3
:1038b80010019000a0019000320f9800430f98006b
:1038c8003e089000ce089000809fbe00d0042000e3
:1038d800801f7800b1280700e6875700ba0737002d
:1038e800be10900020412000800878003e10900013
:1038f8008080e80060c0b300804878003e109000e7
:10390800640140003e109000640040009040780040
:1039180000c8b30000c0700000497800ae109000e5
:1039280010002000800878001e0078002001900018
:10393800b0019000320f9800430f98002e109000ad
:103948003e099000ce0990001200980023009800cc
:1039580010c0b300305f98009b0737001048200064
:103968008b080700980737009e0078000000eb00de
:10397800f008980094073700be109000a04220007d
:10398800800878003e1090008080e80060c0b30096
:10399800804878003e109000640140003e1090007e
:1039a800640040009040780000c8b30000c0700078
:1039b80000497800ae1090001000200080087800c0
:1039c8002e149000e00807001004980021049800c5
:1039d80010c0b300305f98007b0737001e109000be
:1039e800c0009000300090003e0190004001980017
:1039f800510198003e009000d000900040009000d7
:103a08003e01900060019800710198001e1090001e
:103a1800e0009000500090003e01900000099800de
:103a28001109980068073700be1090005041200027
:103a3800800878003e1090008080e800e0c0b30065
:103a4800804878003e109000640140003e109000cd
:103a5800640040009040780000c8b30000c07000c7
:103a680000497800ae10900010002000800878000f
:103a78002e1190006000b8001001980021019800f4
:103a88002e1190003e009000d00090004000900061
:103a980030019800410198002e1190003e009000de
:103aa800900890000008900050019800610198006b
:103ab80010c0b300305f9800430737001e10900015
:103ac800900090003e009000112898001e10900071
:103ad800a00090003e009000212898001e10900041
:103ae800c0009000300090003e01900030299800fe
:103af800412998001e109000e000900050009000ae
:103b08003e01900050299800612998001e109000ed
:103b1800f00090003e009000712898002a073700b6
:103b2800be10900050422000800878003e1090009f
:103b38008080e80000c1b300804878003e10900003
:103b4800640140003e1090006400400090407800fe
:103b580000c8b30000c0700000497800ae109000a3
:103b68001000200080087800ae1090003e00900001
:103b78001028900090009800ae1090003e00900031
:103b880020289000a00098002e1190003e00900080
:103b9800c02890003028900030019800410198001a
:103ba8002e1190003e009000e028900050289000d0
:103bb8005001980061019800ae1090003e009000fe
:103bc80070289000f000980010c0b300305f980093
:103bd800fd0637001e109000c000900030009000d5
:103be8003e01900070119800011998001e10900075
:103bf800900090003e009000311898001e10900030
:103c0800a00090003e009000411898001e109000ff
:103c1800e0009000500090003e019000501998007c
:103c280061199800e8063700be1090002044200073
:103c3800800878003e1090008080e800e0c0b30063
:103c4800804878003e109000640140003e109000cb
:103c5800640040009040780000c8b30000c07000c5
:103c680000497800ae10900010002000800878000d
:103c7800ae1090003e009000301890009000980020
:103c8800ae1090003e00900040189000a0009800f0
:103c98002e1190003e009000801890007010900047
:103ca80030019800410198002e1190003e009000cc
:103cb800e018900050189000500198006101980099
:103cc80010c0b300305f9800bf0637001e007800b0
:103cd800d008900000002200008060000000e00092
:103ce800b9063a009e009000600020008008780025
:103cf8001e0190000000200001002400100198001f
:103d0800210198001e0190006000b8003001980061
:103d1800410198003e01900070082a00010020002f
:103d280010199800211998003e009000a0189000e2
:103d3800101890001e019000500198006101980031
:103d48003e00900080189000701090001e019000b6
:103d580070019800010998003e009000b01890008a
:103d68001e009000310898001e0190006000b80005
:103d780010099800210998009e0090000000eb00af
:103d8800c00898009e00780010002000e008980005
:103d98001e017800d2089000000022000080700008
:103da800500998001e017800d2089000f0ff2b00ff
:103db80000806000500998001e017800d208900029
:103dc8000002200000807000500998003e0090001a
:103dd80080189000701090001e01900070019800eb
:103de80001099800780637001e109000a000900086
:103df800100090003e019000501198006111980049
:103e08003e009000e010900050109000e00f50002d
:103e1800e08f58006c063d003e0190006000b8003d
:103e2800501198006111980067063700be10900085
:103e3800c0432000800878003e1090008080e80091
:103e480060c0b300804878003e10900064014000d4
:103e58003e109000640040009040780000c8b30015
:103e680000c0700000497800ae10900010002000db
:103e7800800878002e1190003e009000e01090001d
:103e880050109000100198002101980010c0b30054
:103e9800305f98004c0637001e109000a00090007c
:103ea80010009000c23721000089be004606370086
:103eb800be10900070442000800878003e109000ea
:103ec8008080e80060c0b300804878003e10900011
:103ed800640140003e10900064004000904078006b
:103ee80000c8b30000c0700000497800ae10900010
:103ef80010002000800878002e119000c0372100a3
:103f08001000be00100198002101980010c0b300f5
:103f1800305f98002c0637001e007800d00890000b
:103f280000002400008060000000e000060032006d
:103f38001e007800d0089000000022000080600079
:103f48000000e00020063a001e007800d00890002b
:103f580000002200008060000000e0000400320041
:103f68001e00900040089000e20f50001606320034
:103f78001e00780020019000b0019000320f9800d8
:103f8800430f98001e10900010019000a0019000af
:103f98003e089000ce089000000041008180490052
:103fa800300f9800410f98006011b8003e0890004b
:103fb800ce08900067fb0700500798005e0090004d
:103fc800e10f5000000632001e017800d208900070
:103fd8000000220000807000500998001e0178003f
:103fe800d2089000f0ff2b00008060005009980074
:103ff8001e017800d2089000d0ff2f0000806000da
:10400800500998009e009000100020008008780059
:104018001e0090003e099000ce0990001200980002
:10402800230098001e00900010019000a00190004d
:104038001e007800b000900020009000800f510012
:10404800818f590006003d003e00900050119000fd
:10405800e0119000128f9800238f9800030037001a
:104068006000b800108f9800218f98001e00900003
:104078001e899000ae899000320098004300980095
:104088003e009000d0009000400090001e0190007b
:1040980050019800610198003e009000900890003f
:1040a800000890001e019000700198000109980016
:1040b8003e009000b0089000200890001e0190007b
:1040c80010099800210998003e009000c00890004f
:1040d8001e009000410898009e007800510890004a
:1040e8000030a000d008980060160700b605370019
:1040f8001e109000a000900010009000c237210010
:104108002001980031019800af053700be109000db
:1041180020452000800878003e1090008080e8004c
:1041280060c0b300804878003e10900064014000f1
:104138003e109000640040009040780000c8b30032
:1041480000c0700000497800ae10900010002000f8
:10415800800878002e119000c0372100b000900030
:1041680020009000100198002101980010c0b300b1
:10417800305f9800940537001e007800d008900042
:1041880000002400008060000000e000060032000b
:104198001e007800d0089000000022000080600017
:1041a8000000e00088053a001e007800d008900062
:1041b80000002200008060000000e00004003200df
:1041c8001e00900040089000e20f50007e0532006b
:1041d8001e10900010019000a0019000320f98006e
:1041e800430f98006011b8003e089000ce08900078
:1041f800d8fa0700500798005e009000e10f5000c1
:10420800710532001e017800d208900000002200db
:1042180000807000500998001e017800d2089000b4
:10422800f0ff2b0000806000500998001e01780004
:10423800d2089000d0ff2f0000806000500998003d
:104248009e00900010002000800878001e0090005a
:104258003e099000ce0990001200980023009800b3
:104268001e00900010019000a00190001e00780030
:10427800b000900020009000800f5100818f5900fd
:1042880006003d003e00900050119000e0119000a3
:1042980072879800038f9800030037006000b80009
:1042a80070879800018f98001e0090007e81900012
:1042b8008e89900032009800430098003e009000dc
:1042c800d0009000400090001e019000500198001e
:1042d800610198003e00900090089000000890004e
:1042e8001e01900070019800010998003e0090009e
:1042f800b0089000200890001e0190001009980056
:10430800210998003e009000c00890001e0090000f
:10431800410898009e007800510890000030a000e5
:10432800d008980078150700270537001e00780088
:10433800d008900000002400008060000000e00029
:10434800060032001e007800d0089000000022000d
:10435800008060000000e0001b053a001e007800a5
:10436800d008900000002200008060000000e000fb
:10437800040032001e00900040089000e20f500038
:10438800110532003e00900090089000000890004f
:104398001e01900070019800010998001e0090000d
:1043a8007001900080099000120f9800230f980068
:1043b8001e099000ae0990006000b80065fa070079
:1043c800500798005e009000e10f5000fe04320094
:1043d8001e017800d20890000000220000807000c2
:1043e800500998001e017800d2089000f0ff2b00b9
:1043f80000806000500998001e017800d2089000e3
:10440800d0ff2f0000806000500998003e00900007
:1044180090089000000890001e019000700198001c
:10442800010998009e009000100020008008780084
:104438001e0090003e099000ce09900012009800de
:10444800230098001e0190006000b8003001980019
:10445800410198003e009000d0009000400090007c
:104468001e01900050019800610198003e009000e4
:1044780090089000000890001e01900070019800bc
:10448800010998003e009000b008900020089000b4
:104498001e01900010099800210998003e00900024
:1044a800c00890001e009000410898001e01780086
:1044b800d208900070ff2f0000806000500998001b
:1044c800a3d2bf008000fb00f00f20000080600036
:1044d800e10f500002003a00b1150700ba04370096
:1044e8001e00900070029000800a900084007800fe
:1044f8000080eb00000bb8000080eb0000a0b900c2
:1045080007017800000141000080eb0000a8b90015
:1045180000014100820378001e0090007600980098
:10452800070898009e150700a7043700a3d2bf000c
:104538008000fb00f00f200000806000e10f5000b9
:1045480002003a00210f0700010037001f0f070083
:104558001e017800d208900070ff2f0000806000d4
:10456800500998009e007800510890000040a00073
:10457800d00898009e009000500020008008780025
:104588001e00780060089000ed0f500004003a000b
:104598001e00780060089000700f98008a043700a9
:1045a8009e0078000000eb00e008980086043700c1
:1045b8001e10900010009000800078003e009000cf
:1045c800510898001e109000b00090002000900044
:1045d8003e01900060099800710998001e10900033
:1045e800f0009000600090003e01900000119800db
:1045f800111198001e10900090089000000890007b
:104608003e01900020119800311198001e10900072
:1046180020089000800078003e009000411098002b
:1046280069043700be10900080412000800878009f
:104638003e1090008080e80060c1b3008048780098
:104648003e109000640140003e109000640040005d
:104658009040780000c8b30000c07000004978009e
:10466800ae1090001000200080087800ae10900076
:104678003e00900050089000900098002e11900085
:104688003e009000f008900060089000200198001b
:10469800310198002e1190006000b8004001980088
:1046a800510198002e1190003e009000901090004b
:1046b8000010900060019800710198002e11900080
:1046c8003e009000b0109000201090000009980063
:1046d80011099800ae1090003e0090004010900024
:1046e800a008980010c0b300305f98003604370067
:1046f8001e007800d00890000000240000806000b0
:104708000000e000060032001e007800d00890008b
:1047180000002200008060000000e0002a043a0047
:104728001e007800d0089000000022000080600081
:104738000000e000040032001e00900040089000d5
:10474800e20f5000200432001e017800d2089000c9
:104758000000220000807000500998001e017800b7
:10476800d2089000f0ff2b000080600050099800ec
:104778001e017800d208900000002100008070001f
:10478800500998001e017800d2089000d0ff2f0031
:1047980000806000500998009e00900010002000e2
:1047a800800878001e0190006000b8003001980071
:1047b800410198003e009000901090000010900079
:1047c8001e01900050019800610198003e00900081
:1047d800b0109000201090001e0190007001980009
:1047e800010998003e009000b00890002008900051
:1047f8001e01900010099800210998003e009000c1
:10480800c00890001e009000410898003e009000eb
:1048180050089000e10f500047003a003e00900019
:10482800b0109000201090001e01900070019800b8
:10483800010998001e009000700190008009900006
:10484800120f9800230f9800a3d2bf008000fb002e
:10485800f00f200000806000e10f500011003a00c6
:104868001e099000ae0990006000b80039f90700f1
:10487800500798005e009000e10f500006003a00d3
:104888001e017800d2089000f0ff2d000080600023
:1048980050099800cc03370030002000831307002c
:1048a8001f0037009e0890000080eb00000ab80047
:1048b8009e0890000080eb000088b9000501780090
:1048c80000014100ae0890000080eb000088b900ac
:1048d8000001410082027800140f9800250f98000b
:1048e8001e099000ae0990006000b80019f9070091
:1048f800500798005e009000e10f500006003a0053
:104908001e017800d2089000f0ff2d0000806000a2
:1049180050099800ac0337005000200063130700cb
:104928001e017800d208900070ff2f000080600000
:1049380050099800a4033700a3d2bf008000fb00f1
:10494800f00f200000806000e10f500021003a00c5
:104958001e00780020019000b00190003e009000f9
:10496800f008900060089000020040008380480032
:104978001e01900010019800210198001e0090006f
:1049880010019000a0019000320f9800430f98008a
:104998006011b8003e089000ce089000edf80700be
:1049a800500798005e009000e10f500006003a00a2
:1049b8001e017800d2089000f0ff2d0000806000f2
:1049c8005009980080033700400020003713070083
:1049d800200037001e00780020019000b0019000f0
:1049e8003e009000f0089000600890000000510020
:1049f800818059001e019000100198002101980043
:104a08001e00900010019000a0019000320f980045
:104a1800430f98006011b8003e089000ce0890003f
:104a2800ccf80700500798005e009000e10f500096
:104a380006003a001e017800d2089000f0ff2d0011
:104a480000806000500998005f0337006000200074
:104a5800161307001e007800d00890000130a0004f
:104a680051089800580337001e109000b0009000bd
:104a780020009000607e8800717e8800607e800043
:104a8800717e800070079800010f98007e009000ea
:104a98008e08900000979800119798000e9190004a
:104aa8009e919000e00f5100e08f590006003d00f4
:104ab8000e9090009e909000f01fb0000180b00012
:104ac80000979800119798000e9190009e91900081
:104ad800471add004910de0000007200c998de00a8
:104ae800807e8800917e880037033700be109000d2
:104af800204b2000800878003e1090008080e8005d
:104b0800a0c1b300804878003e10900064014000c6
:104b18003e109000640040009040780000c8b30048
:104b280000c0700000497800ae109000100020000e
:104b3800800878002e119000607e8000717e8000d1
:104b4800200198003101980010c0b300305f980030
:104b58001d0337001e10900010009000c07e8800d2
:104b680019033700be109000504b200080087800d1
:104b78003e1090008080e80040c0b3008048780074
:104b88003e109000640140003e1090006400400018
:104b98009040780000c8b30000c070000049780059
:104ba800ae1090001000200080087800ae10900031
:104bb800c07e80009000980010c0b300305f98005d
:104bc80001033700d07e8000600798001e10900017
:104bd80010009000d07e8800ee009000d07e80000b
:104be800808f50000200320030002000b07f880023
:104bf8001e10900010009000d07e88001e109000bb
:104c0800b000900020009000e07e8800f17e8800cf
:104c18001e109000d000900040009000007f880097
:104c2800117f88001e10900060009000207f88008f
:104c38001e10900070009000307f8800e20237005c
:104c4800be109000804b2000800878003e10900035
:104c58008080e80000c1b300804878003e109000d2
:104c6800640140003e1090006400400090407800cd
:104c780000c8b30000c0700000497800ae10900072
:104c88001000200080087800ae109000d07e8000d0
:104c9800900098002e119000e07e8000f17e800048
:104ca80020019800310198002e119000007f8000ab
:104cb800117f80004001980051019800ae109000cb
:104cc800207f8000e0009800ae109000307f8000c8
:104cd800f000980010c0b300305f9800ba023700a7
:104ce8001e10900010009000307c880011002000f9
:104cf80080082000810c0700b3023700be10900026
:104d0800604f2000800878003e1090008080e80006
:104d180040c0b300804878003e1090006401400015
:104d28003e109000640040009040780000c8b30036
:104d380000c0700000497800ae10900010002000fc
:104d480080087800ae109000307c800090009800b9
:104d580010c0b300305f98009b023700212a210061
:104d68009140780000c2b30080cf500006003a009e
:104d780000022000605e88009e0078000000eb00c2
:104d8800b010980090023700212a21009140780045
:104d980010c2b30080cf500006003a001002200075
:104da800605e88009e0078000000eb00b01098005c
:104db80085023700212a21009140780020c2b300e3
:104dc80080cf500006003a0020022000605e880074
:104dd8009e0078000000eb00b01098007a023700bf
:104de800212a21009140780000c3b30080cf5000f1
:104df80006003a0000032000605e88009e007800ec
:104e08000000eb00b01098006f023700212a210043
:104e18009140780010c3b30080cf500006003a00dc
:104e280010032000605e88009e0078000000eb0000
:104e3800b010980064023700212a210091407800c0
:104e480020c3b30080cf500006003a0020032000a2
:104e5800605e88009e0078000000eb00b0109800ab
:104e680059023700212a21009140780000c4b3007c
:104e780080cf500006003a0000042000605e8800e1
:104e88009e0078000000eb00b01098004e0237003a
:104e9800212a21009140780010c4b30080cf50002f
:104ea80006003a0010042000605e88009e0078002a
:104eb8000000eb00b010980043023700212a2100bf
:104ec8009140780020c4b30080cf500006003a001b
:104ed80020042000605e88009e0078000000eb003f
:104ee800b010980038023700212a2100914078003c
:104ef80000c5b30080cf500006003a00000520002e
:104f0800605e88009e00780010002000b0109800b5
:104f18002d023700212a21009140780010c5b300e6
:104f280080cf500008003a0010052000605e88001d
:104f38009e00780010002000b0109800605e80008d
:104f48006007980020023700212a2100914078004c
:104f580000c7b30080cf500008003a0000072000c7
:104f6800605e88009e00780010002000b010980055
:104f7800605e80006007980013023700212a210034
:104f88009140780010c7b30080cf500008003a0065
:104f980010072000605e88009e0078000000eb008b
:104fa800b0109800605e8000600798000602370025
:104fb800212a21009140780050c7b30080cf5000cb
:104fc80001023a0050072000605e88009e007800c9
:104fd8000000eb00b0109800605e80006007980049
:104fe800f9013700be109000804e2000800878003c
:104ff8003e1090008080e80040c1b30080487800ef
:105008003e109000640140003e1090006400400093
:105018009040780000c8b30000c0700000497800d4
:10502800ae10900010002000800878002e1190002b
:105038003e009000802090007018900010019800a9
:10504800210198002e1190003e009000a0209000b1
:105058001020900030019800410198002e11900016
:105068003e009000c0209000302090005001980031
:10507800610198002e1190003e009000e020900001
:105088005020900070019800010998002e1090009f
:10509800608798003e009000702090000000e000bb
:1050a80003003200210020005187980002003700d9
:1050b80012002000528798005e829000ee819000d6
:1050c8009409980010c0b300305f9800be01370003
:1050d8001e109000a0009000100090003e0190006b
:1050e80070199800012198001e109000c0009000cf
:1050f800300090003e019000102198002121980076
:105108001e109000e0009000500090003e019000ba
:1051180030219800412198001e10900080089000ce
:10512800700090003e019000502198006121980085
:105138001e109000100890008000eb004187980036
:10514800e20f500002003a00120020004287980047
:105158003e009000ce819000732098009a0137009d
:10516800605e80007075880050a52a0080758800f0
:105178006c0207001e10900010029000041798009f
:105188000e10900020979800a0432000ae90900049
:10519800808f50005b003200a04320002e919000c9
:1051a800800f510016003e0060412000ae91900033
:1051b800808f510038003200604120002e9290000c
:1051c800800f520005003e0030412000ae90900054
:1051d800808f500020003200a500370030422000a8
:1051e8002e919000800f510066003200604220002e
:1051f800ae919000808f5100950032009c003700de
:10520800004b20002e929000800f52008400320044
:10521800004b2000ae909000808f500005003e00ab
:10522800004420002e919000800f5100420032006f
:105238008f003700304b2000ae919000808f5100d6
:105248007e003200604b20002e929000800f5200aa
:1052580062003200860037006000b8009075880050
:10526800a17588003e009000d0009000400090009a
:10527800b0758800c17588003e00900090089000c5
:1052880000089000d0758800e175880050a52a00b4
:10529800f0758800760037003e00900050089000b6
:1052a800007688003e009000f008900060089000aa
:1052b80010768800217688003e00900090109000bb
:1052c8000010900030768800417688003e009000fb
:1052d800b010900020109000507688006176880009
:1052e8006000b80070768800817688003e009000e3
:1052f800401090009076880050a52a00a07688007b
:105308005b0037003e009000e010900050109000c5
:10531800b0768800c17688003e009000e0109000ca
:1053280050109000d0768800e176880050a52a00b9
:10533800f07688004e0037003e009000301890004c
:10534800007788003e009000401890001077880091
:105358003e00900080189000701090002077880020
:10536800317788003e009000e018900050189000b7
:10537800407788005177880050a52a006077880018
:105388003b0037003e00900010289000707788009e
:105398003e00900020289000807788003e00900012
:1053a800c02890003028900090778800a177880066
:1053b8003e009000e028900050289000b0778800c8
:1053c800c17788003e00900070289000d077880050
:1053d80050a52a00e077880025003700d07e80009d
:1053e800f0778800e07e8000f17e800000788800f9
:1053f80011788800007f8000117f80002078880065
:1054080031788800207f800040788800307f8000d5
:105418005078880050a52a0060788800140037006a
:10542800607e8000717e800090788800a178880076
:1054380050a52a00b07888000d003700c07e800093
:105448007078880050a52a00807888000800370006
:105458003e00900000309000c07888003e00900028
:1054680010309000d078880050a52a00e078880095
:105478003000200011002000307588004175880038
:10548800a8010700d00037006000b80050758800f8
:1054980061758800a3010700cb0037001e1090003b
:1054a8001000be00308798003e809000ed0f50003d
:1054b8002b003200be809000ed8f50000a003c00a7
:1054c8003e819000e40f510015003200be8190002b
:1054d800ec8f51001b0032003e829000e20f520018
:1054e80026003200b80037003e809000ef0f5000d1
:1054f8002b003200be809000ef8f50002d00350049
:105508003e819000f00f5100340032000019200055
:10551800be819000808f51007b003200aa003700c6
:105528001e109000d000900040009000008188007c
:105538001181880011002000500d20006f0a07001b
:10554800a10037001e109000b000900020009000cd
:105558003e01900020119800311198009a00370000
:105568001e109000b0009000200090003e019000b6
:105578000011980011119800930037001e10900038
:10558800b0009000200090001075880021758800f8
:10559800640107000040eb00305f98008a00370084
:1055a8001e109000b000900020009000605e8800ff
:1055b800850037001e109000b00090002000900079
:1055c8007075880050a52a0080758800550107006d
:1055d8000040eb00305f98007b0037001e10900001
:1055e80020019000b001900072079800030f980006
:1055f8007e0090008e089000108798002187980000
:10560800b0002000010020001e819000ae819000b3
:10561800800f5100818f590033003e001e8090009a
:10562800ae809000006001000b0037000d003700cd
:105638000f0037001100370013003700150037003e
:1056480017003700190037001b0037001d0037000e
:105658001f003700210037007e009000e08088009e
:10566800230037007e009000e0808800200037008b
:105678007e009000e08088001d0037007e009000ca
:10568800e08088001a0037007e009000e0808800e3
:10569800170037007e009000e08088001400370073
:1056a8007e009000e0808800110037007e009000a6
:1056b800e08088000e0037007e009000e0808800bf
:1056c8000b0037007e009000e0808800080037005b
:1056d8007e009000e0808800050037007e00900082
:1056e800e0808800020037000000eb00e0808800be
:1056f80011002000400d2000000a07000040eb00c8
:10570800305f9800300037004007a9000000fe0015
:105718002d003700be10900060012000800878003e
:105728003e1090008080e80080c2b3008048780076
:105738003e109000640140003e109000640040005c
:105748009040780000c8b30000c07000004978009d
:105758008001eb00c20720008000eb0020ea200057
:10576800f42107000000eb00700f980009003700d3
:10577800ae1090007e0890004200dd00010140005c
:105788006000b8000089be007e0890000000e800b4
:10579800700f98007e089000e90f5000f4ff360063
:1057a8002e10900012758000237580000208980062
:1057b8001308980010c0b300305f9800020037004b
:1057c8000040eb00305f98003e5890000004e00075
:1057d80003003200800220000e004000ed25070083
:1057e8004f0478000080fa00000006000c00fa0060
:1057f8000000eb002007980080e3200010079800c5
:10580800e0f32000000f78008001eb00c2072000c1
:105818008000eb0020ea2000c6210700300798002e
:10582800f175800050a52a00808f50000a003a00c8
:10583800b0758000c17580001e019000400198007d
:1058480051019800d0758000e17580001e0190001c
:105858000009980011099800a176800050a52a0037
:10586800808f500015003a00017680001e009000dd
:105878005108980010768000217680001e01900063
:1058880060099800710998003076800041768000a0
:105898001e019000001198001111980050768000a8
:1058a800617680001e019000201198003111980047
:1058b800917680001e00900041109800f1768000db
:1058c80050a52a00808f50000a003a00b076800068
:1058d800c17680001e019000501198006111980057
:1058e800d0768000e17680001e019000501198006b
:1058f800611198006177800050a52a00808f5000c0
:1059080012003a0000778000800078001e009000a6
:105918003118980010778000800078001e009000f1
:105928004118980020778000317780001e01900090
:105938007011980001199800407780005177800015
:105948001e0190007011980001199800e1778000fd
:1059580050a52a00808f500016003a00707780000a
:10596800800078001e009000112898008077800041
:10597800800078001e009000212898009077800011
:10598800a17780001e0190003029980041299800d5
:10599800b0778000c17780001e01900050299800e0
:1059a80061299800d0778000800078001e00900060
:1059b800712898006178800050a52a00808f5000d7
:1059c8000e003a00f0778000d07e880000788000d2
:1059d80011788000e07e8800f17e880020788000c1
:1059e80031788000007f8800117f8800407880002f
:1059f800207f880050788000307f8800b178800050
:105a080050a52a00808f50001b003a009078800033
:105a1800a1788000607e8800717e8800607e8000aa
:105a2800717e800040079800510798004e00900052
:105a3800de009000e00f5000e08f580006003d00a7
:105a48004e019000de019000f21fb0000380b0000c
:105a580042079800530798004e019000de0190001d
:105a6800471add004910de0000007200c998de0008
:105a7800807e8800917e88008178800050a52a0069
:105a8800808f500002003a0070788000c07e880045
:105a9800e178800050a52a00808f500008003a0065
:105aa800c0788000800078001e00900001309800c7
:105ab800d0788000800078001e0090001130980097
:105ac8008175800050a52a00808f500013003a008d
:105ad80070758000605e8800605e80002007980016
:105ae800ae00900000052000808f500004003200b6
:105af800ae00900010052000808f500004003a008e
:105b08009e00780010002000b010980003003700b5
:105b18009e0078000000eb00b01098000080fa00aa
:105b2800000006000200fa00c20720008000eb0017
:105b380020ea200052210700000f78001000200002
:105b48009e0f100004003200d2482900014d2800a1
:105b58000000eb00ab01070013002000c207200083
:105b68008000eb0020ea2000f2200700000f7800f8
:105b78001e00e0000400320052492900014d2800af
:105b88000000eb009f0107000080fa0000000600fb
:105b98001a00fa00400f980064004700e149290004
:105ba80013000900315878004001b100e0f32000eb
:105bb800000f78001e007800f008900020032000f5
:105bc800808f500047003c00e400470000c5b30048
:105bd800d04098004e08900080407800640047004c
:105be800014878004e0890004800de0080407800a8
:105bf8006400470011409800ce08900040442000ff
:105c0800808f500009003a00e40047000040eb0094
:105c1800b0409800e400470010c0b300a0409800ce
:105c2800e400470010c0b300c0409800640047007b
:105c380066004000100798009e00900010002000a9
:105c480080087800507b8000617b80001e0178000e
:105c580020019800310198001e007800b0009000e3
:105c6800200090001e01900010019800210198006a
:105c7800707b8000817b8000800078001e007800a7
:105c8800610098001e007800600090008000780095
:105c98001e009000310098009e0090000000eb006c
:105ca800c0009800280007001e01900050019800cd
:105cb8006101980064004700b62407001e007800c0
:105cc800700890008000e8001e00780071089800b5
:105cd8001e007800700890008000e9001e0078001f
:105ce800710898000080fa00000006000800fa0019
:105cf8009e00780040442000800878009e80e800dc
:105d08000040eb00804878001e007800e300400067
:105d18000040eb00804878001e007800e400400056
:105d280010c0b300804878001e007800e5004000ed
:105d380000c5b300804878000e80e800952407006d
:105d48000080fa00000006000c00fa006000b800ad
:105d58002007980031079800e0f32000100798000a
:105d680080e32000000f78001e009000d00890000b
:105d780000402000008060000000e00008003200c1
:105d88002e009000be0090000200200003002800b2
:105d98000200700083807000200798003107980087
:105da8001e00900060089000ed0f500009003a00b6
:105db8002e009000be00900002402000030020004a
:105dc8000200700083807000200798003107980057
:105dd8000c0037001e009000600890000000e000f2
:105de800080034002e009000be0090000220200021
:105df80003002000020070008380700020079800d4
:105e0800310798001e009000d00890000080200004
:105e1800008060000000e000080032002e009000c2
:105e2800be00900002002000030024000200700061
:105e38008380700020079800310798001e009000aa
:105e4800d008900000002200008060000000e00000
:105e580006003a001e009000d008900000002400c0
:105e6800008060000000e0000d0032002e0090006d
:105e7800be0090000040a00020079800310798005d
:105e88002e019000be0190000002200001002000b9
:105e98000000710081807100200798003107980088
:105ea8001e009000100890004700de0061006000ae
:105eb8000004e000080032002e009000be009000b0
:105ec800020022000300200002007000838070009e
:105ed80020079800310798001e00900020089000c5
:105ee8004400de00610060000004e0000d003200a4
:105ef8001e00900050089000640060000000e00060
:105f0800080032002e009000be009000020024001d
:105f180003002000020070008380700020079800b2
:105f2800310798001e009000200890004700de000e
:105f3800610060000004e000080032002e009000bc
:105f4800be0090000200280003002000020070003c
:105f58008380700020079800310798001e00900089
:105f6800200890004800de00610060000004e000a6
:105f7800080032002e009000be00900002002000b1
:105f88001300200002007000838070002007980032
:105f9800310798001e009000200890004900de009c
:105fa800610060000004e000080032002e0090004c
:105fb800be009000020020002300200002007000b4
:105fc8008380700020079800310798001e00900019
:105fd800200890004b00de00610060000004e00033
:105fe800080032002e009000be0090000200200041
:105ff8008300200002007000838070002007980052
:10600800310798001e009000200890004a00de002a
:10601800610060000004e000080032002e009000db
:10602800be00900002002000430020000200700023
:106038008380700020079800310798001e009000a8
:10604800400890000000d100610060000004e000fa
:10605800080032002e009000be00900002002000d0
:106068000310200002007000838070002007980051
:10607800310798001e009000d00890000000210011
:10608800008060000000e000150032001e00900053
:10609800600090000000e0000500340000042000cb
:1060a80001002000400798005107980004003700bd
:1060b80002082000030020004207980053079800b8
:1060c8002e009000be0090004e019000de0190006e
:1060d8000200700083807000200798003107980044
:1060e8001e00780010289000e20f50000b003a00c4
:1060f8001e00900020109000610060000000e00089
:10610800140032002e009000be0090000000a00095
:1061180020079800310798000e0037001e0078000d
:1061280010289000e30f50000a003a001e0090006b
:1061380020109000610060000000e00005003a00b7
:106148002e009000be0090000000a00020079800dc
:10615800310798001e00780020289000e20f5000b8
:106168000b003a001e0090002010900064006000b0
:106178000000e000140032002e009000be009000e5
:106188000010a00020079800310798000e00370083
:106198001e00780020289000e30f50000a003a0003
:1061a8001e00900020109000640060000000e000d5
:1061b80005003a002e009000be0090000010a000dc
:1061c8002007980031079800f92307000000e00035
:1061d80008003a002e009000be0090000200200047
:1061e80003012000020070008380700020079800df
:1061f800310798002e009000be0090000080fa0041
:10620800000006006800fa0000379800113798006f
:1062180022379800219c80001e309000810f50008a
:106228003e003200660047002007980066004700dd
:106238006600400010079800ae009000100820008b
:10624800800878002e0090008080e80040c4b300e9
:10625800804878002e009000e30040000040eb00ea
:10626800804878002e009000e400400010c8b30079
:10627800804878002e009000e500400000c5b3007b
:10628800804878009e0090000e30900080087800ca
:106298009e0090001e309000900098000000eb00d7
:1062a800000f78009e0190009e0078002e3090002c
:1062b80010417800648040000300400002487800e4
:1062c8001e0fe8002e3090001040780060e798001c
:1062d8006ee090000004e0000200320010c0b3003d
:1062e80060e798006ee09000ae3090008100e80012
:1062f800213798000004e000eaff3a009e30900041
:1063080000002800808f5000020032002e0090000c
:10631800202307001e309000209c88000080fa008f
:10632800000006001800fa00200f98006000b8006e
:10633800000f9800110f98006000b80060079800df
:10634800710798006000b80040079800510798004e
:106358000000eb003007980080e320002007980039
:10636800e0f1200010079800e0f32000000f78000b
:106378002e089000300f9800be089000f08f500053
:10638800a00132003e099000f00f51000a003c00c5
:10639800be099000e18f5100d60132003e089000fe
:1063a800e60f500051013200be0890000100e000e5
:1063b8000c02320017023700000420003e0990004a
:1063c800800f5100ac00320000042000be0990008c
:1063d800808f510005003c0000022000be0890009c
:1063e800808f5000eb0032000a02370000062000c0
:1063f8003e099000800f5100540032000008200030
:10640800be099000808f5100010032000102370060
:10641800c07a800001002200010060000000e00056
:10642800040032006000b800000f9800110f9800b7
:10643800f80137001e00780020019000b00190009c
:106448002e009000f00890006008900002004000c4
:10645800838048001e0190001001980021019800d7
:106468001e00900010019000a001900062079800a3
:10647800730798006011b8006e009000fe0090004d
:1064880034f20700300798003e009000e10f5000fa
:10649800e00132001e017800d208900000002200be
:1064a80000807000500998001e017800d208900002
:1064b800f0ff2b0000806000500998001e01780052
:1064c800d208900000002100008070005009980058
:1064d8001e017800d2089000d0ff2f0000806000d5
:1064e800500998001e0190006000b8003001980023
:1064f800410198002e00900090109000001090002c
:106508001e01900050019800610198002e00900033
:10651800b0109000201090001e01900070019800ab
:10652800010998002e009000c00890001e009000fd
:10653800410898009e009000100020008008780014
:1065480040002000590c0700b2013700c07a8000d3
:1065580001002200010060000000e000ad013a00e7
:106568001e00780020019000b00190002e009000dd
:10657800f0089000600890000000510081805900e8
:106588001e01900010019800210198001e00900043
:1065980010019000a001900062079800730798000e
:1065a8006011b8006e009000fe009000e9f107004d
:1065b800300798003e009000e10f5000950132002e
:1065c8001e017800d20890000000220000807000b0
:1065d800500998001e017800d2089000f0ff2b00a7
:1065e80000806000500998001e017800d2089000d1
:1065f8000000210000807000500998001e017800fa
:10660800d2089000d0ff2f00008060005009980049
:106618001e0190006000b800300198004101980008
:106628002e00900090109000001090001e01900025
:1066380050019800610198002e009000b010900061
:10664800201090001e019000700198000109980028
:106658002e009000c00890001e009000410898008d
:106668009e00900010002000800878006000200044
:106678000e0c0700670137002e009000b010900044
:10668800201090001e0190007001980001099800e8
:106698001e00900070019000800990004207980049
:1066a800530798004e019000de0190006000b8008a
:1066b800a8f10700300798003e009000e10f500055
:1066c800540132001e017800d20890000000220018
:1066d80000807000500998001e017800d2089000d0
:1066e800f0ff2b0000806000500998001e01780020
:1066f800d208900000002100008070005009980026
:106708001e017800d2089000d0ff2f0000806000a2
:10671800500998009e009000100020008008780022
:106728001e0190006000b8003001980041019800f7
:106738002e00900090109000001090001e01900014
:1067480050019800610198002e009000b010900050
:10675800201090001e019000700198000109980017
:106768002e009000b0089000200890001e019000b4
:1067780010099800210998002e009000c008900088
:106788001e0090004108980030002000c70b070049
:10679800200137002e009000b010900020109000cb
:1067a8001e01900070019800010998001e009000d9
:1067b80070019000800990004207980053079800e4
:1067c800ce0090000080eb00000ab800ce009000d8
:1067d8000080eb000088b900050178000001410045
:1067e800de0090000080eb000088b9000001410045
:1067f8008202780044079800550798004e019000df
:10680800de0190006000b80052f1070030079800e0
:106818003e009000e10f5000fe0032001e0178009b
:10682800d2089000000022000080700050099800f3
:106838001e017800d2089000f0ff2b000080600055
:10684800500998001e017800d2089000000021002d
:1068580000807000500998001e017800d20890004e
:10686800d0ff2f0000806000500998009e00900023
:1068780010002000800878001e0190006000b80019
:1068880030019800410198002e009000901090006f
:10689800001090001e0190005001980061019800be
:1068a8002e009000b0109000201090001e01900063
:1068b80070019800010998002e009000b00890001f
:1068c800200890001e0190001009980021099800e6
:1068d8002e009000c00890001e009000410898000b
:1068e80050002000710b0700ca003700c07a8000f2
:1068f80001002200010060000000e000c5003a002d
:106908009e00900060002000800878001e01900022
:1069180000002000010024001001980021019800c7
:106928001e0190006000b8003001980041019800f5
:106938002e01900070082a0001002000101998000c
:10694800211998002e009000a018900010189000af
:106958001e01900050019800610198002e009000df
:1069680080189000701090001e019000700198002f
:10697800010998002e009000b01890001e009000a9
:10698800310898001e0190006000b80010099800b6
:10699800210998009e0090000000eb00c0089800b4
:1069a8009e00780010002000e00898001e01780082
:1069b800d208900000002200008070005009980062
:1069c8001e017800d2089000f0ff2b0000806000c4
:1069d800500998002e019000603b2f0031262000be
:1069e80070119800011998002e00900080189000ee
:1069f800701090001e019000700198000109980025
:106a080084003700c07a8000010022000100600085
:106a18000000e0007f003a009e0090001000200077
:106a2800800878001e017800d2089000000022003b
:106a380000807000500998001e017800d20890006c
:106a4800f0ff2b0000806000500998001e017800bc
:106a5800d2089000d0ff2f000080600050099800f5
:106a68001e00780020019000b0019000007f800097
:106a7800117f80000000510081805900000f9800ac
:106a8800110f9800007f8000117f80001e01900088
:106a980010019800210198002e009000901090009d
:106aa800001090001e0190005001980061019800ac
:106ab8002e009000b0109000201090001e01900051
:106ac80070019800010998000e0890009e08900037
:106ad800e00f5000e08f5800030034004000200011
:106ae800f20a07004b00370060002000ef0a070099
:106af80048003700c07a80000100220001006000d1
:106b08000000e00043003a009e00900010002000c2
:106b1800800878001e017800d2089000000022004a
:106b280000807000500998001e017800d20890007b
:106b3800f0ff2b0000806000500998001e017800cb
:106b4800d2089000d0ff2f00008060005009980004
:106b58001e00780020019000b0019000e07e8000c7
:106b6800f17e80000000510081805900000f9800dc
:106b7800110f9800e07e8000f17e80001e019000d9
:106b880010019800210198002e00900090109000ac
:106b9800001090001e0190005001980061019800bb
:106ba8002e009000b0109000201090001e01900060
:106bb80070019800010998000e0890009e08900046
:106bc800e00f5000e08f5800030034004000200020
:106bd800b60a07000f00370060002000b30a07005c
:106be8000c0037006000b800000f9800110f9800e3
:106bf800d179800000022000808f5000040032000c
:106c0800d179800000042000808f500001003a00f4
:106c18006e050700ae099000d37988000080fa005d
:106c2800000006000c00fa00889fbe00a0dc2000cf
:106c3800000f7800a6ef0700df000700d4e2a900e4
:106c4800cc62a800cc42a80020032000141e070034
:106c580020032000121e0700cc42a900803e20001d
:106c68000f1e0700e1fa07005b19070030079800bc
:106c78003e0090000000e00003003a0010002000f1
:106c880030079800020037001000200030079800f5
:106c98003e0090000000e0008d003a00a0dc2000db
:106ca800e1c020003600090031187800785e8000c5
:106cb800895e8000605e80006103b800860078000d
:106cc800002424000009b8006f30b90003027800de
:106cd800000242000024240000b8b900000242006b
:106ce800840178000200be00080040008980480046
:106cf800f07488000175880010002000e074880096
:106d08001e0078001000be001e017800703998003f
:106d1800018198001e007800b000900020009000cb
:106d28001e01780030399800413998001e0078001b
:106d3800d0009000400090001e0178005039980063
:106d4800613998001e007800f00090006000900003
:106d58001e01780010819800218198001e0078009b
:106d6800403090004e00de008080fb001e0078005e
:106d7800318098009e00780010002000c0809800a4
:106d88001e017800803e20000100200050819800fc
:106d9800618198001e007800b000900020009000eb
:106da8001e01780070819800018998001e00780003
:106db8001000be001e0178001089980021899800f3
:106dc8009e00780020002000b08898001e007800ff
:106dd8001000be00a200200003002000d1ea070036
:106de8001e01780060899800718998001e0078005b
:106df800b000900020009000420120000300200015
:106e0800c8ea07001e0178000091980011919800c7
:106e18001e0178006000b8004089980051899800e8
:106e2800d05e8000e15e80001e017800703198001d
:106e380001399800b05e8000c15e80001e017800b4
:106e480010399800213998001e0078001000be0003
:106e58004206200003002000b2ea07001e01780065
