:020000040800F2
:10000000B87200201503000833030008017D0008C2
:1000100037030008390300083B0300080000000014
:100020000000000000000000000000003D03000888
:100030005703000800000000DD7C00085B03000897
:100040005D0300085D0300085D0300085D03000810
:100050005D0300085D0300085D0300085D03000800
:100060005D0300085D0300085D0300085D030008F0
:100070005D0300085D0300085D0300085D030008E0
:100080005D0300085D0300085D0300087B8B00082A
:100090004F8A00085D0300085D0300085D03000847
:1000A0005D0300085D0300085D0300085D030008B0
:1000B000B58F00085D0300085D0300085D030008BC
:1000C0005D0300085D0300085D0300085D03000890
:1000D0005D0300085D0300085D0300085D03000880
:1000E0005D030008C54700085D0300085D030008C4
:1000F000914100085D0300085D0300085D030008EE
:100100005D0300085D0300085D0300085D0300084F
:100110005D0300085D0300085D030008E38F00082D
:100120005D0300085D0300085D0300085D0300082F
:100130005D0300085D0300085D0300085D0300081F
:100140005D0300085D0300085D0300085D0300080F
:100150005D0300085D0300085D0300085D030008FF
:100160005D0300085D0300085D0300085D030008EF
:100170005D0300085D0300085D0300085D030008DF
:100180005D0300085D03000800F002F800F0B2F81B
:100190000AA090E8000C82448344AAF10107DA45E2
:1001A00001D100F0A7F8AFF2090EBAE80F0013F082
:1001B000010F18BFFB1A43F001031847201A010072
:1001C000401A01000A444FF0000C10F8013B13F0F4
:1001D000070408BF10F8014B1D1108BF10F8015BA0
:1001E000641E05D010F8016B641E01F8016BF9D193
:1001F00013F0080F1EBF10F8014BAD1C0C1B09D1EA
:100200006D1E58BF01F801CBFAD505E014F8016B5B
:1002100001F8016B6D1EF9D59142D6D370470000ED
:100220000023002400250026103A28BF78C1FBD8FF
:10023000520728BF30C148BF0B6070476E290CF0D1
:10024000D58570290CF02A8666290FF05E85652910
:100250000FF05B8567290FF058856129AFF30080A7
:1002600003681B0A28BF41F0800169290CF08285D0
:1002700064290CF07F8575290CF07C856F290DF0C1
:10028000498478290CF0F685E9290DF0E183E42909
:100290000DF0DE83F5290DF0DB83EF290DF04684A8
:1002A000F8290CF0F5850368DB0928BF41F08001CF
:1002B00063290DF0628373290DF06783E3290DF044
:1002C0007587F3290DF07A87002070471FB50FF06E
:1002D00097FC0DF0CBFE0400002000210FF010FA77
:1002E000401C6060002000210FF0F4F9E0601FBDA9
:1002F00010B510BD0EF0B4F91146FFF7E7FF05F099
:1003000059FF0EF003FC03B4FFF7F2FF03BC0EF03D
:1003100017FC000015481649026800608A4203D0A5
:1003200014488047144800471448D0F800D040686B
:100330000047FEE7FEE7FEE7FEE7FEE71EF0040FDC
:100340000CBFEFF30880EFF30980806910F8020C0E
:1003500007F0CFBCFEE7FEE7FEE7FEE7FEE70000A2
:1003600007480849084A094B70470000F01F002061
:10037000EFBEADDE53490008890100080000FF1FF1
:10038000B86C0020B8720020B86E0020B86E002053
:1003900001468A1E0A2A1AD2DFE802F00507090B75
:1003A0000D0F11131517022013E0032011E0042094
:1003B0000FE005200DE006200BE0072009E00820F3
:1003C00007E0092005E00A2003E00B2001E00120FE
:1003D00000BF00BF704710B504464FF04040FE49D3
:1003E00048604042086088644042C8640120C86692
:1003F0000846006F20F00100401C08670846006FA7
:1004000020F00200801C08670846006F20F00400FE
:10041000001D08670846006F20F0080008300867D4
:100420000846006F20F01000103008670846006F83
:1004300020F02000203008670220086108621020A8
:10044000C8620021E44881660E2C80F01087DFE846
:1004500014F00E070F070E0096001D01A4015902AB
:10046000E4026D034605BC04F603CF0583060120B4
:10047000DA49086002208860D9A1D8480C300CF015
:1004800011FC0120D549C86108629FEDD70A0846D2
:1004900080ED0D0AB1EE080A80ED0E0A9FEDD30A39
:1004A00080ED0A0A9FEDD00A80ED090A9FEDD00A7F
:1004B00080ED0B0A9FEDCF0A80ED0C0AB6EE000A24
:1004C00080ED0F0AB6EE000A80ED100A9FEDCA0A11
:1004D00080ED110A9FEDC90A80ED120A4FF4103029
:1004E000BD4908600846006F20F00100401C086705
:1004F0000846006F20F00400001D08670846006FE2
:1005000020F01000103008670846006F20F002004D
:10051000801C08670846006F20F008000830086754
:100520000846006F20F02000203008670846006F62
:1005300020F0400008670846006F20F08000086740
:1005400095208860AE48C860AE4888624FF4C040CD
:10055000086340F69910486195208861A848C861F1
:10056000F520486240F2B3108865C3219A48C165FE
:1005700040F2E1310166C321416600F0D4BE0120A2
:1005800096490860032088609FA194480C300CF0C5
:1005900089FB01209149C86108629FED930A0846D2
:1005A00080ED0D0AB2EE080A80ED0E0A9FED8F0A6B
:1005B00080ED0A0A9FED8C0A80ED090A9FED8C0AF6
:1005C00080ED0B0A9FED8B0A80ED0C0AB6EE000A57
:1005D00080ED0F0AB6EE000A80ED100A9FED860A44
:1005E00080ED110A9FED850A80ED120A4FF49020EC
:1005F000794908600846006F20F00100401C086738
:100600000846006F20F00400001D08670846006FD0
:1006100020F01000103008670846006F20F002003C
:10062000801C08670846006F20F008000830086743
:100630000846006F20F02000203008670846006F51
:1006400020F0400008670846006F20F0800008672F
:10065000952088606A48C8606A4888624FF4C04044
:10066000086340F699104861952088616448C86124
:10067000F520486240F2B3108865C3215648C16531
:1006800040F2E1310166C321416676E7012053491A
:100690000860042088605EA150480C300CF002FB1A
:1006A00001204E49C86108629FED4F0A084680ED5F
:1006B0000D0AB3EE090A80ED0E0A9FED4C0A80ED9B
:1006C0000A0A9FED490A80ED090A9FED490A80ED6B
:1006D0000B0A9FED480A80ED0C0AB6EE000A80ED89
:1006E0000F0AB6EE000A80ED100A9FED430A80ED76
:1006F000110A9FED420A80ED120A4FF41620364986
:1007000008600846006F20F00100401C086708469A
:10071000006F20F00400001D08670846006F20F0FD
:100720001000103008670846006F20F00200801C9F
:1007300008670846006F20F0080008300867084680
:10074000006F20F02000203008670846006F20F07E
:10075000400008670846006F20F080000867952079
:1007600088602748C860274888624FF4C040086303
:1007700040F699104861952088612148C861F520AC
:10078000486240F2B3108865C3211348C16540F246
:10079000E1310166C3214166EFE602200F4908609E
:1007A000052088601CA10D480C300CF07BFA01205C
:1007B0000A49C86108629FED0C0A084680ED0D0ADF
:1007C0009FED170A80ED0E0A9FED160A80ED0A0ACA
:1007D00090ED0A0A28E00000580400206C05002073
:1007E0005A3630360000000000000000ABAA2A385C
:1007F000B53706498D773B430000704300409C4568
:100800007D080500BD3104005A3631320000000079
:100810005A36323500000000435A312D5A36000056
:100820000000B4430000203A5FED030A80EE801A16
:1008300080ED091A1FED120A80ED0B0A1FED130A55
:1008400080ED0C0AB6EE000A80ED0F0AB6EE000A43
:1008500080ED100A1FED180A80ED110A1FED190A2C
:1008600080ED120A4FF08040FE4908604042486027
:100870000846006F20F0010008670846006F20F06E
:10088000040008670846006F20F010001030086769
:100890000846006F20F0020008670846006F20F04D
:1008A0000800083008670846006F20F0200020305C
:1008B00008670846006F20F0400008670846006F90
:1008C00020F08000086763208860E748C860401017
:1008D000886240F24710086340F2666048614A202F
:1008E0008861E248C86140F24710486240F25230E5
:1008F00088653221DB48C1654FF42A6101663221E7
:1009000041663AE60220DA49086006208860D9A1EB
:10091000D7480C300CF0C6F90120D549C8610862EF
:100920001FED4F0A084680ED0D0A1FED430A80EDCA
:100930000E0A9FEDD20A80ED0A0A90ED0A0A5FEDD9
:10094000480A80EE801A80ED091A9FEDCD0A80EDED
:100950000B0A9FEDCC0A80ED0C0AB3EE090A80ED7C
:100960000F0AB3EE090A80ED100A1FED5D0A80ED53
:10097000110A1FED5E0A80ED120ABA48006F20F0DE
:100980000100B84908670846006F20F004000867B6
:100990000846006F20F01000103008670846006F0E
:1009A00020F0020008670846006F20F008000830B9
:1009B00008670846006F20F02000203008670846CE
:1009C000006F20F0400008670846006F20F08000AC
:1009D0000867AD48886241F6FE5008634FF08040DA
:1009E00008604042486092208860A748C86042F290
:1009F0007E504861DB208861A448C86140F27F7066
:100A0000486240F25230886596219648C1654FF49D
:100A10002A61016632214166AFE5012094490860F0
:100A2000072088609AA192480C300CF03BF9012015
:100A30008F49C86108621FED940A084680ED0D0ACF
:100A4000B3EE090A80ED0E0A9FED940A80ED0A0AC2
:100A50001FED9B0A80ED090A9FED910A80ED0B0ABC
:100A60009FED900A80ED0C0A9FED8F0A80ED0F0A32
:100A7000B1EE040A80ED100A1FEDA10A80ED110A03
:100A80001FEDA20A80ED120A8848764908600846E0
:100A9000006F20F00100401C08670846006F20F03E
:100AA0000400001D08670846006F20F01000103099
:100AB00008670846006F20F00200801C086708469F
:100AC000006F20F00800083008670846006F20F02B
:100AD0002000203008670846006F20F040000867BB
:100AE0000846006F20F080000867714888624FF464
:100AF000064008634FF4C47088606E48C8604FF4C5
:100B0000864048614FF4C47088616A48C86140F209
:100B1000B360486240F23130886533215148C16585
:100B20004FF42A61016633214166FCE301205049FC
:100B300008600820886060A14D480C300CF0B2F8C5
:100B400001204B49C86108621FEDD90A084680EDB3
:100B50000D0A9FED5C0A80ED0E0A9FED500A80EDB4
:100B60000A0A1FEDDF0A80ED090A9FED4D0A80EDAC
:100B70000B0A9FED4C0A80ED0C0A9FED4B0A80EDAD
:100B80000F0AB1EE040A80ED100A1FEDE50A80EDB0
:100B9000110A1FEDE60A80ED120A4B483149086040
:100BA0000846006F20F00100401C08670846006FEF
:100BB00020F00400001D08670846006F20F01000B8
:100BC000103008670846006F20F00200801C08679C
:100BD0000846006F20F00800083008670846006FDC
:100BE00020F02000203008670846006F20F0400009
:100BF00008670846006F20F0800008672C4888626C
:100C00004FF4064008634FF4C47088602948C860F8
:100C10004FF4864048614FF4C47088612548C8612C
:100C200040F2B360486240F23130886533210D48AC
:100C3000C1654FF42A6101663321416673E30120E7
:100C40000B4908600B20886020A109480C300CF08B
:100C500029F801200649C86108629FED1E0A08466E
:100C60003AE000005804002052790400FE5A0300C4
:100C70006C05002050524D312D5A38000E8F083A25
:100C8000A9BD27475C8F6A41C58B0600A7D1090023
:100C90004D545332352D5A38000000008D89F437F9
:100CA000A2293B4960B582439A99194000160D006C
:100CB0009AB20B00E2C020004D545335302D5A3803
:100CC0000000000000004842002C1A005A3830365C
:100CD000000000000000000080ED0D0AB1EE080ADF
:100CE00080ED0E0A1FED130A80ED0A0A1FED070AB8
:100CF00080ED090A1FED160A80ED0B0A1FED170A99
:100D000080ED0C0A9FEDFE0A80ED0F0AB1EE040A99
:100D100080ED100A9FEDFB0A80ED110A9FEDFA0AA3
:100D200080ED120A4FF44930F84908600846006F18
:100D300020F00100401C08670846006F20F0040006
:100D4000001D08670846006F20F01000103008678B
:100D50000846006F20F00200801C08670846006FFC
:100D600020F00800083008670846006F20F02000D7
:100D7000203008670846006F20F0400008670846EA
:100D8000006F20F0800008674FF4C4708860E0486E
:100D9000C860E048886242F63300086340F6665057
:100DA000486140F20A208861DB48C86140F259304E
:100DB000486240F2B3108865C321D448C16540F24F
:100DC000E1310166C3214166ADE20120D3490860EB
:100DD0000A208860D2A1D1480C300BF063FF0120BB
:100DE000CE49C86108621FED450A084680ED0D0A2C
:100DF000B2EE080A80ED0E0A1FED580A80ED0A0ACD
:100E00001FED4C0A80ED090A1FED5B0A80ED0B0A0D
:100E10001FED5C0A80ED0C0A9FEDB90A80ED0F0A08
:100E2000B1EE040A80ED100A9FEDB60A80ED110ABA
:100E30009FEDB50A80ED120A4FF4C920B34908604E
:100E40000846006F20F00100401C08670846006F4C
:100E500020F00400001D08670846006F20F0100015
:100E6000103008670846006F20F00200801C0867F9
:100E70000846006F20F00800083008670846006F39
:100E800020F02000203008670846006F20F0400066
:100E900008670846006F20F0800008674FF4C470B0
:100EA00088609B48C8609B48886242F633000863AC
:100EB00040F66650486140F20A2088619648C86151
:100EC00040F25930486240F2B3108865C3218F4820
:100ED000C16540F2E1310166C321416623E2012090
:100EE0008E490860092088608FA18C480C300BF077
:100EF000D9FE01208949C86108621FED8A0A0846A7
:100F000080ED0D0AB3EE090A80ED0E0A1FED9D0A71
:100F100080ED0A0A1FED910A80ED090A1FEDA00A73
:100F200080ED0B0A1FEDA10A80ED0C0A9FED740AFB
:100F300080ED0F0AB1EE040A80ED100A9FED710AF0
:100F400080ED110A9FED700A80ED120A78486F4912
:100F500008600846006F20F00100401C0867084642
:100F6000006F20F00400001D08670846006F20F0A5
:100F70001000103008670846006F20F00200801C47
:100F800008670846006F20F0080008300867084628
:100F9000006F20F02000203008670846006F20F026
:100FA000400008670846006F20F0800008674FF493
:100FB000C47088605648C8605648886242F633005C
:100FC000086340F66650486140F20A208861524842
:100FD000C86140F25930486240F2B3108865C321BD
:100FE0004A48C16540F2E1310166C32141669AE198
:100FF00002204A490860052088604EA147480C300D
:101000000BF050FE01204549C861002008621FED29
:10101000CF0A084680ED0D0A9FED480A80ED0E0AC2
:101020009FED470A80ED0A0A90ED0A0ADFED430AB8
:1010300080EE801A80ED091A9FED420A80ED0B0ABE
:101040009FED410A80ED0C0AB1EE000A80ED0F0A17
:10105000B1EE000A80ED100A9FED2A0A80ED110A18
:101060009FED290A80ED120A4FF080402749086061
:10107000404248600846006F20F0010008670846BB
:10108000006F20F0040008670846006F20F0100091
:10109000103008670846006F20F002000867084615
:1010A000006F20F0080008670846006F20F020005D
:1010B000203008670846006F20F0400008670846A7
:1010C000006F20F0800008673220886044F65A40A4
:1010D000C860012088620020086340F266604861B1
:1010E0002620886143F64410C86140F247104862E8
:1010F00040F25230886532210448C16526E0000084
:10110000333313400000704300409C4558040020D6
:10111000E2C020009AB20B00346517006C05002075
:101120005A383132000000005A38323500000000D1
:1011300000160D004352312D5A3700000000B44311
:101140000000203A002A0F47508DBE424FF42A611A
:10115000016632214166E6E00220824908600D20E6
:10116000886081A17F480C300BF09CFD01207D49F7
:10117000C86108629FED7E0A084680ED0D0A1FEDEA
:10118000110A80ED0E0A9FED7B0A80ED0A0A90EDB0
:101190000A0A5FED160A80EE801A80ED091A9FEDAB
:1011A000760A80ED0B0A9FED750A80ED0C0AB3EE0E
:1011B000090A80ED0F0AB3EE090A80ED100A1FED4F
:1011C0002F0A80ED110A1FED300A80ED120A6C48DB
:1011D000006F20F001006A4908670846006F20F0A0
:1011E000040008670846006F20F010001030086700
:1011F0000846006F20F0020008670846006F20F0E4
:101200000800083008670846006F20F020002030F2
:1012100008670846006F20F0400008670846006F26
:1012200020F0800008675748886241F6FE50086346
:101230004FF08040086040424860922088605148EA
:10124000C86042F27E504861DB2088614E48C86128
:1012500040F27F70486240F25230886596214848DB
:10126000C1654FF42A610166322141665BE000BF2F
:1012700000203C49086045A13A480C300BF012FDB3
:1012800001203849C8619FED3A0A084680ED0D0AF1
:10129000B7EE000A80ED0E0AB7EE000A80ED0A0AEA
:1012A0009FED330A80ED090AB7EE000A80ED0B0AC4
:1012B000B7EE000A80ED0C0AB7EE000A80ED0F0AC7
:1012C000B7EE000A80ED100A9FED320A80ED110A98
:1012D0009FED310A80ED120A4FF0804028490860E6
:1012E000952088602D48C8602D4888624FF4C04022
:1012F000086340F699104861952088612748C861C5
:10130000F52048620846006F20F00100086740F2AF
:10131000B3108865C3211A48C16540F2E131016606
:10132000C321416600BF00BF0E4890ED0F0ADFEDFC
:101330001D0A20EE200AD0ED0B0A20EE200ABDEE99
:10134000C00A0F4880ED0F0A90ED020AB8EEC00AFD
:10135000DFED140A20EE200ABDEEC00A80ED100A6F
:1013600010BD00006C05002050524D545A3800004A
:10137000000000000E8F083AA9BD27475C8F6A4124
:1013800058040020C58B0600A7D10900756E6B6E4E
:101390006F776E0000007A4400401C467D0805000F
:1013A000BD3104006666663F5948006859490843E4
:1013B000574908605848006840F03F0056490860A7
:1013C00055480C30006820F03F0053490C3108604C
:1013D0004F481430006840F480704D491431086063
:1013E0004E48006840F440304D49C1F8040340F2D3
:1013F0000330886040F2FF10C8600846C06A20F4DD
:101400007000C8620846C06A40F40010C86243F227
:101410006A1048634348006820F0010041490860B1
:1014200000E000BF3F48006810F0010FF9D13D48CF
:10143000006820F060603B4908600846006840F49E
:101440005060086036484C303649083108603648EC
:10145000091D086003203349091D086030484068B1
:1014600040F480702E4948600846406820F00070C3
:1014700048600846406840F080704860294800682D
:1014800040F00100274908602548806840F080400E
:101490002349886070472348006820F001002149F3
:1014A000086000E000BF1F48006810F0010FF9D18C
:1014B0001B48806820F00100194988600846C06A0E
:1014C00020F47000C8620846C06A40F48010C86208
:1014D00002201449091D08604FF4B5701049486393
:1014E0000846806840F0010088600E48006840F0BF
:1014F00001000C4908600A48806840F080400849B3
:10150000886070470146084830F8110070470000B5
:10151000303802400400400000080240042301402B
:1015200000200140706402400000002070B50020DF
:10153000FFF7E8FF4FF47A7100FB01F50220FFF797
:10154000E1FFB5FBF0F41A2C01D2012070BD482C4C
:1015500001D20220FAE7982C01D20320F6E7B4F575
:10156000857F01D20420F1E7B4F5B47F01D20520D4
:10157000ECE7B4F5E17F01D20620E7E740F2232053
:10158000844201D20720E1E7B4F5207F01D808208A
:10159000DCE740F2E720844201D20920D6E7B4F527
:1015A000557F01D80A20D1E740F2BB30844201D2F6
:1015B0000B20CBE70C20C9E710B50120FFF7A2FFF5
:1015C00000EE100AB8EE400ADFEDFE0A20EE200A17
:1015D00010BD70B504460025062C7DD2DFE804F06E
:1015E000031E446282B1F848006840F00400F649E6
:1015F00008600846006820F008000860F34800888A
:1016000020F48070F14908804814EF4918310860CF
:10161000C0030860002002F02CFFC0E0EA48006828
:1016200040F00400E84908600846006820F008001F
:101630000860E648008820F48850E4490880E348C0
:101640002038008820F00100E04920390880481443
:10165000DD4918310860C00308608012DC498861E8
:101660000820DC4908609AE0D748006840F0040090
:10167000D54908600846006820F008000860881412
:10168000D14918310860400408600420D0498861BD
:101690000820D0490860CD48008840F48070CB49CC
:1016A00008807CE0C848006840F00400C649086033
:1016B0000846006820F008000860C448008820F44C
:1016C0008070C24908804814BF4918310860C003BF
:1016D00008600420BE4900E05FE088610820BD4941
:1016E00008605CE04FF48020BA490860B9481838B7
:1016F000006840F01000B7491839086008460068D3
:1017000020F020000860B048006820F00400AE49D6
:1017100008600846006840F008000860C804AA494C
:1017200018310860401408600420A9498861082025
:10173000A8490860A548008840F48850A34908805B
:101740002DE0A148006840F004009F490860084669
:10175000006820F0080008609D48006820F00C0038
:101760009B49086004209B4908609A481838006823
:1017700040F010009749183908600846006820F0CA
:10178000200008604FF400508F4918310860C003F2
:10179000086040128F49086001E0012500BF00BFCA
:1017A000284670BD10B507F03AFBC001192190FB27
:1017B000F1F404F3070010BD10B5044600EE104A22
:1017C000F8EEC00A9FED841AB6EE000A00EE810A18
:1017D00010EE101A08460EF0C6F90446E0B209F001
:1017E00074FA002C02DD09F009FD01E009F001FDA9
:1017F00010BD002801DA002002E0642800DD64202A
:10180000764901EBC001764A11607047754801685E
:101810000068401C734A106071480068406881424B
:1018200002DB0120114608606D48006800686D49C0
:101830000968884205DA4FF480206349183108604E
:1018400003E00420604918310860704710B5044671
:10185000E0B209F03AFA10BD704708B16249086079
:1018600070472DE9F0418EB006460D4617464FF001
:101870000008012E02D0022E11D107E05B485C491E
:1018800008605C480C905C480D900CE057481030A4
:101890005749086059480C9059480D9003E00020C2
:1018A0000EB0BDE8F08100BF012F01D1012000E0A2
:1018B00000200446132D7DD2DFE805F00A0B0C0D45
:1018C0000E0F7C7C7C7C16222660B5E2232425004A
:1018D00000BF00BF00BF00BF00BF4548006800F068
:1018E000F0FC0C988047F4E04148006800F0E9FC07
:1018F0000CB9012200E0002210460D998847E8E06B
:1019000000BF00BF00BF00BFA5F10B0008281ED21A
:10191000DFE800F004091D1D1D0E131802203449D4
:101920000968086013E001203149096808600EE089
:1019300003202F490968086009E004202C49096840
:10194000086004E005202A490968086000BF00BF5C
:1019500027490D98096848600CB9012000E0002073
:1019600023490968886022480068C4600CB90122D4
:1019700000E0002210460D998847AAE01C48006844
:1019800000F09FFC1F48406A01901E48806A029048
:101990001C48C06A03900D9804901A48426AC06AB5
:1019A000401E1849896A00FB012005901548806A8D
:1019B000414200E08CE006911248C16A0791124949
:1019C000089123E068A2893F0004024020040040FF
:1019D00000000240180802409A99993E0CFE000847
:1019E00008000020100000200C0000204C05002002
:1019F00014000020FB3800081D3900084339000896
:101A000065390008CC040020C1220008C06B099091
:101A10005B48006C40000B900A9401A807F088FA1C
:101A20004FF0010855E05748006800F04AFC544860
:101A3000006B01905248406B404202905048806BCE
:101A400003900D9804904E48026B806B401E4C49E9
:101A5000496B00FB112005904948416B0691816B51
:101A6000079149490891C06B09904548006C4000B6
:101A70000B900A9401A807F05BFA4FF0010828E0E8
:101A80004048006800F01DFC3D48406A01903C4819
:101A9000806A02903A48C06A03900D9804903848D2
:101AA000006B05903648406B414206913448816B8B
:101AB00007910D990891C06B09903148006C400066
:101AC0000B900A9401A807F033FA4FF0010800E0E8
:101AD00000BF00BF4046E3E62DE9F84F83460E46BF
:101AE000904600200090BBF1010F03D0BBF1020F24
:101AF0000FD105E0DFF894A0254C264D264F0BE0D2
:101B0000DFF898A0224C241D224D2D1D224F3F1D91
:101B100002E00020BDE8F88F00BF3868B04203D073
:101B20006FF00100286020603E60022E08D0032E76
:101B300004D0042E03D0052E19D102E000BF00BF4F
:101B400000BF20682860D047206020682968A0EB8B
:101B50000109B8F1010F02D1B9F1010F05D0B8F1B7
:101B6000020F03D119F1010000D1009604E06FF0DB
:101B700001002860206000BF00BF0098CAE7000095
:101B8000CC04002014000020C1220008FB3800080B
:101B90001800002020000020280000204339000801
:101BA0002DE9F043044604F30F02AC4800681044EA
:101BB000DFF8A882C8F80000A948406E010240463C
:101BC0000068884202DD404601600AE0A3480068E0
:101BD000C1F10008404504DA4842DFF88082C8F8C5
:101BE00000009E4800680012DFF87482D8F85C801C
:101BF00000FB08FC9B48D0F800800068401CDFF820
:101C00006492C9F800009648806E80450EDB002083
:101C1000C846C8F8000094480068171A07F30F0078
:101C2000DFF84882C8F800008F4802608C48806D59
:101C300000FB02F58D480068012803D08B4800683E
:101C4000401C01D1002307E08548006EDFF81C82AC
:101C5000D8F8008000FB08F30CEB0500C61806F36B
:101C60000F00BDE8F08310B500207C4908602C20EF
:101C700000F0DEF810BD10B52C2000F0E5F80020D3
:101C80007649086010BD10B52C2000F0DDF87848CA
:101C900000687849486078480068086077480068BC
:101CA00048612C2000F0C4F875480068C0F30010AB
:101CB0006B4991F87010C1F300114840C1436D4861
:101CC000006B61F38E306B4908636D480068C0F3A8
:101CD0004010634991F87010C1F340114840C1436E
:101CE0006448006B61F3CF306249086310BD01B5F1
:101CF000FFF7C1FF009807F064FA5E49009808609A
:101D00005D490098086000231A460099084600F0D3
:101D1000BFFA684600F0BCF8022000F0C3FA68463B
:101D200000F0B6F8FFF79FFF08BD5248006A03288D
:101D300027D14B4890F87000C0F3C01050B1504804
:101D40000068C0F30010464991F87010C1F300110B
:101D5000884210D1424890F87000C0F3C01080B99A
:101D600047480068C0F340103D4991F87010C1F336
:101D70004011884205D0404800683E4988600420F0
:101D8000086270472DE9F04707F017FA3D49C96925
:101D900000FB01F838480068A0EB080037490860EC
:101DA0003548C0F80080324800F072F806463049E5
:101DB0000968314A1268881AFFF7F2FE3149C96989
:101DC00000FB01F73049098807FB01F0C11700EB60
:101DD0005141C9130FFA81FA2648008EC0F3002042
:101DE00010B9504602F06FF922480761C66016F03C
:101DF000010F05D0006B20F00100401C1D49086355
:101E000000240FE01B48343000EB0415286801283B
:101E100007D1C6F3800905F1080252F82900696864
:101E20008847641C022CEDDBFFF77FFFBDE8F087DD
:101E300000F01F020121914042094FF0E02303EB23
:101E40008202C2F80011704700F01F020121914088
:101E50000E4A430942F8231070470000300000206A
:101E600058040020340000203C00002038000020EE
:101E700044000020180500204000002048000020F9
:101E8000100402406C050020E001002080E100E029
:101E90002DE9F0470746FC4843698446DCE90E56C5
:101EA0004068012804D0022878D0032877D1C8E000
:101EB000F5480068012857D1F4480068DFF8C8C326
:101EC000CCF82000F1488068CCF81C00EF48C068CE
:101ED000CCF81800ED484068DFF8B0C3DCF800C06B
:101EE000A0EB0C00DFF8A0C3CCF81000604600693E
:101EF000002811DD604600694FEAE07C4FEA4C4C57
:101F00004CEAD03C4004DFF88083C8E90C0C002088
:101F1000C446CCF8080011E0DB48006940424FEAB3
:101F2000E07C4FEA4C4C4CEAD03C4004DFF858834C
:101F3000C8E90C0C0120C446CCF808000020DFF8EA
:101F400048C3CCF81400E046C8F82800C8F82C00B4
:101F50008446C8F838C0C8F83CC0C446CCF80C0069
:101F60000220CCF800005DE0C8484068DFF818C3E4
:101F7000DCF820C0A0EB0C00DFF80CC3CCF810009C
:101F80006046806860B16046006940424FEAE07C8C
:101F90004FEA4C4C4CEAD03241040AE048E059E0A8
:101FA000B94800694FEAE07C4FEA4C4C4CEAD03229
:101FB0004104B548D0E90E90DFF8CCC2DCF814C07B
:101FC0004FEAEC7819EB0C0C40EB0800DFF8B89204
:101FD000D9E90A89B1EB080A62EB0908BCEB0A0CE3
:101FE00070EB080016DAA848C0E90C12A748C068D0
:101FF000DFF894C2CCF8180060464069DCF818C0DD
:10200000604501DA022000E04020DFF87CC2CCF815
:10201000000007E08020DFF870C2CCF80C00102030
:10202000CCF800000020DFF860C2CCF8040011E01A
:102030001020DFF854C2CCF800000020CCF80400D7
:1020400008E02020DFF840C2CCF800000020CCF8E7
:10205000040000BF00BF8C480068102877D006DC61
:10206000022809D0042830D008282DD12EE02028BD
:102070006ED04028F9D150E083484069DFF808C2AB
:10208000DCF81CC06044DFF800C2CCF814006046E5
:102090004069DCF818C0604507DD7B4843610420D7
:1020A000DFF8E4C1CCF800000EE07748D0E90E9CE0
:1020B000406918444FEAE07819EB00004CEB080C3B
:1020C000DFF8C481C8E90E0C7FE07EE06E4840690D
:1020D000DFF8B4C1DCF81CC0A0EB0C00DFF8A8C12D
:1020E000CCF8140060464069002806DA0020CCF8DD
:1020F00014000120CCF800000EE06348D0E90E9CEB
:10210000406918444FEAE078B9EB00006CEB080C2A
:10211000DFF87481C8E90E0C57E05B484069DFF8CE
:1021200068C1DCF81CC0A0EB0C00DFF85CC1CCF887
:10213000140060464069DCF818C0604509DA52486E
:1021400043610420DFF840C1CCF8000010E010E04B
:1021500024E04D48D0E90E9C406918444FEAE078ED
:10216000B9EB00006CEB080CDFF81C81C8E90E0C21
:102170002BE04548D0E90A9C406919EB000A4CEB7A
:10218000E070DFF80491D9E90E891AEB080C40EBF6
:102190000900DFF8F480C8E90CC016E00020DFF881
:1021A000E8C0CCF8140000236046D0E90AC0DFF88C
:1021B000D880C8E90CC09C46C8F838C0C8F83CC0F4
:1021C0000120C446CCF8000000BF00BF2E48D0E973
:1021D0000A80DFF8B4C0DCF814C09C444FEAEC7904
:1021E00018EB0C0C40EB0900DFF89C80C8E90AC032
:1021F0004046D0E90CC0C146D9E90A8ABCEB0809BF
:1022000060EB0A00DFF88080D8E90EC8B9EB0C0C4F
:1022100070EB080012DA1C484361D0E90CC0BCEB3B
:10222000050C60EB0600DFF86080C8E90AC0404694
:10223000C0E90E560820C446CCF800001248D0E988
:102240000AC04FEAC03848EA5C440F48806838B199
:102250000D48006A001BDFF830C0CCF8400006E0F3
:102260000948006A2044DFF820C0CCF84000064846
:10227000006C386004480068DFF80CC0DCF80CC063
:1022800040EA0C00BDE8F087500000204804002020
:1022900030B5094C20606160A260E3600124074D05
:1022A0006C6030BD012803D10221044A516002E074
:1022B0000321024A5160704748040020500000206A
:1022C000704700210160AFF2070141600022C26047
:1022D00000218160704700B5834884490860392037
:1022E00048608348006B20F0080081490863084675
:1022F000006B20F0100008630846006B20F004001B
:1023000008630020C86188610846006B20F0400027
:1023100008630846006B20F0200008630020086274
:102320000846006B20F00200801C08630846006B22
:1023300020F4806008630846006B20F48030086356
:102340000020C8620846006B20F4807008630846CD
:10235000006B20F4007000F5007008630846006B05
:1023600020F4803008630846006B20F400300863D6
:102370000846006B20F400500863002306E05C4927
:10238000343101EB0310FFF79CFF5B1C022BF6DBE3
:10239000002057498862032048620120554988601F
:1023A000C86010205449C8620120A1F84400886325
:1023B00000204865086551490860B7EE000A0846E4
:1023C00080ED0A0AB7EE000A80ED0B0AB7EE000AAC
:1023D00080ED0C0A9FED4A0A80ED110A9FED490A33
:1023E00080ED120A0120486000200873AFF22F1020
:1023F00045494860002088604862C861C8604861FB
:1024000088648862C86201200863C8640020086587
:102410000846806E20F0400088660846806E20F0F6
:10242000800088660020486648654FF40040886553
:102430000846806E20F0020088660846806E20F014
:10244000040088660846806E20F010008866084602
:10245000806E20F00100401C886600204863C8633D
:10246000086448640846806E20F4807088660846D8
:10247000806E20F4007088663C202449086041F298
:102480007070486002208860002305E000211F482A
:102490000C3040F823105B1C022BF7DB01201B499A
:1024A0004861C8610A211948816101210162002047
:1024B00016494862002115488162C1620163416387
:1024C00081631349C163002101640121816400BD5E
:1024D000024692FBF1F001FB1020002A01DA0B46C4
:1024E00000E0002318447047C0FC9B0198000020C6
:1024F00018050020F0060020580400206C0500207C
:1025000000007A4400401C46B8050020CC0400209E
:10251000A086010010B50446002010BD2DE9F04F43
:1025200087B009200090F9480068C0F30010F8490E
:1025300091F87010C1F30011484080F00107F34892
:102540000068C0F34010F24991F87010C1F34011D7
:10255000484080F001083FB1ED4890F8700010F05D
:10256000010F01D0012000E000200490B8F1000F1D
:1025700007D0E74890F87000C0F3400008B1012090
:1025800000E000200390E34890F83000C0F3801092
:1025900048B1DF48C06E022803D0DD48C06E032872
:1025A00001D1012000E000200290029838B1D94802
:1025B0000068D749896C884201DB012000E00020D7
:1025C0008246029838B1D3480068D149C96C884224
:1025D00001DC012000E000200190049810B9BAF15C
:1025E000000F01D0012000E000200590039808B9F9
:1025F000019808B1012000E000208346C448C06E65
:1026000003280BD1BAF1000F01D1019830B1049821
:1026100020B9039810B90820009001E0092000902B
:10262000BC48006A012824D1B94890F87000C0F372
:10263000C01050B1B5480068C0F30010B44991F81B
:102640007010C1F30011884210D0B14890F87000AA
:10265000C0F3C01068B9AD480068C0F34010AC4981
:1026600091F87010C1F34011884202D10220A949AB
:102670000862A848806A012804D0022810D00328E4
:102680001FD118E0A348406A022802D0A148406A3E
:1026900010B901209F49486200209E49886210E0DD
:1026A0009C48406A022802D108209A4948620020CA
:1026B0009849886205E009209649486200208862AE
:1026C00000BF00BF9348406A0D2871D2DFE800F0D8
:1026D0007007A1FCFBFADCF9F8F7F6F5D8008D4895
:1026E00090F83000C0F3801078B38948C06E042899
:1026F0002BD1894800688649896C88420DDD854860
:1027000000688349896C884202DD8248006801E0E4
:102710007F48806C8049086017E07F4800687E49E8
:102720004968401A7A49C96C88420EDA79480068CB
:102730007749C96C884202DA7648006801E074483B
:10274000C06C754908600020486073480068714992
:102750000968884201DA012100E000216D48006B20
:1027600061F3C7106B490863084690F83000C0F366
:10277000C01010B1BBF1000F07D1664890F83000CF
:10278000C0F3C01040B9059830B1032061494862D8
:1027900062A0FFF7BFFE3BE05E4890F83000C0F358
:1027A000C01030B15C4800685B494968401A02E0DB
:1027B00089E15948006881465749CB688A6855497C
:1027C00008684946FFF764FD52484A46016856A02A
:1027D000FFF7A0FE4F48006B20F002004D49086350
:1027E0000846006B20F4806000F5806008630846AE
:1027F000006B20F4006008630846006B20F00100C5
:102800000863022048620846006B20F48050086389
:1028100059E1404890F83000C0F3C01010B1BBF14E
:10282000000F07D13B4890F83000C0F3C01068B9E2
:10283000059858B13748008EC0F3003030B935499B
:102840000098486200203449486018E0314890F808
:10285000300010F0010F12D02E48007B10F0800FD6
:1028600003D00C202B49486209E02B48406818B17E
:1028700006202849486202E004202649486222E1F5
:102880000120244948621EE1002023494860214874
:10289000006B20F080001F49086302204862084650
:1028A000006B20F001000863DFF86CC0DCF80C302E
:1028B000DCF80820DCF8001007E0FBE0EAE0A9E023
:1028C00087E00CE040E014E05FE0DFF848C0DCF8AF
:1028D0000000FFF7DDFC07200E494862F3E00D48D9
:1028E00090F8300010F0010F02D00420094948622E
:1028F000E9E001F0B5FC124908800648006811497A
:102900000860052003494862DDE000001004024031
:102910005804002018050020F00600200D0A4D6F15
:102920007665496E680000000D0A4D6F7665206679
:10293000726F6D20256C6420746F20256C6400001C
:10294000A8000020AC000020F7480068F74909689B
:102950000E1A022E15DA16F1020F12DD01F080FCBC
:10296000F3490988401A80B264280DDDEE48006BF7
:1029700020F4006000F50060EB4908630320486222
:1029800002E00420E84948629DE0E748006B20F43B
:102990008050E54908630846006B20F00200801C67
:1029A00008630846006B20F4806008630846008EC8
:1029B000C0F3403048B108460068DE490860DA4894
:1029C000006B20F40050D84908630020D6494862C3
:1029D00079E0D9A0FFF79EFDD348006B20F40050AA
:1029E00000F50050D04908630846006B20F4805081
:1029F00000F5805008630846006B20F00100086372
:102A00000020CC4948600120FFF74CFC0A20C64951
:102A1000486258E001F089FBCAA0FFF77BFD002067
:102A2000C4494860C048006B20F4805000F58050D5
:102A3000BD4908630846006B20F00100401C086394
:102A40000220FFF72FFC06A8FFF722FAB64800681D
:102A5000B8490860FFF70FF9DFF8D8C2DCF80C308E
:102A6000DCF80820DFF8C0C2DCF80010DCF8000059
:102A7000FFF70EFC06A8FFF70BFAFFF7F4F8AA48D9
:102A8000008EC0F3402008B101F046FB0A20A649A1
:102A9000486218E0A44890F8300010F0010F08D008
:102AA000A148006B20F00400001D9F4908630B2023
:102AB000486208E09C48006B20F004009A490863D3
:102AC0000420486200BF00BF002546E0964834302D
:102AD00000EB05142068022806D0032813D0042830
:102AE0001DD0052837D127E08F4A128EC2F38022ED
:102AF00082F0010282F0010304F1080252F823007F
:102B00006168884727E0012F01D1012300E00023FD
:102B100004F1080252F82300616888471BE0B8F10D
:102B2000010F01D1012300E0002304F1080252F853
:102B30002300616888470EE0012F02D0B8F1010F31
:102B400001D1012300E0002304F1080252F8230020
:102B50006168884700BF00BF6D1C022DB6DB72485C
:102B6000406A07B0BDE8F08F1FB572489DE81E00AF
:102B70001EC001206C4988621FBD6B498862704786
:102B80006C49086000216B4A516070471FB5664868
:102B9000C069012802D0022811D10AE06248806988
:102BA00010B901206049886100205F49C86108624E
:102BB00005E000205C498861C861086200BF00BF71
:102BC000594880690C287BD2DFE800F0060D606B65
:102BD0007BA3C6D1F8F6F5F45348006B20F0200033
:102BE0005149086319E15048006B20F02000203063
:102BF0004D490863002001905448C06A0290534830
:102C0000806A0390514890F87000C0F38010E0B1E2
:102C10004F480068C0F300104C4991F87010C1F3A0
:102C20000011884208D14FF04040009003203E49F7
:102C300008620520886124E04FF080400090012068
:102C400039490862022088611BE041480068C0F3EE
:102C500040103E4991F87010C1F34011884208D1EC
:102C60004FF08040009003202F49086205208861C2
:102C700007E04FF04040009001202B4908620220FD
:102C800088619DE80F00FFF76FFFC6E02648006AE5
:102C9000022805D10320FFF770FF03202249886135
:102CA000BBE02148406A50B91F48806A012806D01D
:102CB00001F0D6FA2749088004201B498861ACE05E
:102CC000AAE001F0CDFA23490988401A80B2B0F594
:102CD000C87F1DDD1D4890F87000C0F3801018B14A
:102CE0004FF04040009002E04FF080400090002004
:102CF00001901648C06A02901448806A03909DE8CB
:102D00000F00FFF731FF03200749086205208861A3
:102D100083E00548006A042805D10320FFF72DFF52
:102D200006200149886178E018050020AC000020E9
:102D3000A8000020F00600200D0A53746F702E2E9C
:102D40002E0000000D0A53746F70210058040020FB
:102D500010040240B0000020F748406A30B9F6483D
:102D6000806A012802D00720F349886155E00020DD
:102D70000190F248C06A0290F048806A0390EF48E0
:102D800090F87000C0F3801030B1EB488068EB49D8
:102D9000096B401A009005E0E7488068E749096B35
:102DA000084400909DE80F00FFF7DEFE0820E2498E
:102DB000886132E029E023E00FE0FFE7DE48406A67
:102DC00050B9DD48806A012806D001F049FADC4993
:102DD00008800920D84988611FE001F041FAD849EC
:102DE0000988401A80B2B0F5C87F08DD0020FEF7E0
:102DF0007EFF0020FFF7C4FE0A20CF4988610CE067
:102E00000020CD490862886107E0CB48006B20F0C4
:102E10002000C949086300E000BF00BFC6488069C0
:102E2000C849096888422CD0C3488069C5490860F0
:102E3000C14880690B2823D2DFE800F022060A0E81
:102E400022161A1222221E00BFA0FFF763FB17E012
:102E5000C0A0FFF75FFB13E0C1A0FFF75BFB0FE033
:102E6000C3A0FFF757FB0BE0C4A0FFF753FB07E03D
:102E7000C7A0FFF74FFB03E0CAA0FFF74BFB00BF63
:102E800000BFAD48806904B010BD10B5C948006AE4
:102E900050B1012816D1A848006B20F04000A64987
:102EA00008630120C8610EE00020FEF720FF00202B
:102EB000FFF766FEA048006B20F0400040309E49BE
:102EC000086300E000BF00BF10BD02209A49C8613E
:102ED00070471FB50446012C24D19748008EC0F3DB
:102EE0004020F8B994490868FFF74AFE9248006804
:102EF0000090012003900290002001909DE80F00B7
:102F0000FFF732FE01F008F98B48006B20F40070E7
:102F100000F50070884908630846006B20F4003013
:102F2000086313E0022C11D18348008EC0F34020C7
:102F300060B18148006B20F400707F490863022073
:102F4000C8610320FFF719FE01F0EFF81FBD2DE95E
:102F5000F04F2DED028B87B004460E460020069000
:102F6000754890F83000C0F3401040B97248008EA8
:102F7000C0F3402018B17148B0F8440028B90020CF
:102F800007B0BDEC028BBDE8F08F01F069F9804617
:102F9000201E01DB014600E04142192900DA00242D
:102FA0006548C06A02280CD06348C06A48B16248CC
:102FB000C06A022807D0604890F83000C0F3C00013
:102FC00008B9012000E000200746012E04D0022E9F
:102FD0007ED0032E7DD152E184B97748006868B174
:102FE0000320FFF7CAFD5448006B20F00800524947
:102FF00008630020C8627048046079E06E48006889
:10300000B4EB000901D4484601E0C9F100000528ED
:103010006EDD6A480188404601F026F9642867D9C8
:10302000002F65D04448006B20F00800083042496A
:1030300008630220C862002C01DD204600E06042E7
:1030400008EE100A3C4880690A2814D1002C01DDE2
:10305000012000E000203949B1F84410012900D1D5
:1030600000E00021884202D13448006801E0334882
:103070004068054613E0002C01DD012000E000203F
:103080002E49B1F84410012900D100E00021884206
:1030900002D14FF0804001E04FF040400546274804
:1030A00090ED0F0AB8EEC00AF8EE480A20EE200AAA
:1030B000DFED430A80EE201A11EE109A48460CF01C
:1030C00052FD05901D48006C03900598049001E0A6
:1030D0000FE03CE101950020029001A80FC8FFF726
:1030E00043FD01200690344804603448A0F8008075
:1030F0002DE134480068022802D00F480068019092
:10310000201E01DB014600E041422A296DDD2A48EC
:10311000D0F800B0BBF1000F01DB584601E0CBF165
:1031200000002A285CDD2448D0F80090B9F1000F97
:103130004ADB48464AE000001805002058040020F9
:10314000B0000020B40000200D0A4853746172746E
:10315000000000000D0A48476F546F4C696D000075
:103160000D0A4853746F7041744C696D0000000083
:103170000D0A484F66667365740000000D0A484DDD
:103180006F76654F75744F664C696D697400000009
:103190000D0A4853746F704F7574736964654C6998
:1031A0006D6974000D0A48436F6D706C65746564D9
:1031B000000000006C050020B8000020C0000020C6
:1031C00000000043BC000020C9F100002A2809DDEE
:1031D000D3480188404601F047F8B0F57A7F01D91D
:1031E000012000E0002082460BE04FF0000ACD48AD
:1031F000006B20F00800CB49086301F031F8C849A2
:103200000880BAF1010F37D1B7B3C648006B20F080
:1032100008000830C34908630220C8620846008ECF
:10322000C0F3802040BBC0480168002C02DDBF48CD
:10323000406902E0BD48406940420D18BB48006843
:10324000A84219DBB9484068A84215DCB548006BB4
:1032500020F008000830B3490863B448806903903F
:10326000B248C069049001950020029001A80FC8DF
:10327000FFF77AFC01200690AD48046067E0201E4D
:1032800001DB014600E041422A2952DDA54890F8C1
:103290003000C0F38010E8B3A5490868002801DBBE
:1032A000014600E041422A294EDCA7B3002C03DD91
:1032B0000120A049C86304E0002C02DA00209D49E7
:1032C000C8639C48C16B9C4850F8215099482A46D5
:1032D000C16B9AA004F0A2FE9248008EC0F3802039
:1032E000C8B991480068A8422ED08E48006B20F0E3
:1032F000080008308B4908630220C8628B48806947
:1033000003908A48C069049001950020029001A8AA
:103310000FC801E005E017E0FFF726FC012006904A
:1033200012E08048006B20F0100010307D490863E7
:103330000AE07C48006B20F008007A4908630846E0
:10334000006B20F0100008637948046000BF00BFE4
:1033500080480660069813E67FB504460025022CD7
:1033600006D0032C3DD0042C70D0052C05D19CE058
:103370006C48008EC0F3402000B9CCE06948C06AB8
:1033800028B9684890F83000C0F3C00000B1C2E02E
:103390006448006B20F00800083062490863624806
:1033A00000686249096D084400905E490098096808
:1033B000884202DA5D48406A00E0002001905B48E4
:1033C000806802905948C06803909DE80F00FFF79D
:1033D000CBFB03205349C86202255FA004F01EFE08
:1033E00099E05048008EC0F3402000B993E04D486A
:1033F000C06A28B94B4890F83000C0F3C00000B153
:1034000089E04848006B20F008000830454908630F
:103410000320C8624548406D0090009809688842C2
:1034200002DA4248406A00E0002001903F4880688C
:1034300002903E48C06803909DE80F00FFF794FBA0
:1034400003254CA004F0EAFD65E0FFE73548008E57
:10345000C0F3402000B95EE03248C06A28B9314864
:1034600090F83000C0F3C00000B154E02D48008E49
:10347000C0F3802010B92B48806900B14BE0294887
:10348000006B20F008000830264908630846006BEE
:1034900020F040000863FFF7F8FC03202149C862D0
:1034A00004253BA004F0BAFD35E01E48008EC0F3B1
:1034B000402000B92FE01B48008EC0F3802048B3A5
:1034C0001848008EC0F3003020BB0320FFF755FBE7
:1034D000FFF7FBFC1748806E20F002001549886654
:1034E0001048C06A012801D1012100E000211148E3
:1034F000806E61F382000F498866084690F8680084
:10350000C0F3800008B128A000E029A001462BA04C
:1035100004F084FD00BF00BF284604B070BD000069
:10352000C000002018050020F006002058040020EC
:10353000B8000020B8050020D80400200D0A4D6F07
:10354000766520746F20706F73202564203D2025E0
:1035500064000000BC0000200D0A547269676765B2
:103560007265642072656C6174697665206D6F7632
:10357000650000000D0A5472696767657265642012
:103580006162736F6C757465206D6F766500000005
:103590000D0A54726967676572656420686F6D65AE
:1035A000206D6F766500000073656E74000000008A
:1035B0006E6F742073656E74000000000D0A547203
:1035C000696767657265642073746F702C206E6F15
:1035D00074696669636174696F6E20746F207365C6
:1035E00072766572202573000020E749096841F072
:1035F0000101E54A1160E549096821F00C01E34A3F
:1036000011601146C96821F00C01D1604FF480218E
:1036100091611146096841F0100111601146096875
:1036200021F0200111601146896861F0300191603C
:10363000910091611146096841F040011160114605
:10364000096821F0800111601146896861F0C001AC
:1036500091601146096821F4406111601146C96802
:1036600021F44061D16011460969C1F34010402145
:1036700091611146096841F4805111601146096851
:1036800021F4005111601146896841F44051916064
:103690001146096821F4403111601146C96821F4CE
:1036A0004031D160B849096841F00201B64A116061
:1036B000B749096821F00C01B54A1160B4490C31D1
:1036C000096821F00C01B24A0C3211604FF48021DC
:1036D000AF4A18321160AE49096841F01001AC4A96
:1036E00011601146096821F020011160A8490831D4
:1036F000096821F03001A64A08321160A44909681E
:1037000021F47061A24A1160A1490C31096821F4C9
:1037100070619F4A0C3211604FF080519C4A183200
:1037200011609B49096841F08071994A1160114606
:10373000096821F00071116095490831096821F08C
:103740004071934A083211604FF40051904A183288
:1037500011608F49096841F080618D4A11601146FE
:10376000096821F00061116089490831096821F078
:103770004061874A083211608349096841F00401B9
:10378000814A11600821834A116082491839096809
:1037900041F040017F4A183A11601146096821F052
:1037A000800111607B491039096821F0C001794A14
:1037B000103A11601021774A11607649183909686A
:1037C00041F48071734A183A11601146096821F476
:1037D000007111606F491039096821F440716D4A18
:1037E000103A11606B491839096821F44061694A3F
:1037F000183A116067490C39096821F44061654A3B
:103800000C3A11604021634A116062491839096815
:1038100041F480515F4A183A11601146096821F459
:10382000005111605B491039096821F44051594A2F
:10383000103A116057491839096821F44021554A56
:10384000183A116053490C39096821F44021514A52
:103850000C3A11604F491839096821F040514D4A1E
:10386000183A11604B490C39096821F08051494AD6
:103870000C3A11601146096841F0005111604FF493
:103880000041444A116043491839096841F08041B8
:10389000404A183A11601146096821F00041116050
:1038A0003C491039096821F040413A4A103A116008
:1038B000704708B1402101E04FF48001334A916123
:1038C000704708B1082101E04FF400212F4A9161AF
:1038D00070472E480069012121EA10207047042119
:1038E0002C4A11602B491839086820F0300040F04C
:1038F000100020F02000086070472548006820F084
:103900000C0023490860042022490860BFF35F8F40
:103910001F4810300068C0F3400070474FF480210A
:103920001C4A116008B1022101E04FF40031184A2D
:10393000183211601649096841F00401144A1160F7
:1039400070471248006820F00C00104908604FF4DE
:10395000004010490860BFF35F8F0C480069C0F356
:10396000400070474FF000410A4A116008B102213F
:1039700001E04FF40031054A91611146096841F0B8
:10398000040111607047000030380240000002401E
:10399000000402401808024070B504460126D4F81D
:1039A0000001022801D0022070BD2FE038480268D3
:1039B0000068401C364B1860A5541846006806285D
:1039C00017D1207910F0800F01D0A07800E00020FE
:1039D000801D30490860207900F07F00502806D112
:1039E0006079012803D108460068802801D9902019
:1039F000DAE72748006827490968884206D100208D
:103A0000234908600120C4F800010326D4F800010E
:103A1000012806D000F043FA0546A0F57F41FF39A2
:103A2000C4D13046C0E730B5D0F8003102461A4C58
:103A300024681A4D2D686119184C24681C44174DD0
:103A40002C6003E012F8014B01F8014B1C00A3F1BC
:103A50000103F7D130BD10B510480068B0B100F0D7
:103A600060FA98B10D4801680B48006800F034FA1C
:103A7000094800680A49884202D101F5807000E0D7
:103A800007480549086000200449086010BD00008F
:103A9000D0010020D4010020C8010020CC0100206A
:103AA000040800208448006840F4802082490860AF
:103AB000814810380068814908437F4910390860FF
:103AC0007F48006820F480107D490860084600683F
:103AD00040F400100860081D006820F48060091D93
:103AE000086077480C30006820F4401074490C31AD
:103AF0000860081F006820F44010091F0860704823
:103B0000406A20F4706040F4E0616D4841620068F2
:103B100020F480006A4908600846006840F400000C
:103B2000086067480C30006820F4400064490C319C
:103B300008606348406A20F4704040F4E041604807
:103B4000416240F26D105F49088000205D490831F4
:103B50000880091D08805B48001D008840F4005063
:103B60005849091D088057480C30008840F0C000B3
:103B700054490C3108805448806D20F001005249AE
:103B8000886500E000BF5048806D10F0010FF9D14A
:103B90004D48806D20F060604B4988650846806D17
:103BA00040F0006088650846806D40F48860886554
:103BB0004448001F08660020C8650846806A20F057
:103BC0000100886200E000BF3F48806A10F0010FEA
:103BD000F9D13D48806A20F060603B498862084620
:103BE000806A40F0006088620846806A40F4A06005
:103BF00088623448001F086334484863C814C862A8
:103C000030480838008820F040002E4908390880E4
:103C10002C48001D008840F00C002A49091D08802E
:103C20002948806A40F00100274988627047264988
:103C3000C96AC1F50061264A1268914202D14FF665
:103C4000FF700FE022490A680968491C204B19607F
:103C50001E49885C19460968B1F5006F02D1002140
:103C60001A4611607047184A926D22F00102164BF5
:103C70009A6500E000BF144A926D12F0010FF9D16D
:103C8000114A5066D1650F4A083A128822F0400264
:103C90000C4B083B1A804FF000620B4B9A601A469F
:103CA000926D42F001029A65704706480838008814
:103CB00000F0400070470000403802400200200041
:103CC000000402400848004000600240040A00204E
:103CD000D80100209548006840F010009349086022
:103CE0009248143800689249084390491439086092
:103CF0009048006820F480208E49086008460068DB
:103D000040F4002008600846406820F400704860D5
:103D10000846C06820F44020C8600846806820F447
:103D2000402088600846406A20F0F00040F07001B2
:103D300080484162006820F480107E49086008468F
:103D4000006840F4001008600846C06820F40010C5
:103D5000C8600846C06840F48010C8600846406AE1
:103D600020F4706040F4E06172484162C002714921
:103D700088610846006840F0807008600846006866
:103D800020F0007008600846806840F0407088604D
:103D90000846006820F4400008600846C06820F427
:103DA0000000C8600846C06840F48000C86040F267
:103DB000D9206149088100200882888208468089CC
:103DC00040F4005088810846808A40F0C000888214
:103DD0005A48006820F001005849086000E000BF20
:103DE0005648006810F0010FF9D15448006820F0DF
:103DF0006060524908600846006840F00060086052
:103E00000846006840F4886008604B48001D4B4934
:103E1000083108600020091F0860484878380068A9
:103E200020F0010045497839086000E000BF4348B0
:103E30007838006810F0010FF8D1404878380068F1
:103E400020F060603D49783908600846006840F01D
:103E5000006008600846006840F4A06008603648CA
:103E6000001D3649703908603548091D086008157D
:103E70003249743908603048008820F040002E49EB
:103E800008800846808940F00C0088812B487838EB
:103E9000006840F0010029497839086070472749D7
:103EA00074390968C1F58061264A1268914202D1CD
:103EB0004FF6FF700FE023490A680968491C214B3F
:103EC00019601F49885C19460968B1F5806F02D1F5
:103ED00000211A4611607047184A126822F0010248
:103EE000164B1A6000E000BF144A126812F0010F6E
:103EF000F9D1124A0C321060104A121D11600E4A9C
:103F0000128822F040020C4B1A804FF000620B4BDB
:103F1000AC3B1A60094A126842F00102074B1A6072
:103F200070470548008800F0400070474438024060
:103F3000010040000000024000100140B86402404F
:103F400004120020DC0100209948006840F00600BF
:103F5000974908609748006820F0A040954908609C
:103F60000846006840F020400860081D006820F402
:103F70004040091D08608F480C30006820F07040F8
:103F80008C490C310860081F006820F07040091F40
:103F900008608948006820F4A03087490860084616
:103FA000006840F420300860081D006820F4C070EC
:103FB000091D086080480C30006820F470307E498C
:103FC0000C310860081F006820F47030091F086079
:103FD0007848406A20F0706040F040717548416256
:103FE000406A20F0704040F0405172484162714890
:103FF0002030006820F0704040F040506E49203181
:1040000008606C48406A20F00F00C01C6A49486292
:1040100067481430006840F00200654914310860B8
:10402000002066490880481465490880401E63499D
:10403000091D0860624800886049103108606048C6
:104040000088091D08605D481438008840F00100B0
:104050005A4914390880081D008840F4C040091DE1
:10406000088056480838008840F050005349083905
:104070000880081F008840F06000091F0880081DA4
:10408000008840F4A060091D08804C481C3000885E
:1040900048F21401084349491C3108800620474969
:1040A0000831088045482838008840F0010043491D
:1040B0002839088041481C38008840F001003F49F9
:1040C0001C39088070473E490988884203DD3C4915
:1040D000098808B208E03A4909884942884203DA67
:1040E00037490988494208B200280ADD344909885D
:1040F000091A324A1432116031490988121F1160BD
:1041000009E02F4909882D4A143211602C49098889
:104110000144121F1160704728481C30008840F489
:10412000004026491C310880704724481C30008814
:1041300020F4004021491C3108807047704710B5B9
:104140001E491C39098821F001011C4A1C3A1180C2
:10415000111D098821F00101121D11802C2101F08F
:104160001F0301229A40174B4C0943F8242000BF3B
:1041700010B11549086002E01449134A11600F4953
:104180001C39098841F001010C4A1C3A118010BD0C
:1041900010B50A481838008820F00100074918397E
:1041A0000880FDF7EFFD08480068804710BD00005B
:1041B0003038024000040240000802402804014058
:1041C000E001002080E200E0E40100203D41000821
:1041D000FE48006840F40030FC490860A720FC4914
:1041E000088040F2E730091D08604010F8490C31A2
:1041F0000860F7480838008840F00100F4490839A1
:104200000880F3481038008840F06000F049103909
:104210000880081F008840F00100091F0880EC4852
:104220002838008840F00100E94928390880E7482B
:10423000006840F48030E54908602020E5490881A5
:104240000846008940F007000881002008854FF6E5
:10425000FF70C8620846008840F00100088070477F
:10426000DC48406A80B270470246501A80B27047FC
:10427000D648001F006840F01000D449091F0860AC
:104280005320D54908854FF6FF704862C86208463A
:10429000008840F0080008800846008840F00100CF
:1042A000088070474142CC484162018841F00101D9
:1042B00001800188C907FCD17047C448001F00680D
:1042C00040F00800C149091F0860C0482438006850
:1042D00040F00800BD492439086000E000BFBB4839
:1042E0002438006810F0080FF8D0B8482438006867
:1042F00020F00800B549243908600020B74908803B
:10430000091F0860B1481438006840F00100AF4947
:1043100014390860B248006820F00100B049086014
:104320000846006840F0020008600846006A20F075
:104330000F00801C08624FF0FF30A849091D08607B
:104340005720A64920390880A4481038008840F03A
:104350000100A24910390880081F008840F00100C0
:10436000091F08809D482838008840F001009B49BB
:10437000283908809548001F006840F002009349E2
:10438000091F0860002097490880091F08608F48AE
:104390001438006840F002008C49143908609248D3
:1043A000006820F00100904908600846006840F06D
:1043B000020008608C482030006820F00F00801C4C
:1043C0008949203108600846006820F0F00040F07C
:1043D0002000086041F267008249091D0860401012
:1043E00080491431086008460068091D086047F2DA
:1043F00070007C490C390880081D008840F48070EA
:10440000091D088077481438008840F0010075497C
:1044100014390880704730B50346FFF721FF044682
:1044200000E000BFFFF71CFF05462146FFF71CFF19
:104430009842F6DB30BD02466C4850434FF47A7325
:10444000B0FBF3F1B1F1807F01D3012070474FF051
:10445000E020006940F001004FF0E02318611846A9
:1044600041610020F2E74FF0E020006900F4803065
:10447000704710B548B95E4B19685D4B283B1B6807
:104480005C4C23605A4B243B1A68504B1B1F1B6823
:1044900043F080534D4C241F2360574B1B6843F45B
:1044A0008073554C2360494B2C331B6843F4803395
:1044B000464C2C34236023461B6823F4803323604E
:1044C00023461B6843F44073236023461B6843F470
:1044D00000432360CA23464C241F236053232360D8
:1044E000434B1C3B1B6843F08003414C1C3C236046
:1044F00000E000BF3E4B1C3B1B6813F0400FF8D0A0
:104500003B4B183B1B686FF30C0303F20F73384CE3
:10451000183C236023461B6823F4FE0343F4C603C0
:104520002360344B1B68324C283C2360334B241DE2
:1045300023602F4B1C3B1B6823F080032C4C1C3C3E
:10454000236000E000BF2A4B1C3B1B6813F0800F68
:10455000F8D1FF23264C241F2360254B1C3B1B68EE
:1045600023F02003224C1C3C236010BD1749091F77
:10457000096841F08051154A121F11601E490968EF
:1045800041F480711C4A116010492C31096841F4D2
:1045900080310E4A2C3211601146096821F48031B5
:1045A00011601146096840F205121143074A2C3286
:1045B00011601146096841F40041116010B30949C6
:1045C0002839098841F00101064A19E044380240BF
:1045D000284401400040014000100040280C0040E9
:1045E000000002402804004000040240406F4001E7
:1045F00028280040E8010020007000400244130019
:10460000283A1180CA21834A1160532111608149DF
:104610001839096841F080017E4A183A116000E0BB
:1046200000BF7C491839096811F0400FF8D079496A
:10463000143909686FF30C0101F20F71754A143ACD
:1046400011601146096821F4FE0141F480311160C6
:10465000714909686F4A243A11607049121D11604E
:104660006C491839096821F080016A4A183A1160CA
:1046700000E000BF67491839096811F0800FF8D1D0
:10468000FF21644A116063491839096821F020014B
:10469000604A183A11607047614901405E4A1160F2
:1046A0007047CA215B4A116053211160594918397A
:1046B000096841F08001574A183A116000E000BFD4
:1046C00054491839096811F0400FF8D05449014095
:1046D000504A243A11604F491839096821F0800185
:1046E0004C4A183A1160FF214A4A1160704730B5B0
:1046F0000246CA20474B18605320186045481C38B2
:10470000006820F48070434B1C3B1860181D006843
:1047100040F001001B1D186000E000BF3D48183844
:10472000006810F0010FF8D03D48104040F0004004
:10473000384B083B1860C1F30C0040F07060354BFB
:104740002033186033481838006820F00100314BDE
:10475000183B18601846006820F480701860181F15
:10476000006840F488501B1F1860181D006820F076
:1047700001001B1D1860FF20264B186029480068A7
:1047800040F40030274B186026480838006840F491
:104790000030244B083B186022480C30006840F47D
:1047A0000030204B0C331860292000F01F04012337
:1047B000A34044094FF0E02505EB8404C4F8003120
:1047C00000BF30BD10B513481838006820F4807061
:1047D00010491839086000E000BF0E48183800681A
:1047E00010F4807FF8D10F480C30006840F400309E
:1047F0000C490C3108600C4A90685168884710BD1C
:10480000044B1B1D1A68034B243B18681B1D1968B9
:104810007047000024280040E801002002441300F3
:104820007F7F3F00083C0140B805002000210020A8
:104830005E4A126842F480325C4B1A6000BF5B4AE9
:10484000126802F40030491C10B9B1F5705FF6D15E
:10485000564A1268C2F34040002879D0534A403289
:10486000126842F08052514B40331A60504A12682D
:1048700042F480424E4B1A6040F205624D4B1A6082
:104880004A4A08321268494B08331A601A461268BD
:1048900042F400421A601A46126842F4A0521A60AA
:1048A0001A46126822F4F81242F440221A601A469C
:1048B000126822F07C521A601A46126842F0806236
:1048C0001A601A46126842F060521A601A4612685C
:1048D00022F040421A601A46126842F080421A6082
:1048E000354A1B1F1A601A1F126842F080721B1F84
:1048F0001A6000E000BF2D4A126812F0007FF9D064
:104900002A4A0832126822F00302284B08331A6040
:104910001A46126842F002021A6000E000BF234A01
:104920000832126802F00C02082AF7D1234A1F4B02
:1049300084331A601D4A126842F080621B4B1A6071
:1049400001E005E000BF194A126812F0006FF9D0CB
:10495000704710B51A48006840F4700018490860A4
:104960001248006840F001001049086000200F491B
:10497000083108600D480068124908400B4908607A
:104980001148091D0860081F006820F48020091FD5
:104990000860002005490C310860FFF747FF4FF021
:1049A000006007498039086010BD000000380240EF
:1049B00000700040003C02400C5440070040005092
:1049C00088ED00E0FFFFF6FE10300024044621468B
:1049D000F8A003F023FB01E003F0A0FBFCE70FB419
:1049E0007FB509A80390BDF8200000900020019039
:1049F000F6A00290BDF82000812818D1039810C8B5
:104A00000390039820C8039000200090F048806D28
:104A1000A0420CD0B4F5004F07D081200090019443
:104A200002952946EBA003F0F9FAE94884650020D5
:104A30000390E748406E02280ED1EC4A69460020F8
:104A400000F0E1F80646012E06D1E848FEF7EBFF3C
:104A50000021E64803F057F97FBC5DF814FB10B560
:104A60000822D101E24802F01CF90446012C08D0CA
:104A7000E0A248F2D0418120FFF7B1FFE3A003F0AC
:104A8000CDFA01230822D101D94802F0C7F8044623
:104A900044B1E5A248F2D0418120FFF7A0FFE8A091
:104AA00003F0BCFA10BD10B54C22EC49EC4808F0FC
:104AB0003FFC7422EB49EA484C3008F039FCC4480A
:104AC0000068E74908390860E7484860CC220021BF
:104AD000E348083802F0E5F80446012C08D0C5A2E6
:104AE00048F2D0418120FFF77AFFC8A003F096FA80
:104AF0000123CC220021DA48083802F08FF804465E
:104B000044B1C9A248F2D0418120FFF768FFCCA090
:104B100003F084FA10BDD548D54A128EC2F3402264
:104B20007AB140F00040D24A5268D14B1B68D11A8A
:104B300042F21072914202DC5242914201DA40F09C
:104B40008040CB4A126BC2F300420AB140F0804071
:104B5000C74A128EC2F380224AB1C54A5269002A5E
:104B600001DD102200E0202242F000521043C04A32
:104B700092F83020C2F3801212B140F4806007E056
:104B8000BB4A92F83020C2F340120AB140F40070E0
:104B9000B74A128EC2F380320AB140F00200B44A22
:104BA000128EC2F3C0320AB140F00100B04A12685E
:104BB000AC4B9B6C9A4201DB40F00800AC4A126897
:104BC000A84BDB6C9A4201DC40F00400804A92F86A
:104BD0006820C2F340123AB1A54A5269002A01DDA9
:104BE000402200E080221043A24A1268C2F3400231
:104BF0000AB140F48010A04A1269C2F340020AB11F
:104C000040F4001070472DE9F74F8CB08B46924668
:104C10000C9878B1DDF83090DDF83090B9F80000EC
:104C200080B20B90DDF8309009F106060220684949
:104C3000486609E0BBF1000F06D04FF000090026DE
:104C4000BBF8000080B20B905546AC1D0020E87008
:104C5000012028715020687100200A90CAF80001D4
:104C600040F243420B98811A90426ED056DC40F2DB
:104C70000A42A0EB0201904268D02DDC812801F0AD
:104C80001D8013DC12287DD007DC02287BD005288C
:104C90007AD0112841F0008161E1142801F02680CA
:104CA000152801F0E9805028F4D1FDE0B0F5057F2A
:104CB0006BD009DCB0F5047F68D0A0F50070113826
:104CC00065D00228E6D1F2E3A0F5007023385FD06A
:104CD000B0F5F37FDED19FE119295AD00FDCA1F1A5
:104CE0000600092881F0D880DFE810F09501A801BE
:104CF000D60803020B02D608240231023002312901
:104D000048D006DC1A2946D01F2945D03029C1D108
:104D1000EFE3362941D03729BCD1ABE34D293DD053
:104D200023DC14293BD012DC052939D006DC01290B
:104D300037D0022936D00329ACD1FDE30D2932D07A
:104D40000E2931D01029A5D1F7E3BEE350E1213976
:104D50000929C7D2DFE811F085012C058601A008DA
:104D6000A008A0084E05BD05C405DD291DD01DDC29
:104D70005E291CD01CDC4E291BD04F297ED05D291A
:104D800088D1F6E3F8E0FEE093E0F3E310E11EE102
:104D9000E1E0FBE1EFE3DEE299E14BE36FE1EBE31E
:104DA000EBE3D1E3EAE3EAE3EAE3EAE36FE0E9E332
:104DB00065E058E10D0A45786974207769746820C8
:104DC0006572726F723A20257300000000000000C7
:104DD000B80500200D0A415054206E6F7469666951
:104DE000636174696F6E3A2025730000000700202C
:104DF000A0000020454550524F4D20577269746500
:104E0000204661696C757265000000000D0A454519
:104E100050524F4D205772697465204661696C7518
:104E200072650D0A00000000454550524F4D205656
:104E30006572696679204661696C7572650000006B
:104E40000D0A454550524F4D2056657269667920CE
:104E50004661696C7572650D0A000000CC04002083
:104E60002C0600205804002002020100000100105E
:104E700018050020100402400000024023E17629BA
:104E800000F00087B02941F0078000F006BFDE394E
:104E9000072981F00180DFE811F01C061B0660067F
:104EA0008306FF07A806BE063088FD49C86400F0E7
:104EB000F6BF062028805420A870287940F0800092
:104EC00028715422F749204608F0EDF9F6480068A9
:104ED0002060F348C06C022802D1F148006801E06C
:104EE000F2488068A4F84C00ED488069012802D19E
:104EF0000320A4F84E00EEA0007884F84200ECA055
:104F0000417843200155EAA0C17844200155E8A02A
:104F1000017945200155E9A00079202801D13020F0
:104F200001E0E6A0007946210855E4A04179472038
:104F30000155E2A0017848200155E0A041784920C0
:104F40000155DEA081784A20015500214B200155F2
:104F500001200A90ABE74020D1490865A7E7D04877
:104F6000806E20F010001030CD4988660020486522
:104F7000FA20FFF750FA9AE7C948806E20F0100037
:104F8000C749886693E70020C54948660846806E91
:104F900020F0100088660120C864BBF1000F06D025
:104FA000022028800020A870E87001200A907EE787
:104FB00099F80300012806D1C003B949886501208A
:104FC000FDF787FF02E00220FDF783FF6FE740F265
:104FD000122028800120A870BB48008EC0F340201A
:104FE00008B1012000E00220E87001200A905EE78D
:104FF00040F20B4028800620A870287940F08000FD
:10500000287101202080B048D0F80080C4F80280C8
:1050100001200A904BE700BF0B98A0F58061093989
:1050200002D1D6F8020001E0D6F8020080464046E0
:10503000FCF75DFE4046FDF7A3FD38E740F2124065
:1050400028800620A870287940F08000287101206F
:1050500020809D48D0F80080C4F8028001200A908A
:1050600025E700BF00BF8E4890F86800C0F300102D
:1050700020B18B48406D322800DD18E700BF0B9847
:10508000B0F5926F02D140F2914000E00B9800B26F
:1050900028800E20A8700020E870287940F0800059
:1050A00028710120208088480068C4F802008648E2
:1050B000808AE08000202081FFF72DFDC4F80A00DF
:1050C00001200A90F3E6002075494865EFE640F2BA
:1050D0002A4028800620A870287940F08000287196
:1050E00001202080FFF717FDC4F8020001200A907C
:1050F000DDE6D6F8060075498860D6F80A00C86073
:10510000D5E640F2154028800E20A870287940F09E
:1051100080002871012020800020C4F802006B4824
:105120008068C4F806006948C068C4F80A00012015
:105130000A90BCE670886549086170684861F0684B
:1051400088613069C861B08A0862B0E600BF4FF478
:10515000836028801620A870287940F0800028718C
:10516000012020805948008A60805848406960606A
:105170000020A06055488069E0605448C069206103
:105180005248008CA08201200A9090E6B088062840
:105190005CD2DFE800F05B030F2336494B48006F19
:1051A00020F00100494908670846006F20F004001C
:1051B00008674BE04548006F20F00100401C434960
:1051C00008670846006F20F00400001D08670846C5
:1051D000006F20F010001030086737E03B48006F88
:1051E00020F00100401C394908670846006F20F094
:1051F0000400001D08670846006F20F010000867D3
:1052000024E03248006F20F001003049086708466A
:10521000006F20F00400001D08670846006F20F0B2
:1052200010001030086711E02848006F20F00100DE
:10523000264908670846006F20F00400001D086733
:105240000846006F20F01000086700BF00BF70889C
:10525000062875D2DFE800F074030F3C4F621B484C
:10526000006F20F00200194908670846006F20F01F
:105270000800086764E01548006F20F00200801CF9
:10528000124908670846006F20F0080008300867D8
:105290000846006F20F020002030086750E0000032
:1052A000B80500202C010108980000206C050020A2
:1052B00030383A33373A3430000000004170722001
:1052C00032392032303139001805002058040020CE
:1052D000FC48006F20F00200801CFA49086708466D
:1052E000006F20F00800083008670846006F20F0C3
:1052F0002000086724E0F348006F20F00200F14925
:1053000008670846006F20F0080008300867084664
:10531000006F20F020002030086711E0E948006F9E
:1053200020F00200E74908670846006F20F00800F7
:10533000083008670846006F20F02000086700BFAB
:1053400000BFD6F80600DF498864D6F80A00C864B2
:10535000F089C866ABE540F2254028801020A8708F
:10536000287940F08000287101202080D54890F8ED
:105370007000C007400FD34991F87010C1F380014D
:1053800040EA4100CF4991F87010C1F30011084381
:1053900002280ED0032809D0062804D007280BD1F4
:1053A0000220A0800BE00320A08008E00420A08061
:1053B00005E00520A08002E00120A08000BF00BF22
:1053C000C04890F87000C0F340008000BD4991F8DB
:1053D0007010C1F3C00140EA4100BA4991F8701061
:1053E000C1F34011084302280ED0032809D0062833
:1053F00004D007280BD1022060800BE003206080DE
:1054000008E00420608005E00520608002E00120C3
:10541000608000BF00BFAB48C06CC4F80A00A94858
:10542000806CC4F80600A748B0F86C00E081012049
:105430000A903CE5D6F80600A2498862D6F80A0030
:1054400008637088012801D1012100E000219D48F6
:10545000006F61F386109B490867B088042801D16A
:10546000012100E000219748006F61F3C7109549C2
:1054700008671CE540F2424028800E20A870287979
:1054800040F080002871012020808E4890F8700044
:10549000C0F3801008B1012000E00220608089483C
:1054A00090F87000C0F3C01010B1042001E06DE26C
:1054B0000120A0808348806AC4F806008148006B00
:1054C000C4F80A0001200A90F1E47F48008EC0F37E
:1054D000402000B9EBE47C48C06A01280AD07A4831
:1054E000C06A38B1784890F83000C0F3C00008B105
:1054F000DDE433E07448008EC0F3802010B97248B8
:10550000806900B1D3E47048006B20F008000830D7
:105510006D4908630846006B20F040000863FDF702
:10552000B4FC01206849C8626848806E20F0080019
:1055300008306649886601E03CE0AFE00846806ECE
:1055400020F002008866B2E440F244402880012046
:10555000A8700020E87001200A90A8E4D6F80200A4
:10556000584948620846406A002801DA002048622B
:105570009DE4BDE132E206E0DCE02DE015E076E0FE
:105580007AE040E2DAE140F23C4028800620A87050
:10559000287940F080002871012020804948406A25
:1055A000C4F8020001200A9081E4D6F802004549BF
:1055B00008657CE440F2474028800620A8702879DE
:1055C00040F080002871012020803E48006DC4F822
:1055D000020001200A906AE43B48008EC0F340209C
:1055E00000B964E43848C06A012809D03648C06A66
:1055F00030B1354890F83000C0F3C00000B156E437
:105600003148006B20F0080008302F490863084635
:10561000D0F8008099F8040010F0800F03D0D6F87D
:105620000200804402E02748006D8044CDF80080ED
:10563000254900980968884202DA2248406A00E059
:10564000002001901F48806802901E48C0680390A7
:105650009DE80F00FDF788FA01201B49C8621B482E
:10566000806E20F00200801C184988661FE4D6F87E
:105670000200144948651AE440F25240288006208E
:10568000A870287940F080002871012020800D4802
:10569000406DC4F8020001200A9008E40A48008E18
:1056A000C0F3402000B9FAE30748C06A01280FD0D0
:1056B0000548C06A60B1044890F83000C0F3C000EB
:1056C00030B1ECE35804002018050020B805002094
:1056D000F948006B20F008000830F7490863012002
:1056E000C86299F8040010F0800F02D0D6F802804A
:1056F00002E0F248D0F85480CDF80080EE490098DE
:105700000968884202DAED48406A00E00020019012
:10571000EA4880680290E948C06803909DE80F005D
:10572000FDF722FAE648806E20F00200801CE44972
:105730008866B4E3E048008EC0F3402000B9AEE3D1
:10574000DD48C06A012809D0DB48C06A30B1DA48B8
:1057500090F83000C0F3C00000B1A0E399F8030056
:10576000022803D1D548D0F8008002E0D348D0F811
:105770000480D148006B20F008000830CE4908634F
:10578000CDF8008000200190CC4880680290CB4882
:10579000C06803909DE80F00FDF7E6F90120C649B7
:1057A000C862C748806E20F00200C549886676E36B
:1057B000C148008EC0F3802000B970E399F803104F
:1057C000012901D1032100E002210846FDF7D5F9A6
:1057D000FDF77BFBBA48806E20F00200B84988666E
:1057E0000846806E20F00400001D88660120B24942
:1057F000C86254E3B048008EC0F3402000B94EE3C5
:10580000AD48C06A012809D0AB48C06A30B1AA4887
:1058100090F83000C0F3C00000B140E3A848806EAB
:1058200020F020002030A6498866A448006901289D
:1058300011D199F80300022803D1A048D0F80080C4
:1058400002E09E48D0F804809D48806E20F002005F
:105850009B49886625E099F8030002280DD19648F7
:1058600000689649496900EB010894480068404582
:1058700010DA9248D0F800800CE08F4800688F4919
:105880004969A0EB01088D484068404502DD8B481E
:10589000D0F804808A48806E20F00200801C88497D
:1058A00088668548006B20F008000830824908634C
:1058B0000120C862CDF80080002001907F488069F7
:1058C00002907E48C06903909DE80F00FDF74CF9F7
:1058D000E5E27B48806E20F0010079498866DEE2CF
:1058E0007748806E20F00100401C75498866D6E23A
:1058F0000020708A10F0010F03D0D6F80E206F49F7
:105900004A6610F0080F03D0D6F802106B4A916572
:1059100010F0040F03D0D6F806206849CA6510F0CD
:10592000020F03D0D6F80A2064490A66C0F30722A2
:1059300062498A66C1B2634A1160B0E240F2A24095
:1059400028801420A870287940F080002871012058
:1059500004F1020424F8020C5848406EE0605748F5
:10596000806D20605548C06D60605448006EA06036
:10597000524890F868005349098841EA0020208283
:10598000A4F102044FF001000A9088E299F80200A5
:105990004B49896E60F386114948816699F8020087
:1059A000C0F340014648806E61F3C71044498866E1
:1059B000454840690A2805D191F86810C1F3801064
:1059C000FDF7ACFF404880690A2806D13C4991F8B0
:1059D0006810C1F3C010FDF7C5FF60E240F215206A
:1059E0002880374890F86800C0F38010344991F857
:1059F0006810C1F3C01100EB4100A8700020E870EE
:105A000001200A904BE270882C4988637068C86353
:105A1000B0680864B08900B2A1F84400D6F80E005E
:105A20002949C860D6F8121027480161006807901C
:105A3000254840680690244880680590F08A2249ED
:105A40000860308B38B9708B28B941F270704860AB
:105A5000022088600EE0708B1B498860308B18B97B
:105A60006FF00040486005E0308B4FF416714843FA
:105A700015494860144801680798814209D11248C5
:105A800041680698814204D10F4881680598814297
:105A900001D0012000E000200490BBF1000F09D1EB
:105AA000049838B100200649C861074908680749C9
:105AB00009688847F3E10000180500205804002019
:105AC000B8050020EC010020CC0400200C000020D0
:105AD00000BF40F2225028802420A870287940F08E
