:020000040800F2
:10000000887F00209D010008BB010008BD01000899
:10001000BF010008C1010008C30100080000000082
:10002000000000000000000000000000C501000802
:10003000C701000800000000CB490008CB01000800
:10004000CD010008CD010008CD010008CD01000858
:10005000CD010008CD010008CD010008CD01000848
:10006000CD010008CD010008CD010008CD01000838
:10007000CD010008CD010008CD010008CD01000828
:10008000CD010008CD010008CD010008C7660008B9
:10009000C7650008CD010008CD010008CD010008AA
:1000A000CD010008CD010008CD010008CD010008F8
:1000B000CD010008095D0008CD010008CD01000850
:1000C000CD010008CD010008CD010008CD010008D8
:1000D000575D0008CD010008CD010008CD010008E2
:1000E000CD010008C10F0008CD010008CD010008B6
:1000F000CD010008CD010008CD010008CD010008A8
:10010000CD010008CD010008CD010008CD01000897
:10011000CD010008CD010008CD010008CD01000887
:10012000CD010008CD010008CD010008CD01000877
:10013000CD010008CD010008CD010008CD01000867
:10014000CD010008CD010008CD010008CD01000857
:10015000CD010008CD010008CD010008CD01000847
:10016000CD010008CD010008CD010008CD01000837
:10017000CD010008CD010008CD010008CD01000827
:10018000CD010008CD010008DFF80CD00DF078FAA1
:1001900000480047DD330008887F00200C480D49E7
:1001A000026800608A4203D00B4880470B48004732
:1001B0000B48D0F800D040680047FEE7FEE7FEE7B6
:1001C000FEE7FEE7FEE7FEE7FEE7FEE7FEE70000EC
:1001D000F01F0020EFBEADDE5B11000889010008B2
:1001E0000000FF1F0020FE49096841F00101FC4AA0
:1001F00011604FF40031FB4A91611146096841F0EA
:10020000040111601146096821F0080111601146CE
:10021000896861F00C0191600421916111460968BF
:1002200041F0100111601146096821F020011160B0
:100230001146896861F03001916091009161114629
:10024000096841F0400111601146096821F0800100
:1002500011601146896861F0C0019160114609681A
:1002600021F4406111601146C96821F44061D160F8
:1002700011460969C1F34010402191611146096896
:1002800041F4805111601146096821F40051116058
:100290001146896861F440519160D1019161114624
:1002A000096841F4803111601146096821F4003178
:1002B00011601146896861F440319160C84909684C
:1002C00041F00201C64A11600121C74A1160C649C6
:1002D0001839096841F00101C34A183A1160114602
:1002E000096821F002011160BF491039096861F005
:1002F0000301BD4A103A11600221BB4A1160BA499C
:100300001839096841F00401B74A183A11601146DA
:10031000096821F008011160B3491039096861F0DA
:100320000C01B14A103A11604FF48021AE4A1160BD
:10033000AD491839096841F01001AB4A183A11600B
:100340001146096821F020011160A7491039096898
:1003500021F03001A44A103A11601021A24A116024
:10036000A1491839096841F480719F4A183A11600F
:100370001146096821F4007111609B491039096820
:1003800061F44071984A103A11602021964A116038
:1003900095491839096841F48061934A183A116007
:1003A0001146096821F4006111608F49103909680C
:1003B00061F440618C4A103A11608949096841F042
:1003C0000401874A11600121884A11608749183960
:1003D000096841F00101854A183A1160114609681F
:1003E00021F00201116081491039096861F00301AF
:1003F0007E4A103A116002217C4A11607B4918390B
:10040000096841F00401794A183A116011460968F7
:1004100021F00801116075491039096861F00C017B
:10042000724A103A11604FF48021704A11606F498E
:100430001839096841F010016C4A183A11601146E8
:10044000096821F02001116068491039096861F0DC
:100450003001664A103A11604FF48011634A11600E
:1004600062491839096841F48071604A183A11608C
:100470001146096821F4007111605C49103909685E
:1004800061F44071594A103A11602021574A1160B5
:1004900056491839096841F48061544A183A116084
:1004A0001146096821F4006111605049103909684A
:1004B00061F440614D4A103A116040214B4A11608D
:1004C0004A491839096841F48051484A183A11607C
:1004D0001146096821F40051116044491039096836
:1004E00061F44051414A103A11604FF400413F4AD3
:1004F00011603E491839096841F080413B4A183A79
:1005000011601146096821F0004111603749103926
:10051000096861F04041354A103A11603249183992
:10052000096821F04071304A183A11602E490C399F
:10053000096841F080712C4A0C3A11601146096833
:1005400021F00071116028491839096821F44041EF
:10055000254A183A116024490C39096821F44041B0
:10056000214A0C3A116021491839096821F0C0016B
:100570001E4A183A11601D490C39096821F0C00162
:100580001A4A0C3A116019491839096821F44021B6
:10059000164A183A116015490C39096821F44021AE
:1005A000124A0C3A116011491839096821F040616A
:1005B0000E4A183A11600D490C39096821F0406162
:1005C0000A4A0C3A116009491839096821F040516A
:1005D000064A183A116005490C39096808E000001C
:1005E000303802400000024018040240180802405F
:1005F00021F080515F4A11601146096841F00051B5
:100600001160704708B1402101E04FF480015A4A5F
:100610009161704708B1022101E04FF40031564A60
:10062000916170475348001D0068012121EA502064
:1006300070475248006820F440405049086001204B
:100640004C490C310860BFF35F8F4C481030006894
:10065000C0F3C01070474FF48031464A0C3211602D
:1006600008B1802101E04FF40001444A18321160C2
:100670004249096841F48041404A116070473D4851
:100680000C38006820F0C0003A490C39086002209C
:1006900038490C310860BFF35F8F3648001D006891
:1006A000C0F3C00070474FF40031324A0C32116081
:1006B00008B1082101E04FF400212E4A0C321160EC
:1006C0002C490C39096841F040012A4A0C3A116062
:1006D000704710B14FF4803100E00121274A1832F1
:1006E0001160704708B1202101E04FF40011234A46
:1006F00018321160704708B1202101E04FF4001159
:100700001C4A0C321160704708B1022101E04FF41D
:1007100000311A4A18321160704708B1402101E0D7
:100720004FF48001134A0C321160704708B1102158
:1007300001E04FF48011114A18321160704708B17E
:10074000042101E04FF480210A4A0C321160704705
:1007500008B1082101E04FF40021074A9161704778
:1007600008B1042101E04FF48021044A18321160DD
:10077000704700000C0802400000024000040240E4
:100780008548006840F4802083490860824810381A
:100790000068824908438049103908608048006831
:1007A00020F480107E4908600846006840F400107C
:1007B0000860081D006820F48060091D0860784802
:1007C0000C30006820F4401075490C310860081F97
:1007D000006820F44010091F08607148406A20F446
:1007E000706040F4E0616E484162006820F480006F
:1007F0006B4908600846006840F4000008606848DB
:100800000C30006820F4400065490C3108606448F1
:10081000406A20F4704040F4E0416148416240F297
:100820006D106049088000205E4908310880091D6C
:1008300008805C48001D008840F400505949091D9B
:10084000088058480C30008840F0C00055490C31F1
:1008500008805548806D20F001005349886500E00C
:1008600000BF5148806D00F001000028F8D14E48CB
:10087000806D20F060604C4988650846806D40F0CE
:10088000006088650846806D40F48860886545484A
:10089000001F08660020C8650846806A20F0010035
:1008A000886200E000BF4048806A00F00100002834
:1008B000F8D13D48806A20F060603B498862084674
:1008C000806A40F0006088620846806A40F4A06058
:1008D00088623448001F0863344848630815C862BA
:1008E00030480838008820F040002E490839088038
:1008F0002C48001D008840F00C002A49091D088082
:100900002948806A40F001002749886270472649DB
:10091000C96AC1F58061264A1268914202D14FF638
:10092000FF700FE022490A680968491C204B1960D2
:100930001E49885C19460968B1F5806F02D1002113
:100940001A4611607047184A926D22F00102164B48
:100950009A6500E000BF144A926D02F00102002A7D
:10096000F8D1114A5066D1650E4A083A128822F031
:1009700040020C4B083B1A804FF000620A4B9A6011
:100980001A46926D42F001029A6570470548083890
:10099000008800F04000704740380240020020000C
:1009A000000402400848004000600240F8020020B5
:1009B00000000020FE48006840F40030FC49086058
:1009C000A720FC49088040F2E730091D086040106C
:1009D000F8490C310860F7480838008840F00100F9
:1009E000F44908390880F3481038008840F0600066
:1009F000F04910390880081F008840F00100091FE5
:100A00000880EC482838008840F00100E94928397E
:100A10000880E748006840F48030E54908602020FD
:100A2000E54908810846008940F007000881002058
:100A300008854FF6FF70C8620846008840F0010044
:100A400008807047DC48406A80B270470246501AFE
:100A500080B27047D648001F006840F01000D449AB
:100A6000091F08605320D54908854FF6FF7048627A
:100A7000C8620846008840F00800088008460088E0
:100A800040F00100088070474142CC484162018833
:100A900041F0010101800188C907FCD17047C448B9
:100AA000001F006840F00800C149091F0860C048E5
:100AB0002438006840F00800BD492439086000E08F
:100AC00000BFBB482438006800F008000028F7D0B9
:100AD000B7482438006820F00800B5492439086078
:100AE0000020B7490880091F0860B1481438006821
:100AF00040F00100AE4914390860B248006820F0A7
:100B00000100B04908600846006840F00200086033
:100B10000846006A20F00F00801C08624FF0FF308A
:100B2000A749091D08605720A54920390880A44815
:100B30001038008840F00100A14910390880081FD2
:100B4000008840F00100091F08809D48283800886F
:100B500040F001009A492839088095481438006807
:100B600040F002009249143908609748006820F468
:100B70008050954908600846006840F400500860BD
:100B800091482030006820F0706040F000708E497D
:100B9000203108600846006820F0704040F00050A6
:100BA00008608348001F006840F004008049091F66
:100BB0000860002085490880091F086041F267002D
:100BC0008249091D0860401080490C3108600846C0
:100BD0000068091D086047F270007C4910390880E0
:100BE0007A480838008840F00100784908390880C0
:100BF00076481438008840F00100744914390880A0
:100C0000704730B50346FFF71DFF044600E000BF04
:100C1000FFF718FF05462146FFF718FF9842F6DB5D
:100C200030BD02466A4850434FF47A73B0FBF3F18B
:100C3000B1F1807F01D3012070474FF0E0200069BF
:100C400040F001004FF0E023186118464161002098
:100C5000F2E74FF0E020006900F4803070470CB5F7
:100C600058B95C49096801915A49283909685A4AB2
:100C7000116058492439096800914D49091F0968D4
:100C800041F080514A4A121F11605449096841F4E9
:100C90008071524A116046492C31096841F4803113
:100CA000434A2C3211601146096821F480311160E9
:100CB0001146096841F4407111601146096841F418
:100CC00000411160CA21434A121F11605321116073
:100CD00040491C39096841F080013E4A1C3A1160C4
:100CE00000E000BF3B491C39096801F040010029C0
:100CF000F7D03849183909686FF30E0142F20F72C4
:100D00001144344A183A11601146096821F4FE0171
:100D100041F4C6011160304909682E4A283A116031
:100D20002F49121D11602B491C39096821F08001DF
:100D3000284A1C3A116000E000BF26491C390968A6
:100D400001F080010029F7D1FF21224A121F116012
:100D500020491C39096821F020011E4A1C3A116003
:100D60000CBD1349091F096841F08051104A121F38
:100D700011601A49096841F48071184A11600C49E0
:100D80002C31096841F48031094A2C321160114636
:100D9000096821F4803111601146096840F205129A
:100DA0001143034A2C321160114609681AE0000011
:100DB00044380240284401400040014000100040F7
:100DC000280C0040000002400004024028080040B7
:100DD000406F4001282800400400002000700040BF
:100DE0000244130041F40041116028B1854909888B
:100DF00041F00101834A1180CA21834A11605321C5
:100E0000116081491839096841F080017E4A183A19
:100E1000116000E000BF7C491839096801F0400109
:100E20000029F7D07849143909686FF30E0142F2AE
:100E30000F721144744A143A11601146096821F482
:100E4000FE0141F480311160704909686E4A243A0C
:100E500011606F49121D11606B491839096821F042
:100E60008001694A183A116000E000BF66491839EC
:100E7000096801F080010029F7D1FF21624A116061
:100E800061491839096821F020015F4A183A116058
:100E90007047604901405D4A11607047CA215A4A53
:100EA00011605321116058491839096841F08001D7
:100EB000554A183A116000E000BF534918390968D3
:100EC00001F040010029F7D0524901404E4A243A2E
:100ED00011604D491839096821F080014A4A183AD1
:100EE0001160FF21484A1160704710B50246CA20C0
:100EF000454B18605320186043481C38006820F4A4
:100F00008070414B1C3B1860181D006840F00100C8
:100F10001B1D186000E000BF3B481838006800F057
:100F200001000028F7D03B48104040F00040364B0D
:100F3000083B1860C1F30E0040F07060324B203364
:100F4000186031481838006820F001002E4B183B1B
:100F500018601846006820F480701860181F006838
:100F600040F488501B1F1860181D006820F0010015
:100F70001B1D1860FF20244B18602748006840F4B0
:100F80000030254B186024480838006840F40030D1
:100F9000214B083B186020480C30006840F40030BA
:100FA0001D4B0C331860292000F01F040123A340BF
:100FB0004409A40004F1E024C4F8003100BF10BDCE
:100FC00010B511481838006820F480700E4918399F
:100FD000086000E000BF0C481838006800F480701A
:100FE0000028F7D10C480C30006840F400300A4962
:100FF0000C310860094A50691169884708A002F05D
:1010000055FE10BD000800402428004004000020C8
:10101000024413007F7F3F00083C01406C29002000
:101020000D0A52544320416C61726D210D0A00007B
:10103000002100205F4A126842F480325D4B1A6042
:1010400000BF5C4A126802F40030491C10B9B1F5C7
:10105000705FF6D1574A1268C2F3404000287BD037
:10106000544A4032126842F08052524B40331A6068
:10107000514A126842F480424F4B1A6040F20562B6
:101080004E4B1A604B4A083212684A4B08331A60BA
:101090001A46126842F400421A601A46126842F474
:1010A000A0521A601A46126822F4F81242F4402242
:1010B0001A601A46126822F07C521A601A461268A8
:1010C00042F080621A601A46126842F060521A605A
:1010D0001A46126822F040421A601A46126842F01C
:1010E00080421A60364A1B1F1A601A1F126842F0AB
:1010F00080721B1F1A6000E000BF2E4A126802F0C7
:101100000072002AF8D02B4A0832126822F003023B
:10111000284B08331A601A46126842F002021A601D
:1011200000E000BF234A0832126802F00C02082ACD
:10113000F7D1244A1F4B84331A601E4A126842F0CA
:1011400080621C4B1A6001E006E000BF194A126879
:1011500002F00062002AF8D0704710B51A48006803
:1011600040F47000184908601248006840F001001F
:101170001049086000200F49083108600D480068D8
:10118000124908400B4908601148091D0860081FF2
:10119000006820F48020091F0860002005490C31F8
:1011A0000860FFF745FF4FF000600749803908608D
:1011B00010BD00000038024000700040003C0240BA
:1011C0000C5440070040005088ED00E0FFFFF6FEA1
:1011D00010300024704710B54FF00054FE4890F8CE
:1011E0005400C0F3800010B144F0004401E024F04A
:1011F000004404F022FB022802D144F4806401E0A0
:1012000024F48064F448406F012819D1F248C06F7B
:10121000012808D1FFF70DFA10B144F4801411E051
:1012200024F480140EE0EC48C06F02280AD1FFF7C6
:1012300000FA10B124F4801404E044F4801401E0B6
:1012400024F48014E448806F01281DD1E248D0F8CE
:101250008000012808D1FFF712FA10B144F40014FD
:1012600012E024F400140FE0DB48D0F880000228DC
:1012700008D1FFF704FA10B124F4001404E044F498
:10128000001401E024F40014204610BD70B52DEDCB
:10129000048B0546D1480068022815D128460BF07A
:1012A00058FF41EC190B9FEDCE0B53EC102B0BF0BC
:1012B0006FFE41EC180B0BF06AFF0446B4F5004FCB
:1012C00003DB47F6FF7400E02C462046BDEC048BA0
:1012D00070BD2DE9F04397B080460D461646C248D2
:1012E0000068854202D117B0BDE8F083B5F5004F24
:1012F0001FD06C46A71D812020804420A0700020B4
:10130000E0708120207150206071A7F800807D80FE
:101310004FF0000900BF3278484609F10109391D34
:101320000A5416F8011B0029F5D14A21204604F081
:1013300099F9AD48056000BFD5E710B54FF48C7240
:101340000021AA4803F0BDFE0446012C08D0A8A243
:1013500048F2D0410020FFF7BCFFA7A002F0A6FC96
:1013600000234FF48C721946A04803F067FE044630
:1013700044B1A8A248F2D0410020FFF7AAFFA8A0DC
:1013800002F094FC10BD70B52DED048B054693481A
:101390000068022810D128460BF0DBFE41EC190B47
:1013A0009FED8F0B53EC102B0BF064FE41EC180BF0
:1013B0000BF0EDFE044600E02C462046BDEC048B0D
:1013C00070BD10B50822D1019C4803F07AFE044696
:1013D000012C08D086A248F2D0410020FFF779FF07
:1013E00085A002F063FC01230822D101934803F099
:1013F00025FE044644B187A248F2D0410020FFF701
:1014000068FF87A002F052FC10BD2DE9F04F2DEDD2
:10141000048BA3B08A4800880B908948007900F0BB
:101420007F0008900CADAC1D854EB61D0020E87005
:1014300001202871089868710020079040F25562D9
:101440000B98811A904201F067823DDC40F2232222
:10145000A0EB0201904276D017DC152874D009DC8D
:10146000052877D0112871D0122870D0142841F0A7
:101470007A876EE1B0F5047F6AD0A0F211200028CF
:1014800067D00228F3D101F002BF40F22342881A4C
:10149000914201F0C7800DDCA1F21D41002901F04D
:1014A0007180012901F0AF8003297DD00429DED1AC
:1014B00000F0EEBE012801F00D810C2801F01B8127
:1014C0000D28D4D101F0C9B9B1F5BE7F01F0ED818D
:1014D0001CDCAF2901F097830CDC012901F0348377
:1014E0000B2901F02687AB2901F06483AE29BED118
:1014F00001F072BBB12901F0B383B22901F0B783C7
:10150000A1F27B110029B2D100F07FBF40F29B1203
:10151000881A914201F0B2830BDCA1F27D110029FF
:1015200001F0DE81022900F0C68603299FD100F078
:1015300026BF012801F00884032801F04E84042806
:1015400095D101F086BE9CE0FEE303E0A3E0AFE0AE
:10155000B5E0EDE0062028805420A870287940F0FE
:10156000800028715422374920460BF0B7FB1F48F2
:10157000006820603448006C012801D1032000E09D
:101580000220A4F84E0031A0007884F842002FA079
:101590004178432001552DA0C178442001552BA04E
:1015A00001794520015500E0F6E32BA000792028C1
:1015B00001D1302001E028A000794621085526A05D
:1015C00041794720015524A001784820015522A0E7
:1015D00041784920015545E0B02800201400002042
:1015E000000000000000F83F1C00002098270020A9
:1015F00045455772697465000D0A454550524F4D77
:10160000205772697465204661696C7572650D0AB0
:1016100000000000454556657269667900000000CB
:101620000D0A454550524F4D205665726966792026
:101630004661696C7572650D0A0000003C0000206F
:101640005000002034E500086C29002031343A3283
:10165000373A3531000000004465632020352032E0
:1016600030313900AFF2100081784A200155002155
:101670004B200155012007900220FE49086001F02F
:1016800072BE4020FC49C863FC4AD2F88810106D35
:1016900005F047FAF3E7FA48C06820F01000103070
:1016A000F749C86000208860FA20FFF7AAFAE6E749
:1016B000F348C06820F01000F149C860DFE7F14846
:1016C000C078012815D1ED48406D20F00400001DC0
:1016D000EA4948650BF092F9E84890F8540000F0A8
:1016E0000100F0B909F0A5FD0020E7490968884725
:1016F00017E0E448C078022813D1E048406D20F09C
:101700000400DE4948650BF079F9DC4890F8540094
:1017100000F0010028B909F08CFD0020DA490968C1
:101720008847D64AD2F88810106D05F0FAF9A6E776
:1017300040F2122028800120A870D148007BC0F31D
:10174000401008B1012000E00220E870012007905D
:1017500095E730680290D6F80480B0680190F06890
:101760000090029849287BD01DDC142879D00EDC2B
:101770000A287AD006DC012837D002284CD0092864
:1017800071D15CE00B286FD00C28F9D185E042388C
:10179000072868D2DFE810F0FD03670067008F00BC
:1017A000A900BB00FD00C82870D00BDCA0F16300CD
:1017B0000628EED2DFE810F04401FA0213033F03DB
:1017C0004803980340F29512811A904270D007DCCA
:1017D000B0F5C87F6DD0A0F291100028D0D1EAE317
:1017E000C32967D0C429CBD1E6E3A848C0F800805C
:1017F0000168A7A002F05AFA2C22AC49A348001DA8
:101800000BF06CFA49F65A20A049C1F81401FFF711
:1018100094FD00200790C8E2002705E00020A449BD
:1018200001EB870108607F1C0A2FF7DBA0490298B3
:10183000086096480068486000200790EBE70027A2
:1018400005E000209A4901EB870108607F1C0A2F00
:10185000F7DB984800689649486000200790DAE76F
:10186000AAE020E001E0A8E311E09248C0F800807F
:101870000146086808F0B2FF8049086D824909688E
:10188000884700207C4948640790C4E7D0E340467D
:10189000FEF7E1FE00200790BDE74046FEF703FF9C
:1018A00000200790B7E7FFF78CFD00200790B2E714
:1018B000F9E3CAE3F8E340F2D370804514D145F66A
:1018C000A5207A4988622C227048001D0BF006FA88
:1018D00049F65A206D49C1F81401FFF72EFD76A094
:1018E00002F0E4F90020079095E7019801B26348FF
:1018F00042686E48001D20F81210009800B25F493F
:1019000049686A4A22F811000020079083E70027FF
:1019100005E00020664901EB870108607F1C0A2F63
:10192000F7DB564841686148001D30F9110001900D
:10193000524840685D4931F9100000905C490298B6
:101940000860019888600098C8604C484368574810
:10195000001D30F9132049484068012801D15FA0DB
:1019600000E05FA0014660A002F0A0F94348406893
:101970004E4B33F9102041484068012801D157A04F
:1019800000E057A0014666A002F090F90020079001
:1019900041E7019801B2394842684448103020F8C4
:1019A0001210009801B23548426840480C3020F8C7
:1019B000121000200790F9E3002705E000203C49C1
:1019C00001EB870108607F1C0A2FF7DB2B48416879
:1019D0003648103030F911000190284841683348EA
:1019E0000C3030F9110000903149029808600198DC
:1019F00088600098C860214843682C48103030F94E
:101A000013201E484068012801D134A000E034A012
:101A1000014651A002F04AF91848436823480C30A7
:101A200030F9132015484068012801D12BA000E0AF
:101A30002BA0014656A002F039F900200790B5E32B
:101A400003F0B5FA9FED600A184880ED080A9FED93
:101A50005F0A80ED090A902208490C4830300BF0EB
:101A60003DF92C2211490948001D0BF037F949F6C0
:101A70005A20ADE0180000206C290020B02800207A
:101A8000C029002050000020880200209827002054
:101A90000D0A53657269616C206E756D6265722006
:101AA00073657420746F20257500000040290020A4
:101AB000100700203C0000200D0A454550524F4DB4
:101AC0002063616C6962726174696F6E2064617415
:101AD00061207361766564210D0A00003735560078
:101AE00031353056000000000D0A43616C696272A6
:101AF0006174696F6E2076616C7565202D2044419C
:101B000043207363616C6520666F722025732072B9
:101B1000616E67652069733A2025640D000000003E
:101B20000D0A43616C6962726174696F6E2076613F
:101B30006C7565202D20444143206F666673657483
:101B400020666F722025732072616E67652069734D
:101B50003A2025640D0A00000D0A43616C69627227
:101B60006174696F6E2076616C7565202D2041442B
:101B700043207363616C6520666F72202573207249
:101B8000616E67652069733A2025640D00000000CE
:101B90000D0A43616C6962726174696F6E207661CF
:101BA0006C7565202D20414443206F666673657413
:101BB00020666F722025732072616E6765206973DD
:101BC0003A2025640D0A0000FF5D0F3ED29EDC39ED
:101BD000FA49C1F81401FFF7B0FBF9A002F066F86A
:101BE0000120FD4948604B20086003F0CAFD40F227
:101BF000F27028802220A870287940F08000287197
:101C000001202080F448B0F85C006080F248B0F811
:101C10006000A080F048406EC4F80600EE48B0F8BE
:101C200068006081EC48C06EE060EB48006F2061A6
:101C3000E948B0F85000A082E748D0F884006FF07F
:101C40000041884202D10020E08207E0E248D0F85B
:101C500084004FF4167190FBF1F0E082DE48B0F89A
:101C600088002083002706E0002104F11A0000EB21
:101C7000470001807F1C042FF6DB9DF8340000F044
:101C8000800018B19DF83200801D00E006200A9007
:101C90000CA80A9903F0E6FC40F2D67028800A20CE
:101CA000A870287940F08000287101202080608091
:101CB0000320A0800020E08020819DF8340000F007
:101CC000800018B19DF83200801D00E006200A90C7
:101CD0000CA80A9903F0C6FC40F254602880042046
:101CE000A870287940F0800028710120208002200F
:101CF00060809DF8340000F0800018B19DF832003B
:101D0000801D00E006200A900CA80A9903F0AAFCA6
:101D100040F2F57028801620A870287940F08000E5
:101D2000287101202080AC48B0F874006080AA4877
:101D3000B0F87C00A080A848B0F87800E080A64801
:101D4000B0F88000208100E033E29DF8340000F01C
:101D5000800018B19DF83200801D00E006200A9036
:101D60000CA80A9903F07EFC40F2576028800620F8
:101D7000A870287940F0800028710120208064201C
:101D800060801420A0809DF8340000F0800020B115
:101D90009DF83200801D01E01BE206200A900CA88D
:101DA0000A9903F05FFC00200790FFE17B208B493C
:101DB00088622C228148001D0AF090FF49F65A20C3
:101DC0007E49C1F81401FFF7B8FA85A001F06EFF53
:101DD000AFF21C3001F06AFF00200790E6E17E4878
:101DE000C0F864804068012802D14B20039001E0D4
:101DF000962003907849496E039A01FB02F00BF09C
:101E0000B9F941EC190B9FED7E0B53EC102B0BF045
:101E100031F941EC180B0BF012FA069006980BF012
:101E2000FBF941EC180B53EC182B77A001F03EFFA7
:101E300000200790BAE16848406D68F38200664967
:101E4000486500200790B1E1C1466348C06F012892
:101E50000ED16148406F0A280AD109F0010018B17B
:101E60000120FEF7F8FB15E00020FEF7F4FB11E07F
:101E70005948C06F02280DD15748406F0A2809D130
:101E800009F0010018B10020FEF7E5FB02E0012097
:101E9000FEF7E1FB5048D0F8800001280ED14E48F3
:101EA000806F0A280AD109F0020018B10120FEF75C
:101EB000FAFB16E00020FEF7F6FB12E04648D0F8E9
:101EC000800002280DD14448806F0A2809D109F00A
:101ED000020018B10020FEF7E6FB02E00120FEF749
:101EE000E2FB0020079061E13B4890F8300000F0F1
:101EF0000E00022806D0042807D0082808D14FF089
:101F0000030A06E04FF0010A03E04FF0020A00E086
:101F100000BF00BF03F08EFC4B2804D0642806D01D
:101F200096280CD107E001203F4908600BE0022011
:101F30003D49086007E003203B49086003E00120B9
:101F40003949086000BF00BF40F2D67028800A20DF
:101F5000A870287940F08000287101202080324844
:101F600000886080A4F804A00020E08020819DF813
:101F7000340000F0800018B19DF83200801D00E0B0
:101F800006200A900CA80A9903F06CFB0020079029
:101F90000CE1002705E00020244901EB87010860DF
:101FA0007F1C0A2FF7DB4220204908600B20486085
:101FB00000200790FAE05FE0DFE0F4E098270020DF
:101FC0000D0A4F70506172616D73206C6F616465B2
:101FD00064210D0A00000000B028002040290020E4
:101FE0000D0A556E6974206973206E6F74206361E9
:101FF0006C69627261746564206E6F77210D0A00EE
:1020000000000000C0FFDF400D0A4A6F67207374B4
:1020100065702069732073657420746F2025332EDA
:10202000336620560D0A000014000020100700201F
:10203000B8F1000F03D1012003F002FC02E00220FE
:1020400003F0FEFB00200790B0E0FBA001F02EFEA5
:102050006420FEF7D6FD72B6FE48006820F48000CA
:10206000FC4908600846006820F400100860FA483F
:10207000FA49086001F0EEFD00200790B8F1553FE5
:102080002CD10198012802D0022822D111E0802011
:10209000F34908650120F349486008228102F148AC
:1020A00003F00FF801E01DE033E0EFA001F0FEFDCA
:1020B00013E06FF07F00EA4908650220E9494860B3
:1020C00008224102E74802F0FCFFEEA001F0EEFD1D
:1020D00003E0F3A001F0EAFD00BF02E0F8A001F088
:1020E000E5FD63E000200790002705E00020FB49A4
:1020F00001EB870108607F1C0A2FF7DBF749029884
:10210000086000204860D748406888600020C860A8
:102110004CE0F348C0F85080F2A001F0C7FDF04851
:10212000006DB0B1EE48406D20F00100401CEC495C
:1021300048650846006D642801DD6420086509F0E3
:102140007DF80AF05BFCE649086DEC4909688847B0
:1021500010E0E348006D68B9E148406D20F00100EF
:10216000DF49486509F065F80020E44909688847B7
:102170000AF044FC0020079018E0002705E000204A
:10218000D64901EB870108607F1C0A2FF7DBD44892
:10219000D0F85080D149029808600846C0F8048001
:1021A0000020079002E00020079000BF00BF01F070
:1021B000DAB8162028802820A870287940F08000FE
:1021C00028712822C54920460AF088FD0120079081
:1021D000EDE7C34AD2F88810106D04F0A2FCC048A5
:1021E00090F8300000F03000102804D0202817D0DC
:1021F000302839D123E07088C1490860084600685A
:10220000FFF7C1F8B649C860002008610846C068F9
:10221000002801DA0020C860BAA001F047FD35E0CF
:102220007088B749086008460068FFF7ACF8AC4909
:10223000C86000200861B9A001F038FD26E0708870
:10224000AF49086008460068FFF79DF8A449C860D8
:10225000002008610846C068002801DA0020C86034
:10226000B4A001F023FD11E07088A549086008467C
:102270000068FFF788F89A49096908449849C860D6
:1022800000200861B3A001F011FD00BF00BF8EE780
:1022900040F2456028800420A870287940F0800032
:1022A000287101202080AF494868FEF7EFFF608069
:1022B000012007907BE77088AB490860B6F804A05E
:1022C00008460068012804D002280BD003281BD13F
:1022D00011E04B208249086003F053FA0120804945
:1022E000486011E064207E49086003F04AFA00204B
:1022F0007B49486008E096207949086003F041FA7C
:1023000000207749486000BF00BFBAF1010F06D036
:10231000BAF1020F12D0BAF1030F2DD11DE07048AF
:10232000006B40F002006E4908630846006B20F025
:102330000C000863012003F09CFA1EE06848006B63
:1023400040F00400664908630846006B20F00A006C
:102350000863022003F08DFA0FE06148006B40F043
:1023600008005F4908630846006B20F00600086318
:10237000032003F07EFA00E000BF00BF17E75848D3
:1023800090F8300000F00E00022806D0042807D094
:10239000082808D14FF0030A06E04FF0010A03E0D5
:1023A0004FF0020A00E000BF00BF03F043FA4B28E1
:1023B00004D0642806D096280CD107E001206A4991
:1023C00008600BE002206849086007E003206649C6
:1023D000086003E001206449086000BF00BF40F2CC
:1023E000D67028800A20A870287940F080002871D3
:1023F000012020805C4800886080A4F804A00020B0
:10240000E080208101200790D1E677882C2257496F
:1024100057480AF063FC9022314955482C300AF0A5
:102420005DFC54220E495248BC300AF057FC49F674
:102430005A204F49091F9DE00D0A456E7465726967
:102440006E6720626F6F746C6F616465722E2E2EE2
:102450000D0A000030380240EFBEADDEF01F002054
:102460006C290020440000200D0A53657420486F39
:102470006E657977656C6C204A6F67205768656573
:102480006C0000000D0A5365742048616D616D6138
:10249000747375204A6F6720576865656C0000008B
:1024A0000D0A556E6B6E6F776E204A6F6720576806
:1024B00065656C2053656C6563746564000000009D
:1024C0000D0A496E76616C69642056616C696461BD
:1024D00074696F6E20436F64650000001007002070
:1024E000B02800200D0A4272696768746E657373C4
:1024F000206368616E6765210D0A00008802002074
:10250000100000200D0A534F4654574152452120D8
:102510002B2045585420494E0D0A00000D0A534FF8
:1025200046545741524521202B20504F54204F4EA6
:102530000D0A00000D0A534F4654574152452120C1
:102540002B20504F54202B2045585420494E0D0A23
:10255000000000000D0A534F465457415245210DCB
:102560000A000000C029002014000020402900209B
:102570009C270020C1F81401FEF7DFFEFBA001F04C
:1025800095FB14E6FE48C07805900598012802D016
:10259000059803281DD103F050F9022819D1012014
:1025A00003F04EF9F74890F8300000F0100018B131
:1025B000012003F0B4F902E0002003F0B0F9F14A81
:1025C0005168D2F88C0003F094F9EE49C8600020FD
:1025D00008610598022802D00598042812D103F05A
:1025E0002CF901280ED1002003F099F9022003F004
:1025F00027F9E44A5168906903F06AF9E149C86132
:1026000000200862D3E540F2426028800120A870D3
:1026100003F013F9012800D100E00220E870012046
:102620000790C4E5D74AD2F88810106D04F079FA03
:10263000D44890F8300000F03000102804D0202852
:1026400011D0302830D11DE07088CE49C8610020FB
:1026500008620846C069002801DA0020C861CAA0E3
:1026600001F024FB2FE07088C649C8610020086291
:102670000846C069002801DA0020C861C9A001F03D
:1026800015FB20E07088BF49096A0844BD49C8614C
:10269000002008620846C069002801DA0020C861ED
:1026A000C9A001F003FB0EE07088B649C8610020A4
:1026B00008620846C069002801DA0020C861CAA083
:1026C00001F0F4FA00BF00BFAE48C169CDA001F02F
:1026D000EDFA6CE54FF4C96028800420A8702879D1
:1026E00040F08000287101202080A648808C608006
:1026F000012007905BE5B6F802B0BBF1000F09D0EE
:10270000BBF1010F2CD0BBF1020F57D0BBF1030F6F
:1027100073D177E0002003F0FCF89A48006B20F0BA
:102720001000984908630846006B20F020000863F9
:102730000846C068096908449249C86000200861D9
:10274000B54988638F48806E40F0100048630020D0
:102750008C49886603F0E3F8B0A001F0A7FA7AE0AC
:10276000002003F0D6F88748006B20F02000854950
:1027700008630846C068096908448249C8600020A7
:102780000861A54988637F48806E40F01000486367
:1027900000207C498866012003F0C1F87948006B6D
:1027A00040F01000774908630846C068096908448A
:1027B0007449C860A4A001F079FA4CE0012003F04C
:1027C000A8F87048006B40F020006E4908630120B3
:1027D000914988630846406B6A4988660846806E5E
:1027E00020F010008866002003F099F86548006B1F
:1027F00020F010006349086300E02BE0A1A001F085
:1028000055FA28E0012003F084F85E48006B40F0A0
:1028100020005C49086301207F4988630846406BBB
:10282000584988660846806E20F0100088660120AE
:1028300003F075F85348006B40F0100051490863ED
:102840000846C068096908444E49C86099A001F06B
:102850002DFA00E000BF00BFA9E44FF0000B49488B
:1028600090F8300000F03000102804D0202805D067
:10287000302809D105E04BF0010B06E04BF0020BCC
:1028800003E04BF0030B00E000BF00BF40F25460D8
:1028900028800420A870287940F080002871012049
:1028A0002080A4F802B0079081E430880490049856
:1028B00000EB401000EB4000FF21B0FBF1F0049072
:1028C0000A210498B0FBF1F000EB80004000049076
:1028D0002C4904980865086D85490968884766E4AD
:1028E0002848006D04900498C0EB00206321B0FBE1
:1028F000F1F004907FA0049901F0D8F940F2D37070
:1029000028800220A870287940F08000287104985F
:102910002080012007904AE4708800EE100AB8EE8B
:10292000400ADFED7A0A80EE201AB1EE000A21EEAD
:10293000000A774880ED080AB08800EE100AF8EE29
:10294000400A9FED741A9FED740A00EE810ADFEDD4
:10295000730A80EE201A6E4880ED091A90ED090A7C
:1029600010EE101A08460AF057FCD9E00D0A536120
:10297000766564204545506172616D730D0A0000F3
:1029800050000020B02800200D0A2045585420494E
:102990004E2028636C6F736564206C6F6F70290D17
:1029A0000A0000000D0A20506F74202620536F6625
:1029B00074776172652028636C6F736564206C6F37
:1029C0006F70290D0A0000000D0A20506F74202638
:1029D0002045585420494E2028636C6F736564204D
:1029E0006C6F6F70290D0A000D0A20536F667477A3
:1029F0006172652028636C6F736564206C6F6F7003
:102A0000290D0A000D0A506F736974696F6E206991
:102A1000733A2025640D0A006C2900200D0A20530A
:102A20006F667477617265206F6E6C792C20506FC1
:102A300074207475726E6564206F666620627920FA
:102A40004150540D0A0000000D0A20536F66747740
:102A500061726520706C75732065787465726E6143
:102A60006C20696E7075742C20506F7420747572B0
:102A70006E6564206F6666206279204150540D0AAD
:102A8000000000000D0A20536F66747761726520A4
:102A9000706C757320706F742C20506F7420747577
:102AA000726E6564206F6E206279204150540D0A69
:102AB000000000000D0A20536F6674776172652074
:102AC000706C757320706F7420616E64206578740B
:102AD00020696E7075742C20506F74207475726E3E
:102AE0006564206F6E206279204150540D0A000009
:102AF000880200200D0A4272696768746E657373FC
:102B00002069733A2025640D0A00000000903245C8
:102B10004029002007F0563E0AD7233C00401C46BF
:102B200041EC180BF84890ED080A10EE101A084610
:102B30000AF072FB41EC190B8DED008B53EC192B55
:102B4000F2A001F0B3F819E440F2576028800620A3
:102B5000A870287940F08000287101202080EA4880
:102B600090ED080A5FED170A20EE200AF1EE000A48
:102B700080EE201A11EE108A40460AF027FB00F37F
:102B80000F006080E048D0ED090A1FED1C1A1FED10
:102B90001E0A10EE810A5FED210A80EE201A11EE66
:102BA000108A40460AF012FB00F30F00A0800120BB
:102BB0000790D8E3B6F80280B0880290B8F5007F9D
:102BC00003DCD849029841F82800D64850F828106C
:102BD000D5A001F06BF8C6E3D94836F8021F0160B2
:102BE0007188416071688160B168C160F16801619C
:102BF00031694161B18A8161D6F81610C161718B6A
:102C0000B61E0162AFE340F2057028801E20A87056
:102C1000287940F08000287101202080C848008871
:102C20006080C7488088A080C5488068C4F80600D6
:102C3000C348C068C4F80A00C1480069C4F80E005F
:102C4000BF484069C4F81200BD48008BE082BC4810
:102C5000C069A061BA48008CA0830120079082E37C
:102C60000220B8490860B8A001F020F87BE30320F7
:102C7000B4490860B9A001F019F874E37088BC4940
:102C8000C865B0880866D6F8060048667089886608
:102C9000F068C86630690867B08A0865F08A48B984
:102CA000308B38B941F27070C1F884000220C1F84D
:102CB000880011E0308BAE49C1F88800F08A20B955
:102CC0006FF00040C1F8840006E0F08A4FF41671FE
:102CD0004843A749C1F88400A548006D642802DD77
:102CE0006420A3490865A24AD2F88810106D03F049
:102CF00018FF9F48806E18B9002002F00AFE0BE012
:102D00009B48806E012803D09948806E022803D129
:102D10009748806E974948639548006E012803D113
:102D20006D20934988650EE09148006E022803D11A
:102D30000B208F49886506E08D48006E032802D17C
:102D400001208B4988650EE340F2F2702880222032
:102D5000A870287940F080002871012020808448E4
:102D6000B0F85C0060808248B0F86000A0808048C5
:102D7000406EC4F806007E48B0F8680060817C4868
:102D8000C06EE0607A48006F20617948B0F850006A
:102D9000A0827748D0F884006FF00041884202D1C9
:102DA0000020E08207E07248D0F884004FF41671EA
:102DB00090FBF1F0E0826E48B0F888002083002795
:102DC00006E0002104F11A0000EB470001807F1C9F
:102DD000042FF6DB01200790C5E27088644948673C
:102DE000B088C867F188624881673189C0F880106F
:102DF000416F806F0A2202FB001009900998172882
:102E000072D008DC02280DD003282BD0142849D01A
:102E100016286AD16CE01E2868D0202867D02128A7
:102E2000F7D1D2E15248C06F012806D15148806CD9
:102E300020F001004F4988640AE04D48C06F022825
:102E400006D14C48806C20F00100401C4949886440
:102E500002204849086348A000F028FF50A000F075
:102E600025FFF2E14248C06F012806D14148806C3D
:102E700020F001003F4988640AE03D48C06F022805
:102E800006D13C48806C20F00100401C3949886420
:102E90000220384908634CA000F008FF40A000F071
:102EA00005FFD2E13248D0F88000012806D1314830
:102EB000806C20F002002F4988640BE02C48D0F889
:102EC0008000022806D12B48806C20F00200801C74
:102ED0002849886402202749086345A000F0E6FEDF
:102EE0004FA000F0E3FEB0E1FDE0A7E1D8E033E160
:102EF0001F48C06F012806D11E48806C20F00100D9
:102F00001C498864A9E09DE0402900200D0A504931
:102F10003A2050203D2025662C2049203D20256662
:102F200000000000D02F00200D0A44697265637410
:102F30002077617665666F726D3A2025640D0A0010
:102F4000D03700209C0100200D0A4C5554205374AA
:102F50006172746564210D0A000000000D0A4C5571
:102F6000542053746F70706564210D0A00000000D6
:102F7000B02800206C2900200D0A492F4F31206312
:102F80006F6E6669677572656420746F207374650F
:102F90007070696E67202E322E210D0A000000002D
:102FA0000D0A492F4F32206973206E6F7420636FB2
:102FB0006E6669677572656420746F2073746570DE
:102FC00070696E67210D0A000D0A492F4F31206389
:102FD0006F6E6669677572656420746F20737465BF
:102FE0007070696E67202E332E210D0A00000000DC
:102FF0000D0A492F4F31206973206E6F7420636F63
:103000006E6669677572656420746F20737465708D
:1030100070696E67202E32302E20210D0A000000CC
:103020000D0A492F4F3220636F6E666967757265AE
:103030006420746F207374657070696E67210D0A67
:1030400000000000FE48C06F022806D1FD48806CD9
:1030500020F00100401CFB498864F948D0F880004A
:10306000012806D1F748806C20F00200F5498864F9
:103070000BE0F348D0F88000022806D1F148806CBC
:1030800020F00200801CEF4988640220ED490863AB
:10309000EDA000F00BFEAFF2780000F007FED4E0E8
:1030A000E748D0F88000012806D1E648806C20F07F
:1030B0000200E44988640BE0E148D0F8800002286F
:1030C00006D1E048806C20F00200801CDD49886455
:1030D0000220DC490863E6A000F0E8FDAFF2C00082
:1030E00000F0E4FDB1E0D648C06F012806D1D54814
:1030F000806C20F00100D34988640AE0D048C06F9A
:10310000022806D1CF48806C20F00100401CCD4938
:103110008864CB48D0F88000012806D1C948806C6B
:1031200020F00200C74988640BE0C548D0F8800051
:10313000022806D1C348806C20F00200801CC149DF
:1031400088640220BF490863D5A000F0AFFDAFF24C
:10315000301000F0ABFD78E0B948C06F012806D10F
:10316000B848806C20F00100B64988640AE0B44891
:10317000C06F022806D1B348806C20F00100401CCB
:10318000B0498864AE48D0F88000012806D1AD4827
:10319000806C20F00200AB4988640BE0A848D0F8AE
:1031A0008000022806D1A748806C20F00200801C15
:1031B000A44988640220A3490863C3A000F076FDF7
:1031C000AFF2A41000F072FD3FE09D48C06F0128EF
:1031D00006D19C48806C20F001009A4988640AE07E
:1031E0009748C06F022806D19648806C20F00100F5
:1031F000401C944988649248D0F88000012806D188
:103200009048806C20F002008E4988640BE08C4866
:10321000D0F88000022806D18A48806C20F0020095
:10322000801C88498864022086490863B0A000F0A9
:103230003DFDAFF2142000F039FD06E0B6A000F02D
:1032400035FD00207F49086300BF00BF00200790C4
:1032500089E040F2F57028801620A870287940F0A7
:1032600080002871012020807548B0F874006080CB
:103270007348B0F87C00A0807148B0F87800E08016
:103280006F48B0F880002081012007906BE0AF48C4
:1032900090F802906A48C06F01280ED16848406FCC
:1032A0000A280AD109F0010018B10120FDF7D3F96D
:1032B00015E00020FDF7CFF911E06148C06F02284A
:1032C0000DD15F48406F0A2809D109F0010018B1FB
:1032D0000020FDF7C0F902E00120FDF7BCF95848D5
:1032E000D0F8800001280ED15548806F0A280AD1F5
:1032F00009F0020018B10120FDF7D5F916E0002011
:10330000FDF7D1F912E04E48D0F8800002280DD127
:103310004B48806F0A2809D109F0020018B100203B
:10332000FDF7C1F902E00120FDF7BDF9002007908B
:1033300019E040F2616028800A20A870287940F0E6
:10334000800028710120208081494868FDF79EFF98
:1033500060807F480088A080FDF73DFFC4F806002C
:103360000120079000BF00BF079870B19DF834009E
:1033700000F0800018B19DF83200801D00E00620AA
:103380000A900CA80A9902F06DF923B0BDEC048BE9
:10339000BDE8F08F7FB506466E4B0FCB8DE80F0072
:1033A0006B4D50208DF80500F0B28DF80000300A0A
:1033B0008DF801000DF1060401202080A8886080AE
:1033C0002888A080FDF707FFC4F806001021684692
:1033D00002F048F9A868401CA8607FBD0EB5FCF754
:1033E00001FF0546012D00D100E0002015490864C9
:1033F000FDF718F940B906F0C7FD00BFFDF712F957
:103400000028FBD000F026FCFDF7D4FA6420FDF77D
:1034100008FCFDF71FFBFDF742FB0020FDF739FD1F
:103420000120FDF71CFC4FF480704B49886100F0CF
:10343000FFFD01F08BFFFDF7A3F900F0E3FC8DE049
:10344000B02800206C2900200D0A492F4F3120633D
:103450006F6E6669677572656420746F207374653A
:103460007070696E67202E32322E20210D0A000006
:103470000D0A492F4F31206973206E6F7420636FDE
:103480006E6669677572656420746F207374657009
:1034900070696E67202E33302E20210D0A00000047
:1034A0000D0A492F4F3120636F6E6669677572652B
:1034B0006420746F207374657070696E67202E329B
:1034C000332E210D0A0000000D0A492F4F312063D1
:1034D0006F6E6669677572656420746F20737465BA
:1034E0007070696E67202E33322E20210D0A000085
:1034F0000D0A492F4F3120636F6E666967757265DB
:103500006420746F207374657070696E67202E3349
:10351000332E20210D0A00000D0A492F4F31206162
:103520006E6420492F4F3220617265206E6F7420C7
:10353000636F6E6669677572656420746F2073745B
:10354000657070696E67210D0A0000005000002050
:10355000C0290020C4E300080000024001F05CFB29
:1035600001F00CFE02F00CFB02F0DEFE62B6C82099
:10357000FDF747FB0120FDF7F3F801F074FCC820CC
:10358000FDF73FFBDEA000F091FBE6A000F08EFB14
:10359000DBA000F08BFBEC48837BC089C0F30722E3
:1035A000E948D0F80E00C0F30741E8A000F07EFB28
:1035B0009FEDEE0B53EC102BEEA000F077FBF548DF
:1035C000006800F4005008B1F3A000E0F5A0014647
:1035D000F7A000F06BFBF948006C012801D1F8A0BE
:1035E00000E0F8A00146F9A000F060FB3220FD49A0
:1035F000086000230822D101FB4801F01FFD0023D1
:103600004FF48C721946F94801F018FDF748D0F8CC
:10361000140160B1F4480068002812DBF248006829
:1036200063280EDCF0480068EE49086009E03920A4
:10363000EC490860EC4908600822D101EA4801F031
:1036400040FD012007F01CFA012D01D1022100E00C
:103650000121084607F05EFC09F0B4FAE248406830
:10366000012802D002280FD106E08020D349086546
:10367000DFA000F01BFB16E06FF07F00CF4908656C
:10368000E2A000F013FB0EE0E74800F00FFB012082
:10369000D549486008228102D34801F012FD8020FC
:1036A000C649086500BF00BFC448006C01280FD19F
:1036B000DE4802F001FBDE4807F097F8C9490868C8
:1036C00007F08CF8C7480168DAA000F0EFFA08E0CC
:1036D000BA48006C28B9002002F0EEFADB4807F087
:1036E00084F8002009F0E5FA09F088F9D84807F0D5
:1036F000B7FF4FF4207009F0A3FA07F09FFD3C20BC
:10370000D44909688847B9480068D34990FBF1F06B
:103710001D2802D0D148B54908603220FDF771FA62
:10372000B248D0F8140149F65A2188423DD12C22E2
:10373000AE49091DCA4809F0D1FAC948806A45F660
:10374000A521884209D12C22A849091DC44809F0A5
:10375000C5FAC44800F0AAFA04E001F000FCC2A0D7
:1037600000F0A4FA9022A1493031CF4809F0B6FA0E
:1037700054229E49C031914809F0B0FACA48D0F8A5
:10378000840038B941F27070C749C1F88400022042
:10379000C1F88800C548C06820F080008030C34967
:1037A000C860C3A000F082FA04E0CBA000F07EFA6B
:1037B00001F0D5FBBC49086801F0E3FFBA4890F876
:1037C000300000F00E00022804D0042806D008289B
:1037D0000CD107E0012002F04CF808E0022002F0D2
:1037E00048F804E0032002F044F800E000BF00BF06
:1037F000012002F08EF8AC4890F8300000F0100084
:1038000018B1012002F08BF802E0002002F087F8E6
:103810009348806901909248C0690290DDE90101F6
:1038200002F0A1F8A048006B20F001009E49086357
:10383000012002F005F89C484068012803D10020CF
:10384000FCF762FF02E00120FCF75EFF0120FCF7BD
:1038500064FFA9A000F02AFA4FF47A70FDF7D1F9BD
:103860009148C06F012806D15448806C20F00100B7
:10387000524988640AE08C48C06F022806D14F483C
:10388000806C20F00100401C4C4988648648D0F8C8
:103890008000012806D14948806C20F00200474989
:1038A00088640BE08048D0F88000022806D14348A5
:1038B000806C20F00200801C4049886402203F494F
:1038C000086395A009F091F81F48807B00901E487E
:1038D000C089C0F307231C48D0F80E00C0F307428C
:1038E00091A196480AF0DAF80221002007F038FF8B
:1038F000924809F07AF8FDF7A5F8064622E10000A3
:103900000D0A2D2D2D2D2D2D2D2D2D2D2D2D2D2D2A
:103910002D2D2D2D2D2D2D2D2D2D2D2D2D2D2D2DD7
:103920002D2D2D000D0A7C204B505A313031205066
:1039300069657A6F204D6F746F7220436F6E747279
:103940006F6C6C6572207C0034E500080D0A0A4635
:1039500069726D77617265207265763A0925303239
:10396000642530326425303264000000000000001D
:10397000000065400D0A53797374656D20636F72A2
:103980006520636C6F636B203D20252E3266204DD1
:10399000487A0000100802406F6E20746865206845
:1039A000756200007374616E64616C6F6E65000017
:1039B0000D0A4D6F64653A20257300006C290020C4
:1039C0004C4344004F4C4544000000000D0A44693C
:1039D00073706C617920747970653A202573090AD7
:1039E000000000003C000020440000209827002038
:1039F0000D0A486F6E657977656C6C202831292037
:103A00004A6F6720576865656C0000000D0A4861C1
:103A10006D616D6174737520283229204A6F6720AB
:103A2000576865656C00000080FD0008A1A70008CC
:103A300087A700080D0A4C434420636F6E747261BF
:103A400073743A202564090A000000005BA700088F
:103A5000ECFC00088802002040420F004081BA01BF
:103A6000402900203CFD00080D0A556E697420694C
:103A700073206E6F742063616C6962726174656437
:103A80002E2044656661756C742063616C69627296
:103A90006174696F6E2064617461206C6F6164652C
:103AA00064210D0A00000000B0280020C029002079
:103AB0000D454550524F4D20636F6E74656E7420F6
:103AC0006C6F616465642073756363657373667599
:103AD0006C6C79210D0A00000D454550524F4D2068
:103AE000636F6E74656E74206E6F74206C6F6164AA
:103AF0006564210D0A0000000D0A50726573732081
:103B0000456E74657220666F722064656275672009
:103B10006D656E752E00000054686F726C61627383
:103B2000204B505A31303100537752657620253082
:103B3000326425303264253032640000F8060020FB
:103B400006F0C6FEFCF77EFF07463146FCF77EFF17
:103B5000B0F5FA6FF4DB4748006D60B94548406D39
:103B600020F001004349486507F063FB002042490B
:103B7000096888470DE03F49086D3F490968884753
:103B80003C48406D20F00100401C3A49486507F070
:103B900055FB00203749C86008618861C861086228
:103BA0004862886255E001F00FFD0446902C02D176
:103BB00032A0FDF70FFB3848D0F80001012805D1ED
:103BC000FDF723FC02203449C1F8000101F05FFD3C
:103BD000FDF73FF8B8B33148007BC0F3001018B1CF
:103BE00040F26160FFF7D6FB2D48C06B00280EDD68
:103BF0002B4890F83C10C06B401E294AD06301F05E
:103C0000040010B107F015FB01E007F017FB02F00C
:103C10007AFF2349086202F04CFF2149486202F012
:103C2000C4FF05F061F906F019F906F0E3F906F0B2
:103C300098FB01F0B6FE1A48806A032803D10020E1
:103C40000C498861486206F043FE00F0A9F800F0D4
:103C50006EFEA8E7BFF34F8F1248006800F4E060E3
:103C600011490843001D0F490860BFF34F8F00BF83
:103C7000FEE70000B028002088020020496E76612F
:103C80006C696420415054206D65737361676520D1
:103C9000666F726D61742E0050000020C0290020F4
:103CA0006C2900200CED00E00000FA050FB438B5D7
:103CB00005A800904D4909684D4A12688818009A75
:103CC000049909F0FFFE0446494800682044484929
:103CD000086000200090204638BC5DF814FB2DE9F8
:103CE000F04105460E4600274248006808B94248A0
:103CF00005603DE0082C04D00A2C1DD00D2C20D1ED
:103D000019E03C480068A8B108213CA0FFF7CEFFAD
:103D100020213AA0FFF7CAFF082138A0FFF7C6FF0D
:103D200034480068401E3349086033480068401E2C
:103D3000314908601BE000BF012700202D490860C1
:103D400015E02C480068B04210D221462BA0FFF7A6
:103D5000ADFF294909680C7027480068401C2649B6
:103D6000086024480068401C2249086000BF00BF6A
:103D7000FCF7CDFD04464FF6FF718842BAD16FB112
:103D800000201D49096808701B480068401C1A493A
:103D9000086008460068401BBDE8F0810020FBE792
:103DA00010B513480068B0B1FCF7F0FD98B11048A9
:103DB00001680E480068FCF7C6FD0C480068104911
:103DC000884202D101F5805000E00D4807490860A3
:103DD00000200749086010BD10B500E000BFFCF7E7
:103DE000D5FD0028FAD0FFF7DBFF10BD2000002032
:103DF00024000020280000202C0000202563000063
:103E00003807002008B58548006840F00100834B62
:103E1000186082481430006840F480507F4B14339F
:103E200018607F48006820F480407D4B1860184679
:103E3000006840F4004018601846406820F0800098
:103E400058601846C06820F44040D8601846806822
:103E500040F4404098601846006A20F0704040F0FE
:103E6000A04018621846006820F480601860184668
:103E7000006840F4006018601846406820F0200098
:103E800058601846C06820F44060D86020209861CF
:103E90001846806840F4406098601846006A20F434
:103EA000700040F4A00018625C48006840F0010017
:103EB0005A4B186010205A4B98611846006840F41D
:103EC000807018601846006820F40070186018466A
:103ED000406820F0100058601846C06820F4407018
:103EE000D8601846806840F4407098604D488088DB
:103EF00020F040004B4B98801846008820F040008E
:103F000018802A23B3FA83F3C3F12001481E382313
:103F100003EAC00242F44170424B18801846808880
:103F200040F0020098803D48006840F480003B4B20
:103F300018603D48006820F001003B4B186000E02D
:103F400000BF3948006800F001000028F8D14FF4A4
:103F50000060354B7C3B18603348006820F060609F
:103F6000314B18601846006840F0C0601860184671
:103F7000006840F4806018601846006840F0400017
:103F8000186028480C30284B0833186000201B1F8D
:103F900018602448008840F04000224B18801846E2
:103FA0008089009001208840204BB3FBF0F008BDD1
:103FB00008B1102101E04FF48011194A9161704756
:103FC000194A126822F00102174B1A6000E000BF84
:103FD000154A126802F00102002AF8D1124A0C3286
:103FE0001060114A121D1160D2140F4B7C3B1A60F5
:103FF0000D4A126842F001020B4B1A6070470A48E2
:104000008438006800F4006030B10648008900F090
:10401000800008B9012070470020FCE730380240DA
:1040200000000240003001408864024000BD0105EC
:104030003948006840F00300374908603748006895
:1040400020F08040354908600846006840F0004094
:1040500008600846C06840F08040C8600846C068F4
:1040600020F00040C8600846406A20F0704040F0F0
:1040700080512A4841622A48006820F040002849BF
:1040800008600846006840F08000086024480C3052
:10409000006840F0400022490C3108600846006882
:1040A00020F0800008601E482030006820F4704036
:1040B00040F480501A4920310860174810300068D9
:1040C00040F001001449103108604FF0FF3009063C
:1040D000C8620846008B40F2011108438907088333
:1040E000022008814007008840F0010008807047E6
:1040F0004FF08040406A70474FF08041098821F0BE
:1041000001014FF08042118011464862098841F058
:104110000101118070470000303802400000024069
:104120000004024070472DE9F0419EB00746002090
:104130001B901C901D9015261BAAFEA1384608F066
:10414000F5FD00240AE0FC4800EB041041681BA8C0
:1041500008F0DDFD08B9264602E0641C152CF2DDEE
:1041600000BF152E6FD2DFE806F00B223E555D75BD
:104170007BAAB8C8CEF1EFEEEDECEBEAE9E8E70098
:1041800017AAEEA1384608F0D1FD179909B101210F
:1041900000E000210846FCF75EFA179808B10120FC
:1041A00000E000200146E7A0FFF780FDA6E3EC4811
:1041B000C06F012807D1FCF73CFA80464146E9A0D0
:1041C000FFF774FD0EE0E648C06F02280AD1FCF745
:1041D00030FA08B9012000E0002080464146E1A005
:1041E000FFF764FD8AE317AAD4A1384608F09EFDC4
:1041F000179909B1012100E000210846FCF753FAA4
:10420000179808B1012000E000200146DBA0FFF76D
:104210004DFD73E3FCF733FA80464146DEA0FFF71D
:1042200045FD6BE317AAC5A1384608F07FFD179935
:1042300009B1012100E000210846FCF7EBF91798CD
:1042400010B1DBA001E027E3DAA00146DAA0FFF716
:104250002DFD53E302F034F9DEA0FFF727FD4DE317
:1042600018AAE1A1384608F061FDE1480078E1496B
:10427000086018A808F044FDDE490873002405E032
:1042800018A8015DDB48001D0155641C18A808F042
:1042900037FDA042F4D80020D649487388730846F9
:1042A00002F08DFA0020D449086018A808F028FD13
:1042B0008046424618A9D1A0FFF7F8FC1EE317AAD2
:1042C0009EA1384608F032FDC94917980870084683
:1042D0000178D3A0FFF7EAFC10E317AA97A13846AC
:1042E00008F024FD1799C8B2002102F001F91798CF
:1042F000C1B2D1A0FFF7DAFC00E302F09CFAD5A02E
:10430000FFF7D4FCFAE217AA8CA1384608F00EFD9C
:104310001798012803D10005D349086002E0102056
:10432000D1490860179808B9D0A000E0D1A0014693
:10433000D2A0FFF7BBFCE1E27DE26EE258E24CE284
:1043400025E20BE2F7E167E02BE0FFE715A816ABEB
:1043500017AAD3A10090384608F0E8FC17991498E2
:1043600061F3154014901699149861F30E2014907F
:10437000DDE9140161F3060014901498FCF78EFD3A
:10438000149800F07F03C0F30622C0F30541C7A0D4
:10439000FFF78CFCCEA0FFF789FC0220CD49086016
:1043A000ACE215A816AB17AABDA10090384608F0DC
:1043B000BDFC1799149861F3154014901699149840
:1043C00061F30E201490DDE9140161F306001490EE
:1043D00000211498FCF789FDBF48C068042808D163
:1043E0000020FCF760F9BD48BB4908610120486125
:1043F00007E00020FCF72FF9B948B7490861012010
:104400004861149800F07F03C0F30622C0F3054111
:10441000B4A0FFF74BFC71E217AA48A1384608F098
:1044200085FCB9480468B848283800681590B64833
:1044300024380068159814901498C0F30340149918
:10444000C1F3015101EB810100EB4100169014987A
:10445000C0F303201499C1F3023101EB810100EB99
:1044600041001590149800F00F001499C1F3021147
:1044700001EB810100EB41054FF46161169848435F
:104480001599C1EB011100EB8100284417990844EC
:1044900017909E49179890FBF1F201FB12001790BC
:1044A0004FF46161179890FBF1F016900A2116986D
:1044B00090FBF1F1149861F3155014900A211698AD
:1044C00090FBF1F201FB1201149861F31340149078
:1044D0004FF46161179890FBF1F201FB1200169006
:1044E0003C21169890FBF1F01590169890FBF1F294
:1044F00001FB12050A21159890FBF1F1149861F364
:104500000E3014900A21159890FBF1F201FB120174
:10451000149861F30B2014900A2095FBF0F1149885
:1045200061F3061014900A2095FBF0F100FB115185
:104530001498EDE025397300D4E30008252A73258B
:10454000640000000D0A5472696720492F4F202330
:10455000312073657420746F2025640D0A000000FB
:10456000B02800200D0A5472696720492F4F20237C
:10457000312069732025640D0A0000000D0A547271
:10458000696720492F4F2023322073657420746F90
:104590002025640D0A0000000D0A54726967204945
:1045A0002F4F2023322069732025640D0A0000005C
:1045B0006F6E00006F6666000D0A43414E20746501
:1045C000726D696E6174696F6E2069732025730D59
:1045D0000A0000000D0A43414E2073746172746535
:1045E000642E0D0A00000000252A73253873000090
:1045F0003800002088270020300000200D0A4341A9
:104600004E206D73672073656E743A2022257322E5
:104610002C2025642062797465732E0D0A00000039
:104620000D0A43414E2049442073657420746F2065
:1046300025640D0A000000000D0A43414E20527807
:104640002066696C74657220256420616464656409
:104650002E0D0A000D0A43414E2073746F70706571
:10466000642E0D0A0000000018080240696E707583
:10467000740000006F757470757400000D0A537932
:104680006E63682070696E2069732073657420748E
:104690006F20626520616E2025730D0A0000000006
:1046A000252A732558202558202558000D0A5254D4
:1046B000432074696D652073657420746F20253004
:1046C00032583A253032583A25303258000000002E
:1046D0000D0A0000340000206C290020A706000805
:1046E000570600080D0A52544320616C61726D2018
:1046F00073657420746F20253032583A2530325853
:104700003A2530325800000028280040805101002E
:1047100061F30300149021461498FCF7E6FB14980B
:1047200000F07F03C0F30622C0F30541AFF24C0056
:10473000FFF7BCFAE2E017AAAFF20021384608F012
:10474000F5FA1798FCF70DFB179808B1A4A000E044
:10475000A5A00146A6A0FFF7A9FACFE017AAAFF2DD
:104760002421384608F0E2FA179802F0B9F840B967
:10477000A5491798C8600846C168A4A0FFF796FA33
:1047800004E0A148C168A8A0FFF790FAB6E015A818
:1047900016AB17AAAFF2F8010090384608F0C6FA37
:1047A0001799149861F3154014901699149861F3B1
:1047B0000E201490DDE9140161F3060014901498A2
:1047C000FCF767FB149800F07F03C0F30622C0F3E8
:1047D0000541A1A0FFF76AFA90E0FBF723FF10B1B3
:1047E000A7A0FFF763FA4FF08070AF49886185E0BA
:1047F00017AAAFF2B821384608F098FA1798FBF7D5
:104800009EFF179810B1AFF2582001E0AFF25C2084
:104810000146A6A0FFF74AFA70E017AAAFF2E4211A
:10482000384608F083FAA648179950F82120A5A029
:10483000FFF73CFA62E017AAAFF20031384608F001
:1048400075FA1798012802D002281FD10EE08020A7
:104850006D4908650120A749486008228102A548E2
:1048600000F02FFCA4A0FFF721FA13E06FF07F0007
:104870006549086502209F494860082241029D4819
:1048800000F01FFCA3A0FFF711FA03E0A8A0FFF7B8
:104890000DFA00BF00BF00BF0020AD490860ADA009
:1048A000FFF704FA002423E0AD4800EB0410806811
:1048B000007840B9AA4800EB0410AAA142686846F3
:1048C00009F0ECF80BE0A64800EB04108368A4485C
:1048D00000EB0410A4A14268684609F0DFF8A04884
:1048E00000EB04106946C268A1A0FFF7DFF9641C61
:1048F000152CD9DBA1A0FFF7D9F900BF00BF1EB06E
:10490000BDE8F08110B54F219D48FFF7E8F9044656
:1049100054B104E000222046641C99490A544F2CEB
:10492000F8DD9748FFF7FFFBFFF73AFA10BDFEB539
:10493000FFF7E8FFFFF7F6FB01F099FE051E13D025
:10494000002404E0281D005D0DF80400641C287B91
:10495000A042F7DC0021601C0DF800102A7B6B469A
:1049600088A02968FFF7A2F901F09EFF06464EB124
:104970008D48006830B931468CA0FFF797F90120C7
:1049800089490860FEBD00B585B07148007800F027
:104990000200C0B18D48006802908C482838006839
:1049A00004908A4824380068039004980190029883
:1049B0000090019800F07F03C0F30622C0F3054188
:1049C00083A0FFF773F905B000BD10B589480068F2
:1049D00020F080508749086087A0FFF767F910BD75
:1049E0006D61737465720000736C61766500000020
:1049F0000D0A5254432073796E63686564206173B5
:104A000020612025730000006C2900200D0A5379D5
:104A10006E6368206D6F64652073657420746F2009
:104A200025642E0D0A0000000D0A496E76616C693E
:104A30006420706172616D657465722C2073796E8B
:104A40006368206D6F64652072656D61696E7320A7
:104A500025642E0D0A0000000D0A52544320776988
:104A60006C6C20737461727420617420253032582C
:104A70003A253032583A253032580D0A00000000ED
:104A80000D0A55736520706F7765722062757474B6
:104A90006F6E20746F207475726E2063756265206E
:104AA0006F66662E0D0A0000000002400D0A48568F
:104AB0002072656C6179206973202573200D0A00CE
:104AC000D02F00200D0A4C5554206172726179205C
:104AD00076616C75652066726F6D20706F73697496
:104AE000696F6E2025642069733A202564200D0AC1
:104AF00000000000440000200D0A53657420486F38
:104B00006E657977656C6C204A6F672057686565BC
:104B10006C0000000D0A5365742048616D616D6181
:104B2000747375204A6F6720576865656C000000D4
:104B30000D0A556E6B6E6F776E204A6F672057684F
:104B400065656C2053656C656374656400000000E6
:104B5000340000200D0A4D656E753A0A0000000011
:104B6000D4E3000825733A0025732025733A00002A
:104B70000D0A252D31307309257300000D0A3E0002
:104B8000382700200D0A43414E2052782066726F6C
:104B90006D2025642C2025642062797465733A2089
:104BA000222573220D0A0000300000200D0A434127
:104BB0004E206572726F723A20737461747573203F
:104BC0003D20307825582E0D0A000000282800408E
:104BD0000D0A53796E63682054696D65203D202568
:104BE0003032583A253032583A253032582E256422
:104BF0000000000004ED00E00D0A46656174757266
:104C000065206E6F742079657420696D706C656DB8
:104C1000656E74656421000018B58C48006840F02A
:104C200002008A49086089481030006840F48040DA
:104C30008649103108608648006820F08040844929
:104C400008600846006840F000400860081D0068E1
:104C500020F40040091D08607D480C30006820F0F9
:104C600040407B490C310860081F006860F04040FC
:104C7000091F08607648406A20F0704040F0A0416B
:104C800073484162006820F08060714908600846FE
:104C9000006840F000600860081D006820F40050C3
:104CA000091D08606A480C30006820F040606849BF
:104CB0000C310860081F006860F04060091F086040
:104CC0006348406A20F4700040F4A00160484162EB
:104CD000006820F080505E4908600846006840F097
:104CE000005008605A480C30006840F08050584925
:104CF0000C3108600846006820F0005008605448F5
:104D0000406A20F0706040F0A061514841624F4815
:104D1000006840F004004D49086088154D4908605E
:104D20004C481838006840F480304A491839086007
:104D30000846006820F400300860081D006820F470
:104D40008070091D086043480C38006820F440302A
:104D500040490C390860081F006860F44030091FA2
:104D600008603D48008820F040003B490880081F4B
:104D7000008820F04000091F088040F614300880A9
:104D80000846008840F040000880081D008840F078
:104D90004000091D088024200121002807DA0A07A5
:104DA000140E2E4A00F00F031B1FD45403E00A0711
:104DB000130E2B4A135400BF242000F01F020121C0
:104DC00091404209920002F1E022C2F8001100BFB6
:104DD000214808300088009018BD10B14FF4807150
:104DE00001E04FF080711B4A1160704708B18021CB
:104DF00001E04FF40001174A11607047014600E0DE
:104E000000BF154A121D128802F00202002AF7D0D4
:104E1000114B0833198000E000BF0F4A121D1288A1
:104E200002F00102002AF7D00B4A0832128810B2B1
:104E3000704710B504460020FFF7CFFF2046FFF76C
:104E4000DDFF0120FFF7C9FF10BD00003038024030
:104E500000040240180802400438004018ED00E049
:104E600000E400E0704710B500206D49086048601C
:104E70006C49486008606C49C86008614861886195
:104E8000C861086248628862486388636548C06890
:104E900020F010006349C860002088600846C068A0
:104EA00020F04000C8600846C06820F02000203094
:104EB000C8600846C06820F08000C8604B205A498E
:104EC000086001204860282008631422574956488A
:104ED0003C3007F003FF00205149C860AFF27B006F
:104EE000086100204861886108628883486288629E
:104EF000C862886032204C49086541F27070C1F880
:104F000084000220C1F888000846406D20F00100AE
:104F1000401C48650846406D20F00200801C486532
:104F20000846406D20F004004865DA2048660220FB
:104F3000C86501208866032008660120886641F262
:104F40001310C86640000867002048670120C86742
:104F50000021354881670121C0F8801010BD41F261
:104F60003C503349088042F6F07088804FF4AA50D4
:104F7000488042F6FC712E48C18041F282402C49A3
:104F8000888143F6D070088241F290412848C1815F
:104F900043F6CB7141829FED270A80ED080A9FED11
:104FA000260A80ED090A00202149886270472820DE
:104FB0001D4908633220086541F27070C1F8840011
:104FC0000220C1F888004B20086001204860084694
:104FD000406D20F00200801C4865DA2048660220FF
:104FE000C86501208866032008660120886641F2B2
:104FF0001310C86640000867002048670120C86792
:105000000021094881670121C0F880109FED090A3D
:10501000074880ED080A9FED080A80ED090A7047ED
:105020006C290020C0290020B028002088E5000855
:1050300040290020FF5D0F3ED29EDC392DE9F05F54
:1050400081460C4617469A464FF0010B4E46E01932
:10505000B0F5006F02D30120BDE8F09F002000F002
:105060004AF9032000F04FF9C4F3072000F04BF990
:10507000E0B200F048F94FF0000816E0002000F020
:1050800042F90546BAF1000F02D106F8015B0AE0C9
:10509000BBF1000F05D016F8011BA94201D1012078
:1050A00000E00020834608F10108B845E6D301205E
:1050B00000F021F9BBF1010F01D00120CCE7002065
:1050C000CAE72DE9F05F81460D461646A819B0F5EE
:1050D000006F02D30120BDE8F09FC8462C4644E093
:1050E00004F01F07AC4200D0AFB9002000F003F974
:1050F000062000F008F9012000F0FDF8002000F083
:10510000FAF8022000F0FFF8C4F3072000F0FBF8E3
:10511000E0B200F0F8F818F8010B00F0F4F81F2FD7
:1051200003D0A819401EA0421ED14FF0000B012051
:1051300000F0E1F800BF002000F0DDF8052000F0ED
:10514000E2F8002000F0DFF88246012000F0D3F8FA
:1051500058460BF1010BB0F57A7F01D90220BAE76E
:105160000AF001000028E6D1641CA819A042B7D8B3
:10517000012000F0C0F80120ADE7000008B56F483D
:10518000006840F004006D4908600846006840F07F
:105190000800086069481030006840F40040674922
:1051A000103108606648006820F08070644908602B
:1051B0000846006840F000700860081D006820F490
:1051C0008050091D08605E480C30006820F0407077
:1051D0005B490C310860081F006860F04070091FCF
:1051E00008605748406A20F4702040F4C0215448B9
:1051F0004162006820F48010514908600846006848
:1052000040F400100860081D006820F48060091D4B
:1052100008604B480C30006820F4401048490C31BD
:105220000860081F006860F44010091F08604448C7
:10523000406A20F4706040F4C061414841620068F7
:1052400020F480003E4908600846006840F40000F1
:1052500008603B480C30006840F4800038490C314D
:1052600008600846006820F4000008603448406A7E
:1052700020F4704040F4C04131484162042031497B
:10528000086030481838006840F010002D4918397F
:1052900008600846006820F020000860081D0068CB
:1052A00020F00400091D086026480C38006820F032
:1052B000300024490C390860081F006860F0300095
:1052C000091F08602048008820F040001E4908801F
:1052D000081F008820F04000091F08804FF4497023
:1052E00008800846008840F04000088016480830D2
:1052F0000088009008BD08B1042101E04FF480212E
:10530000104A11607047014600E000BF0E4A121DAE
:10531000128802F00202002AF7D00B4A08321180EC
:1053200000E000BF084A121D128802F00102002AA4
:10533000F7D0054A08321288D0B2704730380240A0
:1053400000080240180C0240043C004097480068E6
:1053500040F010009549086094481438006894495A
:1053600008439249143908609248006820F480206C
:10537000904908600846006840F40020086008462C
:10538000406820F4007048600846C06820F440205F
:10539000C8600846806820F4402088600846406A5B
:1053A00020F0F00040F0700182484162006820F473
:1053B0008010804908600846006840F400100860CA
:1053C0000846C06820F40010C8600846C06840F471
:1053D0008010C8600846406A20F4706040F4E061C4
:1053E00074484162C002734988610846006840F011
:1053F000807008600846006820F000700860084669
:10540000806840F0407088600846006820F44000E2
:1054100008600846C06820F40000C8600846C068FC
:1054200040F48000C86040F2D92063490881002020
:10543000088288820846808940F4005088810846A6
:10544000808A40F0C00088825C48006820F001003B
:105450005A49086000E000BF5848006800F00100A9
:105460000028F8D15548006820F060605349086072
:105470000846006840F0006008600846006840F494
:10548000886008604C48001D4C49083108600020C5
:10549000091F086049487838006820F00100474932
:1054A0007839086000E000BF44487838006800F0B0
:1054B00001000028F7D141487838006820F060608A
:1054C0003E49783908600846006840F0006008608E
:1054D0000846006840F4A06008603748001D37495E
:1054E000703908603648091D086008153349743959
:1054F00008603148008820F040002F4908800846A5
:10550000808940F00C0088812C487838006840F091
:1055100001002A49783908607047284974390968B8
:10552000C1F58061274A1268914202D14FF6FF709F
:105530000FE024490A680968491C224B1960204978
:10554000885C19460968B1F5806F02D100211A46BE
:1055500011607047194A126822F00102174B1A6055
:1055600000E000BF154A126802F00102002AF8D1DB
:10557000124A0C321060114A121D11600E4A128834
:1055800022F040020C4B1A804FF000620B4BAC3BF8
:105590001A600A4A126842F00102084B1A6070470A
:1055A0000548008800F04000704700004438024081
:1055B000010040000000024000100140B8640240B9
:1055C000D02900204C00002070B501255848D0F8A3
:1055D0000001022801D0022070BD35E05548026864
:1055E0000068401C534B18605148845418460068AA
:1055F00006281BD14E48007900F0800010B14C48BD
:10560000807800E00020801D4B4908604848007900
:1056100000F07F00502807D145484079012803D188
:1056200008460068802801D99020D5E741480068E5
:1056300041490968884207D100203E49086001209D
:105640003B49C1F8000103253948D0F80001012881
:1056500006D0FFF762FF04464FF6FF718842BDD1C6
:105660002846B9E710B5354B1B68354C24681A1924
:10567000334B1B680B44324C236003E010F8013BB2
:1056800002F8013B0B1EA1F10101F7D110BD10B5CD
:105690002B480068B0B1FFF783FF98B12848016834
:1056A00026480068FFF756FF2448006825498842CD
:1056B00002D101F5807000E02248204908600020F6
:1056C0001F49086010BD2DE9F04393B080460D4698
:1056D00016461D480068854202D113B0BDE8F0832C
:1056E0006C46A71D812020604420A0700020E0703F
:1056F0008120207150206071A7F800807D804FF0DC
:10570000000900BF3278484609F10109391D0A54E1
:1057100016F8011B0029F5D1B5F5004F03D04A2139
:105720002046FFF79FFF0848056000BFD5E700004F
:10573000500000205C010020600100205401002086
:1057400058010020D02D00206401002030B5024611
:10575000540042F210756C43794D35F9115094FBA9
:10576000F5F303F31003764C241F34F91140E018CD
:10577000002800DA0020B0F5803F01DB4FF6FF7013
:1057800030BD70B504466F4804604B2C04D0642CC7
:105790001BD0962C4BD131E00020FAF79AFF002065
:1057A000FAF7B2FF68484068B0F5004F03DB47F6F0
:1057B000FF7065494860644948680121FFF7C6FFEA
:1057C00005B22846FFF735FB32E00120FAF781FFEA
:1057D0000120FAF799FF5C48406845F2555188422C
:1057E00002DD084658494860574948680021FFF7DC
:1057F000ADFF05B22846FFF71CFB19E00120FAF7C0
:1058000068FF0120FAF780FF4F484068B0F5004F6D
:1058100003DB47F6FF704C4948604B49486800215C
:10582000FFF794FF05B22846FFF703FB00E000BF37
:1058300000BF70BD43480068704744480068704727
:1058400010B5044641480460006801280AD13D486B
:10585000006B20F001003B4908630021084600F07E
:105860007BF805E03748006B40F0010035490863DC
:1058700010BD10B50446012C04D0022C09D0032C15
:1058800012D10DE00020FAF72DFF0020FAF74EFFAD
:105890000BE00020FAF726FF0120FAF747FF04E0AB
:1058A0000120FAF71FFF00E000BF00BF10BD10B5D8
:1058B0000246234B083333F91130D01A42F21073E9
:1058C00043431F4C0C3434F9114093FBF4F010BDEA
:1058D00010B502461A4B0C3333F91130534342F2E0
:1058E000107493FBF4F4164B083333F91130E018BD
:1058F00010BD10B50246124B1B1F33F91130D31ADD
:105900000F4C34F91140634344F6206493FBF4F0E8
:1059100010BD0F49086070470D480068704710B50A
:1059200004460C480460006818B10020FAF7E3FE52
:1059300002E00120FAF7DFFE10BD0648006870475C
:1059400044290020B0280020C02900206801002040
:105950006C010020700100200D4A106070477047F4
:105960000C480068704703B50B49019808600B4963
:10597000009808600CBD0CB50849096800910649FB
:1059800009680191DDE90012C0E900120CBD704701
:105990007C0100207401002080010020840100208F
:1059A000704773480068022810D17248007800F0F0
:1059B000080018B901206E49086007E06D480078BA
:1059C000C0F3401010B1012069490860704700B56C
:1059D0006848007800F0020028B16748806965498E
:1059E0008968884203D06248006803280AD10520EC
:1059F0006149486000205E4908605F498861C8606D
:105A0000086008615C484068062869D2DFE800F059
:105A1000680C253E500356480068012803D15649BA
:105A20004860002088615BE0544800685249886003
:105A300050488069C8610846C0684E490969884273
:105A400005D300204C49C8600220486004E04A4861
:105A5000C068401C4849C86042E047480068474960
:105A600051F8200044498860084600684149496867
:105A7000884203D304204049486006E03E4800685D
:105A8000401C3D4908600320486029E03A4800690D
:105A90003849C968884205D3002037490861022087
:105AA000486004E034480069401C3349086117E04D
:105AB0003148C0682F49496988420BD300202E49DC
:105AC000C860012048600020086008468069401CCA
:105AD000886104E02848C068401C2749C86000BFAE
