:020000040800F2
:20000000F0700120150300083B0300089B6400083F0300084103000843030008000000000E
:20002000000000000000000000000000450300084703000800000000776400084B030008E5
:200040004D0300084D0300084D0300084D0300084D0300084D0300084D0300084D030008E0
:200060004D0300084D0300084D0300084D0300084D0300084D0300084D0300084D030008C0
:200080004D0300084D0300084D030008BB5600088F5500084D0300084D0300084D0300084B
:2000A0004D0300084D0300084D0300084D030008652C00084D0300084D0300084D0300083F
:2000C0004D0300084D0300084D0300084D0300084D0300084D0300084D0300084D03000860
:2000E0004D0300085B2A00084D0300084D0300084D0300084D0300084D0300084D0300080B
:200100004D0300084D0300084D030008872C00084D0300084D0300084D0300084D030008BC
:200120004D0300084D0300084D0300084D0300084D0300084D0300084D0300084D030008FF
:200140004D0300084D0300084D0300084D0300084D0300084D0300084D0300084D030008DF
:200160004D0300084D0300084D0300084D0300084D0300084D0300084D0300084D030008BF
:200180004D0300084D03000800F002F800F0B2F80AA090E8000C82448344AAF10107DA45AE
:2001A00001D100F0A7F8AFF2090EBAE80F0013F0010F18BFFB1A43F001031847D8E2000026
:2001C00008E300000A444FF0000C10F8013B13F0070408BF10F8014B1D1108BF10F8015BD5
:2001E000641E05D010F8016B641E01F8016BF9D113F0080F1EBF10F8014BAD1C0C1B09D16E
:200200006D1E58BF01F801CBFAD505E014F8016B01F8016B6D1EF9D59142D6D3704700005A
:200220000023002400250026103A28BF78C1FBD8520728BF30C148BF0B6070476E290AF004
:20024000FB8170290AF0508266290CF02A8365290CF0278367290CF024836129AFF3008072
:2002600003681B0A28BF41F0800169290AF0A88164290AF0A58175290AF0A2816F290BF0A5
:200280008F8078290AF01C82E9290BF02780E4290BF02480F5290BF02180EF290BF08C80DD
:2002A000F8290AF01B820368DB0928BF41F0800163290AF0A88773290AF0AD87E3290BF018
:2002C0006981F3290BF06E81002070471FB50CF0E3FA0BF0BFF80400002000210CF048FA75
:2002E000401C6060002000210CF02CFAE0601FBD10B510BD0BF0A8FB1146FFF7E7FF01F00F
:2003000091F80BF0CFFB03B4FFF7F2FF03BC0BF0CFFB000072B61148016841F001010160EF
:2003200000BF0F48016811F0200F02D10D48406800470D4880470D480047FEE7FEE7FEE790
:20034000FEE7FEE7FEE7FEE7FEE7FEE7FEE7000007480849084A094B7047000030380240B3
:2003600010000240000004088F3D000889010008F05E0120F0700120F0600120F0600120E7
:200380002DE9F84304460D464FF000080026112D73D2DFE805F07209727D729072CA72D1D8
:2003A00072FC72FA3AF9F8004FF008082580FE4890ED030ADFEDFD0A20EE200A10EE101A41
:2003C00008460CF01CFA00F30F006080F64890ED040ADFEDF60A20EE200A10EE101A084698
:2003E0000CF00DFA00F30F00A080EF4890ED050ADFEDEE0A20EE200A10EE101A08460CF0A7
:20040000FEF900F30F00E08052E14FF01E0804F1020424F8025CE44890ED030A8DED000A3C
:2004200000982060E04890ED040A8DED000A00986060DD4890ED050A8DED000A0098A06048
:20044000D94890ED070A8DED000A0098E060D64890ED080A8DED000A00982061D24890EDB0
:20046000090A8DED000A00986061A4F10204CE48806A022802D1012001E018E102206083F4
:20048000C948C06A012800D100E00220A0830FE14FF00C082580C648008B6080C448408BCA
:2004A000A080C348C08BE080C148008C2081C048408C6081FCE04FF012082580BA48B0F8F7
:2004C00048006080B848B0F84A00E080B648B0F84C00A080B448B0F84E002081B248B0F85B
:2004E00044006081B048B0F84600A081AE4890ED140ADFEDB00A20EE200A10EE101A08460B
:200500000CF07DF900F30F00E081A74890ED150ADFEDA80A20EE200A10EE101A08460CF053
:200520006EF900F30F002082C2E04FF0040825809F48C08E6080BBE04FF0060800269C4817
:20054000C08E012802D146F001060CE09848C08E022802D146F0020605E09548C08E032884
:2005600001D146F00406002004F0AAFB08B146F48016012004F0A4FB08B146F400162580C5
:20058000C4F8026094E07AE029E01EE0FFE74FF0080825808448008860800020A080824850
:2005A00040686FF00041884201D1002705E07E4840684FF4167190FBF1F77B4880684FF4B2
:2005C000007101FB0070E08072E04FF0060825807748008C60807648408CA08068E04FF03E
:2005E000220825807048B0F8780060806E48B0F87000A0806C48806D3230642148434FF62E
:20060000FF7190FBF1F0E0806748006E3230642148434FF6FF7190FBF1F020816248806EB5
:2006200032306421484347F6FF7190FBF1F060815D48B0F87C00A0815B48B0F87400E08144
:200640005948C06D3230642148434FF6FF7190FBF1F020825448406E3230642148434FF696
:20066000FF7190FBF1F060824F48C06E32306421484347F6FF7190FBF1F0A08218E04FF013
:2006800010082580002060804948008D10F4804F03D0608840F0010060804548008D10F4C2
:2006A000004F03D0608840F00200608000E000BF00BF4046BDE8F8832DE9F0472DED068B22
:2006C0008AB0044620881FFA80F9B9F10D0F73D00CDCB9F1010F13D0B9F1050F6DD0B9F129
:2006E000070F6BD0B9F10B0F69D1FAE0B9F10E0F6BD0B9F10F0F7DD0B9F1100FF4D11FE22B
:20070000608800EE100AB8EE400ADFED280A80EE201A254880ED031AA08800EE100AB8EE86
:20072000400ADFED220A80EE201A1F4880ED041AE08800EE100AB8EE400ADFED1C0A80EE1D
:20074000201A194880ED051A90ED050A10EE101A08460CF029F841EC100BB0EE408AF0EEC5
:20076000608A114890ED040A10EE101A08460CF01BF841EC100BB0EE409AF0EE609A0A483C
:2007800090ED030A10EE101A08460CF00DF841EC100BB0EE40AAF0EE60AA8DED028B8DED1F
:2007A000009B53EC1A2B0CE06420002000FEFF462421002000000047D7E014E17EE0E2E1CE
:2007C00003E0F4A001F008FCDEE154F8020F04909DED040AF74880ED030A606804909DEDC6
:2007E000040AF44880ED040AA06804909DED040AF04800E052E180ED050A206904909DED92
:20080000040AEC4880ED080A606904909DED040AE84880ED090AE06804909DED040AE548D1
:2008200080ED070A208BA4F1020401281CD1E14890ED091AF0EE410A90ED081AB0EE410A64
:20084000684604F031FC1422694605A80AF0B5F972B6142205A9D74830300AF0AEF9022041
:20086000D449886262B60FE01422D34905A80AF0A4F972B6142205A9CE4830300AF09DF9C2
:200880000020CC49886262B6A08B01280DD1C948D0ED070AB0EE600A04F0BEFCC54880EDE0
:2008A000060A0120C349C86207E0B7EE000AC14880ED060A0020BF49C86265E16088BF492D
:2008C0008886898E012901D0012100E00021084604F086F9B948828EC18EB9A001F07CFBF3
:2008E00052E1B44806684768D0F808806088B1490860E08828B96FF0004048600220886078
:2009000018E0E088C11700EBD1514912A0EB4125E088C11700EBD1514912A64A916025B9DF
:200920006FF000401146486004E04FF416706843A04948609F480068B04207D19D4840688A
:20094000B84203D19B488068404501D0012000E000208246BAF1000F06D0002097490865C2
:200960009449086804F015FA0EE1B4F90200404200F30F0091498884A088C8840846B0F9B4
:2009800024008C49B1F94A10884204DD8948B0F84A008A4988848948B0F924008549B1F9F7
:2009A0004810884204DA8348B0F84800834988848248B0F926007F49B1F94E10884204DD90
:2009C0007C48B0F84E007D49C8847C48B0F926007849B1F94810884204DA7648B0F848009F
:2009E0007649C884D0E060887249A1F84800E088A1F84A00A088A1F84C002089A1F84E00D0
:200A00006089A1F84400A089A1F84600E08900B200EE100AB8EEC00A5FED9A0A80EE201ADD
:200A2000084680ED141A208A00B200EE100AB8EEC00A5FEDA00A80EE201A084680ED151A71
:200A400090ED150A10EE101A08460BF0ADFE41EC100BB0EE408AF0EE608A564890ED140A2D
:200A600010EE101A08460BF09FFE41EC100BB0EE409AF0EE609A8DED008B53EC192B5FA049
:200A800001F0AAFA4B49B1F84410012901D0012100E00021084604F0ABF875E06088454962
:200AA0008867A0880867E088C0EB0040642190FBF1F0404988652089C0EB0040642190FB52
:200AC000F1F03C4908666089C0EBC030642190FBF1F038498866A1893648C167E18941677C
:200AE000208AC0EB0040642190FBF1F13148C165608AC0EB0040642190FBF1F12D484166ED
:200B0000A08AC0EBC030642190FBF1F12948C166816F002004F0B5F82849C8622548C16F9D
:200B2000012004F0AEF8254908632248816F002004F066F81F48C16F012004F061F823E04D
:200B4000A07810F0010F06D01C48806A40F480401A49886205E01948806A20F480401749A4
:200B60008862A07810F0020F06D01448806A40F400401249886205E01048806A20F4004012
:200B80000E49886200E000BF00BF0AB0BDEC068BBDE8F0870D0A5049443A2050203D202566
:200BA000662C2049203D2025662C2044203D20256600000064200020A8C800082421002019
:200BC0000D0A43757272656E74206F70206D6F6465203D2025642C206E6577206F706572E5
:200BE0006174696E67206D6F6465207265717565737465643A202564000000000D0A466586
:200C000065646261636B206761696E203D20256620616E64202566002DE9F04F2DED028BB9
:200C200087B081468B461746B9F1000F07D0CA46B9F8000080B2069009F1060809E0BBF1D2
:200C4000000F06D04FF0000AD046BBF8000080B206903C46BD1D0020E070012020715020E7
:200C6000607100200490C7F800010698B0F5076F71D012DC122872D006DC02286DD0052855
:200C80001FD011285CD160E0142867D015286ED0A0F500702338F5D153E0B0F5086F7AD012
:200CA00008DCA0F50060713872D0012871D00428E8D1DCE0A0F5006081385AD00128E1D1B2
:200CC00051E0062020805420A070207940F0800020715422F849284609F02AFFF7A0007869
:200CE00085F84200F5A0417843204155F3A0C17844204155F1A0017945204155F2A0007917
:200D0000202801D1302001E0EFA0007946214855EDA0417947204155EBA001784820415536
:200D2000E9A0417849204155E7A081784A20415500214B204155012004900220E549086063
:200D40004AE24020E449C86346E20120E14948600020C86040E268E001E060E0ACE0002015
:200D6000DC49486038E20020DA49C86034E221E211E0D848806801280CD1D648C168C0689A
:200D8000401CD44AD06010460069814202DD23E252E050E000BF40F6810020800E20A0708D
:200DA000207940F080002071CB48008B2880CA48408B6880C848C08BA880C748008CE880C8
:200DC000C548408C2881C448C08E012802D1C5F80A000DE0C048C08E022802D1C5F80A006D
:200DE00006E0BD48C08E032802D10420C5F80A00002003F065FF28B1D5F80A0040F48010E6
:200E0000C5F80A00012003F05BFF28B1D5F80A0040F40010C5F80A0001200490DCE104204C
:200E2000AC49086000200490D6E14046FFF744FC00200490D0E100BFB9F1000F02D09AF8ED
:200E4000020001E0DBF8040080B2059028460599FFF796FA039040F6720020800398A070F9
:200E6000207940F08000207101200490B4E1B8F800000E2800D0AFE1A8229849984809F084
:200E80009CFE984896492039C1F8C800CC2200219348203802F068FC0123CC22002190487C
:200EA000203802F0B6FB06460EB98FA100E092A1084601F091F88FE1D8F800000290D8F877
:200EC00004000190D8F8080008EE100AD8F80C000090029847287DD00CDC172838D004DCC4
:200EE000012815D0022876D12CE045283DD04628F9D15DE04A286FD004DC48286DD04928C9
:200F0000F1D1A5E04B2869D0B0F5487FEBD135E17349203901980860CC220021704820386B
:200F200002F022FC0123CC2200216D48203802F070FB06460EB975A100E078A1084601F0A3
:200F40004BF835E1664820380068794948602FE1019830B101205F498860084680ED048ADC
:200F600002E000205B49886022E10198A0F5E061D3391CD118226F4959481C3809F01DFE7D
:200F80006D4957482038C161CC22002102F0ECFB0123CC2200215248203802F03AFB064602
:200FA0000EB95AA100E05DA1084601F015F8FFE0009800F580405F490860B8EEC80ADFEDC5
:200FC0005F0A70EE600A9FED5E1A80EE810AF7EE000A04E009E0EAE056E022E0B2E030EE75
:200FE000200A084680ED030AE2E052480068A0F580404F49C8604F4890ED030AF7EE000A16
:2010000030EE600ADFED4E0A20EE200A10EE101A08460BF0F4FB00B200F5804044498860B0
:20102000C6E0009800F5804042494860B8EEC80ADFED420A70EE600A9FED411A80EE810A52
:20104000F7EE000A30EE200A084680ED040AAFE038484068A0F580403549C860354890EDE4
:20106000040AF7EE000A30EE600ADFED350A20EE200A10EE101A08460BF0C1FB00B200F5D4
:2010800080402B49886093E00098A0F5804029498860B8EEC80ADFED290A30EE600A9FEDEF
:2010A000281AC0EE010AB7EE000A30EE800A084680ED050A7CE000005402002030383A326E
:2010C000383A3434000000004D6179203130203230313700E4210020242100206420002076
:2010E000B81F0020172001300D0A45455772697465204F4B000000000D0A454557726974E4
:2011000065206661696C6564000000000D0A45455772697465204F4B2E0000000D0A4545B0
:201120005772697465206661696C65642E0000002C0300200C2100209B548CE30000804631
:2011400000000047FE48806800F58040FD49C860FB4890ED050AF7EE000A30EE600A5FED65
:20116000080A20EE200A10EE101A08460BF047FB00B200F58040F349886019E04FF0FF317F
:20118000F148C161CC22002102F0EEFA0123CC220021ED4802F03DFA064616B9AFF2940129
:2011A00001E0AFF28801084600F016FF00E000BF00BF11E016202070002060702820A07074
:2011C000207940F0800020712822DE49284609F0AFFC0120049000BF00BF049848B1207951
:2011E00010F0800F02D0A078801D00E00620C7F80001049807B0BDEC028BBDE8F08F0FB4A3
:201200007FB509A80390BDF82000009000200190AFF250100290BDF82000812804D0A0F5C6
:20122000006072381DD115E0039810C80390039840C8039000200090C448006CA04208D0A3
:20124000B4F5004F03D08120009001940296BF48046407E00398006801900398001D039030
:2012600000E000BF00BF00200390B948006802280ED1B84A69460020FFF7CEFC0546012DE1
:2012800006D1B44801F061FC0021B24805F008F97FBC5DF814FB10B5A822AF49AA482030B4
:2012A00009F08BFCCC220021A74802F05DFA0446012C05D0A9A248F2D0418120FFF79FFF50
:2012C0000123CC220021A04802F0A3F904462CB1A4A248F2D0418120FFF791FF10BD70B594
:2012E0000446A3480068052862D2DFE800F003081939480014B901209D49086058E09DA0E3
:2013000000F06AFEA0489049C1F8C800FFF7C3FF01F098F89D49088002209549086047E0FD
:2013200034B100209249086099A000F055FE16E001F088F8054695480188284601F086F8F4
:20134000B0F5FA6F0BDD95A000F046FE002080494860032086490860002003F01AFD27E012
:2013600001F070F8054689480188284601F06EF8B0F57A6F02DD04207D49086018E04FF4B0
:2013800080208949086040F6B83001F08EF900BFBFF34F8F8548006800F4E060844908430D
:2013A000001D82490860BFF34F8F00BF00BFFEE700BF6F48006870BD2DE9F04106460D46F9
:2013C0000027002E2BD1002D29D0012424E005EA040001280AD004281BD176A000F0FCFD60
:2013E0000B2140F67200FFF70AFF13E05748008F56498886898E012901D0012100E0002117
:20140000084603F0EDFB5148018F74A000F0E4FD00E000BF00BF6400002CD8D10127384658
:20142000BDE8F0814FF0000972B60BF035FA00F03DFC00F0BFFF962001F047F901F00AF84B
:2014400001F02DF8002001F06FFA012001F05BF904205549086005F0C9F800F071FE00F067
:201460000DFB03F00DFB02F015FA02F0EFFA01F085FE01F0C5FF01F03DFF01F0A5FBFA208C
:2014800001F013F903F0EEFE012003F0A9FB5AA000F0A2FD62A000F09FFD57A000F09CFD21
:2014A0006948D0F80E1069A000F096FD9FED6D0B53EC102B6DA000F08FFD7348006810F4DB
:2014C000005F01D071A000E073A0014675A000F083FD4FF6FF701D494865002005F099FA9D
:2014E00007F00EFE0A2001F0E0F83C2003F051FC002007F08EFE1F237F220021084607F06E
:2015000097FE07F0B7FC012007F083FE7F231A462021002007F08CFE07F0ACFC4A48D0F816
:201520000E2064A140F6B83003F02EFA684805F073FD4FF4207007F025FE07F09BFCC9E006
:201540000C2100202C030020981F002024210020E4210020541B0020642000204545577208
:2015600069746500454556657269667900000000040000200D0A506F776572696E67206420
:201580006F776E2E2E2E0000172001300000002063616E63656C6C65640D0A00676F6F648A
:2015A0006279650D0A000000180402400CED00E00000FA050D0A415054206E6F74696669F9
:2015C000636174696F6E3A20646973706C61792073657474696E67732E0D0A000D0A4E659D
:2015E00077206F7065726174696E67206D6F6465203D2025640000000D0A2D2D2D2D2D2D9B
:201600002D2D2D2D2D2D2D2D2D2D2D2D2D2D2D2D2D2D2D2D2D2D2D2D2D2D2D2D00000000DE
:201620000D0A4B504131303120504F534954494F4E20414C49474E455220434F4E54524F79
:201640004C4C455200000000540200200D0A0A4669726D77617265207265763A092530364C
:201660005800000000000000000065400D0A53797374656D20636C6F636B3A09252E326677
:20168000204D487A00000000100802406F6E207468652068756200007374616E64616C6FCE
:2016A0006E6500000D0A4D6F64653A090925730D0A0000004B696E65736973204B504131BD
:2016C00030310A5377526576202530365800000014D9000805F0A0F804462CB9984A1021E1
:2016E00098A000F079FC03E02146A1A000F074FC0023CC221946A74801F08BFFA6A000F052
:201700006BFCA4480068A849B0FBF1F0452808D1A0480168A5A000F05FFC9E480068A6492D
:2017200008609C48C069A549884208D1A4A000F053FC18229749091DAB4809F03EFA9548DF
:20174000D0F8C800A949884224D1A9A000F044FCA82290492031B14809F02FFAAF49086858
:2017600003F017FBAD48816F002003F08AFAAC49C862AA48C16F012003F083FAA8490863BA
:20178000A648816F002003F03BFAA448C16F012003F036FAA149B1F84410012901D00121BF
:2017A00000E00021084603F023FA9EA000F014FC012005F02EF962B6C1E0A34801F07EF943
:2017C0000546902D03D1A1A003F037FC1BE09E48D0F80001012816D101219B4804F060FEB5
:2017E000A14A00219848FFF717FA0646012E06D19D4801F0AAF900219B4804F051FE0220C2
:201800009149C1F8000101F0B8F900F01BFE8246494600F01BFE642862DD00F013FE814696
:201820009248406818B140F68100FFF7E8FC03F0D3FA7B4948648E480068012121EA102001
:2018400077498865886D02F006FB7549C8650B46DA6C596CD86D643302F056FB7049086666
:20186000086E02F048FD83480068012121EA90006B4988640020C866896C21B16849C96E2E
:2018800009B9012100E000210846FFF728FD6449C8640A46516E106EFFF78EFD604988667C
:2018A0000846806E012801D1002048665C48C06B002811DD5A4991F83C20C96B491E584B78
:2018C000D96312F0040F01D0002102E053490968491C084603F05DFA03F070FB5049C866B4
:2018E00004F0E0FC04F0BEFF4C48026F816F002003F00AFA80464948426FC16F012003F00F
:2019000003FA0746B8F1020F01D0022F17D14448C08E032807D14248808E5749088002201A
:201920003F4988860BE03E48C08E022807D152480088042800D100E00320394988863CE77B
:20194000822300200D0A4F6E6557697265206461746120666F756E642C2064657363726936
:201960007074696F6E203D2027252E2A732700000D0A4F6E6557697265206E6F7420646558
:201980007465637465642C20737461747573203D20256400981F00200D0A454550524F4D22
:2019A00020726561642E000040420F000D0A532F4E203D2025640000540200209B548CE3EB
:2019C0000D0A466F756E642056616C69642043616C6962726174696F6E20506172616D65E6
:2019E000746572732E0000000C210020172001300D0A466F756E642056616C69642055733B
:201A00006572204F7065726174696E6720506172616D65746572732E000000006420002020
:201A2000242100200D0A507265737320456E74657220666F72206465627567206F70746995
:201A40006F6E730D0A0000002C000020496E76616C696420415054206D65737361676520E2
:201A6000666F726D61742E00541B0020E421002010080240100C02400800002084480068E7
:201A800040F4802082490860814810380068814908437F49103908607F48006820F4801065
:201AA0007D4908600846006840F400100860081D006820F48060091D086077480C30006824
:201AC00020F4401074490C310860081F006820F44010091F08607048406A20F4706040F443
:201AE000E0616D484162006820F480006A4908600846006840F40000086067480C30006891
:201B000020F4400064490C3108606348406A20F4704040F4E0416048416240F26D105F490F
:201B2000088000205D4908310880091D08805B48001D008840F400505849091D088057482E
:201B40000C30008840F0C00054490C3108805448806D20F001005249886500E000BF504816
:201B6000806D10F0010FF9D14D48806D20F060604B4988650846806D40F0006088650846C5
:201B8000806D40F4886088654448001F08660020C8650846806A20F00100886200E000BF17
:201BA0003F48806A10F0010FF9D13D48806A20F060603B4988620846806A40F0006088627B
:201BC0000846806A40F4A06088623448001F0863344848630815C86230480838008820F0EB
:201BE00040002E49083908802C48001D008840F00C002A49091D08802948806A40F0010063
:201C00002749886270472649C96AC1F58061264A1268914202D14FF6FF700FE022490A686A
:201C20000968491C204B19601E49885C19460968B1F5806F02D100211A4611607047184A5C
:201C4000926D22F00102164B9A6500E000BF144A926D12F0010FF9D1114A5066D1650F4A98
:201C6000083A128822F040020C4B083B1A804FF000620B4B9A601A46926D42F001029A657C
:201C8000704706480838008800F040007047000040380240020020000004024008480040DE
:201CA00000600240540300200C000020C548006840F00100C34908604FF48020C2498861EE
:201CC0000846006840F0100008600846006820F0200008600846806860F030008860880032
:201CE00088610846006840F0400008600846006820F0800008600846806860F0C000886091
:201D0000402088610846006840F4805008600846006820F4005008600846806840F44050DC
:201D20008860A848006840F00200A64908600420A6490860A5481838006840F01000A3498E
:201D4000183908600846006820F0200008609F481038006820F030009C49103908604FF4CC
:201D600000209A49086099481838006840F040009649183908600846006820F080000860A9
:201D800092481038006820F0C00090491039086010208E4908608D481838006840F480703F
:201DA0008A49183908600846006820F40070086086481038006820F4407084491039086035
:201DC00048068249086081481838006840F080707E49183908600846006820F000700860C3
:201DE0007A481038006820F040707849103908607448006840F004007249086004207449E3
:201E0000086073481838006840F010007049183908600846006820F0200008606C481038EB
:201E2000006820F030006A491039086008206849086067481838006840F040006449183980
:201E400008600846006820F08000086060481038006820F0C0005E491039086010205C4917
:201E600008605B481838006840F480705849183908600846006820F400700860544810389B
:201E8000006820F4407052491039086050481838006820F440604E49183908604C480C389E
:201EA000006820F440604A490C3908604FF480004749086046481838006840F48050444934
:201EC000183908600846006820F40050086040481038006840F440503D49103908608020F4
:201EE0003B4908603A481838006840F480403849183908600846006820F4004008603448A0
:201F00001038006840F4404031491039086030481838006820F040502D49183908602C48BF
:201F20000C38006820F0805029490C3908600846006840F0005008604FF400402449086000
:201F400023481838006840F080402149183908600846006820F0004008601D4810380068C8
:201F600020F040401A49103908601648006840F00800144908601748006820F03000154995
:201F8000086014480C30006820F0300011490C310860704708B1402101E04FF480010A4AD0
:201FA0009161704708B1082101E04FF40021064A91617047074810300068012121EA9000A4
:201FC0007047000030380240000002401804024018080240000C02400FB438B505A8009063
:201FE00051480068B0F5006F02D300E000BFFDE74E4909684C4A12688818009A049908F08D
:020000040800F2
:2020000065FA04464848006820444749086000200090204638BC5DF814FB2DE9F0410546C3
:202020000E4600274248006808B9424805603DE0082C04D00A2C1DD00D2C20D119E03C4894
:202040000068A8B108213CA0FFF7C6FF20213AA0FFF7C2FF082138A0FFF7BEFF3448006895
:20206000401E3349086033480068401E314908601BE000BF012700202D49086015E02C48B2
:202080000068B04210D221462BA0FFF7A5FF294909680C7027480068401C26490860244863
:2020A0000068401C2249086000BF00BFFFF7ABFD0446A0F57F41FF39BAD16FB100201D4965
:2020C000096808701B480068401C1A49086008460068401BBDE8F0810020FBE710B51248DD
:2020E0000068B0B1FFF7CDFD98B10F4801680F480068FFF7A4FD0D4800681049884202D145
:2021000001F5006000E00D480849086000200649086010BD10B500E000BFFFF7B2FD0028A6
:20212000FAD0FFF7DBFF10BD1400002010000020180000201C00002025630000540700205D
:202140009548006840F0100093490860924814380068924908439049143908609048006834
:2021600020F480208E4908600846006840F4002008600846406820F4007048600846C06862
:2021800020F44020C8600846806820F4402088600846406A20F0F00040F07001804841620D
:2021A000006820F480107E4908600846006840F4001008600846C06820F40010C860084672
:2021C000C06840F48010C8600846406A20F4706040F4E06172484162C0027149886108468A
:2021E000006840F0807008600846006820F0007008600846806840F040708860084600689D
:2022000020F4400008600846C06820F40000C8600846C06840F48000C86040F2D920614929
:2022200008810020088288820846808940F4005088810846808A40F0C00088825A48006821
:2022400020F001005849086000E000BF5648006810F0010FF9D15448006820F06060524976
:2022600008600846006840F0006008600846006840F4886008604B48001D4B490831086029
:202280000020091F086048487838006820F0010045497839086000E000BF434878380068EC
:2022A00010F0010FF8D140487838006820F060603D49783908600846006840F00060086088
:2022C0000846006840F4A06008603648001D3649703908603548091D086008153249743931
:2022E00008603048008820F040002E4908800846808940F00C0088812B487838006840F0D0
:2023000001002949783908607047274974390968C1F58061264A1268914202D14FF6FF7011
:202320000FE023490A680968491C214B19601F49885C19460968B1F5806F02D100211A4610
:2023400011607047184A126822F00102164B1A6000E000BF144A126812F0010FF9D1124ADA
:202360000C321060104A121D11600E4A128822F040020C4B1A804FF000620B4BAC3B1A6026
:20238000094A126842F00102074B1A6070470548008800F0400070474438024001004000FD
:2023A0000000024000100140B86402405417002020000020FE48006840F40030FC490860A2
:2023C000A720FC49088040F2E730091D08604010F8490C310860F7480838008840F0010024
:2023E000F44908390880F3481038008840F06000F04910390880081F008840F00100091F2A
:202400000880EC482838008840F00100E94928390880E748006840F48030E549086020207B
:20242000E54908810846008940F007000881002008854FF6FF70C8620846008840F00100BC
:2024400008807047DC48406A80B270470246501A80B27047D648001F006840F01000D449E9
:20246000091F08605320D54908854FF6FF704862C8620846008840F00800088008460088BA
:2024800040F00100088070474142CC484162018841F0010101800188C907FCD17047C4486C
:2024A000001F006840F00800C149091F0860C0482438006840F00800BD492439086000E014
:2024C00000BFBB482438006810F0080FF8D0B8482438006820F00800B549243908600020D8
:2024E000B7490880091F0860B1481438006840F00100AF4914390860B248006820F00100C6
:20250000B04908600846006840F0020008600846006A20F00F00801C08624FF0FF30A849CE
:20252000091D08605720A64920390880A4481038008840F00100A24910390880081F00886E
:2025400040F00100091F08809D482838008840F001009B49283908809548001F006840F03B
:2025600002009349091F0860002097490880091F08608F481438006840F002008C491439F6
:2025800008609248006820F00100904908600846006840F0020008608C482030006820F053
:2025A0000F00801C8949203108600846006820F0F00040F02000086041F2680084490860A7
:2025C00008460068401E8049091D086040F633007D491431086008460068091D086047F237
:2025E000700079490C390880081D008840F48070091D08807548006820F480607349086020
:202600000846006840F40060086070482030006820F4700040F400106C49203108606A48B0
:20262000001D0068400868491031086066481038008820F4E040644910390880084600886D
:2026400040F4C040088060480838008840F010005D49083908805C481438008840F00100F6
:2026600059491439088058482838008840F00100554928390880704710B52DED028BB0EEE2
:20268000408A534890ED000AB8EE400A28EE000A10EE101A08460AF0B2F880F310004A490E
:2026A00010310860BDEC028B10BD30B50346FFF7C9FE044600E000BFFFF7C4FE0546214630
:2026C000FFF7C4FE9842F6DB30BD0246414850434FF47A73B0FBF3F1B1F1807F01D30120F1
:2026E00070474FF0E020006940F001004FF0E0231861184641610020F2E74FF0E0200069EE
:2027000000F48030704710B548B9334B1968324B283B1B68314C23602F4B243B1A68244B6C
:202720001B1F1B6843F08053214C241F23602C4B1B6843F480732A4C23601D4B2C331B683C
:2027400043F480331A4C2C34236023461B6823F48033236023461B6843F44073236023464B
:202760001B6843F400432360CA231B4C241F236053232360184B1C3B1B6843F08003164C71
:202780001C3C236000E000BF134B1C3B1B6813F0400FF8D0104B183B1B686FF30E0342F295
:2027A0000F7423440C4C183C236023461B6819E044380240284401400040014000100040DF
:2027C000280C004000000240280400400004024024000020406F4001282800402800002085
:2027E0000070004023F4FE0343F4C6032360AB4B1B68AB4C2360AB4B241D2360A84B0C33AF
:202800001B6823F08003A64C0C34236000E000BFA34B0C331B6813F0800FF8D1FF23A04C32
:20282000243423609E4B0C331B6823F020039C4C0C34236010BD9C49096841F080519A4A28
:2028400011609A49096841F48071984A116096493031096841F48031934A3032116011469C
:20286000096821F4803111601146096840F2051211438D4A303211601146096841F4004163
:20288000116028B18A49098841F00101884A1180CA21834A243211605321116080490C318A
:2028A000096841F080017E4A0C32116000E000BF7B490C31096811F0400FF8D07849103153
:2028C00009686FF30E0142F20F721144744A103211601146096821F4FE0141F48031116068
:2028E0006E4909686E4A11606E49121D11606C490C31096821F08001694A0C32116000E0F9
:2029000000BF67490C31096811F0800FF8D1FF21634A2432116062490C31096821F0200122
:202920005F4A0C3211607047624901405B4A11607047CA215A4A24321160532111605849F3
:202940000C31096841F08001554A0C32116000E000BF53490C31096811F0400FF8D055492A
:2029600001404F4A11604E490C31096821F080014B4A0C321160FF21494A243211607047C0
:2029800030B50246CA20464B243318605320186043480830006820F48070414B0833186067
:2029A000181D006840F001001B1D186000E000BF3B480C30006810F0010FF8D03D48104026
:2029C00040F00040364B1C331860C1F30E0040F07060334B4433186031480C30006820F0E3
:2029E00001002F4B0C3318601846006820F480701860181F006840F488501B1F1860181DD1
:202A0000006820F001001B1D1860FF20244B243318602948006840F40030274B186026489B
:202A20000838006840F40030234B083B186022480C30006840F400301F4B0C331860292085
:202A400000F01F040123A34044094FF0E02505EB8404C4F8003100BF30BD11480C300068BD
:202A600020F480700E490C31086000E000BF0C480C30006810F4807FF8D10F480C300068F8
:202A800040F400300C490C3108607047044B28331A68034B18681B1D19687047280000206F
:202AA00000280040024413004038024000700040000400407F7F3F00083C014070B5044676
:202AC0000126D4F80001022801D0022070BD2FE0384802680068401C364B1860A5541846AB
:202AE0000068062817D1207910F0800F01D0A07800E00020801D30490860207900F07F00C1
:202B0000502806D16079012803D108460068802801D99020DAE72748006827490968884265
:202B200006D10020234908600120C4F800010326D4F80001012806D0FFF7E7FB0546A0F53F
:202B40007F41FF39C4D13046C0E730B5D0F8003102461A4C24681A4D2D686119184C24684D
:202B60001C44174D2C6003E012F8014B01F8014B1C00A3F10103F7D130BD10B51048006899
:202B8000B0B1FFF704FC98B10D4801680B480068FFF7D8FB094800680A49884202D101F5B4
:202BA000807000E007480549086000200449086010BD0000380100203C0100203001002097
:202BC00034010020581C0020FD48016841F001010160FC48016821F080410160016841F050
:202BE00000410160416821F400414160C16821F04041C160816841F040418160416A21F07F
:202C0000704141F080514162ED481030016841F0010101605321000601853121C162052151
:202C20004163018B41F060010183018C41F001010184818941F002018181018841F001010D
:202C40000180E14908684FF6FF021040DF4A40F4407010430860DE49102008700106DD4800
:202C600001607047DC4808210160C9060A8A22F002020A82D94A00211180D94A11804FF4BD
:202C80000021016070472DE9F05FDFF84CB308212DED028BCBF80010D2480068DFF848A3D9
:202CA000C204CF49CD48D14DD14CDFF848837DD50F460988D04E814600883268891A00EE74
:202CC000101AB8EEC08A7168401A00EE100ACB48F8EEC08A4188B068081A00EE100AB8EEAB
:202CE000C00A9FEDC71A94ED022A68EE010ADFEDC51A28EE811A42EE210AC4ED020A94ED9A
:202D0000032A02EE211A84ED031A9FEDBF1AD4ED051A20EE011A9FEDBD2A01EE821A84EDF0
:202D2000051A84ED040A84EC028A96ED030A20EEC00A10EE100A09F062FD00F30F0020837C
:202D400094ED030AD6ED040A20EE600A10EE100A09F055FD00F30F00608394ED050AD6ED01
:202D6000050A20EE200A10EE100A09F048FD80F31000E08394ED040AD6ED050A20EE200A37
:202D800010EE100A09F03BFD80F31000A08398ED140A98ED042A60EE080A98ED150A20EEDC
:202DA000281A95ED0A0A00EE820A00E0E6E010EE100A974985ED0A0ADFED961A964ADFED75
:202DC000972A884202DDC5ED0A1A05E010EE100A904201D9C5ED0A2A95ED0B0A01EE020A92
:202DE00010EE100A85ED0B0A884202DDC5ED0B1A05E010EE100A904201D9C5ED0B2AD5ED62
:202E00000C1A98ED060A05F1300070EEE11A20EE212AF7EE001A71EEC02AD5ED0E1A02EEFD
:202E2000A12A85ED0E2AD5ED0D1A71EE611A60EE211A95ED0F0A42EE801AC5ED0F1AC0ECE5
:202E4000020A98ED033A95ED0A0AD8ED052A00EE830AD5ED0B0A41EE030A02EE220A41EE41
:202E6000A20AD5ED021AC5ED031AD5ED102AC5ED022A95ED042A85ED052A95ED111A85EDAF
:202E8000041A85ED100A686890ED003AD0ED013AD0ED034A23EE000A90ED023A02EEA30A8E
:202EA00001EE830AD0ED041A01EE240A02EE210A85ED110A95ED061A85ED071AD5ED122AC3
:202EC000C5ED062A95ED082A85ED092A95ED134A85ED084AC5ED120A90ED005A65EE200AF2
:202EE00042EEA30A41EE030A44EE240A42EE210AC5ED130AE08E032832D0A08C2084E08C58
:202F000060849FED470A85ED110A85ED130A85ED0A0A85ED0B0A00BFB4F92000B8F9481032
:202F2000884203DBB8F94A10884200DD2184B4F92200B8F94C10884203DBB8F94E10884235
:202F400000DD61844FF08051CAF80010618C47F6FF70411AA9F80010218C401A3880F9E090
:202F600010EE100A09F04BFC00F30F002084E86C09F045FC00F30F006084CDE70988008812
:202F80004FF48051CAF800102648816841F0804181601748174BA28E2E88B0F92010B0F9F8
:202FA00022000227B3F846304FF0030CB24250D0012A39D0022A3AD0032A49D146E000006C
:202FC00030380240000002400CED00E00000FA051CE400E000E100E0180802400C380040A6
:202FE0000C3C004014040240180402404001002024210020642000200C2100209001002029
:20300000A69BC43BC9767E3F6F12833A77BE7F3F00FEFF4600FEFF4600FEFFC600FEFFC637
:2030200000000000002001400126E68610E0012B05D00E46A68405D14FF0000603E04FF0F0
:203040000006F7E70646E684E78601E0A4F836C02A80484D042AAD6D0FD1A28BAA420ADA92
:20306000012B01D14FF00001A18401D14FF00000E084E78601E0A4F836C03F49E08B896AB2
:20308000A84202DD41F0010101E021F00101A162D8F860108842A16A02DA41F0020101E037
:2030A00021F00201A162D8F85C108842A16A02DD41F0040101E021F00401A162D8F8641095
:2030C0008842A06A02DA40F0080001E020F00800A062B4F91800002800DA4042B4F91A10ED
:2030E000002900DA4942D8F86820824205D98A4203D9A26A42F0100202E0A26A22F010023E
:20310000A262D8F86C20824205D98A4203D9A06A40F0200002E0A06A20F02000A062D4E9D0
:203120000A1088431ED00020226B8A431CD00024D8F87010022919D000214140002001F01B
:20314000CFFDD8F87400022812D000216140012001F0C6FD4FF40021CBF80010BDEC028B4F
:20316000BDE8F09F0120DFE70124E1E70121E4E70121EBE764200020242100205A49096849
:2031800041F00201584A116057491031096841F48041554A103211605449096821F080416E
:2031A000524A11601146096841F000411160111D096821F40041121D11604C490C3109687F
:2031C00021F04041494A0C321160111F096861F04041121F11604549496A21F0704141F0D2
:2031E000A04242494A62096821F080613F4A11601146096841F000611160111D096821F4DA
:203200000051121D116039490C31096821F04061364A0C321160111F096861F04061121FE8
:2032200011603249496A21F4700141F4A0022F494A62096821F080512C4A1160114609686C
:2032400041F00051116029490C31096841F08051264A0C3211601146096821F0005111609F
:203260002249496A21F0706141F0A0621F494A6289141E4A183211601C49096841F080714F
:203280001A4A11601146096821F000711160111D096821F48051121D116014490C3109686E
:2032A00021F04071114A0C321160111F096861F04071121F11600E49098821F040010C4A6D
:2032C0001180111F098821F04001121F118040F6143111801146098841F040011180044944
:2032E00008310888704700003038024000040240043800403C48006840F004003A490860D7
:203300003A48006840F003003849086037480C30006820F0030035490C310860334800686B
:2033200040F00C003149086030480C30006820F00C002E490C3108602B481430006840F4C8
:2033400080702949143108602948006840F440302849C1F8040340F6013088604FF03F00E3
:2033600008610846C06A20F47000C8620846C06A40F48010C8624FF4B57048631E48006877
:2033800020F001001C49086000E000BF1A48006810F0010FF9D11848006820F06060164915
:2033A00008600846006840F45060086011484C301149083108601148091D086002200E4973
:2033C000091D08600B48406840F41060094948600948006840F00100074908607047014626
:2033E000064830F8110070473038024000080240042301400020014070640240900100200B
:2034000030B56C48006840F004006A49086069481030006840F40040664910310860664889
:20342000006820F08070644908600846006840F000700860081D006820F48050091D086052
:203440005D480C30006820F040705B490C310860081F006860F04070091F08605648406AB3
:2034600020F4702040F4C02153484162006820F48010514908600846006840F400100860E5
:20348000081D006820F48060091D08604A480C30006820F4401048490C310860081F0068BE
:2034A00060F44010091F08604348406A20F4706040F4C06140484162006820F480003E49BC
:2034C00008600846006840F4000008603A480C30006840F4800038490C310860084600687C
:2034E00020F4000008603448406A20F4704040F4C041314841622F48006840F001002D498F
:2035000008604FF400402D4988610846006840F0804008600846006820F000400860084697
:20352000406820F4004048600846C06820F04040C8600846806860F04040886020480088DB
:2035400020F040001E490880081F008820F04000091F088040F6143008800846008840F075
:2035600040000880081D008840F04000091D088033200121002807DA0B071D0E114B00F0B1
:203580000F04241F1D5503E00B071C0E0E4B1C5400BF332000F01F030121994043094FF0D1
:2035A000E02404EB8303C3F8001100BF04480830028830BD303802400008024000000240D6
:2035C000043C004018ED00E000E400E02DE9F04707460D464FF00008FEF734FF804600BFE1
:2035E000FEF730FF81464146FEF730FFA84201DD012000E000200646384600F0D9F9044676
:203600000EB9002CECD016B10120BDE8F0870220FBE72DE9F05F83460E46174698464FF0F7
:20362000010A5C46F019B0F5005F02D30120BDE8F09F0FB90020FAE7012000F0E2F900F001
:20364000CAF903219148FFF7C1FF022801D00220EDE7A02000F0D1F903218D48FFF7B6FFE5
:20366000022801D00220E2E7C6F3072000F0DDF903218748801CFFF7A9FF022801D0022074
:20368000D5E7F0B200F0D1F903218148801CFFF79DFF022801D00220C9E7012000F0B1F96F
:2036A00000F099F903217948FFF790FF022801D00220BCE7A12000F0A0F903217348401CD9
:2036C000FFF784FF022801D00220B0E74FF000091EE003216D483F30FFF778FF022801D0C7
:2036E0000220A4E700F0A5F90546B8F1000F02D104F8015B0AE0BAF1000F05D014F8011BC0
:20370000A94201D1012000E00020824609F10109781E4845DDD8002000F073F903215B48E4
:203720003F30FFF753FF022801D002207FE700F05BF900F07EF90546B8F1000F02D104F8D2
:20374000015B0AE0BAF1000F05D014F8011BA94201D1012000E000208246BAF1010F01D03A
:20376000012064E7002062E72DE9F84F81460D461646A819B0F5005F02D30220BDE8F88FB9
:203780000EB90120FAE7C8462C4674E004F01F07AC4200D087BB012000F033F900F01BF931
:2037A00003213A48FFF712FF022801D01E20E5E7A02000F022F903213548FFF707FF0228C5
:2037C00001D01F20DAE7C4F3072000F02EF903212F48801CFFF7FAFE022801D02020CDE70F
:2037E000E0B200F022F903212948801CFFF7EEFE022802D02120C1E7FFE718F8010B00F042
:2038000014F903212248801CFFF7E0FE022801D02220B3E71F2F03D0A819401EA04229D1AA
:2038200000F0E2F8FEF70EFE834600BF00F0D3F803211648FFF7CAFE022801D023209DE778
:20384000A02000F0DAF802211148FFF7BFFE022800D10EE0FEF7F6FD59460090FEF7F6FDCF
:20386000142801DD012000E000208246BAF1000FDCD000BF641CA819A04287D8BAF1000FE4
:2038800001D101207AE7242078E7000001000300820007006948006840F00500674908603E
:2038A00066481030006840F4000064491031086062481038006840F4000060491039086040
:2038C0000846006820F4000008605D48406A20F00F00001D5A4948620846406840F48070C4
:2038E00048600846C06820F44030C8600846806860F4403088600846006820F4803008603A
:203900000846006840F4003008604E48406A20F0F00040F040014B484162001D006840F485
:2039200000704849091D086046480C30006820F4402044490C310860081F006860F44020DD
:20394000091F08603F48006820F480203D4908600846006840F4002008603B48008820F0B9
:203960003F0040F02A0038490880081F008820F00100091F08804FF48C70334918310880A9
:203980002B20091D08803048001F008840F480602D49091F0880EE202B49091D08802A4833
:2039A000001F008840F001002749091F0880704710B50146244810300388001D048843EA3F
:2039C000044020F07F4202EA0100884201D1012010BD0020FCE71C48001F008840F4807029
:2039E0001949091F088070471748001F008840F400701549091F0880704713490C3108806E
:203A00007047012808D11049091F098841F480610D4A121F118007E00B49091F098821F4A3
:203A20008061094A121F1180704707490C310880704705480C300088C0B270473038024029
:203A40000000024000080240045C004010B58448006840F00100824C20608148143000684D
:203A600040F480507E4C143420607E48006820F480407C4C20602046006840F400402060A4
:203A80002046406820F0800060602046C06820F44040E0602046806840F44040A0602046FE
:203AA000006A20F0704040F0A04020622046006820F4806020602046006840F40060206026
:203AC0002046406820F0200060602046C06820F44060E0602020A0612046806840F4406003
:203AE000A0602046006A20F4700040F4A00020625B48006840F00100594C20601020594CE6
:203B0000A0612046006840F4807020602046006820F4007020602046406820F01000606072
:203B20002046C06820F44070E0602046806840F44070A0604C48808820F040004A4CA0801F
:203B40002046008820F0400020800524B4FA84F4C4F12001481E382404EAC00343F4417007
:203B6000414C20802046808840F00200A0803C48006840F480003A4C20603C48006820F0B6
:203B800001003A4C206000E000BF3848006810F0010FF9D14FF40060344C7C3C20603348E7
:203BA000006820F06060314C20602046006840F0C06020602046006840F48060206020466A
:203BC000006840F04000206027480C30274C083420600020241F20602348008840F040006D
:203BE000214C20802046828901208840204CB4FBF0F010BD08B1102101E04FF48011194A94
:203C000091617047194A126822F00102174B1A6000E000BF154A126812F0010FF9D1134A7C
:203C20000C321060114A121D1160D2140F4B7C3B1A600E4A126842F001020C4B1A607047DB
:203C40000A488438006810F4006F06D00648008910F0800F01D1012070470020FCE7000092
:203C60003038024000000240003001408864024000BD0105002100205B4A126842F48032AE
:203C8000594B1A6000BF584A126802F40030491C10B9B1F5705FF6D1534A1268C2F340404F
:203CA000002873D0504A4032126842F080524E4B40331A604D4A126842F480424B4B1A6070
:203CC00040F205624A4B1A60474A08321268464B08331A601A46126842F400421A601A4685
:203CE000126842F4A0521A601A46126822F4F81242F440221A601A46126822F060521A6084
:203D00001A46126842F000521A601A46126822F040421A601A46126842F080421A60354A1C
:203D20001B1F1A601A1F126842F080721B1F1A6000E000BF2C4A126812F0007FF9D02A4AF7
:203D40000832126822F00302274B08331A601A46126842F002021A6000E000BF224A0832A2
:203D6000126802F00C02082AF7D1234A1E4B84331A601D4A126842F080621B4B1A6000E013
:203D800000BF194A126812F0006FF9D0704710B51A48006840F470001849086012480068D8
:203DA00040F001001049086000200F49083108600D480068124908400B4908601148091D5D
:203DC0000860081F006820F48020091F0860002005490C310860FFF74DFF4FF00060074964
:203DE0008039086010BD00000038024000700040003C02400C5440070036004088ED00E0BB
:203E0000FFFFF6FE1030002410B502460B46002107E0FD4C04EB01142468944200D102E084
:203E2000491C0A29F5D900BF23B1012B07D0022B0FD109E0F44C04EB0114606809E0F24C5D
:203E400004EB0114A06804E0EF4C04EB0114E06800BF00BF10BD70B504460025EB48006871
:203E600006284ED2DFE800F0030E4D203A3F012C07D10120E54908602025FEF7E3FAE44946
:203E800008803EE0FEF7DEFA0646E14801883046FEF7DCFAC82806D9012C01D1032000E09F
:203EA0000020DA4908602CE0012C0FD1FEF7CAFA0646D74801883046FEF7C8FAB0F57A7FC6
:203EC0000BD90420D1490860102506E00520CF490860FEF7B7FACF49088012E014B905206E
:203EE000CA4908600DE0FEF7ADFA0646C94801883046FEF7ABFAC82802D90020C349086069
:203F000000BF00BF284670BD2DE9F0472DED028B80460D4691461E46BF48006DBF49496813
:203F2000884205DABC48006D401CBB49086528E0B948006DB949496888420ED1B7498868D8
:203F400000F027FFB448006D401CB3490865B4480068BDEC028BBDE8F087B8F1000F06D1D8
:203F6000281E01DB014600E04142192909DDAB49086800F00EFF0020A7490865A848006817
:203F8000E7E7A8480068A6490860A648006890B1A448006809280ED0FEF754FA8246A248B5
:203FA00001885046FEF752FA41F28831884202D900209C490860B9F1010F06D199480068C9
:203FC000092802D0092097490860192D01DD012000E0002015F1190F01DA012100E00021FC
:203FE000441AFEF72FFA82468F4801885046FEF72DFAB0F5FA7F00DA0024B8F1000F00D1C6
:020000040800F2
:204000001CB1FEF71FFA88490880012C07D1002184480068FFF7F8FE824908603DE0601C5A
:2040200007D101217F480068FFF7EEFE7D49086033E018F0200F07D002217A480068FFF7E3
:20404000E3FE7849086028E0B8F1100F25D177A0FDF7C2FF05F054F87049086800F099FED3
:20406000002005F0D6F81F237F220021084605F0DFF804F0FFFE714802F0CEFF4FF4207003
:2040800005F080F8012005F0C4F87F231A462021002005F0CDF804F0EDFE62480068401F74
:2040A000052836D2DFE800F00336A2E2EA0000EE105AB8EEC00ADFED620A20EE208ABDEE0A
:2040C000C80A10EE100A20B300EE105AB8EEC00ADFED5B0A20EE200AB0EE408A4F48BDEE48
:2040E000C80A016810EE100A08444C49086008460068002802DA0020086006E04748006805
:20410000642802DD642045490860306840F004003060BAE0002C68D04FF4167004FB00F7A1
:204120003E4840686FF00041884205D1002F03DA44483A4948604AE03848406838444149F6
:20414000884204DD6FF00040344948603FE033484068384448F6A041884211DD2F4840683C
:20416000491090FBF1F201FB12012C48426840F26540604302EB0010401A2849486026E05B
:2041800026484068384441F27071884210DD2348406890FBF1F201FB12012048426840F2EE
:2041A0007710604302EB0010401A1C4948600EE01A4840683844002809DD18484068C4EB38
:2041C000041101EB810100EBC10014494860134840684FF4167190FBF1FA51461AA0FDF723
:2041E000FBFE306840F0040030604EE05CB10A48008F2044084908870846008F01282DDAFD
:204200000420088731E030E0940100203C020020380200203A0200202421002064200020F8
:204220004802002044020020400200200D0A4C6F6E672070726573732E0D0A0014D900081E
:20424000CDCC4C3D006504000D0A54696D656F7574203D202564206D696E0000FE48008F96
:20426000042802DD0120FC4908870EE0306840F0010030600020F949086006E0B9F1000F8E
:2042800002D10020F549086000BF00BFF3480068F349096888420BD0F049096811B9F14964
:2042A000096802E0EF490968491C084600F071FDEA4800684DE603468B4205DD934201DA7C
:2042C000184670471046FCE70846FAE7F0EE401AF4EEE01AF1EE10FA0ADDF4EEC11AF1EEE1
:2042E00010FA02D2B0EE610A7047B0EE410AFBE7B0EE600AF8E7F0B52DED0A8B8DB0044693
:204300000A2C7CD2DFE804F005AFC0CEDFF1EFEE7BEDD148B0F9180000EE900AF8EEE00AD5
:204320009FEDD11A60EE810AB0EE600A9FEDCF1ADFEDCF0AFFF7CAFFB0EE409AC648B0F91D
:204340001A0000EE900AF8EEE00A9FEDC71A60EE810AB0EE600A9FEDC51ADFEDC50AFFF7A1
:20436000B5FFF0EE409ABC48B0F9200000EE900AF8EEE00A9FEDBC1A60EE810AB0EE600A69
:204380009FEDBA1ADFEDBA0AFFF7A0FFB0EE40AAB148B0F9220000EE900AF8EEE00A9FED68
:2043A000B21A60EE810AB0EE600A9FEDB01ADFEDB00AFFF78BFFF0EE408AA748C08E0128E6
:2043C00001D14D250AE0A448C08E022801D14F2504E0A148C08E032800D143251AEE100A64
:2043E00008F0E2F941EC100BB0EE40BAF0EE60BA19EE100A08F0D8F941EC100B00E0F7E029
:20440000B0EE40CAF0EE60CA02958DED00BB53EC1C2B98A19C4806F06BF818EE900A08F08C
:20442000C3F941EC100BB0EE40BAF0EE60BA19EE900A08F0B9F941EC100BB0EE40CAF0EECF
:2044400060CA8548808E042801D1412000E0202002908DED00BB53EC1C2B8CA18A48283034
:2044600006F046F8D7E0002004F0D3FE8CA290480168854806F03CF88EA28D4801688248CE
:20448000283006F035F8C6E085A2894801687E4806F02EF88AA2864801687B48283006F044
:2044A00027F8B8E0002004F0B4FE7DA280480168754806F01DF886A27D48016872482830FF
:2044C00006F016F8A7E076A2794801686E4806F00FF883A2764801686B48283006F008F80F
:2044E00099E07BE04AE022E0FFE7002004F091FE5C480068632802DC5A48006800E0632051
:2045000002467BA103A805F0F3FF03AA684801685D4805F0EDFF7AA2654801685A4828302D
:2045200005F0E6FF4F49086800F033FC73E04D4840686FF00041884204D174A103A805F0F6
:20454000D7FF0AE0474840684FF4167190FBF1F73A4672A103A805F0CBFF03AA5448016878
:20456000494805F0C5FF66A2514801684648283005F0BEFF0020384908654CE03648008F08
:20458000012806D002280BD0032810D004281CD114E066A2464801683B4805F0A9FF14E0EC
:2045A00064A243480168384805F0A2FF0DE064A23F480168344805F09BFF06E063A23C488E
:2045C0000168314805F094FF00BF00BF63A2384801682D48283005F08BFF1CE062A12A4848
:2045E00005F086FF64A12848283005F081FF12E066A22F480168244805F07AFF224668A1DA
:2046000003A805F075FF03AA294801681E48283005F06EFF00BF00BF002004F0FAFD0E49FF
:20462000B1F8541088B202F013FA0021084602F089FD154804F004FC0121002002F082FD49
:204640001148283004F0FCFB012004F0E2FD002002F0FEF9534AA7E02421002044020020D2
:204660004802002064200020E7FB9F390AD71F410AD71FC15820252B312E326620252B3110
:204680002E32662025630000581E00205920252B312E326620252B312E3266202563000047
:2046A0004D656E75206F7074696F6E73000000003402002055736520776865656C00000081
:2046C0003120436F6E74726F6C206D6F6465000032204272696768746E6573730000000078
:2046E0003320446973702E54696D656F757400004272696768746E657373203D20256400A3
:204700008220746F2061646A7573740054696D656F75743A206E6576657200004166746588
:2047200072202564206D696E000000004D6F6E69746F72004F70656E206C6F6F70000000A6
:20474000436C6F736564206C6F6F70004175746F204F70656E2F436C6F7365008220746F30
:204760002073656C65637400536176696E6720706172616D73202600706F776572696E67DC
:2047800020646F776E2E2E2E00000000556E68616E646C65642073746174653A00000000A9
:2047A000256400005002002012882F3211B2A84A12882F3210B20023052202F086FFA549E2
:2047C000B1F8541088B202F043F92F21052003F009F82F215A2003F0B5F805212F2003F029
:2047E00001F85A212F2003F0ADF85A231A460521084603F0AAF944231A461A21084603F034
:20480000A4F9944890ED058AB2EE040AB4EEC08AF1EE10FA03D2B2EE040AB0EE408A8D48D0
:2048200090ED020ADFED8C0A20EE200AC0EE080A10EE907A384607F0E2FF85490860854834
:2048400090ED030ADFED840A20EE200AC0EE080A10EE907A384607F0D2FF804908602A22B1
:2048600051427B480068FFF726FD794908602A2251427A480068FFF71EFD784908600A46A4
:2048800012882F3211B2724A12882F3210B20023052202F01AFF012004F074FC6D48C08B07
:2048A00000EB001000EB8000060C532E00D9532602200021CDE90010C6F15800C1B25A23A5
:2048C0007322642003F060FC002004F05BFC02200021CDE90010C6F15800C3B272220521BE
:2048E000652003F051FC00200DB0BDEC0A8BF0BD0FB470B5BEB0044644A83D9015A83D9A3E
:20490000439905F0E3FD15AA55A115A805F0F0FD29AB33AA53A115A805F0B8FF33AA55480A
:2049200001680BA805F0E4FD29AA5248016801A805F0DEFD00203D9004F06BFC04F09AFA66
:204940000021084602F0FEFB4FF4784002F080F80BA804F075FA0121002002F0F3FB01A8B7
:2049600004F06EFAFDF76EFD054601E001F07AFFFDF768FD06462946FDF768FDA042F5DBC7
:204980003EB070BC5DF814FB0FB470B5BEB0044644A83D9015A83D9A439905F097FD15AA88
:2049A0002FA115A805F0A4FD29AB33AA2DA115A805F06CFF33AA2F4801680BA805F098FD3E
:2049C00029AA2C48016801A805F092FD00203D9004F01FFC04F04EFA4FF4784002F038F8A5
:2049E000254B00221146104603F064FB012004F010FC224802F010FB0021084602F0A2FBA0
:204A00000BA804F01DFA0121002002F09BFB01A804F016FAFDF716FD054600E000BFFDF77C
:204A200011FD06462946FDF711FDA042F6DB002004F0EFFB114802F0EFFA04F01BFA01209C
:204A400004F0E7FB04F016FA3EB070BC5DF814FB4C020020242100200000AA4250020020CD
:204A600025730A00255B5E0A5D0A255B5E0A5D0A00000000340200205CDA000814D900086D
:204A800010B500204A4908604860C8608860322008619FED480A484880ED030A9FED470AFE
:204AA00080ED040A9FED460A80ED050AB7EE000A80ED060A9FED430A80ED080AB1EE040AF2
:204AC00080ED090A00203C4988629FED3F0A084680ED070A0020C86214223C493648303043
:204AE00006F06BF83C20344908606FF000404860022088608003A1F84800401EA1F84A0026
:204B0000401CA1F84C00401EA1F84E000120A1F84400A1F84600B7EE000A084680ED140AAA
:204B2000B7EE000A80ED150A41F6991088654EF26560086640F24710886601200867886704
:204B400041F699111C48C1654EF26561416640F24711C16601214167C1673C201649086077
:204B600000201B49C86602208886C886088700208884C88447F6FF7016490860486040F6AD
:204B8000CC4088609FED140A084680ED030A9FED120A80ED040A9FED110A80ED050A002049
:204BA0000B49086508844884C863086610BD0000E4210020CDCCCC3D64200020CDCC4C3EE8
:204BC0009A99993E0000964300007A44A8C80008242100200C210020E4388E3FCDCC8C3FBD
:204BE00008B1802101E04FF40001FE4A1160704708B1402101E04FF48001FA4A116070479B
:204C00000E293CD2DFE801F00708093B3B3B3B3B3B3B2021222300BF00BF48B9F24A126827
:204C200022F00C02F04B1A600422EE4B1A600AE0012808D1ED4A126822F00C02EB4B1A6059
:204C4000C203E84B1A601AE000BF00BF00BF50B94FF48022E34B1A60E34A126842F0040236
:204C6000E14B1A600AE0012808D1C207DD4B1A60DE4A126842F00402DC4B1A6000BF00BF3E
:204C80007047024600200A2906D00B290DD00C290ED00D2912D10EE012B940F4804003E01F
:204CA000012A01D140F4004008E040F0030005E040F0100002E040F0130000BF00BF7047E9
:204CC0000146002029B9C84A10321268C2F3400005E0012903D1C54A1269C2F340007047AF
:204CE00040B909B1022201E04FF40032BE4B18331A6008E0012806D109B1022201E04FF4CF
:204D00000032BA4B9A6170472DE9F04781460D4617464FF0000AB9F1000F03D0B9F1010F57
:204D20000BD103E0B24BB34CB34E09E0B04B1B1DB04C241DB04E361D02E00020BDE8F087EF
:204D400000BF3068A84203D06FF00100206018603560022D15D1186820604846FFF7B0FF0A
:204D6000186018682168A0EB0108012F02D1B8F1010F04D0022F03D118F1010000D1AA46BE
:204D800004E06FF001002060186000BF00BF5046D4E710B52DED028B0446642C00DD64245D
:204DA000002C12DD00EE104AB8EEC00ADFED930A20EE208A9FED921ADFED920A48EE010A1E
:204DC000B0EE600AFDF758FC03E09FED8F0AFDF753FCBDEC028B10BD10B501F060FCC00162
:204DE000192190FBF1F404F3070010BD70B504460025062C7ED2DFE804F0031E446282B272
:204E00007948006840F00400774908600846006820F0080008607D48008820F480707B49C2
:204E200008801020704918310860C00308600020FDF769FCBFE06C48006840F004006A490A
:204E400008600846006820F0080008606F48008820F488506D4908806C482038008820F0A7
:204E600001006A492039088010205F4918310860C003086040105D498861082059490860D8
:204E800099E05948006840F00400574908600846006820F0080008600820534918310860A9
:204EA0004004086004205149886108204D4908605648008840F48070544908807BE04A481D
:204EC000006840F00400484908600846006820F0080008604D48008820F480704B490880CA
:204EE0001020414918310860C003086004203F49886100E05DE008203A4908605BE04FF4D9
:204F000080203849086037481838006840F010003449183908600846006820F0200008600D
:204F20003148006820F004002F4908600846006840F0080008604FF480102B49183108604E
:204F4000082008600420294988610820254908602E48008840F488502C4908802BE02248C8
:204F6000006840F00400204908600846006820F0080008601D48006820F00C001B490860D9
:204F800004201849086017481838006840F010001449183908600846006820F02000086069
:204FA0001020114918310860C00308600D49086001E0012500BF00BF284670BD10B50020C8
:204FC000FEF70DFA00EE100AB8EE400ADFED100A20EE200ADFED0F0AB4EEE00AF1EE10FA65
:204FE00028D219E0180802400004024000000240A8020020B0020020B80200200AD7233C1E
:205000005D74513F8C2E3A3E0000000020040040333353383333F33F1048007810F0010F30
:2050200008D10FA0FCF7D8FF0C48006840F001000A4908600948006810BD044621460FA090
:20504000FCF7CAFF224614A14FF6FF70FFF750FC03E0FDF743F801F005FCFAE7C0020020BA
:205060000D0A4C6F7373206F6620565245462F2B313556207261696C0D0A00000D0A556E61
:205080007265636F76657261626C65206572726F723A2025730000004572726F720A2531E0
:2050A000362E31367300000010B52DED0A8B86B00446B0EE40AAF0EE608A9FED660A2AEE5A
:2050C000000ADFED650A80EE201AB0EE41CAB0EE4C0A07F0D3F9F7EE000A80EE801AB0EEEE
:2050E000418AB7EE000A08EE080AB0EE409A88EE280A30EE090AF0EE409A89EE290AF0EE9D
:2051000040AAB0EE000A68EE000AB0EE000A00EEC80AC0EE290AB0EE60BA88EE280A39EECD
:20512000400AC0EE290AF0EE60BACDED01AA8DED02BACDED03AAB1EE4B0A8DED040AB1EE2F
:205140006B0A8DED050A142201A9204605F035FD06B0BDEC0A8B10BD10B52DED088B86B07B
:205160000446F0EE409A9FED3B0A29EE800ADFED3A0A80EE201AF0EE41BAB0EE6B0A07F020
:205180007DF9F7EE000A80EE801AB0EE418AB7EE000A08EE080AB0EE40AADFED300A88EE7E
:2051A000200A30EE0A0AB0EE409AB7EE000AC0EE090AF0EE608AB0EE000A68EE000AB0EE3D
:2051C000000A00EEC80AC0EE090AF0EE60AADFED230A88EE200A3AEE400AC0EE090AB0EEF2
:2051E00060BACDED018AB0EE000A28EE800A8DED020ACDED038AB1EE6A0A8DED040AB1EE01
:205200004B0A8DED050A142201A9204605F0D5FC06B0BDEC088B10BD10B52DED048BB0EED9
:20522000408A9FED0F0A28EE000ADFED0B0A80EE201AB0EE419AB0EE490A07F027F8F7EEF1
:20524000000A30EEC00AF0EE408AB0EE680ABDEC048B10BDDB0F494000409C46F304353F9F
:20526000DB0FC9C02DE9F0410020F749086048608860F649086048608860F548006840F010
:205280000200F3490860F348006820F48020F14908600846006840F400200860081D006870
:2052A00020F40070091D0860EA480C30006820F44020E8490C310860081F006840F4402099
:2052C000091F0860E348406A20F0F00040F09001E0484162006820F48030DE4908600846D4
:2052E000006840F400300860DA480C30006820F44030D8490C310860D648406A20F00F0083
:2053000040F00901D3484162D1481030006840F00070CF4910310860CD481038006840F07E
:205320000070CB491039086000E000BFC8481038006810F0007FF8D0C5481038006820F0C5
:205340000070C349103908600120C34908600320C149143108602A241520B4FBF0F8B4FBE8
:20536000F0F100FB114010B10120BDE8F0810E25681CC0F11506771E0FB90120F5E7B6482D
:205380001C300068B5490840B3491C310860781E4FF0407101EA0060711E4FF4E00202EAF1
:2053A00001510843691E4FF4702202EA01410843A8F10101C1F309010843A7491C31096829
:2053C0000843A5491C310860132000F051FA142000F04EFA0020C8E79F491C31096821F07F
:2053E00040419D4A1C3211601146096800F040421143994A1C32116070479748006820F048
:2054000001009549086000E000BF9348006810F0010FF9D100E000BF8F480830006810F073
:20542000806FF8D0704730B502460B4600218C4800880D2801DD012030BD0BB9012000E01D
:20544000002018B1002040EA425001E0D000001D01438448006840F00100824C20608148F9
:205460001C3000687E4C25780124AC40A0437D4C1C3420607B480C300068794C2578012496
:20548000AC402043774C0C3420607648001D0068734C25780124AC402043724C241D2060A8
:2054A000704840306E4C248840F834106C4C248800EBC40041606B4814300068684C25787E
:2054C0000124AC40A043674C1434206065481C300068634C25780124AC402043614C1C343F
:2054E00020606048006820F001005E4C20605C480088401C5A4C208000209DE710B5024662
:205500000B4600210BB9012000E0002018B1002040EA425001E0D000001D0143514800687C
:2055200040F001004F4C20604E481C30006820F001004C4C1C3420604A480C30006840F0F6
:205540000100484C0C3420604648001D006840F00100444C241D206042484030016000F115
:20556000040001604048006820F001003E4C20603E48006840F001003C4C206039480068AB
:2055800020F00100374C20604FF0000010BD32490C31096811F0030F48D02B494A684968C0
:2055A000491C294B596003F10C0101EB02102D495039096811F0040F0AD1002141732949B4
:2055C0005039096840F2FF7202EA5151016008E001214173234950390968254A02EAD101EE
:2055E0000160204950390968C1F3400181732149096801F00F0101731F49096841601F49CC
:205600000A68826010494968082902D100210E4A51600D490968491C0B4A11600E490C3178
:20562000096841F020010C4A0C32116070470A491431096821F00201074A1432116002497B
:205640000968E9B9002031E0F82100208422002030380240000402400064004000FC80FCFB
:20566000C802002000660040146600401C660040FFFF0300B4650040B8650040BC65004006
:2056800081498A688968491C7F4B996003F10C0101EB02100C398968082902D100211A467B
:2056A000916079490968491E774A11607749096841F00201754A1160704774490C3909686E
:2056C00011F0010F5BD07149096821F001016F4A11606F490968002951D06D498A6889681A
:2056E000491C6B4B996003F10C0101EB02100021684A116011460A68417B21B90188002348
:2057000043EA415102E00168C900091D0A4361490A600968827B0AB9002200E00222114384
:205720005C4A11605C4942680A6001F1040182680A605A49096821F00F0258490A6009689C
:20574000027B02F00F0241EA0201544A11604F49096841F001014D4A11604E49096841F00F
:2057600001014C4A11604A498968082902D10021474A916046490968491E454A11607047D7
:2057800070B50146414A126822F001023F4B1A603F4A1268082A01D3012019E03C4A53681B
:2057A0005268521C3A4C626004F10C0202EB031391E8740074C3364A5268082A02D10022EE
:2057C000334B5A60324A1268521C314B1A6000202E4A126842F001022C4B1A60304A12680B
:2057E000012A08D12B4A126842F00102294B1A6000222B4B1A6070BD2448006820F001006F
:205800002249086000BF21480C38006840F080001E490C3908600846006810F0800FF2D115
:205820000846006820F0010008601848001D00681C4908401549091D0860002014490860D6
:2058400048608860012016490860132001218140154A430942F8231000BF0C48006840F0F7
:2058600001000A49086070470848001D0068704700F01F020121914042094FF0E02303EBAA
:205880008202C2F800117047F82100201464004084220020806500408865004084650040D0
:2058A000C40200208CFF00FF80E200E07CB5FC480078C0F3400090B1FA480568F9482838C5
:2058C0000468001D066801940095019800F07F03C0F30622C0F30541F3A0FCF77DFBF04892
:2058E0000078C0F3800020B1F848416CF8A0FCF773FB7CBD10B5FCF7A5FD0446F8480188A0
:205900002046FCF7A3FDB0F5FA7F10D9FCF79AFDF3490880F348006808B9012000E00020B4
:20592000F04908600846006808B1FFF7BFFF10BD2DE9F04F2DED048B9FB0804600201C90F7
:205940001D901E9014271CAAE7A1404604F09EFF00240AE0E54800EB041041681CA805F0B0
:205960005FF908B9274602E0641C142CF2DD00BF142F6ED2DFE807F00A597895C9E0F4F231
:20598000F1F0EFEEEDECEBEAE9E8E7E619AAD8A1404604F07BFFD8A119A805F041F938B973
:2059A000BF48006820F00100401CBD4908603BE0D2A119A805F034F938B9B948006820F0C2
:2059C0000200801CB64908602EE0CDA119A805F027F938B9B248006820F00400001DB049F3
:2059E000086021E0C7A119A805F01AF938B9AC48006820F008000830A949086014E0A84832
:205A0000006820F00100A64908600846006820F0020008600846006820F004000860084606
:205A2000006820F00800086084E218AAB6A1404604F02CFF9A4918984860189820B1012875
:205A400006D002280ED109E0B1A0FCF7C5FA09E000E0C0E3B4A0FCF7BFFA03E0C0A0FCF7D9
:205A6000BBFA00BF00BFDFE718AAA7A1404604F00DFF8B4918988860189820B1012806D0B1
:205A800002280CD107E0BDA0FCF7A6FA07E0C1A0FCF7A2FA03E0CDA0FCF79EFA00BF00BFF8
:205AA000E5E30020FDF79BFC00EE100AB8EE400ADFEDCD0A20EE200A10EE109A484606F074
:205AC00073FE41EC100BB0EE408AF0EE608A0120FDF785FC00EE100AB8EE400ADFEDC20AB7
:205AE00020EE200A10EE109A484606F05DFE41EC100BB0EE409AF0EE609A8DED008B53EC0B
:205B0000192BBAA0FCF768FAB1E318AA7EA1404604F0BCFE189909B1012100E0002108460D
:205B2000FCF740FA189808B1BBA000E0BBA00146BBA0FCF751FA9AE3FFF75FFCBFA0FCF739
:205B40004BFA94E346E31FE311E3EAE2CDE2B9E218E2F0E17EE064E05DE046E032E0FFE78C
:205B600019AA63A1404604F091FE5848B0F87000C0F30A00B649086019A804F0BAFFB4490E
:205B80000873002405E019A8015DB148001D0155641C19A804F0ADFFA042F4D80020AC4952
:205BA000487388730846FFF7EBFD0020A949086019A804F09EFF81464A4619A9A6A0FCF7E5
:205BC0000BFA54E318AA50A1404604F05FFE1898C0F30A003D4908670846B0F87000C0F384
:205BE0000A01A6A0FCF7F8F941E318AA46A1404604F04CFE1898C0F30A0534484567002124
:205C00002846FFF77BFC31482A46D0F89410A1A0FCF7E2F92BE3FFF7EFFDABA0FCF7DCF942
:205C200025E318AA38A1404604F030FE1898012803D10005A949086002E01020A7490860A3
:205C4000189808B9A6A000E0A7A00146A8A0FCF7C3F90CE316A817AB18AAAEA10090404692
:205C600004F014FE032819D11899159861F3154015901799159861F30E201590DDE91501FD
:205C800061F3060015901598FCF753FE159800F07F03C0F30622C0F3054141E143E10000DB
:205CA00010230020282800400D0A53796E63682054696D65203D20253032583A25303258C1
:205CC0003A253032582E256400000000242100200D0A4A6F79737469636B203D2025640022
:205CE000D4020020D002002025397300BCC80008252A7325387300006164630073740000BE
:205D00006A73000074726A00252A7325640000000D0A415054205278206D6F6E69746F72FD
:205D2000206F66660D0A00000D0A415054205278206D6F6E69746F72206F6E2C2053746172
:205D400074757341636B732077696C6C206E6F74206265207072696E7465640D0A00000008
:205D60000D0A415054205278206D6F6E69746F72206973206F6E0D0A000000000D0A41505D
:205D800054205478206D6F6E69746F72206F66660D0A00000D0A415054205478206D6F6ED7
:205DA00069746F72206F6E2C20537461747573557064732077696C6C206E6F74206265206C
:205DC0007072696E7465640D0A0000000D0A415054205478206D6F6E69746F72206973208A
:205DE0006F6E0D0A00000000333353380D0A414443206368616E6E656C733A2053554D2004
:205E00003D20252E3266562C20524546203D20252E3266560D0A00006F6E00006F666600CE
:205E20000D0A43414E207465726D696E6174696F6E2069732025730D0A0000000D0A434149
:205E40004E20737461727465642E0D0A000000006C230020CC0200200D0A43414E206D7312
:205E6000672073656E743A20222573222C2025642062797465732E0D0A0000000D0A4341AF
:205E80004E2049442073657420746F2025640D0A000000000D0A43414E2052782066696CAA
:205EA000746572206E756D6265722025642C20776974682076616C7565202564206164640E
:205EC00065642E0D0A0000000D0A43414E2073746F707065642E0D0A000000001804024009
:205EE000696E7075740000006F757470757400000D0A53796E63682070696E2069732073AF
:205F0000657420746F20626520616E2025730D0A00000000252A7325582025582025580087
:205F2000EEA0FCF759F8F648006820F00200801CF34908609BE116A817AB18AAAFF22C010B
:205F40000090404604F0A2FC1899159861F3154015901799159861F30E201590DDE915018D
:205F600061F30600159000211598FCF709FD159800F07F03C0F30622C0F30541E1A0FCF7F4
:205F80002BF874E118AAAFF28021404604F07EFCE5480468E448283800681690E2482438D8
:205FA0000068169815901598C0F303401599C1F3015101EB810100EB410017901598C0F32E
:205FC00003201599C1F3023101EB810100EB41001690159800F00F001599C1F3021101EBBC
:205FE000810100EB41064FF46161179848431699C1EB011100EB81003044189908441890BC
:020000040800F2
:20600000CA49189890FBF1F201FB120018904FF46161189890FBF1F017900A21179890FB6C
:20602000F1F1159861F3155015900A21179890FBF1F201FB1201159861F3134015904FF4E0
:206040006161189890FBF1F201FB120017903C21179890FBF1F01690179890FBF1F201FB74
:2060600012060A21169890FBF1F1159861F30E3015900A21169890FBF1F201FB12011598DB
:2060800061F30B2015900A2096FBF0F1159861F3061015900A2096FBF0F100FB11611598CE
:2060A00061F30300159021461598FCF769FC159800F07F03C0F30622C0F3054191A0FBF762
:2060C0008BFFD4E018AAAFF2C031404604F0DEFB1898FCF7B0FB189808B195A000E096A0D9
:2060E000014697A0FBF778FFC1E018AAAFF2E831404604F0CBFB1898FEF778FE50B9964959
:206100001898C1F8A8000846D0F8A81093A0FBF763FF05E09048D0F8A81097A0FBF75CFF58
:20612000A5E016A817AB18AAAFF218210090404604F0ACFB1899159861F3154015901799B1
:20614000159861F30E201590DDE9150161F3060015901598FCF7E8FB159800F07F03C0F33B
:206160000622C0F3054190A0FBF736FF7FE09848006810F0040F02D196A0FBF72DFF4FF483
:2061800080209E49086072E018AAAFF28441404604F07CFB189800F00100C0EB0029189880
:2061A000C0F34000C0EB002A1898C0F38000C0EB002B09F0F80000020AF0FC0140EAC10089
:2061C000CBF3C4010843644948658DA01899FBF703FF4CE04BE04A48006820F001004849D2
:2061E00008600846006820F0020008600846006820F0040008600846006820F0080008609F
:206200000846006820F01000086000204860886083A0FBF7E1FE002423E0844800EB0410AA
:206220008068007840B9814800EB041080A1426801A804F05DF90BE07C4800EB04108368E6
:206240007A4800EB04107BA1426801A804F050F9764800EB041001A9C26878A0FBF7BCFE7C
:20626000641C142CD9DB78A0FBF7B6FE00BF00BF1FB0BDEC048BBDE8F08F10B54F21734853
:20628000FBF7CBFE044654B104E000222046641C6E490A544F2CF8DD6C48FFF749FBFBF7C3
:2062A0001DFF10BDFEB5FFF7E8FFFFF723FBFFF7BEF9050010D0002404E0281D005D0DF810
:2062C0000400641C287BA042F7DC0021601C0DF800102A7B6B46BBE0BEE000000D0A5254E4
:2062E000432074696D652073657420746F20253032583A253032583A2530325800000000EC
:20630000102300200D0A52544320616C61726D2073657420746F20253032583A2530325876
:206320003A2530325800000028280040805101006D61737465720000736C6176650000003B
:206340000D0A5254432073796E636865642061732061202573000000242100200D0A5379BA
:206360006E6368206D6F64652073657420746F2025642E0D0A0000000D0A496E76616C6948
:206380006420706172616D657465722C2073796E6368206D6F64652072656D61696E732053
:2063A00025642E0D0A0000000D0A5254432077696C6C2073746172742061742025303258F5
:2063C0003A253032583A253032580D0A00000000100C02400D0A55736520706F7765722065
:2063E000627574746F6E20746F207475726E2063756265206F66662E0D0A00001804024058
:206400000D0A446973706C617920636F6C6F75722073657420746F2025640D0A00000000AC
:206420000D0A4D656E753A0A00000000BCC8000825733A0025732025733A00000D0A252D1B
:2064400031387309257300000D0A3E001C2300203DA02968FBF7C0FDFFF706FA06464EB1AD
:206460004248006830B9314641A0FBF7B5FD01203E490860FEBD10B54548006820F08050E0
:206480004349086043A0FBF7A7FD10BD10B50446214648A0FBF7A0FD10BD00E000BFFDE785
:2064A0002DE9F04705460C46002628881FFA80F9012C05D146484068022801D1012000E054
:2064C00000200643012C09D141484068012805D1A9F50060823801D0012000E00020064329
:2064E0002CB93B488068022801D1012000E0002006434CB936488068012805D1A9F500607E
:20650000813801D0012000E000200643012E19D1012C01D12FA100E030A10846FBF75CFD55
:20652000287910F0800F01D0A87800E0002000F10608002704E0E95D2AA0FBF74DFD7F1C49
:206540004745F8DBBDE8F0870D0A43414E2052782066726F6D2025642C202564206279742C
:2065600065733A20222573220D0A0000CC0200200D0A43414E206572726F723A2073746133
:20658000747573203D20307825582E0D0A00000004ED00E00D0A46656174757265206E6F07
:2065A000742079657420696D706C656D656E7465642100000D0A535643206E756D62657274
:2065C000202575207761732063616C6C65640000102300200D0A52783A2000000D0A5478A0
:2065E0003A20000025303258200000002E49096841F002012C4A11602C49096821F4805173
:206600002A4A11601146096841F4005111601146096821F4804111601146096841F4004189
:20662000116022492031096821F0706141F000711E4A203211601146096821F0704141F052
:206640000051116018491031096841F00401164A103211604FF0FF31154A11601449143933
:20666000098840F201121143114A143A118003210F4A243A11800E492C39098841F00101CA
:206680000B4A2C3A1180002001E000BF401CB0F57A7FFADB0021064A083A116070470448F8
:2066A0000838006800B2704730380240000402402C08004010B51020554908604FF4F070C7
:2066C000FBF7E2FE4FF48010514908604620FBF7DBFE4F4808380068012121EA501080F0A6
:2066E00001044FF4CD70FBF7CFFE204610BD10B504466CB11020464908600620FBF7C4FEF6
:206700004FF48010424908604020FBF7BDFE0CE010203F4908603C20FBF7B6FE4FF48010C5
:206720003B4908600A20FBF7AFFE10BD10B51020374908600620FBF7A7FE4FF480103449ED
:2067400008600920FBF7A0FE314808380068012121EA50143720FBF797FE204610BD70B530
:206760000446002506E004F00100FFF7C0FF6410681CC5B2082DF6DB70BD70B5002400250A
:2067800007E06410FFF7D2FF08B144F08004681CC5B2082DF5DB204670BD70B5054600BFA4
:2067A000EFF310801B4908604FF4801018490860002404E04FF47A70FBF766FE641C642C64
:2067C000F8DBFFF777FFB8B10126CC20FFF7C7FFF020FFF7C4FF0020FFF7C1FF0020FFF78D
:2067E000BEFF002404E0FFF7C8FF05F8010B641CB4F5007FF7DB00E00026102004490860A9
:206800000449086880F3108800BF304670BD000018080240D80200202DE9F0411048FFF75D
:20682000BCFF074617B90120BDE8F0810C4D2878532801D00220F7E768784642002403E095
:206840000748005D0644641CB4F5007FF8DBF1B26878814201D00320E6E70020E4E70000D5
:206860007C23002010B56F48006820B101282DD002286CD159E06C4800686B494968884293
:2068800023D90020FDF7B6F96848674A06CA06C0654840686649884206D16648624948609C
:2068A00008464068086005E061485F4948600846406808605D4840685F490860084600682B
:2068C0005E49086001205749086040E05748006859490968884221D9574800680478564861
:2068E000006840885649088054480068001D53490860DA2C03D10120FBF74CFB04E0C02C18
:2069000002D10020FBF746FB4D4801884B480068FDF778F902204349086005E0002041492E
