:020000040800F2
:10000000B06A002045E4000863E4000865E40008E5
:1000100067E4000869E400086BE4000800000000E1
:100020000000000000000000000000006DE4000877
:100030006FE4000800000000139F000873E400084C
:1000400075E4000875E4000875E4000875E400082C
:1000500075E4000875E4000875E4000875E400081C
:1000600075E4000875E4000875E4000875E400080C
:1000700075E4000875E4000875E4000875E40008FC
:1000800075E4000875E4000875E400088F93000823
:100090008F92000875E4000875E4000875E4000814
:1000A00075E4000875E4000875E4000875E40008CC
:1000B0004DAD00081756000875E4000875E4000807
:1000C00075E4000875E4000875E400085756000858
:1000D00075E4000875E4000875E4000875E400089C
:1000E00075E40008F951000875E4000875E400089B
:1000F00075E4000875E4000875E4000875E400087C
:1001000075E4000875E4000871AF000875E40008A4
:1001100075E4000875E4000875E4000877AD000890
:1001200075E4000875E4000875E4000875E400084B
:1001300075E4000875E4000875E4000875E400083B
:1001400075E4000875E4000875E4000875E400082B
:1001500075E4000875E4000875E4000875E400081B
:1001600075E4000875E4000875E4000875E400080B
:1001700075E4000875E4000875E4000875E40008FB
:1001800075E4000875E4000800F002F800F0B2F829
:100190000AA090E8000C82448344AAF10107DA45E2
:1001A00001D100F0A7F8AFF2090EBAE80F0013F082
:1001B000010F18BFFB1A43F001031847D83C010098
:1001C000F83C01000A444FF0000C10F8013B13F01A
:1001D000070408BF10F8014B1D1108BF10F8015BA0
:1001E000641E05D010F8016B641E01F8016BF9D193
:1001F00013F0080F1EBF10F8014BAD1C0C1B09D1EA
:100200006D1E58BF01F801CBFAD505E014F8016B5B
:1002100001F8016B6D1EF9D59142D6D370470000ED
:100220000023002400250026103A28BF78C1FBD8FF
:10023000520728BF30C148BF0B6070476E290EF0CF
:10024000FF8270290EF04F83662911F0938565298E
:1002500011F09085672911F08D85612911F08C8549
:1002600003681B0A28BF41F0800169290EF0AC82A7
:1002700064290EF0A98275290EF0A6826F290FF06D
:10028000A78178290EF01B83E9290FF04181E42929
:100290000FF03E81F5290FF03B81EF290FF0A4818B
:1002A000F8290EF01A830368DB0928BF41F08001AA
:1002B00063290FF0C28073290FF0C780E3290FF084
:1002C000FF83F3290FF00484002070471FB511F05D
:1002D00047FD0FF0D7F904000020002110F07EFF49
:1002E000401C60600020002110F062FFE0601FBD34
:1002F00010B510BD0FF03CFE1146FFF7E7FF03F00D
:10030000E7FA0FF063FE03B4FFF7F2FF03BC0FF050
:1003100067FE00000020F749F74AF84B5B6E012B9F
:1003200001D140F40050F54B1B6E012B01D140F080
:1003300001008B8DC3F340330BB140F000408B8D37
:10034000C3F3C03313B140F4806004E00B69012BA8
:1003500001DB40F400708B8DC3F380330BB140F0B0
:100360008040CB6AC3F340431BB9CB6AC3F340530D
:1003700023B140F0100040F0200005E00B7F03F0B7
:1003800080030BB140F4005091F8203003F01003CB
:1003900033B191F82C30C3F3C0030BB140F480406B
:1003A00091F8203003F080030BB140F400400B8C37
:1003B00003F480730BB140F480300B8C03F40073B2
:1003C0000BB140F400300B8C03F400630BB140F42C
:1003D00000200B8C03F480630BB140F4802091F873
:1003E000283003F002030BB140F08070CB6AC3F3F6
:1003F000004333B1CB68002B01DD402300E08023B4
:100400001843536F022B07D191F83C3003F00103DE
:1004100063B140F0010009E0536F032B06D191F85E
:100420003C3003F001030BB940F00100936F022B45
:1004300007D191F83C30C3F3800363B140F0020070
:1004400009E0936F032B06D191F83C30C3F380038E
:100450000BB940F00200D2F8A830012B01D140F4D2
:100460008010D2F8AC30012B01D140F4001070475D
:100470000FB42DE9F04798B09F4D21A81790BDF813
:100480008000ADF8000001208DF8040050208DF8A8
:1004900005000DF106044FF00009BDF8800040F2A0
:1004A0006642811A90427BD00EDCB0F5836F28D073
:1004B00004DC022875D0812874D1D0E0A0F2444039
:1004C00058B12028F8D1A0E01B296CD05C290DD0B0
:1004D0005F297BD0BC29EFD130E001208DF80200EC
:1004E00000208DF803004FF006091BE101208DF874
:1004F0000200824890F85C008DF803004FF0060976
:1005000010E116208DF8020000208DF803009DF800
:10051000040040F080008DF804004FF01C09012019
:100520002080288C6080686A60600020A060A86AD3
:10053000E060E86A2061288EA082F3E024208DF834
:10054000020000208DF803009DF8040040F08000B8
:100550008DF804004FF02A09012020806080E86DAA
:100560006060686EA060B5F86C00A081D5F894005A
:10057000C4F80E0098204059C4F812005E48B0F844
:10058000E000E0825C48B0F8E80060835A48D0F8A8
:10059000E4006FF00041884207D1002020830CE086
:1005A00034E09BE0A2E02FE010E05348D0F8E400F4
:1005B0004FF4167190FBF1F020830020A0830021FE
:1005C00004F11C00E18321846184ABE00E208DF8EE
:1005D000020000208DF803009DF8040040F0800028
:1005E0008DF804004FF01409012020804348C06FAB
:1005F000C4F802004148806FC4F806003F48D0F8B4
:100600008000C4F80A008DE000BF00BF394890F8B0
:100610002C00C0F3C01020B13648006B322800DD3A
:1006200080E00E208DF8020000208DF803009DF878
:10063000040040F080008DF804004FF01409012000
:1006400020802C480068C4F802002A480089E08015
:1006500000202081FFF75EFEC4F80A0062E01798D0
:1006600050F804AB1790179850F8048B1790179810
:1006700080C817902248006880452ED0B8F5004FFA
:1006800028D044208DF8020000208DF803009DF84A
:10069000040040F080008DF80400A4F800A0A4F845
:1006A0000280002603E00021201D8155761C402E8B
:1006B000F9DB002604E017F8011B201D8155761C8C
:1006C000387808B1402EF6DB4FF04A0939460DA0C4
:1006D00003F0EAFF0A48C0F8008023E000208DF80C
:1006E00002008DF803004FF006091BE0BDF88010F2
:1006F00014E000000C070020E0590020CC5A002034
:10070000400000200D0A415054206E6F74696669E4
:10071000636174696F6E3A2025730000FBA003F0DB
:10072000C3FF00BF00BF00201790B9F1000F03D036
:100730004946684604F0CEFD18B0BDE8F0075DF804
:1007400014FB2DE9F04FABB0FD4CFE4DDFF8F893F4
:10075000FE4800881390FD48007900F07F00079064
:1007600014AFBE1DDFF8E48308F106080020F8701E
:1007700001203871079878710020069040F25342AA
:100780001398811A904201F0038171DC40F2144207
:10079000A0EB0201904200F0B18733DC40F213225B
:1007A000A0EB0201904279D016DC142877D009DC46
:1007B000022875D0052874D0112873D0122841F072
:1007C000438461E215286ED0B0F5047F6CD0A0F2AE
:1007D00011200028F3D1D0E340F2F712881A914299
:1007E00079D007DC012977D0102976D0B1F5FB7FCD
:1007F000E5D1FDE3062871D0072870D00928DED1A5
:1008000000F073BF2C2900F0BE8718DC122967D0D6
:100810000CDC022901F08C81032901F099810F2958
:1008200000F083871029CAD100F091BF152970D03C
:10083000262901F00C802729C1D101F011B83229F5
:1008400001F0248009DC2D2900F0AA872F2900F06F
:10085000C1873129B3D101F014B8342901F02880BF
:100860003C2901F07E803D29A9D101F07FB8FFE746
:10087000732979D03CDC612901F057821FDC3F29C4
:1008800073D012DC042901F0D980122901F02E81E5
:10089000172901F077813D2991D1FDE1F2E336E39B
:1008A000FFE153E0E8E1EEE3EEE35D2901F01782BA
:1008B0005E2901F0238260298CD101F030BA6D29C4
:1008C0007ED00EDC632901F04282642901F0678248
:1008D00066298DD1EBE1F7E3F7E3C9E1F6E3F6E34F
:1008E000F6E36E296DD070296CD0712987D165E14E
:1008F000A22901F07E8217DC932901F0A48309DC90
:1009000074297CD077297BD078297AD079298AD12B
:10091000A2E1EEE3942901F07783A02901F07A8225
:10092000A12989D101F05CBAD0296BD007DCAB29B1
:1009300001F0EC82CD297AD0CE298BD1F5E3D129F3
:1009400076D0D32975D0D42984D1EFE3062038801E
:100950005420B870387940F08000387154227C49B6
:1009600030460EF006FA01E043E192E179A000780A
:1009700086F8420077A041784320815575A0C17860
:100980004420815573A001794520815574A00079D8
:10099000202801D1302001E071A00079462188553E
:1009A0006FA04179472081556DA00178482081557D
:1009B0006BA041784920815569A081784A2002E0E6
:1009C0000CE07BE086E0815500214B208155012021
:1009D000069002206549086001F037BB5B48C0788B
:1009E0000E900E9800F001000D900E9801280AD08C
:1009F00002281FD0032832D004285AD144E00AE14B
:100A000015E117E1FDE301205949C8650846006E6C
:100A1000012803D10020886603F0FBFA5448006FD8
:100A200040F40070524908670020486742E0E9E35B
:100A3000E9E3E9E302204E49C8650846006E012853
:100A400004D100200866886603F0E3FA4848006F86
:100A500040F4007046490867002048672AE00320F8
:100A60004349C8650846006E012804D10020086685
:100A7000886603F0CEFA3E48006F40F400703C49AF
:100A800008670020486715E004203949C865084612
:100A9000006E012804D100200866886603F0B9FAC8
:100AA0003348006F40F40070314908670020486700
:100AB00000E000BF00BF002006908DE740F2C2407A
:100AC00038600120B8702A4890F85C00F870012066
:100AD000069081E7B8F800000D900D98012868D1C4
:100AE00000202349886603F094FAD8F806002049CC
:100AF0008867D8F80200C867D8F80A00C1F88000F3
:100B00000846806F0A283BDA0A2033E00D0A556E4A
:100B100068616E646C656420415054206E6F746926
:100B20006669636174696F6E2C2041505420636F55
:100B30006D6D616E64203D2025303458000000004A
:100B4000E05900200C070020505D00206C000020C0
:100B50004C02002031313A31393A3137000000007F
:100B60004465632031302032303139008C5B002005
:100B7000CC5A002088670846406B40F0400048632C
:100B8000FE48C06F0A2807DA0A20FC49C8670846F1
:100B9000406B40F0400048630020F849C1F89000E5
:100BA000C1F89800C1F8A000A1F8A400A1F8A6001F
:100BB00000E000BF00BF002006900DE740F2C540F6
:100BC00038600E20B870387940F08000387101200C
:100BD0003080EA48C06FC6F80200E848806FC6F867
:100BE0000600E648D0F88000C6F80A00012006900A
:100BF000F2E6E348C0780E900E98012802D1DF4952
:100C0000C1F8A8000E98022802D1DC49C1F8A8005A
:100C100000200690E0E64FF4996038600120B8703B
:100C2000D64890F8A800F87001200690D4E600207D
:100C30000690D1E6D248C0780E900E98012802D1D5
:100C4000CE49A1F88C000E98022802D1CB49A1F818
:100C50008C0000200690BFE640F2CD4038600120B5
:100C6000B870C64890F86000F87001200690B3E6AE
:100C70004020C2494860AFE6E86A20F0800080303A
:100C8000E86200202863A7E6E86A20F08000E862B6
:100C9000A2E6002028639FE640F28140FFF7E8FBD0
:100CA0009AE60420B74908600020069094E6B8F858
:100CB000020013901398B0F5966F7DD013DC40F2CC
:100CC0002642A0EB0201904277D007DCA0F213404D
:100CD000E0B1032826D0102870D14BE0142932D07F
:100CE0001A29F9D139E040F2C342811A904266D004
:100CF00007DCA0F2B34078B303284CD00D28EBD129
:100D0000D4E05D2976D0602958D18DE000209E493D
:100D100088619D48A168C161216901624AF6552137
:100D20004162E5E09848216A8162616AC162A16A14
:100D30000163E16A416300218163216BC1634AF66B
:100D400055210164D4E09048616C4164616C816418
:100D50004AF65521C164CBE04DE08B48216D016519
:100D6000616D4165A16C8165A16DC1654AF6552132
:100D70000166BDE08448616F4166A16F8166E16FE5
:100D8000C166D4F880100167D4F8841041674AF630
:100D900055218167ACE07D48B0F87A107A48C16788
:100DA0007A48C16F7848C0F880107848D0F8801031
:100DB0007548C0F8841003E013E027E097E081E075
:100DC0007248B0F884107048C0F888106F48B0F8C6
:100DD00086106D48C0F88C104AF65521C0F8901066
:100DE00086E06948E16DC0F89C104AF65521C0F8CC
:100DF000A0107DE031E06548B0F878106248C0F896
:100E000094104AF65521C0F8981071E05E48D4F865
:100E10008810C0F8CC10D4F88C10C0F8D0104AF666
:100E20005521C0F8D41063E0594801695648C0F80C
:100E3000F010574801695448C0F8F01054488168D0
:100E40005148C0F8E8105248C1684F48C0F8EC104B
:100E50004AF65521C0F810114AE04B48216CC0F801
:100E6000A410E16DC0F8A810616EC0F8AC10E16E7E
:100E7000C0F8B0100021C0F8B410C0F8B810454850
:100E8000D0F8E0104048C0F8BC104248D0F8E81054
:100E90003D48C0F8C0103F48D0F8E4103A48C0F8C8
:100EA000C4104AF65521C0F8C81021E03348B0F804
:100EB0005C0081B23448A0F814114AF65521C0F8FC
:100EC000181115E02D48C16F2F48C0F81C112B4890
:100ED000816F2D48C0F820112848D0F880102A488A
:100EE000C0F824114AF65521C0F8281100E000BFCF
:100EF00000BF2948406C2449C8604AF65520086163
:100F00001E48406C40F001001C49486464E5D8F874
:100F100000000590D8F804000490D8F80800039069
:100F2000D8F80C000290D8F810000190D8F81400FE
:100F3000009040F295110598884202D00020174990
:100F40000860059810286FD00ADC6ED2DFE800F048
:100F50006D6F836DC76D6D6D6D8A9D6DD2D66DDAC7
:100F6000B0F5C87F73D01BDC112871D0142870D065
:100F700020286FD02A2858D158E051E3CC5A0020BD
:100F80006C0000208C5B00201C5C002028060020E8
:100F900008000020E0590020A05B0020B8070020D6
:100FA000A0F2911030B1042826D0A0F2923000288F
:100FB000E1D1C2E0FD48406C40F00200FB494864CA
:100FC000FB490398C8600846C068FA49C8604AF6F9
:100FD00055200861022003F041FF06F0B1FD04F046
:100FE000BFFE022003F03AFF06F08DFE022000E073
:100FF0003FE303F033FFE5E040F29510EE4908606F
:10100000EE49086000204860EA48C06888604FF0F8
:10101000030B05E00020E94941F82B000BF1010B1F
:10102000BBF10A0FF6DBCDE053E0CAE0CAE04FF0B7
:10103000000B08E00020E14941F82B00E04800687F
:1010400048600BF1010BBBF10A0FF3DBBAE0A4E03F
:1010500042E02BE06BE0D8F80400D949086000209A
:101060000690AFE04FF0000B08E00020D34941F8B4
:101070002B00CF48406848600BF1010BBBF10A0F11
:10108000F3DB9FE07BE29FE0A3E2D8F80400C849CD
:101090004860486806F092FA0020C449C1F8AC00E4
:1010A000C849D1F8E00006F0ACFA8BE0BF48406CCC
:1010B00040F00200BD494864BD484068BD494860F1
:1010C0004AF6552088607DE0D6E271E2E5E2E9E289
:1010D000B6E205F08AFC75E006F03DFA72E0D8F859
:1010E0000810B948C0F8D0100121D52005F027FB21
:1010F00068E0E8E2D8F80400E06263E0D8F80400B1
:10110000A0625FE0D8F80410AD48C0F8D8104AF6E5
:101110005521C0F8DC1004F00DFEA948D0F8D80025
:10112000C4F89000002006904CE0E3E107E1049849
:1011300081B2A548A0F8DC1044E0A44904980861F5
:1011400003984861029888600198C8600846006961
:1011500010B9012002F097FF9C480069012801D1D5
:1011600002F091FF994800690A2802D1022002F09A
:101170008AFF9648406910B9012002F052FF934857
:101180004069012801D102F04CFF904840690A28CB
:1011900002D1022002F045FF14E0642003F05EFE5D
:1011A00072B68B48006820F48000894908600846C0
:1011B000006820F40010086086488749086002F043
:1011C000A7FD00BF00BF07E416203870002078702C
:1011D0002820B870387940F080003871282277498B
:1011E00030460DF0C6FD7448006840F29511884203
:1011F0001BD172490860002048606E48C068886052
:1012000003E028E0F0E063E07CE04FF0030B05E052
:1012100000206A4941F82B000BF1010BBBF10A0FCA
:10122000F6DB00206449086012E00020306060486E
:10123000406870605E48C068B0600020F060604840
:101240000068306100207061B061F06130627062EE
:101250000120069031E4B8F802005C490861B8F852
:1012600006004861B8F804008860B8F80800C86053
:101270000846006920B1012806D00A280FD107E0EE
:10128000012002F000FF0BE0012002F0FCFE07E06D
:10129000022002F0F8FE51485149886000E000BF8A
:1012A00000BF4A48406920B1012806D00A280CD165
:1012B00007E0012002F0B5FE08E0012002F0B1FED7
:1012C00004E0022002F0ADFE00E000BF00BF74E4C5
:1012D00040F2255038601620B870387940F0800010
:1012E0003871012030803948008A70803748808A00
:1012F000F08036480089B0803448808930810120F0
:1013000006905AE4D8F8020036490860D8F806007A
:101310004860D8F80A008860D8F81A00C860D8F881
:101320000E000861D8F812004861D8F816008861EC
:10133000D8F81A00C861D8F81E0008623DE44FF4DE
:10134000A56038602E20B870387940F08000387180
:101350000120B61C26F8020C2248006830602148A3
:10136000406870601F488068B0601E48C068B06107
:101370001C480069C8F80E001A484069C8F81200F5
:1013800018488069C8F816001648C069C8F81600E1
:1013900000203084B61E002106F12200B184F184C1
:1013A00031857185B1850120069006E4CC5A002074
:1013B000745D0020885D00203C000020B8070020FC
:1013C0001C5C0020E05900202806002008000020B6
:1013D00030380240EFBEADDEF01F0020C7A100088C
:1013E000F8020020C0020020B8F80200401E20646D
:1013F000D8F80400E065D8F808006066B8F80C007A
:10140000E066D8F80E00C4F89400D8F812109820BE
:101410000151FE48D4F89410C0F8C010982001592A
:10142000FA48C0F8C4107F21E06D90FBF1F0F84954
:101430000867F648D0F8E0001290F448D0F8E400CD
:101440001190F248D0F8E8001090B8F81600EF4973
:10145000C1F8E000B8F8180050B9B8F81A0038B967
:1014600041F27070C1F8E4000220C1F8E80014E015
:10147000B8F81A00E549C1F8E800B8F8180020B932
:101480006FF00040C1F8E40007E0B8F818004FF42E
:1014900016714843DD49C1F8E400DC48D0F8E0109B
:1014A000129881420BD1D948D0F8E41011988142AA
:1014B00005D1D648D0F8E8101098814201D001201B
:1014C00000E000200F900F9898B10020D149C1F89A
:1014D000AC000846D0F8B000012805D1CB49D1F8BE
:1014E000E00006F071F804E0C849D1F8E00006F029
:1014F00088F80BE5012044F8400F40F22250386094
:101500002420B870387940F0800038710120308094
:101510002088708001207080E0697060606AB0602F
:10152000A08DB081606D403CC6F80E009820005937
:10153000C6F81200B548B0F8E000F082B348B0F841
:10154000E8007083B148D0F8E4006FF000418842B1
:1015500002D10020308307E0AC48D0F8E4004FF41B
:10156000167190FBF1F030830020B083002106F16A
:101570001C00F1833184718401200690C6E4A648E2
:10158000807800F0010018B10120C4F8B00002E03A
:101590000020C4F8B000A048807800F0020018B124
:1015A0000120C4F8B40002E00020C4F8B400ADE4A7
:1015B00040F2152038600D9828B90020B870F870F6
:1015C0000120069004E00020B870F8700120069019
:1015D0009CE49148C078012812D1E86A20F4804048
:1015E000E862E86A20F008000830E862E86A20F45F
:1015F000005000F50050E862002006F02BFE0EE0DF
:10160000E86A20F00800E862E86A20F40030E86246
:10161000E86A20F40050E862012006F01BFE75E441
:1016200040F2122038600120B870A88DC0F340301D
:1016300008B1012000E00220F8700120069065E466
:10164000B8F8040044F8880FB8F8020060602188F8
:1016500008B205F066FAA188883C08B205F0D2FB12
:1016600005F0C3F905F0B3F90121D52005F067F8BD
:101670004CE4D8F802A049E440F20B403860062060
:10168000B870387940F08000387101203080D5F88A
:1016900000A0C6F802A0069038E4D8F802A0C5F869
:1016A00000A033E440F2124038600620B870387968
:1016B00040F08000387101203080D5F800A0C6F8D5
:1016C00002A0069022E440F22A4038600620B8705A
:1016D000387940F08000387101203080FEF71AFE22
:1016E000C6F802000120069010E4D8F80600A060B9
:1016F000A068E060D8F80A00206107E440F21540D5
:1017000038600E20B870387940F0800038710120C0
:1017100030800020C6F80200A068C6F806002069E4
:10172000C6F80A00012006904DE5B8F8020060678F
:10173000B8F80400A067D8F80600E067D8F80A00F7
:10174000C4F88000B8F80E00C4F884003BE540F20D
:10175000254038601020B870387940F0800038712A
:101760000120308034F8740F7080A088B080A068A9
:10177000C6F80600E068C6F80A00208A743CF081CA
:10178000012006901FE5D8F80600A064B8F8020012
:101790002065B8F804006065D8F80A00A06512E575
:1017A00040F2424038600E20B870387940F0800036
:1017B000387101203080B4F850007080B4F85400C3
:1017C000B080A06CC6F80600A06DC6F80A00012023
:1017D000069027E2E86AC0F3404000B122E206200A
:1017E000C9F804004FF08040C9F808000020C9F88B
:1017F0000C004AF28700E064C9F81000A06CC9F838
:101800001400206DC9F81C00002007E0E0590020FA
:1018100028060020CC5A00206C000020C9F81800CF
:10182000C9F8200001202861E86A20F4003000F5A2
:101830000030E862E86A20F40010E862E86A20F00C
:1018400040004030E862A06CC9F81400FDE3D8F80D
:1018500002006064606C002801DA00206064F4E338
:1018600040F23C4038600620B870387940F0800083
:10187000387101203080606CC6F8020001200690AB
:10188000E3E3D8F80200FE490860DEE340F2474097
:1018900038600620B870387940F080003871012037
:1018A0003080F7480068C6F8020001200690CCE3BB
:1018B000E86AC0F3405018B1E86AC0F3404038B954
:1018C000E86AC0F3404020B1D9F82000022800D1D6
:1018D000BBE3D5F800A0EB48007940F0800018B1D8
:1018E000D8F80200824402E0E54800688244002102
:1018F000504606F08AFD09900998012800D1A4E31A
:10190000E86A20F4003000F50030E862E86A20F46C
:101910000010E862E86A20F00200E8620120C9F8DD
:101920000400C9F808A0D9F808002968884201DA3B
:10193000606C00E00020C9F80C00A068C9F8100035
:101940002069C9F81400A069C9F81800E069C9F84D
:101950002000E86A20F010001030E86205F080FDF9
:1019600073E3D8F80200C64948606EE340F2524083
:1019700038600620B870387940F080003871012056
:101980003080BF484068C6F80200012006905CE342
:10199000E86AC0F3405018B1E86AC0F3404038B973
:1019A000E86AC0F3404020B1D9F82000022800D1F5
:1019B0004BE3B448007940F0800010B1D8F802A0A1
:1019C00002E0AF48D0F804A00021504606F01DFD0B
:1019D00009900998012800D137E3E86A20F4003023
:1019E00000F50030E862E86A20F40010E862E86A76
:1019F00020F00200E8620120C9F80400C9F808A03C
:101A0000D9F808002968884201DA606C00E00020FB
:101A1000C9F80C00A068C9F810002069C9F81400C2
:101A2000A069C9F81800E069C9F82000E86A20F048
:101A300010001030E86205F0A4FC06E3E86AC0F389
:101A4000405018B1E86AC0F3404038B9E86AC0F3C2
:101A5000404020B1D9F82000022800D1F5E22069E9
:101A6000C9F81400D9F814000C9000200C9906F065
:101A7000CCFC09900998012800D1E6E2E86A20F43C
:101A8000003000F50030E862E86A20F40010E862F7
:101A9000E86A20F00200E8622069C9F81400012019
:101AA000C9F80400C9F808A00020C9F80C00A06813
:101AB000C9F810002069C9F81400A069C9F8180015
:101AC000E069C9F82000E86A20F01000E8626D487B
:101AD000C078012802D105F0FEFC06E0D9F8140018
:101AE0004042C9F8140005F0F6FCAEE26548C07843
:101AF000012802D104F037FF01E004F034FFE86A66
:101B000020F01000E862E86A20F020002030E8624F
:101B10000520C9F8040028690D2802D12869286128
:101B200001E000202861002057498862C8628CE2E9
:101B3000B8F802002062D8F804006062D8F80C00FF
:101B4000A062D8F81000E062B8F8140020637CE2CC
:101B50004FF4836038601620B870387940F0800008
:101B6000387101203080208C7080606A70600020A5
:101B7000B060A06AF060E06A3061208EB08201201F
:101B8000069062E2E86AC0F3405018B1E86AC0F318
:101B9000404038B9E86AC0F3404020B1D9F820008D
:101BA000022800D151E2E86A20F4003000F500304C
:101BB000E862E86A20F40010E862E86A20F4803005
:101BC00000F58030E862E86A20F00200E862012057
:101BD000C9F804000020C9F80C00A06AC9F8100078
:101BE000E06AC9F81400A069C9F81800E069C9F8EA
:101BF0002000206A012832D1E06AC9F81400D9F81F
:101C000014000C901F48C078012810D100200C99B6
:101C100006F0FBFB09900998012804D1E86A20F43A
:101C20000030E86211E2032005F01EFB12E00C9880
:101C300040420C9000200C9906F0E7FB09900998AF
:101C4000012804D1E86A20F40030E862FDE10520B3
:101C500005F00AFBE86A20F01000E8623EE009485F
:101C6000C07801281ED12868616A0844C9F80800B4
:101C7000D9F808A00021504606F0C7FB099005E0FE
:101C8000000000206C0000200800002009980128B6
:101C900004D1E86A20F40030E862D6E1042005F0BF
:101CA000E3FA16E02868616A401AC9F80800D9F812
:101CB00008A00021504606F0A8FB099009980128C9
:101CC00004D1E86A20F40030E862BEE1062005F0A5
:101CD000CBFAE86A20F010001030E862B5E1D8F8DD
:101CE0000400F749C8660846C06E0B900B98C117F0
:101CF00000EBD1514912F24A1167A6E140F2B2401D
:101D000038601A20B870387940F0800038710120AE
:101D10003080EB48C06E70600120069095E1B8F805
:101D20000200E749A1F878008FE140F2B540386041
:101D30000420B870387940F080003871012030807C
:101D4000DF48B0F878007080012006907DE1DC4823
:101D5000B0F87A000A90B8F80200D949A1F87A00E0
:101D60000846B0F87A100A98814203D00320D4497B
:101D7000C1F89800B8F80200D149A1F87A00D8F863
:101D80000400C867D8F80800C1F88000B8F80C0053
:101D9000A1F88400B8F80E00A1F8860055E14FF4D0
:101DA000976038601020B870387940F08000387142
:101DB00001203080C248B0F87A007080C048C06FFF
:101DC0007060BF48D0F88000B060BD48B0F88400B3
:101DD000B081BB48B0F88600F0810120069034E164
:101DE000B8F80200B64908840121882004F0A7FC55
:101DF0002BE140F2F64038600420B870387940F0AA
:101E00008000387101203080AD48008C7080012046
:101E100006901AE10020AB49886143F6A321A94846
:101E2000C161A94901624AF65521416202218162DC
:101E3000A649C16241F652510163A549416300219F
:101E400081630221C1634AF6552101649F494164BF
:101E500081644AF65521C164022101650121416571
:101E60009C4981654FF44821C1654AF655210166B8
:101E70000221416681660021C16601670121416737
:101E80004AF6552181678E48B0F87A108D48C167AF
:101E90008B48C16F8B48C0F880108948D0F88010FB
:101EA0008848C0F884108648B0F884108548C0F887
:101EB00088108348B0F886108248C0F88C104AF623
:101EC0005521C0F890107E48C16E7E48C0F89C1025
:101ED0004AF65521C0F8A0107948B0F87810794832
:101EE000C0F894104AF65521C0F898101E21C0F889
:101EF000CC100521C0F8D0104AF65521C0F8D410F6
:101F000075487049486003F015FF9EE0734880787B
:101F1000202804D16B49C8600020286473E06F4812
:101F20008078212804D16749C860002028646AE0CD
:101F30006A488078222804D16249C8600020286459
:101F400061E066488078302804D15E49C86000208E
:101F5000286458E061488078312804D15949C86024
:101F6000002028644FE05D488078322804D155492C
:101F7000C8600020286446E058488078402804D192
:101F80005049C860002028643DE0544880784128CA
:101F900004D14C49C8600020286434E04F48807860
:101FA000422804D14749C860002028642BE04B48F0
:101FB0008078502804D14349C8600120286422E079
:101FC00046488078512804D13E49C86001202864E1
:101FD00019E042488078702804D13A49C86001204D
:101FE000286410E03D488078712804D13549C860E4
:101FF0000020286407E039488078752803D13149EA
:10200000C8600020286420E04FF49D6038601420F0
:10201000B870387940F0800038710120B61C26F87D
:10202000020CE06D3060206E7060606EB060A06E7B
:10203000F060B61EE06E08B1022000E00120708260
:102040000120069001E000E000BF00BF069870B1DB
:102050009DF8540000F0800018B19DF85200801DDA
:1020600000E00620089014A8089903F033F92BB07B
:10207000BDE8F08F10B50446012C0AD105F060FDD3
:1020800015481049486003F055FE05F03CFE002459
:1020900002E000201249486410BD10B5044672B633
:1020A000012C04D0022C06D0032C1FD11AE00020F2
:1020B00006F011F91AE0012006F00DF916E0000013
:1020C000280600201C5C0020C0445E045515020058
:1020D00060222F02FC7A4F01060001006C000020F4
:1020E000CC5A0020012006F0F6F800BF00BFFE48E1
:1020F000048062B610BD70B5FC4EB01FC08885B2BA
:10210000012D06D0052D0BD0072D03D00D2D08D1A4
:1021100005E007E074882046FFF7BFFF02E001E01A
:1021200000E000BF00BF70BD10B5014600200023D5
:10213000EE4CA41FA2780F2A24D2DFE802F0230875
:10214000230D231023122318231E23200A00082006
:1021500019E01E200A8016E00C200A8013E01220ED
:1021600011E004200A80E04C24884C800BE006201B
:1021700000230A80C1F8023005E0082003E00620B1
:102180000A8000E000BF00BF10BDD948D949C26D28
:10219000C1F89C204AF65522C1F8A020026CC1F873
:1021A000A420C26DC1F8A820426EC1F8AC20C26E56
:1021B000C1F8B0200146D1F8C020CE49C1F8B42002
:1021C0000146D1F8C420CB49C1F8B8200146D1F866
:1021D000E020C849C1F8BC200146D1F8E820C54933
:1021E000C1F8C0200146D1F8E420C249C1F8C4209A
:1021F0004AF65522C1F8C820BF49B1F87820BD4938
:10220000C1F894204AF65522C1F89820D0F88820C9
:10221000C1F8CC20D0F88C20C1F8D0204AF6552245
:10222000C1F8D420B5490A68B249C1F8E020B349E1
:102230004A68B049C1F8E420B0498A68AD49C1F89C
:10224000E820AE49CA68AB49C1F8EC20AB490A693D
:10225000A849C1F8F020A9490A69A649C1F8F020A7
:10226000A6498A69A349C1F8F820A449CA69A149C5
:10227000C1F8FC20A1490A6A9E49C1F800219F4982
:102280004A6A9C49C1F804219C498A6A9949C1F863
:1022900008219A49CA6A9749C1F80C214AF6552281
:1022A000C1F810219049B1F85C108AB29149A1F8A7
:1022B00014214AF65522C1F818218B49CA6F8D495D
:1022C000C1F81C2188498A6F8A49C1F820218649B2
:1022D000D1F880208749C1F824214AF65522C1F857
:1022E0002821704770B5824D002314224FF480617D
:1022F000834803F075FC0446814880684AF65521FE
:10230000884204D17E4840687E49486002E0392016
:102310007C49486001207B49C860794800694AF6D9
:102320005521884204D17648C0687649C86002E0E9
:1023300001207449C86070BD10B56D4C6D48006EC9
:102340004AF6552188420BD16A48006D20656948DC
:10235000406D60656748806DA0646648C06DA0658B
:102360006448D0F810014AF65521884230D16148BE
:10237000D0F8E000614908605E48D0F8E4004860A9
:102380005C48D0F8E80088605A48D0F8EC00C86093
:102390005848D0F8F00008615648D0F8F0000861BD
:1023A0005448D0F8F80088615248D0F8FC00C86161
:1023B0005048D0F8000108624E48D0F80401486245
:1023C0004C48D0F8080188624A48D0F80C01C8622D
:1023D0004848D0F8C8004AF65521884222D14548DD
:1023E000D0F8BC004249C1F8E0004248D0F8C00033
:1023F000C1F8E8003F48D0F8C400C1F8E4003A480A
:10240000D0F8B000012803D1D1F8E00005F0DCF8E5
:102410003548D0F8B000022804D13549D1F8E000A1
:1024200005F0EFF83248D0F8E000002804DB30482F
:10243000D0F8E000642807DD0A202D49C1F8E0004B
:10244000D1F8E00005F0C0F82948D0F8E4002E49A2
:10245000884205DC2648D0F8E400B0F5167F0FDA94
:102460002348D0F8E4006FF00041884203D12049AE
:10247000C1F8E40004E041F270701D49C1F8E400C5
:102480001B48D0F8E800002804DB1948D0F8E00029
:10249000642803DD02201649C1F8E8001548D0F889
:1024A00018014AF65521884204D11248B0F81401A7
:1024B0000D49C8650F48D0F828014AF655218842D1
:1024C0000DD10C48D0F81C010749C8670948D0F85D
:1024D000200188670748D0F82401C1F8800005482A
:1024E000D0F8100112E00000CC5A00207200002049
:1024F000E05900201C5C0020280600200800002075
:10250000885D0020745D0020006504004AF65521B6
:10251000884210D1FE48D0F8E800FE498860FC48A7
:10252000D0F8EC00C860FA48D0F8F0000861F8482C
:10253000D0F8F0000861F748006920B1012806D002
:102540000A280FD107E0012001F09DFD0BE00120DA
:1025500001F099FD07E0022001F095FDEE48EF49FA
:10256000886000E000BF00BFEA48406920B1012850
:1025700006D00A280CD107E0012001F052FD08E046
:10258000012001F04EFD04E0022001F04AFD00E0D0
:1025900000BF00BF10BD70B5E14C00234FF49A722C
:1025A0001946DB4803F01CFB0646D948406A4AF648
:1025B0005521884205D1D648C069A060D448006A38
:1025C0002061D348006C4AF6552188420ED1D0488C
:1025D000806A2062CE48C06A6062CD48006BA0620B
:1025E000CB48406BE062CA48C06B2063C848C06CEF
:1025F0004AF65521884205D1C548406C6064C448FC
:10260000806C6064C248006E4AF6552188420BD146
:10261000BF48006D2065BE48406D6065BC48806D58
:10262000A064BB48C06DA065B948806F4AF65521CB
:10263000884210D1B648406E6067B548806EA0678A
:10264000B348C06EE067B248006FC4F88000B0487D
:10265000406FC4F88400AE48D0F890004AF6552187
:10266000884218D1AA48B0F87C00AE49A1F87A0097
:10267000A748D0F88000C867A548D0F88400C1F802
:102680008000A348B0F88800A1F88400A048B0F802
:102690008C00A1F886009E48D0F8A0004AF655218B
:1026A000884203D19A48D0F89C00E0659848D0F859
:1026B00098004AF65521884203D101209949A1F892
:1026C00078009348D0F8D4004AF65521884209D1C1
:1026D0008F48D0F8CC00C4F888008D48D0F8D000DE
:1026E000C4F88C008A48D0F8DC004AF655218842AC
:1026F00004D18748D0F8D800C4F890008448D0F8B6
:1027000010014AF65521884230D18148D0F8E000C6
:10271000804908607E48D0F8E40048607C48D0F8E2
:10272000E80088607A48D0F8EC00C8607848D0F8B3
:10273000F00008617648D0F8F00008617448D0F8DD
:10274000F80088617248D0F8FC00C8617048D0F881
:10275000000108626E48D0F8040148626C48D0F865
:10276000080188626A48D0F80C01C8626848D0F84D
:10277000C8004AF6552188423BD16548D0F8A400EC
:1027800020646348D0F8A800E0656749E06D0969F6
:10279000884202DD64480069E0655D48D0F8AC001D
:1027A00060665B48D0F8B000E0665948D0F8B410D5
:1027B0005B48C0F8C0105648D0F8B8105848C0F868
:1027C000C4105348D0F8A8007F2190FBF1F0554980
:1027D00008674F48D0F8BC005149C1F8E0004C48A8
:1027E000D0F8C000C1F8E8004948D0F8C400C1F8EA
:1027F000E4004748D0F818014AF65521884204D130
:102800004348B0F814014949C8654148D0F8280147
:102810004AF6552188420DD13D48D0F81C01434964
:10282000C8673B48D0F8200188673948D0F82401B0
:10283000C1F88000364800694AF65521884201D126
:102840003348C5683AA13C480CF050FA70BD70B5E9
:1028500004463A480068052808D2DFE800F003087B
:102860001593A30014B9012034490860A6E034A0F0
:1028700001F01AFFFFF789FC02F017FA35490880CA
:1028800002202E49086099E01CB100202B49086005
:1028900077E002F00AFA05462E480188284602F041
:1028A00000FAB0F5FA6F6CDD012005F020FB05F0B1
:1028B00047F9012002F0D2FA4AF65520144908617E
:1028C00003F038FA022002F0C9FA1848406C0128D7
:1028D00001DD03F045FA05F016FA022002F0BEFA17
:1028E0001DA001F0E1FE0220FDF7C2FD03201D49FD
:1028F000086002201C4948610846C06A20F01000A8
:10290000C8620846C06A20F02000C86205202DE099
:102910001C5C002008000020C7A10008F80200206D
:10292000E05900202806002050070020CC5A002043
:102930004B5343313031000050020020480000204A
:102940000D0A506F776572696E6720646F776E2E1F
:102950002E2E000044000020676F6F646279650DC1
:102960000A000000505D00200C070020FE4948606E
:10297000FE48C06A20F08000FC49C8620320FC4980
:1029800008601BE002F091F90546FA4801882846E4
:1029900002F087F940F6B831884202DD0420F4499C
:1029A00008600BE04FF40030F34908604001086014
:1029B0004FF4FA7002F052FA01F0AAF900BFEC48A5
:1029C000006870BD10B52DED048B0446412C7AD003
:1029D00011DC302C78D007DC202C7DD0212C75D058
:1029E000222C40F0058765E1312C70D0322C6FD05D
:1029F000402CF6D155E3702C6BD006DC422C69D00C
:102A0000502C68D0512CECD1E8E3752C00F06E8688
:102A1000852CE6D1D9480068D9490860D748406874
:102A20004860D64880688860D448C068C860D34889
:102A300000690861D14840694861D048806988616F
:102A4000CE48C069C861CD48006A0862CB48406A78
:102A50004862CA48806A8862C848C06AC862C74873
:102A6000006B0863C548406B4863C448806B88634B
:102A7000C248C06BC863C148006C0864BF48406C62
:102A80004864BE48806C8864BC48C06CC864BB485D
:102A9000006D0865B948406D4865B84890ED190A61
:102AA000084680ED190A0320B6490864B448006955
:102AB0004863B34840684861B7EE000A084680EDB5
:102AC000060A00F095BE63E386E105E07BE0FAE1EB
:102AD00070E2FDE3EBE3FCE3AB480068A849086063
:102AE000A94840684860A84880688860A648C068CF
:102AF000C860A54800690861A34840694861A248C8
:102B000080698861A048C069C8619F48006A0862FE
:102B10009D48406A48629C48806A88629A48C06AB8
:102B2000C8629948006B08639748406B48639648B1
:102B3000806B88639448C06BC8639348006C0864DA
:102B40009148406C48649048806C88648E48C06CA2
:102B5000C8648D48006D08658B48406D48658A489B
:102B600090ED190A084680ED190A0120854908648C
:102B7000834800694863084690ED0D0AB8EEC00A24
:102B800010EE101A08460FF073F841EC190B9FED88
:102B90007F0B53EC102B0EF01DFC41EC180B0EF0CC
:102BA0003FFB78498866764840684861744890EDF4
:102BB000010AB8EEC00AD0ED190A80EE201A0846C4
:102BC00080ED061A7DE7734800686D49086071481A
:102BD000406848606F48806888606E48C068C86018
:102BE0006C48006908616B484069486169488069C0
:102BF00088616848C069C8616648006A08626548BB
:102C0000406A48626348806A88626248C06AC862F3
:102C10006048006B08635F48406B48635D48806BA9
:102C200088635C48C06BC8635A48006C08645948A4
:102C3000406C48645748806C88645648C06CC864CF
:102C40005448006D08655348406D4865514890ED03
:102C5000190A084680ED190A01204A4908644848C3
:102C600000694863084690ED0D0AB8EEC00A10EE00
:102C7000101A08460EF0FCFF41EC190B9FED430BB8
:102C800053EC102B0EF0A6FB41EC180B0EF0C8FA1B
:102C90003C4988663A4840684861394890ED010AE5
:102CA000B8EEC00AD0ED190A80EE201A084680ED71
:102CB000061A06E738480068314908603648406817
:102CC00048603548806888603348C068C8603248CA
:102CD000006908613048406948612F48806988610F
:102CE0002D48C069C8612C48006A08622A48406AB9
:102CF00048622948806A88622748C06AC8622648B4
:102D0000006B08632448406B48632348806B8863EA
:102D10002148C06BC8632048006C08641E48406CA2
:102D200048641D48806C88641B48C06CC8641A489D
:102D3000006D08651848406D4865174890ED190A00
:102D4000084680ED190A01200E4908640C48006904
:102D50004863084690ED0D0AB8EEC00A10EE101A4E
:102D600008460EF085FF19E0505D00200C0700209A
:102D7000480000204400002018080240C422010836
:102D800050070020A05B00207C1D0108EC51B81EFC
:102D900085E7B741E41D01084C1E010841EC190B01
:102DA0001FED060B53EC102B0EF014FB41EC180B2F
:102DB0000EF036FAFE498866FE4840684861FD48D4
:102DC00090ED010AB8EEC00AD0ED190A80EE201A83
:102DD000084680ED061A74E6F7480068F549086071
:102DE000F54840684860F44880688860F248C068E8
:102DF000C860F14800690861EF4840694861EE48E1
:102E000080698861EC48C069C861EB48006A086263
:102E1000E948406A4862E848806A8862E648C06AD1
:102E2000C862E548006B0863E348406B4863E248CA
:102E3000806B8863E048C06BC863DF48006C08643F
:102E4000DD48406C4864DC48806C8864DA48C06CBB
:102E5000C864D948006D0865D748406D4865D648B4
:102E600090ED190A084680ED190A0120D04908643E
:102E7000D04800694863084690ED0D0AB8EEC00AD4
:102E800010EE101A08460EF0F3FE41EC190B9FED00
:102E9000CB0B53EC102B0EF09DFA41EC180B0EF0FF
:102EA000BFF9C3498866C34840684861C14890ED8E
:102EB000010AB8EEC00AD0ED190A80EE201A0846C1
:102EC00080ED061AFDE5BF480068BA490860BD48B4
:102ED00040684860BB4880688860BA48C068C8607D
:102EE000B84800690861B74840694861B5488069D9
:102EF0008861B448C069C861B248006A0862B148D4
:102F0000406A4862AF48806A8862AE48C06AC86258
:102F1000AC48006B0863AB48406B4863A948806BC2
:102F20008863A848C06BC863A648006C0864A548BD
:102F3000406C4864A348806C8864A248C06CC86434
:102F4000A048006D08659F48406D48659D4890ED1C
:102F5000190A084680ED190A012095490864954828
:102F600000694863084690ED0D0AB8EEC00A10EEFD
:102F7000101A08460EF07CFE41EC190B9FED8F0BEA
:102F800053EC102B0EF026FA41EC180B0EF048F91A
:102F900087498866874840684861864890ED010AFD
:102FA000B8EEC00AD0ED190A80EE201A084680ED6E
:102FB000061A86E5844800687E49086082484068B1
:102FC00048608148806888607F48C068C8607E48E3
:102FD000006908617C48406948617B488069886174
:102FE0007948C069C8617848006A08627648406AD2
:102FF00048627548806A88627348C06AC8627248CD
:10300000006B08637048406B48636F48806B88634F
:103010006D48C06BC8636C48006C08646A48406CBB
:1030200048646948806C88646748C06CC8646648B6
:10303000006D08656448406D4865634890ED190A65
:10304000084680ED190A0120594908645948006969
:103050004863084690ED0D0AB8EEC00A10EE101A4B
:1030600008460EF005FE41EC190B9FED540B53EC96
:10307000102B0EF0AFF941EC180B0EF0D1F84C49C3
:1030800088664C48406848614A4890ED010AB8EEAD
:10309000C00AD0ED190A80EE201A084680ED061A03
:1030A000A6E34A48006843490860484840684860C9
:1030B0004648806888604548C068C86043480069E1
:1030C00008614248406948614048006A08623F48D8
:1030D000806988613D48C069C8613C48406A48626F
:1030E0003A48806A88623948C06AC8623748006BCB
:1030F00008633648406B48633448806B88633348C4
:10310000C06BC8633148006C08643048406C486448
:103110002E48806C88642D48C06CC8642B48006DB4
:1031200008652A48406D4865284890ED190A084608
:1031300080ED190A01201E4908641E480069486391
:10314000084690ED0D0AB8EEC00A10EE101A0846B7
:103150000EF08EFD41EC190B9FED1D0B53EC102B67
:103160000EF038F941EC180B0EF05AF81049886649
:103170001048406848610F4890ED010AB8EEC00A57
:10318000D0ED190A80EE201A084680ED061A2FE3CA
:1031900011480068074908600F48406848600E48B9
:1031A000806888600C48C068C8600B48006916E0F9
:1031B000A05B002050070020B41E0108000000861C
:1031C0000FB599411C1F0108841F0108EC1F01085D
:1031D000CDCCCC5455F59B41542001086AE10861DF
:1031E000F94840694861F84880698861F648C069D3
:1031F000C861F548006A0862F348406A4862F248CC
:10320000806A8862F048C06AC862EF48006B086351
:10321000ED48406B4863EC48806B8863EA48C06BBC
:10322000C863E948006C0864E748406C4864E648B5
:10323000806C8864E448C06CC864E348006D08652D
:10324000E148406D4865E04890ED190A084680ED78
:10325000190A0120DD490864DD4800694863084611
:1032600090ED0D0AB8EEC00A10EE101A08460EF0E6
:10327000FFFC41EC190B1FED2A0B53EC102B0EF049
:10328000A9F841EC180B0DF0CBFFD0498866D04867
:1032900040684861CE4890ED010AB8EEC00AD0ED12
:1032A000190A80EE201A084680ED061AA0E2C948E5
:1032B0000068C7490860C74840684860C5488068DA
:1032C0008860C448C068C860C2480069086101E0FD
:1032D0008CE166E0BF4840694861BE48806988610A
:1032E000BC48C069C861BB48006A0862B948406A06
:1032F0004862B848806A8862B648C06AC862B54801
:10330000006B0863B348406B4863B248806B8863C6
:10331000B048C06BC863AF48006C0864AD48406CEF
:103320004864AC48806C8864AA48C06CC864A948EA
:10333000006D0865A748406D4865A64890ED190ADC
:10334000084680ED190A0120A0490864A0480069D8
:103350004863084690ED0D0AB8EEC00A10EE101A48
:1033600008460EF085FC41EC190B1FED670B53EC82
:10337000102B0EF02FF841EC180B0DF051FF934974
:103380008866934840684861914890ED010AB8EE1C
:10339000C00AD0ED190A80EE201A084680ED061A00
:1033A00026E28D4800688A4908608B48406848607A
:1033B0008948806888608848C068C8608648006915
:1033C000086185484069486183488069886182480E
:1033D000C069C8618048006A08627F48406A4862E4
:1033E0007D48806A88627C48C06AC8627A48006BFF
:1033F00008637948406B48637748806B88637648F8
:10340000C06BC8637448006C08647348406C4864BF
:103410007148806C88647048C06CC8646E48006DE8
:1034200008656D48406D48656B48806D88656A48E1
:10343000C06DC8656848006E0866674890ED190A57
:10344000084680ED190A0120604908646048006957
:103450004863084690ED0D0AB8EEC00A10EE101A47
:1034600008460EF005FC41EC190B9FED5C0B53EC8C
:10347000102B0DF0AFFF41EC180B0DF0D1FE5349AE
:103480008866084690ED1A0ADFED560A80EE201A8B
:1034900080ED1A1A4E48406848614D4890ED010A87
:1034A000B8EEC00AD0ED190A80EE201A084680ED69
:1034B000061A9DE14C480068454908604A48406842
:1034C00048604948806888604748C068C860464886
:1034D00000690861444840694861434880698861DF
:1034E0004148C069C8614048006A08623E48406A75
:1034F00048623D48806A88623B48C06AC8623A4870
:10350000006B08633848406B48633748806B8863BA
:103510003548C06BC8633448006C08643248406C5E
:1035200048643148806C88642F48C06CC8642E4859
:10353000006D08652C48406D48652B48806D886596
:103540002948C06DC8652848006E0866264890ED79
:10355000190A084680ED190A01201C4908641C4814
:1035600000694863084690ED0D0AB8EEC00A10EEF7
:10357000101A08460EF07CFB41EC190B9FED170B5F
:1035800053EC102B0DF026FF41EC180B0DF048FE0C
:103590000E498866084690ED1A0ADFED120A80EEA1
:1035A000201A80ED1A1A0A4840684861084890EDD0
:1035B000010AB8EEC00AD0ED190A80EE201A0846BA
:1035C00080ED061A14E1000054200108A05B0020E1
:1035D00050070020BC200108F4210108D7A3703D4A
:1035E0000AD74A400000C8485C220108FE4800682B
:1035F000FE490860FC4840684860FB488068886075
:10360000F948C068C860F84800690861F648406930
:103610004861F54880698861F348C069C861F2482B
:10362000006A0862F048406A4862EF48806A88622F
:10363000ED48C06AC862EC48006B0863EA48406B1A
:103640004863E948806B8863E748C06BC863E64815
:10365000006C0864E448406C4864E348806C88640B
:10366000E148C06CC864E048006D0865DE48406D04
:103670004865DD4890ED190A084680ED190A0220D8
:10368000DB490864D94800694863084690ED0D0A93
:10369000B8EEC00A10EE101A08460EF0E9FA41EC36
:1036A000190B1FED320B53EC102B0DF093FE41EC78
:1036B000180B0DF0B5FDCE498866084690ED1A0A44
:1036C0005FED380A80EE201A80ED1A1AC74840686C
:1036D0004861C64890ED010AB8EEC00AD0ED190A5B
:1036E00080EE201A084680ED061A81E0C148006885
:1036F000BE490860BF4840684860BE48806888602E
:10370000BC48C068C860BB4800690861B9484069E6
:103710004861B84880698861B648C069C861B548E1
:10372000006A0862B348406A4862B248806A8862A8
:10373000B048C06AC862AF48006B0863AD48406BD0
:103740004863AC48806B8863AA48C06BC863A948CB
:10375000006C0864A748406C4864A648806C886484
:10376000A448C06CC864A348006D0865A148406DBA
:103770004865A04890ED190A084680ED190A022014
:103780009B490864994800694863084690ED0D0A12
:10379000B8EEC00A10EE101A08460EF069FA41ECB5
:1037A000190B1FED720B53EC102B0DF013FE41ECB7
:1037B000180B0DF035FD8E498866084690ED1A0A03
:1037C0008A48D0ED190A80EE201A084680ED1A1AB0
:1037D000864840684861854890ED010AB8EEC00A05
:1037E000D0ED190A80EE201A084680ED061A00BFB7
:1037F00000BFBDEC048B10BD01467F4AD268402A51
:103800003CD00EDC302A2AD006DC202A18D0212A0F
:103810001BD0222A55D11DE0312A25D0322A50D181
:1038200027E0512A3ED006DC412A2CD0422A2FD054
:10383000502A46D131E0702A39D0752A41D13BE077
:10384000002020226A4B5A6440E001202122684B6C
:103850005A643BE002202222654B5A6436E0032082
:103860003022634B5A6431E004203122604B5A64A9
:103870002CE0052032225E4B5A6427E006204022CD
:103880005B4B5A6422E007204122594B5A641DE0E9
:1038900008204222564B5A6418E009205022544B0B
:1038A0005A6413E00A205122514B5A640EE00B2057
:1038B00070224F4B5A6409E00C2075224C4B5A641D
:1038C00004E0002020224A4B5A6400BF00BF70472A
:1038D00000BF00BF00BF00BF00BF00BF474F00BF19
:1038E00000BF0EF03DFA00F0FAFB04F075FB44490E
:1038F000C1F8B00001F0C0F9642001F0BDFA01F098
:10390000DFF901F000FA01F026FE04F019F9FEF7E4
:1039100042FEFEF7E7FC06F097FF00F083FF00F0A1
:1039200041FA05F0FBFA05F0E6FA40203549086057
:1039300007F0C6FA642007F0A2FA07F00FF9642036
:1039400007F041F907F061F904F0DDF962B62C489F
:10395000D0F8B000022809D12B49486803F02EFEA8
:103960002A49D1F8E00003F04CFE07E02448D0F8E3
:10397000B000012802D1022022490860642001F031
:103980006DFA642001F06AFA012004F010FB1C4972
:10399000D1F8B00008F072FE0AF0C8FC00200AF06E
:1039A0003CFD0AF0DFFB1A4809F00EFA4FF42070D4
:1039B0000AF0FAFC642001F051FA1648D0F80E2003
:1039C00015A14FF4FA6008F079FB01F06EF985203B
:1039D000FEF7F8FF02F0ACFAFEF7AEFC0848D0F8AC
:1039E000B00002282AD125E0242101085007002038
:1039F000A05B00208C2101081C5C0020505D002091
:103A0000CC5A002018080240745D0020E0590020C4
:103A1000943301084C02002054686F726C61627329
:103A2000204B53433130310A53775265762025308D
:103A300036580000BE49486803F0C0FD67E101F058
:103A4000FBFB0546902D02D1BAA000F04EFEC04807
:103A5000D0F80001012805D1FCF773FE0220BC4913
:103A6000C1F8000101F04BFC01F01EFA00287CD0E7
:103A7000B84890F82C00C0F3C01018B140F2814053
:103A8000FCF7F6FCB44800680A2808DA0420B349B9
:103A90000860B1480068401CAF49086014E0AE48B7
:103AA00000680A280DDBAC480068142809DA4FF4D6
:103AB0008020AA490860A8480068401CA649086000
:103AC00002E00020A449086004F0A7FAA449C861F4
:103AD0009748C068022813D10846C0694442201E96
:103AE00001DB014600E04142012900D10024002C05
:103AF00000DD641E002C00DA641C60009849C86177
:103B000098480068012121EA50209549C862C86A96
:103B100007F099FA924948620846406A78B1084627
:103B2000006E012804D100200866886600F071FA52
:103B300000208B49A1F88A000320A1F88800884B57
:103B40009B6A0BB1012300E000231A46844BD9691C
:103B5000586A343307F0B3FB81490863086B07F0F8
:103B6000BAFE81480069012100E0B6E021EA102098
:103B70007B494865486DFEF76AFE794988620846C8
:103B8000006B002874D10846406B002870D00126D5
:103B900068E07348406B304020283AD008DC0128A8
:103BA00043D002280FD0082828D0102857D12FE062
:103BB000402811D080282DD0B0F5807F15D0B0F5E9
:103BC000007F4CD11BE069480068022803D140F215
:103BD000C240FCF74DFC43E064480068022803D172
:103BE00040F2C540FCF744FC3AE060480068022817
:103BF00003D14FF48360FCF73BFC31E000BF5B482E
:103C00000068022803D140F22250FCF731FC27E083
:103C100026E025E05649486CFEF7D4FE02F088F90C
:103C20005348406C5349C8601AE04D48406E012823
:103C30000CD14B48806E10B9002000F0EAF94848DA
:103C4000806E01280AD100F0E4F907E04A48D0F874
:103C50000E204AA14FF4FA6008F030FA00E000BFED
:103C600000BF7600002E94D100203D49486300BF7C
:103C70003B48806A012821D10220FCF7F9FB06218C
:103C8000032004F061FE3649A1F888000020A1F865
:103C90008A00886600F0BDF9052078602D48C06A6A
:103CA00020F010002B49C8620846C06A20F02000AE
:103CB000C8620846C06A20F08000C8622848406890
:103CC00000280DDD264801794068401E244A5060D6
:103CD00001F0040010B108F060FE01E008F062FE9F
:103CE00004F0E5FD1E48006B08B904F08BFE00F0FF
:103CF00065FC1B4948660020086403F0B7FD1848BE
:103D0000006C012803D11649486CFEF7B3F996E61A
:103D1000BFF34F8F2148006800F4E060204908435A
:103D2000001D1E490860BFF34F8F00BFFEE7000073
:103D3000745D0020496E76616C69642041505420A6
:103D40006D65737361676520666F726D61742E00B7
:103D50006C0000200C0700204C00002018040240DA
:103D6000CC5A002010080240000002408C5B00206A
:103D7000A05B00201C5C00204C020020456E6162AC
:103D80006C65204B65795377697463680A20746F9A
:103D9000206F706572617465000000000CED00E03A
:103DA0000000FA05864A126842F48022844B1A60A9
:103DB000834A103A1268834B1A43814B103B1A60B6
:103DC000814A126822F480127F4B1A601A461268E8
:103DD00042F400121A601A1D126822F480621B1D40
:103DE0001A60794A0C32126822F44012764B0C3376
:103DF0001A601A1F126822F440121B1F1A60724ABE
:103E0000526A22F4706242F4E0636F4A53621268AD
:103E100022F480026C4B1A601A46126842F40002C7
:103E20001A60694A0C32126822F44002664B0C3365
:103E30001A60654A526A22F4704242F4E043624AD0
:103E400053626249881040F26D12614B1A80002261
:103E50005F4B08331A801B1D1A805D4A121D1288A1
:103E600042F400525A4B1B1D1A80594A0C321288D8
:103E700042F0C002564B0C331A80564A926D22F023
:103E80000102544B9A6500E000BF524A926D02F065
:103E90000102002AF8D14F4A926D22F060624D4B28
:103EA0009A651A46926D42F000629A651A46926DC2
:103EB00042F488629A65464A121F1A660022DA6541
:103EC0001A46926A22F001029A6200E000BF414A5B
:103ED000926A02F00102002AF8D13E4A926A22F068
:103EE00060623C4B9A621A46926A42F000629A62A1
:103EF0001A46926A42F4A0629A62354A121F1A6305
:103F0000354A5A631A15DA62314A083A128822F0A1
:103F100040022F4B083B1A802D4A121D128842F096
:103F20000C022B4B1B1D1A802A4A926A42F0010296
:103F3000284B9A6270472749C96AC1F58061274AB0
:103F40001268914202D14FF6FF700FE023490A68D0
:103F50000968491C214B19601F49885C194609688A
:103F6000B1F5806F02D100211A4611607047194ADD
:103F7000926D22F00102174B9A6500E000BF154ACE
:103F8000926D02F00102002AF8D1124A5066D16502
:103F90000F4A083A128822F040020D4B083B1A8063
:103FA0004FF000620B4B9A601A46926D42F001028C
:103FB0009A65704706480838008800F0400070474E
:103FC000403802400200200000040240007A030A48
:103FD0000848004000600240E00700205000002038
:103FE00010B14FF4004101E04FF00041FE4A116072
:103FF000704708B1042101E04FF48021FB4A1160B1
:10400000704708B1082101E04FF40021F84A91619E
:10401000704708B1202101E04FF40011F44A91618A
:104020007047012800D102E0022800D1002008B129
:10403000042101E04FF48021EE4A116068B9EA4999
:104040001839096841F00401E74A183A116011462D
:10405000096821F00801116014E0E3491839096882
:1040600021F00C01E04A183A1160DF490C39096867
:1040700021F00401DC4A0C3A11601146096821F074
:10408000080111607047012800D102E0022800D128
:10409000002010B14FF4004101E04FF00041D54A3B
:1040A000116058B9D249096841F00401D04A116041
:1040B0001146096821F0080111600FE0CC49096838
:1040C00021F00C01CA4A11601146C96821F00401AF
:1040D000D1601146C96821F00801D1607047C64817
:1040E000006840F00100C4490860C148006820F041
:1040F0000300BF4908600846C06820F00100C8609E
:104100000846C06820F00200C8600846006820F039
:104110000C0008600846C06820F00400C86008462B
:10412000C06820F00800C8600846006840F05000F1
:1041300008600846006820F0A00008600846006893
:1041400020F4407008600846C06820F48070C860A1
:104150000846C06820F40070C8600846006840F453
:10416000806008600846006820F400600860084627
:10417000006820F4405008600846C06820F4805071
:10418000C8600846C06820F40050C860084600684F
:1041900020F4404008600846C06820F48040C860B1
:1041A0000846C06820F40040C8600846006820F453
:1041B000403008600846C06820F48030C860084677
:1041C000C06820F40030C8600846006820F0404015
:1041D00008600846C06820F08040C8600846C06893
:1041E00020F00040C8608448006840F00200824926
:1041F00008607D481838006840F011007A49183985
:1042000008600846006820F02200086076480068D0
:1042100040F48030744908600846006840F480200B
:10422000086071481838006840F004006E49183979
:1042300008600846006820F0080008606A480068C6
:1042400040F400306849086067481838006820F07A
:10425000C00065491839086063480C38006820F0D0
:10426000400061490C3908600846006820F0800071
:1042700008605D481838006820F440705A491839C1
:10428000086059480C38006820F4807056490C3991
:1042900008600846006820F400700860524818382A
:1042A000006820F440605049183908604E480C38C6
:1042B000006820F480604C490C39086008460068AA
:1042C00020F40060086048481838006820F4405026
:1042D00045491839086044480C38006820F480507B
:1042E00041490C3908600846006820F40050086015
:1042F0003D481838006820F440403B4918390860B0
:1043000039480C38006820F4804037490C3908607F
:104310000846006820F400400860334818380068F8
:1043200020F440303049183908602F480C380068B4
:1043300020F480302C490C3908600846006820F4CD
:104340000030086028481838006820F440202649CA
:104350001839086024480C38006820F4802022496D
:104360000C3908600846006820F4002008601E48E8
:104370001838006840F0AA401B4918390860084600
:10438000006820F02A4008601748006840F080501C
:10439000154908600846006840F00050086008466B
:1043A000006840F4804008600846006840F0004023
:1043B00008601148006840F004000F4908600D488B
:1043C0001838006840F055000A4918390860084656
:1043D000006820F0AA00086010200649086005481F
:1043E000183800680AE0000018040240180C024067
:1043F00000000240180802403038024040F480704B
:10440000964908600846006820F4007008609348E8
:104410000830006820F440709049083108608F48E7
:10442000006820F440608D4908608C480C300068BA
:1044300020F4406089490C310860884818300068D1
:1044400040F480308549183108600846006840F41F
:10445000003008600846006840F480200860084684
:10446000006840F4002008607C48006820F4406048
:104470007A49086079480C30006820F480607749F8
:104480000C3108600846006820F40060086073483A
:10449000006840F4A040714908600846006820F4B4
:1044A000204008606D481830006840F040006B49BB
:1044B000183108600846006840F0800008606748CE
:1044C000006820F440306549086064480C3000689A
:1044D00020F4803061490C3108600846006820F4FF
:1044E000003008605D48006820F440205B490860A7
:1044F0005A480C30006820F4802058490C3108607C
:104500000846006820F4002008605448006820F045
:1045100040605249086051480C30006820F08060CB
:104520004E490C3108600846006820F000600860C1
:104530004A48006820F040504849086047480C301D
:10454000006820F0805045490C310860084600683A
:1045500020F0005008604148006840F080403F492A
:1045600008600846006820F0004008603B481830AA
:10457000006840F400403949183108603848006844
:1045800040F00800364908603648006840F01000E6
:10459000344908603148006820F020002F49086045
:1045A00030481830006840F004002E491831086087
:1045B00070472D480069C0F3801070472A48006991
:1045C000C0F3C01070472948006820F00C0027494C
:1045D00008600420214918310860BFF35F8F234829
:1045E00010300068C0F3400070474FF480211B4A30
:1045F0001832116008B1022101E04FF400311B4A6A
:10460000183211601949096841F00401174A116014
:1046100070471548006820F00C00134908604FF4FB
:1046200000400E4918310860BFF35F8F0E480069E3
:10463000C0F3400070474FF00041084A1832116043
:1046400008B1022101E04FF40031074A916111469F
:10465000096841F004011160704700000008024041
:1046600030380240000C02400000024000040240CA
:1046700010B558480068B0B1FFF79CFC98B1554898
:10468000016855480068FFF772FC534800685349B9
:10469000884202D101F5806000E050484E49086030
:1046A00000204C49086010BD0FB438B505A8009033
:1046B00048480068B0F5806F02D349A000F015F8B3
:1046C00045490968434A12688818009A04990AF013
:1046D00003F804463F48006820443E490860002033
:1046E0000090204638BC5DF814FB0446214644A0E7
:1046F000FFF7DAFF01E0FFF7BBFFFCE72DE9F04130
:1047000005460E4600274448006808B9434805603E
:104710003DE0082C04D00A2C1DD00D2C20D119E02E
:104720003D480068A8B108213DA0FFF7BDFF20214A
:104730003BA0FFF7B9FF082139A0FFF7B5FF3648C6
:104740000068401E3449086034480068401E334900
:1047500008601BE000BF012700202F49086015E01A
:104760002D480068B04210D221462DA0FFF79CFFD3
:104770002A4909680C7029480068401C27490860CC
:1047800025480068401C2449086000BF00BFFFF7AF
:10479000D2FB04464FF6FF718842BAD16FB10020B8
:1047A0001E49096808701D480068401C1B490860C4
:1047B00008460068401BBDE8F0810020FBE710B50B
:1047C00000E000BFFFF7F6FB0028FAD0FFF750FF2C
:1047D00010BD00005800002054000020E00B002015
:1047E000436F6E736F6C65207072696E74206275B2
:1047F00066666572206F766572666C6F7700000082
:104800000D0A457869742077697468206572726F43
:10481000723A2025730000005C0000206000002038
:1048200025630000F948006840F01000F74908606F
:10483000F64814380068F6490843F449143908600A
:10484000F448006820F48020F249086008460068B7
:1048500040F4002008600846406820F4007048607A
:104860000846C06820F44020C8600846806820F4EC
:10487000402088600846406A20F0F00040F0700157
:10488000E4484162006820F48010E249086008466C
:10489000006840F4001008600846C06820F400106A
:1048A000C8600846C06840F48010C8600846406A86
:1048B00020F4706040F4E061D6484162C002D549FE
:1048C00088610846006840F080700860084600680B
:1048D00020F0007008600846806840F040708860F2
:1048E0000846006820F4400008600846C06820F4CC
:1048F0000000C8600846C06840F48000C86040F20C
:10490000D920C5490881002008828882084680890C
:1049100040F4005088810846808A40F0C0008882B8
:10492000BE48006820F00100BC49086000E000BFFC
:10493000BA48006800F001000028F8D1B7480068C4
:1049400020F06060B54908600846006840F00060EB
:1049500008600846006840F488600860AE48001DA2
:10496000AE49083108600020091F0860AB4878385C
:10497000006820F00100A9497839086000E000BF14
:10498000A6487838006800F001000028F7D1A34855
:104990007838006820F06060A049783908600846DF
:1049A000006840F0006008600846006840F4A060BD
:1049B00008609948001D9949703908609848091D98
:1049C000086008159549743908609348008820F0FC
:1049D0004000914908800846808940F00C00888199
:1049E0008E487838006840F001008C4978390860BA
:1049F00070478648001F006840F400308349091F53
:104A0000086008460068824908438049091F086019
:104A10008048006820F480207E49086008460068CD
:104A200040F4002008600846406820F400704860A8
:104A30000846C06820F44020C8600846806820F41A
:104A4000402088600846406A20F0F00040F0700185
:104A500070484162006820F480106E490860084682
:104A6000006840F4001008600846C06820F4001098
:104A7000C8600846C06840F48010C8600846406AB4
:104A800020F4706040F4E06162484162C002614914
:104A900088610846006840F0807008600846006839
:104AA00020F0007008600846806840F04070886020
:104AB0000846006820F4400008600846C06820F4FA
:104AC0000000C8600846C06840F48000C86040F23A
:104AD000D9205149088100200882888208468089AF
:104AE00040F4005088810846808A40F0C0008882E7
:104AF0004A48006820F001004849086000E000BF13
:104B00004648006800F001000028F8D143480068DA
:104B100020F06060414908600846006840F000608D
:104B200008600846006840F4886008603A48001D44
:104B30003A49083108600020091F08603748783872
:104B4000006820F0010035497839086000E000BFB6
:104B500032487838006800F001000028F7D12F486B
:104B60007838006820F060602C4978390860084681
:104B7000006840F0006008600846006840F4A060EB
:104B800008602548001D2549703908602448091D22
:104B9000086008152149743908601F48008820F012
:104BA00040001D4908800846808940F00C0088813B
:104BB0001A487838006840F00100184978390860D0
:104BC0007047164974390968C1F58061154A126841
:104BD000914202D14FF6FF700FE012490A6809684E
:104BE000491C104B19600E49885C19460968B1F5DB
:104BF000806F02D100211A4611607047074A12687F
:104C000022F00102054B1A600FE000004438024018
:104C1000010040000000024000100140B864024062
:104C2000E01300206400002000BF114A126802F067
:104C30000102002AF8D10E4A0C3210600C4A121DF3
:104C400011600C4A128822F040020A4B1A804FF081
:104C50000062074BAC3B1A60054A126842F0010241
:104C6000034B1A6070470348008800F0400070470B
:104C7000B864024000100140FE48006840F00100A6
:104C8000FC4908600806008840F001000906088019
:104C90004AF20F4008850846808A40F00100888269
:104CA00070470246501A80B270474FF08040406A09
:104CB000C0F34F0070474FF08040406A4008704793
:104CC000EC48006840F01000EA4908605320EA49C7
:104CD00008854FF6FF704862C8620846008840F0B9
:104CE000080008800846008840F0010008807047EE
:104CF0004142E1484162018841F00101018001889F
:104D0000C907FCD17047DB48006840F00800D9496A
:104D10000860D8482038006840F00800D54920399C
:104D2000086000E000BFD3482038006800F00800A9
:104D30000028F7D0CF482038006820F00800CD497F
:104D4000203908600020CD490880091F0860C94843
:104D50001038006840F00100C64910390860C848A2
:104D6000006820F00100C64908600846006840F06D
:104D7000020008600846006A20F00F00801C0862EC
:104D80004FF0FF30BD49091D08605720BB4920394D
:104D90000880BA481038008840F00100B74910393F
:104DA0000880081F008840F00100091F0880B348F0
:104DB0002838008840F00100B04928390880AD4803
:104DC000006840F00200AB4908600020AD4908804F
:104DD000091F0860A7481038006840F00200A54984
:104DE00010390860A848006820F00100A649086052
:104DF0000846006840F002000860A34820300068C0
:104E000020F00F00801CA04920310860084600688F
:104E100020F0F00040F02000086041F2670099495E
:104E2000091D086040109749143108600846006861
:104E3000091D086047F2700092490C390880081D6E
:104E4000008840F48070091D08808E48143800885E
:104E500040F001008B4914390880704700B50146C5
:104E6000FFF723FF024600E000BFFFF71EFF801A96
:104E700080B28842F8DB00BD0246844850434FF4BC
:104E80007A73B0FBF3F1B1F1807F01D30120704759
:104E90004FF0E020006940F001004FF0E02318617E
:104EA000184641610020F2E74FF0E020006900F46D
:104EB000803070470CB558B975490968019174493B
:104EC00028390968734A11607149243909680091C9
:104ED0006849096841F08051664A11606E49096865
:104EE00041F480716C4A116062493031096841F4C3
:104EF0008031604A303211601146096821F48031F6
:104F000011601146096841F4407111601146096849
:104F100041F400411160CA215D4A121F1160532102
:104F200011605B491C39096841F08001584A1C3AFC
:104F3000116000E000BF56491C39096801F04001CA
:104F40000029F7D05249183909686FF30C0101F2B2
:104F50000F714F4A183A11601146096821F4FE0199
:104F600041F4C60111604B490968494A283A116069
:104F70004A49121D116046491C39096821F0800117
:104F8000434A1C3A116000E000BF41491C390968DE
:104F900001F080010029F7D1FF213D4A121F116065
:104FA0003B491C39096821F02001394A1C3A11603B
:104FB0000CBD3049096841F080512E4A11603649D4
:104FC000096841F48071344A11602A493031096816
:104FD00041F48031274A303211601146096821F4CA
:104FE000803111601146096840F205121143214ACF
:104FF000303211601146096841F40041116038B146
:1050000020492839098841F001011E4A283A1180B7
:10501000CA211F4A121F1160532111601C491C39FB
:10502000096841F080011A4A1C3A116000E000BF93
:1050300017491C39096801F040010029F7D01449CB
:10504000183909686FF30C0101F20F71104A183A10
:1050500011601146096821F4FE0141F480311160AC
:105060000C4909680A4A283A11600C49121D11605E
:10507000074915E04038024000100040280C00406D
:10508000000002402804004000040240406F40013C
:1050900028280040680000200070004002441300EF
:1050A0001C39096821F080015F4A116000E000BFEF
:1050B0005D49096801F080010029F8D1FF215A4AB1
:1050C000183211605849096821F02001564A1160D0
:1050D000704756490140564A11607047CA21524AEA
:1050E00018321160532111604F49096841F0800165
:1050F0004D4A116000E000BF4B49096801F04001D2
:105100000029F8D049490140474A0C3A1160464904
:10511000096821F08001444A1160FF21424A183297
:105120001160704710B50246CA203F4B1833186013
:10513000532018603C48001F006820F480703A4BF0
:105140001B1F1860181D006840F001001B1D18602F
:1051500000E000BF3448006800F001000028F8D0EB
:105160003248104040F000402F4B10331860C1F31C
:105170000C0040F070602C4B383318602A480068EF
:1051800020F00100284B18601846006820F4807059
:105190001860181F006840F488501B1F1860181D05
:1051A000006820F001001B1D1860FF201E4B183303
:1051B00018602048006840F400301E4B18601D48FD
:1051C0000838006840F400301A4B083B1860194852
:1051D0000C30006840F40030164B0C331860292066
:1051E00000F01F040123A3404409A40004F1E024BB
:1051F000C4F8003100BF10BD0B48006820F4807077
:105200000949086000E000BF0748006800F48070AA
:105210000028F8D107480C30006840F400300549F8
:105220000C310860704700000C2800407F7F3F0071
:1052300068000020083C014070B501255848D0F8AE
:105240000001022801D0022070BD35E055480268F7
:105250000068401C534B186051488454184600683D
:1052600006281BD14E48007900F0800010B14C4850
:10527000807800E00020801D4B4908604848007994
:1052800000F07F00502807D145484079012803D11C
:1052900008460068802801D99020D5E74148006879
:1052A00041490968884207D100203E490860012031
:1052B0003B49C1F8000103253948D0F80001012815
:1052C00006D0FFF77EFC04464FF6FF718842BDD141
:1052D0002846B9E710B5354B1B68354C24681A19B8
:1052E000334B1B680B44324C236003E010F8013B46
:1052F00002F8013B0B1EA1F10101F7D110BD10B561
:105300002B480068B0B1FFF7AEFC98B1284801689F
:1053100026480068FFF772FC244800682549884247
:1053200002D101F5807000E0224820490860002089
:105330001F49086010BD2DE9F04393B080460D462B
:1053400016461D480068854202D113B0BDE8F083BF
:105350006C46A71D812020604420A0700020E070D2
:105360008120207150206071A7F800807D804FF06F
:10537000000900BF3278484609F10109391D0A5475
:1053800016F8011B0029F5D1B5F5004F03D04A21CD
:105390002046FFF79FFF0848056000BFD5E70000E3
:1053A0006C000020780100207C01002070010020AA
:1053B00074010020E017002080010020014601F068
:1053C0000702FB4B18684FF6FF031840F94B0343E5
:1053D00043EA0220F64B1860704710B5002808DA3F
:1053E0000A07140EF24A0C3200F00F031B1FD454AC
:1053F00003E00A07130EF04A135410BD10B5EF482E
:10540000006840F00200ED490860ED48006820F0B7
:105410000100EB4908600846006840F0020008609F
:10542000081D006820F00100091D0860E4480C30E8
:10543000006820F00300E2490C310860081F006892
:1054400040F00300091F0860DD482030006820F0AC
:105450000F00801CDA4920310860D948006820F02C
:105460000400D74908600846006840F0080008605A
:10547000081D006820F00200091D0860D0480C30AB
:10548000006820F00C00CE490C310860081F00684D
:1054900040F00C00091F0860C9482030006820F067
:1054A000F00040F02000C64920310860C3481030A9
:1054B000006840F00200C149103108605320C14922
:1054C00008803120091D08600520BE49143108609C
:1054D000BC480C38008840F06000BA490C3908809C
:1054E000081D008840F48070091D08800520B5491A
:1054F00018310860B3480C38008840F4C040B14906
:105500000C390880081D008840F48050091D08806F
:10551000AC481438008840F00100AA4914390880CA
:10552000A8481C38008840F00800A6491C390880AB
:10553000A4482838008840F00100A2492839088092
:105540000320FFF73BFF01211D20FFF746FF1D2031
:1055500000F06CF910BD10B500249B4C9748006812
:1055600040F004009549086094481030006840F00D
:1055700002009249103108600720924908803120CA
:10558000091D08606820086005208E4914310860F4
:105590008C480C38008840F068008A490C39088033
:1055A000081D008840F48070091D08800520854989
:1055B0001831086083480C38008840F4D040814995
:1055C0000C390880081D008840F48050091D0880AF
:1055D0007C481438008840F001007A49143908806A
:1055E00078481C38008840F0080076491C3908804B
:1055F00074482838008840F0010072492839088032
:105600000320FFF7DBFE01211D20FFF7E6FE1D2032
:1056100000F00CF910BD10B56A481838008820F069
:105620000800684918390880081F008840F0080001
:10563000091F08800846008820F010000880634891
:10564000D0F8B000022802D102F0CEF802E0022029
:105650005F49086010BD08B55D48001F006800F094
:10566000100000287DD05B4890ED002ADFED5A2A1B
:10567000B4EEE22AF1EE10FA04DD9FED572A80ED38
:10568000002A0DE0534890ED002ADFED542AB4EED5
:10569000E22AF1EE10FA03D29FED502A80ED002AA3
:1056A0004F4890ED002ADFED4C2AB4EEE22AF1EEED
:1056B00010FA04DD9FED482A80ED002A0DE04848ED
:1056C00090ED002ADFED452AB4EEE22AF1EE10FA61
:1056D00003D29FED422A80ED002A4248C0ED001A15
:1056E000414880ED001A414890ED002A404880ED85
:1056F000002A404890ED002A3C4880ED002A3E48B0
:1057000090ED002A3D4880ED002A3D4890ED002AAA
:10571000394880ED002A374880ED000A394890ED7D
:10572000002A394880ED002A384890ED002A354893
:1057300080ED002A364890ED002A364880ED002A98
:10574000354890ED002A324880ED002A2F48C0ED00
:10575000000A1E480088032815D09FED302A2848EB
:1057600000E015E080ED002A9FED2C2A2A4880ED0C
:10577000002A9FED2A2A174880ED002A9FED272A4C
:10578000174880ED002A4FF44010114908600EE0E0
:1057900023488089009023480088009030200C49DD
:1057A00008602148806840F080401F49886008BD3B
:1057B0000CED00E00000FA0500E400E030380240A3
:1057C000000402402804004080DE8002CC5A002001
:1057D00018080240B801002000FEFF4600FEFFC688
:1057E000BC010020C0010020C4010020880100206D
:1057F0008C010020840100209401002098010020E9
:1058000090010020A0010020A40100209C010020A4
:10581000AC010020B0010020A80100200000000021
:10582000003001400C3800400020014000F01F0211
:10583000012191404209920002F1E022C2F80011D8
:105840007047000008B56C48006840F001006A49E4
:10585000086069481430006840F48050664914318B
:1058600008606648006820F4804064490860084683
:10587000006840F4004008600846406820F080005E
:1058800048600846C06820F44040C8600846806808
:1058900060F4404088600846006A20F0704040F0A4
:1058A000A04008620846006820F48060086008464E
:1058B000006840F4006008600846406820F020005E
:1058C00048600846C06820F44060C86008468068A8
:1058D00060F4406088600846006A20F4700040F47C
:1058E000A00008620846006820F48050086008465E
:1058F000006840F4005008600846C06840F48050DA
:10590000C8600846C06820F40050C8600846006AB5
:1059100020F0706040F0A06008623748006840F0F6
:1059200004003549086010203549086034481838AB
:10593000006840F4807032491839086008460068F1
:1059400020F400700860081D006820F01000091D98
:1059500008602B480C38006820F4407028490C3946
:105960000860081F006860F44070091F086025483F
:10597000808820F04000234988800846008820F075
:105980004000088040F2273008800846008840F038
:105990004000088008468089009008BD10B5014687
:1059A0000022184B998100E000BF164B1B891BB9E0
:1059B0001346521C642BF7D3124B9B89D8B210BDEF
:1059C00001461048818100BF0E48008900F00200A6
:1059D0000028F9D000BF0B48008900F00100002822
:1059E000F9D000BF0748008900F080000028F9D1F5
:1059F00004488089C0B2704730380240000002403D
:105A0000180802400030014008B57148006840F0B5
:105A100004006F4908606E481030006840F4004090
:105A20006B49103108606B48006820F0807069494C
:105A300008600846006840F000700860081D0068B3
:105A400020F48050091D086062480C30006820F086
:105A5000407060490C310860081F006860F04070B9
:105A6000091F08605B48406A20F4702040F4C021A0
:105A700058484162006820F4801056490860084682
:105A8000006840F400100860081D006820F4806081
:105A9000091D08604F480C30006820F440104D4943
:105AA0000C310860081F006860F44010091F08608E
:105AB0004848406A20F4706040F4C0614548416243
:105AC000006820F48000434908600846006840F4FC
:105AD000000008603F480C30006840F480003D49F9
