:020000040040BA
:10000000800654494E490240C2AF75C7AA75C7550C
:10001000439D020202001775C7AA75C75575C6AF82
:1000200075C7AA75C755439D04538EF8758600752C
:10003000D000758100759B0075985A75CBFF75CA05
:10004000FD75C830D2CAD299900100007FFF7E4072
:100050007D01E4F0A3DFFCDEFADDF812020ECC0233
:100060000209C9E528241FF582E43404F583759359
:1000700004E00528229004041C300F049004041F9F
:10008000E475F00112020674020204162008E57FEE
:100090002ED2088018EF540F2490D43440D4FF306F
:1000A0000C0BEF24BFB41A0050032461FFE5296054
:1000B000021529052CE52C7002052B300F11900438
:1000C000041CE475F00112020674EF0202042C0213
:1000D000020B5D7403D20F8003E4C20FF528900475
:1000E000041C1202068BE4F529F52BF52CE529609A
:1000F000087F20120200AD80F4752AFFC209C208F1
:10010000C20AC20BC20DC20EC21012020075FF70ED
:100110000E300F067F00120200BEAF2CAE2B22B4B1
:100120002563C2D5C20C12020075FF24D0B40A00A8
:10013000501A75F00A782930D50508B6FF0106C6B1
:10014000A426F620D5047002D20B80D824CFB41A8E
:1001500000EF5004C2E5D20C020202EBD20980C4C7
:10016000D20880BED20A80BAD2D580B8D20D80B271
:100170007F20120200AD200A077401B5290040F06B
:1001800012020063FF120200AD020200EDD210D293
:100190000E808F12020063FB12020063FA1202004B
:1001A00063F94A4B700679C27A037B83200A3DE5E6
:1001B0002960397E00E9C0E02EF9EAC0E03400FA97
:1001C00012020416F9D0E0FAD0E0C960060EEE651E
:1001D0002A70E2C2D5EBC0E0EAC0E0E9C0E0EE126E
:1001E000020333D0E0F9D0E0FAD0E0FB12020416AB
:1001F000FF6096EBC0E0EAC0E0E9C0E0120200ADAB
:10020000D0E02401F9D0E03400FAD0E0FBE52A0484
:1002100060DAD52AD7020201897BFF7A03792FD2CF
:100220000A8089791080027908C20EC2108008D233
:10023000D5790A8004790AC2D5E52A047002F52A24
:10024000E4FAFDFEFF12020063FC7B08200916128F
:10025000020063FD7B1030080C12020063FE1202E4
:100260000063FF7B20EC3382D592D55013C3E4307A
:1002700008069FFFE49EFEE42009039DFDE49CFC2C
:10028000E4CBF8C209EC700CCFCECDCCE824F8F862
:1002900070F38017C3EF33FFEE33FEED33FDEC3325
:1002A000FCEB33FB994002FB0FD8E9EB300905F872
:1002B000D0E0C448B209C0E00AEC4D4E4F78207B34
:1002C0000070C2EAB52A0040BCC0E012020335D07B
:1002D000F0D0E0200904C4C0E0C4B209C0F01202AA
:1002E0000096D0F0D5F0EA020200ED120204D4012B
:1002F000935302235801604C015C4202274F022FA6
:1003000044022F4901764302355502194602194528
:1003100002194703DF5001642D01682E018F2B0164
:100320006C23018D2003CB2A012248000001853F68
:100330003F3F00790AA2D5200B14300D09B91002F5
:100340000404B9080104A2D5200E02500104200AB9
:100350006D920AB529005036C0E07F20300B1A7F1D
:1003600030A20A720E720D50101202038EC20AC21F
:100370000EC20DC2107F308010300D03E9C0E012B4
:100380000200AD300D03D0E0F9D0E0B529CA300D40
:10039000197F30B9100D120200AD7F58300C077F65
:1003A000788003B90804120200AD300A067F2D02DE
:1003B0000200AD7F202010F77F2B200EF222920A40
:1003C00080CC286E756C6C2900D209120200633053
:1003D00009F7C209782930D50108F6020201221274
:1003E0000200637F4960087F4310E7027F5814C012
:1003F000E0EF1202009E743A1202009ED0E0600DFF
:10040000C0E0C412020096D0E012020096D20B7532
:10041000290402020223EB7002E72289828A8314F4
:1004200010E704F593E022F593E49322BB0002F772
:1004300022BB8000500989828A838B931593F02216
:10044000C5F0F8A3E028F0C5F0F8E5821582700247
:100450001583E038F022A3F8E0C5F025F0F0E5823E
:10046000158270021583E0C838F0E822EB9FF5F0A2
:10047000EA9E42F0E99D42F0EC6480C864809845B1
:10048000F022EB9FF5F0EA9E42F0E99D42F0E89CF5
:1004900045F0227401FF3395E0FEFDFCA3A3A3E029
:1004A000CF2FF0E582158270021583E0CE3EF0E595
:1004B00082158270021583E0CD3DF0E582158270D1
:1004C000021583E0CC3CF022ECF0A3EDF0A3EEF0BB
:1004D000A3EFF022D093D083D082F8E4937012740B
:1004E0000193700DA3A393F8740193F5828883E4BC
:1004F000737402936860EFA3A3A380DFEB7008E737
:1005000009F608DFFA801B89828A831410E70AF54E
:1005100093E0A3F608DFFA8009F593E493A3F608C5
:10052000DFF9ECFAA9F0EDFB2288F0EF60010E4E46
:1005300060F088F0ED60C51410E7E7CB700E88829C
:100540008C838B93E709F0A3DFFA80D61410E71CA5
:1005500088848C858B9589828A83F593758620E0C3
:10056000F0A3A3DFFADEF875860080B688848C8558
:100570008B9589828A83F593758620E493F0A3A3F3
:10058000DFF9DEF77586008099E860198FD38ED386
:100590008DD38CD3541FF5D1E5D220E7FBACD3AD7E
:1005A000D3AED3AFD32275F008758200EF2FFFEEE4
:1005B00033FECD33CDCC33CCC58233C5829BED9A8F
:1005C000EC99E58298400CF582EE9BFEED9AFDECED
:1005D00099FC0FD5F0D6E4CEFBE4CDFAE4CCF9A833
:1005E0008222B800C1B90059BA002DEC8BF084CF3B
:1005F000CECDFCE5F0CBF97818EF2FFFEE33FEED12
:1006000033FDEC33FCEB33FB10D703994004EB993B
:10061000FB0FD8E5E4F9FA227818EF2FFFEE33FE4E
:10062000ED33FDEC33FCC933C910D7059BE99A4083
:1006300007EC9BFCE99AF90FD8E0E4C9FAE4CCFB9B
:100640002275F010EF2FFFEE33FEED33FDCC33CCEF
:10065000C833C810D7079BEC9AE899400AED9BFD78
:10066000EC9AFCE899F80FD5F0DAE4CDFBE4CCFA8B
:10067000E4C8F922F8E0FBA3A3E0F925F0F0E58255
:10068000158270021583E0FA38F022EBF0A3EAF04D
:10069000A3E9F0220D0A0A000D0A2A2A2A2A2A2A88
:1006A0002A2A2A2A2A2A2A2A2A2A2A2A2A2A2A2AAA
:1006B0002A2A2A2A2A2A2A2A2A2A2A2A2A2A2A2A9A
:1006C0002A2A2A2A2A2A2A2A2A2A2A2A2A2A2A2A8A
:1006D0002A2A2A2A2A2A2A2A2A2A2A2A2A2A2A2A7A
:1006E0002A2A000D0A445338304334303020415018
:1006F000542053696E676C65204E6F6465205553B6
:10070000422043617264202D20436F7079726967C3
:1007100068742028432920323030372C2054686FE9
:10072000726C616273204C746420202020000D0ADA
:1007300044657369676E203136383333342072650F
:100740007620412C204275696C6420257320257326
:100750000030322F30312F30380031313A34333AD3
:100760003331002570000D0A436F64652062616EAD
:100770006B203D2025326275000D0A4461746120B2
:1007800062616E6B203D2025326275000D0A58545F
:10079000414C2066726571203D2031312E30353953
:1007A00032204D487A2C206D756C7469706C6965C7
:1007B00072203D20256275207820000D0A506F7749
:1007C00065722075702064656C61793A20002A009A
:1007D0000D0A554152545F436F6E666967757265C5
:1007E000206572726F72000D0A4261797320757311
:1007F00065643A200025627520000D0A000D0A523A
:1008000078204845583A2000204F4B2E000D0A52C0
:100810006570726F6772616D6D696E6720666C617D
:1008200073683A20000D0A456E7465722074726117
:100830006E73706172656E74206D6F6465206F6E8B
:100840002055415254206368616E6E656C202562AC
:10085000752E000D0A45786974207472616E73708C
:100860006172656E74206D6F64652C20636F6465C2
:1008700020256258000D0A4572726F722C20636F3A
:100880006465202530326258000D0A486F73742069
:1008900052783A200025303262582000202B205513
:1008A0004152543A20000D0A53657269616C20521E
:1008B000782562643A20000D0A53657276657220CD
:1008C000737461727465642E2020000D0A53657282
:1008D0007665722073746F707065642E005C7C2F77
:1008E0002D6054037CC06878044D4D523630310081
:1008F00000000304000100415054205261636B204A
:10090000436F6E74726F6C6C6572000000000000C3
:1009100000000000000000000000000000000000D7
:1009200000000000000000000000000000000000C7
:10093000000000000000000600C114064400000092
:100940000000004C03550000000000000000000003
:100950000000520361050012050092050112050115
:1009600092050212050292C11243031205031501FA
:100970002D00032E050315C11106310000000000F3
:1009800000063700000000000052000005001205BC
:100990000092050112050192050212050292000261
:1009A0000219BCE493A3F85407240CC8C333C454FD
:1009B0000F4420C8834004F456800146F6DFE480EB
:1009C0000C0102040810204080900208E1E47E013E
:1009D0009360CCA3FF543F30E509541FFEE493A37A
:1009E00060010ECF54E0B4E026E493FBA3E493FA55
:1009F000A3E493F9A3E493C083C0821202042CD031
:100A000082D083A309E970010ADFEADEE880BE54E0
:100A1000C025E0602B408CE493A3FAE493A3F8E4B0
:100A200093A3C8C582C8CAC583CA759304F07593D9
:100A300002A3C8C582C8CAC583CADFE3DEE1808DD0
:100A4000E493A3F8E493A34003F68001F208DFF4F3
:100A5000020209CD0D0A4E6F20636F6C6F6E3A2053
:100A6000000D0A436865636B73756D206572726F64
:100A70007221000D0A45726173696E6720466C61D0
:100A8000736820626C6F636B2025303262583A20A5
:100A9000004F4B000D0A50726F6772616D6D696E89
:100AA0006720666C6173683A2000204F4B00C2D506
:100AB000E830E70FB2D5E4C39BFBE49AFAE499F976
:100AC000E498F8EC30E719B2D512020AE7120205F1
:100AD000E2E4C39BFBE49AFAE499F9E498F8800411
:100AE000120205E230D50DE4C39FFFE49EFEE49DB3
:100AF000FDE49CFC22EFB4FF03410B26F5937583C4
:100B000000758200E0F5F0C0A8C2AFE4F00000E09C
:100B1000700974FFF00000E0F4600EEF1200250B86
:100B2000D0A87F0040027F0122E5F0F0D0A880F637
:100B300012020416601DFF09E970010AC0E0EAC054
:100B4000E0EBC0E012020B5DD0E0FBD0E0FAD0E0B9
:100B5000F980DD7F0A12020B5DE4FEFF22EFB40A8A
:100B600008740D12020B69740A309811A899B81311
:100B70000CC2983098FDA899C298B811F63099FD2A
:100B8000C299F599220D0A48616C74696E672073E9
:100B9000797374656D20286578697420636F646566
:100BA000203D202564292E008B938B9C8A8389828B
:100BB000E05DB5050EEDC0A8C2AF1200250FD0A8AC
:100BC0007F00227F01227E007F02E4229004031630
:100BD000E09004044DF090040315E09004044EF0FE
:100BE000D213E490040447F0A304F0A37411F0902E
:100BF00004044DE0FEA3E0FFEE6003410E93EF24FA
:100C0000FE7003410E8D24EE605024B46028245BF6
:100C10006003410E93740612021B6B7454F090042F
:100C20000448E04480F09004044A7405F0A374037F
:100C3000F0A3747C801E90040317E0FF746112021D
:100C40001B6BEFF0120222A7EF7F0260027F019080
:100C5000040447EFF0D213410E957B057A03791B0C
:100C60009004045BEBF0A3EAF0A3E9F02402120283
:100C70001AD512021B75C004C005C006C0071202B7
:100C80001AC9240312021AD512021B7BD003D00208
:100C9000D001D00012021AECC004C005C006C00783
:100CA00012021AC9240112021AD512021B81D003A2
:100CB000D002D001D00012021AECA804C005C00670
:100CC000C00712021AC9F912020416FFD003D0029B
:100CD000D0019004044F12021ABC240612021AD545
:100CE00012021B75C004C005C006C00712021B8794
:100CF000240712021AD512021B7BD003D002D001A6
:100D0000D00012021AECC004C005C006C0071202CF
:100D10001AC9240512021AD512021B81D003D0026F
:100D2000D001D00012021AECA804C005C006C0070A
:100D300012021AC9240412021B91D003D002D0015E
:100D40009004045312021ABC240A12021AD5120289
:100D50001B75C004C005C006C00712021B87240B08
:100D600012021AD512021B7BD003D002D001D00090
:100D700012021AECC004C005C006C00712021AC94C
:100D8000240912021AD512021B81D003D002D0010D
:100D9000D00012021AECA804C005C006C007120257
:100DA0001AC9240812021B91D003D002D001EB4FC4
:100DB000FFEAFEE9FDE8FC90040457120204C89023
:100DC00004045AE09004045FF0E47F907E019004F4
:100DD000044F12021B2C120204826003410E897F11
:100DE000C57E079004045312021B2C120204826079
:100DF00003410E899004045FE070467B837A077993
:100E0000FD120200D91202155512021B9B700C7BB9
:100E1000837A087908120200D980067FBC12021179
:100E2000437B837A08790D120200D91202189812B6
:100E3000021B9B60067FBD12021143120222E78053
:100E4000489004045FE0FFC39401403DEFD3940653
:100E50005037E0C39401FF12021DF07B837A0879BA
:100E6000259004045FE012020EC29004045FE0C308
:100E70009401FF12021BA212021B9B7B837A08794A
:100E80005312020EC212021F9AC2138008D214C259
:100E9000138002C2133013277B057A0479447D0640
:100EA00012021F1F90040448E030E7139004044A24
:100EB00012021ACDF990040446E0FD12021F1FC26F
:100EC00012229004041FF0120200D922900024DBA9
:100ED000058690FF104D058612022297900024DFB0
:100EE000058690FF1861058612022297900024E380
:100EF000058690FF1C35058612022297900024E794
:100F0000058690FF3B78058612022297900024EB1D
:100F1000058690FF3C3F058612022297900024EF41
:100F2000058690FF0CBC058612022297900024F3E0
:100F3000058690FF0D40058612022297900024F747
:100F4000058690FF0D1A058612022297900024FB59
:100F5000058690FF0CF2058612022297900024FF6E
:100F6000058690FF087D05861202229790002503D2
:100F7000058690FF089A05861202229790002507A1
:100F800005869000060D0586120222979000250B1B
:100F9000058690FF068D0586120222979000250F88
:100FA000058690FF06DC0586120222979000251325
:100FB000058690FF573B0586120222979000251761
:100FC000058690FF56800586120222979000251B09
:100FD000058690FF3A9D0586120222979000251FF4
:100FE000058690FF6B3D058612022297900025230F
:100FF000058690FF44E2058612022297900025277D
:10100000058690FF44A00586120222979000252BAA
:10101000058690FF44C10586120222979000252F75
:10102000058690FF44B20586120222979000253370
:10103000058690FF175805861202229790002537E3
:10104000058690FF176E0586120222979000253BB9
:10105000058690FF83920586120222979000253F15
:10106000058690FF4A70058612022297900025435C
:10107000058690022153058612022297900025478B
:10108000058690FF49E70586120222979000254BBE
:10109000058690FF4A080586120222979000254F88
:1010A000058690FF57E80586120222979000255387
:1010B000058690FF59160586120222979000255743
:1010C0000586900222FB0586120222979000255B7E
:1010D0000586900222FB0586120222979000255F6A
:1010E0000586900222FB05861202229790FF0002DD
:1010F000E493F595740193F585740293F58490005B
:10110000234B0586E493B4870040027486F8A3A3BA
:10111000A305860586E493FBA3E493FAA3E493F97D
:10112000A305867402F0A3EBF0A3EAF0A3E9F0A311
:10113000D8E1E52190002346F090002567E4F0A374
:10114000F0E42290040460EFF07B837A08797590D4
:1011500004041FF0120200D97B837A0879891202F5
:1011600000D990040312A3A3E0C394159004046370
:10117000F0E490040461F012021B20FEC39F50149F
:101180007B837A08799574152EF582E43403120274
:10119000136E80E3120213857F071202135D1202A1
:1011A0001B20C39F50087F071202134180F0E49078
:1011B000040462F090040462E0FCC394065075E0FD
:1011C00012021AF990040463F07B837A0879A690DE
:1011D00004041FECF0120200D9E490040461F01240
:1011E000021B20FEC39F50247B837A087995A3E0DD
:1011F00075F080A42412F582E5F03400F583E582D1
:101200002EF582E435831202136E80D31202138509
:1012100090040462E0FF1202135D12021B20C39FC0
:101220005009A3E0FF1202134180EF90040462E032
:1012300004F08080900404647480F0E4A3F0A3744C
:1012400004F0E4A3F0A37481F0A37411F0900404FB
:1012500060E0FF120204D412888112918212888306
:10126000128884128891129192129AA112A3A2124A
:10127000ACA312B5A412BEA512C7A612D0A712D94C
:10128000BC12E2BD000012EB12021AE37421F080DE
:101290007212021AE37422F0806912021AE37427B0
:1012A000F0806012021AE37428F0805712021AE3E9
:1012B0007429F0804E12021AE3742AF0804512025B
:1012C0001AE3742BF0803C12021AE3742CF0803382
:1012D00012021AE3742DF0802A12021AE37425F028
:1012E000802112021AE37426F08018EF54D0FF9088
:1012F00004046ABFD0087482F0A3E4F08005E4F02F
:10130000A304F0E49004046CF0A3F09004046AE0F9
:10131000FCA3E0FAECFFEAFE9004046EEEF0A3EF0B
:10132000F07B057A0479647D0612021F1F7B057A23
:1013300004796C7D0412021F1F7F017E00020222CD
:1013400082120222C39004041FEFF07B837A087993
:1013500095120200D990040461E004F022120220E8
:101360008190040463EFF0E490040461F022F583BB
:10137000759304E09004041FF0120200D990040455
:1013800061E004F0227B837A08799C120200D92262
:1013900053B0EF7B837A067994120215467B837AE9
:1013A0000679E3120200D99004041F7483F0A37439
:1013B00007F0A37451F0A37483F0A37407F0A3742F
:1013C0005AF07B837A07792E1202154612021B3BD4
:1013D0007483F0A37413F0A37490F0797312021560
:1013E0001F9004048EF012021B3B7405F0A37403DB
:1013F000F0A37473F0F91202151F9004048FF07BB0
:10140000837A0779669004048E1202153B7B837AF7
:101410000779799004048F1202153B9004048EE042
:10142000D39408500CA3E0940850067F04120221C4
:10143000D01202222D9004041FEFF07B837A0779EB
:101440008C120200D97B837A0779BB120200D9E49F
:10145000FFFEFD80517F807E387D017C009004047A
:101460009012021B2E1202046C5046E47B107A2765
:10147000F9F812021B4C12020AAEAC00AD01AE022A
:10148000AF03EC4D4E4F700A7B837A0779CE120280
:1014900000D912021B4CE4FAF9F8EF2401FFEA3EEE
:1014A000FEE93DFDE83CFC90040490120204C88073
:1014B000A412021F9AEF60127B837A0779D012027E
:1014C00000D97F017E0012022282120222007B8359
:1014D0007A0779E7120200D9E49004048DF09004B1
:1014E000048DE0FFC39406502C120222A7EF601C6B
:1014F0009004048DE0FF2444F876017B837A077919
:10150000F5EF049004041FF0120200D99004048D3A
:10151000E004F080C97B837A0779FA020200D97B64
:10152000057A03120200D390040375E0C39430756A
:10153000F00AA4FFA3E0C394302F22E09004041F1C
:10154000F0120200D922120200D97B837A06799820
:10155000120200D9229004041374FFF090040413C3
:10156000E0640170034116ED12021702948940F8FD
:101570007409120216F0900403D1E0643A60177BFC
:10158000837A0A795412020B30900403D1E0FF12DF
:10159000020B5D7F90227B057A0379D21202211320
:1015A00090040412EFF07A0379D412022113EF7F32
:1015B00000FEC007C0067A0379D612022113EFFDA0
:1015C000D0E0FFD0E04D90040415CFF0A3EFF07A07
:1015D0000379D81202211390040413EFF09004044D
:1015E00012E025E0240290040414F0C39437400371
:1015F0007F90227F071202208190040414E0C364CC
:1016000080F8EF64809840EB7B057A0379DA9004E8
:101610000414E09004047FF07F07120221929004EA
:101620000415E0FAA3E0FBFFE42FFFE43AFEE43404
:1016300006FDE433FCA3120204C8EB54F070067FED
:101640002A12020B5D900403D07401F0E4900404AC
:1016500011F090040414E02409FFE433FE90040325
:10166000D0E0FDC39FEE6480F8748098505A74D126
:101670002DF9E43403FA7B05120221139004041BB4
:10168000EFF090040411E02FF090040413E0702EAA
:10169000900403D0E0C3940940249004041BE0FFAD
:1016A000C0079004041712020493E42FFFE43EFEE7
:1016B000ED3401FD1202227BD0E01202042C9004D2
:1016C00003D0E02402F0808A90040411E0600D7BD6
:1016D000837A0A796112020B307F9122120217027B
:1016E000948240F87402120216F041155C7F0022C9
:1016F0007B057A0379D19004047FF07F07120221E1
:1017000092227F0712022081C3EF6480229004049A
:10171000A3EFF0E075F080A42412F9740035F0FA1C
:10172000A3740512021EF812021EE8120222F178BA
:101730004FEFF620E003411895900404A3E0FE1259
:10174000021EB4E0FCA3E04C6003411895E6FF5490
:101750008E6007EF540E44D0FF22AF06120222C360
:10176000784EA60712021EE82437F8E66038784E55
:10177000E6FE12021F00F58375930412021ED9EED5
:101780001202042C12021EE82431F81674312FF8CC
:10179000E67094E0FF12021EB4E4F0A304F0743784
:1017A0002FF8E4F68081784EE6FF12021EC3120283
:1017B0001ED9EF1202042C12021EA72406F9E43AE5
:1017C000FAC003C002C00112021EC312021EABF90E
:1017D000D082D083D0E06B7008E965827003EA653F
:1017E00083600341172712021EE812021EC812026C
:1017F0001EABF912021F0012021E9AF9EF75F003D8
:10180000A42400F582E4340012021E9A2405120278
:101810001EEF784DF6C394214006E6D3942640038C
:101820007F832212021EA7240412021EEFFE547FA1
:10183000640160037F8422EE30E74512021EE82433
:1018400037F8760112021EB3E4F0A312021EA6249A
:101850000312021EEF60037F912212021EA72402D0
:1018600012021EEFFF900404A3E0FE2431F8A60745
:1018700074312EF8E6D3947A50034117277F9222D1
:1018800012021EE82437F8E4F612021EB3E4F0A3B5
:1018900004F04117277F04227B837A0A797390042E
:1018A000041F7440F0120219A77F4012020AF5903B
:1018B000040470EFF0A3E0FF120221D09004047042
:1018C000E060037F92227B837A0A7991120200D929
:1018D0007B837A0A7994120219A7E4FFFE7D40FC0B
:1018E00090040477120204C8E4FFFE7D06411984C7
:1018F000E4FFFE7D07FC90040473E0F8A3E0F9A385
:10190000E0FAA3E0FBC312020482400341199012E3
:1019100002226C2400FFE43EFEED3401FDE43C12A3
:1019200002227B1202041690040472F090040477E1
:10193000120204931202227B90040472E0FD120250
:101940000BA890040470EFF090040473A3A3E0FECE
:10195000A3E0FFEE540FFEE4FDFCFBFAF9F8C3121E
:1019600002048270067F2A12020B5D90040470E06C
:1019700060037F92221202226C2401FFE43EFEE407
:101980003DFDE43CFC90040473120204C84118F0CD
:1019900090040471E0FF120221D07B837A0A79AAB5
:1019A000120200D97F0022120200D91202222D90C9
:1019B000040471EFF07F01120221D022E47842F694
:1019C00008F678997C047D057B837A0879DDFE7FB3
:1019D0000412020529E49004049DF012021390C23F
:1019E00014301403411AA412021C79783DEFF6C397
:1019F0009480400412021AB530121690040319E0C4
:101A0000547FFFBF110B12020BCC7843E6700276B5
:101A10000112022010783FEFF6C3948040041202B6
:101A20001AB5E47841F67841E6FFC39406505A743B
:101A3000442FF8E6604E7841E6FF1202170D784019
:101A4000EFF6C394804006E6FF120211437841E6A8
:101A5000FF12021B5CE0FCA3E04C6028E612021AB5
:101A6000F9783EF6EF75F080A42412F9740035F091
:101A7000FA7B05E6FD12021F1F7841E612021B5C8D
:101A8000E4F0A3F0784106809D7843E664016003AA
:101A90004119E17B837A0879B7120200D97843763D
:101AA000024119E17B837A0879CB120200D9E478EC
:101AB00043F64119DFE6FF1202114322EB4FFFEA22
:101AC000FEE9FDE8FC120204C89004045BE0FBA3FD
:101AD000E0FAA3E022F9E43AFA12020416FFE4FC69
:101AE000FDFE229004046A7481F0A322EF4BFFEE06
:101AF0004AFEED49FDEC48FC22FE75F003A424618A
:101B0000F582E43403F583759304A3A3E0FD75F037
:101B100080EEA42412F582759304AE82C3ED9E225A
:101B200090040463E0FF90040461E022FDFCE0F80F
:101B3000A3E0F9A3E0FAA3E0FBC3229004041F741E
:101B400083F0A37407F0A37463F0A32290040490BD
:101B5000E0FCA3E0FDA3E0FEA3E0FF2225E0245586
:101B6000F582E43403F5837593042290040444F071
:101B7000E4A3F0A322781002020589781802020576
:101B8000897808020205899004045BA3E0FAA3E0C7
:101B900022F9E43AFA12020416FF229004045EEFDE
:101BA000F0229004049EEFF0E47825F6FFFEFDFCA1
:101BB000A3411C6F7FA07E867D017C009004049F62
:101BC000E0F8A3E0F9A3E0FAA3E0FBC31202048269
:101BD0004003411C767F07120222F17826EFF6308F
:101BE000E0407F07120222C37823A60778257601FA
:101BF000E4FFFEFDFC9004049F120204C812021FC1
:101C00000D120222B6D3EF648094BE50F012021F70
:101C10000D7B007A007923900404887401F012028D
:101C200020CB12021F0D120222F17826EFF630E0CF
:101C30001812021F0D120222C37824A6077B007A15
:101C40000079247D0112021F1F7825E67003411BD5
:101C5000B49004049FE0FCA3E0FDA3E0FEA3E02415
:101C600001FFE43EFEE43DFDE43CFC9004049F12D1
:101C70000204C8411BB47F01227F07120222F178BF
:101C800055EFF620E003411D3E301203411D3EE6B4
:101C9000FF548E6007EF540E44D0FF227F071202DC
:101CA00022C3900404AAEFF030111BE0FF9004035C
:101CB0001212021ED9EF1202042C782D16E670B90A
:101CC000D212C21180B3900404AAE0FF782E8603DA
:101CD000080806E618860270010614F9EF120204DD
:101CE0002C12021F1474059004031B6B7008E96525
:101CF000827003EA6583708112021F14900403123C
:101D000012021EF7782E76050876030876159004E1
:101D10000319E030E721D211C21290040318E060E9
:101D2000037F912290040317E0782DF6D3943A5064
:101D300003411C797F9222C211D212411C797F0487
:101D400022EF3395E0FEEFC4F8540FC868FFEEC4ED
:101D500054F048FE3395E0FD227B617A00E41202E4
:101D6000042C0974071202042C0974800202042C4A
:101D7000EF2405FFE43EFEED3461FDA907AA06ABA2
:101D80000502020416790074021202042C09E4020E
:101D900002042CEBF0A3EAF0A3E9F0EF75F010A435
:101DA000FFE42FFFE435F0FEE43461FDE433FC2270
:101DB00090040495A3E0FDA3E0FEA3E0F9227909D5
:101DC00074100202042C1202041644801202042C25
:101DD0001974030202042CE0FBA3E475F001120263
:101DE0000456A9F0FA221202042C79040202041605
:101DF000EF14602514603814604F14606614607D21
:101E000024056003411E99790112021D5912021D19
:101E10008512021DBE7904807C791112021D597948
:101E20001012021D87791912021DC0791480667B79
:101E3000617A00792112021D5D792012021D8779D5
:101E40002912021DC07924804C7B617A00793112FD
:101E5000021D5D793012021D87793912021DC07989
:101E60003480327B617A00794112021D5D79401223
:101E7000021D87794912021DC0794480187B617A5E
:101E800000795112021D5D795012021D8779591295
:101E9000021DC0795412021DC622F583759304EB0E
:101EA000F0A3EAF0A3E9F0900404A4E0FBA3E0FAB5
:101EB000A3E022EF25E02455F582E43403F5837591
:101EC000930422900404A3E075F003A42400F58297
:101ED000E43400F58375930422E0FBA3E475F0017C
:101EE00012020456A9F0FA22900404A3E0FF22F99A
:101EF000E43AFA02020416EBF0A3EAF0A3E9F022B6
:101F0000EF75F003A42461F582E434032290040405
:101F10009EE0FF22782E860308E6FA08E6F922AF53
:101F2000057850A607900404A712021EF77850E621
:101F300060587F07120222B67852EFF6D3943E50D3
:101F4000ECC37440785296C39401FF18F618E6FE6D
:101F5000EFC39E900404A7E0FB501FA3E0FAA30880
:101F600012021F8B7851E6FFC318E69FF690040417
:101F7000A8E48FF01202044080B3A3E0FAA37850E3
:101F800012021F8BE47850F680A322E0F9E6900459
:101F90000488F07F07120220CB227B617A00798DC2
:101FA0001202041664287065798A74FF1202042CE8
:101FB000798E74011202042CF912021D5D12021DA9
:101FC0008512021DBE790412021DC6790874C5125D
:101FD00002042C790B742012021DE654FB12020439
:101FE0002C79091202041644D012021DE644021292
:101FF00002042C798EE41202042C790874C01202B7
:10200000042C790B743C1202042C7F00227F0122E5
:102010002012037F012290040319E0547F784AF6CE
:10202000C394214007E6FED3942640037FA122C338
:10203000EE9421784BF690040312A3A3E0C3941509
:1020400008F6D3943F400618E624A2FF22784BE618
:10205000FF120222B6C3743F9FFF784CE6FEC364B2
:1020600080F8EF64809840E5784BE6FF7B057A03C3
:10207000791590040488EEF0120220CBC2127F0280
:102080002212021D41FCEF240BFFE43EFEED346101
:10209000FDE43CFC90040495120204C812021DB039
:1020A00012021D7D90040494F0E4FFFE0FBF0001B6
:1020B0000EEF640A4E70F512021DB012021D7DFF74
:1020C00090040494E0B507D4E0FF22900404851244
:1020D000021D9390040489120204C8E47854F69017
:1020E000040488E0FF7854E6C39F502690040485DA
:1020F00012021DD712020416FFC0079004048912B1
:10210000021DB4AA06AB05D0E01202042C785406D6
:1021100080CD22E4FF7E04EE64FC603612020416D9
:10212000FDC3648094C15007C3ED9430FD800A1252
:10213000020416C39441240AFDEDA806088002C3D8
:1021400033D8FC4FFF740129F9E43AFA74FC2EFEEF
:1021500080C522C0E8C2EDC000C001FF74141200A7
:102160002547E820E0F6D001D000E4FBFA7418120D
:1021700000254BEF0303FF5407F9E5F0541F232319
:102180002349F9EF54C04402F874141200254BD0CF
:10219000E8229004047C12021D9390040480120231
:1021A00004C8E47853F69004047FE0FF7853E6C354
:1021B0009F501CA312021DB412021D7DFF90040447
:1021C0007C12021DD7EF1202042C78530680D7220E
:1021D000EF14602814601624FE702475C48275C440
:1021E0008A75C49AE59130E3FB75C41A2275C482DE
:1021F00075C492E59130E3FB75C4122275C4822246
:10220000E4900404ABF0900404ABE0FF120222DB84
:10221000EF600C900404ABE0FF120222C380E79051
:102220000404ABE004F0E0C3940840DA22E5C454AF
:10223000C860102480601024F8600C2480700C7F2B
:1022400004800A7F0280067F018002E4FF22C0072B
:10225000AF0512021D41E42FFFE43EFEED3461FDA7
:10226000A907AA06AB05D0E00202042C900404736F
:10227000E0FCA3E0FDA3E0FEA3E022A907AA06ABD1
:1022800005227B837A0B79859004041FEEF0A3EF7F
:10229000F0120200D980FE7402F0A3E595F0A3E5E8
:1022A00085F0A3E584F02212021D41EF24061202FC
:1022B0001D735410FF2212021D41EF240A12021D49
:1022C00073FF2212021D41E42F12021D73FF227BB5
:1022D000617A00798A74FF0202042C12021D4112F5
:1022E000021D705401FF2275C7AA75C75543D80255
:0C22F0002212021D4112021D70FF22226A
:00000001FF
