:020000040000fa
:08000000000c040000000000e8
:020000040000fa
:08020000000c000001000000e9
:020000040000fa
:101800002fe920000e7f21000e018800000000005b
:101810000c00070080df24000100200011000700f9
:10182000000020000000e000020032000000020082
:10183000000000005a250200000000000040da000d
:101840000000fe004440a900802320000000e000ca
:101850000300320000002000a00188004440a800de
:101860000000060091018800800078000000eb0075
:1018700015003700e280400032a0b4009101ba00a8
:10188000e280400032a0b4009102ba00e280400041
:1018900032a0b4000002eb00472bde00f507b200d7
:1018a000602ce10004003a000059eb008301e900dc
:1018b000fdff3e00040037006128e1000100320016
:1018c0000082eb00040007001101ba000200e000f2
:1018d000e8ff3a00000006003159ba008301e90030
:1018e0000c0032002159ba008301e90008003200df
:1018f0000400e00003003a00e280400032a0b4009f
:10190000f5ff370011d9ba008301e900faff3a0068
:101910008100e800e180400032a0b4000000060031
:101920003200f800023b8800910188000008bb00eb
:101930000500fc0051052000313b8800a10a200071
:10194000313b880061e7a8000000000000000000b3
:101950003200f900000006000400a1000100370079
:101960000400a0003200f80091018800110024005a
:10197000013b8800f10f20003208bb000400a700e3
:10198000b20078000198bb008301e900faff3a0039
:10199000680151000400a700680151006800500070
:1019a0001208bb00e2ff3700f30f20003200f800fe
:1019b0009101880031002400013b88000208bb002f
:1019c0000388bb00daff37003200f800003b8800d4
:1019d000d7ff37003200f8009101880080027800bc
:1019e00062004000e08048003549ba003204e0005f
:1019f0000410a700100032008301e9000e0032003d
:101a00002549ba003204e0000410a7000a003200a1
:101a10008301e900080032000408a300eeff320051
:101a200015c9ba003204e0000410a7000200320019
:101a30008301e900e8ff3a003200f90000000600e7
:101a4000020007000400be00000006006022b8008b
:101a5000060220000000d0008180d2000482d20063
:101a60008582d2000000a0000202520083825a0048
:101a7000030031000202420083824a000000a100fc
:101a80000603e900f3ff3a0000000600889fbe004d
:101a90008a9fbe00010578000100e00004003500c7
:101aa00008003c000000e000200032000500370084
:101ab00060001000e080180002003b0001f02c00e4
:101ac0001a0037000004be006011b8006b09200046
:101ad0000982cf00020039000882cf000441b00023
:101ae000694252000e00320008003b008281710002
:101af000610164008904d1000884d3008b05e800eb
:101b00000442e800f9ff3a000500370008044400e9
:101b100089844c008b05e9000442e900fbff3a0090
:101b20009c0007000af0a70001f0a0004f05be00ce
:101b30004f04be0000000600889fbe008a9fbe00c2
:101b40008c1f7800b9000700c000330003866c00ca
:101b50006450e1002e0032006420e10033003200c6
:101b60006150e1002f0032006120e10031003200bd
:101b700085855500eb07b00009002000080420000f
:101b8000050037000804440089844c000a00310035
:101b90000603430087834b000001530081815b00f3
:101ba000f8ff33000203be000800a0000804440050
:101bb00089844c00f6ff3900c639dd0083017300cb
:101bc00001003200130020008904d1000884d300f2
:101bd0000998a300050032000800a7000300a00038
:101be0008904d1000884d3008b05e8008904d10062
:101bf0000884d3000001eb000281d20065000700d9
:101c000001f0a1000cf0a70001f0a000980037003f
:101c10006420e1009a0032000801be000200be000c
:101c2000f7ff37006120e100950032006000b80046
:101c3000f3ff37000000200001f82700f0ff370015
:101c4000889fbe008a9fbe008c1f78007700070027
:101c50007e00330003866c006450e10024003200f3
:101c60006420e100270032006150e10022003200d0
:101c70006120e100210032008b854200eb07b100ba
:101c80000134b800003ab8000804420089844a00d0
:101c9000013ab8000030b8008880400009014a00cd
:101ca0000400330000004000818048000201490028
:101cb0008b05e900c909dd008301700001003200d5
:101cc00013002000c814de004814dd004709de00c0
:101cd0001200b200c808de00088470002d00070062
:101ce00001f0a1000cf0a70001f0a0006000370097
:101cf0006120e100620032000801be000200be0067
:101d0000f7ff37006150e100fcff3a005c0037004c
:101d10000001be005d0007000470a70003f0a100f1
:101d20006509b100160032000d0035006828e10099
:101d300006003500f0ff2f00f1ff27000300e00050
:101d400013003b00010028000000050000004000d7
:101d5000818048008502e900fcff3a000800370056
:101d6000f88f420002003c008000eb0000000500fc
:101d70008100d1000080d3008502e800fcff3a001a
:101d80000300e00002003b0060001000e08018004b
:101d90000000060081002000618055000b003d001e
:101da0000b00200061fe2f000100e1001d00340047
:101db00082817100610164008904d1000884d3002c
:101dc0000000e800faff3a007100200061006400a2
:101dd000030070000200600009003200610444004a
:101de000e0844c000988a500050032008b05e8005e
:101df0006808e10002003a008904d1000884d30099
:101e0000f20f20000258e10005003d00c75ddd0033
:101e1000f907b2008980750008007800000006000c
:101e20000bf827008b007800000005000004be00be
:101e3000160007000003be000405be000200be003d
:101e400012000700844f7500000006000200be006b
:101e50006450e100050036006420e1000200360015
:101e60000968a30001003a000800be000160a0005c
:101e70004f0678004f05be004f04be00000006006c
:101e8000f0ff2f00f1ff2700f9ff3700c70ade003f
:101e9000f107b200f50fb20008003200e1cf4200b6
:101ea000020032000170a00024000500810f7000c4
:101eb000010032000408050044000500810f700095
:101ec00002003a00140005008502e900000040000d
:101ed00081c04800fcff3b000170a0002400050009
:020000040000fa
:0200000401f009
:04000c007aff000077
:020000040000fa
:0200000401f009
:040010005eff00008f
:020000040000fa
:0200000401f009
:040014007fff00006a
:020000040000fa
:0200000401f009
:04001800ffff0000e6
:020000040000fa
:0200000401f009
:04001c00dfff000002
:020000040000fa
:10000800e4520000e4520000e4520000e452000010
:10001800e4520000e4520000e4520000e452000000
:10002800e4520000e4520000e4520000e4520000f0
:10003800e4520000e4520000e4520000e4520000e0
:10004800e4520000e4520000e4520000a81100004d
:10005800c4110000e4520000e4520000e452000021
:10006800e4520000e4520000e4520000e4520000b0
:10007800e4520000e4520000e4520000e4520000a0
:10008800e4520000e4520000e4520000e452000090
:10009800e4520000e4520000e0110000fc110000ee
:1000a800e4520000e4520000e4520000e452000070
:1000b800e4520000e4520000e4520000e452000060
:1000c800e4520000e4520000e4520000e452000050
:1000d800e4520000e4520000e4520000e452000040
:1000e800e4520000e4520000e4520000e452000030
:1000f800e4520000e4520000e4520000e452000020
:10010800e452000018120000e4520000e45200001b
:10011800e4520000e4520000e4520000e4520000ff
:10012800e4520000e4520000e4520000e4520000ef
:10013800e4520000e4520000e4520000e4520000df
:10014800e4520000e4520000e4520000e4520000cf
:10015800e4520000e4520000e4520000e4520000bf
:10016800e4520000e4520000e4520000e4520000af
:10017800e4520000e4520000e4520000e45200009f
:10018800e4520000e4520000e4520000e45200008f
:10019800e4520000e4520000e4520000e45200007f
:1001a800e4520000e4520000e4520000e45200006f
:1001b800e4520000e4520000e4520000e45200005f
:1001c800e4520000e4520000e4520000e45200004f
:1001d800e4520000e4520000e4520000e45200003f
:1001e800e4520000e4520000e4520000e45200002f
:0801f800e4520000e452000093
:020000040000fa
:10020800e4520000e4520000e4520000e45200000e
:10021800e4520000e4520000e4520000e4520000fe
:10022800e4520000e4520000e4520000e4520000ee
:10023800e4520000e4520000e4520000e4520000de
:10024800e4520000e4520000e4520000a81100004b
:10025800c4110000e4520000e4520000e45200001f
:10026800e4520000e4520000e4520000e4520000ae
:10027800e4520000e4520000e4520000e45200009e
:10028800e4520000e4520000e4520000e45200008e
:10029800e4520000e4520000e0110000fc110000ec
:1002a800e4520000e4520000e4520000e45200006e
:1002b800e4520000e4520000e4520000e45200005e
:1002c800e4520000e4520000e4520000e45200004e
:1002d800e4520000e4520000e4520000e45200003e
:1002e800e4520000e4520000e4520000e45200002e
:1002f800e4520000e4520000e4520000e45200001e
:10030800e452000018120000e4520000e452000019
:10031800e4520000e4520000e4520000e4520000fd
:10032800e4520000e4520000e4520000e4520000ed
:10033800e4520000e4520000e4520000e4520000dd
:10034800e4520000e4520000e4520000e4520000cd
:10035800e4520000e4520000e4520000e4520000bd
:10036800e4520000e4520000e4520000e4520000ad
:10037800e4520000e4520000e4520000e45200009d
:10038800e4520000e4520000e4520000e45200008d
:10039800e4520000e4520000e4520000e45200007d
:1003a800e4520000e4520000e4520000e45200006d
:1003b800e4520000e4520000e4520000e45200005d
:1003c800e4520000e4520000e4520000e45200004d
:1003d800e4520000e4520000e4520000e45200003d
:1003e800e4520000e4520000e4520000e45200002d
:0803f800e4520000e452000091
:020000040000fa
:101ee0000d0a00000a430000616700006520000041
:101ef000576100006c6b0000657200002044000018
:101f00004320000053650000727600006f2000003f
:101f10004d6f0000746f000072200000436f0000de
:101f20006e740000726f00006c6c0000657200003f
:101f30000d0a0000000d00000a45000045440000a5
:101f40006174000061200000766100006c6900008f
:101f5000640000000d0a00004e6f000020450000e4
:101f60004544000061740000610000000d0a00009b
:101f7000532f00004e3a0000092500006c75000048
:101f8000000d00000a500000494400003a0900001a
:101f90004b700000203d000020250000642c000054
:101fa000204b0000692000003d2000002564000057
:101fb0002c2000004b640000203d00002025000084
:101fc000642c0000204900006c2000003d2000002f
:101fd000256400002c20000064740000203d0000f7
:101fe00020250000640000000d0a00004d6f000075
:101ff00076650000733a000009560000656c000029
:10200000203d0000202500006c6400002c20000012
:1020100041630000632000003d200000256c0000ab
:10202000642c000020420000636b00006c73000011
:10203000680000000d0a00004a6f0000677300008e
:102040003a090000566500006c2000003d200000a9
:10205000256c0000642c0000204100006363000038
:10206000203d0000202500006c6400002c200000b2
:102070005374000065700000203d00002025000022
:102080006c640000002c0000204a00006f67000014
:102090004d6f000064650000203d00002025000019
:1020a000642c000020530000746f0000704d00008d
:1020b0006f640000652000003d20000025640000e2
:1020c000000d00000a4800006f6d0000653a000036
:1020d00009560000656c0000203d0000202500002e
:1020e0006c6400002c2000004f6600006673000046
:1020f000203d0000202500006c640000002c000042
:102100002044000069720000203d000020250000ee
:10211000632c0000204c0000696d00005357000044
:10212000203d000020250000630000000d0a000093
:10213000000000000d0a0000485300007461000018
:1021400072740000000d00000a480000476f000094
:10215000546f00004c6900006d0000000d0a000083
:1021600048530000746f000070410000744c000080
:10217000696d0000000d00000a480000476f000074
:10218000546f0000486f00006d650000506f000044
:10219000733a0000206f000066660000736500005f
:1021a000742000003d200000256c00006400000049
:1021b0000d0a0000484d00006f760000654f0000da
:1021c000757400004f6600004c6900006d690000e6
:1021d000740000000d0a000048530000746f0000f6
:1021e000704f0000757400007369000064650000a2
:1021f0004c6900006d690000740000000d0a0000c9
:10220000484300006f6d0000706c000065740000b2
:102210006564000000000000c07a0000f2040000c5
:102220004d46000046300000303200000000000043
:1022300010000000030000000100000041500000f9
:1022400054200000466900006c74000065720000b4
:10225000204600006c69000070700000657200008c
:10226000000000000000000000000000000000006e
:10227000000000000000000000000000000000005e
:10228000000000000000000000000000000000004e
:10229000000000000000000000000000000000003e
:1022a000000000000000000000000000000000002e
:1022b0000800000002000000000000000100000013
:1022c0004404000001000000015000000d0a00005d
:1022d00045720000726f00007200000020000000d4
:1022e0004545000057720000697400006500000059
:1022f00045450000566500007269000066790000df
:1023000000810000040e0000008100005000000069
:1023100000000000000000000000000000000000bd
:10232000000000000000000000000000303100004c
:1023300032330000343500003637000038390000f1
:1023400041420000434400004546000000000000f8
:020000040000fa
:102350003600f800809fbe00829fbe00849fbe00b2
:10236000869fbe000000fa00ba1e07000080fa0037
:102370004f03be004f02be004f01be004f00be0023
:102380003600f900004006003600f800809fbe00cd
:10239000829fbe00849fbe00869fbe000000fa00a0
:1023a000e21e07000080fa004f03be004f02be008d
:1023b0004f01be004f00be003600f900004006008d
:1023c0003600f800809fbe00829fbe00849fbe0042
:1023d000869fbe000000fa009b1d07000080fa00e7
:1023e0004f03be004f02be004f01be004f00be00b3
:1023f0003600f900004006003600f800809fbe005d
:10240000829fbe00849fbe00869fbe000000fa002f
:10241000c41d07000080fa004f03be004f02be003b
:102420004f01be004f00be003600f900004006001c
:102430003600f800809fbe00829fbe00849fbe00d1
:10244000869fbe000000fa00041c07000080fa000e
:102450004f03be004f02be004f01be004f00be0042
:102460003600f900004006000000fa0040a7a9006d
:102470004c200700311f0700621e070000202c00bf
:1024800011002000531d0700c41c0700bf1f0700d8
:10249000ee1c070020200700092007000080fa003a
:1024a000000006002800fa0060162900801f78004e
:1024b0000e007800891507008f87e9000e0078006c
:1024c000161407000080fa0000000600a600fa00bb
:1024d000881f78000000eb00300f98000000eb0030
:1024e0007007980040c4200010007800500f98003a
:1024f000200220000e00400000179800200220005b
:102500000e00400066004000700f9800a0c420003c
:10251000600f98000e109000e30040000040eb00b8
:10252000804878000e109000e400400010c0b30016
:10253000804878000e109000e500400000c5b30010
:10254000804878000040eb00405798005e089000fb
:102550002097980000442000ae909000808f50009b
:102560004e033200004420002e919000800f510055
:1025700071003e0000412000ae919000808f51001c
:102580009d01320000412000ae909000808f5000ed
:1025900031003e002e919000f50f5100ed07320002
:1025a000ae919000f58f510011003e002e909000ea
:1025b000f10f50002f013200ae909000f18f5000cb
:1025c00004003e002e919000e50f5100d60032002d
:1025d00007083700ae919000f28f51002b013200b6
:1025e0002e909000f40f5000b30632000008370020
:1025f00030222000ae909000808f500013013200f6
:10260000302220002e919000800f510009003e00e2
:1026100000212000ae919000808f51001d013200fa
:1026200010212000ae909000808f50003a013200bf
:10263000ef073700904020002e919000800f51004e
:102640006d013200a0402000ae919000808f5100bb
:102650004b013200e607370070412000ae90900039
:10266000808f500003023200704120002e919000b4
:10267000800f510016003e0030412000ae919000c6
:10268000808f5100b701320030412000ae909000a1
:10269000808f500005003e00104120002e919000d8
:1026a000800f510072013200d107370040412000f5
:1026b000ae919000808f5100b50132006041200042
:1026c000ae909000808f5000d4013200c8073700d0
:1026d000904220002e919000800f5100880132001e
:1026e00090422000ae919000808f510009003e0082
:1026f00030422000ae909000808f50000b023200dc
:10270000404220002e919000800f51005a0232006a
:10271000b7073700a0432000ae919000808f510092
:1027200054033200b0432000ae909000808f5000e0
:102730005e033200ae073700a04620002e919000c5
:10274000800f51007b043200a0462000ae91900023
:10275000808f510038003e0080442000ae909000f1
:10276000808f50008b033200804420002e91900017
:10277000800f510016003e0030442000ae919000c2
:10278000808f51002f03320030442000ae90900023
:10279000808f500005003e00104420002e919000d4
:1027a000800f5100ea0232009107370050442000a8
:1027b000ae919000808f510056033200604420009b
:1027c000ae909000808f5000580332008807370089
:1027d000304520002e919000800f5100d60332002a
:1027e00030452000ae919000808f510009003e00de
:1027f00000452000ae909000808f5000ac03320066
:10280000104520002e919000800f5100af03320040
:102810007707370070452000ae919000808f5100ff
:102820000104320050462000ae909000808f50008e
:102830002a0432006e073700104a20002e919000c3
:10284000800f5100c5043200104a2000ae91900064
:10285000808f51001a003e0000482000ae9090008a
:10286000808f500020013200004820002e919000ff
:10287000800f510009003e00b0462000ae9190004c
:10288000808f51007d043200c0462000ae90900041
:10289000808f50007b04320055073700204820000d
:1028a0002e919000800f510012013200004a20004a
:1028b000ae919000808f5100740432004c073700b5
:1028c000904b2000ae909000808f50003505320074
:1028d000904b20002e919000800f510009003e0087
:1028e000304b2000ae919000808f5100c704320021
:1028f000404b2000ae909000808f5000ed043200dd
:102900003b073700005120002e919000800f5100ae
:102910008b05320010512000ae919000808f510045
:10292000b0053200320737008e10900060002000a2
:10293000800878000e1090008080e80040c5b30049
:10294000804878000e109000640140000e10900046
:10295000640040009040780000c8b30000c07000e0
:10296000004978007e089000c11029002900090064
:10297000311878004005b1007e099000005e8000ab
:10298000115e80000089be00fe08900080002000db
:10299000e0209800fe08900010c3b300a0c098008b
:1029a000fe08900040c3b300b0c09800fe0890003d
:1029b00010c3b300c0c09800fe08900020c3b3004d
:1029c000d0c098007e0990001297980001c2b30011
:1029d00000c2b30080cf50000300320003c2b30036
:1029e000036799000200370000c3b3000067990035
:1029f0000e6191009e909000e2c09800fe08900049
:102a000010c3b300f0c09800fe08900040c4b300ab
:102a100080c89800fe08900050c6b30090c8980087
:102a2000fe08900030c6b300a0c89800fe089000d1
:102a30000040eb00b0c8980010c0b30040579800a9
:102a400020002000a0738800eb063700c05f8000e4
:102a500001202000010060000000e00002003200c0
:102a6000300020001e09070010002000504388009d
:102a7000e106370022e8a8000000eb00e0408800f3
:102a8000803e2000661b0700db06370022e8a90015
:102a9000d906370047ccbf008000fb00f00f2000b4
:102aa00000806000e10f50000e003a00e21629009d
:102ab000010028000000eb00a5070700304080005f
:102ac00041408000706a8800816a88006000b80018
:102ad000906a8800a16a8800a01b07002308a8004c
:102ae000c506370010418000014020000100600051
:102af0000000e000c0063a002308a90020002000e2
:102b0000d040880040002000506a88002348a90077
:102b1000a51b0700b80637008e109000202120006a
:102b2000800878000e1090008080e80010c0b3008c
:102b3000804878000e10900063004000708f98006d
:102b40001141800000102000008060000000e000c3
:102b50000300320013c0b300435f99000200370046
:102b600020c0b300405f99004e599100fe8890004c
:102b70008248780010c0b300405798009e06370086
:102b80008e109000b0402000800878000e10900059
:102b90008080e80060c0b300804878000e1090008c
:102ba000640140000e1090006400400090407800e6
:102bb00000c8b30000c0700000497800fe08900013
:102bc00010002000800878003040800041408000e4
:102bd000000f9800110f98007e0890000e099000d9
:102be0009e099000120098002300980010c0b300c6
:102bf0004057980080063700de0890009040200083
:102c0000808f500006003a006e089000100190007e
:102c1000a0019000428f9800538f98000500370064
:102c20006e08900010019000a0019000428f980063
:102c3000538f98004e889000de889000000f980017
:102c4000110f98000e0890009e0890008919070047
:102c50000e0990009e099000726a8800836a8800bd
:102c60006000b800906a8800a16a88006206370098
:102c70008e10900020412000800878000e109000f7
:102c80008080e80060c0b300804878000e1090009b
:102c9000640140000e1090006400400090407800f5
:102ca00000c8b30000c0700000497800fe08900022
:102cb00010002000800878003040800041408000f3
:102cc000000f9800110f98007e0890000e099000e8
:102cd0009e099000120098002300980010c0b300d5
:102ce0004057980044063700104820005b06070054
:102cf000410637000000eb00e04088003e06370048
:102d00008e109000a0422000800878000e109000e5
:102d10008080e80060c0b300804878000e1090000a
:102d2000640140000e109000640040009040780064
:102d300000c8b30000c0700000497800fe08900091
:102d400010002000800878007e0c90007c060700b0
:102d5000100498002104980010c0b3004057980058
:102d6000250637006e089000c000900030009000eb
:102d7000705e8800815e88006e089000e000900020
:102d800050009000905e8800a15e88001a0637000f
:102d90008e10900050412000800878000e109000a6
:102da0008080e800e0c0b300804878000e109000fa
:102db000640140000e1090006400400090407800d4
:102dc00000c8b30000c0700000497800fe08900001
:102dd00010002000800878007e0990006000b80094
:102de00010019800210198007e099000705e80001b
:102df000815e800030019800410198007e099000ba
:102e0000905e8000a15e80005001980061019800f2
:102e100010c0b30040579800f70537006e089000c7
:102e200010009000b05e88006e089000b000900026
:102e300020009000c05e8800d15e88006e0890007f
:102e4000f000900060009000e05e8800f15e880075
:102e50006e0890009008900000089000005f8800c5
:102e6000115f88006e08900020089000205f8800a5
:102e7000e10537008e109000804120008008780026
:102e80000e1090008080e80060c1b3008048780098
:102e90000e109000640140000e109000640040008d
:102ea0009040780000c8b30000c07000004978006e
:102eb000fe0890001000200080087800fe089000b6
:102ec000b05e8000900098007e099000c05e800097
:102ed000d15e800020019800310198007e099000a9
:102ee0006000b80040019800510198007e099000f0
:102ef000e05e8000f15e8000600198007101980042
:102f00007e099000005f8000115f8000000998003a
:102f100011099800fe089000205f8000a00898002a
:102f200010c0b30040579800b30537006e089000fa
:102f300020009000308f9800be899000e38f5100f0
:102f4000180032003e889000e30f500007003e005a
:102f5000be889000e18f50000b0032003e89900047
:102f6000e20f51000b00320019003700be899000bb
:102f7000e48f51000f0032003e889000e50f5000b2
:102f80001000320012003700f80ba900f84ba9001e
:102f90000f003700f80ba800f84ba800f88ba8002a
:102fa0000b003700f80ba800f84ba800f88ba9001d
:102fb00007003700f80ba900f84ba800f88ba80011
:102fc00003003700f80ba900f84ba800f88ba90004
:102fd0006e08900010009000208f9800ae8890003e
:102fe000e38f5000180032002e899000e30f51004b
:102ff00007003e00ae899000e18f51000b003200c7
:103000002e889000e20f50000b0032007a05370046
:10301000ae889000e48f50000f0032002e8990009f
:10302000e50f51001000320073053700f82ba9009e
:10303000f86ba90070053700f82ba800f86ba80002
:10304000f8aba8006c053700f82ba800f86ba800b7
:10305000f8aba90068053700f82ba900f86ba800a9
:10306000f8aba80064053700f82ba900f86ba8009e
:10307000f8aba900600537008e1090005042200088
:10308000800878000e1090008080e80000c1b30036
:10309000804878000e109000640140000e109000ef
:1030a000640040009040780000c8b30000c0700089
:1030b00000497800fe089000100020008008780089
:1030c000c05f8000614060000080fb00c200dd0046
:1030d000c05f80004200de00614060000080fb00b5
:1030e0000000400080807000c05f80004500de006e
:1030f000614060000080fb0080807000118f9800ac
:103100009e899000e38f51001a0032001e889000c3
:10311000e30f500004003c009e889000e28f5000b6
:1031200010003200170037001e899000e60f510092
:10313000040032009e899000e78f510005003200a4
:1031400010003700fe08900020002000a00098002a
:103150000f003700fe08900030002000a00098000b
:103160000b003700fe08900040002000a0009800ef
:1031700007003700fe08900050002000a0009800d3
:1031800003003700fe08900010002000a000980007
:10319000c05f80000000d100614060000080fb0043
:1031a000c200dd00c05f80004300de0061406000bf
:1031b0000080fb000000400080807000c05f800045
:1031c0004500de00614060000080fb0080807000f0
:1031d000018f98000e889000e30f50001a00320013
:1031e0008e889000e38f500004003c000e89900010
:1031f000e20f510010003200170037008e89900056
:10320000e68f5100040032000e889000e70f500056
:103210000500320010003700fe089000200020005a
:10322000900098000f003700fe089000300020004a
:10323000900098000b003700fe089000400020002e
:103240009000980007003700fe0890005000200012
:103250009000980003003700fe0890001000200046
:10326000900098007e0990006000b800300198003e
:10327000410198007e0990006000b800500198005c
:1032800061019800fe0890000000eb00f00098003b
:1032900010c0b30040579800d70437006e08900064
:1032a000c000900030009000505f8800615f88008f
:1032b0006e089000e000900050009000905f880041
:1032c000a15f88006e089000100090008040eb0025
:1032d000714f9900e10f500002003a0012c0b30094
:1032e000724f9900fe4991000380fb00610060006d
:1032f0004601dd00c15f8000f0fb2f000080600010
:1033000002007000c05f88006e08900020009000ee
:103310008040eb00614f9900e40f500002003a003a
:1033200012c0b300624f9900ee4991000380fb0088
:10333000610060004701dd00c15f8000f0f72f00f1
:103340000080600002007000c05f8800aa0437009f
:103350008e10900020442000800878000e1090000d
:103360008080e800e0c0b300804878000e10900034
:10337000640140000e10900064004000904078000e
:1033800000c8b30000c0700000497800fe0890003b
:1033900010002000800878007e0890006087980068
:1033a000c15f800000042000008060000000e00099
:1033b00003003200110020005187980002003700fe
:1033c00022002000528798005e809000ee819000dd
:1033d00090019800fe08900041879800c05f80002f
:1033e00001082000010060000000e000030032003e
:1033f00042002000328798000200370013002000ae
:1034000033879800be8090004e8090002100980085
:103410007e099000505f8000615f8000300198005d
:10342000410198007e099000905f8000a15f8000bc
:10343000500198006101980010c0b30040579800f7
:103440006d04370010418000011020000100600071
:103450000000e0006804320022c8a900100020002b
:10346000d040880023e8a80022a8a8002268a9006c
:10347000610437006e089000a000900010009000da
:10348000305f8800415f8800305f8000415f8000ce
:10349000e00f5000e08f580057043d006000b80076
:1034a000305f8800415f8800530437008e10900021
:1034b000c0432000800878000e1090008080e80053
:1034c00060c0b300804878000e1090006401400096
:1034d0000e109000640040009040780000c8b300d7
:1034e00000c0700000497800fe0890001000200025
:1034f000800878007e099000305f8000415f800086
:10350000100198002101980010c0b30040579800a6
:10351000390437006e089000a00090001000900061
:1035200062e720000089be00330437008e1090004f
:1035300070442000800878000e1090008080e80021
:1035400060c0b300804878000e1090006401400015
:103550000e109000640040009040780000c8b30056
:1035600000c0700000497800fe08900010002000a4
:10357000800878007e09900060e720001000be00ff
:10358000100198002101980010c0b3004057980026
:103590001904370010418000011020000100600074
:1035a0000000e000140432001041800001002400fb
:1035b000010060000000e0000f043a00324080008b
:1035c00043408000020f9800130f980048ccbf00c2
:1035d0000004e0000a003d006e0890001001900019
:1035e000a00190000e0890009e089000000041008d
:1035f00081804900000f9800110f980008003700e3
:1036000060e720001001be000e0890009e089000a8
:103610000000410081804900000f9800110f9800c0
:1036200010002000506a88000e0890009e0890004c
:10363000706a8800816a8800726a8000836a8000ec
:103640003040800041408000800f5100818f590040
:1036500005003d00325f8000435f800012879800c4
:1036600023879800030037006000b8001087980097
:10367000218798001e819000ae819000926a880098
:10368000a36a8800705e8000815e8000b06a880056
:10369000c16a8800905e8000a15e8000d06a8800c8
:1036a000e16a880023e8a8002268a800d203370056
:1036b0006e089000a00090001000900062e72000cb
:1036c0002001980031019800cb0337008e10900044
:1036d00020452000800878000e1090008080e800cf
:1036e00060c0b300804878000e1090006401400074
:1036f0000e109000640040009040780000c8b300b5
:1037000000c0700000497800fe0890001000200002
:10371000800878007e09900060e72000b0009000eb
:1037200020009000100198002101980010c0b30003
:1037300040579800b003370010418000011020006e
:10374000010060000000e000ab0332001041800087
:1037500001002400010060000000e000a6033a0020
:1037600048ccbf000004e00006003d006e08900059
:1037700010019000a0019000020f9800130f980014
:103780000500370060e7200020019000b0019000a4
:10379000020f9800130f980050002000506a880014
:1037a0000e0890009e089000706a8800816a880068
:1037b000726a8000836a800030408000414080004f
:1037c000800f5100818f590005003d00325f80005d
:1037d000435f8000723f9800038798000300370022
:1037e0006000b800703f9800018798007e39900013
:1037f0008e819000926a8800a36a8800705e8000c3
:10380000815e8000b06a8800c16a8800905e800096
:10381000a15e8000d06a8800e16a88002268a80062
:1038200023e8a80074033700104180000110200035
:10383000010060000000e0006f03320010418000d2
:1038400001002400010060000000e0006a033a006b
:1038500047ccbf008000fb00f00f2000008060001c
:10386000e20f500005003a00305e8000415e8000ab
:10387000000f9800110f980004003700525e80007e
:10388000635e8000020f9800130f98005000200024
:10389000506a88000e0890009e089000706a8800a8
:1038a000816a88006000b800906a8800a16a880078
:1038b000705e8000815e8000b06a8800c16a880006
:1038c000905e8000a15e8000d06a8800e16a880076
:1038d00023e8a8002268a9004703370010418000b0
:1038e00001402000010060000000e00042033200bf
:1038f00047ccbf008000fb00f00f2000008060007c
:10390000e10f500003003a0040002000506a880098
:103910000200370030002000506a8800200020009c
:10392000d04088002268a9002288a80023e8a800c7
:103930003103370047ccbf008000fb00f00f2000b0
:1039400000806000e20f500026003a003041800005
:10395000e20f500002003a0010002000506a880078
:1039600030418000e40f500023033a00fb170700aa
:10397000b0fa2f00db1707000000eb00400f9800a3
:103980001300370010002000400f9800cac2bf008b
:103990000080fb004600de00614060000080fb000c
:1039a000300f98003e0890000000e0000500320053
:1039b00010002000304188002308a800c0fa2f0022
:1039c000400f98004e0890000000e800400f98005b
:1039d000ce089000a0fa2f00808f5000e9ff36003b
:1039e0000503370030418000e10f500002003a002b
:1039f00020002000506a880030418000e40f500011
:103a0000fd023a00d517070050052000b517070042
:103a10000000eb00400f980013003700100020005a
:103a2000400f9800cbc2bf000080fb004500de00c5
:103a3000614060000080fb00300f98003e0890005d
:103a40000000e00005003200200020003041880026
:103a50002308a800c0fa2f00400f98004e089000dd
:103a60000000e800400f9800ce089000a0fa2f0058
:103a7000808f5000e9ff3600df0237002248a9009e
:103a8000dd0237002248a800db0237006e089000f4
:103a900010089000600798006e00900061006000c0
:103aa0000004e000040032006e08900080089000de
:103ab00070009000807388006e0090004300de006c
:103ac000610060000004e000040032006e08900015
:103ad000a000900010009000507388006e009000cd
:103ae0004200de00610060000004e00004003200db
:103af0006e089000c0009000300090006073880055
:103b00006e0090000000d100610060000004e00041
:103b1000040032006e089000e00090005000900019
:103b2000707388006e009000c880de00f00f2000e7
:103b300000806000907388008038210080738800c6
:103b4000401f2000507388000000eb006073880065
:103b50000000eb0070738800a70237008e10900001
:103b6000204a2000800878000e1090008080e80035
:103b700040c1b300804878000e10900064014000fe
:103b80000e109000640040009040780000c8b30020
:103b900000c0700000497800fe089000100020006e
:103ba000800878007e09900080738000cf80de005e
:103bb00070019800010998007e0990005073800000
:103bc000cf80de0010019800210198007e0990004e
:103bd00060738000cf80de003001980041019800c2
:103be0007e09900070738000cf80de005001980045
:103bf00061019800fe089000907380009008980082
:103c000010c0b300405798007b0237006e08900048
:103c1000100090000000d100614060006140600031
:103c2000614060000080fb00610060004801dd0031
:103c3000c15f8000f0ef2f00008060000200700084
:103c4000c05f88006e089000100090006140600026
:103c500061406000614060000080fb006100600026
:103c60004901dd00c15f8000f0df2f0000806000af
:103c700002007000c05f88006e0890001000900085
:103c80004300de0061406000614060006140600010
:103c90000080fb00610060004a01dd00c15f800020
:103ca000f0bf2f000080600002007000c05f88003d
:103cb000510237008e109000504b20008008780091
:103cc0000e1090008080e80040c0b300804878006b
:103cd0000e109000640140000e109000640040003f
:103ce0009040780000c8b30000c070000049780020
:103cf000fe0890001000200080087800fe08900068
:103d00000000eb0090009800c15f800000102000d0
:103d1000008060000000e00005003200fe08900016
:103d20007e089000100090000010a0009000980005
:103d3000c05f800001202000010060000000e00062
:103d400005003200fe0890007e08900010009000f0
:103d50000000a00090009800c05f8000014020009b
:103d6000010060000000e00005003200fe08900045
:103d70007e089000100090000030a0009000980095
:103d80007e0990007e08900090009000f0fe2f00c9
:103d9000008070001001980010c0b30040579800d8
:103da0001502370000502500010020004007980050
:103db0005107980000872000300798002204240053
:103dc0004e009000de009000d5f607001042800003
:103dd00021428000405d8800515d880030428000b3
:103de00041428000605d8800715d88005042800023
:103df000805d880060428000905d88007042800095
:103e000081428000a05d8800b15d88009042800002
:103e1000c05d8800a0428000d05d8800b042800074
:103e2000c1428000e05d8800f15d880050a52a0055
:103e3000205e8800405d8000515d800080438800e6
:103e4000405d8000515d80004088de00cf80de0054
:103e500090438800605d8000715d8000a043880011
:103e6000605d8000715d80004088de00cf80de00f4
:103e7000b0438800805d8000c0438800905d800072
:103e8000d0438800a05d8000b15d80008000780094
:103e90000080eb0000806000e0438800a05d8000af
:103ea000b15d80004088de00cf80de00f0438800f6
:103eb000c05d800000448800d05d80001044880010
:103ec000e05d8000f15d8000800078000080eb0004
:103ed0000080600020448800e05d8000f15d80008b
:103ee0004088de00cf80de0030448800005e800025
:103ef000115e8000800078000080eb000080600090
:103f000040448800005e8000115e80004088de0032
:103f1000cf80de005044880050a52a00205e880033
:103f200050a52a0060448800030420003e01900050
:103f30004e009000de00900087f60700ae013700cb
:103f40006e089000a00090001000900010428800c1
:103f5000214288006e089000c00090003000900060
:103f600030428800414288006e0890005000900066
:103f7000504288006e089000600090006042880007
:103f80006e089000800890007000900070428800d9
:103f9000814288006e0890001008900090428800ce
:103fa0006e08900020089000a04288006e089000e3
:103fb000c008900030089000b0428800c1428800dc
:103fc00050428000d042880090428000e042880049
:103fd000304280004142800060418800af04070009
:103fe000850137008e109000205120008008780055
:103ff0000e1090008080e80020c2b3008048780056
:104000000e109000640140000e109000640040000b
:104010009040780000c8b30000c0700000497800ec
:10402000fe08900010002000800878007e099000b3
:104030001042800021428000100198002101980068
:104040007e0990003042800041428000300198009b
:1040500041019800fe08900050428000d000980076
:10406000fe08900060428000e00098007e09900009
:104070007042800081428000700198000109980020
:10408000fe0890009042800090089800fe08900082
:10409000a0428000a00898007e099000b0428000f5
:1040a000c1428000300998004109980010c0b30057
:1040b00040579800500137006e0890001000be0075
:1040c000603f9800ee389000e98f5000d200320037
:1040d0006e399000e90f510017003c00ee39900056
:1040e000e58f5100a70032006e389000e50f5000b8
:1040f0000a003c00ee389000e38f50009700320039
:104100006e399000e30f510099003c00ee399000a9
:10411000e28f510023003200370137006e389000e3
:10412000e70f5000a7003200ee389000e78f5000f4
:10413000a9003c00980037006e399000ed0f510047
:10414000e7003200ee399000ed8f510007003c008f
:104150006e389000eb0f5000bb003200ee3890003c
:10416000eb8f5000bd003c00b00037006e3990006e
:10417000ef0f5100e9003200ee399000ef8f51004f
:10418000e00035006e389000f00f5000e90032007a
:1041900000192000ee389000808f5000ea003200b5
:1041a000150137006e089000b000900020009000cc
:1041b000005e8800115e88000040eb0040579800c8
:1041c00000502500010020001007980021079800ea
:1041d00000872000000f7800220424001e009000b9
:1041e000ae009000cef50700104280002142800012
:1041f000405d8800515d880030428000414280006f
:10420000605d8800715d880050428000805d88009c
:1042100060428000905d8800704280008142800092
:10422000a05d8800b15d880090428000c05d88007c
:10423000a0428000d05d8800b0428000c142800072
:10424000e05d8800f15d880050a52a00205e8800ae
:10425000405d8000515d800080438800405d8000ab
:10426000515d80004088de00cf80de0090438800f2
:10427000605d8000715d8000a0438800605d80000b
:10428000715d80004088de00cf80de00b043880092
:10429000805d8000c0438800905d8000d04388002e
:1042a000a05d8000b15d8000800078000080eb00a0
:1042b00000806000e0438800a05d8000b15d800068
:1042c0004088de00cf80de00f0438800c05d8000c3
:1042d00000448800d05d800010448800e05d8000cc
:1042e000f15d8000800078000080eb0000806000bd
:1042f00020448800e05d8000f15d80004088de00a1
:10430000cf80de0030448800005e8000115e8000b7
:10431000800078000080eb0000806000404488004e
:10432000005e8000115e80004088de00cf80de00ed
:104330005044880050a52a00205e880050a52a001d
:1043400060448800030420001e0178001e009000d5
:10435000ae00900080f50700a70037006e089000bf
:10436000b000900020009000b05f8800a2003700ed
:104370006e089000b000900020009000604188001e
:104380009d0037006e089000b00090002000900063
:1043900050738800980037006e089000b0009000bd
:1043a00020009000607388006e089000d00090009c
:1043b000400090008073880080382100807388005e
:1043c0008d0037006e089000b00090002000900033
:1043d00070418800880037006e089000b00090009f
:1043e00020009000700798007e0090000000e00020
:1043f00003003a000000eb00401988007e003700ff
:104400007e009000e10f50007b003a001000200079
:1044100040198800780037006e089000b0009000c6
:104420002000900080418800730037006e089000e3
:10443000b000900020009000010020001042880091
:10444000214288006c0037006e089000b000900098
:104450002000900000428800670037006e0890003e
:10446000b000900020009000104288002142880097
:104470006e089000d00090004000900050428800ec
:104480006e089000f000900060009000604288008c
:104490006e089000900890000008900090428800fc
:1044a0006e089000b008900020089000a04288009c
:1044b0006e089000d008900040089000704288007c
:1044c000814288006e089000f0089000600890001b
:1044d000b0428800c14288007003070046003700e0
:1044e0006e089000b000900020009000d04288003c
:1044f0006e089000d000900040009000e0428800dc
:104500003d0037006e089000b00090002000900041
:104510003043880041438800370037006e08900020
:10452000b000900020009000304388004143880094
:10453000310037006e089000b0009000200090001d
:10454000707388002c0037004007a9000000fe00af
:10455000290037008e10900060012000800878004c
:104560000e1090008080e80080c2b3008048780080
:104570000e109000640140000e1090006400400096
:104580009040780000c8b30000c070000049780077
:104590000000eb00400f98000a003700fe08900072
:1045a0004e08900012428000234280004200dd004d
:1045b000010040000288be004e0890000000e800a4
:1045c000400f98004e089000e90f5000f3ff3600ae
:1045d0007e089000025e8000135e80000208980052
:1045e0001308980010c0b30040579800020037002d
:1045f0000040eb00405798004e5090000004e0004f
:1046000003003200200220000e004000ab1607001d
:104610004f0478000080fa00000006000200fa0053
:10462000100020009e0f1000040032000217290025
:10463000014d28000000eb00c50007001e00e0004f
:104640000400320082172900014d28000000eb0011
:10465000bf0007000080fa00000006001800fa0002
:10466000300f98000e80e80011182900130009008f
:10467000315878004001b1000000eb00e0408800b4
:10468000e140800020032000808f50002a003c0081
:104690008e80e80000c5b300d04098003e0890002e
:1046a000804078000e80e800014878003e089000c5
:1046b0004800de00804078000e80e800114098003d
:1046c0000e80e80066004000000f78009e00780031
:1046d00010002000800878003040800041408000b9
:1046e0001e0178001001980021019800b040800060
:1046f000800078001e007800310098009e0078004d
:104700000000eb00c00098000d0007001e017800bb
:1047100050019800610198000e80e80067160700bc
:10472000e04080000000e800e0408800e0408000b9
:104730000000e900e04088000080fa000000060068
:104740000c00fa000000200001002100008fbe00d4
:1047500050438000e10f500026003a006043800083
:10476000e10f500007003a001e00be0002002000ca
:10477000030028000200700083807000008fbe00dc
:1047800027003700f0ff2f00f1ff27009e0178007f
:104790001e02900000017800010078000281610093
:1047a000000062006102b8004407980055079800b5
:1047b0004e009000de009000c000dd0000002000f0
:1047c00040079800510798004e009000de009000ce
:1047d0006112b80044079800550798004e019000f8
:1047e000de0190000200700083807000008fbe0028
:1047f0000b00370010418000011020000100600014
:104800000000e000060032001e00be000200200092
:10481000030028000200700083807000008fbe003b
:104820001041800001002200010060000000e00053
:104830000400320000002000010024001e1f700050
:104840001e977000104180000140200001006000b0
:104850000000e000010032001e40a0001041800076
:1048600001042000010060000000e00005003200ab
:1048700000402000010020001e1f70001e977000e5
:1048800007003700c04080000000e0000400340052
:1048900000202000010020001e1f70001e977000e5
:1048a000cac2bf000080fb004600de00e14060009d
:1048b000c05f80004400de006140600080cf500097
:1048c00001003a001e10a000cbc2bf000080fb0018
:1048d0004500de00e1406000c05f80004500de0072
:1048e0006140600080cf500001003a001e00a0002f
:1048f0001041800001202000010060000000e00065
:1049000010003200b04080000000e00005003400dc
:1049100004042000050020002407980035079800b3
:104920000400370000082000010020002007980044
:10493000310798002e019000be0190001e1f7100eb
:104940001e9771001e00be000080fa0000000600e5
:104950006800fa0000379800113798002237980055
:10496000214080001e309000810f50003e00320038
:104970009e30900000002800808f500038003200e8
:104980006600470020079800660047006600400068
:1049900010079800ae0090001008200080087800f2
:1049a0002e0090008080e80040c4b300804878006a
:1049b0002e009000e30040000040eb0080487800ab
:1049c0002e009000e400400010c8b300804878003a
:1049d0002e009000e500400000c5b300804878003c
:1049e0009e0090000e309000800878009e0090009d
:1049f0001e309000900098000000eb00000f78003f
:104a00009e0190009e0078002e30900010417800aa
:104a10006480400003004000024878001e0fe80058
:104a20002e3090001040780060e798006ee0900013
:104a30000004e0000200320010c0b30060e79800fc
:104a40006ee09000ae3090008100e80021379800c1
:104a50000004e000eaff3a002e00900097150700de
:104a60001e309000204088000080fa000000060000
:104a70000200fa00000f7800100020009e0f1000c6
:104a80000a003a0030418000e20f500002003a0074
:104a900010002000506a880030418000e10f500073
:104aa00002003a0020002000506a88000080fa00ce
:104ab000000006001400fa000000eb0070079800e8
:104ac0000000eb00600798000000eb004041880008
:104ad00065f6070020032000511307000000eb00db
:104ae000d04088000000eb00c040880022c8a90028
:104af0000000eb00004188002228a9002268a900dc
:104b00002288a90022e8a9002248a8000000eb00a2
:104b1000e04088002348a90023a8a90023c8a900d1
:104b200023e8a9002308a9002408a9000000eb003d
:104b3000506a880030002000606a88001000200061
:104b400001002000b06a8800c16a880010002000bf
:104b500001002000d06a8800e16a88004006200039
:104b60002f130700c21507000000200001002c00d1
:104b7000505e8800615e8800000020000100240073
:104b8000305e8800415e88000001200001002000a6
:104b9000705f8800815f88006a120700400620006d
:104ba0001f130700cd22a900400620001c13070098
:104bb00017130700100f98009011070067130700e4
:104bc000cd22a8005101070000502500010020005f
:104bd00040079800510798000002eb0003082000ee
:104be000028720004e009000de00900079f307005d
:104bf00060448000205e8800215e800050a52a006d
:104c0000808f500049003a006000b80020079800eb
:104c1000310798006000b800008fbe00804380001c
:104c2000cf80de00405d8800515d8800a043800099
:104c3000cf80de00605d8800715d8800c043800029
:104c4000805d8800d0438000905d8800e043800054
:104c5000cf80de00a05d8800b15d88000044800048
:104c6000c05d880010448000d05d88002044800032
:104c7000cf80de00e05d8800f15d88005044800058
:104c8000cf80de00c000dd0000002000200798007b
:104c9000310798004044800001002000008fbe00d2
:104ca0002e009000be0090003e017000ae817000aa
:104cb0000200be00005e8800115e8800405d80003a
:104cc000515d80001042880021428800605d8000b4
:104cd000715d80003042880041428800805d800024
:104ce00050428800905d800060428800a05d800096
:104cf000b15d80007042880081428800c05d800004
:104d000090428800d05d8000a0428800e05d800075
:104d1000f15d8000b0428800c1428800005e8000e2
:104d2000115e8000d05f8800e15f88005042800003
:104d3000d042880090428000e042880030428000eb
:104d400041428000604188005401070000003700a4
:104d5000a91407008ecebf000004e000030032005b
:104d6000daf507000040eb008eeeb700a81207004e
:104d70008e08900001005000e10f50001a0036002c
:104d8000a3120700000f9800f0428000014380004a
:104d900061004000e0804800f04288000143880044
:104da000f04280000143800061004000e080480044
:104db000f0428800014388001043800021438000b6
:104dc00061004000e08048001043880021438800d3
:104dd000104380002143800061004000e0804800d3
:104de0001043880021438800891207008000780062
:104df0001e0890008080500040062000808f5000e8
:104e00001800360082120700100f9800be15070028
:104e10000040880003408000630798000040800045
:104e200010408800114080000080eb000088b9002d
:104e300010408800114180000008200000806000c0
:104e40000000e000020032001048200003fe0700ce
:104e5000310007008a000700700798007e0090006c
:104e6000530207008c0207007f0e0700606a800073
:104e7000e30f5000b6ff3a002328a9002348a900f9
:104e800010418000680060000000e0000700320070
:104e900010418000640060000000e0000200320069
:104ea00040462000edfd07002268a9001041800067
:104eb000700060000000e000070032001041800038
:104ec000640060000000e000020032006046200044
:104ed000e2fd07002288a90023e8a9009cff370013
:104ee0000200fa00000f780030748000e30f5000d9
:104ef0000700320030748000e20f500002003200e0
:104f00000000eb00407488001e00780030748800b8
:104f10000080fa00000006000200fa0030748000f1
:104f2000000f78001e007800e10f50004f003200a3
:104f30001e007800e10f500004003c001e007800c5
:104f40000000e0004b0032004b0037001e007800ec
:104f5000e20f5000040032001e007800e30f500002
:104f60001800320044003700407480000000e80060
:104f70004074880040748000e50f50003e003a0005
:104f8000cdc2bf000080fb000000d1006140600086
:104f90000004a200614060006140600000414000e8
:104fa000d12c200091407800d0cfb30000c0600029
:104fb00002407000cde2b7000000eb0040748800b2
:104fc0002d003700407480005200200011000900bd
:104fd0000200d800801f780001007800cf00780020
:104fe0000000e00011003a00cdc2bf000080fb00cd
:104ff0000000d100614060000004a2006140600038
:105000006140600000414000d12c200091407800b8
:10501000d0cfb30000c0600002407000cde2b70006
:105020001000200060438800020037000000eb0001
:1050300060438800407480000000e80040748800ed
:105040004174800020032000808f50000a003a0045
:105050000000eb00307488000000eb005043880033
:105060000000eb006043880003003700cd22a90058
:1050700001003700cd22a8000080fa0000000600e1
:105080000600fa000000eb00000f7800cbc2bf0062
:105090000080fb004400de00614060000080fb00f7
:1050a00010079800da110700200798001e009000f2
:1050b000610060000004e0000d00320010002000dc
:1050c000000f7800f07380000000e0000400320060
:1050d00010002000f07388000000eb00000f780043
:1050e000f07380000000e800f073880004003700cf
:1050f0000000eb00000f78000000eb00f073880068
:105100001e0078000080fa00000006000200fa008d
:105110000000eb00000f78000000eb00b05f88009b
:10512000800c200050418800800c200060418800e5
:1051300040062000704188000000eb00804188009c
:105140001000200090418800803e200001002000d7
:1051500010428800214288000000eb0000428800d5
:1051600020032000010020003043880041438800d4
:105170000000eb00504388000000eb006043880013
:105180000000eb0070438800401f20000100200059
:105190001042880021428800401f200001002000aa
:1051a00030428800414288001000200050428800b0
:1051b0001000200060428800800c200001002000c8
:1051c00070428800814288001000200090428800d0
:1051d00010002000a0428800800c20000100200068
:1051e000b0428800c14288000000eb00506a88008d
:1051f000cac2bf000080fb004600de0061406000c4
:105200000080fb00000f78001e00e0000800320064
:10521000b0fa2f00b31107001000200030418800c1
:105220002308a800100020007043880017003700f2
:10523000cbc2bf000080fb004500de006140600083
:105240000080fb00000f78001e00e0000800320024
:1052500050052000a31107002000200030418800e5
:105260002308a800100020007043880007003700c2
:105270000000eb0070438800cb11070040002000c5
:10528000304188004000200090418800100020003c
:10529000404188000080fa00000006000c00fa007f
:1052a00050428000100798009e009000210798004f
:1052b0002e009000e20f500012003200ae0090006d
:1052c000e28f500004003e002e009000e10f5000dd
:1052d0000800320014003700ae009000e38f500049
:1052e0000c0032002e009000e40f50000c00320041
:1052f0000d003700c482a90010002000000f7800c4
:1053000009003700c482a90020002000000f7800a7
:105310000500370030002000000f78000200370041
:1053200040002000000f78006142800011079800c3
:105330001e009000b10b20000100600010079800d3
:105340001e00900030079800be009000e28f5000d1
:10535000290032003e009000e20f500004003e00a1
:10536000be009000e18f5000090032006d00370050
:105370003e009000f00f5000390032000002200083
:10538000be009000808f50004e0032006500370054
:10539000c482a900100020009e0f100009003a00ee
:1053a00010002000d0428800604280004200de00f1
:1053b000610060000004e00002003200a000200054
:1053c000d0428800210020009e8f100055003a0036
:1053d00020002000d0428800604280004200de00b1
:1053e000610060000004e0004e003200b0002000c8
:1053f000d04288004b003700c482a9001000200072
:105400009e0f100009003a0030002000d0428800b2
:10541000604280004200de00610060000004e000a5
:1054200002003200c0002000d0428800210020008d
:105430009e8f10003b003a0040002000d0428800c0
:10544000604280004200de00610060000004e00075
:1054500034003200d0002000d042880031003700f4
:10546000300020009e0f100009003a00500020007c
:10547000d0428800604280004600de00610060008b
:105480000004e00002003200e0002000d04288006a
:10549000410020009e8f100022003a006000200092
:1054a000d0428800604280004600de00610060005b
:1054b0000004e0001b003200f0002000d042880011
:1054c00018003700300020009e0f100009003a003d
:1054d00070002000d0428800604280004600de005c
:1054e000610060000004e0000200320000012000c2
:1054f000d0428800410020009e8f100009003a0031
:1055000080002000d0428800604280004600de001b
:10551000610060000004e000020032001001200081
:10552000d042880090428000100798009e009000b2
:10553000410798004e009000e20f50001200320028
:10554000ce009000e28f500004003e004e0090001c
:10555000e10f50000800320014003700ce00900028
:10556000e38f50000c0032004e009000e40f50001a
:105570000c0032000d003700cd62a90010002000a1
:10558000000f780009003700cd62a900200020003c
:10559000000f78000500370030002000000f780071
:1055a0000200370040002000000f7800a142800078
:1055b000110798001e009000b10b20000100600050
:1055c000100798001e00900050079800de00900021
:1055d000e28f5000290032005e009000e20f500080
:1055e00004003e00de009000e18f50000900320010
:1055f0006d0037005e009000f00f5000390032005f
:1056000000022000de009000808f50004e0032002b
:1056100065003700cd62a900100020009e0f100029
:1056200009003a0010002000e0428800a0428000fb
:105630004200de00610060000004e0000200320071
:10564000a0002000e0428800210020009e8f100072
:1056500055003a0020002000e0428800a04280006f
:105660004200de00610060000004e0004e003200f5
:10567000b0002000e04288004b003700cd62a90056
:10568000100020009e0f100009003a00300020009a
:10569000e0428800a04280004200de00610060001d
:1056a0000004e00002003200c0002000e042880058
:1056b000210020009e8f10003b003a004000200097
:1056c000e0428800a04280004200de0061006000ed
:1056d0000004e00034003200d0002000e0428800e6
:1056e00031003700300020009e0f100009003a0002
:1056f00050002000e0428800a04280004600de000a
:10570000610060000004e00002003200e0002000c0
:10571000e0428800410020009e8f100022003a00e5
:1057200060002000e0428800a04280004600de00c9
:10573000610060000004e0001b003200f000200067
:10574000e042880018003700300020009e0f100053
:1057500009003a0070002000e0428800a04280006a
:105760004600de00610060000004e000020032003c
:1057700000012000e0428800410020009e8f1000c0
:1057800009003a0080002000e0428800a04280002a
:105790004600de00610060000004e000020032000c
:1057a00010012000e04288000080fa00000006009e
:1057b0000600fa00200798000000eb001007980090
:1057c0000000eb00000f78002e009000e10f500069
:1057d0002f003a0030418000e20f500002003a00f2
:1057e00010002000506a880030418000e10f500016
:1057f00002003a0020002000506a880030418000fa
:10580000e40f500022003a0010002000704388008e
:1058100052100700b0fa2f00b05f8800b0fa2f00d6
:10582000301007000000eb0010079800140037004c
:105830001000200010079800cac2bf000080fb00c3
:105840004600de00614060000080fb00000f780031
:105850001e00e000070032001000200030418800e8
:105860002308a80010002000904188006005200057
:10587000100798001e0090000000e8001007980034
:105880009e00900040052000808f5000e8ff360009
:105890000080fa00000006000e00fa00d0428000ee
:1058a000200798002e0090006101b8000080eb00f6
:1058b0008080eb000201400083814800320798009d
:1058c0004307980000012000010020003e019000e5
:1058d000ce019000800f5100818f5900f9013e00e8
:1058e0003e009000ce0090000060010010003700e4
:1058f0003800370083003700ab003700f600370070
:10590000070137001e0137009b013700ed0137000a
:105910001b003700550037008f003700c8003700e4
:10592000f60037000a01370054013700bc01370088
:10593000cac2bf000080fb004500de00614060007d
:105940000080fb00100798001e0090000000e0009f
:1059500008003a00107480000000e000d9013a000d
:1059600010002000107488001000200090ff070035
:10597000d40137000000eb0010748800d10137001b
:10598000cac2bf000080fb004500de00614060002d
:105990000080fb00100798001e009000610060006e
:1059a0000004e00008003200107480000000e000f5
:1059b000c4013a001000200010748800100020007c
:1059c0007bff0700bf0137000000eb001074880068
:1059d000bc013700cac2bf000080fb004500de00ea
:1059e000614060000080fb00100798001e009000de
:1059f000610060000004e0000e00320030418000d1
:105a0000e20f500008003a00107480000000e0002f
:105a1000ac013a0010002000107488001000200033
:105a200063ff0700a70137000000eb001074880037
:105a3000a401370030418000e10f500008003a0017
:105a4000107480000000e0009e013a001000200069
:105a5000107488001000200055ff070099013700de
:105a60000000eb001074880096013700cac2bf0026
:105a70000080fb004500de00614060000080fb000c
:105a8000100798001e009000610060000004e00014
:105a90000e00320030418000e10f500008003a0053
:105aa000107480000000e00086013a001000200021
:105ab00010748800100020003dff070081013700ae
:105ac0000000eb00107488007e0137003041800038
:105ad000e20f500008003a00107480000000e0005f
:105ae00078013a0010002000107488001000200097
:105af0002fff0700730137000000eb0010748800cf
:105b000070013700cac2bf000080fb004500de0004
:105b1000614060000080fb00100798001e009000ac
:105b2000610060000004e000080032001074800092
:105b30000000e00063013a001000200010748800ab
:105b4000100020001aff07005e0137000000eb0084
:105b5000107488005b013700cac2bf000080fb00e0
:105b60004500de00614060000080fb0010079800e7
:105b70001e0090000000e00008003a001074800051
:105b80000000e0004f013a0010002000107488006f
:105b90001000200006ff07004a0137000000eb005c
:105ba0001074880047013700cac2bf000080fb00a4
:105bb0004500de00614060000080fb001007980097
:105bc0001e009000610060000004e0000e00320042
:105bd00030418000e20f500008003a00107480004d
:105be0000000e00037013a00100020001074880027
:105bf00010002000eefe0700320137000000eb002d
:105c0000107488002f01370030418000e10f5000f0
:105c100008003a00107480000000e00029013a00fa
:105c2000100020001074880010002000e0fe070023
:105c3000240137000000eb001074880021013700b8
:105c4000cac2bf000080fb004500de00614060006a
:105c50000080fb00100798001e00900061006000ab
:105c60000004e0000e00320030418000e10f5000df
:105c700008003a00107480000000e00011013a00b2
:105c8000100020001074880010002000c8fe0700db
:105c90000c0137000000eb00107488000901370088
:105ca00030418000e20f500008003a00107480007c
:105cb0000000e00003013a0010002000107488008a
:105cc00010002000bafe0700fe0037000000eb00c5
:105cd00010748800fb00370030418000e10f500055
:105ce00001003a00c482a90030418000e20f500058
:105cf000f4003a00c482a800f2003700304180006e
:105d0000e10f500001003a00c482a8003041800039
:105d1000e20f5000eb003a00c482a900e90037000e
:105d200030418000e10f500002003a00c482a80018
:105d3000e400370030418000e20f500002003a00da
:105d4000c482a800df003700c482a900dd0037004c
:105d500030418000e10f500002003a00c482a900e7
:105d6000d800370030418000e20f500002003a00b6
:105d7000c482a900d3003700c482a800d100370034
:105d800030418000e10f500019003a00107480008b
:105d90000000e00005003a001000200010748800a8
:105da0006000b800f0428800014388001074800051
:105db000e10f5000c3003a00c482a9001000200087
:105dc00010748800f242800003438000704280001b
:105dd00081428000800f5100818f5900b900360048
:105de000c482a8002000200010748800b50037008d
:105df00030418000e20f500019003a00107480001a
:105e00000000e00005003a00100020001074880037
:105e10006000b800f04288000143880010748000e0
:105e2000e10f5000a7003a00c482a9001000200032
:105e300010748800f24280000343800070428000aa
:105e400081428000800f5100818f59009d003600f3
:105e5000c482a80020002000107488009900370038
:105e600030418000e30f500096003a00c482a80041
:105e70000000eb0010748800920037003041800071
:105e8000e10f500019003a00107480000000e0009b
:105e900005003a0010002000107488006000b8006f
:105ea000f04288000143880010748000e10f500028
:105eb00084003a00c482a8001000200010748800fa
:105ec000f2428000034380007042800081428000e3
:105ed000800f5100818f59007a003600c482a900da
:105ee00020002000107488007600370030418000c8
:105ef000e20f500019003a00107480000000e0002a
:105f000005003a0010002000107488006000b800fe
:105f1000f04288000143880010748000e10f5000b7
:105f200068003a00c482a8001000200010748800a5
:105f3000f242800003438000704280008142800072
:105f4000800f5100818f59005e003600c482a90085
:105f500020002000107488005a0037003041800073
:105f6000e30f500057003a00c482a9000000eb0084
:105f7000107488005300370030418000e10f50005a
:105f800004003a00c482a8000000eb0010748800ee
:105f90004c00370030418000e20f500004003a000e
:105fa000c482a8000000eb00107488004500370090
:105fb00030418000e30f500042003a00107480002e
:105fc0000000e00005003a00100020001074880076
:105fd0006000b800f042880001438800107480001f
:105fe000e10f500037003a00c482a90010002000e1
:105ff00010748800f24280000343800070428000e9
:1060000081428000800f5100818f59002d003600a1
:10601000c482a800200020001074880029003700e6
:1060200030418000e10f500004003a00c482a90012
:106030000000eb001074880022003700304180001f
:10604000e20f500004003a00c482a9000000eb00f7
:10605000107488001b00370030418000e30f5000af
:1060600018003a00107480000000e00005003a00bb
:1060700010002000107488006000b800f042880012
:106080000143880010748000e10f50000d003a00b9
:10609000c482a8001000200010748800f242800022
:1060a000034380007042800081428000800f5100d5
:1060b000818f590003003600c482a900200020000f
:1060c00010748800e1428000210798002e009000a3
:1060d0006101b8000080eb008080eb00020140000d
:1060e0008381480052079800630798000001200050
:1060f000010020005e019000ee019000800f510031
:10610000818f5900f7013e005e009000ee00900084
:1061100000600100100037003700370082003700b0
:10612000a9003700f4003700050137001c013700d3
:1061300099013700eb0137001a003700540037008f
:106140008e003700c6003700f40037000801370022
:1061500052013700ba013700cbc2bf000080fb00fc
:106160004200de00614060000080fb00000f78000c
:106170001e00e00008003a00007480000000e0000b
:10618000d8013a00100020000074880010002000a0
:1061900087fd0700d30137000000eb000074880082
:1061a000d0013700cbc2bf000080fb004200de0000
:1061b000614060000080fb00000f78001e00780046
:1061c000610060000004e0000800320000748000fc
:1061d0000000e000c3013a001000200000748800b5
:1061e0001000200072fd0700be0137000000eb0028
:1061f00000748800bb013700cbc2bf000080fb00e9
:106200004200de00614060000080fb00000f78006b
:106210001e007800610060000004e0000e00320003
:1062200030418000e20f500008003a000074800006
:106230000000e000ab013a0010002000007488006c
:10624000100020005afd0700a60137000000eb00f7
:1062500000748800a301370030418000e10f500036
:1062600008003a00007480000000e0009d013a0040
:106270001000200000748800100020004cfd070072
:10628000980137000000eb0000748800950137008a
:10629000cbc2bf000080fb004200de006140600016
:1062a0000080fb00000f78001e0078006100600095
:1062b0000004e0000e00320030418000e10f500089
:1062c00008003a00007480000000e00085013a00f8
:1062d00010002000007488001000200034fd07002a
:1062e000800137000000eb00007488007d0137005a
:1062f00030418000e20f500008003a000074800036
:106300000000e00077013a001000200000748800cf
:106310001000200026fd0700720137000000eb008e
:10632000007488006f013700cbc2bf000080fb0003
:106330004200de00614060000080fb00000f78003a
:106340001e007800610060000004e00008003200d8
:10635000007480000000e00062013a00100020009c
:10636000007488001000200011fd07005d01370057
:106370000000eb00007488005a013700cbc2bf0058
:106380000080fb004200de00614060000080fb00f6
:10639000000f78001e00e00008003a000074800042
:1063a0000000e0004f013a00100020000074880057
:1063b00010002000fefc07004a0137000000eb003f
:1063c0000074880047013700cbc2bf000080fb008b
:1063d0004200de00614060000080fb00000f78009a
:1063e0001e007800610060000004e0000e00320032
:1063f00030418000e20f500008003a000074800035
:106400000000e00037013a0010002000007488000e
:1064100010002000e6fc0700320137000000eb000e
:10642000007488002f01370030418000e10f5000d8
:1064300008003a00007480000000e00029013a00e2
:10644000100020000074880010002000d8fc070015
:10645000240137000000eb000074880021013700a0
:10646000cbc2bf000080fb004200de006140600044
:106470000080fb00000f78001e00780061006000c3
:106480000004e0000e00320030418000e10f5000b7
:1064900008003a00007480000000e00011013a009a
:1064a000100020000074880010002000c0fc0700cd
:1064b0000c0137000000eb00007488000901370070
:1064c00030418000e20f500008003a000074800064
:1064d0000000e00003013a00100020000074880072
:1064e00010002000b2fc0700fe0037000000eb00a7
:1064f00000748800fb00370030418000e10f50003d
:1065000001003a00cd62a90030418000e20f500046
:10651000f4003a00cd62a800f2003700304180005c
:10652000e10f500001003a00cd62a8003041800028
:10653000e20f5000eb003a00cd62a900e9003700fd
:1065400030418000e10f500002003a00cd62a80007
:10655000e400370030418000e20f500002003a00b2
:10656000cd62a800df003700cd62a900dd00370052
:1065700030418000e10f500002003a00cd62a900d6
:10658000d800370030418000e20f500002003a008e
:10659000cd62a900d3003700cd62a800d10037003a
:1065a00030418000e10f500019003a000074800073
:1065b0000000e00005003a00100020000074880090
:1065c0006000b800104388002143880000748000f8
:1065d000e10f5000c3003a00cd62a9001000200076
:1065e000007488001243800023438000b042800082
:1065f000c1428000800f5100818f5900b9003600e0
:10660000cd62a8002000200000748800b50037008b
:1066100030418000e20f500019003a000074800001
:106620000000e00005003a0010002000007488001f
:106630006000b80010438800214388000074800087
:10664000e10f5000a7003a00cd62a9001000200021
:10665000007488001243800023438000b042800011
:10666000c1428000800f5100818f59009d0036008b
:10667000cd62a80020002000007488009900370037
:1066800030418000e30f500096003a00cd62a80030
:106690000000eb0000748800920037003041800059
:1066a000e10f500019003a00007480000000e00083
:1066b00005003a0010002000007488006000b80057
:1066c000104388002143880000748000e10f5000cf
:1066d00084003a00cd62a8001000200000748800f9
:1066e0001243800023438000b0428000c1428000fa
:1066f000800f5100818f59007a003600cd62a900c9
:1067000020002000007488007600370030418000af
:10671000e20f500019003a00007480000000e00011
:1067200005003a0010002000007488006000b800e6
:10673000104388002143880000748000e10f50005e
:1067400068003a00cd62a8001000200000748800a4
:106750001243800023438000b0428000c142800089
:10676000800f5100818f59005e003600cd62a90074
:1067700020002000007488005a003700304180005b
:10678000e30f500057003a00cd62a9000000eb0073
:10679000007488005300370030418000e10f500042
:1067a00004003a00cd62a8000000eb0000748800ed
:1067b0004c00370030418000e20f500004003a00e6
:1067c000cd62a8000000eb0000748800450037008f
:1067d00030418000e30f500042003a000074800016
:1067e0000000e00005003a0010002000007488005e
:1067f0006000b800104388002143880000748000c6
:10680000e10f500037003a00cd62a90010002000cf
:10681000007488001243800023438000b04280004f
:10682000c1428000800f5100818f59002d00360039
:10683000cd62a800200020000074880029003700e5
:1068400030418000e10f500004003a00cd62a90001
:106850000000eb0000748800220037003041800007
:10686000e20f500004003a00cd62a9000000eb00e6
:10687000007488001b00370030418000e30f500097
:1068800018003a00007480000000e00005003a00a3
:1068900010002000007488006000b80010438800d9
:1068a0002143880000748000e10f50000d003a0081
:1068b000cd62a80010002000007488001243800000
:1068c00023438000b0428000c1428000800f51000d
:1068d000818f590003003600cd62a90020002000fe
:1068e000007488000080fa00000006000600fa002c
:1068f0000000eb00000f78001e009000e10f500038
:1069000003003a000000eb00207488000d003700ff
:10691000207480000000e00003003a002074800032
:106920000000e80020748800207480000000e0006f
:106930000400320010002000207488000000eb00ea
:10694000000f7800b20b0700200798000080fa00c3
:10695000000006001600fa00400798005107980052
:106960006207980073079800100020002007980025
:106970004e009000000f7800de0090006e00900046
:1069800080804000f07f2000808f500003003600a0
:1069900011002000210f98003c00370030c0b300e8
:1069a000850e07005e0090004800de00820e0700a2
:1069b0005e009000800e07000000eb00300798009a
:1069c000260037000040eb007b0e070020479800b0
:1069d0007e0090000000e00005003a001e007800f4
:1069e000ae409000014878001e0fe8001800370004
:1069f0002e0090000000e000110032001e00780020
:106a0000904078000040eb00005798002e40900026
:106a100080cf500002003a0011c0b3000157980027
:106a20001e0fe8000e5090000004a2000004e000d9
:106a300003003a0010002000100f980002003700f9
:106a40008000eb00110f98001e08900020079800ae
:106a50003e0090000000e80030079800be00900063
:106a60006e009000808f5000d6ff39002e009000fd
:106a7000e10f50000300320011002000210f9800a8
:106a8000020037000000eb00200f98002e08900055
:106a90000080fa00000006001400fa005007980079
:106aa0006107980072079800ee0090007e00900049
:106ab00080804000f07f2000808f5000030036006f
:106ac00010002000100f9800500037005e0090006a
:106ad000100798006e0090004007980043003700b0
:106ae0004e0090007f00600030079800ce009000bc
:106af0006e009000808f5000030032003e00900036
:106b00000000e00009003a0060c0b3002a0e070050
:106b100020c0b300280e07004e0090004800de00a1
:106b2000250e07004e009000230e07001e00900067
:106b3000904078001e0090000000e80010079800c8
:106b4000014078001c0e07003e009000ff0f50002f
:106b500007003200ee0090007e00900000804000b0
:106b60008000e9004e009000808f50001c003a0029
:106b70000000eb002007980050c0b3000e0e070085
:106b80000040eb000c0e0700004f78000040eb00c7
:106b900000579800ae009000803e2000808f50008b
:106ba0000200360010c0b300005798002e0090007d
:106bb0000000e800200798000e5090000004e0005c
:106bc0000300320020002000100f98000f00370053
:106bd0001e00fb00610060000004e000e6ff3a00d8
:106be0004e0090000000e80040079800ee00900082
:106bf0007e009000808040004e009000808f50000a
:106c0000b7ff3e0010002000100f98001e089000f3
:106c10000080fa00000006000800fa00005025007d
:106c200001002000200798003107980040cc200088
:106c300010079800220424002e009000be0090004f
:106c400037eb0700030420001e0190002e00900087
:106c5000be00900040eb07000000eb00000f780042
:106c6000070037001e0078008000400040cc200064
:106c7000808040000000eb00800878001e0fe800d4
:106c8000f00320009e0f1000f6ff34000002eb001e
:106c90000308200042cc20002e009000be0090008f
:106ca0004ceb07000000eb00000f78000080fa00ba
:106cb000000006000800fa000000200032e0b700e3
:106cc000c0222500f0728800f0728000660040004b
:106cd0001000ba00e0728800f07280001000ba0064
:106ce00030079800f07280000080e8001000ba00c1
:106cf00020079800f0728000640040001000ba0085
:106d000010079800f0728000640040001000ba0084
:106d1000100798000000eb00000f78001e007800bc
:106d20000080fa00000006001e00fa00600f9800c4
:106d30006e08900090007800510f98006e08900047
:106d40000080e80090007800410f98006e089000e5
:106d50006400400090007800310f98006e089000a9
:106d60006600400090007800210f98006e089000a7
:106d70006800400090007800110f98006e089000a5
:106d80006a00400090007800010f98006e089000a3
:106d90006c00400090007800710798006e08900029
:106da0006e00400090007800610798006e08900027
:106db0007000400090007800510798006e08900025
:106dc0007200400090007800410798006e08900023
:106dd0007400400090007800310798006e08900021
:106de0007600400090007800210798006e0890001f
:106df00078004000900078001107980030002400cf
:106e0000003b88000040eb0032e0b70000002500a6
:106e1000000f78009e0078005e0890008008bb009c
:106e20000500fc0050052000303b8800a00a20002f
:106e3000303b880061e7a80000000000000000006f
:106e400061c7bf0001c8b300014060000004e0005a
