:020000040800F2
:10000000582C002015030008330300089D640008E5
:1000100037030008390300083B0300080000000014
:100020000000000000000000000000003D03000888
:100030005703000800000000796400085B03000813
:100040005D0300085D0300085D0300085D03000810
:100050005D0300085D0300085D0300085D03000800
:100060005D0300085D0300085D0300085D030008F0
:100070005D0300085D0300085D0300085D030008E0
:100080005D0300085D0300085D0300085D030008D0
:100090005D0300085D0300085D0300085D030008C0
:1000A0005D0300085D0300085D0300085D030008B0
:1000B000E51D00085D0300085D0300085D030008FE
:1000C0005D0300085D0300085D0300085D03000890
:1000D0005D0300085D0300085D0300085D03000880
:1000E0005D0300085D0300085D0300085D03000870
:1000F000FF2400085D0300085D0300085D0300089D
:100100005D0300085D0300085D0300085D0300084F
:100110005D0300085D0300085D030008131E00086E
:100120005D0300085D0300085D0300085D0300082F
:100130005D0300085D0300085D0300085D0300081F
:100140005D0300085D0300085D0300085D0300080F
:100150005D0300085D0300085D0300085D030008FF
:100160005D0300085D0300085D0300085D030008EF
:100170005D0300085D0300085D0300085D030008DF
:100180005D0300085D03000800F002F800F0B2F81B
:100190000AA090E8000C82448344AAF10107DA45E2
:1001A00001D100F0A7F8AFF2090EBAE80F0013F082
:1001B000010F18BFFB1A43F001031847BC9B000056
:1001C000DC9B00000A444FF0000C10F8013B13F0D8
:1001D000070408BF10F8014B1D1108BF10F8015BA0
:1001E000641E05D010F8016B641E01F8016BF9D193
:1001F00013F0080F1EBF10F8014BAD1C0C1B09D1EA
:100200006D1E58BF01F801CBFAD505E014F8016B5B
:1002100001F8016B6D1EF9D59142D6D370470000ED
:100220000023002400250026103A28BF78C1FBD8FF
:10023000520728BF30C148BF0B6070476E2906F0D7
:100240007986702906F0D187662909F0DA82652956
:1002500009F0D782672909F0D4826129AFF30080C1
:1002600003681B0A28BF41F08001692906F0268631
:10027000642906F02386752906F020866F2906F08A
:100280005E87782906F09D87E92906F0F986E4293A
:1002900006F0F686F52906F0F386EF2906F05B876F
:1002A000F82906F09C870368DB0928BF41F080012C
:1002B000632906F07A86732906F07F86E32907F022
:1002C0002785F32907F02C85002070471FB509F01A
:1002D0008BFA07F055FA04000020002109F004F819
:1002E000401C60600020002108F0E8FFE0601FBDB6
:1002F00010B510BD07F068FF1146FFF7E7FF00F0EB
:10030000E0FB08F005FA03B4FFF7F2FF03BC08F0C6
:100310001BFA000015481649026800608A4203D0A3
:1003200014488047144800471448D0F800D040686B
:100330000047FEE7FEE7FEE7FEE7FEE71EF0040FDC
:100340000CBFEFF30880EFF30980806910F8020C0E
:1003500006F09DB8FEE7FEE7FEE7FEE7FEE70000D9
:1003600007480849084A094B70470000F01F002061
:10037000EFBEADDE631A0008890100080000FF1F10
:1003800058260020582C00205828002058280020EB
:1003900010B5002001F050FC00EE100AB8EE400A43
:1003A000DFEDCC0A20EE200A10BDCB490968884257
:1003B00000D17047C849086030B101280AD002282E
:1003C0000FD003281AD112E08021C44A916189001C
:1003D000916113E04FF40001C04A9161891391616A
:1003E0000CE08021BD4A91618904916106E04FF4DF
:1003F0000001BA4A91618900916100BF00BF00BF4E
:10040000D7E72DE9F0418EB006460D4617464FF06E
:100410000008012E02D0022E11D107E0B048B149E8
:100420000860B1480C90B1480D900CE0AC48103019
:10043000AC490860AE480C90AE480D9003E0002037
:100440000EB0BDE8F08100BF012F01D1012000E016
:1004500000200446132D7DD2DFE805F00A0B0C0DB9
:100460000E0FE5E5E5E51622266090BD2324250064
:1004700000BF00BF00BF00BF00BF9A48006800F087
:1004800046F90C988047CFE09648006800F03FF9A5
:100490000CB9012200E0002210460D998847C3E004
:1004A00000BF00BF00BF00BFA5F10B0008281ED28F
:1004B000DFE800F004091D1D1D0E131802208949F4
:1004C0000968086013E001208649096808600EE0A9
:1004D000032084490968086009E00420814909680B
:1004E000086004E005207F490968086000BF00BF7C
:1004F0007C490D98096848600CB9012000E0002093
:1005000078490968886077480068C4600CB901229E
:1005100000E0002210460D99884785E07148006888
:1005200000F0F5F874480069019073484069029042
:100530007148806903900D9804906F480269806942
:10054000401E6D49496900FB012005906A484069D9
:10055000414200E067E00691674881690791674979
:100560000891806A09906448C06A40000B900A9420
:1005700001A801F0F5FB4FF0010855E0594800686B
:1005800000F0C5F85C48C06901905B48006A4042D1
:1005900002905948406A03900D9804905648C269E9
:1005A000406A401E5449096A00FB112005905248D8
:1005B000016A0691416A079150490891806A099041
:1005C0004D48C06A40000B900A9401A801F0C8FB96
:1005D0004FF0010828E04348006800F098F84648CA
:1005E0000069019044484069029043488069039043
:1005F0000D9804904048C06905903F48006A414208
:1006000006913D48416A07910D990891806A0990C9
:100610003948C06A40000B900A9401A801F0A0FB81
:100620004FF0010800E000BF00BF404608E72DE999
:10063000F84F83460E46904600200090BBF1010F14
:1006400003D0BBF1020F0FD105E0DFF89CA02C4CCA
:100650002C4D2D4F0BE0DFF898A0294C241D294D7F
:100660002D1D294F3F1D02E00020BDE8F88F00BF7F
:100670003868B04203D06FF00100286020603E600F
:10068000022E08D0032E04D0042E03D0052E19D13B
:1006900002E000BF00BF00BF20682860D047206094
:1006A00020682968A0EB0109B8F1010F02D1B9F166
:1006B000010F05D0B8F1020F03D109F1010000B913
:1006C000009604E06FF001002860206000BF00BFCA
:1006D0000098CAE78925163F00000020000002406C
:1006E0005805002004000020B9170008E117000891
:1006F0001B1800083D1800085C0400200D070008C6
:100700000800002010000020180000207047002181
:100710000160AFF2070141600022C26000218160E8
:10072000704710B58448C06B20F008008249C86348
:100730000846C06B20F01000C8630846C06B20F06C
:100740000400C8630846C06B20F02000C863002086
:10075000C86188610846C06B20F08000C863084605
:10076000C06B20F04000C863002008620846C06BE0
:1007700020F00200801CC8630846C06B20F40060B3
:10078000C8630846C06B20F40030C8630020C8620C
:100790000846C06B20F40070C8630846C06B20F4A4
:1007A0008060C8630846C06B20F40030C863084608
:1007B000C06B20F48020C8630846C06B20F48040E2
:1007C000C863002406E05C49403101EB0410FFF7E8
:1007D0009EFF641C022CF6DB002057498862032030
:1007E00048629FED560A084680ED0D0A9FED530AB8
:1007F00080ED0E0A012052498860C86010205149DE
:100800000863C820A1F874001420086701204E492D
:100810000860B7EE000A084680ED0B0A9FED4B0A10
:1008200080ED0C0A9FED4A0A80ED0D0A9FED490A02
:1008300080ED120A9FED410A80ED130A0E204860F8
:1008400045A141480C3006F00DF841203E49886032
:10085000AFF2471042494860002088600861086292
:100860004862012088620846806C20F0400088645D
:100870000846806C20F0800088640020486408638B
:100880004FF4004048630846806C20F00200886402
:100890000846806C20F0040088640846806C20F0D4
:1008A000100088640846806C20F00100401C8864B9
:1008B0000020C86188610846806C20F480708864DC
:1008C0000846806C20F400708864002008640120D1
:1008D0002449086088600A20486001212148C160DD
:1008E00000202049086100211E4841618161C161E9
:1008F000016241621C4981620021C16201214163A0
:1009000044F620601749886300BF05E000211548C0
:100910003C3040F82410641C202CF7DB10BD02464C
:1009200092FBF1F001FB1020002A01DA0B4600E0F7
:100930000023184470470000180500200000000044
:100940008C0D00209C0300207805002029770849A1
:10095000239B3E43000096434B565333304D0000DB
:10096000C80500205C040020A0860100044600BFEA
:100970002146F7A005F01EF823E005F09BF800F0F3
:10098000A1FF0546F8480188284600F0BAFF642810
:1009900017DD00F097FFF4490880F448006808B9B3
:1009A000012000E00020F1490860084600680128A5
:1009B00003D14006EE49886103E04FF40070EC4932
:1009C0008861DAE770B50446EA480068052874D201
:1009D000DFE800F00308194B5A0014B90120E5497B
:1009E00008606AE0E4A004F0E5FFE848E849C1F8DF
:1009F000880102F0C4F900F065FFE6490880022092
:100A0000DC49086059E034B10020DA490860E2A00E
:100A100004F0D0FF28E000F055FF0546DD480188CE
:100A2000284600F06EFFB0F5FA6F1DDDDEA004F081
:100A3000C1FF022002F063F9032004F0DFF804F0A4
:100A4000A6FADC48806C20F00200DA498864084687
:100A5000806C20F0040088640846806C20F0100050
:100A600088640320C349086027E000F02BFF054697
:100A7000C8480188284600F044FFB0F57A6F02DDCF
:100A80000420BC49086018E04FF00040CA490860E3
:100A900040F6B83000F039FF00BFBFF34F8FC748B2
:100AA000006800F4E060C6490843001DC3490860BF
:100AB000BFF34F8F00BF00BFFEE700BFAD48006827
:100AC00070BD2DED028B84B04FF0000900279FED23
:100AD000BD0AB0EE408ABA4608F086FE00F095FCEA
:100AE00000F0D8FE4FF40040B349086001F0C4FBA9
:100AF00001F0B8F801F028FC04F04AFE01F02EFFE6
:100B000004F034FD00F0EAFF0220FFF74EFCFFF78F
:100B100008FEFA2000F0F9FE0120FFF746FC62B65D
:100B2000A9A004F047FFB1A004F044FFA6A004F080
:100B300041FFB748D0F80E10B6A004F03BFF9FED80
:100B4000BB0B53EC102BBBA004F034FF01F03CF8BE
:100B500000F024FE00234FF4C67219468C4804F0BE
:100B600077FD8B480068BA4990FBF1F0182802D055
:100B7000B84887490860322000F0C7FE8448D0F8A2
:100B800088018249884203D181484068B24948605F
:100B9000B14840680F2841D0AF4840688549086097
:100BA000AD49486803F0FEFA79484068AA494968A7
:100BB000884233D17648D0F88801744988422DD1D3
:100BC000C0227349C831A54806F0EFF8BC2270492D
:100BD0000C31A34806F0E9F801F0A0F8A0488268BB
:100BE00001680120FFF70DFC80469D48C2684168FE
:100BF0000220FFF706FC0646B8F1010F01D0012ED6
:100C000001D101F083F86B48806C20F4807000F50E
:100C100080706849886493A004F0CCFE6548006841
:100C20000E2804D196A101A805F01CFE0CE0614835
:100C300000680D2804D194A101A805F013FE03E07B
:100C400094A101A805F00EFE01A994A004F0B2FE43
:100C50008348816B96A004F0ADFE9BA004F0AAFE31
:100C600001F0C8F9E4E2A14801F06AFF0446902CC3
:100C700008D15048006A40F020004E4908629CA00C
:100C8000FFF774FE9948D0F80001012816D1012120
:100C9000964805F006FC9D4A0021944802F0A9F808
:100CA0000546012D06D1994801F091FF0021974892
:100CB00005F0F7FB02208D49C1F8000101F09FFF0C
:100CC00000F000FE8346514600F01BFE64283EDD26
:100CD00000F0F8FD8246374890F84800C0F3001055
:100CE00018B140F2914002F00AF833480838006821
:100CF000C0F300302F49C860C868FFF763FE2D4974
:100D00000861FFF745FBB0EE408A814880ED0D8A0F
:100D100090ED0D0A5048D0ED120AB4EEE00AF1EE63
:100D200010FA01DD012100E000217948C06B61F378
:100D300051407749C8630846C06BC0F3404028B1B2
:100D4000084690ED0E0A08EE080AE5E0E2E033E11D
:100D50000D0A457869742077697468206572726F2E
:100D6000723A20257300000020000020240000209B
:100D7000000002402C0000200D0A506F7765726958
:100D80006E6720646F776E202E2E2E00202002A723
:100D900010020020280000202063616E63656C6CE7
:100DA00065640D0A0000000020676F6F646279655A
:100DB000210D0A00C8050020180402400CED00E0D7
:100DC0000000FA05000000000D0A2D2D2D2D2D2DFF
:100DD0002D2D2D2D2D2D2D2D2D2D2D2D2D2D2D2D43
:100DE0002D2D2D2D2D2D2D2D000000000D0A4B56E3
:100DF000533330204D4F544F52495A4544205645A5
:100E000052544943414C205354414745000000008F
:100E1000029900080D0A0A4669726D7761726520B1
:100E20007265763A0925303658000000000000004F
:100E3000000065400D0A53797374656D20636C6F13
:100E4000636B3A09252E3266204D487A0000000077
:100E500040420F0000366E01780500209C03002000
:100E60005C0400200D0A454550524F4D20636F6EC3
:100E700074656E743A096C6F61646564000000000B
:100E80006D65747269630000696D70657269616C8B
:100E900000000000756E6B6E6F776E000D0A537464
:100EA00061676520747970653A0925730000000058
:100EB0000D0A456E636F6465723A09256420636F9D
:100EC000756E74732F6D6D000D0A0A507265737321
:100ED00020456E74657220666F7220646562756766
:100EE000206D656E752E0D0A00000000B400002014
:100EF000496E76616C696420415054206D6573734E
:100F000061676520666F726D61742E00600A002053
:100F1000180500201FED550AC64880ED0E0AC06B6B
:100F2000C0F3404030B1C448006A40F40030C249C8
:100F3000086205E0C048006A20F40030BE4908623B
:100F400003F065FEBB4880690A281CD1B948C06B14
:100F500020F080008030B749C863B74890F8480057
:100F6000C0F3C00078B1B44890F8480000F0010028
:100F700018B140F2444001F0C2FEAF48806C20F04E
:100F80000800AD498864B9F1000F01D1012000E0EB
:100F900000208146A848406A00280ADDA648416A28
:100FA000406A401EA44A5062012020EA9100114686
:100FB0008862002F00DD7F1E01F02CF803F0C0FADC
:100FC0009C4890F83C00C0F3001060B19948C06B99
:100FD00020F010009749C863084690F83C00C0F321
:100FE000801000B91427934890ED0E0A9348D0ED75
:100FF000130AB4EEE00AF1EE10FA28DD8E48006A1A
:1010000000F4802018BB8C48006A40F480208A4994
:1010100008628848C06B20F4802000F58020854954
:10102000C86387A248F6BA01812001F068FE88A053
:1010300004F0C0FC7F48C06B20F480607D49C86329
:10104000032003F0DBFD03F0A2FF01F036FA00F00D
:1010500006FCF0B1784890F8200000F01000C0B90C
:101060007548006A40F01000734908627DA248F696
:10107000BA01812001F043FE6E48C06B20F480600D
:101080006C49C863032003F0B9FD03F080FF01F051
:1010900014FA684890F83C00C0F34000F0B365488B
:1010A00090F83C00C0F38010C0BB6348806C20F017
:1010B0002000614988645F48C06B20F008005D49EA
:1010C000C8630020C8625C4890F84800C0F3400044
:1010D00078B1594890F8480000F0010018B140F28A
:1010E000644001F00CFE5448806C20F0020052492C
:1010F0008864514890F84800C0F3800070B14E48B1
:1011000090F8480000F0010018B140F2664001F08C
:10111000F6FD4948806C20F0040000E001E04649FB
:101120008864444890F83C00C0F3800088B142488D
:1011300090F84800C0F3400058B13F48806C20F060
:1011400002003D4988640846806C20F00400001DC0
:1011500088644848826801680120FFF768FA3649C8
:1011600088634448C26841680220FFF760FA324948
:10117000C863886B03F04DFF2F49C86B03F049FF2C
:1011800000F074FB2C494861486904F0CAF8002F4C
:1011900011DC2848808FC0F3C03018B12648406960
:1011A000012808D02348C06BC0F3004028B1224872
:1011B0004069022801D1012000E000201E49C862D8
:1011C0001C4890F83C00C0F3401028B10846006A63
:1011D00040F48030086205E01748006A20F480304F
:1011E000154908621448006A18B1022012490864BF
:1011F00014E01148C06A012804D14FEA49000E49A1
:1012000008640BE00B48808FC0F3C02018B10320A6
:101210000949086402E00120074908640649096C8D
:10122000054A926A01FB02F0FFF7BFF805F0E1F80A
:1012300019E5000018050020C805002078050020E9
:101240004D6F746F72204F7665726C6F6164000031
:101250000D0A4D6F746F72204F7665726C6F61640A
:1012600021000000456E636F646572206661756CD5
:10127000740000005C04002030B502F4805303BB0E
:1012800003684D000324AC40A3430360C3684D00D2
:101290000324AC40A343C36002F0010333B1C3682D
:1012A0004D000124AC402343C3603DE002F0020343
:1012B000002B39D0C3684D000224AC402343C360E7
:1012C00032E002F4007313B101238B4002E04FF4CB
:1012D00080338B40836102F480732BB14468012317
:1012E0008B401C43446004E0446801238B409C43D2
:1012F000446083684D000324AC40A343836002F440
:1013000080632BB183684D000324AC40234383608A
:1013100003684D000224AC40A343036003684D0002
:101320000124AC402343036030BD10B502684C007B
:101330000323A3401A430260C2684C000323A34066
:101340009A43C26010BD70B500290CDB07290ADC86
:10135000046A8E000F25B540AC438D0002FA05F5F6
:101360002C43046213E0082910DB0F290EDC446AC9
:10137000A1F10805AE000F25B540AC43A1F1080569
:10138000AD0002FA05F52C43446200E070BDC4686C
:101390004E000325B540AC43C46003F0010434B1F2
:1013A000C4684E000125B5402C43C46008E003F03A
:1013B00002042CB1C4684E000225B5402C43C46021
:1013C00003F4807424B1446801258D402C434460AB
:1013D00084684E000325B540AC43846003F4806408
:1013E0002CB184684E000325B5402C43846004680A
:1013F0004E000125B540AC43046004684E00022550
:10140000B5402C43046000BFC0E7F948006840F0D5
:101410000100F7490860F748006820F00C00F54922
:1014200008600846C06820F00C00C860C8008861E9
:101430000846006840F4807008600846006820F4A0
:10144000007008600846806860F440708860202062
:1014500088610846006840F48060086008460068BB
:1014600020F4006008600846806860F4406088608E
:10147000802088610846006840F480400860084683
:10148000006820F4004008600846406840F0800092
:1014900048600846806860F4404088600846C0683C
:1014A00020F44040C860C80188610846006840F4E4
:1014B000803008600846006820F400300860084664
:1014C000806860F44030886048158861084600688C
:1014D00040F4802008600846006820F4002008607E
:1014E0000846406840F4007048600846806860F430
:1014F000402088600846C06820F44020C860084644
:10150000006820F4401008600846C06820F44010CD
:10151000C860B748006840F00200B54908604FF461
:101520008030B5490860B4481838006840F00100C0
:10153000B149183908600846006820F002000860C8
:10154000AD481038006820F00300AB49103908603E
:10155000A9481838006820F00C00A749183908601D
:10156000A5480C38006820F00C00A3490C3908602D
:101570004FF48020A04908609F481838006840F068
:1015800010009D49183908600846006820F02000C6
:10159000086099481038006820F0300096491039EA
:1015A000086095481838006820F47C509249183932
:1015B000086091480C38006820F47C508E490C3942
:1015C00008608D481838006820F040708A49183942
:1015D000086089480C38006820F0407086490C3952
:1015E000086048078449086083481838006840F05C
:1015F00080408149183908600846006820F00040A2
:1016000008607D481038006820F040407A49103961
:101610000860081D006820F04040091D08607448FB
:10162000006840F00400724908607448006820F0C7
:1016300003007249086071480C30006820F0030014
:101640006E490C31086004206C49183108606B4801
:10165000006840F01000694908600846006820F002
:101660002000086065480830006820F030006349B9
:101670000831086008206149183108605F48006837
:1016800040F040005D4908600846006820F0800096
:1016900008605A480830006820F0C00057490831F7
:1016A00008604FF4801055491831086053480068AD
:1016B00040F48070514908600846006820F40070CA
:1016C00008604E480830006820F440704B490831EB
:1016D000086048054949183108604848006840F4E6
:1016E0008030464908600846006820F400300860F1
:1016F00042480830006820F4403040490831086012
:101700003E48006820F440203C4908603B480C30CB
:10171000006820F4402039490C31086037480068DF
:1017200020F040603549086034480C30006820F0F3
:10173000406032490C3108603048006820F0405069
:101740002E4908602D480C30006820F080502B494D
:101750000C3108600846006840F0005008604FF403
:1017600000402649183108602448006840F0804055
:10177000224908600846006820F0004008601F48C1
:101780000830006820F040401C490831086070476C
:10179000194808380068C0F3003070470421174A20
:1017A000183211601549086820F0300040F0100030
:1017B00020F02000086070470F481838006820F0BB
:1017C0000C000D491839086004200C4918310860D4
:1017D000BFF35F8F084808380068C0F340007047C7
:1017E0004FF48021054A1832116048B1022109E006
:1017F0003038024000000240180402400008024055
:101800004FF40031204A11601F491839096841F02E
:1018100004011D4A183A116070471C48006820F006
:101820000C001A4908604FF4004019490860BFF3E2
:101830005F8F16480069C0F3400070474FF00041C9
:10184000134A116008B1022101E04FF400310F4A40
:1018500091611146096841F00401116070470C481C
:1018600008380068012121EA5030704707480069B4
:10187000012323EA902206480838006823EA502111
:1018800002EB4100704700001804024000000240D3
:10189000180802402548006840F480702349086019
:1018A0004AF20F40224908854FF6FF70C862084689
:1018B000008840F0050008800846808A40F001005A
:1018C0008882704708B51A48406A00901848008A14
:1018D00000F0010070B11648406A00901548006899
:1018E00000F58030134908601148008A20F001009B
:1018F0000F4908820F49009809680844C0F34F0057
:1019000008BD0246501A80B2704770B50446FFF712
:10191000D9FF054600E000BFFFF7D4FF0646294681
:10192000FFF7EFFFA042F6DB70BD00004038024039
:101930000020004030000020002100205F4A126893
:1019400042F480325D4B1A6000BF5C4A126802F4B8
:101950000030491C10B9B1F5705FF6D1574A1268D2
:10196000C2F3404000287BD0544A4032126842F013
:101970008052524B40331A60514A126842F48042FE
:101980004F4B1A6040F205624E4B1A604B4A0832C8
:1019900012684A4B08331A601A46126842F4004231
:1019A0001A601A46126842F4A0521A601A46126867
:1019B00022F4F81242F440221A601A46126822F009
:1019C0007C521A601A46126842F080621A601A4607
:1019D000126842F060521A601A46126822F04042C1
:1019E0001A601A46126842F080421A60364A1B1F7B
:1019F0001A601A1F126842F080721B1F1A6000E002
:101A000000BF2E4A126802F00072002AF8D02B4A5A
:101A10000832126822F00302284B08331A601A4673
:101A2000126842F002021A6000E000BF234A083246
:101A3000126802F00C02082AF7D1244A1F4B8433A3
:101A40001A601E4A126842F080621C4B1A6001E064
:101A500006E000BF194A126802F00062002AF8D0BE
:101A6000704710B51A48006840F4700018490860C3
:101A70001248006840F001001049086000200F493A
:101A8000083108600D480068124908400B49086099
:101A90001148091D0860081F006820F48020091FF4
:101AA0000860002005490C310860FFF745FF4FF042
:101AB000006007498039086010BD0000003802400E
:101AC00000700040003C02400C54400700400050B1
:101AD00088ED00E0FFFFF6FE1030002410B55948F5
:101AE0000068594908435749086001215748FFF7E2
:101AF0001CFC02215548FFF718FC05215348FFF74D
:101B000014FC50481430006840F480704D49143182
:101B100008604F48006840F440304E49C1F8040363
:101B200040F2033088604C48C8600846C06A20F420
:101B30007000C8620846C06A40F40010C86243F2F0
:101B4000EB1048634548006820F0010043490860F5
:101B500000E000BF4148006800F001000028F8D113
:101B60003E48006820F060603C4908600846006814
:101B700040F45060086037484C30384908310860FC
:101B80003748091D086003203449091D08603148A1
:101B9000406840F480702F4948600846406820F053
:101BA000007048600846406840F0807048602B48EC
:101BB000006840F00100294908602648806840F02C
:101BC00080402449886010BD2448006820F001004E
:101BD0002249086000E000BF2048006800F00100D2
:101BE0000028F8D11B48806820F00100194988605E
:101BF0000846C06A20F47000C8620846C06A40F413
:101C00008010C86202201549091D086040F2EB10DF
:101C1000104948630846806840F0010088600F481A
:101C2000006840F001000D4908600A48806840F0F3
:101C300080400849886070470146094830F8110023
:101C400070470000303802400400400000080240A5
:101C50000423014000200140F88103007064024029
:101C6000340000209F48A049C86001469E48C161D9
:101C70009E49086000208860C8609D48006840F068
:101C800020009B4908609B48008840F00800994963
:101C9000088098481430008840F0010095491431BC
:101CA0000880081F008820F00100091F08803720E5
:101CB00000F01F02012191408F4A430942F823108E
:101CC00000BF7047B0F57A7F02D34FF4FA6200E0AC
:101CD0008A4A11468A4AB2FBF1F2521E854B2833DA
:101CE0001A80864AB2FBF1F2B0FBF2F2521E1B1DC3
:101CF0001A6000227F4B24331A607E4A1432128805
:101D000042F001027B4B14331A80704710B51C203F
:101D100000F0D3F8372000F0D0F810BD10B51C202B
:101D200000F0D6F8372000F0D3F86F4A526A0AB9AB
:101D3000012200E0002210466C4A1268D1688847F0
:101D400010BD4FF08041C863098A21F008014FF0AF
:101D5000804211821146898941F0080191817047C2
:101D600010B504461C2000F0B3F8372000F0B0F89E
:101D700014B32C2221465C4805F017F85A485B49F9
:101D800008600246526A0AB9012200E000221046A9
:101D9000564A1268D1688847544800680068534919
:101DA000486000208860C8604F49086AFFF78AFFD2
:101DB0004E494868FFF7C5FF10BD4E4810300088F7
:101DC00020F001004B4910310880081F008840F0C6
:101DD0000100091F08804748008840F0010045497C
:101DE0000880704710B5404A506A404A1268D1686E
:101DF00088474FF08040808920F008004FF08041F4
:101E000088810846008A20F008000882FFF7D5FF85
:101E100010BD10B5344A526A0AB9012200E000220E
:101E20001046324A1268D168884732480C30008820
:101E300020F001002F490C310880081D008820F097
:101E40000100091D088029488068401C27498860D6
:101E50000968896888420BD2244840682349096888
:101E600049680844214948604868FFF76AFF23E051
:101E70001E48C068401C1D49C8601B49896A8842C9
:101E800014D21A4800681849884202D101F11000A2
:101E900000E0154815490860084600680068486079
:101EA000002088604868FFF74CFF05E01C2000F028
:101EB0000FF8372000F00CF810BD00F01F020121D0
:101EC00091404209920002F1E022C2F800117047ED
:101ED00000F01F02012191400A4A430942F82310F1
:101EE000704700000D07000814060020400600207F
:101EF000403802400014004080E200E040420F0001
:101F000000BD010580E100E02DE9F043054605F341
:101F10000F02C94800681044DFF81C83C8F80000AD
:101F2000C648806E010240460068884202DD404695
:101F300001600AE0C0480068C1F10008404504DAC9
:101F40004842DFF8F482C8F80000BB48006800127D
:101F5000DFF8E882D8F8608000FB08F0DFF8E08264
:101F6000D8F8008090FBF8F3B648D0F800800068FD
:101F7000401CDFF8D092C9F80000B048C06E804520
:101F80000FDB0020C846C8F80000AF480068A2EB8D
:101F9000000C0CF30F00DFF8B482C8F80000AA4868
:101FA0000260A648C06D5043DFF8A482D8F80080D4
:101FB00090FBF8F6A5480068012803D0A348006804
:101FC000401C08B900240DE09C48406EDFF87C827C
:101FD000D8F8008000FB08F0DFF87882D8F800809D
:101FE00090FBF8F4981907199B48036307F30F0057
:101FF000BDE8F08310B500208F4908602C2000F068
:1020000007F910BD10B52C2000F00DF900208A4909
:10201000086010BD10B52C2000F005F98F4800684D
:102020008D4948608E48006808608E4800684861A5
:102030002C2000F0EDF88C48006840097F4991F8A9
:102040007C1080EA1110C1438348C06B61F3CF302C
:102050008149C863844800680009784991F87C1078
:1020600080EA5110C1437C48C06B61F310407A494B
:10207000C86310BD01B5FFF7C5FF009800F044F933
:1020800075490098086076490098086000231A4650
:102090000099084600F04AFC684600F047FA022022
:1020A00000F04EFC684600F041FAFFF7A3FF08BDC0
:1020B0006948006A032827D1604890F87C00C0F383
:1020C000C01050B168480068C0F340105B4991F8F7
:1020D0007C10C1F30011884210D1584890F87C0060
:1020E000C0F3C01080B960480068C0F300105349C5
:1020F00091F87C10C1F34011884205D0584800681F
:10210000554988600420086270472DE9F04700F0C7
:10211000F7F85649C96900FB01F951480068A0EB7E
:102120000900504908604E48C0F800904B4800F044
:10213000FDF980464848808FC0F3802058B1474958
:102140000968474A1268881AFFF7DEFE4749C969DD
:1021500000FB01F500E000254549098805FB01F079
:10216000C11700EB5141C9130CB23B48808FC0F33B
:10217000402020B13848808FC0F3802090B1002CDF
:1021800000DC0FDA002C05DD04F1640000B200F081
:1021900063F90AE0002C08DAA4F1640108B200F047
:1021A0005BF902E0204600F057F92B48808FC0F31E
:1021B000402020B12848808FC0F3802010B12046F5
:1021C00000F04AF924480561C0F80C8008F00100CD
:1021D00030B12148C06B20F00100401C1E49C8638B
:1021E00000260FE01C48403000EB06173868012835
:1021F00007D1C8F3800A07F1080252F82A0079686B
:102200008847761C022EEDDBFFF752FFBDE8F08712
:1022100000F01F02012191404209920002F1E022E8
:10222000C2F80011704700F01F0201219140114ACD
:10223000430942F8231070473C0000209C03002013
:102240004000002058000020600000205C000020BA
:102250004400002048000020180500205000002005
:102260004C0000205400002010040240780500209B
:102270006400002080E100E010B53048006840F0C4
:1022800003002E490860002301220F212C48FFF78C
:102290005AF80023012203212A48FFF754F827485F
:1022A0001030006840F001002449103108604FF000
:1022B000FF300906C8620846008B40F2011108434E
:1022C00089070883032008810846008C40F002003B
:1022D00008840846008C40F0200008840020C86371
:1022E0000846808B20F0700088830846808B40F081
:1022F000100088830846008840F00100088010BD67
:102300004FF08040406A70474FF08041098821F0CB
:1023100001014FF08042118011464862098841F066
:102320000101118070474FF08040008AC0F3001017
:1023300070474FF08040006C70470000303802401A
:10234000000002400004024010B57348006840F0ED
:102350000400714908600023032206216F48FEF73C
:10236000F2FF0023032207216C48FEF7ECFF012354
:10237000032206216A48FEF7E6FF6748143000682A
:1023800040F002006449143108600020654908806B
:10239000481465490880401E6249091D086062486A
:1023A000008860490C3108605F480088091D08609A
:1023B0005C481438008840F001005A4914390880FC
:1023C000081D008846F2600108435649103908800C
:1023D00054480838008840F01100524908390880F4
:1023E00006205049083108804E481C30008840F4CF
:1023F00000604C491C3108800846008840F4805039
:1024000008800846008840F4005008804548183885
:10241000008820F0800043491839088041481C306A
:10242000008840F480403F491C31088008460088FD
:1024300040F4004008803B482838008840F0010004
:1024400038492839088037481C38008840F0010096
:1024500034491C39088010BD414208B2324909880C
:10246000884203DD3049098808B208E02E4909880E
:102470004942884203DA2C490988494208B20028B7
:1024800006DD0021274A10321160111F086006E0A6
:102490004142244A103211600021121F116070471E
:1024A00010201E49183108601E481C30008840F476
:1024B00000401C491C31088070474FF480101749B8
:1024C0001831086017481C30008820F40040154976
:1024D0001C3108807047134818380088C0F3C011B9
:1024E0000F480069C0F380120E481838008820F0A9
:1024F00080000C4B183B188002EB4100704710B570
:1025000008481838008820F001000649183908806A
:10251000FFF7FBFD10BD000030380240000802400C
:102520000000024028040140640000202DE9F0472B
:102530000746FC4843698446DCE90E56406801289A
:1025400004D0022878D0032877D1C8E0F548006885
:10255000012857D1F4480068DFF8C8C3CCF8200040
:10256000F1488068CCF81C00EF48C068CCF818002F
:10257000ED484068DFF8B0C3DCF800C0A0EB0C0009
:10258000DFF8A0C3CCF8100060460069002811DD18
:10259000604600694FEAE07C4FEA4C4C4CEAD03C84
:1025A0004004DFF88083C8E90C0C0020C446CCF856
:1025B000080011E0DB48006940424FEAE07C4FEA46
:1025C0004C4C4CEAD03C4004DFF85883C8E90C0C72
:1025D0000120C446CCF808000020DFF848C3CCF83E
:1025E0001400E046C8F82800C8F82C008446C8F853
:1025F00038C0C8F83CC0C446CCF80C000220CCF867
:1026000000005DE0C8484068DFF818C3DCF820C06F
:10261000A0EB0C00DFF80CC3CCF81000604680681B
:1026200060B16046006940424FEAE07C4FEA4C4CA2
:102630004CEAD03241040AE048E059E0B948006968
:102640004FEAE07C4FEA4C4C4CEAD0324104B548AA
:10265000D0E90E90DFF8CCC2DCF814C04FEAEC7879
:1026600019EB0C0C40EB0800DFF8B892D9E90A89A5
:10267000B1EB080A62EB0908BCEB0A0C70EB08002E
:1026800016DAA848C0E90C12A748C068DFF894C25F
:10269000CCF8180060464069DCF818C0604501DAE3
:1026A000022000E04020DFF87CC2CCF8000007E008
:1026B0008020DFF870C2CCF80C001020CCF80000AD
:1026C0000020DFF860C2CCF8040011E01020DFF831
:1026D00054C2CCF800000020CCF8040008E0202010
:1026E000DFF840C2CCF800000020CCF8040000BFA6
:1026F00000BF8C480068102877D006DC022809D07B
:10270000042830D008282DD12EE020286ED0402873
:10271000F9D150E083484069DFF808C2DCF81CC0FA
:102720006044DFF800C2CCF8140060464069DCF871
:1027300018C0604507DD7B4843610420DFF8E4C131
:10274000CCF800000EE07748D0E90E9C40691844B0
:102750004FEAE07819EB00004CEB080CDFF8C4817D
:10276000C8E90E0C7FE07EE06E484069DFF8B4C136
:10277000DCF81CC0A0EB0C00DFF8A8C1CCF81400FA
:1027800060464069002806DA0020CCF814000120D9
:10279000CCF800000EE06348D0E90E9C4069184474
:1027A0004FEAE078B9EB00006CEB080CDFF87481BD
:1027B000C8E90E0C57E05B484069DFF868C1DCF8F7
:1027C0001CC0A0EB0C00DFF85CC1CCF81400604624
:1027D0004069DCF818C0604509DA524843610420BA
:1027E000DFF840C1CCF8000010E010E024E04D48D4
:1027F000D0E90E9C406918444FEAE078B9EB00003C
:102800006CEB080CDFF81C81C8E90E0C2BE0454886
:10281000D0E90A9C406919EB000A4CEBE070DFF844
:102820000491D9E90E891AEB080C40EB0900DFF896
:10283000F480C8E90CC016E00020DFF8E8C0CCF84E
:10284000140000236046D0E90AC0DFF8D880C8E948
:102850000CC09C46C8F838C0C8F83CC00120C4462B
:10286000CCF8000000BF00BF2E48D0E90A80DFF896
:10287000B4C0DCF814C09C444FEAEC7918EB0C0CA3
:1028800040EB0900DFF89C80C8E90AC04046D0E967
:102890000CC0C146D9E90A8ABCEB080960EB0A0002
:1028A000DFF88080D8E90EC8B9EB0C0C70EB08009B
:1028B00012DA1C484361D0E90CC0BCEB050C60EB9C
:1028C0000600DFF86080C8E90AC04046C0E90E563D
:1028D0000820C446CCF800001248D0E90AC04FEAEC
:1028E000C03848EA5C440F48806838B10D48006A37
:1028F000001BDFF830C0CCF8400006E00948006A51
:102900002044DFF820C0CCF840000648006C386056
:1029100004480068DFF80CC0DCF80CC040EA0C008A
:10292000BDE8F087680000205006002030B5094C53
:1029300020606160A260E3600124074D6C6030BDDF
:10294000012803D10221044A516002E00321024A16
:1029500051607047500600206800002010B5714893
:10296000006840F480206F4908606E4810380068A5
:102970006D4908436B4910390860002307220A217A
:102980006A48FEF7E0FC002307220B216748FEF7A8
:10299000DAFC4FF480520E216448FEF76DFC0122F0
:1029A0000D216248FEF768FC40F26D106049088016
:1029B00000205F4908310880091D08805C48001D1F
:1029C000008840F400505A49091D088058480C30CE
:1029D000008840F0C00056490C3108805548806D91
:1029E00020F001005349886500E000BF5148806D28
:1029F00000F001000028F8D14E48806D20F06060A2
:102A00004C4988650846806D40F00060886508463E
:102A1000806D40F4886088654548001F0866002086
:102A2000C8650846806A20F00100886200E000BFA7
:102A30004048806A00F001000028F8D13D48806AD3
:102A400020F060603B4988620846806A40F0006080
:102A500088620846806A40F4A06088623448001F9B
:102A60000863354848630815C8623148083800884B
:102A700020F040002E49083908802D48001D0088AC
:102A800040F00C002A49091D08802A48806A40F05D
:102A900001002849886210BD2649C96AC1F58061D4
:102AA000264A1268914202D14FF6FF700FE0234987
:102AB0000A680968491C214B19601F49885C19463E
:102AC0000968B1F5806F02D100211A461160704784
:102AD000184A926D22F00102164B9A6500E000BF81
:102AE000144A926D02F00102002AF8D1114A506690
:102AF000D1650F4A083A128822F040020C4B083B7D
:102B00001A804FF000620B4B9A601A46926D42F0A9
:102B100001029A65704706480838008800F04000B6
:102B200070470000403802400200200000040240CC
:102B3000084800400060024060060020B00000200D
:102B400070B504460126D4F80001022801D0022005
:102B500070BD2FE0384802680068401C364B186092
:102B6000A55418460068062817D1207900F0800087
:102B700008B1A07800E00020801D3049086020796D
:102B800000F07F00502806D16079012803D1084663
:102B90000068802801D99020DAE727480068274993
:102BA0000968884206D10020234908600120C4F842
:102BB00000010326D4F80001012806D0FFF76CFFBE
:102BC00005464FF6FF718842C4D13046C0E730B5A4
:102BD000D0F8003102461A4C24681A4D2D6861194C
:102BE000184C24681C44174D2C6003E012F8014B6C
:102BF00001F8014B1C1EA3F10103F7D130BD10B544
:102C000010480068B0B1FFF786FF98B10D48016821
:102C10000B480068FFF75CFF094800680A498842D2
:102C200002D101F5807000E00748054908600020E6
:102C30000449086010BD0000C0010020C40100204C
:102C4000B8010020BC010020640B0020FA48FB49B9
:102C50008A8FC2F3802242B140F0004091F83C20BC
:102C6000C2F340120AB140F08040CA6BC2F3404246
:102C70000AB140F080408A8FC2F3C02242B14A6953
:102C8000002A01DD102200E0202242F00052104311
:102C900091F83C20C2F3C01212B140F4806006E00B
:102CA00091F83C20C2F380120AB140F400708A8F80
:102CB000C2F3C0320AB140F00200CA6BC2F3004254
:102CC0000AB140F00100DE4A92F84820C2F34012F7
:102CD00032B14A69002A01DD402200E0802210431F
:102CE000D84A1268C2F340020AB140F48010D64AB2
:102CF0001269C2F340020AB140F4001070470FB4E9
:102D00007FB509A80390BDF8200000900020019035
:102D1000CEA00290BDF82000812818D1039810C8D9
:102D20000390039820C8039000200090C448406B93
:102D3000A0420CD0B4F5004F07D081200090019440
:102D400002952946C2A002F035FEBD48446300202A
:102D50000390BB48406C01280ED1C34A694600204D
:102D600000F047F80646012E06D1BF48FFF72FFFB7
:102D70000021BD4803F095FB7FBC5DF814FB10B546
:102D8000BC22BA49BA4804F010F8C022B949B84880
:102D9000BC3004F00AF8AA480068B5490C3948600C
:102DA000B54888604FF4C6720021B1480C3802F073
:102DB00092FC0446012C08D0B0A248F2D0418120F8
:102DC000FFF79DFFAFA002F0F5FD01234FF4C6729F
:102DD0000021A7480C3802F03BFC044644B1B0A2E5
:102DE00048F2D0418120FFF78AFFB0A002F0E2FD57
:102DF00010BD2DE9F74F8EB08B4692460E9878B1F4
:102E0000DDF83890DDF83890B9F8000080B20D9008
:102E1000DDF8389009F1060601208949486409E087
:102E2000BBF1000F06D04FF000090026BBF80000F0
:102E300080B20D905546AC1D0020E870012028712D
:102E40005020687100200C90CAF8000140F2444202
:102E50000D98811A904270D05FDCB0F5826F6DD012
:102E60002FDCB0F5047F6AD014DC122868D007DCB0
:102E7000022877D0052876D0112841F0DC8064E163
:102E8000142800F0E687152801F0C5808128F4D1C8
:102E900000F0A2BF40F22322811A904276D008DCD3
:102EA000A0F21120002872D0022871D00328E4D1AA
:102EB000F3E3B1F5F37F6CD0A1F2E7110029DCD187
:102EC0008DE140F22442811A904272D016DC40F229
:102ED0001642A0EB020190426CD008DCA0F2114037
:102EE000002868D0022867D00328C6D100E2012953
:102EF0007ED002297DD00D29BFD13EE21C2979D098
:102F000006DC052977D0162976D01729B5D1F0E34C
:102F10001D2972D01F29B0D1D7E34D296ED028DCEE
:102F200020296CD014DC0C296AD00ADC012968D075
:102F3000022967D00429A0D1FEE3FEE362E12BE180
:102F400010E10D296AD00F2969D0132995D1F5E335
:102F5000272965D008DC212963D0222962D02629BF
:102F60008BD1ECE305E12FE028295CD04C2984D1FA
:102F70007CE1AF2958D012DC752956D00ADC4E29E5
:102F800054D05C2953D05D2991D1F4E3D9E015E107
:102F9000F2E338E19C294BD09D2988D1EDE3E32968
:102FA00047D00ADCDF2945D0E02944D0E22986D188
:102FB000F6E3C5E2B5E138E192E1FC2900F02487AF
:102FC000FD2992D100F02CBF062028805420A87043
:102FD000287940F08000287154223B49204603F0B4
:102FE0009FFE23480C3800682060384800890AE0BA
:102FF000A4E1A2E113E361E1B2E33BE32AE127E1CB
:10300000FAE3CEE3D2E3A4F84C000D4800680E28A2
:1030100062D12FA1201D03F025FC61E0EDE3EDE37B
:10302000EDE3EDE315E1ECE3ECE3ECE342E1EBE3AC
:10303000EBE3EBE3EBE3EBE300010010180500200A
:10304000C8050020100402400000024000000000FB
:103050000D0A415054206E6F74696669636174692A
:103060006F6E3A2025730000600A00205C04002087
:103070001C0200209C0300200300010045455772FC
:10308000697465000D0A454550524F4D20777269AD
:103090007465206661696C7572652E0D0A0000000A
:1030A0004545566572696679000000000D0A454580
:1030B00050524F4D20766572696679206661696C61
:1030C0007572652E0D0A000002990008780500202F
:1030D0004B565333302F4D00FEA1201D03F0C2FB91
:1030E000FEA0007884F84200FCA0417843200155FE
:1030F000FAA0C17844200155F8A001794520015576
:10310000F9A00079202801D1302001E0F6A0007953
:1031100046210855F4A0417947200155F2A00178D5
:1031200048200155F0A0417849200155EEA0817852
:103130004A20015500214B20015501200C9000F040
:103140007DBF4020EB494862F9E7EA48806C20F0F7
:1031500010001030E749886400200863FA20FEF769
:10316000D4FBECE7E348806C20F01000E149886470
:10317000E5E70020DF4948640846806C20F0100035
:103180008864BBF1000F06D0022028800020A870C0
:10319000E87001200C90D2E799F80300012809D1CA
:1031A000C003D4494863012001F0F5FE0020D14955
:1031B000086202E0022001F0EEFEC0E740F21220B9
:1031C00028800120A870CC48808FC0F3802008B1EF
:1031D000012000E00220E87001200C90AFE740F2EF
:1031E0000B4028800620A870287940F080002871C4
:1031F00001202080C048D0F80080C4F8028001205F
:103200000C909CE700BF40F209410D98884202D122
:10321000D6F8020001E0D6F8020080464046FEF7EC
:1032200029FF404601F0EDFC89E740F2124028807A
:103230000620A870287940F08000287101202080A5
:10324000AD48D0F80080C4F8028001200C9076E7E9
:1032500000BF00BFA74890F84800C0F3001020B19D
:10326000A448006B322800DD69E700BF0D98B0F577
:10327000926F02D140F2914000E00D9800B2288098
:103280000E20A8700020E870287940F08000287196
:103290000120208098480068C4F802009648808A7F
:1032A000E08000202081FFF7D1FCC4F80A00012053
:1032B0000C9044E700208F49086340E740F22A4021
:1032C00028800620A870287940F08000287101200D
:1032D0002080FFF7BBFCC4F8020001200C902EE711
:1032E000D6F806008549C860D6F80A00086126E7C6
:1032F00040F2154028800E20A870287940F0800008
:103300002871012020800020C4F802007B48C0689A
:10331000C4F8060079480069C4F80A0001200C903E
:103320000DE770887549486170688861F068C86108
:1033300030690862B08A486201E700BF4FF48360D9
:1033400028801620A870287940F08000287101207C
:1033500020806A48808A60806848806960600020B8
:10336000A0606648C069E0606448006A2061634804
:10337000808CA08201200C90E1E6B08806285CD207
:10338000DFE800F05B030F2336495C48C06F20F094
:1033900001005A49C8670846C06F20F00400C8679A
:1033A0004BE05648C06F20F00100401C5349C867ED
:1033B0000846C06F20F00400001DC8670846C06FB3
:1033C00020F010001030C86737E04C48C06F20F084
:1033D0000100401C4949C8670846C06F20F004003E
:1033E000001DC8670846C06F20F01000C86724E0C1
:1033F0004248C06F20F001004049C8670846C06FCE
:1034000020F00400001DC8670846C06F20F01000BF
:103410001030C86711E03948C06F20F0010037490B
:10342000C8670846C06F20F00400001DC867084642
:10343000C06F20F01000C86700BF00BF708806286A
:1034400073D2DFE800F072030F2336602B48C06FA1
:1034500020F002002949C8670846C06F20F0080024
:10346000C86762E02548C06F20F00200801C234935
:10347000C8670846C06F20F008000830C8670846D3
:10348000C06F20F020002030C8674EE01B48C06F9E
:1034900020F00200801C1949C8670846C06F20F060
:1034A00008000830C8670846C06F20F02000C867D1
:1034B0003BE01248C06F20F002001049C867084680
:1034C000C06F20F008000830C8670846C06F20F0C1
:1034D000200015E04B5653333000000030373A34AB
:1034E000303A343400000000466562203131203229
:1034F00030323000C8050020180500209C03002051
:103500002030C86711E0FC48C06F20F00200FA4983
:10351000C8670846C06F20F008000830C867084632
:10352000C06F20F02000C86700BF00BFD6F80600BB
:10353000F1494865D6F80A008865F0898867FEE594
:1035400040F2254028801020A870287940F08000A3
:10355000287101202080E84890F87C00C007400FC7
:10356000E54991F87C10C1F3800140EA4100E2494D
:1035700091F87C10C1F30011084302280ED00328F3
:1035800009D0062804D007280BD10220A0800BE028
:103590000320A08008E00420A08005E00520A08092
:1035A00002E00120A08000BF00BFD34890F87C005B
:1035B000C0F340008000D04991F87C10C1F3C001F5
:1035C00040EA4100CC4991F87C10C1F34011084316
:1035D00002280ED0032809D0062804D007280BD1D2
:1035E000022060800BE00320608008E004206080FF
:1035F00005E00520608002E00120608000BF00BF80
:10360000BD48806DC4F80A00BB48406DC4F8060090
:10361000B948B0F87800E08101200C908FE5D6F829
:103620000600B549C8620846C06AB449496A88427A
:1036300003DDB248406AB049C862D6F80A00AE4914
:1036400048637088012801D1012100E00021AA48C7
:10365000C06F61F38610A849C867B088042801D1FB
:10366000012100E00021A448C06F61F3C710A24906
:10367000C86764E540F2424028800E20A87028798F
:1036800040F080002871012020809B4890F87C0049
:10369000C0F3801010B1012001E0C7E20220608079
:1036A000954890F87C00C0F3C01008B1042000E0F9
:1036B0000120A0809048C06AC4F806008E48406B84
:1036C000C4F80A0001200C9039E58D48808FC0F3C2
:1036D000802000B933E58A48C06A01280AD08848AA
:1036E000C06A38B1864890F83C00C0F3C00008B109
:1036F00025E543E08248808FC0F3C02010B98048A0
:10370000806900B11BE57E48C06B20F008000830DE
:103710007B49C8630846C06B20F08000C86301F095
:103720000BFC01207649C8627648806C20F00800C6
:1037300008307449886403E04AE007E005E164E189
:103740000846806C20F002008864F8E440F24440AF
:1037500028800120A8700020E87001200C90EEE481
:10376000D6F80200644988620846806A002801DAB7
:1037700000208862E3E4ECE131E216E240F23C40F2
:1037800028800620A870287940F080002871012048
:1037900020805948806AC4F8020001200C90CEE4D1
:1037A000ACE2D6F8020057498861C8E440F24740CD
:1037B00028800620A870287940F080002871012018
:1037C000208050488069C4F8020001200C90B6E4C3
:1037D0004B48808FC0F3802000B9B0E44848C06AED
:1037E000012816D04648C06A98B1454890F83C0078
:1037F000C0F3C00068B1A2E442E046E057E073E1E4
:10380000E1E078E1CDE2C2E27DE1C7E18BE222E2D4
:1038100044E23B48C06B20F0080008303849C863D8
:103820000846D0F8008099F8040000F0800018B134
:10383000D6F80200804402E0324880698044CDF826
:103840000C802F4903980968884202DA2A48806A66
:1038500000E0002004902848C068059026480069D0
:10386000069003A80FC801F0C0F901202449C862DE
:103870002448806C20F00200801C22498864DDE32B
:10388000D6F802001F49C861D8E340F252402880B0
:103890000620A870287940F080002871012020803F
:1038A0001848C069C4F8020001200C90C6E314480F
:1038B000808FC0F3802000B9C0E31148C06A01289E
:1038C00009D00F48C06A30B10D4890F83C00C0F3F1
:1038D000C00000B1B2E30A48C06B20F00800083015
:1038E0000749C8630120C86299F8040000F080000D
:1038F00050B1D6F802800AE09C0300207805002031
:1039000018050020C8050020F748D0F81C80CDF825
:103910000C80F64903980968884202DAF448806A04
:1039200000E000200490F248C0680590F04800696B
:10393000069003A80FC801F058F9EB48806C20F0FE
:103940000200801CE849886478E3E848808FC0F36F
:10395000802000B972E3E548C06A012809D0E34835
:10396000C06A30B1E14890F83C00C0F3C00000B13B
:1039700064E399F80300022803D1DD48D0F8008001
:1039800002E0DB48D0F80480D848C06B20F0080083
:103990000830D649C863CDF80C8000200490D44884
:1039A000C0680590D2480069069003A80FC801F0CE
:1039B0001CF90120CD49C862CB48806C20F0020080
:1039C000C94988643AE3C948808FC0F3C02000B970
:1039D00034E399F80310012901D1032100E0022109
:1039E000084601F00BF901F0D2FABF48806C20F0D4
:1039F0000200BD4988640846806C20F00400001D68
:103A000088640120B949C86218E3B848808FC0F3C0
:103A1000802000B912E3B548C06A012809D0B34834
:103A2000C06A30B1B14890F83C00C0F3C00000B1AA
:103A300004E3AD48806C20F020002030AA4988645F
:103A4000AB484069012811D199F80300022803D13D
:103A5000A748D0F8008002E0A548D0F80480A2482A
:103A6000806C20F00200A049886425E099F80300EA
:103A700002280DD19D4800689D49896900EB010825
:103A80009B480068404510DA9948D0F800800CE067
:103A90009648006896498969A0EB010894484068F7
:103AA000404502DD9248D0F804808F48806C20F0B9
:103AB0000200801C8C4988648C48C06B20F0080090
:103AC00008308A49C8630120C862CDF80C80002004
:103AD00004908748C06905908548006A069003A84D
:103AE0000FC801F082F8A9E27F48806C20F0010045
:103AF0007D498864A2E27C48806C20F00100401C73
:103B0000794988649AE20020708A00F0010119B1B5
:103B1000D6F80E2076498A6600F0080119B1D6F869
:103B20000210734AD16500F0040119B1D6F80620DD
:103B30006F490A6600F0020119B1D6F80A206C49F3
:103B40004A66C0F307226A49CA66C1B2694A11606F
:103B500074E240F2A24028801420A870287940F036
:103B6000800028710120A41C24F8020C6048806E9B
:103B7000E0605F48C06D20605D48006E60605C483A
:103B8000406EA0605A4890F86C005A49098841EA92
:103B900000202082A41E01200C904FE2708854491E
:103BA000A1F87400B088086748E240F2E24028803B
:103BB0000C20A870287940F0800028710120208016
:103BC0004B48B0F8740060804948B0F87000A0809D
:103BD0000020E0802081608101200C902EE299F885
:103BE00002004149896C60F386113F48816499F86D
:103BF000020041083C48806C61F3C7103A49886470
:103C00003D4800680A2805D191F84810C1F380109A
:103C1000FDF7E6FD384840680A2806D1324991F898
:103C20004810C1F3C010FDF709FE07E240F215206D
:103C300028802D4890F84800C0F380102A4991F858
:103C40004810C1F3C01100EB4100A8700020E870DB
:103C500001200C90F2E1708827490860B0888860E4
:103C6000F088486031892448C160FEF757F822483F
:103C7000826801680120FCF7C4FB0B901E48C268F3
:103C800041680220FCF7BDFB0A900B98012802D086
:103C90000A98012801D1FEF739F8CFE140F225500A
:103CA00028801620A870287940F080002871012013
:103CB00020801148008860800F480089A0800E484D
:103CC0008088E0800C4880892081002706E0002160
:103CD00004F10A0000EB470001807F1C062FF6DB91
:103CE00001200C90AAE10000C80500201805002062
:103CF0009C030020C80100205C04002056F8020F3D
:103D0000D74908617168D6484161B1688161F1683D
:103D1000C1613169016271694162B1698162F169B0
:103D2000B61EC1628AE14FF4A56028802E20A870DB
:103D3000287940F0800028710120A41C24F8020C8E
:103D4000C74800692060C64840696060C44880690F
:103D5000A060C348C069E060C148006A2061C048F3
:103D6000406A6061BE48806AA061BD48C06AE06187
:103D7000A41E002706E0002104F1220000EB47000A
:103D800001807F1C062FF6DB01200C9056E1B54820
:103D9000B549C1F88801FEF7F2FFB4A001F00AFEB0
:103DA0004CE1B048C043B049C1F88801B449486803
:103DB00000F0F8F9C022B349AB48C83002F0F5FF73
:103DC000BC22A749A8480C3002F0EFFFFEF7D7FF4E
:103DD000ADA001F0EFFD31E1812028804420A870E2
:103DE0000020E870287940F08000287100202080B1
:103DF000BBF804006080AAA1201DDBF8082002F0B7
:103E000031FD01200C9019E1D6F802009449886335
:103E1000FEF7B5FF9248816BA4A001F0CBFD0DE148
:103E200040F2425028800E20A870287940F080008F
:103E30002871012020808A48806BC4F8020000208D
:103E4000E0800021A01D21816181A18101200C90D1
:103E5000F4E030680290706801900298422855D0D2
:103E600008DC01280ED0022822D00A282DD00B28E9
:103E700073D135E064285ED065287BD0B0F5C87F6B
:103E8000F6D19FE0002705E00020914901EB870172
:103E900008607F1C0A2FF7DB8D4902980860724882
:103EA00000684860704801688AA001F083FDB0E0B6
:103EB0006D4901980860FEF762FF6B4801688DA0AC
:103EC00001F078FD00200C90A3E06549019888631B
:103ED000FEF755FF6248816B74A001F06BFD98E01E
:103EE000002705E000207A4901EB870108607F1C6C
:103EF0000A2FF7DB7649029808605948806B4860C2
:103F00005748816B73A001F055FD82E0FCF709FC76
:103F10005B49486800F046F9C0225A495248C83007
:103F200002F043FFBC224E494F480C3002F03DFFE7
:103F3000FEF725FF6DE0019F1FB90D20784908604D
:103F400002E00E2076490860754800680E2806D108
:103F500074A107A802F086FC05E059E00AE073A10D
:103F600007A802F07FFC07A973A001F023FDFEF76C
:103F700006FF4EE0002705E00020554901EB8701D0
:103F800008607F1C0A2FF7DB5149029808606448DB
:103F900000680E2801D1012000E000204C49486053
:103FA0005F4800680E2804D15EA107A802F05AFC01
:103FB00003E05EA107A802F055FC07A965A001F087
:103FC000F9FC26E06BA001F0F5FC6420FDF79DFCF8
:103FD00072B66F48006820F480006D49086008469A
:103FE000006820F4001008606A486B49086000BF50
:103FF000BFF34F8F6948006800F4E06068490843E8
:10400000001D66490860BFF34F8F00BF00BFFEE789
:1040100000BF00BF12E0162028802820A870287951
:1040200040F08000287128222949204602F078FEBD
:1040300001200C9002E000200C9000BF00BF0C9803
:1040400048B1287900F0800010B1A878801D00E008
:104050000620CAF800010C9811B0BDE8F08F0000EE
:104060005C040020202002A7100200200D0A5361EA
:10407000766564204545506172616D7300000000F3
:10408000780500209C0300200D0A496E76616C695A
:104090006461746564204545506172616D73000010
:1040A000252D36332E36337300000000456E636FC6
:1040B00064657220737465707320706572206D6D15
:1040C0002073657420746F3A202564200D0A000067
:1040D000640D002053746167652073657269616CBB
:1040E000206E756D6265722069733A202564200D1B
:1040F0000A00000053746167652073657269616C22
:10410000206E756D62657220686173206265656EF0
:104110002073657420746F3A202564200D0A000016
:10412000C80500206D65747269630000696D706573
:104130007269616C000000005374616765207479D6
:1041400070652069732073657420746F2025732E49
:10415000200D0A00537461676520747970652068CA
:104160006173206265656E207365742025732E204F
:104170000D0A00000D0A456E746572696E67206253
:104180006F6F746C6F616465722E2E2E0D0A0000C5
:1041900030380240EFBEADDEF01F00200CED00E035
:1041A0000000FA0510B504464FF04040CB49486086
:1041B000404208604865404288650120886708469B
:1041C000C06F20F00100401CC8670846C06F20F097
:1041D0000200801CC8670846C06F20F00400001D64
:1041E000C8670846C06F20F008000830C867084656
:1041F000C06F20F010001030C8670846C06F20F074
:1042000020002030C86702204861486210200863FF
:104210000021B248C16642F21070B04988600D2C8E
:1042200004D00E2C03D00F2C7DD1ECE000BF012078
:10423000AB49086040208860AAA1A9480C3002F070
:1042400011FB0120A649C86108629FEDA80A10EE83
:10425000100A05F07CFAA24948629FEDA50A0846BB
:1042600080ED0E0AB3EE0E0A80ED0F0A9FEDA10A53
:1042700080ED0B0A9FED9E0A80ED0A0A9FED9E0AD3
:1042800080ED0C0A9FED9D0A80ED0D0AB2EE000A4A
:1042900080ED100AB1EE040A80ED110A9FED980A34
:1042A00080ED120A90ED120A20EE000ADFED950A69
:1042B00020EE200A80ED130A4FF080408749086005
:1042C000404248600846C06F20F00100401CC867AB
:1042D0000846C06F20F00400001DC8670846C06F84
:1042E00020F01000C8670846C06F20F00200801C54
:1042F000C8670846C06F20F008000830C867084645
:10430000C06F20F02000C8670846C06F20F0400052
:10431000C8670846C06F20F08000C8679FED7A0A22
:1043200010EE100A00E06DE005F011FA6B49C8606C
:104330009FED6E0A10EE100A05F009FA6749086150
:104340009FED720A10EE100A05F001FA6349C86287
:104350009FED6F0A10EE100A05F0F9F95F49486306
:104360009FED6B0A10EE100A05F0F1F95B498861C8
:104370009FED680A10EE100A05F0E9F95749C86187
:104380009FED5A0A10EE100A05F0E1F95349086250
:10439000002088624FF47A70C86541004F4801667A
:1043A000FA2141664FF4A07181664FF4C8704B4901
:1043B00088879FED590A10EE100A05F0C8F94749A1
:1043C00008649FED560A10EE100A05F0C0F9434943
:1043D00048649FED530A10EE100A05F0B8F93F4902
:1043E00088649FED500A10EE100A05F0B0F93B49C1
:1043F000C8649FED4D0A10EE100A05F0A8F9374980
:10440000086555E000BF00203549086047A13448E1
:104410000C3002F027FA01203149C8619FED340ABF
:10442000084680ED0E0AB7EE000A80ED0F0AB7EEDF
:10443000000A80ED0B0A9FED2E0A80ED0A0AB7EE06
:10444000000A80ED0C0AB7EE000A80ED0D0AB7EE07
:10445000000A80ED100AB7EE000A80ED110A9FED08
:10446000280A80ED120A9FED330A80ED130A4FF0FF
:1044700080401A4908600120C8600861C8620020B5
:10448000486388610120C86108620020886208468C
:10449000C06F20F00100C86740F2B310C865C321A7
:1044A0000E48016640F2E1314166C321816600BFDA
:1044B00000BF0D2C02D00E2C0CD105E009A108483C
:1044C0000C3002F0CFF906E01BA105480C3002F0D9
:1044D000C9F900E000BF00BF10BD00009C03002030
:1044E000780500204B565333300000002E815A4986
:1044F0000000000017B75138FDF61536DD79D63BC0
:10450000000096430000C8421AC818432E81DA48BA
:104510000000FA44272C654320FABE431AC898428B
:10452000ADBF5F441AC89843CBD70B46756E6B6E10
:104530006F776E0000401C464B565333304D0000E1
:104540002DE9F04F87B009200090FE480068C0F3C5
:104550004010FD4991F87C10C1F30011484080F0F3
:104560000107F8480068C0F30010F74991F87C1083
:10457000C1F34011484080F001083FB1F24890F883
:104580007C0000F0010008B1012000E00020049050
:10459000B8F1000F07D0EC4890F87C00C0F3400061
:1045A00008B1012000E000200390E84890F83C00AA
:1045B000C0F3C01048B1E448806F022803D0E2483D
:1045C000806F032801D1012000E0002002900298B2
:1045D00038B1DE480068DC49496D884201DB0120C2
:1045E00000E000208346029838B1D8480068D649D8
:1045F000896D884201DC012000E0002001900498D0
:1046000010B9BBF1000F01D0012000E0002005909F
:10461000039808B9019808B1012000E00020824603
:10462000C948806F03280BD1BBF1000F01D101985D
:1046300030B1049820B9039810B90820009001E027
:1046400009200090C148006A012824D1BE4890F892
:104650007C00C0F3C01050B1BA480068C0F34010ED
:10466000B94991F87C10C1F30011884210D0B648C6
:1046700090F87C00C0F3C01068B9B2480068C0F37D
:104680000010B14991F87C10C1F34011884202D169
:104690000220AE490862AD484068AC490968451A35
:1046A000A9488068A84204DBA74880684042A84225
:1046B00001DD012100E00021A448C06B61F3451039
:1046C000A249C8630846806A012804D0022810D095
:1046D00003281FD118E09D48406A022802D09B4859
:1046E000406A10B9012099494862002097498862C0
:1046F00010E09648406A022802D108209349486297
:1047000000209249886205E0092090494862002013
:10471000886200BF00BF8D48406A0D2875D2DFE86F
:1047200000F07407A6FDFCFBE5FAF9F8F7F6E100E6
:10473000864890F83C00C0F3C01078B38248806F80
:1047400004282BD1824800687F49496D88420DDDDD
:104750007E4800687C49496D884202DD7B480068DC
:1047600001E07948406D7A49086017E078480068B0
:1047700077494968401A7449896D88420EDA73484E
:1047800000687149896D884202DA7048006801E06A
:104790006D48806D6E490860002048606C48006874
:1047A0006A490968884201DA012100E0002167486E
:1047B000C06B61F308206549C8630846808FC0F369
:1047C000002010B1BAF1000F06D16048808FC0F30D
:1047D000002078B9059868B103205C494862084612
:1047E000C06B20F010001030C8635AA05E49096801
:1047F00088473BE05548808FC0F3002030B15448D3
:10480000006853494968401A02E09DE15048006839
:1048100081464F49CB688A684C4908684946FEF78B
:1048200085F84A484A46016850A04F4B1B68984794
:104830004648C06B20F002004449C8630846C06B7C
:1048400020F4006000F50060C8630846C06B20F4E7
:104850008050C8630846C06B20F00100C863022086
:1048600048620846C06B20F40050C8636CE13748CA
:10487000808FC0F3002010B1BAF1000F06D1334889
:10488000808FC0F3002098B9059888B12F48808F99
:10489000C0F3403060B92D49009848620846C06BAB
:1048A00020F010001030C86300202949486018E04B
:1048B000264890F83C0000F0010090B12348007BAE
:1048C00000F0800018B10C202049486209E020481F
:1048D000406818B106201D49486202E004201B49C7
:1048E000486231E10120194948622DE10020184950
:1048F00048601648C06B20F480701449C8630220D9
:1049000048620846C06B20F00100C86307E012E16E
:1049100001E1BFE09CE035E04AE03DE070E0DFF817
:1049200030C0DCF80C30DCF80820DCF80010DFF8D0
:104930001CC0DCF80000FDF7F9FF072003494862BE
:1049400002E10000100402409C0300201805002032
:104950008C0D00200D0A4D6F766520696E686962C6
:104960006974656400000000CC0100200D0A4D6FE1
:1049700076652066726F6D20256C6420746F20252B
:104980006C640000F94890F83C0000F0010010B1A0
:104990000420F6494862D7E0FCF794FFF449088008
:1049A000F2480068F34908600520F0494862CBE00E
:1049B000EE480068EF4909680D1AEF48006FA842F9
:1049C0001ADDED48006F4042A84215DAFCF77AFF85
:1049D000E7490988401A80B2E749B1F87410884263
:1049E0000DDDE248C06B20F4805000F58050DF49B7
:1049F000C8630320486202E00420DC494862A3E067
:104A0000DA48C06B20F40050D849C8630846C06B30
:104A100020F00200801CC8630846C06B20F40060D0
:104A2000C8630846808FC0F3803048B108460068EC
:104A3000D2490860CD48C06B20F48040CB49C863A0
:104A40000020CA494862CEA0D249096888477BE065
:104A5000D1A0D04909688847C448C06B20F4804081
:104A600000F58040C149C8630846C06B20F400507F
:104A700000F50050C8630846C06B20F00100C86311
:104A80000020BE4948600120FDF75AFF0A20B749BF
:104A9000486259E0FDF711FDC2A0BE490968884788
:104AA0000020B6494860B148C06B20F4005000F5C2
:104AB0000050AE49C8630846C06B20F00100401C9E
:104AC000C8630220FDF73CFF06A8FDF72FFDA748AD
:104AD0000068AA490860FDF795FADFF8A0C2DCF883
:104AE0000C30DCF80820DFF884C2DCF80010DCF8B9
:104AF0000000FDF71BFF06A8FDF718FDFDF77AFA89
:104B00009A48808FC0F3802008B1FDF7C9FC0A20C5
:104B10009649486218E0954890F83C0000F0010082
:104B200040B19248C06B20F00400001D8F49C8635B
:104B30000B20486208E08D48C06B20F004008B49D0
:104B4000C8630420486200BF00BF002646E08748D3
:104B5000403000EB06142068022806D0032813D04A
:104B600004281DD0052837D127E0804A928FC2F350
:104B7000C02282F0010282F0010304F1080252F81F
:104B800023006168884727E0012F01D1012300E05D
:104B9000002304F1080252F82300616888471BE0F3
:104BA000B8F1010F01D1012300E0002304F1080254
:104BB00052F82300616888470EE0012F02D0B8F157
:104BC000010F01D1012300E0002304F1080252F893
:104BD00023006168884700BF00BF761C022EB6DB49
:104BE0006248406A07B0BDE8F08F1FB563489DE892
:104BF0001E001EC001205D4988621FBD5B4988629E
:104C000070475E49086000215C4A516070471FB5DB
:104C10005648C069012802D0022811D10AE0534841
:104C2000806910B901205149886100204F49C8614D
:104C3000086205E000204D498861C861086200BF34
:104C400000BF4A4880690C287BD2DFE800F0060DDF
:104C5000606B7BC9D4DFF7F6F5F44448C06B20F0F5
:104C600040004249C86328E14048C06B20F0400042
:104C700040303E49C863002001903F48006C0290DC
:104C80003D48C06A03903C4890F87C00C0F3801017
:104C9000E0B146480068C0F34010374991F87C10F5
:104CA000C1F30011884208D14FF04040009003202A
:104CB0002E4908620520886124E04FF08040009072
:104CC00001202A490862022088611BE037480068F9
:104CD000C0F30010284991F87C10C1F340118842BC
:104CE00008D14FF080400090032020490862052041
:104CF000886107E04FF04040009001201B490862A6
:104D0000022088619DE80F00FFF76FFFD5E017488C
:104D1000006A022805D10320FFF770FF0320134922
:104D20008861CAE01148406A50B91048806A012879
:104D300006D0FCF7C7FD1E49088004200B49886196
:104D4000BBE0B9E0FCF7BEFD19490988401A80B202
:104D50000949898F884242DD074890F87C00C0F3FA
:104D6000801038B34FF04040009027E01805002035
:104D7000D0010020D40100209C0300208C0D0020D5
:104D80000D0A4D6F766520636F6D706C6574652ECE
:104D90000D0A0000CC0100200D0A53746F702E2EF6
:104DA0002E0000000D0A53746F70210010040240A1
:104DB000D8010020FFE74FF08040009000200190D4
:104DC000FB48406C0290FA48806C03909DE80F000D
:104DD000FFF70BFF0320F7490862052088616CE0AC
:104DE000F448006A042805D10320FFF707FF0620D6
:104DF000F049886161E0EF48406A30B9ED48806A67
:104E0000012802D00720EB49886156E0002001907C
:104E1000E748C06C0290E648006D0390E44890F8C3
:104E20007C00C0F3801050B1E2488068E049496BD3
:104E3000401A009009E038E032E01DE00DE0DD4866
:104E40008068DB49496B084400909DE80F00FFF73C
:104E5000CCFE0820D74988612FE0D648406A50B977
:104E6000D448806A012806D0FCF72CFDD24908807E
:104E70000920D049886120E0FCF724FDCE4909884B
:104E8000401A80B2CA49898F884208DD0020FDF7A8
:104E9000F1F80020FFF7B5FE0A20C64988610CE052
:104EA0000020C4490862886107E0C248C06B20F056
:104EB0004000C049C86300E000BF00BFBD48806932
:104EC000BE490968884233D0BA488069BB49086046
:104ED000B84880690B282AD2DFE800F029060B10B9
:104EE000291A1F1529292400B5A0B949096888473E
:104EF0001DE0B8A0B6490968884718E0BEA0B449CB
:104F00000968884713E0C5A0B149096888470EE0E1
:104F1000C9A0AF490968884709E0CFA0AC49096832
:104F2000884704E0D5A0AA490968884700BF00BFA8
:104F3000A048806904B010BD10B5D648006A80B1A1
:104F4000012821D19B48C06B20F080009949C8639B
:104F50000846C06B20F040004030C8630120C861A3
:104F600013E00020FDF786F80020FFF74AFE914885
:104F7000C06B20F040008F49C8630846C06B20F02A
:104F800080008030C86300E000BF00BF10BD022079
:104F90008849C86170471FB50446012C24D1854853
:104FA000808FC0F38020F8B982490868FFF729FE96
:104FB000804800680090012003900290002001903A
:104FC0009DE80F00FFF711FEFDF76AFA7948C06B04
:104FD00020F4806000F580607649C8630846C06BA5
:104FE00020F48020C86313E0022C11D17148808F17
:104FF000C0F3802060B16F48C06B20F480606D49C1
:10500000C8630220C8610320FFF7F8FDFDF755FAD9
:105010001FBD7FB504460025022C06D0032C3ED0D0
:10502000042C72D0052C05D19FE06248808FC0F31C
:10503000802000B971E15F48C06A28B95D4890F8E6
:105040003C00C0F3C00000B167E15A48C06B20F0DB
:10505000080008305749C8638F4800688F4989693C
:1050600008440090534900980968884202DA504881
:10507000806A00E0002001904D48C06802904C48D2
:10508000006903909DE80F00FFF7AFFD0320494939
:10509000C862022582A04E49096888473DE145481B
:1050A000808FC0F3802000B937E14248C06A28B938
:1050B000404890F83C00C0F3C00000B12DE13D48ED
:1050C000C06B20F0080008303A49C8630320C8626A
:1050D0007248C069009000980968884202DA344832
:1050E000806A00E0002001903148C068029030489A
:1050F000006903909DE80F00FFF777FD03256FA07F
:1051000033490968884708E1FFE72A48808FC0F3E0
:10511000802000B901E12748C06A28B9254890F8E5
:105120003C00C0F3C00000B1F7E02248808FC0F31C
:10513000C02010B91F48806900B1EEE01D48C06B67
:1051400020F0080008301B49C8630846C06B20F0F7
:105150008000C863FFF7F0FE03201649C8620425EB
:105160005DA01B4909688847D7E01248808FC0F3CB
:10517000802000B9D1E00F48808FC0F3C020A8B1D3
:105180000C48808FC0F3403080B90320FFF736FD14
:10519000FFF7FDFE4148806C20F002003F49886423
:1051A0000448C06A012802D10121A2E0B4E09FE0D6
:1051B0009C03002018050020D8010020DC010020FD
:1051C0000D0A486F6D696E67207374617274000018
:1051D000CC0100200D0A486F6D696E673A206D6F33
:1051E00076696E6720746F206C696D6974207377BF
:1051F00069746368000000000D0A486F6D696E678E
:105200003A2073746F7070696E67206174206C69E6
:105210006D69742073776974636800000D0A486FC4
:105220006D696E673A206F666673657420706F7380
:105230006974696F6E0000000D0A486F6D696E67D2
:105240003A206D6F76696E67206F7574206F6620E7
:105250006C696D69740000000D0A486F6D696E67B6
:105260003A2073746F7070696E67206F757473691C
:105270006465206C696D6974000000000D0A486F58
:105280006D696E6720636F6D706C657465642E0D5B
:105290000A000000780500208C0D0020C8050020C1
:1052A0000D0A5472696767657265642072656C6186
:1052B00074697665206D6F76650000000D0A547282
:1052C00069676765726564206162736F6C75746588
:1052D000206D6F76650000000D0A5472696767657E
:1052E00072656420686F6D65206D6F7665000000E3
:1052F00000217D48806C61F382007B498864084608
:1053000090F84800C0F3800008B178A000E079A0D0
:1053100001467BA000F04EFB00BF00BF284604B052
:1053200070BD7FB5044600258048C06A02282BD096
:105330007E48C06A40B33CB37C48808FC0F3C02035
:1053400010B97A488069F8B17848808FC0F340304E
:10535000D0B90320FFF752FCFFF719FE6248806CBA
:1053600020F00200604988647048C06A012801D1B9
:10537000012100E000215C48806C61F382005A4901
:1053800088646BA000F016FB6F48006820B101280C
:105390000ED002282BD122E06C480068844206D04F
:1053A000012069490860FCF78DFA694908801EE010
:1053B00066480068844204D0FCF784FA6449088097
:1053C0000CE0FCF77FFA0646614801883046FCF79E
:1053D00098FA642802DD02205B49086007E0214654
:1053E0005CA000F0E7FA00205749086000BF00BF4A
:1053F00055480068022871D1002C51D0012C04D0EE
:10540000022C1FD0032C68D13AE04848808FC0F3AB
:10541000C030B0B94548C06B20F00800083043499F
:10542000C8630220C86240070090002001904E48E7
:10543000C06902904C48006A03909DE80F00FFF796
:10544000D4FB4AE03948C06BC0F30040B8B93748D4
:10545000C06B20F0080008303449C8630220C862DD
:105460004FF040400090002001903F48C0690290FA
:105470003D48006A03909DE80F00FFF7B6FB2CE063
:105480002A48808FC0F3802018B10220FFF783FDE7
:1054900005E00120FFF77FFD0020134908621CE0B2
:1054A0002248808FC0F3C020B0B12048C06A0228D3
:1054B00012D10320FFF7A2FBFFF769FD0A48806CB9
:1054C00020F00200084988640846806C20F004003F
:1054D000886402201549C86200BF00BF1B480460F1
:1054E000284604B070BD0000C805002073656E74C6
:1054F000000000006E6F742073656E740000000081
:105500000D0A5472696767657265642073746F7001
:105510002C206E6F74696669636174696F6E2074A4
:105520006F20736572766572202573001805002060
:105530000D0A427574746F6E2073746F7020636F00
:105540006D6D616E64656400E4010020E00100207F
:10555000E80100200D0A427574746F6E2073746147
:105560007465203D202564009C03002008B5344864
:10557000006840F00400324908603148103000688B
:1055800040F400402E4910310860002306220C210F
:105590002C48FBF7D8FE002306220A212948FBF7F6
:1055A000D2FE002306220B212648FBF7CCFE24481E
:1055B000006840F00800224908604FF49052022130
:1055C0002148FBF759FE2148008820F040001F4980
:1055D0000880081F008820F04000091F08804FF451
:1055E000497008800846008840F04000088017484D
:1055F00008300088009008BD08B1042101E04FF494
:105600008021114A183211607047014600E000BF46
:105610000E4A121D128802F00202002AF7D00B4A2D
:105620000832118000E000BF084A121D128802F003
:105630000102002AF7D0054A08321288D0B270471A
:105640003038024000080240000C0240043C004098
:105650002DE9F05F81460C4617469A464FF0010B44
:105660004E46E019B0F5006F02D30120BDE8F09F6F
:105670000020FFF7C1FF0320FFF7C7FFC4F3072097
:10568000FFF7C3FFE0B2FFF7C0FF4FF0000816E0DE
:105690000020FFF7BAFF0546BAF1000F02D106F865
:1056A000015B0AE0BBF1000F05D016F8011BA9420F
:1056B00001D1012000E00020834608F10108B8452F
:1056C000E6D30120FFF798FFBBF1010F01D00120C5
:1056D000CCE70020CAE72DE9F05F81460D4616466B
:1056E000A819B0F5006F02D30120BDE8F09FC846AD
:1056F0002C4644E004F01F07AC4200D0AFB90020B4
:10570000FFF77AFF0620FFF780FF0120FFF774FF05
:105710000020FFF771FF0220FFF777FFC4F3072097
:10572000FFF773FFE0B2FFF770FF18F8010BFFF708
:105730006CFF1F2F03D0A819401EA0421ED14FF0AE
:10574000000B0120FFF758FF00BF0020FFF754FFB8
:105750000520FFF75AFF0020FFF757FF8246012080
:10576000FFF74AFF58460BF1010BB0F57A7F01D9DC
:105770000220BAE70AF001000028E6D1641CA8194B
:10578000A042B7D80120FFF737FF0120ADE70000A6
:1057900010B58148006840F400307F4908607E48B9
:1057A000103800687D4908437B49103908600023A0
:1057B000072202217A48FBF7C6FD002307220321B6
:1057C0007748FBF7C0FD40F26D1076490880002055
:1057D000744908310880091D08807248001D00883E
:1057E00040F400506F49091D08806E480C30008855
:1057F00040F0C0006B490C3108806B48006820F015
:1058000001006949A039C1F8A00000E000BF664866
:10581000006800F001000028F8D16348006820F01B
:1058200060606149A039C1F8A0000846D0F8A00026
:1058300040F00060C1F8A0000846D0F8A00040F495
:105840008860594908605748001F57490831086067
:1058500000205549A039C1F8A4000846D0F88800B6
:1058600020F00100C1F8880000E000BF4E48183861
:10587000006800F001000028F7D14B481838006894
:1058800020F060604849A039C1F888000846D0F887
:10589000880040F00060C1F888000846D0F8880011
:1058A00040F4A0604049183908603E48001F3E4956
:1058B000103908603D48091D0860C8143A49A039EC
:1058C000C1F88C0037480838008820F0400035497E
:1058D000083908803348001D008840F00C00314929
:1058E000091D08803048A038D0F8880040F0010039
:1058F0002D491839086010BD2B4914390968C1F5C4
:1059000000612B4A1268914202D14FF6FF700FE0FE
:1059100027490A680968491C254B19602349885C96
:1059200019460968B1F5006F02D100211A461160CD
:1059300070471D4A126822F001021B4BA03BC3F8BE
:10594000A02000E000BF184A126802F00102002AFD
:10595000F8D1154A0C321060134AA03AC2F8A410CC
:10596000104A083A128822F040020E4B083B1A8077
:105970004FF400120C4BA03BDA601A46D2F8A0207C
:1059800042F00102C3F8A02070470648083800889A
:1059900000F0400070470000403802400100200045
:1059A0000000024008440040A06002409C0D00201E
:1059B000EC0100200FB438B505A8009050480068ED
:1059C000B0F5006F00D301BE4E4909684C4A126819
:1059D0008818009A049900F033FF0446484800688C
:1059E00020444749086000200090204638BC5DF8FC
:1059F00014FB2DE9F04105460E4600274248006899
:105A000008B9424805603DE0082C04D00A2C1DD09E
:105A10000D2C20D119E03C480068A8B108213CA019
:105A2000FFF7C8FF20213AA0FFF7C4FF082138A0E4
:105A3000FFF7C0FF34480068401E33490860334810
:105A40000068401E314908601BE000BF01270020AC
:105A50002D49086015E02C480068B04210D221465C
:105A60002BA0FFF7A7FF294909680C702748006899
:105A7000401C2649086024480068401C22490860F0
:105A800000BF00BFFFF738FF04464FF6FF718842A2
:105A9000BAD16FB100201D49096808701B48006821
:105AA000401C1A49086008460068401BBDE8F081A8
:105AB0000020FBE710B512480068B0B1FFF765FFA2
:105AC00098B10F4801680F480068FFF732FF0D4892
:105AD00000681049884202D101F5006000E00D48DD
