:020000040800F2
:10000000A8750120F51D0008131E000865320008C0
:10001000171E0008191E00081B1E00080000000023
:100020000000000000000000000000001D1E00088D
:10003000371E0008000000004D3200083B1E00087B
:100040003D1E00083D1E00083D1E00083D1E000824
:100050003D1E00083D1E00083D1E00083D1E000814
:100060003D1E00083D1E00083D1E00083D1E000804
:100070003D1E00083D1E00083D1E00083D1E0008F4
:100080003D1E00083D1E00083D1E00083D1E0008E4
:100090003D1E00083D1E00083D1E00083D1E0008D4
:1000A0003D1E00089F5000083D1E00083D1E000830
:1000B0003D1E00083D1E00083D1E00083D1E0008B4
:1000C0003D1E00083D1E00083D1E00083D1E0008A4
:1000D0003D1E00083D1E00083D1E00083D1E000894
:1000E0003D1E00083D1E00083D1E00083D1E000884
:1000F0003D1E00083D1E00083D1E00083D1E000874
:100100003D1E00083D1E00083D1E00083D1E000863
:100110003D1E00083D1E00083D1E00083D1E000853
:100120003D1E00083D1E00083D1E00083D1E000843
:100130003D1E00083D1E00083D1E00083D1E000833
:100140003D1E00083D1E00083D1E00083D1E000823
:100150003D1E00083D1E00083D1E00083D1E000813
:100160003D1E00083D1E00083D1E00083D1E000803
:100170003D1E00083D1E00083D1E00083D1E0008F3
:100180003D1E00083D1E000800F002F800F0B2F825
:100190000AA090E8000C82448344AAF10107DA45E2
:1001A00001D100F0A7F8AFF2090EBAE80F0013F082
:1001B000010F18BFFB1A43F001031847FCC20000EF
:1001C0002CC300000A444FF0000C10F8013B13F060
:1001D000070408BF10F8014B1D1108BF10F8015BA0
:1001E000641E05D010F8016B641E01F8016BF9D193
:1001F00013F0080F1EBF10F8014BAD1C0C1B09D1EA
:100200006D1E58BF01F801CBFAD505E014F8016B5B
:1002100001F8016B6D1EF9D59142D6D370470000ED
:100220000023002400250026103A28BF78C1FBD8FF
:10023000520728BF30C148BF0B6070476E2907F0D6
:100240002986702907F0798666290AF018856529BC
:100250000AF0158567290AF012856129AFF300803D
:1002600003681B0A28BF41F08001692907F0D68581
:10027000642907F0D385752907F0D0856F2908F028
:100280007783782907F04586E92908F01183E42966
:1002900008F00E83F52908F00B83EF2908F074832A
:1002A000F82907F044860368DB0928BF41F0800184
:1002B000632908F09282732908F09782E32908F0F5
:1002C0007584F32908F07A84002070471FB50AF07E
:1002D000CCFC08F0CBFB04000020002109F0B2FFA9
:1002E000401C60600020002109F096FFE0601FBD07
:1002F00010B510BD08F0B2FE1146FFF7E7FF01F0A0
:10030000B1F908F0D9FE03B4FFF7F2FF03BC08F01F
:100310001DFF00002DE9F04FFC484FF080635C00AA
:10032000B0F83CC05D011E131F01F948F949FA4AB3
:100330004FF003094FF0010A4FF4006E4FF4806B49
:10034000BCF10F0F55D2DFE80CF0080808080F16B3
:100350001C222A2F343A40444C00036004608D6113
:100360008E614FF47A7017E0036004608D618E61D6
:100370004FF4967010E0036004608D618E6164201C
:100380000AE0036004608D618E611E2004E003605A
:1003900004608D618E610A201080BDE8F08F0360DB
:1003A00004608D618E6121E0036004608D618E6167
:1003B00014E0036004604FF40040886115E00360BE
:1003C00004604FF40040886107E00360C0F800E07B
:1003D0000AE00360C0F800E08D618F61A2F800A020
:1003E000DBE7C0F800B004608D618F61A2F8009077
:1003F000D3E7C0F800B00460EEE77047C34A014697
:100400000120936C8B4201DD02207047D26C8A423E
:10041000FBDA03207047BD494A89802A0CD0898FB6
:10042000BE4A02EB810191ED000A00EE900AF8EE5F
:10043000E00A20EE200A70479FEDB90AF5E770B593
:10044000B24D2DED028B286D0AF07FF941EC100BB7
:1004500053EC102B9FEDB30B51EC100B09F0EEFF9A
:1004600009F012FF08EE100A0024B04E14E000EE6E
:10047000104AB8EE400A28EE000A10EE100A0AF000
:1004800083FB41EC100B09F03BFA51EC100B09F027
:10049000FBFE46F82400641C286DA042E7D8BDECA2
:1004A000028B70BD30B5A24D0024686B410504D5A8
:1004B0000124010503D4052407E0010505D544F016
:1004C0000104400501D444F00804E869FFF7A3FFE4
:1004D0008E48D0ED1F0AB4EEE00AF1EE10FA01DD0D
:1004E00044F002044089802801D144F0020495F8C8
:1004F0003400400601D544F01004E869FFF77EFFA0
:10050000022802D0032803D004E044F0200401E0D4
:1005100044F04004686BC10401D544F48034800485
:1005200001D544F40034A86B810601D544F480243D
:10053000400601D544F40024204630BD02F0CAFE36
:10054000FCE77C48016841F0010101607948103006
:10055000016841F0005101607748016841F4407141
:100560000160C16821F44071C160744901200860D4
:10057000704772492031086070470FB40EB50022F1
:10058000BDF810006EA38DE80D0005A9812812D0DA
:10059000A0F50062023A01D108680190694A6946F3
:1005A000002000F039F8012802D1664802F0CDF8A9
:1005B00003B05DF814FBDDE905010092624A136B9C
:1005C0008342EBD0B0F5004F03D081230093CDE9F7
:1005D00001011063E2E74D4910B55C484860D42240
:1005E00000214A4802F0DBFD48F2D044012804D043
:1005F00057A221468120FFF7C0FF0123D42200210A
:10060000424802F095FD002805D02146BDE8104083
:1006100051A28120B1E710BD2DE9F74FDFF810910D
:10062000504B82B099F808208E469C5C0023012C28
:1006300014D1D9F81440022C10D1602A0ED810B170
:10064000018800F10608A1F5C062A23A02D040F28A
:10065000A1611EE0602289F808201AE03A4A92F867
:100660004020D20602D540F2646105E03E4CB4F968
:1006700000200AB191B2238018B1018800F1060868
:1006800007E0BEF1000F04D0BEF800100020804645
:1006900089B2049C9A461A46E370012323715023C1
:1006A000A51D6371049C0026184F4FF0060B4FF0F8
:1006B000810CC4F80022B1F5C66F6FD06FDC40F238
:1006C0000363A1F2036299426AD05ADC502968D0D0
:1006D0000FDC122978D006DC022976D0052975D0E6
:1006E000112974D109E1214A142971D01529F8D1B1
:1006F000EFE3B1F5057F6CD03ADC65296AD081293A
:1007000069D0A1F500711339EBD1EFE31C6D012025
:1007100018040240001002408403002084AC00084A
:100720005CFDA038A7E8482EFF211940F8280020DA
:1007300000000020303802400000024000740040F9
:100740000000000078350020F06D01200F0101004D
:100750004545577269746500454556657269667905
:1007600000000000546E0120A20200202804002096
:10077000A1F50071233974D02D2973D02E29B0D161
:10078000FEE3152A6FD014DC062A6DD00ADC012A9C
:100790006BD0032A6AD0042AA3D1C6E102E320E089
:1007A0004DE1EEE30D2A70D00F2A6FD0102A98D1B8
:1007B000F5E120211F2A6AD00EDC162A68D0172AFC
:1007C00067D01E2A8DD186E2ADE0B6E067E086E014
:1007D000F6E3F6E30DE1F5E3232A7DD0242A86D162
:1007E000BAE240F28663A1F286624FF0800E99422F
:1007F00073D021DC40F23E63A1F23E6299426DD09B
:100800000BDCA1F231610C2969D2DFE801F0F1685B
:10081000F0EF6868EE68ED68ECEB182A7BD006DC38
:10082000022A79D0032A78D0172AA8D1FAE3262AF7
:1008300074D0282AA3D199E064211B2A6FD016DC3A
:10084000052A6DD006DC012A6BD0022A6AD0042A60
:1008500095D1E8E3072A6ED0082A6DD01A2A8ED1E6
:10086000F4E346E0F3E3C5E177E129E14BE140F24F
:100870006313A2F263109A4270D00BDC1C2A6ED074
:10088000821C6DD0012A87D1B8E06EE17BE1F2E1F4
:10089000D5E152E202287DD0032888D1F6E3542026
:1008A000A4F800B0A070024684F804C0FE492846AF
:1008B00007F0A0FC386845F8420B312005F817090D
:1008C00028766876A8763220E87639202877412085
:1008D00068777020A87703E04DE242E073E32BE2F3
:1008E0007220E877F149012685F820A00220C8632C
:1008F000FEE3EE48402181621EE2EC48016C41F0CB
:1009000010010164012189F800103221C9F8181082
:10091000C0F82CA010E2ECE3ECE3ECE32AE0EBE31C
:10092000EBE381E313E3E148016C21F01001016482
:10093000C9F818A000E2F5E3F5E3DC485146BEF142
:10094000000FC0F83CA0026C22F010020264D3D069
:1009500002202080A170E1700126C9E360E0EFE38E
:1009600076E36FF00600A7F8D00073E33220C9F8F1
:100970001800E1E16520207084F801B01C20A0700F
:1009800084F804C0B9F8440000F500402880B9F8A4
:10099000480000E061E300F500406880B7F8CC0053
:1009A0003C374000A880D9F840301846FFF733FDA7
:1009B000BF4880ED000A0178A9714178E97181781A
:1009C0002972C07868726B813888A8810120E8811B
:1009D000FFF768FD2861B888A882388BE882B88B59
:1009E0002883B9E799E28CE2CCE2F8E2A1E284E262
:1009F00046E26620207084F801A097E2B8F8000073
:100A000064225043FF22B0FBF2F0C9F830006428A2
:100A100001D9C9F83010D9F8300004F087F88BE11B
:100A2000EA202070072060700220A07084F804C0C3
:100A3000D9F83000C0EB0020B0FBF1F085E289F876
:100A400001A0012389F8073082784FF6FF314FF279
:100A5000FF70062A7ED2DFE802F07D270A03131D0D
:100A6000D9F8340040F0010040F4806017E0D9F874
:100A7000342042F001020A400240C9F834205BE110
:100A8000D9F8341041F0010141F480610140C9F806
:100A9000341051E1D9F8340040F00100084040F42E
:100AA0000060C9F8340047E1D9F834204FF6FE74ED
:100AB00022400A400240C9F8342089F801303BE165
:100AC0000520207084F801B0D9F83400C10716D091
:100AD00010F4406F01D0042100E00221420504D54A
:100AE000000509D441F400700AE0020504D5400570
:100AF00002D441F4407003E041F4807000E0012032
:100B0000A070000ABEE36A4898F80010017098F8D7
:100B10000110417098F80210817098F80310C170AC
:100B200090ED000A87ED1F0A06E10820207084F886
:100B300001B00420A07084F804C05D4897ED1F0A3E
:100B400080ED000A01782970417869708178A97078
:100B5000C07800E0F7E3E870FEE6B8F8000047F878
:100B6000800FB8F802007860E6E01120207084F869
:100B700001B00420A07084F804C037F8800F2880EA
:100B8000B8886880E8E657F8800FA0F50040C9F8FB
:100B900044007868A0F50040C9F84800CCE0142073
:100BA000207084F801B00E20A07084F804C0B9F859
:100BB000440000F500402880B9F8480000F50040E6
:100BC0006880D9F840301846FFF725FC384880ED9A
:100BD000000A01782971417869718178A971C0781A
:100BE000E8712B81B88F6881D9F81C00FFF706FCEB
:100BF000A881B1E6012089F80700B8F804004FF495
:100C00004871884201D9084602E0502800D250209D
:100C10003865FFF714FCB8F802004008C7F8C800B0
:100C2000B8F800000328D9F8380003D04FF67F71D8
:100C3000084001E040F08000C9F838007CE02170F5
:100C400084F801B00C20A07084F804C099F8380032
:100C5000000601D5032000E001202880B7F8C80075
:100C600040006880B7F85000A880A5F806A0A5F855
:100C700008A001203FE12320207084F801B0A1707A
:100C800084F804C037F8880F2880B88868803889CD
:100C9000A880B889E880388A2881B88A6881388B2A
:100CA000A881B88BE88105E0D4AD0008F06D012083
:100CB0003C000020388C2882B88C6882388DA8824D
:100CC000B88DE882388E2883B88E6883388FA883E1
:100CD000B88FE88340E6B8F8000047F8880FB8F806
:100CE00002007860B8F80400B860B8F80600F86050
:100CF000B8F808003861B8F80A007861B8F80C0054
:100D0000B861B8F80E00F861B8F810003862B8F8A9
:100D100012007862B8F81400B862B8F81600F862E9
:100D2000B8F818003863B8F81A007863B8F81C00EF
:100D3000B863B8F81E00F863CFE3D9F838204FF64F
:100D40007F710A40C9F838208178C07801EB002013
:100D50004008C7F8C800C0E32820207084F801B01C
:100D600084F802B084F804C00220288037F8540FB9
:100D70006880B888D4E1B8F80200002801DA396D3B
:100D80000844396D814202DD002800DB7865B8F83F
:100D90000400002800DA08448142CDDD0028CBDBC6
:100DA000B8659AE3B8F80220B8F80410B8F806005D
:100DB000786498F800004FF6FF54012808D04FF6E9
:100DC000BF73022819D003281CD004280CD104E0DA
:100DD000D9F8340040F0400012E0D9F8340040F077
:100DE000400012E0C9F8340098F8080001280FD03C
:100DF000022812D0032819D132E0D9F83400184063
:100E00002040EFE7D9F83400184040F40070E9E7DB
:100E1000D9F8340040F0800006E0D9F834004FF6ED
:100E20007F73184040F48070C9F83400D0034FF449
:100E30007A7200F2262090FBF2F0F864C80300F208
:100E4000262090FBF2F0B864B9F834008005A8D5EC
:100E500098F80A00B98FB8870F2807D90F2008E043
:100E6000D9F834004FF67F631840DDE7032801D23C
:100E70000320B88780B2884293D0FFF74BFA2CE367
:100E80003220207084F801B00C20A07084F804C0D7
:100E9000F86C4FF47A71484300F58040C0136880C5
:100EA000B86C484300F58040C013A880B7F84400F0
:100EB000E880D9F8340041064FEA805005D5002873
:100EC00001DA042007E0012005E0002802DA03200F
:100ED00001E060E202202880D9F83400010601D543
:100EE000012005E0C00502D5022001E01CE103203D
:100EF000288197F83C0068812EE5B8F80200386434
:100F0000EBE28078012802D0A7F80AE0E5E27889D0
:100F10008028B4D1A7F80AA0DFE23D20207084F831
:100F200001B07889802801D0032000E00120A07062
:100F300012E53520207084F801B00420A07084F8F8
:100F400004C0B7F8400068800220288004E58920AA
:100F5000207084F801B00A20A07084F804C0D9F889
:100F600040301846FFF757FAF74880ED000A01783D
:100F70002970417869708178A970C078E87019E0AB
:100F80008DE294E23A20207084F801B00A20A0702B
:100F900084F804C0D9F840301846FFF73CFAEA4814
:100FA00080ED000A0178297085F801A04078A870CA
:100FB00085F803A0AB80B88FE88001202881CBE4BE
:100FC0008EE1D2E0DEE03F20207084F801B00A20FC
:100FD000A07084F804C0FFF765FA2860BCE43820EC
:100FE000207084F801B01420A07084F804C0009828
:100FF00007EB800090ED1B0AD34880ED000A0178D2
:101000002970417869708178A970C078E8700021F2
:10101000504628742873491C2872C9B228710429C3
:10102000F7D399E432E1BFE0C74898F800100170A7
:1010300098F80110417098F80210817098F8031028
:10104000C17090ED000A87ED1B0A46E2C1E122E281
:10105000A7F8D0B0FFF7BFFA3FE298F8060000F01B
:101060000700012803D07889802803D004E0A7F87E
:101070000AE001E0A7F80AA098F80600C0F3021001
:10108000012804D0B889802804D005E018E0A7F82A
:101090000CE001E0A7F80CA0B8F80600C00502D5E6
:1010A0000120B88401E0A7F824A098F8040000F01B
:1010B0000300788398F80400C0F30110B8830CE2B1
:1010C000ED202070072060700820A07084F804C014
:1010D0000220288001206880A5F806A0B889802811
:1010E00001D11020E880788980280AD1E88805E0BD
:1010F000E9E1DCE0A4E0B5E07FE15CE040F0010084
:10110000E880B88C012803D1E88840F48070E8803A
:10111000B87E397F00F0030001F0030140EA0110BE
:10112000A88019E45CE06EE0884C8278216C62F360
:10113000861121648078800703D541F0800002E0A9
:101140007FE121F08000206479890A2903D1C0F36E
:10115000801001F059FAB8890A2805D194F84000A6
:10116000C0F3C01001F065FAB7E140F2152020800D
:1011700076480221B0F84000C0F3801201EA9010D6
:101180001044D4E6A4F800C04421A17084F804C03F
:10119000A5F800A0BEF8040068806DA1281DDEF847
:1011A000082006F0D5FD1CE4B8F802003881B8F834
:1011B0000000788491E140F28C6020801020A070C3
:1011C00084F804C038896880788C288000205146D3
:1011D00005EB4002401CC0B291800628F8D3BBE466
:1011E000B8F800007881B8F80200F881B8F8040077
:1011F0007882B8F80600B881B8F808003882B8F8E4
:101200000A00B88269E140F28F6020801420A0704B
:1012100084F804C078892880F8896880A5F804A03B
:10122000B889E880388A28815146A5F80AA00020AC
:1012300005EB4002401CC0B291810428F8D38BE436
:101240008178012901D0022906D1C078022804D072
:1012500007EB4101A1F814A03FE107EB4101012098
:1012600088823AE18178012901D002291ED140F219
:10127000426121808178A170807807EB4000808AEC
:1012800010B10220E07067E40120FBE781780129BA
:1012900001D002290AD107EB8101B8F802204A6285
:1012A0008078B8F8041007EB8000C16215E18178FE
:1012B000012901D0022926D140F25761218084F80A
:1012C00002B084F804C081782980817807EB81011D
:1012D000898C6980807807EB8000808DA8803BE452
:1012E000D8F800101160D8F804005060D8F8083021
:1012F0009360B1F5C87F07D0A1F58074913C34D0DC
:10130000042C00D03960E8E0A3F5E061C53935D19F
:1013100010B1022815D000E00121002211432DD088
:1013200072B60E490A6822F480020A600A6822F442
:1013300000120A600A49022814D0C1F800A000F087
:1013400046FD0122EAE7BDE03C000020F06D0120EF
:10135000252D36332E36337300000000303802401E
:10136000F01F0020FE480860E9E7B0F1553F06D0C5
:10137000C2F800A0C2F804A0C2F808A0ADE0022B99
:1013800007D00120C9F8280099F8280087F8D20072
:101390005EE60220F6E7162020802820A07084F860
:1013A00004C00020514605EB8003401CC0B2196008
:1013B0000A28F8D31068A0F58073953B04D03868EC
:1013C0002860012611607EE0286097F8D200A860AE
:1013D000F7E7817805290FD1C07805287DD1012054
:1013E00089F8010089F8020089F803A089F804A0AF
:1013F00089F8070089F808006FE040F2A1602080BA
:10140000A17084F804C099F80810D64BC1F16000AF
:101410002880B88F01EB4112688002EB8112012015
:101420001A442E18135C401CC0B2F3706028F8D91F
:10143000CD4A02F801A0491C89F80810C9F814A087
:1014400048E489F801A089F802A089F803A089F886
:1014500004A0012089F8070089F80800D7F8800067
:10146000A0F50040C9F84400D7F88400A0F500407A
:10147000C9F8480050203865FEF7E1FFD9F834007C
:10148000D9F8381040F0010041F4805140F44C602C
:10149000C9E90D01F1E4C07889F805001DE040F2CA
:1014A000522121808078A07099F80500EAE6B8F80A
:1014B0000000012802D089F800A00EE0012089F880
:1014C00000000AE04EB12079000602D5A078801D08
:1014D00000E006200499C1F8000205B03046BDE8DE
:1014E000F08FA248406A704770B5A04CA04DB4F987
:1014F0000C10052943D2DFE801F003091D35450032
:1015000010B1286940073AD4012037E099490620F4
:10151000A1F8D000FFF75FF801F045FBE081022061
:10152000A08195482021016008039449086080014A
:10153000A86124E020B12869400701D500201DE002
:1015400001F031FBE18901F032FBB0F5FA6F16D9F9
:101550000220FFF712F88A49086C20F01600086490
:1015600003200BE0002003F0E1FA01F01CFBE1890D
:1015700001F01DFBB0F57A6F01D90420A081B4F908
:101580000C0070BD002003F0D1FA40F6B83001F035
:10159000B8FB4FF08040018821F0010101807948BB
:1015A000816A21F001018162816AC907FCD1816DE4
:1015B00021F001018165816DC907FCD17248016884
:1015C00021F0010101600168C907FCD16E48483073
:1015D000016821F0010101600168C907FCD16A4876
:1015E0007830016821F0010101600168C907FCD170
:1015F0006648016821F480010160016821F400114E
:10160000016072B661482838016821F0F00101607C
:10161000016841F0F0010160016821F003010160FF
:10162000016841F0010101600168C1F381010129F4
:10163000FAD156483038016821F08071016028697C
:101640008007FCD528694007F9D500F0C0FB0200EF
:101650004FF0000005D1002903D001204000FDD14A
:101660000120704700F01FFC404E4FF0000886F844
:10167000098009F0FAFA4048202101603F480C0334
:1016800004603B4F8804B861414801250560022190
:10169000016038698007FCD501F048FAFEF751FF78
:1016A0003C4940F6FF700860642001F036FB01F011
:1016B00081FA01F0A0FA002001F0FCFB012001F00A
:1016C00046FB01F03FF901F06DF801F0D9FE03F09F
:1016D0003DF901F023FE62B603F04FFDFEF7AFFEC9
:1016E000706BB16B40F0010041F4805140F44C60EC
:1016F000C6E90D01FEF70EFE642001F002FB26A0F4
:1017000001F0D4FD2E49AB460D6005F06AFB0020C8
:1017100005F0E1FB05F066FA2A4803F00DFF4FF4EF
:10172000207005F0A1FB284828A1D0F80E204FF426
:10173000FA6002F0D7FFDFF848A00023D422DAF8DD
:1017400040100C4821F01001CAF84010194601F071
:10175000EFFC084D2449286890FBF1F0392845E05A
:10176000EFBEADDE34040020546E012000000020E6
:10177000001002401C6D0120180C024018040240A9
:10178000F06D0120006002404064024030380240A9
:1017900018080240207400400D0A2D2D2D2D2D2DEE
:1017A0002D2D2D2D2D2D2D2D2D2D2D2D2D2D2D2D69
:1017B0002D2D2D2D2D2D2D2D2D2D2D2D000000000D
:1017C0001004002030BD0008D4AD000854686F72CA
:1017D0006C616273204B4E41200A5377526576202C
:1017E000303130313135000040420F0001D0FE4829
:1017F000286095F8D200022802D0584685F8D2B069
:10180000C0B2B06203F02AF9DFF8E0934FF4003180
:10181000C9F800108A01BA61F54809010160F5496B
:10182000C014886140108861401088614010886150
:10183000EF49C4010C60F04908600A60EC4980057A
:10184000086000F034FFE110C9F8001000F018FF44
:10185000E84960038861C0138861E54B6FF00602B8
:10186000083B01E0A5F8D02019689946186841F3B3
:10187000C01140F38010401C491C0142F2D1DF48E6
:10188000B0F8D00006287CD0DC484B215A46A0F89E
:101890000AB0A0F80EB0A0F80CB0A0F810B020F874
:1018A000081F3163A0F81C80A0F81680A0F81880EB
:1018B000A0F81280A0F81480A0F80E80A0F8108084
:1018C00042836421C1628162416201620921818691
:1018D0004FF40071816341F27411016446F2F22108
:1018E0004164502181649321C1649FEDC50A016563
:1018F00080ED150A9FEDC30A80ED160A9FEDC20A1E
:1019000080ED170A9FEDC10A80ED180A9FEDC00A0D
:1019100080ED190A9FEDBF0A80ED1A0A9FEDBE0AFD
:1019200080ED1B0A9FEDBD0A80ED1C0A9FEDBC0AED
:1019300041F6294180ED1D0A8467E0E91F4141F627
:10194000E221816041F69A11C16041F652010161C4
:1019500041F20B71416141F2C351816141F27B411E
:10196000C16141F23431016241F2EC11416241F254
:10197000A401816240F65C71C16240F615610163A9
:1019800000E010E040F6CD4140F68532C0E90D128E
:1019900040F63E22C26340F6F602C0E9102181649F
:1019A000042140F8401CFEF74AFDFEF77BFDF06283
:1019B0009C4800F08DFE9B4CD4F8000201280CD10D
:1019C000994A00212046FEF727FE012802D19648B9
:1019D00000F0BBFE0220C4F8000200F0C7FE01F0D8
:1019E00079FC01F0AEF90028DFD0834808380068A0
:1019F000800403D5707A08B1C7F818B001F079FEF9
:101A000001F0FEFD7D4C608BF8B14FF00060B861D5
:101A10004014B861A08BE8B14FF00070B861401479
:101A2000B8617069022801D2401C7061B069B0B120
:101A3000401EB061DAF8401040F2646041F01001DD
:101A4000CAF84010FEF799FD0FE04FF40060B8614E
:101A5000C003DEE74FF40070B861C003E0E7DAF8D6
:101A6000401021F01001CAF840107079012874D09C
:101A700003F050F8CAF80400DAF8181052461A2990
:101A800002D000EB40005060DAF8040008B1642096
:101A9000B071D9F80000400634D4584686F807B033
:101AA00000297AD1D9F8001009060AD4D4F88000A8
:101AB000A0F500407064D4F88400A0F50040B06444
:101AC0006BE0717839B17070B07086F8038086F879
:101AD0000480307261E0B17AF1BBB072308AD8BB59
:101AE000524981F80080706B10F4406F03D04FF2C0
:101AF000FF31084001E040F44060706340F6AC50B4
:101B000030824AE07078012800D00020DAF8101006
:101B1000E9B300210840D9F8001041F3C011491C75
:101B2000084231D086F8018086F8028086F803806A
:101B300086F8048086F807B060213D4A317240F291
:101B4000A16111803B49454681F860B0D4F880001E
:101B5000A0F50040706401E01FE037E0D4F8840095
:101B6000A0F50040B06450202065FEF768FC706B63
:101B7000B16B40F0010041F4805140F44C60C6E983
:101B80000D01FEF7C7FB7561D9F8000000E016E013
:101B900040F3C010401CCAF81000D9F800004006FD
:101BA00001D586F80A805546DAF8100001F050FE9B
:101BB0006861286950B1A869142802D006E00121A3
:101BC000A8E71D48018861834088A08355461B4BC8
:101BD000DAF80C20DAF80410DAF8140001F07BFED1
:101BE000A86102F034F82BE040C0650318040240FD
:101BF000180C024000100240180802401C6D012021
:101C0000E960FD3D00000000CBDB713F5114783FDF
:101C10009F76F83D3E79783EA6671F3F35EF2E3F11
:101C200095BFD6337400002078350020880300204B
:101C3000A2020020546E0120C80200200C6E012078
:101C40003869C0F34000A860FFF74EFCE860D5E9B2
:101C50000601FFF7FCFC2862012801D1C5F81C80B1
:101C6000A86A002809DD4107A0F10100A86201D59A
:101C700000200DE0B4F908000AE0B089A0BBA86913
:101C80001A2809D0B0790028F4D0401EB071642021
:101C900002F04CFFB08938BB706BC10738D0618946
:101CA000802935D0410633D5316A89BBB4F83CC0B0
:101CB000000601D5012500E00225F069FEF79EFB34
:101CC000022802D0032823D102E0A08F401B01E0AC
:101CD000A08F2844A087022D0AD1B08EC005A08F06
:101CE00003D540F0010002E05FE020F00100A08792
:101CF00080B20F2801D90F2002E0032801D203206F
:101D0000A08780B2604503D0FEF704FB606C3062B0
:101D1000B16B08060ED5A08F102804D204EB80000A
:101D2000D0F8880001E0D4F8C400C4F8CC00308AB0
:101D300018B13AE0D4F8C800F7E7706B42072BD52A
:101D4000C20718D04BF6FF7211404FF6FE721040DA
:101D5000C1F30E014205C6E90D0102D541F48041EF
:101D6000B163010503D5B16B41F40041B1634FF29A
:101D7000FF3108400CE04A0402D540F480607063F3
:101D80000804706B02D540F40060706340F00100FD
:101D9000706340F6AC503082706B010705D580F05F
:101DA0004000706340F6AC503082E08B01280AD0CE
:101DB0004FF400300C490860208C012805D04FF406
:101DC0000000B861F1E50220F4E78020F9E7BFF3F5
:101DD0004F8F06480168064A01F4E0611143016033
:101DE000BFF34F8FFEE70000180402400CED00E047
:101DF0000400FA0515481649026800608A4203D0BB
:101E000014488047144800471448D0F800D0406870
:101E10000047FEE7FEE7FEE7FEE7FEE71EF0040FE1
:101E20000CBFEFF30880EFF30980806910F8020C13
:101E300001F014BAFEE7FEE7FEE7FEE7FEE700006A
:101E400007480849084A094B70470000F01F002066
:101E5000EFBEADDEC7300008890100080000FF1F9B
:101E6000A86F0120A8750120A8710120A871012088
:101E7000FE48016821F003010160C16821F00301FF
:101E8000C1607047F9484FF480318161016841F0C9
:101E900001010160016821F002010160816861F0C7
:101EA0000301816070472DE9F04FF14A106840F05E
:101EB00010001060FFF7E6FFEC4801218161116816
:101EC00041F001011160116841F0020111601168D7
:101ED00041F004011160116841F008011160E54909
:101EE0004FF400340C60E34918390A6842F00402E8
:101EF0000A600A6822F008020A60DE4B103B1A688A
:101F000062F00C021A60A2018261026842F480420F
:101F10000260026822F400420260826862F4404279
:101F20008260D54E22013260D34A183A1268D24DEF
:101F300042F48062183D2A602A6822F400622A6016
:101F4000CD4A103A1268CC4D62F44062103D2A60CE
:101F5000C84D62002A600A6842F010020A600A68EE
:101F600022F020020A601A6822F030021A600A0485
:101F70008261026842F480120260026822F4001258
:101F80000260826822F440128260E2018261056888
:101F900045F480350560056825F4003505608568E1
:101FA00025F4403585604FF0006AC0F818A0056838
:101FB00045F480050560056825F400050560856821
:101FC00025F4400585604FF00079C0F81890056849
:101FD00045F480250560056825F4002505608568C1
:101FE00025F440258560A44D183D2D68A24F25F4A9
:101FF0004045183F3D60A04D0C3D2D689E4F25F497
:1020000040450C3F3D609C4D183D2D6825F44057E0
:10201000994D183D2F60984D0C3D2D68964F25F435
:1020200040550C3F3D600D6825F0C0050D601D1D3D
:102030002D681F1D25F0C0053D60904D2D688F4F08
:1020400025F040453D60FD6825F04045FD60C70432
:102050003760894D183D2D68DFF81CC245F080457A
:10206000ACF1180CCCF80050DCF8005025F000451D
:10207000CCF80050804D103D2D68DFF8FCC125F0F4
:102080004045ACF1100CCCF800507D4D2A607C4AE4
:10209000183A1268DFF8E8C142F48032ACF1180C4B
:1020A000CCF80020DCF8002022F40032CCF800202C
:1020B000734A103AD2F800C02CF4403CC2F800C079
:1020C0004FF4800BC5F800B0DFF8B4C1ACF1180CC8
:1020D000DCF800C0DFF8A8814CF4805CA8F1180897
:1020E000C8F800C0D8F800C02CF4005CC8F800C0E4
:1020F000D2F800C02CF4405CC2F800C0C5F80090D3
:10210000D8F800C04CF4802CC8F800C0D8F800C043
:102110002CF4002CC8F800C0D2F800C02CF4402CDD
:10212000C2F800C04FF4803CC5F800C0C446DCF8DB
:1021300000C04CF0010CC8F800C0D8F800C02CF06A
:10214000020CC8F800C0D2F800C02CF0030CC2F892
:1021500000C02C60D8F800C04CF0040CC8F800C0D7
:10216000D8F800C02CF0080CC8F800C0D2F800C0A5
:102170002CF00C0CC2F800C04FF4000CC5F800C0E5
:10218000C446DCF800C04CF4804CC8F800C0D8F855
:1021900000C02CF4004CC8F800C0D2F800C02CF4E9
:1021A000404CC2F800C04FF08049C6F80090DFF8FC
:1021B000C8C0ACF1180CDCF800C0DFF8BC804CF0F3
:1021C000805CA8F11808C8F800C0D8F800C02CF04E
:1021D000005CC8F800C0DFF8A0C0ACF1100CDCF85F
:1021E00000C0DFF894802CF0405CA8F11008C8F81B
:1021F00000C0DFF888C0CCF81840DCF8004044F09C
:102200000404CCF80040DCF8004024F00804CCF8CA
:102210000040DCF8084024F00C04CCF808407C0BAB
:10222000CCF81840DCF8004044F01004CCF8004032
:10223000DCF8004024F02004CCF80040DCF8084032
:1022400024F03004CCF808402F600D4C183C246872
:10225000DFF82CC044F08044ACF1180CCCF80040FE
:10226000DCF8004024F000440CE0000000100240C4
:102270003038024018040240180C024000000240AE
:1022800018080240CCF80040146824F04044146060
:10229000DCF8004024F04054CCF80040141DD4F881
:1022A00000C02CF0405CC4F800C0DFF810C4DCF8BB
:1022B00000C0DFF808842CF0030CC8F800C0D8F880
:1022C0000CC02CF0030CC8F80CC0DFF8F483C8F87D
:1022D00000A0D1F800C04CF4800CC1F800C0D1F8C7
:1022E00000C02CF4000CC1F800C0D3F800C02CF4DE
:1022F000400CC3F800C04FF0806CC8F800C0D1F8A3
:1023000000C04CF4801CC1F800C0D1F800C02CF40F
:10231000001CC1F800C0D3F800C02CF4401CC3F866
:1023200000C08761076847F080470760076827F0AB
:1023300000470760876827F040478760C0F818901B
:10234000076847F080570760076827F00057076065
:10235000876827F04057876047048761076847F020
:1023600080670760076827F000670760876827F0C5
:102370004067876007048761D0F800C04CF0807C1C
:10238000C0F800C0D0F800C02CF0007CC0F800C03D
:10239000D0F808C02CF0407CC0F808C0C446CCF887
:1023A00000700F6847F080770F600F6827F00077A4
:1023B0000F601F6827F040771F60076827F00C0741
:1023C0000760C76827F00C07C7600F6827F440470D
:1023D0000F601F1D3F6803F1040C27F44047CCF841
:1023E0000070B84F3F68DFF8DCC227F0C007CCF8B8
:1023F0000070276827F0C0072760DFF8C0C24FF4DD
:102400000027CCF81870DCF8007047F04007CCF8D3
:102410000070DCF8007027F08007CCF80070DCF862
:10242000087027F0C007CCF808704FF480172F60B1
:10243000A44D2D68A34F45F480753D603D6825F49B
:1024400000753D60156825F4407515604546C5F872
:1024500000B00A6842F480520A600A6822F400520E
:102460000A601A6822F440521A60026822F03002B0
:102470000260C26822F03002C260384600683A4604
:1024800020F0C0001060206820F0C00020600868C4
:1024900020F440400860181D0068191D20F44040D9
:1024A0000860614640208861086840F480500860F8
:1024B000086820F400500860886840F44050886044
:1024C00008153060804800687F4940F4801008603B
:1024D000086820F4001008607B48083000687A49DA
:1024E00020F4401008310860881430607648006895
:1024F000754940F080700860086820F0007008603E
:10250000714808300068704920F040700831086058
:102510004FF4005030606C4800686B4940F08060B8
:102520000860086820F000600860674808300068AC
:10253000654920F0406008310860C8143060624886
:102540000068614940F480000860086820F40000D9
:1025500008605D48083000685B4920F4400008319D
:10256000086010460068114620F04050086020685E
:1025700020F080502060206840F000502060BDE8CE
:10258000F08F08B1402001E04FF480004B49886192
:10259000704708B1022001E04FF4003047498861DC
:1025A00070474A480069C0F3400070474549012020
:1025B000183108604349086820F0030040F001002A
:1025C000086070473F48016821F0030101603D4900
:1025D000012018310860BFF35F8F39480838006860
:1025E000C0F3C01070473748016821F00C0101604A
:1025F0003449022018310860BFF35F8F3148103032
:102600000068C0F3C00070472E490A6842F0040217
:102610000A602C4A4FF400331832136008B10820C6
:1026200001E04FF400201060086840F040000860AE
:10263000704724490A6842F001020A60214A4FF4B7
:1026400080311832116008B1802001E04FF40000A1
:102650001B4908601A481838016841F4804101603C
:1026600070471848016821F00C01016015480221EB
:10267000183001600160BFF35F8F40210160704737
:1026800010494FF480001831086070470D48016808
:1026900021F0030101600B48012118300160016045
:1026A000BFF35F8FBFF35F8F490601607047054935
:1026B0004FF40070183108607047000000000240BD
:1026C0001804024000080240000C024000100240C2
:1026D0002DE9F0410446D0F80002012700262F4DD5
:1026E000022829D00220BDE8F081A8682154401CAE
:1026F000A860062811D12079010601D5A17800E053
:102700000021891D00F07F00E960502804D1607924
:10271000012801D1FF2900D9AE60D5E90201884224
:1027200005D10120AE600327C4F800020BE0D4F805
:102730000002012802D106E04FF6FF7800F0B0F960
:1027400001464045D1D13846CDE710B5134CD0F8FD
:102750000022D4E9001319441344636003E010F825
:10276000013B01F8013B521EF9D210BD10B50B4CD4
:102770006068002811D000F0C6F900280DD0D4E917
:10278000000100F0A3F9064920688842084601D1FB
:1027900000F5007020600020606010BD780200200D
:1027A0007C370020604810B5016841F48021016049
:1027B0005D48103801685D4A114301605C4801685A
:1027C00021F480310160016841F400310160011D94
:1027D0000A6822F480720A6055490C310A6822F4B2
:1027E00040320A600A1F136823F440331360504AD2
:1027F0002432136823F00F03DB1D1360036823F4F6
:1028000080230360036843F400230360086820F416
:1028100040200860106820F0F00040F07000106068
:10282000444940F26D10088042480023083003807C
:10283000001D03800A1D118841F400511180018898
:1028400041F0C00101803C48816D21F001018165AA
:10285000816DC907FCD1816D21F060618165816D59
:1028600041F000618165816D41F488618165314C81
:10287000241F0466C365816A21F001018162816AB7
:10288000C907FCD1816A21F060618162816A41F0EF
:1028900000618162816A41F4A06181620463274919
:1028A00041638021C162234908390B8823F040032A
:1028B0000B80118841F00C011180816A41F0010107
:1028C000816210BD1C48C06A1D4AC0F180001168B9
:1028D000884202D14FF6FF7070471848405C491C8F
:1028E00011608029F8D1002111607047124A936D60
:1028F00023F001039365936DDB07FCD15066D1652E
:102900000C480838018821F0400101804FF0006038
:102910009060906D40F00100906570470548083860
:10292000008800F040007047403802400800200056
:10293000000C024008480040006002407C3B002040
:1029400088020020724810B5016841F01001016052
:102950006F48143801686F4A114301606E4801687E
:1029600021F480210160016841F400210160416887
:1029700021F400714160C16821F44021C160816887
:1029800021F440218160416A21F0F00141F07001A1
:102990004162016821F480110160016841F4001175
:1029A0000160C16821F40011C160C16841F4801167
:1029B000C160416A21F4706141F4E0614162C10289
:1029C0008161016841F080710160016821F000714E
:1029D0000160816841F040718160016821F440012B
:1029E0000160C16821F40001C160C16841F4800147
:1029F000C1604A4940F2D920088100230B828B82B2
:102A0000888940F400508881888A40F0C00088821C
:102A10004348026822F0010202600268D207FCD13A
:102A2000026822F060620260026842F000620260A6
:102A3000026842F488620260384C3948241D08302C
:102A40000460001F036036487838026822F00102F3
:102A500002600268D207FCD1026822F06062026064
:102A6000026842F000620260026842F4A062026002
:102A70002B4A703A14602A4B2A4A6C3B1A605A154A
:102A8000274B743B1A600A8822F040020A808A8928
:102A900042F00C028A81016841F00101016010BD21
:102AA0001F4874380068204AC0F5007011688842D9
:102AB00002D14FF6FF7070471A48405C491C116004
:102AC000B1F5007FF7D1002111607047144A1368F7
:102AD00023F0010313601368DB07FCD1104B0C33A8
:102AE00018600F48001D01600C48018821F040016A
:102AF00001800B494FF00060AC390860106840F06D
:102B00000100106070470548008800F040007047E1
:102B10004438024001004000000002400010014023
:102B2000B8640240FC3B00208C020020FE48016893
:102B300041F400310160FD49A7220A80FB4A40F2BE
:102B4000E731121D1160F94A49100C321160F74942
:102B500008390A8842F001020A80F44910390A88CB
:102B600042F060020A80091F0A8842F001020A80CE
:102B7000EE4928390A8842F001020A80016841F4CE
:102B800080310160EA4820210181018941F007017B
:102B90000181002101854FF6FF71C162018841F07A
:102BA000010101807047E248406A80B27047401AD4
:102BB00080B27047DC48001F016841F010010160DD
:102BC000DC48532101854FF6FF714162C1620188E3
:102BD00041F008010180018841F001010180704746
:102BE0004142D4484162018841F0010101800188DD
:102BF000C907FCD17047CC4B10B51B1F186840F0BB
:102C000008001860C8482438016841F008010160D4
:102C100001680907FCD5016821F008010160C64878
:102C200000210180001F0160BF4A143A106840F083
:102C300001001060C148046824F0010404600468C5
:102C400044F002040460046A24F00F04A41C04622B
:102C5000B94C481E241D2060B74C5720203C2080D2
:102C6000B5481038048844F001040480001F04882B
:102C700044F001040480B0482838048844F001047A
:102C80000480186840F002001860AD480180001F01
:102C90000160106840F002001060AA48016821F04D
:102CA00001010160016841F002010160A548203086
:102CB000016821F00F01891C0160016821F0F00119
:102CC00041F0200101609E4941F26700091D086042
:102CD00041109B4814300160006899491831086020
:102CE000974947F270000C390880081D018841F4AB
:102CF0008071018092481438018841F001010180FF
:102D000010BD00B50246FFF74EFF0146FFF74BFF2F
:102D1000401A80B29042F9D300BD8B4948434FF42A
:102D20007A71B0FBF1F0B0F1807F01D301207047E0
:102D30004FF0E0210A6942F001020A614861002077
:102D400070474FF0E020006900F480307047F8B51C
:102D50007E4B7F4C1D1D38B97C48283000680090A0
:102D600018682060286800906F48001F016841F0D3
:102D7000805101607748016841F4807101606A48C0
:102D80002C30016841F480310160016821F4803108
:102D90000160016841F440710160016841F4004143
:102DA00001606A4ACA2024321060532010606748CC
:102DB0000C30016841F08001016001684906FCD5D2
:102DC000624910310E6842F20F776FF30E063E44EF
:102DD0000E600E6826F4FE0646F4C6060E602168F4
:102DE00019605D492960016821F080010160016876
:102DF0000906FCD4FF211160016821F02001016067
:102E0000F8BD494910B5091F0A6842F080520A60AE
:102E100050490A6842F480720A6043492C310A68BA
:102E200042F480320A600A6822F480320A600A683A
:102E300040F205131A430A600A6842F400420A602D
:102E400028B13F482838018841F0010101803F4AFC
:102E5000CA2024321060532010603C480C300168B6
:102E600041F08001016001684906FCD53749103105
:102E70000B6842F20F746FF30E0323440B600B6870
:102E800023F4FE0343F480330B6031492F4B096870
:102E900019601B1D30491960016821F08001016033
:102EA00001680906FCD4FF211160016821F02001AE
:102EB000016010BD29490840254908607047234B2F
:102EC000CA21243319605321196020490C310A6842
:102ED00042F080020A600A685206FCD51F4A104080
:102EE0001A4A1060086820F080000860FF2018600F
:102EF000704730B5154DCA2224352A6053222A6006
:102F0000124C0834226822F480722260221D136859
:102F100043F0010313601368DB07FCD00F4B18402C
:102F200040F00040094B1BE0443802402844014077
:102F30000040014000100040280C0040000002400A
:102F40002804004000040240406F40010028004077
:102F50009002002000700040024413007F7F3F0079
:102F60001C331860C1F30E001D4940F0706008600A
:102F7000106820F001001060106820F4807010606C
:102F8000206840F488502060106820F00100106034
:102F9000FF2028601348016841F4003101601148A6
:102FA0000838016841F4003101600E480C300168B6
:102FB00041F4003101600C494015C1F8000130BDF9
:102FC00007480CB51C380068009005484438006874
:102FD0000090034840380068019000980CBD000044
:102FE00044280040083C014004E000E0484A00203A
:102FF000116841F4803111604FF47053116800F191
:10300000010011F4003F01D19842F7D11068C0F3DC
:103010004040002856D03E484030016841F0805181
:1030200001603C48016841F4804101603A4940F246
:10303000056008603648083001680160016841F4A5
:1030400000410160016841F4A0510160016821F470
:10305000F81141F440210160016821F07C510160C8
:10306000016841F080610160016841F060510160D8
:10307000016821F040410160016841F08041016038
:10308000011F264B0B60116841F0807111601168BF
:103090008901FCD5016821F003010160016841F05C
:1030A000020101600168C1F381010229FAD11849C6
:1030B0001B4884310860106840F080601060106820
:1030C0000001FCD57047174810B5016841F4700144
:1030D00001600F48016841F0010101600C4A0021C4
:1030E000083211600268104B1A400260031D0F4A3B
:1030F0001A60026822F48022026005480C300160E8
:10310000FFF774FF07494FF000608039086010BD79
:103110000038024000700040003C02400C54400760
:103120000040005088ED00E0FFFFF6FE1030002464
:103130002DE9F041174604460126C81998460D4668
:10314000B0F5006F29D2002000F07CF9032000F0D8
:1031500081F9C5F3072000F07DF9E8B200F07AF9B3
:10316000002511E0002000F075F9B8F1000F06D03D
:1031700046B114F8011B814204D1012603E004F892
:10318000010B00E000266D1CBD42EBD3012000F0D6
:1031900059F916B10020BDE8F0810120FBE72DE9C7
:1031A000F0478F1888460646B7F5006F02D3012016
:1031B000BDE8F0870C4640E004F01F05444500D010
:1031C000ADB9002000F03EF9062000F043F90120DF
:1031D00000F038F9002000F035F9022000F03AF94B
:1031E000C4F3072000F036F9E0B200F033F916F826
:1031F000010B00F02FF91F2D02D0781EA0421BD129
:103200000025012000F01EF94FF47A79002000F02B
:1032100019F9052000F01EF9002000F01BF9824684
:10322000012000F00FF928466D1C484501D9022005
:10323000BEE75FEACA70E9D1641CA742BCD801208E
:1032400000F000F9B3E700007047704706480168D6
:1032500021F08051016005A000F028B801460BA0C4
:1032600000F024B8FEE7704704ED00E00D0A466563
:103270006174757265206E6F742079657420696D54
:10328000706C656D656E7465642100000D0A53569F
:1032900043206E756D6265722025752077617320FD
:1032A00063616C6C65640000002070470FB410B55A
:1032B000184C03AA6068B0F5E16F00D301BE216825
:1032C0000844029904F032FD61680144616010BC59
:1032D0005DF814FB10B50F4C6068002811D0FFF7A3
:1032E0001DFB00280DD0D4E90001FFF7FFFA0A49C1
:1032F00020688842084601D100F5E1602060002086
:10330000606010BD10B5FFF709FB0028FBD0BDE8D9
:103310001040DFE794020020FC3D002078B5544BBC
:10332000186840F00400186051481030016841F4FA
:10333000004101604F48016821F08071016001681F
:1033400041F000710160041D216821F48051216069
:1033500048490C310A6822F040720A600D1F2A6841
:1033600062F040722A60434A2432166826F47026BE
:1033700046F4C0261660066826F4801606600668C5
:1033800046F400160660266826F4806626600C68FF
:1033900024F440140C602C6864F440142C6014680D
:1033A00024F4706444F4C0641460046824F4800459
:1033B0000460046844F400040460086840F4800079
:1033C0000860086820F400000860106820F470406D
:1033D00040F4C0401060186840F0080018602649AA
:1033E0000420086024481838016841F01001016089
:1033F000016821F020010160001D016821F0040135
:1034000001601D480C38016821F030010160001F87
:10341000016861F0300101601848018821F0400125
:103420000180001F018821F0400101804FF44971A3
:103430000180018841F04001018010480830008877
:10344000009078BD08B1042001E04FF480200A49C3
:10345000086070470949091D0A889207FCD5074A88
:10346000083210800888C007FCD01088C0B27047AE
:103470003038024000080240180C0240043C004072
:1034800018B55A4A106840F00100106057481430CF
:10349000016841F4805101605548016821F4804180
:1034A0000160016841F400410160416821F0800140
:1034B0004160C16821F44041C160816841F44041EC
:1034C0008160016A21F0704141F0A0410162016810
:1034D00021F480610160016841F40061016041688C
:1034E00021F020014160C16821F44061C1602021C8
:1034F0008161816841F440618160016A21F4700159
:1035000041F4A00101623B49888820F04000888096
:10351000088820F0400008800720B0FA80F0C0F151
:103520002003D800083800F0380040F441700880CB
:10353000888840F002008880106840F480001060A5
:103540002D48026822F0010202600268D207FCD115
:10355000294C4FF400627C3C2260026822F06062D9
:103560000260026842F0C0620260026842F4806257
:103570000260026842F0400202601E481E4A0C309F
:10358000083210600020121F1060088840F04000D0
:10359000088088890090012018499840B1FBF0F01C
:1035A00018BD7047144A136823F0010313601368B1
:1035B000DB07FCD1104B0C3318600F48001D016075
:1035C0000D49C0147C390860106840F0010010609B
:1035D0007047094884380068000505D5054800890A
:1035E000000601D4012070470020704730380240A7
:1035F00000000240003001408864024000BD010527
:103600002DE9F041764C0125608980280FD0FFF725
:1036100037F8B4F90A00734E734F0C280BD2DFE869
:1036200000F00C0C31100A0A0A0A0A0A0A55FFF7C0
:1036300018F86E480580BDE8F081BDE8F041FEF75E
:10364000D2BFFEF7D0FF3978884200D03570FEF740
:10365000CAFF3870E089664D664E01280DD0FEF72E
:10366000C2FF0028E7D154F8800FA0F50040286081
:103670006068A0F500403060DDE7FEF7B4FF012888
:10368000F1D0D8E7FEF7AFFF3978884200D0357027
:10369000FEF7A9FF3870E089574C4FF6FF364FF21E
:1036A000FF75012803D0FEF79EFF20B907E0FEF763
:1036B0009AFF012803D020683040284004E02068A9
:1036C00040F0010040F440602060B4E74B48E189DD
:1036D000007801294FEA807002D0002804DB01E065
:1036E000002801DA012000E00020BDE8F041FEF7EB
:1036F0008BBF2DE9F0413A4CA089802810D0FEF70D
:10370000D6FFB4F90C000126364F374D0C2892D263
:10371000DFE800F00A0A2F0E29292929292929532F
:10372000BDE8F041FEF7B2BFBDE8F041FEF74ABF89
:10373000FEF748FF6978884200D03E70FEF742FFEE
:103740006870208A2A4D2B4E01280DD0FEF73AFFD3
:10375000002808D154F8800FA0F500402860606868
:10376000A0F50040306066E7FEF72CFF0128F1D09D
:1037700061E7FEF727FF6978884200D03E70FEF7C8
:1037800021FF6870208A1C4C4FF6FF364FF2FF7500
:10379000012803D0FEF716FF20B907E0FEF712FF5D
:1037A000012803D020683040284004E0206840F021
:1037B000010040F4406020603DE71048218A007815
:1037C00001294FEA807002D0002804DB01E00028C4
:1037D00001DA012000E00020BDE8F041FEF729BF3A
:1037E0001C6D0120070000209C02002084030020A3
:1037F0004400002048000020340000202C0000205D
:1038000030B504460020FB4B024602EB82055D5DAD
:10381000A54202D0521C1D2AF7D951B101290DD061
:10382000022910D0032903D102EB82001844007949
:1038300030BD02EB82001844407830BD02EB8200BC
:103840001844807830BD02EB82001844C07830BD47
:1038500070B5E84C05462C3C0026E1690520062998
:1038600037D2DFE801F0030C36192C2F012D30D1AF
:1038700001202026E061FFF796F9A08029E0FFF7FC
:1038800092F9A188FFF793F9C82822D9012D01D117
:10389000032015E0002013E0012D04D0E061FFF7C4
:1038A00082F9E08015E0FFF77EF9A188FFF77FF944
:1038B000B0F57A7F0DD904201026E06109E045B902
:1038C000E06106E0FFF76FF9E188FFF770F9C828BB
:1038D000E0D8304670BD2DE9FF5FC64D80462C3DD7
:1038E0009B46286A0F46002658B11C2809D0FFF7CE
:1038F0005AF92989FFF75BF942F21071884200D921
:103900002E620298012804D1286A1C2801D01C20AC
:1039100028620E2F01DD012000E0002017F10E0FBC
:1039200001DA012100E00021441AFFF73CF929895E
:10393000FFF73DF9B42800D2002458EA040002D071
:10394000FFF731F92881002F01DB384600E078428B
:10395000642805DD686A052803DA401C686200E017
:103960006E62DFF894C2012C06D0601C06D05FEABC
:10397000886005D502210AE0002108E0012106E067
:10398000DCF80000400606D4287820B90321286A14
:10399000FFF736FF2862DCF80000DFF860A240F392
:1039A0008010401C28709348954B2C38954AD0F8CD
:1039B00020C001219448ACF10F0C40F28B6E40F214
:1039C000EC79BCF10E0F35D2DFE80CF044714FE317
:1039D00093B135CDD8F8F60734F500EE107AB8EE8D
:1039E000C00ADFED8A0A20EE200ABDEEC00A10EE02
:1039F000101AD9B100EE107A0289B8EEC00A20EE92
:103A0000200ABDEEC00A10EE101A114409B201815D
:103A1000002901DA068103E0642901DD64210181C6
:103A2000DBF8000040F02001CBF80010002C01D0A2
:103A3000A5F802E007E1621C06D0012C07D0002C9B
:103A400034D040F24160C0E0C6820683F9E7C1820B
:103A50000183F6E7002C29D050F8801FA1F5004122
:103A600011604068A0F500401FE0B0F92200022874
:103A700004D0012805D088B1186809E041F6871004
:103A800001E040F28D2014FB00F019680844186032
:103A9000B0F5004F05DB47F6FF7006E004EB84103D
:103AA000F3E710F5004F01DC59481860CBE0B0F99E
:103AB0002200022804D0012805D088B1106809E04E
:103AC00041F6871001E040F28D2014FB00F01168F0
:103AD00008441060B0F5004F05DB47F6FF7006E0C4
:103AE00004EB8410F3E710F5004F01DC4848106048
:103AF000A9E0621C05D0012C10D09CB34548017090
:103B0000A1E0C683DAF800204FF2FF740684224059
:103B10004FF6FF300240CAF80020EFE7C183DAF821
:103B20000020018442F44060CAF80000E6E7314A10
:103B3000601CA2F1040202D0012C03D005E0108821
:103B4000401E01E01088401C1080B2F900000028DF
:103B500001DA168002E0012800DD118014B110881E
:103B6000508013E060E0611C03D0012C03D06CB9DD
:103B700069E046810AE08021418107E0621C02D0B1
:103B8000012C02D05FE0868400E08184A5F80290D9
:103B900059E020484FF2FF3201701F4801701F4862
:103BA00006701F480170DAF800001040CAF80000E3
:103BB0001C48866146E043E00EE0FFE7611C06D04A
:103BC000012C06D084B340F28E6068803BE0868191
:103BD000F9E780218181F6E7611C26D0012C27D0EE
:103BE0000CB1A5F802E0B0F92210022924DD02216F
:103BF000418428E0CC020020100C02403400002058
:103C000048000020440000201C6D0120CDCC4C3D1C
:103C10000180FFFF070000200200002003000020B9
:103C200001000020F06D012009E0418C491E01E0F7
:103C3000418C491C4184D4E7002904DA468402E01F
:103C4000029800B92E62286A04B0BDE8F09F2DE901
:103C5000F04FDD4E07462DED028BA1B030784FF6C8
:103C6000FF7A4FF00009012810D1002001F0BAFAC4
:103C70007E23212154461A460846CDF800A002F0C2
:103C8000F7FF204601F0AEFA86F800909FEDCF8A4C
:103C9000CF49DFF84083DFF840B3D04DA1F12804CD
:103CA0001D2F77D2DFE807F00FB5BCBEC0E0C2C45D
:103CB000CAC6CCC8F2F4FBEEEDECCEEBEAE9E8E7DD
:103CC000E6E5E4E3E200688B0880A88B4880C448FE
:103CD000007868B19BF80000002844D0C1A202A877
:103CE000A16904F035F8C4A116A804F031F87AE30C
:103CF000B8F8000010F4406F33D0C4480078800753
:103D000001D5C3A200E0C7A202A8A16904F020F86F
:103D1000C848006800F5004000EE100AF8EEC00A3E
:103D200080EE880A10EE100A06F02EFF0646C24802
:103D30000F46006800F5004000EE100AF8EEC00AD9
:103D400080EE880A10EE100A06F01EFF41EC100B00
:103D5000BAA153EC102B16A8CDE9006703F0F8FFC9
:103D600041E3BBA2D0E7BFA202A8A16903F0F0FF24
:103D7000C14890ED000AF8EEC00A9FEDC01A80EE2F
:103D8000810A10EE100A06F0FFFE41EC100B53EC16
:103D9000102B00E037E3BAA116A803F0D9FF22E305
:103DA0000CA8A16903F0D4FF4FF6FF7001F01AFAD6
:103DB0000021084601F012FC02A802F0F8FE0121E1
:103DC000002001F00BFC0CA802F0F1FE7F23202163
:103DD0001A46084602F012F87E48AE4E4FF0020A2C
:103DE000008810F4406F09D0D5F8CC0040F2AA2129
:103DF00090FBF1F080B23080022801D2A6F800A03A
:103E00007748007800287DD0A348007800287AD031
:103E1000FEE3A2A202A8A16903F09AFFA4A2BFE751
:103E2000A8A236E0ACA234E0B0A232E0B4A230E006
:103E3000B8A22EE0BCA22CE0C0A22AE0C4A228E0D6
:103E4000C8A226E0CC4901203070654A08708BF882
:103E500000901070D8F800004FF2FF331840C8F8F7
:103E60000000C648C0F81890C5A212E0C4E2BCE247
:103E7000A0E29BE093E085E07DE06EE057E043E068
:103E800014E027E084E00AE002E0FFE7C1A200E0DE
:103E9000C5A202A8A16903F05BFFC8A280E7CCA27B
:103EA00002A8A16903F054FFCDA11DE76248006894
:103EB00000F5004000EE100AF8EEC00A80EE880A15
:103EC00010EE100A06F060FE41EC100BC8A153EC96
:103ED000102B12E05748006800F5004000EE100A71
:103EE000F8EEC00A80EE880A10EE100A06F04CFECA
:103EF00041EC100BC2A153EC102B16A803F028FFC5
:103F000016AA0CE087E246E3B5F91E00B5F92010C9
:103F1000884201D0BEA202E0012806D0C1A202A8B8
:103F2000A16903F015FFC4A23AE7C7A2F7E7B1F908
:103F30000000B1F90210884201D0C8A207E018B110
:103F4000012803D0CAA202E0CDA200E0D0A202A8BC
:103F5000A16903F0FDFED2A222E7B5F91600B5F97A
:103F60001810884201D0D3A2D9E7012801D0D6A2E7
:103F7000D5E7DAA2D3E76889802801D0DCA2CEE7B2
:103F8000DFA2CCE7A88C08B1E1A2C8E7E4A2C6E7AB
:103F9000E7A202A8A16903F0DBFEEAA200E7A88974
:103FA000802801D0EBA2BAE7EEA2B8E7B5F922006B
:103FB00028B1012805D0022805D0EEA2AFE7F2A271
:103FC000ADE7F6A2ABE7F3E10700002066D6234495
:103FD000C802002034000020030000201C6D0120D6
:103FE000010000205072657373204D4F44452074CA
:103FF0006F202020000000007374617274207363CE
:10400000616E6E696E672E2E000000002C0000208D
:10401000547261636B696E672041637469766520D1
:10402000200000004C6F77207369676E616C21205F
:1040300020202000C0030020C4030020313A253492
:104040002E3166252520323A25342E31662525006D
:10405000547261636B696E67204C61746368656458
:10406000000000005363616E6E696E672E2E2E2075
:1040700020202020000000006C000020008025444B
:1040800050726F67726573733A25342E3166252539
:104090000000000050000020040000204F50544950
:1040A0004F4E204D454E552020202020000000007E
:1040B000557365206D656E75202620776865656C83
:1040C000000000003120484F4D45204F55545055B9
:1040D000545320200000000032204F555431205608
:1040E0004F4C5441474520200000000033204F55DD
:1040F000543220564F4C54414745202000000000C8
:1041000034204F55545055545320454E41424C4550
:104110000000000035204F55545055545320524153
:104120004E4745200000000036205349474E414C81
:1041300020494E2020202020000000003720534935
:10414000474E414C204F55542020202000000000B5
:1041500038204F555450555453204C415443482017
:10416000000000003920414320424F4F535420208B
:10417000202020200000000002000020F06D01201F
:104180003130202058592D5343414E2020202020EB
:1041900020000000313120574845454C20535445FC
:1041A0005020202000000000313220425249474870
:1041B000544E455353202020000000005072657378
:1041C00073206D656E7520746F202E2E0000000028
:1041D000313320494E464F524D4154494F4E2000F5
:1041E00053775265763A2030313031313520200016
:1041F0004F555432203D202025342E316625250090
:104200004F555431203D202025342E316625250080
:104210004F5554505554533A5357204D49584544DF
:10422000000000004F5554505554533A44495341EF
:10423000424C4544000000005573652074686520B9
:10424000776865656C2E2E004F5554505554533A7F
:10425000454E41424C4544200000000052414E472B
:1042600045533A5357204D495845442020000000FB
:104270004F5554202052414E47453A2065727200F6
:104280004F5554202052414E47453A20373556006D
:104290004F5554202052414E47453A313530560053
:1042A0004170706C792077697468204D4F444521C6
:1042B000000000004C415443483A5357204D4958A0
:1042C00045442020000000004C415443483A20203F
:1042D00020204E4F524D414C000000004C415443B1
:1042E000483A2020464545444241434B00000000E7
:1042F0005349474E20494E3A4F50544943414C0090
:104300005349474E20494E3A20492F4F2031200033
:10431000414320424F4F53543A2020204F4E20001B
:10432000414320424F4F53543A2020204F464600ED
:104330004D6F76652074686520776865656C202010
:1043400000000000746F20686F6D65204B4E4120A7
:10435000092020005349474E204F55543A20202031
:104360004F4646005349474E204F55543A20492F57
:104370004F203200537465703A206572726F72215B
:104380002020202000000000537465703A2044452E
:1043900043494D414C532020000000005374657088
:1043A0003A20554E49545320202020200000000080
:1043B000EFA2B4E5F3A202A8A16903F0C9FCB5F924
:1043C0000800142801DA142002E0642801DD6420CA
:1043D0002881B5F9080000F0A9FBB5F90820EDA186
:1043E00016A803F0B5FC16AADAE4EFA202A8A169A8
:1043F00003F0AEFCF1A177E4F5A202A8A16903F0F5
:10440000A7FCF8A2CCE4FCA202A8A16903F0A0FCDE
:104410003A46FEA1E4E7B4F90E00B4F90A10FC4FE5
:104420004FF04F08884209D1B4F91000B4F90C10CC
:10443000884203D130883988884244D0002000F077
:10444000D1FEF448006841054FEA005015D5002818
:1044500001DA002329E0217C94F80EC001F150001C
:10446000C3B238880CEB50024F32A8EB50004F31EA
:104470006044D2B2C9B2C0B213E0002814DA217C81
:104480003B8801EB53004F3000F0FF0BA07BA8EB03
:10449000530300F1500219444F30D2B2C9B2C0B236
:1044A0005B4601F0ABFC0AE00123388802B2208AA7
:1044B0004F3001B2E0894F3000B201F087FA6089D5
:1044C000E081A089208230883880D3484FF4407141
:1044D0004FF6FF76006890FBF1F06081CF480068EE
:1044E000404290FBF1F0A081304600F07BFE304668
:1044F00000F078FE4F21202001F0CAFA4F217F20E2
:1045000001F040FB20214F2001F0C2FA7F214F2013
:1045100001F038FB662338211A46084601F06EFC8C
:10452000BC48006841054FEA005013D5002801DA65
:10453000002325E0207BA47A00F150013E88CBB215
:1045400004EB56014F31CAB24F30C1B2A8EB56004E
:10455000204410E0002812DA217B3E8801EB56004F
:104560004F30C3B2A07AA8EB560400F150022144A8
:10457000D2B2C9B24F30C0B201F040FC54E00123C6
:10458000388802B2A0894F3001B260894F3000B242
:1045900001F01CFA48E09BF80000012840D1A04E31
:1045A000A04FDFF88482E0820120A08280B200EB7D
:1045B000401101EB8010E18A3044405C3978401AA8
:1045C000C0EB002198F8000091FBF0F0C0F3C401AB
:1045D0006082CA02C0F3850042EA4010084300F03E
:1045E00001FEE08A0122C0F17F00C1B2207D2030AF
:1045F000C0B201F05EFBA08A401C80B2A0825F289E
:10460000D4D3E08A401C80B2E0825F28CCD300E0A3
:1046100006E086494FF6FF7081F8009000F0E2FD59
:1046200083489BF8001001706889802820D00826F4
:1046300000244F46A98FE01C814201D9012000E0EF
:10464000002002F011FC06FB04F0C0F17F00C3B2B1
:10465000641C06FB04F0C0F17F00CDE9007AC1B212
:104660000822002001F050FEA4B20C2CE2D311E08D
:10467000002000F0B7FD002002F0F6FB4FF6FF74BB
:104680007F2308221F210020009402F0F1FA204627
:1046900000F0A8FD012002F0E7FB6648BE2100689B
:1046A0004843000C5F2800D95F20C0F17F04CDE9AA
:1046B000009A55464E46E1B27F231822102001F0A1
:1046C00023FE002002F0D0FBCDE90065E3B2182202
:1046D0002021112001F018FE21B00020BDEC028B3A
:1046E000BDE8F08F0FB4F0B5534DBDB000260446C1
:1046F0002E6044AA6846439903F018FB6A464FA10E
:10470000104603F025FB1EAB14AA4DA1684603F02A
:10471000E3FC4F4F14AA28A8B96903F019FB1EAA9D
:1047200032A8B96903F014FB02F05CFA4FF4784048
:1047300000F058FD0022474B0321104601F090FD88
:104740004FF6FF7000F04EFD0721002000F046FFFD
:1047500028A802F02CFA0821002000F03FFF32A820
:1047600002F025FA40F6FF702860FEF71CFA73E0AD
:10477000537465703A2044454341444144455320B5
:1047800000000000534554204252494748544E45CA
:10479000535320004272696768746E657373203DDD
:1047A0002025332E30640000536565206E616E6FE6
:1047B0007472616B20696E20000000007777772E9D
:1047C00074686F726C6162732E636F6D000000001D
:1047D000536176696E677320706172616D73202614
:1047E00000000000706F776572696E6720646F77F4
:1047F0006E2E2E2E00000000556E68616E646C6592
:10480000642073746174653A000000002564000040
:104810004E00002034000020C0030020C40300200C
:10482000340400205D0000205C0000200200002015
:1048300004000020400000202074004025730A007E
:10484000255B5E0A5D0A255B5E0A5D0A00000000CA
:10485000A0020020C0AD00080746FEF7A4F93946C3
:10486000FEF7A5F9A042F8D32E6002F0BBF93DB0E7
:10487000F0BC5DF814FB70B50446C0F3072000F0EF
:10488000D8F80502E0B200F0D4F8284370BD00006B
:1048900070B52B4C012504F11801E06820B1012806
:1048A00019D0022841D134E0254E1036D6E9000156
:1048B00088423CD90020FEF774FED4E90410C4E914
:1048C00006102049884200D11F4971603160A06004
:1048D000E560606029E00968A068814216D9017826
:1048E000408820806068001D6060DA2902D0C029FD
:1048F00002D004E0012000E00020FDF742FE218804
:104900006068FEF74FFE0220E0600EE00020E060ED
:104910000DE0FEF75EFE30B12188606808446060FB
:10492000C4E9020501E0E06808B1012070BD002083
:1049300070BD10B5FFF7ACFF0128FBD010BD000023
:10494000640300200C4C002094DC002038B5404863
:10495000016841F0020101603D481030016841F4F6
:10496000804101603B48016821F08041016001689D
:1049700041F000410160031D196821F400411960F4
:1049800034490C310A6822F040420A600C1F226848
:1049900062F0404222602F4A2432156825F07045AB
:1049A00045F0A0451560056825F08065056005683F
:1049B00045F0006505601D6825F400551D600B6815
:1049C00023F040630B60236863F040632360136847
:1049D00023F4700343F4A0031360036823F08053AF
:1049E0000360036843F000530360086840F08050A0
:1049F0000860086820F000500860106820F07060BF
:104A000040F0A06010601448018821F0400101804E
:104A1000001F018821F0400101804FF4497101809D
:104A2000018841F0400101800B4808300088009067
:104A300038BD0949091D0A889207FCD5064A083283
:104A400010800888C007FCD01088C0B270470000F2
:104A50003038024000040240043800402A4808B5BB
:104A6000016841F002010160016841F0010101604B
:104A70002648016821F040010160016841F0800191
:104A800001602348016821F080410160016841F024
:104A9000004101601D4920310A6822F4704242F44D
:104AA00080520A60416A21F0704141F080514162B8
:104AB00015481030016841F0010101604FF080415C
:104AC0004FF0FF30C862088B40F201121043088398
:104AD00003200881088840F00100088000224FF47C
:104AE0007A7300920098401C00909842FADB4A6268
:104AF00008BD4FF08042516A00235362022801D161
:104B00004800414208B27047303802400004024079
:104B1000000002400C4810B50068FFF7EAFFC00132
:104B2000C11700EBD16020F3471010BD074964287E
:104B300004DA00EBC00202EB401001E040F6FF7027
:104B40000860704700207047280000202074004053
:104B5000FC49096D90FBF1F201FB1200FA4901EBEF
:104B6000800090ED000A70472DE9F04FF74A0027CA
:104B7000DFF8DC935069DFF8DCA3411C4FF0320B07
:104B8000516104284EDD5761906910B1401E90615B
:104B900048E09068C0B91069602802DC401C1061D0
:104BA00012E0D0680121602807DCEB4B1761195433
:104BB000401CC2F818B0D06006E09160E7494FF49D
:104BC00000400860E6490860E648DFF89C83E74E4D
:104BD0000468E011C8F80000D368C1B203EB4315C4
:104BE00005EB831535441669A95599F8005085429F
:104BF00001DA89F800109AF80050854201DD8AF840
:104C00000010C6EB8610DA4900EBC00042F604152E
:104C100028444860C3EB831000EBC00028440860C0
:104C2000C8F80040D349087801280AD1C2F818B062
:104C3000FF2397608AF800301761D7600F7089F8FA
:104C400000709068BDE8F08F70472DE9F04FBF4BC2
:104C5000BC4C4FF00008196A491C1962206D88424B
:104C600001DCC3F82080C1171A6A00EB917102EBD6
:104C7000A1015962884201DC081A5862B9480068EB
:104C80001865996A884200DD986202F0030CBCF155
:104C9000010F03D0BCF1020F03D003E0B24908605A
:104CA00000E0D864606D1044FFF752FFDFF8C8B22F
:104CB000B6EE001ABCF1000F0BD1D3ED130AF8EEDB
:104CC000E00A60EE200A9BED000A00EE810A8BEDFF
:104CD000000A186AFFF73CFFD3ED0C0AA749F8EE6B
:104CE000E00A0978890720EE200ABDEEC00A10EE1E
:104CF000100A01D401263546DFF88492A14FDFF86F
:104D00005CA2B9F80010490506D439680126DAF822
:104D10000000012904D007E0D96B08440121396063
:104D200080F4004192480160A06D596A0844FFF781
:104D30000FFFBCF1000F0CD1D3ED130A9248F8EE2F
:104D4000E00A60EE200A90ED000A00EE810A80ED94
:104D5000000A586AFFF7FCFED3ED0B0AD9F80000F1
:104D6000DFF8FC91F8EEE00A020520EE200ABDEE25
:104D7000C00A10EE101A06D43A680125D9F80010BE
:104D8000012A04D007E01A6C114401223A6081F430
:104D9000004277494A607D49B3EE000A9FED7C1AD4
:104DA0007C4FDFED7D1ADFED7D0A1A6A52B15E6A33
:104DB0006EB39FED7B0A47F6FC71012A4DD0012EA0
:104DC0006DD08DE09BED002A5A4622EE000A10EECF
:104DD000105A8BED000A8D4202DD83ED111A08E0B6
:104DE00010EE101AB94202D9C3ED111A01E083ED99
:104DF000110A012E03D1C2ED000AC3ED110A69495F
:104E0000CBED000A9A6A0A60C3F8288068E0664E13
:104E1000326812B1521E012532605B4A92ED002ABF
:104E200022EE000A10EE106A82ED000A8E4202DDC8
:104E300083ED121A08E010EE101AB94202D9C3ED40
:104E4000121A01E083ED120A012D03D1C2ED000A0E
:104E5000C3ED120AC2ED000A42E0D4F8CC601E6332
:104E6000D4ED100A93ED111ADAF80070F8EE600A2A
:104E7000891B554660EE810A20EE800ABDEEC00A0D
:104E800010EE102A3A448A4202DC49428A4201DA90
:104E9000296000E02A60DAF80010D96320E0D4F835
:104EA000CC60DE62D4ED100A93ED121AD9F80070CE
:104EB000F8EE600A891B4D4660EE810A20EE800AFA
:104EC000BDEEC00A10EE102A3A448A4202DC494282
:104ED0008A4201DA296000E02A60D9F800101964DA
:104EE000D969491CA1F55062D961AD3A28D1174D55
:104EF000C3F81C80474654355E682C49B4F81880C6
:104F00004FF0805C4FF4805E05F11002052E4FDA01
:104F1000B8F1010F0AD15FEA405805D4C1F800C0CA
:104F2000596B2960176001E0C1F800E0E18A0129AE
:104F300004D1000502D4986B68605760761C5E60EF
:104F400080E600001C6D0120F8280020840300206A
:104F50005C0000205D000020546E01204400002011
:104F600048000020600000204000002034040020A1
:104F70006C00002002000020680000202C000020AF
:104F800034000020580000205400002000F8FF46A4
:104F900000F8FF4600F8FFC600F8FFC6000000005A
:104FA000000000381C0000202000002018040240EF
:104FB0007E4F4FF4004B7E1CB8F1010F40D15FEAE9
:104FC00040583BD4C1F800C02968D3F834C04FF032
:104FD0006408A1EB0C01DFF8D8C18E46CCF80010B4
:104FE000D4F830C001FB0CF191FBF8F1D2F800C00D
:104FF00061441160594502DDC2F800B002E0B942D7
:1050000000DC1660D4F828C00EFB0CF191FBF8F11F
:10501000D2F800C08C4466491031C1F800C0DAF8FB
:105020000080C444CAF800C0DC4502DDCAF800B004
:1050300006E0BC4504DCCAF8006001E0C1F800E00D
:10504000E18A01297FF47CAF00053FF579AF6868FC
:10505000996B411A564841605068636B01FB03002D
:105060005B465060984201DD536002E0B84200DCCC
:1050700056605068E26A01FB02004D4910314860F9
:10508000D9F800201044C9F80000984202DDC9F8A0
:105090000030D7E5B842FCDCC9F80060D2E52DE964
:1050A000F047444D288AC00765D0434C69142160FD
:1050B0008E10266048102060800320604FF4287016
:1050C000401EFDD1884621604FF000602060DFF86F
:1050D000EC90D9F80400FFF7CEFB354F5C3F7863C6
:1050E000C4F8008026604FF0005020602660401019
:1050F000206080142060D9F80000FFF7BCFBB86383
:105100002F483049304A0068304B040502D4DC8A0D
:10511000012C08D0400502D4188B012803D02C485C
:10512000007818B10EE0086810600EE0B7F90030A2
:10513000786B584340107863B0F5004F02DB47F6B8
:10514000FF707863786B106008602249088808B1A6
:10515000401E08802048007818B1204C207818B1F3
:1051600005E0FFF772FD02E0FFF7FEFC2070288AE1
:1051700020F001002882BDE8F0871948016841F05D
:10518000010101600B4842F6E06101850121C16225
:105190000022028681814FF0E0224102C2F8001114
:1051A000018841F001010180704700000080FFFF8D
:1051B000E003002000000140180C02406C000020B9
:1051C0003400002064000020600000201C6D0120DD
:1051D0004C000020100000200100002003000020EF
:1051E000443802400D4910B50968CC8AC882098B41
:1051F00002F04DFC204610BD70B50E46054601F08C
:1052000053FE0446284601F056FE3046FFF7EAFFFB
:105210000546204601F04FFE284670BD08040020D8
:1052200000B90D484078704710B501F0F6FD0B4805
:105230000068C17C407D0844C0B210BD052800D381
:105240000420C0EBC001064800EB8100C17C407D1A
:105250000844C0B2704700009CC200080804002047
:10526000B86E01202DE9FC47B04E18B93068C0680F
:10527000FFF7D6FF34684FF6FF79627D67791044F7
:10528000C5B2E3787819984224D801F033FE30682B
:10529000427DD2B1018A11F4405F16D00B044FEA6F
:1052A000C17301D50BB910E003B14B4600934479AB
:1052B0002244521CD3B2890401D5827800E00279DD
:1052C000641CE1B2007801F013FF30684179294491
:1052D000417120E0218ADFF858C25FEA81780AD55F
:1052E0009CF8001011B9B918994202D30120BDE809
:1052F000FC8760710FE09CF8002012B9C01AC5B29B
:105300006371C80700D04846CDE90050A2786178A3
:10531000207801F0C5FF3068017801710020E6E7D0
:1053200010B501F07AFD8349002008707F4880495C
:105330000068008A40F30020401C087010BD7B48C4
:1053400010B50068027981788A4200D901714279EA
:10535000C1788A4200D94171017981714179C17165
:1053600001F0C8FDBDE8104001F0EABC6F4916220B
:1053700009680978401AC0B2B0FBF2F0401C00EB9B
:10538000400202EBC00001EB4000C0B27047F8B52C
:10539000664C05462168088A02044FEAC07001D5B0
:1053A00008B911E008B14FF6FF70009008790A7D46
:1053B0004B79497802444E19D2B2B34201D3591BFA
:1053C000491CC9B201F094FE20680179027D1144A4
:1053D0000171F8BDFEB504460A2870D00D2C6ED0C0
:1053E000524E092C30680BD0C068FFF719FF0546F4
:1053F0003068027981788A4223D9491C01715EE0C4
:105400000079FFF7B3FF316805460A78904256D01D
:10541000C868FFF705FF3468217CC90701D04FF643
:10542000FF710091617863790A18934201D3191AC8
:10543000491CC9B220792A4601F05AFE306805712C
:105440003DE0D0E90221204600F036F9011E0DD0E2
:105450000C7804B98C783068028A920507D40379F5
:10546000621E1A4483789A4201DD0120FEBDC268A3
:10547000477953684278BA1AAA4201DB002201E058
:10548000AA1A521ED2B28DE80E00791BC378827818
:10549000491CC9B2007900F05BFE30680179027DD9
:1054A0008B181D1983789D4201D9037107E02144AF
:1054B000017122B1C068FFF7B3FEFFF768FF00205B
:1054C000FEBD70B50446FFF72BFF0A2C0FD0174D19
:1054D0000D2C10D02046FFF77DFF98B12868007C86
:1054E00000060FD40020FFF7BDFE58B907E00020EA
:1054F000FFF7B8FE06E028680178017102E0204657
:10550000FFF768FFBDE8704019E770B50E46054625
:1055100001F0CAFC0446284601F0CDFC3046FFF7F6
:10552000D0FF2046BDE8704001F0C5BC0804002053
:10553000F80300202104002070B5254D2968CC68AF
:1055400000B92448C86002698A6002788A74407889
:10555000C874C6B201F0F9FB2868761E417842791A
:1055600031448A4205DAC9B24171C278914200D908
:10557000427101798278914200D911468171417955
:10558000C17101F0DDFB204670BD10B501F045FC96
:105590000F480068C06810BD70B50E46054601F0A2
:1055A00083FC0446284601F086FC3046FFF7C4FF22
:1055B0000546204601F07FFC284670BD052800D333
:1055C00004200549C0EBC00001EB8000C0687047B3
:1055D000080400209CC20008B86E012070B50C467B
:1055E000054601F01AFC12480268907C10FB05F099
:1055F000D37CC0B213FB0431527DBDE87040491E1C
:105600001144C9B200F016B82DE9F04115460E4616
:10561000044601F049FC0746204601F04CFC2946AF
:105620003046FFF7DBFF3846BDE8F04101F043BCF0
:105630000804002070B50D46044601F0EEFB1D483D
:105640000268117808195478C3B26019C0B299423F
:1056500000D90B469178994200D20B46844200D97A
:105660002046D178814200D208469371D0711371DF
:10567000517D29B16318834201D9547101E0401A68
:105680005071BDE8704001F05BBB2DE9F04115465B
:105690000E46044601F008FC0746204601F00BFCCC
:1056A00029463046FFF7C6FF3846BDE8F04101F015
:1056B00002BC0000080400202DE9F0478946C2B171
:1056C000117802F1020CB1F1000A16D05146002700
:1056D0004B08FC1804EB440565442E7886420FD82D
:1056E00095F8018080450BD3A978F2B2801A08445E
:1056F000C0B2B9F80C10814211D20020BDE8F08789
:1057000043B1864201D91946E2E7C91AE7B211F05E
:10571000FF01DDD151788142EFD00846D6E7D9F8B4
:1057200008100A7832B10222D9F804301A4402FB78
:105730000010E3E70422F7E7124900B50A684AB10E
:10574000D16839B19268FFF7B7FF002803D001781C
:1057500011B102E0082000BD8178084600BD70B597
:105760000E46054601F0A0FB0446284601F0A3FBC7
:105770003046FFF7E1FF0546204601F09CFB284636
:1057800070BD000008040020F8B5BD4DB5F9023029
:1057900099421ADBB5F90440A04216DCB5F906605F
:1057A000B24212DBB5F90860B2420EDC984200DA70
:1057B0001846A14200DD21466B890093CCB2D3B2DA
:1057C000D1B2C0B2224601F0F4FEF8BD2DE9F84F87
:1057D000DFF8ACC28C1AC6189CF800800094C41A7A
:1057E000851A8718A1EB030901EB030B01EB020AF1
:1057F000B8F1000F1CD039B228B20FFA89F20F4667
:105800008046FFF7C1FF009835B202B224B22946A4
:105810002046FFF7B9FF0FFA8BF239464046FFF7F3
:10582000B3FF0FFA8AF229462046BDE8F84FABE7EE
:10583000BCF90220B8B21FFA89F1E046904212DBAF
:10584000B8F90430424698420DDCB2F9063099426C
:1058500009DBB2F90830994205DCC9B2C0B2B8F828
:105860000A2001F0C5FD0099B8F90220B0B289B252
:10587000904212DBB8F90430424698420DDCB2F98E
:105880000630994209DBB2F90830994205DCC9B209
:10589000C0B2B8F80A2001F0ABFDB8F90220A8B2F6
:1058A0001FFA89F1904212DBB8F90430424698425F
:1058B0000DDCB2F90630994209DBB2F908309942A1
:1058C00005DCC9B2C0B2B8F80A2001F091FD009918
:1058D000B8F90220A0B289B2904212DBB8F90430C4
:1058E000424698420DDCB2F90630994209DBB2F922
:1058F0000830994205DCC9B2C0B2B8F80A2001F0FC
:1059000077FDB8B2B8F902201FFA8BF147469042F2
:1059100010DBB7F9042090420CDCB7F90620914265
:1059200008DBB7F90820914204DCC9B2C0B27A8919
:1059300001F05EFDB7F90220B0B21FFA8AF1904281
:1059400010DBB7F9042090420CDCB7F90620914235
:1059500008DBB7F90820914204DCC9B2C0B27A89E9
:1059600001F046FDB7F90220A8B21FFA8BF1904270
:1059700010DBB7F9042090420CDCB7F90620914205
:1059800008DBB7F90820914204DCC9B2C0B27A89B9
:1059900001F02EFDB7F90220A0B21FFA8AF1904261
:1059A00012DBB7F9042090420EDCB7F906209142D1
:1059B0000ADBB7F90820914206DC7A89BDE8F84F86
:1059C000C9B2C0B201F014BDBDE8F88F2DE9F041B5
:1059D000161E3ADD2B4A2A4D126817786F805478CC
:1059E000EC8092F802C03844A5F804C00FFA80F8A1
:1059F00092F803C00819A5F808C007B2107CC007C8
:105A000001D0214800E021480024008868812B70E3
:105A1000C6F101050DE004F10104002D24B202DA03
:105A200005EB440504E0761E36B2A01B05EB4005ED
:105A30006D1C3346224639464046FFF7C7FEB44246
:105A4000E9DBBDE8F04101F055BABDE8F0812DE990
:105A5000F0471E46904689460546089C01F024FA08
:105A60000746284601F027FA234632464146484673
:105A7000FFF7ACFF3846BDE8F04701F01CBA000064
:105A8000FA0300200804002026040020240400203B
:105A900070B50C46054601F0C0F9704802681078F0
:105AA0002844907150782044D071BDE8704001F0D6
:105AB00047B92DE9FE4F07460E46824201D3D41B5B
:105AC00001E0B81A44428B4201D3981B01E0F01A5E
:105AD00040424FF0FF31002C02DA64428A4601E076
