:020000040800F2
:10000000086B0120A1600108BF600108C160010800
:10001000C3600108C5600108C76001080000000056
:10002000000000000000000000000000C96001089E
:10003000CB60010800000000CD600108CF6001081E
:10004000D1600108D1600108D1600108D1600108C8
:10005000D1600108D1600108D1600108D1600108B8
:10006000D1600108D1600108D1600108D1600108A8
:10007000D1600108D1600108D1600108D160010898
:10008000D1600108D1600108D1600108D160010888
:10009000D1600108D1600108D1600108D160010878
:1000A000D1600108D1600108D1600108D160010868
:1000B000A35301089B930008639E0008D1600108C8
:1000C000D1600108D1600108D1600108D160010848
:1000D000D1600108D1600108D1600108D160010838
:1000E000D1600108D1600108D1600108D160010828
:1000F000D1600108D1600108D1600108D160010818
:10010000D1600108D1600108D1600108D160010807
:10011000D1600108D1600108258F0008CD53010886
:10012000D1600108D1600108D1600108D1600108E7
:10013000D1600108D1600108D1600108D1600108D7
:10014000D1600108D1600108D1600108D1600108C7
:10015000D1600108D1600108D1600108D1600108B7
:10016000D1600108D1600108D1600108D1600108A7
:10017000D1600108D1600108D1600108D160010897
:10018000D1600108D160010800F002F800F0B2F877
:100190000AA090E8000C82448344AAF10107DA45E2
:1001A00001D100F0A7F8AFF2090EBAE80F0013F082
:1001B000010F18BFFB1A43F00103184714D10100C7
:1001C00044D101000A444FF0000C10F8013B13F039
:1001D000070408BF10F8014B1D1108BF10F8015BA0
:1001E000641E05D010F8016B641E01F8016BF9D193
:1001F00013F0080F1EBF10F8014BAD1C0C1B09D1EA
:100200006D1E58BF01F801CBFAD505E014F8016B5B
:1002100001F8016B6D1EF9D59142D6D370470000ED
:100220000023002400250026103A28BF78C1FBD8FF
:10023000520728BF30C148BF0B6070476E2918F0C5
:10024000AD83702918F0FD8366291BF0238465298E
:100250001BF0208467291BF01D8461291BF01C847E
:1002600003681B0A28BF41F08001692918F05A83EE
:10027000642918F05783752918F054836F2919F0F1
:100280002D81782918F0C983E92919F0C780E4295C
:1002900019F0C480F52919F0C180EF2919F02A81DD
:1002A000F82918F0C8830368DB0928BF41F08001F2
:1002B000632919F04880732919F04D80E32919F05A
:1002C0007783F32919F07C83002070471FB51BF05A
:1002D000D7FB19F04FF90400002000211AF0B6FEF8
:1002E000401C6060002000211AF09AFEE0601FBDF3
:1002F00010B510BD19F0B4FD1146FFF7E7FF07F088
:1003000021FC19F0DBFD03B4FFF7F2FF03BC19F089
:100310001FFE000000BF00BF00BFBFF34F8F00BF34
:1003200000BF00BFFE48006800F4E060FD490843DC
:10033000001DFB49086000BF00BF00BFBFF34F8F27
:1003400000BF00BF00BF00BF00BFFDE710B50446FF
:10035000B4F5886F20D011DC40F22341A4EB0100FA
:100360008C421FD005DCA4F2134090B1032833D196
:1003700010E0032829D017282ED10CE0B4F5966F91
:1003800017D0A4F2B340A8B1032811D04D2823D12F
:1003900021E022E021E020E04AF65521E248C0F8C1
:1003A00000111AE04AF65521DF48C0F8181114E090
:1003B00013E012E0DD48B0F87810DB48C0F8041212
:1003C0004AF65521C0F8081207E04AF65521D648EA
:1003D000C0F8281201E000E000BF00BFD448D249B5
:1003E00048600AF0A4FD10BDD248A0F17401D1F814
:1003F000BC21CD49C1F8E420A0F17401D1F8C0219D
:10040000C949C1F8E8204AF65522C1F8EC20CA498A
:10041000D1F89410C44A5161C749D1F89820C24913
:100420008A61C54991F89C20BF490A77C24991F871
:100430009D20BD494A77C04991F89E20BA498A77E4
:100440004AF655220A622C30426BC1F8F020826BCA
:10045000C1F8F420C26AC1F8F820C26BC1F8FC20D0
:100460004AF65522C1F80021026EC1F81C21426EE5
:10047000C1F82021826EC1F83421C26EC1F8382142
:10048000026FC1F84C21426FC1F85021826FC1F850
:100490006421C26FC1F86821A0F1A001D1F8D02178
:1004A000A149C1F8D021A0F1A001D1F8D4219E49E1
:1004B000C1F8D421A0F1A001D1F8D8219A49C1F8FE
:1004C000D821A0F1A001D1F8DC219749C1F8DC21A5
:1004D000A0F1A001D1F8E0219349C1F8E021A0F1F9
:1004E000A001D1F8E4219049C1F8E421A0F1A001D4
:1004F000D1F8E8218C49C1F8E821A0F1A001D1F898
:10050000EC218949C1F8EC21426CC1F8F02150F886
:100510000C2CC1F8F421026D2C38C1F8F821A0F19F
:1005200074010A688049C1F8FC214AF65522C1F8D5
:1005300000228249098F8AB27B49A1F834227F497F
:10054000898F8AB27849A1F836227C49098A8AB211
:100550007549A1F83822794909898AB27249A1F806
:100560003A227649898A8AB26F49A1F83C227349B6
:1005700089898AB26C49A1F83E224AF65522C1F80F
:1005800040226F490A686849C1F844226C494A68A8
:100590006549C1F848226A498A686349C1F84C2212
:1005A0006749CA686049C1F8502265490A695E49CD
:1005B000C1F8542262494A695B49C1F8582260492E
:1005C0008A695949C1F85C225D49CA695649C1F82E
:1005D00060224AF65522C1F8642259490A6A5249F2
:1005E000C1F8682256494A6A4F49C1F86C225449F9
:1005F0008A6A4D49C1F870225149CA6A4A49C1F80C
:1006000074224F490A6B4849C1F878224C494A6B19
:100610004549C1F87C224A498A6B4349C1F8802286
:100620004749CA6B4049C1F884224AF65522C1F8AD
:10063000882243490A6C3C49C1F88C2240494A6CE3
:100640003949C1F890223E498A6C3749C1F8942251
:100650003B49CA6C3449C1F8982239490A6D32497C
:10066000C1F89C2236494A6D2F49C1F8A02234496D
:100670008A6D2D49C1F8A4223149CA6D2A49C1F8B1
:10068000A8224AF65522C1F8AC222D490A6E264905
:10069000C1F8B0222A494A6E2349C1F8B422284938
:1006A0008A6E2149C1F8B8222549CA6E1E49C1F88F
:1006B000BC2223490A6F1C49C1F8C02220494A6F55
:1006C0001949C1F8C4221E498A6F1749C1F8C822C6
:1006D0001B49CA6F1449C1F8CC224AF65522C1F809
:1006E000D02218490A6F10490A6717490A6F0E4944
:1006F0004A6714494A6F0C498A6713494A6F0A4985
:10070000CA671049D1F880200749C1F880200E49F6
:10071000D1F880200449C1F884200A4916E000007D
:100720000CED00E00000FA05286001201006002012
:1007300007000100105C0120A45D012008000020DA
:10074000946301205C070020DC080020D1F884209D
:10075000F749C1F88820F749D1F88420F449C1F855
:100760008C20F549D1F88820F149C1F89020F14951
:10077000D1F88820EE49C1F89420EF49D1F88C20B7
:10078000EB49C1F89820EB49D1F88C20E849C1F831
:100790009C20E9490A6EE649C1F8A020E5490A6EA5
:1007A000E349C1F8A420E4494A6EE149C1F8A82010
:1007B000E0494A6EDE49C1F8AC20DF498A6EDC4967
:1007C000C1F8B020DB498A6ED949C1F8B420DA49B2
:1007D000CA6ED749C1F8B820D649CA6ED449C1F803
:1007E000BC204AF65522C1F8D420D3498A6DD0499D
:1007F000CA65D0498A6DCE490A66CF49CA6DCC49CF
:100800004A66CC49CA6DCA498A664AF65522CA6602
:10081000C9498A6CC6498A64C6498A6CC449CA6493
:10082000C549CA6CC2490A65C249CA6CC0494A6511
:10083000C1498A6BBE498A63BE498A6BBC49CA6397
:10084000BD49CA6BBA490A64BA49CA6BB8494A6415
:10085000B949D1F8D420B6498A62B649D1F8D42032
:10086000B349CA62B449D1F8D820B1490A63B14941
:10087000D1F8D820AE494A634AF655228A65A0F1DC
:100880007401D1F8D021AA49C1F8D021A0F1740196
:10089000D1F8D421A649C1F8D421A0F17401D1F82E
:1008A000D821A349C1F8D821A0F17401D1F8DC21E5
:1008B0009F49C1F8DC21A0F17401D1F8E0219C49E5
:1008C000C1F8E021A0F17401D1F8E4219849C1F800
:1008D000E421A0F17401D1F8E8219549C1F8E8219B
:1008E000A0F17401D1F8EC219149C1F8EC21026F1B
:1008F000C1F8F021026AC1F8F421C26FC1F8F821F1
:10090000A0F174010A688A49C1F8FC214AF655220F
:10091000C1F8002288498A6A8549C1F8D4228649EB
:10092000CA6A8349C1F8DC2282498A6A8049C1F8CF
:10093000D8228049CA6A7E49C1F8E0227E490A6B02
:100940007B49C1F8E4227C494A6B7949C1F8E82225
:1009500078490A6B7649C1F8EC2276494A6B7449AA
:10096000C1F8F0224AF65522C1F8F4227349CA6B45
:100970006F49C1F8F82271490A6C6D49C1F8FC222F
:100980006E494A6C6A49C1F800236C498A6C68490F
:10099000C1F804236949CA6C6549C1F8082367494D
:1009A0000A6D6349C1F80C2364494A6D6049C1F876
:1009B000102362498A6D5E49C1F814235F49CA6DEC
:1009C0005B49C1F818235D490A6E5949C1F81C23D7
:1009D0005B49CA6B5649C1F8202359490A6C5449EE
:1009E000C1F8242356494A6C5149C1F82823544977
:1009F0008A6C4F49C1F82C235149CA6C4C49C1F843
:100A000030234F490A6D4A49C1F834234C494A6D95
:100A10004749C1F838234A498A6D4549C1F83C2302
:100A20004749CA6D4249C1F8402345490A6E4049C9
:100A3000C1F844234AF65522C1F8482341490969BF
:100A40003B4AD16070471FB504460E203E4988706E
:100A50000020C87081200871012C0BD10120ADF855
:100A600000003A480068CDF802000020CDF80600EA
:100A7000CDF80A00022C0BD10220ADF8000033485B
:100A80004068CDF802000020CDF80600CDF80A003D
:100A9000042C0BD10420ADF800002C488068CDF860
:100AA00002000020CDF80600CDF80A00082C0BD17A
:100AB0000820ADF800002548C068CDF802000020ED
:100AC000CDF80600CDF80A0006211F4808F0CBF942
:100AD0000E21684608F0C7F91FBD2DE9F047014611
:100AE0000020844600228046194CDFF8689099F86F
:100AF0000230172B7AD010DC0B2B78D006DC032BBE
:100B00005BD0052B64D0072B72D11EE10F2B70D068
:100B1000132B6FD0152BF7D1DAE2302B6BD01BDC07
:100B2000192B69D02B2B3FD02D2BEDD17FE000006E
:100B300028600120DC0800205C070020580C002001
:100B4000D40C0020D85F0120900000205C0A002017
:100B5000105C0120D8110020322B7CD0342B7BD0AC
:100B6000382BD1D108200B804FF00109A1F8029059
:100B7000DFF8D09CD9F81090B9F1200F04D14FF0D4
:100B80000109A1F804900AE0DFF8B89CD9F81090A8
:100B9000B9F1210F03D14FF00209A1F804904FF0F1
:100BA0000009A1F8069092E204200B80DFF8989CDF
:100BB000B9F89890A1F8029089E208200B804FF0D4
:100BC0000109A1F802904FF06409C1F804907EE297
:100BD000DFF8789C99F803200C200B804A80012ACA
:100BE0000BD1DFF86C9CD9F800501AE0D4E29CE1FC
:100BF000FEE37DE1D4E103E107E3022A04D1DFF85B
:100C0000549CD9F800500CE0042A04D1DFF8409C31
:100C1000D9F8045005E0082A03D1DFF8389CD9F848
:100C200004504D604FF00009C1F808904FE2DFF822
:100C30001C9C99F8032016200B804A80012A21D1A0
:100C4000DFF80C9CB9F87090A1F80490DFF8009CD4
:100C5000D9F8809001E0F5E01FE1C1F80690DFF8D7
:100C6000F09BD9F88890C1F80A90DFF8E49BD9F896
:100C70006890C1F80E90DFF8D89BD9F86090C1F861
:100C8000129061E0022A1ED1DFF8C89BB9F870907B
:100C9000A1F80490DFF8BC9BD9F88090C1F80690C9
:100CA000DFF8B09BD9F88890C1F80A90DFF8A49BD0
:100CB000D9F86890C1F80E90DFF8989BD9F8609049
:100CC000C1F8129040E0042A1ED1DFF8849BB9F8E5
:100CD0007490A1F80490DFF8789BD9F88490C1F85B
:100CE0000690DFF86C9BD9F88C90C1F80A90DFF879
:100CF000609BD9F86C90C1F80E90DFF8549BD9F83E
:100D00006490C1F812901FE0082A1DD1DFF8449BBF
:100D1000B9F87490A1F80490DFF8389BD9F8849062
:100D2000C1F80690DFF82C9BD9F88C90C1F80A9096
:100D3000DFF8209BD9F86C90C1F80E90DFF8149B77
:100D4000D9F86490C1F8129084E3DFF8009B99F819
:100D500003200E200B804A80012A12D1DFF8F09A7E
:100D6000B9F8D490A1F80490DFF8E49AD9F8489043
:100D7000C1F80690DFF8D89AD9F83890C1F80A90EF
:100D80003DE0022A12D1DFF8CC9AB9F8D490A1F84C
:100D90000490DFF8C09AD9F84890C1F80690DFF8BF
:100DA000B49AD9F83890C1F80A9028E0042A12D1F0
:100DB000DFF89C9AB9F8D890A1F80490DFF8909ADF
:100DC000D9F84C90C1F80690DFF8849AD9F83C9095
:100DD000C1F80A9013E0082A11D1DFF8789AB9F81F
:100DE000D890A1F80490DFF86C9AD9F84C90C1F82B
:100DF0000690DFF8609AD9F83C90C1F80A9029E390
:100E0000DFF8489A99F8032012200B804A80DFF817
:100E1000489AB9F8BC91A1F80490DFF83C9AD9F847
:100E2000C091C1F806904FF00009A1F80A904FF068
:100E3000000A01F10A09A1F80CA0A1F80EA0A1F87E
:100E400010A007E3DFF8049A99F803200820012A8C
:100E500006D1DFF8FC99D9F83090C1F8049019E078
:100E6000022A06D1DFF8EC99D9F83090C1F8049045
:100E700010E0042A06D1DFF8D899D9F83490C1F8E7
:100E8000049007E0082A05D1DFF8C899D9F8349012
:100E9000C1F804900B804A80DCE2DFF8B09999F841
:100EA000032008200B804A80012A06D1DFF8A09990
:100EB000D9F82890C1F8049019E0022A06D1DFF889
:100EC0009499D9F82890C1F8049010E0042A06D12A
:100ED000DFF87C99D9F82C90C1F8049007E0082A33
:100EE00005D1DFF87099D9F82C90C1F80490B1E2DF
:100EF00010200B804FF00109A1F80290012A08D1BF
:100F0000A1F80490A1F8069032278F600A26CE60DF
:100F10000AE0022A08D19146A1F80490A1F80690AF
:100F200032278F600C26CE6094E2DFF8209999F882
:100F300003200A200B804A80012A08D1B4F88C9043
:100F4000A1F80490B4F89090A1F8069023E0022A4A
:100F50000CD1B4F89490A1F80490B4F89890A1F84A
:100F600006904FF00109A1F8089014E0042A08D176
:100F7000B4F89C90A1F80490B4F8A090A1F8069061
:100F800009E0082A07D1B4F8A490A1F80490B4F8B5
:100F9000A890A1F806904FF00109A1F8089059E235
:100FA000DFF8A89899F8032012200B804A80012AC4
:100FB00022D14FF00109A1F80290DFF8A098B9F80A
:100FC000A090A1F80490DFF89498D9F8A890C1F8FF
:100FD0000690DFF88898D9F8B090C1F80A90DFF849
:100FE0007C98B9F8B890A1F80E90DFF87098B9F82D
:100FF000C090A1F810906AE0022A21D19146A1F890
:101000000290DFF85898B9F8A490A1F80490DFF89E
:101010004C98D9F8AC90C1F80690DFF84098D9F810
:10102000B490C1F80A90DFF83498B9F8BC90A1F8F0
:101030000E90DFF82898B9F8C490A1F8109046E017
:10104000042A21D19146A1F80290DFF81098B9F84E
:10105000A890A1F80490DFF80498D9F8B090C1F8EE
:101060000690DFF8F897D9F8B890C1F80A90DFF841
:10107000EC97B9F8C090A1F80E90DFF8E097B9F8B6
:10108000C890A1F8109022E0082A20D19146A1F83A
:101090000290DFF8C897B9F8AC90A1F80490DFF897
:1010A000BC97D9F8B490C1F80690DFF8B097D9F89A
:1010B000BC90C1F80A90DFF8A497B9F8C490A1F8E1
:1010C0000E90DFF89897B9F8CC90A1F81090C1E194
:1010D000DFF8789799F803201E200B804A80012AB8
:1010E0000CD1DFF87497D9F8D091C1F80C90DFF8E3
:1010F0006897D9F8D491C1F810902BE0022A0CD14E
:10110000DFF85497D9F8D891C1F80C90DFF84897D8
:10111000D9F8DC91C1F810901CE0042A0CD1DFF85A
:101120003897D9F8E091C1F80C90DFF82C97D9F8EE
:10113000E491C1F810900DE0082A0BD1DFF8189760
:10114000D9F8E891C1F80C90DFF80C97D9F8EC9138
:10115000C1F81090B4F8209009F10109A1F80490A9
:10116000D4F87090C1F80690B4F87C90A1F80A9079
:10117000DFF8E496B9F80090A1F814904FF0000958
:10118000A1F81690CA4601F11609A1F818A0A1F815
:101190001AA0A1F81CA05DE11A200B80DFF8C09610
:1011A000B9F83890A1F80290DFF8B496B9F83C90FD
:1011B000A1F80490DFF8A896B9F81090A1F806906D
:1011C000DFF89C96B9F80890A1F80890DFF890969F
:1011D000B9F81490A1F80A90DFF88496B9F80C9049
:1011E000A1F80C904FF00009A1F80E904FF0000A02
:1011F00001F10E09A1F810A0A1F812A0A1F814A005
:10120000A1F816A0A1F818A024E1DFF8409699F8FB
:10121000032030200B804A80012A06D0022A37D0D2
:10122000042A68D0082A7DD19AE0DFF83896D9F8E8
:101230000090DFF834A6CAF80090DFF82896D9F8B5
:101240000490CAF80490DFF81C96D9F80890CAF800
:101250000890DFF81096D9F80C90CAF81090DFF8D3
:101260000496D9F81090CAF81490DFF8F895D9F8D8
:101270001490CAF81890DFF8EC95D9F81890CAF8CD
:101280000C90DFF8E095D9F81C90CAF820909BE00C
:10129000DFF8D095D9F82090DFF8CCA5CAF80090F7
:1012A000DFF8C095D9F82490CAF80490DFF8B49517
:1012B000D9F82890CAF80890DFF8A895D9F82C90AA
:1012C000CAF81090DFF89C95D9F83090CAF81490BD
:1012D000DFF89095D9F83490CAF81890DFF8849523
:1012E000D9F83890CAF80C90DFF87895D9F83C9086
:1012F000CAF8209068E0DFF86C95D9F84090DFF8E4
:1013000068A5CAF80090DFF85C95D9F84490CAF84F
:101310000490DFF85095D9F84890CAF80890DFF8A3
:10132000449500E04FE0D9F84C90CAF81090DFF8EF
:101330003495D9F85090CAF81490DFF82895D9F868
:101340005490CAF81890DFF81C95D9F85890CAF84C
:101350000C90DFF81095D9F85C90CAF8209033E033
:10136000DFF80095D9F86090DFF8FCA4CAF8009087
:10137000DFF8F094D9F86490CAF80490DFF8E494A8
:10138000D9F86890CAF80890DFF8D894D9F86C902A
:10139000CAF81090DFF8CC94D9F87090CAF814907D
:1013A000DFF8C094D9F87490CAF81890DFF8B494B4
:1013B000D9F87890CAF80C90DFF8A894D9F87C9006
:1013C000CAF8209000E000BF00BFDFF89C94D9F875
:1013D0000090C1F80490DFF89094D9F80490C1F817
:1013E0000890DFF88494D9F80890C1F80C9000E0D8
:1013F0002FE0DFF87494D9F81090C1F81090DFF85E
:101400006894D9F81490C1F81490DFF85C94D9F876
:101410001890C1F81890DFF85094D9F80C90C1F8E2
:101420001C90DFF84494D9F82090C1F820904FF038
:101430000009A1F82490CA4601F12409A1F826A0C8
:10144000A1F828A0A1F82AA0A1F82CA0A1F82EA00C
:1014500000E000BF00BFBDE8F0872DE9F047FE4D7A
:101460007435FA4CA41DA01FC0881FFA80F9B9F189
:101470002B0F5BD019DCB9F1130F7DD00ADCB9F169
:10148000050F7AD0B9F1070F78D0B9F10B0F41F001
:10149000978321E0B9F1150F71D0B9F1170F6FD013
:1014A000B9F1190FF3D101F073B9B9F1340F68D064
:1014B00009DCB9F12D0F7CD0B9F1300F7AD0B9F138
:1014C000320FE4D1E4E2B9F1360F01F0E781B9F16E
:1014D000380FDCD101F045BA6788012F06D0022F02
:1014E0000BD0042F10D0082F1CD114E0A088C5F811
:1014F0008C00E088C5F8900015E0A088C5F894003D
:10150000E088C5F898000EE0A088C5F89C00E08847
:10151000C5F8A00007E0A088C5F8A400E088C5F8D9
:10152000A80000E000BF00BF01F04BBBB4F8028090
:10153000CE48806A28B100BF00200DF060F9002875
:10154000FAD1CA48C06A28B100BF00200DF078F96E
:101550000028FAD1C548006B28B100BF01200DF06A
:101560004EF90028FAD1C148406B60B100BF01209C
:101570000DF066F9002805E031E225E13DE1C1E228
:101580002CE3A2E2F3D1B8F1070F7CD2DFE808F038
:101590000416406B98C3EE000020AB49C1F89400DC
:1015A0004FF40060B2498861401088610020A6496C
:1015B00001E0A3E1F3E1C1F8980003E10120A249B1
:1015C000C1F89400C1F89800432081F89C0068217C
:1015D0009D4880F89D10312180F89E104FF40060E6
:1015E000A3498861401088614004886100209849BF
:1015F000C1F814019749C1F814019548D0F8D400F6
:101600009549C1F8B801D1F8B8010FF04AFAD9E00C
:1016100001208D49C1F894000220C1F898004320B0
:1016200081F89C006821884880F89D10322180F85C
:101630009E104FF400608E4988614010886140041C
:10164000886100208249C1F814018249C1F814015F
:101650000846D0F8D4008049C1F8B801D1F8B801E3
:101660000FF01FFAAEE001207749C1F89400032083
:10167000C1F89800432081F89C006821724880F8E6
:101680009D10332100E09CE080F89E104FF4006034
:1016900077498861401088610004886101206C49A5
:1016A000C1F814016B49C1F814016948D0F8D80099
:1016B0006949C1F8B801D1F8B8010FF0F2F981E039
:1016C00001206149C1F894000420C1F8980043202A
:1016D00081F89C0068215C4880F89D10342180F8D6
:1016E0009E104FF4006062498861401088610004D8
:1016F000886101205649C1F814015649C1F8140106
:101700005348D0F8D8005449C1F8B801D1F8B8010D
:101710000FF0C7F956E002204B49C1F894000520AC
:10172000C1F89800312081F89C002B21464880F8B0
:101730009D10322180F89E104FF400604C49886162
:10174000401088614004886100204149C1F81401BB
:101750004049C1F814013E48D0F8D4003E49C1F8D0
:10176000B801D1F8B8010FF09CF92BE002203649FE
:10177000C1F894000620C1F89800332081F89C003D
:101780002B21314880F89D10342180F89E104FF4B1
:101790000060374988614010886100048861012039
:1017A0002B49C1F814012B49C1F814012848D0F87D
:1017B000D8002949C1F8B801D1F8B8010FF071F982
:1017C00000E000BF00BFAFE66788012F03D1002013
:1017D0001F49086010E0022F03D100201D49086056
:1017E0000AE0042F03D100201949486004E0082FC3
:1017F00002D100201749486096E666880120174903
:10180000C1F8E800012E06D0022E33D0042E47D0B6
:10181000082E70D159E0A0880D49C1F8D4000846BF
:10182000D0F8D4000C49C1F8B801D1F8B8010FF0D4
:1018300038F9D4F8060006498864D4F80A008863A9
:101840005AE00000D85F0120A45D0120D8110020DB
:101850005C070020DC0800209C5B01205C0A002063
:101860000800002094630120EC040020EC06002016
:1018700000100240A088FE49C1F8D4000846D0F804
:10188000D400FC49C1F8B801D1F8B8010FF009F94A
:10189000D4F80600F6498864D4F80A0088632BE07F
:1018A000A188F548C0F8D810D0F8D800F149C1F89F
:1018B000B801D1F8B8010FF0F4F8D4F80610EE48EA
:1018C000C164D4F80A10C16316E0A188E848C0F8E2
:1018D000D810D0F8D800E749C1F8B801D1F8B8015C
:1018E0000FF0DFF8D4F80610E148C164D4F80A100C
:1018F000C16301E0FFE700BF00BF15E66688012E67
:1019000006D0022E15D0042E24D0082E44D132E069
:10191000A41D34F8020CD84908672068C1F880007B
:101920006068C1F88800A0688866E068A41F08663F
:1019300033E0A41D34F8020CCD4908672068C1F8D3
:1019400080006068C1F88800A0688866E068A41F0D
:10195000086622E0A41D34F8021CC74841672168CC
:10196000C0F884106168C0F88C10A168C166E16895
:10197000A41F416611E0A41D34F8021CBC48416755
:101980002168C0F884106168C0F88C10A168C16635
:10199000E168A41F416600E000BF00BFC4E566889F
:1019A000A088B449C1F8BC01D4F80600C1F8C00150
:1019B0000846D0F8BC0110B90EF0EEFE0EE0AD48BE
:1019C000D0F8BC01012802D10EF0E6FE06E0A948DD
:1019D000D0F8BC01022801D113F0F1FAA4E5668821
:1019E000012E06D0022E17D0042E28D0082E4CD15E
:1019F00038E0A088A049C1F8A000D4F80600C1F8DA
:101A0000A800D4F80A00C1F8B000E089C1F8B80015
:101A1000208AC1F8C00039E0A0889549C1F8A0002B
:101A2000D4F80600C1F8A800D4F80A00C1F8B00044
:101A3000E089C1F8B800208AC1F8C00026E0A1887A
:101A40008D48C0F8A410D4F80610C0F8AC10D4F833
:101A50000A10C0F8B410E189C0F8BC10218AC0F89F
:101A6000C41013E0A1888248C0F8A410D4F806106E
:101A7000C0F8AC10D4F80A10C0F8B410E189C0F86E
:101A8000BC10218AC0F8C41000E000BF00BF4BE5C5
:101A90006688012E06D0022E08D0042E0AD0082E09
:101AA00010D10BE06068744908630CE0606870490D
:101AB000086308E061687048416304E061686C484D
:101AC000416300E000BF00BF2EE56688012E06D00E
:101AD000022E08D0042E0AD0082E10D10BE0606828
:101AE000654988620CE060686149886208E0616865
:101AF0006148C16204E061685D48C16200E000BF06
:101B000000BF11E56788012F07D1E1685948C0F887
:101B1000D0112169C0F8D4111CE0022F07D1E1686F
:101B20005448C0F8D8112169C0F8DC1112E0042F24
:101B300007D1E1684F48C0F8E0112169C0F8E4110D
:101B400008E0082F06D1E1684A48C0F8E811216989
:101B5000C0F8EC11A088401E2862D4F8060028675F
:101B60006089E867A08A4349086008680EF062FE51
:101B70004FF47A71286F91FBF0F03F49C1F8D00023
:101B80004FF47A71286F91FBF0F03949C1F8D00019
:101B90003948D0F8D000B0F57A7F08DD4FF47A707C
:101BA0003549C1F8D0003249C1F8D0000BE03248C5
:101BB000D0F8D000012806DA01202F49C1F8D00062
:101BC0002B49C1F8D000286F0CF03BFA2B498862F2
:101BD000286F0CF036FA2A498862A5E46088294902
:101BE0008863A088C863E08808612089886060896C
:101BF0004861A089C860084600690D2807D00846DA
:101C000000690E2803D0084600690F2812D11D482C
:101C1000806B1C490864084640690D2807D00846B7
:101C200040690E2803D0084640690F2802D10020E1
:101C300014494861134840690D2807D0114840698C
:101C40000E2803D00F4840690F281FD10D48C06BE4
:101C50000C490864084600690D2807D00846006949
:101C60000E2803D0084600690F280FD100200BE092
:101C7000DC0800209C5B01205C070020580C002041
:101C8000D40C002008000020FB490861FA480069D4
:101C9000132870D2DFE800F00A162740596F6F6FE3
:101CA0006F6F708099B2FEFDFCFBFA00012006F018
:101CB00010FF0020F1494862F14808600020EE4919
:101CC0000863A4E2012006F004FFEB4880680128C5
:101CD00002D1EA49086102E00020E8490861E948C8
:101CE000E649086093E2012006F0F3FE0220E24993
:101CF00088610020086208468068012802D1DF4917
:101D0000086102E00220DD490861DF48DB49086024
:101D10000020D94908637AE2012006F0DAFE0420A7
:101D2000D54988610020086208468068012802D1F0
:101D3000D249086102E00220D0490861D348CF4966
:101D400008600020CC49086361E2012006F0C1FE72
:101D50000820C94988610020086208468068012877
:101D600002D1C649086102E00220C4490861C8489E
:101D7000C24908604BE249E2022006F0AAFEC548CB
:101D8000BE498860BC488068012801D1086102E032
:101D90000020BA4908613AE2022006F09AFE0120CA
:101DA000B64948622020B44908620020886108468C
:101DB0008068012802D1B149486102E00220AF49A0
:101DC0004861B548AD49886021E2022006F081FEF5
:101DD0000120AA4948628020A74908620020886142
:101DE00008468068012802D1A449486102E0022027
:101DF000A2494861A948A149886008E2A848D0F8EA
:101E00009800012818D1A7480068A7490860A5488C
:101E100040684860A34880688860A248C06808613C
:101E2000A048006948619F48406988619D48806971
:101E3000C8609C48C06908629948D0F89800022898
:101E400018D19848006A984908609648406A4860E6
:101E50009448806A88609348C06A08619148006B22
:101E600048619048406B88618E48806BC8608D489F
:101E7000C06B08628A48D0F8980003281ED18948B0
:101E8000006C894908608748406C04E0B7E1AFE125
:101E9000A7E10FE14FE048608248806C886081488C
:101EA000C06C08617F48006D48617E48406D886164
:101EB0007C48806DC8607B48C06D08627848D0F867
:101EC0009800042818D17748006E77490860754853
:101ED000406E48607348806E88607248C06E0861CA
:101EE0007048006F48616F48406F88616D48806F2F
:101EF000C8606C48C06F0862022006F0EAFD5E48C8
:101F0000806B5D49086408468068012805D16748F0
:101F1000654988620120486204E065486249886238
:101F200000204862604813F0E8F913F018F9012026
:101F30005D49C8626BE15A48D0F89800012818D171
:101F400058480068584908605648406848605548F5
:101F5000806888605348C0680861524800694861D9
:101F60005048406988614F488069C8604D48C069E1
:101F700008624B48D0F89800022818D14948006AF6
:101F8000494908604748406A48604648806A886016
:101F90004448C06A08614348006B48614148406B4F
:101FA00088614048806BC8603E48C06B08623C480E
:101FB000D0F89800032818D13A48006C3A490860D4
:101FC0003848406C48603748806C88603548C06C41
:101FD00008613448006D48613248406D886131487D
:101FE000806DC8602F48C06D08622D48D0F89800F9
:101FF000042818D12B48006E2B4908602948406EF0
:1020000048602848806E88602648C06E0861254870
:10201000006F48612348406F88612248806FC86024
:102020002048C06F0862022006F053FD1248806B02
:10203000114908641C4800691B490860084640694A
:10204000404248600846806988600B4880680128E3
:1020500004D1164888620120486204E014481249FD
:10206000886200204862104813F047F913F077F8AF
:1020700001200D49C862CAE00800002024050020A4
:10208000A53601080D370108753701084B3B0108DB
:1020900029410108CD3601081942010863440108AD
:1020A000A45D012094630120EC040020414F01084D
:1020B000514F0108F948D0F89800012818D1F84884
:1020C0000068F8490860F64840684860F44880684D
:1020D0008860F348C0680861F14800694861F048C9
:1020E00040698861EE488069C860ED48C06908624F
:1020F000EA48D0F89800022818D1E948006AE9496E
:102100000860E748406A4860E548806A8860E448BB
:10211000C06A0861E248006B4861E148406B886131
:10212000DF48806BC860DE48C06B0862DB48D0F8CF
:102130009800032818D1DA48006CDA490860D848BA
:10214000406C4860D648806C8860D548C06C086197
:10215000D348006D4861D248406D8861D048806D99
:10216000C860CF48C06D0862CC48D0F898000428F9
:1021700018D1CB48006ECB490860C948406E486012
:10218000C748806E8860C648C06E0861C448006F4A
:102190004861C348406F8861C148806FC860C048CB
:1021A000C06F0862022006F094FCBF48806BBE49F5
:1021B000086408468068012805D1BC48B94988628E
:1021C0000120486204E0BA48B649886200204862AB
:1021D000B44813F092F812F0C2FF0120B149C8626E
:1021E00015E0022006F075FCB248B34988600EE0A5
:1021F000022006F06EFCB148AF49886007E002207B
:1022000006F067FCAE48AC49886000E000BF00BF44
:10221000A548406913286FD2DFE800F00A15263F71
:10222000586E6E6E6E6E6F7F98B1FEFDFCFBFA000D
:10223000012006F023FCA3489F49486000208862E3
:1022400099494863A2E2012006F018FC9648C0684C
:10225000012802D19849886102E0002096498861EE
:1022600099489549486091E2012006F007FC022058
:102270008D49C861002048620846C068012802D123
:102280008D49886102E002208B4988618F488A4924
:10229000486000208449486378E2012006F0EEFBA4
:1022A00004208149C861002048620846C0680128AE
:1022B00002D18149886102E002207F498861844817
:1022C0007D4948600020784948635FE2012006F0BC
:1022D000D5FB08207449C861002048620846C068E0
:1022E000012802D17449886102E0022072498861A4
:1022F00078487149486049E247E2022006F0BEFB97
:1023000075486D49C8606848C068012801D1886176
:1023100002E000206849886138E2022006F0AEFB46
:1023200001206549886220205F4948620020C86119
:102330000846C068012802D15F49C86102E0022056
:102340005D49C86165485C49C8601FE2022006F02B
:1023500095FB01205849886280205349486200203B
:10236000C8610846C068012802D15349C86102E02B
:1023700002205149C8615A484F49C86006E247489F
:10238000D0F89800012818D14548006845490860F0
:102390004348406848604248806888604048C06858
:1023A00008613F48006948613D48406988613C4890
:1023B0008069C8603A48C06908623848D0F8980017
:1023C000022818D13648006A364908603448406A05
:1023D00048603348806A88603148C06A0861304884
:1023E000006B48612E48406B88612D48806BC86047
:1023F0002B48C06B08622948D0F8980003281ED1EA
:102400002748006C274908602548406C486004E074
:10241000B4E1ACE1A4E10CE174E02148806C886097
:102420001F48C06C08611E48006D48611C48406D23
:1024300088611B48806DC8601948C06D08621748E4
:10244000D0F89800042818D11548006E1549086086
:102450001348406E48601248806E88601048C06E15
:1024600008610F48006F48610D48406F88610C4853
:10247000806FC8600A48C06F0862022006F0FEFA4A
:102480000948C06B084908640846C06801282BD178
:10249000144804498862012048622AE0A45D0120B2
:1024A00094630120EC04002008000020414F010843
:1024B000514F01083F4D0108240500202D4C010813
:1024C000A14A0108A53601082F370108553901082E
:1024D000273E0108A1410108EF36010833430108F6
:1024E0006F450108614F0108F948FA4988620020E8
:1024F0004862F84812F001FF12F031FE0120F54960
:10250000C86243E1F448D0F89800012818D1F34894
:102510000068F0490860F14840684860EF4880680A
:102520008860EE48C0680861EC4800694861EB4883
:1025300040698861E9488069C860E848C069086204
:10254000E548D0F89800022818D1E448006AE1492B
:102550000860E248406A4860E048806A8860DF4876
:10256000C06A0861DD48006B4861DC48406B8861E7
:10257000DA48806BC860D948C06B0862D648D0F88A
:102580009800032818D1D548006CD2490860D34878
:10259000406C4860D148806C8860D048C06C08614D
:1025A000CE48006D4861CD48406D8861CB48806D54
:1025B000C860CA48C06D0862C748D0F898000428AF
:1025C00018D1C648006EC3490860C448406E4860D0
:1025D000C248806E8860C148C06E0861BF48006F05
:1025E0004861BE48406F8861BC48806FC860BB4886
:1025F000C06F0862022006F041FAB948C06BB849C2
:1026000008640846C068012805D1B648B149886207
:102610000120486204E0AE48AE498862002048626A
:10262000AC4812F06AFE12F09AFD0120A949C86276
:10263000ACE0A948D0F89800012818D1A748006854
:10264000A4490860A54840684860A448806888603C
:10265000A248C0680861A148006948619F48406974
:1026600088619E488069C8609C48C06908629A4831
:10267000D0F89800022818D19848006A9549086057
:102680009648406A48609548806A88609348C06A66
:1026900008619248006B48619048406B88618F48A0
:1026A000806BC8608D48C06B08628B48D0F898007A
:1026B000032818D18948006C864908608748406C17
:1026C00048608648806C88608448C06C0861834894
:1026D000006D48618148406D88618048806DC860A8
:1026E0007E48C06D08627C48D0F89800042818D154
:1026F0007A48006E774908607848406E48607748AD
:10270000806E88607548C06E08617448006F4861CB
:102710007248406F88617148806FC8606F48C06FB1
:102720000862022006F0AAF96D48C06B6C49086483
:102730000846C068012805D16A48664988620120B8
:10274000486204E062486349886200204862614848
:1027500012F0D3FD12F003FD01205E49C86215E0BE
:10276000022006F08BF960486049C8600EE0022044
:1027700006F084F95E485D49C86007E0022006F073
:102780007DF95C485949C86000E000BF00BF18E20D
:10279000606850490860A0684860E0688860206907
:1027A000086160694861A0698861E069C860206A61
:1027B00008626088012806D002281ED0042836D07E
:1027C000082868D14DE04348006844490860414802
:1027D000406848603F48806888603E480069C8603B
:1027E0003C48406908613B48806948613948C06895
:1027F00088613848006AC8614EE036480068374949
:1028000008623448406848623248806888623148CB
:102810000069C8622F48406908632E488069486390
:102820002C48C06888632B48006AC86334E0294894
:1028300000682A4908642748406848642548806839
:10284000886424480069C8642248406908652148B2
:10285000806948651F48C06888651E48006AC86569
:102860001AE01C4800681D4908661A484068486616
:1028700018488068886617480069C8661548406926
:1028800008671448806948671248C068886711481B
:10289000006AC86700E000BF00BF92E12688012EF1
:1028A00006D0022E2AD0042E38D0082E56D145E06C
:1028B00054F8020F1049086060684860A06888609A
:1028C000E068C860208AA41E48610020086146E0D4
:1028D000714F0108EC040020A45D012094630120E5
:1028E00008000020614F01088F49010824050020DD
:1028F0007D4801080B470108500D002054F8020FD5
:10290000FB49086060684860A0688860E068C8604B
:10291000208AA41E48610020086120E054F8020FBC
:10292000F449086060684860A0688860E068C86032
:10293000208AA41E48610020086110E054F8020FAC
:10294000ED49086060684860A0688860E068C86019
:10295000208AA41E48610020086100E000BF00BF7B
:102960002FE1A088012802D12020E4490861A08835
:10297000022802D12120E1490861E04800692028AD
:102980007ED10520DE49C8630A2008640F20486410
:102990000A2088640520C864086548654620886563
:1029A0003C20C865142008660520D649C8630A2063
:1029B00008640F2048640A2088640520C8640865FC
:1029C0004865462088653C20C86514200866CC48C8
:1029D000C16BCD48C0F8F812C948016CCA48C0F8AC
:1029E000FC12C748416CC848C0F80013C448816C49
:1029F000C548C0F80413C248C16CC348C0F80813E6
:102A0000BF48016DC048C0F80C13BD48416DBE48B9
:102A1000C0F81013BA48816DBB48C0F81413B84809
:102A2000C16DB948C0F81813B548016EB648C0F872
:102A30001C13B448C16BB448C0F82013B148016CF2
:102A4000B148C0F82413AF48416CAF48C0F8281310
:102A5000AC48816CAC48C0F82C13AA48C16CAA4899
:102A6000C0F83013A748016DA748C0F83413A54833
:102A7000416DA548C0F83813A248816DA24800E016
:102A80000FE0C0F83C139F48C16D9F48C0F8401349
:102A90009C48016E9C48C0F844134AF65521C0F882
:102AA00048139648006921287DD105209449C863C0
:102AB0000720086448640A2088643220C8640F2014
:102AC000086548658865C865086605208D49C8633E
:102AD0000720086448640A2088643220C8640F20F4
:102AE000086548658865C86508668548C16B86487D
:102AF000C0F8F8128248016C8348C0F8FC12804884
:102B0000416C8148C0F800137D48816C7E48C0F854
:102B100004137B48C16C7C48C0F808137848016DE9
:102B20007948C0F80C137648416D7748C0F8101307
:102B30007348816D7448C0F814137148C16D7248B0
:102B4000C0F818136E48016E6F48C0F81C136D482A
:102B5000C16B6D48C0F820136A48016C6A48C0F820
:102B600024136848416C6848C0F828136548816C94
:102B70006548C0F82C136348C16C6348C0F8301333
:102B80006048016D6048C0F834135E48416D5E488E
:102B9000C0F838135B48816D5B48C0F83C13594856
:102BA000C16D594800E00AE0C0F840135548016E75
:102BB0005548C0F844134AF65521C0F8481300E0C0
:102BC00000BF00BFBDE8F08710B5034600204F49A5
:102BD0004F4A00BF012B06D0022B3ED0042B78D0E9
:102BE000082B75D1C3E08C6A012C04D091F84C40BD
:102BF00004F0010464B1454CA46B012C02D140F0F7
:102C0000100005E0414CA46B022C01D140F02000E3
:102C10008C6A022C0CD13D4CA46B012C02D140F0EB
:102C2000400005E0394CA46B022C01D140F080003B
:102C3000384CA46B012C05D1D2F8C440012C01D131
:102C400040F48010334CE46B012C05D1D2F8C8401D
:102C5000012C01D140F40010C4E0CC6A012C04D056
:102C600091F84C4004F0010464B1284CE46B012C51
:102C700002D140F0100005E0244CE46B022C01D19D
:102C800040F02000CC6A022C0CD1204CE46B012CCB
:102C900002D140F0400005E01C4CE46B022C01D155
:102CA00040F080001B4CA46B022C05D1D2F8C4402C
:102CB000012C01D140F48010164CE46B022C05D19C
:102CC000D2F8C840012C01D140F400108AE000E0A5
:102CD00087E00C6B012C04D091F84C4004F0010407
:102CE00004B30A4C246C012C16D140F0100019E0FA
:102CF000680D0020800D0020980D0020D85F012075
:102D0000580C0020D40C002028600120EC06002084
:102D1000105C012008000020FA4C246C022C01D128
:102D200040F020000C6B022C0CD1F64C246C012CD2
:102D300002D140F0400005E0F24C246C022C01D19D
:102D400040F08000F04CA46B042C05D1D2F8C440B4
:102D5000012C01D140F48010EB4CE46B042C05D124
:102D6000D2F8C840012C01D140F400103AE04C6B7D
:102D7000012C04D091F84C4004F0010464B1E14C02
:102D8000646C012C02D140F0100005E0DD4C646C55
:102D9000022C01D140F020004C6B022C0CD1D94CFC
:102DA000646C012C02D140F0400005E0D54C646C0D
:102DB000022C01D140F08000D34CA46B082C05D12B
:102DC000D2F8C440012C01D140F48010CE4CE46B09
:102DD000082C05D1D2F8C840012C01D140F40010D4
:102DE00000E000BF00BF10BD30B58FB00446C54D38
:102DF0005020C64948710C70200A487038208870ED
:102E00000020C8708120087140F24440844204D1FF
:102E10000020C8700120887008710120ADF80400FE
:102E2000BB480068CDF806000020CDF80A0001205C
:102E3000FFF7CAFECDF80E000220ADF81200B5482B
:102E400000680590002006900220FFF7BDFE079065
:102E50000420ADF82000AE484068CDF822000020E4
:102E6000CDF826000420FFF7AFFECDF82A00082099
:102E7000ADF82E00A74840680C9000200D90082067
:102E8000FFF7A2FE0E900621A04805F0ECFF40F2ED
:102E90004440844203D0382101A805F0E4FF0FB07C
:102EA00030BD2DE9F04F2DED048BABB000200B9021
:102EB0009FED990AB0EE409A0A909FED980AF0EEC5
:102EC000409ADFF85CB28F4808909648099096487F
:102ED000008880B2129014A81390851D924CA41DF6
:102EE00000211398C170012113980171502113988A
:102EF000417100201190109040F223521298811AD3
:102F000090427DD031DC40F21322A0EB02019042CE
:102F100077D014DC122875D007DC022873D005287E
:102F200059D0112842F02687B2E0142801F0858696
:102F3000152802F0C886B0F5047FF3D11AE140F2FB
:102F40007F22881A914275D008DC102973D0A1F233
:102F50003221002970D00B29E4D1FDE36E286CD01A
:102F60008E286BD08F28DDD1F7E3B1F56C7F00F0B0
:102F7000548719DC40F26312A1EB020091427CD02D
:102F800006DC01297AD0032979D00429CAD1FDE3CE
:102F9000A0F23A20002801F0B084012801F0B284A8
:102FA0001028BFD101F0C5BC40F2B632881A914258
:102FB00001F0B9810ADCA1F2B131002974D00129F4
:102FC00001F0A3800329ADD100F0D2BE07286CD058
:102FD0000928A7D185E00621139801805421139870
:102FE00081701398007940F0800113980171542288
:102FF0004E49284615F082FE4D480068286003E0DF
:1030000005E1CBE052E070E04AA0007885F842008C
:1030100048A041784320415546A0C17844204155FD
:1030200044A001794520415545A00079202806D1CA
:10303000302006E054E023E0FEE3E7E090E340A028
:103040000079462148553EA04179472041553CA092
:103050000178482041553AA041784920415538A08F
:1030600081784A20415500214B2041550120119083
:1030700002203649086002F07DBE24E040E3FDE313
:1030800001203349C1F898000020C1F89C00F2E704
:103090000898406A20F4806000F5806008994862D2
:1030A000002108984165E6E7E9E353E00898406AA3
:1030B00020F48061089841620898406A20F4006119
:1030C00008984162D7E70AF042FCFDF78DF901202C
:1030D00005F0FDFD07F02BFF022005F0F8FDCAE723
:1030E00000BF002108984165C5E704201749086022
:1030F000002011900898406A20F40061089841620D
:10310000B9E70000EC060020080000205400002071
:103110005C070020DC0800200000803D000000006B
:10312000105C012074630120D81100207804002075
:103130002860012031303A31353A34340000000043
:10314000466562202034203230323000C45F0120D6
:10315000100600200898406A20F4006000F5006026
:103160000899486240F6E100FFF73EFE002108980A
:10317000416580E7FE4880780E900E98012806D0C1
:10318000022805D0042804D0082804D102E003E076
:1031900002E001E000E000BF00BF6CE7F448807887
:1031A0000E900E9800F0010050B1F248806801289E
:1031B00002D1CBF8CC000EE00020CBF8CC000AE026
:1031C000EC488068012803D10020CBF8CC0002E055
:1031D0000120CBF8CC000E9800F0020050B1E54879
:1031E000C068012802D1CBF8D0000EE00020CBF857
:1031F000D0000AE0DF48C068012803D10020CBF8E6
:10320000D00002E00120CBF8D00034E733E760893A
:10321000D8498863A089C86360880861E0884861EC
:10322000A08888602089C8600846006913287DD27C
:10323000DFE800F00A161D364F7C7C7C7C7C656CD8
:1032400087A0BDE4F3F2F100012005F042FC00206C
:10325000C9494862C94808600020C649086301E1BD
:10326000012005F036FCC648C3490860FAE0012099
:1032700005F02FFC0220BF49886100200862084643
:103280008068012802D1BC49086102E00220BA49E5
:103290000861BC48B84908600020B6490863E1E00D
:1032A000012005F016FC0420B24988610020086264
:1032B00008468068012802D1AF49086102E0022077
:1032C000AD490861B048AC4908600020A9490863CD
:1032D000C8E0012005F0FDFB0820A6498861002018
:1032E000086208468068012802D1A349086102E00B
:1032F0000220A1490861A5489F490860B2E0022068
:1033000005F0E7FBA2489C498860ABE0022005F08D
:10331000E0FB01209849486220209649086200207D
:10332000886108468068012804D100E099E092494C
:10333000486102E002209049486196488E498860C1
:1033400090E0022005F0C5FB01208B4948628020F7
:10335000884908620020886108468068012802D1F7
:103360008549486102E00220834948618A488249D0
:10337000886077E0022005F0ACFB7E488068012879
:1033800005D18648864988620120486204E0854864
:103390008349886200204862814811F0AEFF11F035
:1033A000DEFE00207E4908620120C8625AE0022049
:1033B00005F08FFB7A480069794908600846406942
:1033C000404248600846806988606A4880680128F1
:1033D00004D1724888620120486204E07148704953
:1033E0008862002048626E4811F087FF11F0B7FE36
:1033F00000206B4908620120C86233E0022005F01A
:1034000068FB5C488068012808D164486449886288
:103410000120486207E01DE015E00DE061486049C9
:103420008862002048625E4811F067FF11F097FE45
:1034300001205B49C86215E0022005F04AFB5A48AA
:103440004D4988600EE0022005F043FB57484A4989
:10345000886007E0022005F03CFB5548464988603B
:1034600000E000BF00BF4348406913287ED2DFE878
:1034700000F00A151C354E7D7D7D7D7D646BB2CBE1
:10348000E8FEFDFCFB00012005F0F8FA3B483A4954
:10349000486000208862374948632FE1012005F029
:1034A000EDFA44483449486028E1012005F0E6FA85
:1034B00002203049C861002048620846C0680128DF
:1034C00002D12D49886102E002202B4988613A48E7
:1034D000294948600020274948630FE1012005F091
:1034E000CDFA04202349C861002048620846C0681C
:1034F000012802D12049886102E002201E4988612A
:103500002E481D49486000201A494863F6E0012012
:1035100005F0B4FA08201749C8610020486208463F
:10352000C068012802D11449886102E002201249D2
:103530008861234810494860E0E0022005F09EFAC7
:1035400020480D49C860D9E0022005F097FA012013
:10355000094988622020074948620020C86108465E
:10356000C068012830D10449C86130E0C5E00000DE
:10357000D81100200800002024050020A5360108ED
:103580000D370108753701084B3B01082941010837
:10359000CD3601081942010863440108414F010872
:1035A000EC040020514F01083F4D01082D4C01084B
:1035B000A14A01082F37010855390108273E0108A3
:1035C000A1410108EF3601080220FB49C861FB4810
:1035D000F949C86092E0022005F050FA0120F6494E
:1035E00088628020F64948620020C8610846C068A9
:1035F000012802D1F049C86102E00220EE49C86109
:10360000F048ED49C86079E0022005F037FAEC484F
:10361000C068012805D1EC48EC4988620120486265
:1036200004E0EB48E949886200204862E74811F06D
:1036300064FE11F094FD0020E44908620120C86294
:103640005CE0022005F01AFAE0480069DF490860F2
:103650000846406940424860084680698860D8480A
:10366000C068012809D103E040E038E030E014E010
:10367000D54888620120486204E0D548D349886271
:1036800000204862D14811F038FE11F068FD00209A
:10369000CE4908620120C86230E0022005F0EEF950
:1036A000C748C068012805D1C748C84988620120B9
:1036B000486204E0C648C549886200204862C348A1
:1036C00011F01BFE11F04BFD0120C049C86215E04E
:1036D000022005F0D3F9BF48B749C8600EE00220C8
:1036E00005F0CCF9BC48B449C86007E0022005F0F9
:1036F000C5F9BA48B049C86000E000BF00BFBAE4ED
:1037000040F2255113980160162113988170139887
:10371000007940F0800113980171A948008F28803A
:10372000A748008F6881A648808FA881A448008A96
:103730006880A348808AE880A1480089A880A048C2
:10374000808928810020E881002105F10E0029826E
:103750006982A982012001E00AE14EE011908AE429
:103760009F4880780E906088401ECBF820006068EB
:10377000CBF86C00A068CBF87400A089CBF87C0073
:103780000E9801280AD1D4F80E1000E0ACE095485C
:10379000C0F8D011D4F81210C0F8D4110E98022835
:1037A00008D1D4F80E108F48C0F8D811D4F81210F0
:1037B000C0F8DC110E98042808D1D4F80E108948FE
:1037C000C0F8E011D4F81210C0F8E4110E980128E6
:1037D00008D1D4F80E108348C0F8E811D4F81210BC
:1037E000C0F8EC117F21DBF86C0090FBF1F07E4912
:1037F0000867E08A7B4908603DE440F22251139853
:1038000001602421139881701398007940F08001A1
:1038100013980171724880780E900E982880BBF83A
:103820002000401E6880DBF86C006860DBF87400E4
:10383000A860BBF87C0000E092E0A881694800889D
:10384000E8820E98012809D16648D0F8D001C5F861
:103850000E006448D0F8D401C5F80E000E98022876
:1038600009D16048D0F8D801C5F80E005D48D0F8FD
:10387000DC01C5F80E000E98042801E01EE07FE090
:1038800009D15848D0F8E001C5F80E005548D0F8E5
:10389000E401C5F80E000E98082809D15148D0F867
:1038A000D801C5F80E004F48D0F8D801C5F80E0071
:1038B0000020688328830120119010E454F8020F3F
:1038C0004249086060684860A0688860A069C86074
:1038D000E06808612069486160698861A069C86121
:1038E000E069A41E08620BE44FF4A561139801601F
:1038F0002E21139881701398007940F0800113985D
:1039000001710120AD1C25F8020C304800682860C8
:103910002E48406868602D488068A8602B48C068C1
:10392000A8612A48006AE8612848006944F80E0F37
:1039300026484069606025488069A0602348C069C6
:10394000A0600E3C00202884AD1E002105F122005D
:10395000A984E98429856985A9850120119008E455
:103960002688D4F802000C9020490C98086014E4D2
:103970002688D4F802000C901C490C9848600CE48E
:103980001B48D0F87401082804D01A48D0F87401F4
:10399000082806D100201649C1F874011549C1F85C
:1039A00074012688D4F802000C901348D0F89800CF
:1039B00007287DD222E000002405002033430108BF
:1039C000080000206F450108614F0108EC04002049
:1039D000714F01088F4901087D4801080B47010814
:1039E000D81100209C5B0120100600200000002060
:1039F0005C070020DC080020A45D0120DFE800F067
:103A00000405396FA3D7FE00AEE1FE48806A28B1F5
:103A100000BF00200AF0F3FE0028FAD106F00100F2
:103A200010B30020F849C1F814010C9888600846CA
:103A300080680968401AF449C1F8EC0001210020AF
:103A40000AF0DEFC8146B9F5807F03D10020ED4904
:103A500088620DE00120EB498862EB48D0F8EC0069
:103A6000002802DD0120886302E00220E549886326
:103A70007AE1E448C06A28B100BF00200AF0E0FE05
:103A80000028FAD106F0020020B30020DF49C1F877
:103A900014010C988860084680680968401ADB4960
:103AA000C1F8EC00012100200AF035FB814600E05E
:103AB00059E1B9F5807F03D10021D248C1620DE000
:103AC0000121D048C162D148D0F8EC00002802DDC5
:103AD000CC48C16302E00221CA48C16344E1C9483D
:103AE000006B28B100BF01200AF089FE0028FAD13E
:103AF00006F0040010B30120C349C1F814010C986A
:103B0000C8600846C0684968411ABF48C0F8F0104C
:103B1000012108460AF074FC8146B9F5807F03D183
:103B20000021B84801630DE00121B6480163B648A1
:103B3000D0F8F000002802DDB248016402E0022162
:103B4000B048016410E1AF48406B28B100BF0020CD
:103B50000AF076FE0028FAD106F0080010B3012022
:103B6000AA49C1F814010C98C8600846C0684968A1
:103B7000411AA648C0F8F010012108460AF0CBFA15
:103B80008146B9F5807F03D100219E4841630DE055
:103B900001219C4841639D48D0F8F000002802DDD7
:103BA0009848416402E0022196484164DCE095486F
:103BB000806A40B106F0010028B100BF00200AF081
:103BC0001EFE0028FAD18F48C06A40B106F00200FC
:103BD00028B100BF00200AF033FE0028FAD106F019
:103BE000010020B300208849C1F814010C988860B6
:103BF000084680680968401A834900E046E0C1F839
:103C0000EC00012100200AF0FBFB8146B9F5807F22
:103C100003D100207B4988620DE001207949886248
:103C20007948D0F8EC00002802DD0120886302E02A
:103C300002207449886306F0020010B30020734923
:103C4000C1F814010C988860084680680968401A19
:103C50006E49C1F8EC00012100200AF05CFA8146AF
:103C6000B9F5807F03D100216648C1620DE00121D2
:103C70006448C1626548D0F8EC00002802DD614864
:103C8000C16302E002215F48C1636DE05D48006BE3
:103C900040B106F0040028B100BF01200AF0AFFDDA
:103CA0000028FAD15748406B40B106F0080028B10F
:103CB00000BF01200AF0C4FD0028FAD106F004007C
:103CC00010B301205049C1F814010C98C86008468F
:103CD000C0684968411A4C48C0F8F01001210846F4
:103CE0000AF08EFB8146B9F5807F03D1002145485B
:103CF00001630DE00121434801634348D0F8F0001F
:103D0000002802DD3F48016402E002213D480164D1
:103D100006F0080010B301203C49C1F814010C98CA
:103D2000C8600846C0684968411A3848C0F8F010B1
:103D3000012108460AF0EFF98146B9F5807F03D1E9
:103D40000021304841630DE001212E4841632F4896
:103D5000D0F8F000002802DD2A48416402E0022188
:103D60002848416400E000BF00BF00201190C6E475
:103D70002748867806F0010070B1002022490864C7
:103D80002048806A28B100BF00200AF038FD0028D2
:103D9000FAD10120FCF757FE06F0020070B10020B6
:103DA0001A4908641748C06A28B100BF00200AF009
:103DB00047FD0028FAD10220FCF745FE06F004007A
:103DC00070B10021104841640E48006B28B100BF5B
:103DD00001200AF014FD0028FAD10420FCF733FE7C
:103DE00006F00800C0B10021084841640548406B56
:103DF00028B100BF01200AF023FD0028FAD10820D5
:103E000008E00000EC0600205C070020DC08002031
:103E1000D8110020FCF717FE71E42688D4F80200C0
:103E20000C90F748D0F89800072878D2DFE800F027
:103E30000405305B87B1FD0063E1F248806A28B178
:103E400000BF00200AF0DBFC0028FAD106F00100D8
:103E5000E8B1ED490C98C1F8EC00012100200AF00E
:103E6000CFFA8146B9F5807F03D10020E549886209
:103E70000DE00120E3498862E348D0F8EC00002817
:103E800002DD0120886302E00220DE49886338E118
:103E9000DC48C06A28B100BF00200AF0D1FC00282D
:103EA000FAD106F00200E8B1D8490C98C1F8EC004C
:103EB000012100200AF02FF98146B9F5807F03D156
:103EC0000021D048C1620DE00121CE48C162CF4837
:103ED000D0F8EC00002802DDCA48C16302E00221EC
:103EE000C848C1630DE1C748006B28B100BF01207D
:103EF0000AF085FC0028FAD106F00400F0B1C249AE
:103F00000C98C1F8F000012108460AF079FA8146C0
:103F1000B9F5807F04D10021BA4801630EE0EFE0DB
:103F20000121B8480163B848D0F8F000002802DD4C
:103F3000B448016402E00221B2480164E1E0B14802
:103F4000406B28B100BF00200AF07AFC0028FAD1AB
:103F500006F00800E0B1AD490C98C1F8F00001216D
:103F600008460AF0D8F8B9F5807F03D10021A548AA
:103F700041630DE00121A3484163A448D0F8F0005B
:103F8000002802DD9F48416402E002219D4841640F
:103F9000B7E09C48806A40B106F0010028B100BF3C
:103FA00000200AF02CFC0028FAD19648C06A40B1E3
:103FB00006F0020028B100BF00200AF041FC0028F2
:103FC000FAD106F00100E8B18F490C98C1F8EC0075
:103FD000012100200AF014FA8146B9F5807F03D14F
:103FE0000020884988620DE0012086498862864861
:103FF000D0F8EC00002802DD0120886302E00220F6
:104000008049886306F00200F0B180490C98C1F83D
:10401000EC00012100200AF07EF88146B9F5807F8E
:1040200004D100217748C1620EE00EE001217548FD
:10403000C1627648D0F8EC00002802DD7148C16307
:1040400002E002216F48C1635BE06E48006B40B143
:1040500006F0040028B100BF01200AF0D0FB0028C0
:10406000FAD16848406B40B106F0080028B100BFA3
:1040700001200AF0E5FB0028FAD106F00400E8B1BF
:1040800061490C98C1F8F000012108460AF0B8F91E
:104090008146B9F5807F03D100215A4801630DE0C4
:1040A0000121584801635848D0F8F000002802DD8B
:1040B0005448016402E002215248016406F00800FD
:1040C000E8B152490C98C1F8F000012108460AF005
:1040D00022F88146B9F5807F03D100214948416328
:1040E0000DE00121474841634848D0F8F00000281E
:1040F00002DD4448416402E002214248416400E09C
:1041000000BF00BF0020119029E44148C77886789D
:104110003B48D0F89800072871D2DFE800F004058A
:1041200023415F89C400FAE006F00100C8B1012F05
:104130000BD138483449C1F8EC00012100200AF0C5
:104140005FF901202F4988630BE0324840422E4935
:10415000C1F8EC00012100200AF052F9022029499F
:104160008863DCE006F00200C8B1012F0BD12948BA
:104170002649C1F8EC000121002009F0CCFF012103
:104180002048C1630BE0234840422049C1F8EC00BD
:104190000121002009F0BFFF02211A48C163BEE0DF
:1041A00006F00400C8B1012F0BD11A491648C0F817
:1041B000F010012108460AF023F901211148016499
:1041C0000BE0144949421048C0F8F010012108469C
:1041D0000AF016F902210B480164A0E006F008007D
:1041E00028B3012F18D10B490848C0F8F01001215D
:1041F000002009F090FF01210248416417E08DE0A2
:10420000A45D0120EC0600205C070020DC080020F3
:10421000D811002078FDFF7FFB48FC49C1F8EC0075
:104220000121002009F077FF0221F948416476E07E
:1042300006F00100C8B1012F0CD1F3484042F54906
:10424000C1F8EC00012100200AF0DAF80120F04961
:1042500088630AE0EC48EF49C1F8EC000121002036
:104260000AF0CEF80220EA49886306F00200C8B1DD
:10427000012F0CD1E4484042E449C1F8EC0001218F
:10428000084609F048FF0121E148C1630AE0DE4821
:10429000DE49C1F8EC000121084609F03CFF02218B
:1042A000DB48C1633BE006F00400C8B1012F0CD12C
:1042B000D5494942D748C0F8F010012108460AF014
:1042C0009FF80121D24801640AE0CF49D148C0F8E3
:1042D000F010012108460AF093F80221CC4801644D
:1042E00006F00800C8B1012F0CD1C7494942C748A0
:1042F000C0F8F0100121084609F00DFF0121C44863
:1043000041640AE0C048C149C1F8EC0001210846F7
:1043100009F001FF0221BE48416400E000BF00BF78
:104320000020119023E5BC488678C778BB48D0F8B8
:10433000980007287AD2DFE800F004055DB6FDFC9E
:10434000FB00D6E2B248806A28B100BF00200AF024
:1043500056FA0028FAD106F00100C8B3AD48006F44
:10436000022826D1012F09D1AA48D0F88000A949F6
:10437000C1F8EC000120A64988630BE0022F09D1A7
:10438000A448D0F888004042A249C1F8EC000220BD
:104390009F498863022100200AF032F88146B9F56E
:1043A000807F03D100209A49886202E00220984968
:1043B00088629848006F01281BD1012F09D19248CB
:1043C00040429449C1F8EC0001209149886309E01A
:1043D0000FE0022F06D18C488E49C1F8EC00022074
:1043E0008B498863022100200AF00AF802208849DC
:1043F00088627EE28648C06A28B100BF00200AF0C9
:104400001FFA0028FAD106F00200D0B37F48006FEF
:10441000022827D1012F0AD17C48D0F880007B499F
:10442000C1F8EC0001217A48C1630CE060E2022F80
:1044300009D17648D0F8880040427449C1F8EC00B0
:1044400002217348C1630221002009F064FE814605
:10445000B9F5807F03D100216D48C16202E00221DD
:104460006B48C1626948006F01281BD1012F09D137
:10447000654840426549C1F8EC0001216448C163C8
:1044800009E00FE0022F06D15F486049C1F8EC0057
:1044900002215F48C1630221002009F03CFE022195
:1044A0005B48C16225E25A48006B28B100BF012079
:1044B0000AF0A5F90028FAD106F00400D8B355484F
:1044C000406F022825D1012F08D15248D0F884101E
:1044D000C0F8F01001214E4801640BE0022F09D111
:1044E0004C48D0F88C0041424A48C0F8F0100221F4
:1044F000474801640221012009F082FF8146B9F595
:10450000807F03D100214248016302E0022140483C
:1045100001634048406F01281ED1012F0CD13A4958
:1045200049423C48C0F8F0100121394801640CE0D0
:104530002BE175E011E00FE0022F06D1324935483A
:10454000C0F8F0100221324801640221012009F074
:1045500057FF02212E480163CBE12D48406B28B163
:1045600000BF01200AF06CF90028FAD106F008001B
:10457000C0B32648406F022825D1012F08D1234817
:10458000D0F88410C0F8F0100121214841640BE0FC
:10459000022F09D11D48D0F88C0041421B48C0F8B9
:1045A000F01002211A4841640221012009F0B3FDF4
:1045B0008146B9F5807F03D100211548416302E0AF
:1045C0000221134841631148406F01281BD1012F7C
:1045D00009D10D4949420D48C0F8F01001210C489D
:1045E000416409E00FE0022F06D107490748C0F8EF
:1045F000F0100221064841640221012009F08BFDE0
:1046000002210348416374E188020080DC08002035
:10461000EC0600205C070020D8110020A45D0120DA
:10462000FE48806A40B106F0010028B100BF0020BA
:104630000AF0E5F80028FAD1F848C06A40B106F05F
:10464000020028B100BF00200AF0FAF80028FAD1D1
:1046500006F00100C0B3F248006F022826D1012FF6
:1046600009D1EF48D0F88000ED49C1F8EC000120F5
:10467000EA4988630BE0022F09D1E948D0F88800A5
:104680004042E749C1F8EC000220E4498863022176
:10469000002009F0B5FE8146B9F5807F03D10020E6
:1046A000DE49886202E00220DC498862DC48006F53
:1046B00001281BD1012F08D1DA48D949C1F8EC00F3
:1046C0000120D64988630AE010E0022F07D1D548BF
:1046D0004042D349C1F8EC000220D049886302214E
:1046E000002009F08DFE0220CC49886206F002000D
:1046F000C0B3CD48006F022826D1012F09D1CA4886
:10470000D0F88000C849C1F8EC000121C348C1635A
:104710000BE0022F09D1C448D0F888004042C249BA
:10472000C1F8EC000221BD48C1630221002009F05C
:10473000F2FC8146B9F5807F03D10021B748C16200
:1047400002E00221B548C162B748006F01281BD1C1
:10475000012F08D1B348B449C1F8EC000121AF489A
:10476000C1630AE010E0022F07D1AE484042AE49D3
:10477000C1F8EC000221A948C1630221002009F020
:10478000CAFC0221A548C162B3E0A448006B40B155
:1047900006F0040028B100BF01200AF030F800281C
:1047A000FAD19E48406B40B106F0080028B100BF26
:1047B00001200AF045F80028FAD106F00400B8B349
:1047C0009748406F022825D1012F08D19448D0F88E
:1047D0008410C0F8F0100121904801640BE0022F12
:1047E00009D18F48D0F88C0041428D48C0F8F010B4
:1047F00002218A4801640221012009F001FE81465C
:10480000B9F5807F03D100218448016302E00221D1
:10481000824801638248406F01281BD1012F08D1D3
:1048200080497F48C0F8F01001217C4801640AE00B
:1048300010E0022F07D17B4949427948C0F8F010B7
:104840000221764801640221012009F0D9FD0221EC
:104850007248016306F00800B8B37348406F02283D
:1048600025D1012F08D17048D0F88410C0F8F0107D
:1048700001216A4841640BE0022F09D16A48D0F84F
:104880008C0041426848C0F8F0100221634841643E
:104890000221012009F03FFC8146B9F5807F03D158
:1048A00000215E48416302E002215C4841635E48AA
:1048B000406F01281BD1012F08D15A495A48C0F82E
:1048C000F0100121554841640AE010E0022F07D1A1
:1048D000544949425448C0F8F01002214F484164FD
:1048E0000221012009F017FC02214C48416300E03D
:1048F00000BF00BF0020119006E4FCF7AEFD0020D1
:1049000011900FE52846FCF7E8F81090C2211398A3
:1049100001700821139841701098C1B213988170EA
:104920001398007940F080011398017101201190D3
:10493000F8E420881290129819286ED008DC072815
:104940001BD00B2876D0152875D0172874D147E1D5
:104950002B2804D02D2848D030286DD1E9E03348E9
:10496000D0F89400324948613048D0F89810304867
:1049700081614AF6552101625DE12948D0F8D410E1
:104980002B4881622648816B294881632448816CC9
:10499000274881642448D0F8D4102548C1622248B1
:1049A000816B2348C1632048816C2148C1641C4845
:1049B000D0F8D8101E4801631948C16B1C48016427
:1049C0001748C16C1A4801651748D0F8D810184824
:1049D00041631548C16B164841641348C16C1448C3
:1049E00041654AF65521816525E10D48016F104862
:1049F00001670D48016F0E4841670948416F0C4837
:104A000081670948416F0A48C1670548D0F880109E
:104A10000748C0F8801004480FE00AE1EC060020C7
:104A20005C07002078FDFF7FDC080020A45D0120EA
:104A30002860012057E08DE0FCE0D0F88010FA48B3
:104A4000C0F88410F948D0F88410F748C0F88810EE
:104A5000F748D0F88410F448C0F88C10F348D0F828
:104A60008810F148C0F89010F148D0F88810EE484E
:104A7000C0F89410ED48D0F88C10EB48C0F89810AE
:104A8000EB48D0F88C10E848C0F89C10E748016E5D
:104A9000E548C0F8A010E648016EE348C0F8A4104D
:104AA000E248416EE048C0F8A810E148416EDE4897
:104AB000C0F8AC10DD48816EDB48C0F8B010DC48AF
:104AC000816ED948C0F8B410D848C16ED648C0F835
:104AD000B810D748C16ED448C0F8BC104AF655216A
:104AE000C0F8D410A7E0D048DBF88C10C0F81C1137
:104AF000DBF89010C0F82011DBF89410C0F83411E6
:104B0000DBF89810C0F83811DBF89C10C0F84C1195
:104B1000DBF8A010C0F85011DBF8A410C0F8641145
:104B2000DBF8A810C0F868114AF65521C0F8181132
:104B300081E0C048D0F8BC11BB48C0F8E410BD48C3
:104B4000D0F8C011B848C0F8E8104AF65521C0F8AE
:104B5000EC1070E0B748D0F8D011B348C0F8D011CD
:104B6000B448D0F8D411B048C0F8D411B148D0F846
:104B7000D811AD48C0F8D811AE48D0F8DC11AA4819
:104B8000C0F8DC11AB48D0F8E011A748C0F8E0113C
:104B9000A848D0F8E411A448C0F8E411A548D0F81A
:104BA000E811A148C0F8E811A248D0F8EC119E48DD
:104BB000C0F8EC11DBF87010C0F8F011DBF8201031
:104BC000C0F8F411DBF87C10C0F8F81199480168BE
:104BD0009548C0F8FC114AF65521C0F800122AE0A9
:104BE0009548008F81B29048A0F834129248808F87
:104BF00081B28D48A0F836128F48008A81B28A4867
:104C0000A0F838128C48808A81B28748A0F83C12FC
:104C10008948008981B28448A0F83A128648808980
:104C200081B28148A0F83E124AF65521C0F84012E0
:104C300001E000E000BF00BF5EE620680790D4F806
:104C40000480D4F808A0E0680690206905906069A7
:104C50000490A0690390E0690290206A0190606A64
:104C6000009007982E2870D032DCA0F102002C288A
:104C700081F02680DFE810F06901B7009900B700E5
:104C8000B700B700B700B700B700B7006101650112
:104C9000B700B00456015E015A01B700B700B70073
:104CA000B700B700B700B700B700B700B700B7004C
:104CB000B700B700C3046F01ED03FB032004360403
:104CC0003A044004750283044E01DE03E1035201FD
:104CD0003C2879D00ADCA0F12F000A28C8D2DFE8EE
:104CE00000F0F6F5F4F3F2F1F0EFEE3540F2235276
:104CF000811A904267D010DCB0F5C87F71D004DC17
:104D00003D286FD03E286ED1CCE0A0F2132070B3C6
:104D1000A0F2ED200028F6D1FEE3032973D0A1F222
:104D2000631028B1A0F2512090B30228EBD127E004
:104D300008F00DFEFBF758FB012003F0C8FF06F05A
:104D4000F6F8022003F0C3FF54E379E33948C0F8D2
:104D5000BC81D0F8BC0110B90BF01EFD0FE0354846
:104D6000D0F8BC01012803D10BF016FD07E0B7E035
:104D70003048D0F8BC01022801D110F020F9E3E757
:104D80004746012F05D12D482849C1F8EC0007E01E
:104D90009EE0022F04D1294840422449C1F8EC008A
:104DA0000221002009F02CFBCEE700211E48C0F8AC
:104DB000D410012003F08BFF06F0B9F8022003F0B5
:104DC00086FFC1E700E0EEE3B8F1010F0CD0B8F1C7
:104DD000020F19D0B8F1040F36D0B8F1080F51D135
:104DE00041E0EEE351E0EDE31548C0F800A01449BE
:104DF00006984860059888600498C86003984861E0
:104E0000002008613FE0F9E30E48C0F800A00D491A
:104E100006984860059888600498C86003984861BF
:104E2000002008612FE00000286001205C070020BE
:104E3000DC0800209C5B01200800002078FDFF7F3B
:104E4000500D0020680D0020FE48C0F800A0FD496C
:104E500006984860059888600498C860039848617F
:104E6000002008610FE0F848C0F800A0F649069855
:104E70004860059888600498C860039848610020DD
:104E8000086100E000BF00BF5EE7F048C0F818808E
:104E9000EF48C0F818A0ED490698C861EC4905989C
:104EA000C86151E7E948C0F87881C0F87CA1E849B9
:104EB0000698C1F878010598C1F87C0144E7AAE298
:104EC00099E209E287E179E16BE15DE14FE1BCE262
:104ED0000421002009F094FA0120FBF7B4FD33E728
:104EE000CDF83880DDF8388008F0010018B10120D5
:104EF000CBF8CC0002E00020CBF8CC000E9800F0FC
:104F0000020018B10120CBF8D00002E00020CBF85D
:104F1000D00019E74046FBF719FA15E740460BF0B9
:104F200089FC11E7CB48C0F840810DE7CA48C0F8BA
:104F3000008009E70BF0F8F906E76068CBF84C0051
:104F400002E76068CBF84800FEE66068C349086085
:104F500000201190F8E64FF40060C14988614010CC
:104F60008861B8F57A7F2BD140048861401488614C
:104F70000020B649C1F814010846D0F81401B94917
:104F8000486011200860012048610F20C861084670
:104F9000C0F834A0069888600020AD49C1F814011B
:104FA0000846D0F81401B04948601120086001207B
:104FB00048610F20C8610846C0F834A00698886090
:104FC00018F57A7F2DD14FF00060A5498861401413
:104FD000886100209D49C1F814010846D0F81401E9
:104FE000A049486012200860012048610520C8617E
:104FF0000846C0F834A00698886000209449C1F89B
:1050000014010846D0F8140197494860122008603E
:10501000012048610520C8610846C0F834A0069800
:105020008860B8F5FA6F0BD111208F490860012014
:1050300048610F20C8610846C0F834A0069888600F
:1050400018F5FA6F0BD112208749086001204861DA
:105050000520C8610846C0F834A00698886040F66C
:10506000B83080452DD14FF400607D498861C00380
:10507000886101207549C1F814010846D0F814016F
:105080007849486011200860012048610F20C861FC
:105090000846C0F834A00698886001206C49C1F821
:1050A00014010846D0F814016F49486011200860C7
:1050B000012048610F20C8610846C0F834A0069856
:1050C00088606A4880452DD14FF40060644988614A
:1050D000C003886101205D49C1F814010846D0F879
:1050E00014016049486012200860012048610F20C7
:1050F000C8610846C0F834A0069888600120544969
:10510000C1F814010846D0F814015749486012202C
:105110000860012048610F20C8610846C0F834A02B
:1051200006988860B8F57A6F0BD111204E49086057
:10513000012048610F20C8610846C0F834A00698D5
:10514000886018F57A6F0BD112204749086001205A
:1051500048610520C8610846C0F834A006988860F8
:10516000F2E53C48C0F83880C0F848A0ECE53D487E
:10517000C0F83C80C0F840A03A49069848640598B9
:1051800088640498C864DFE53648C0F85080C0F8E9
:1051900054A03449069888650598C865049808663F
:1051A000D2E53148C0F83C80C0F840A02E490698AE
:1051B0004864059888640498C864C5E52A48C0F81E
:1051C0005080C0F854A02849069888650598C8659D
:1051D00004980866B8E52348C16B2048C0F8F81267
:1051E0002048016C1D48C0F8FC121E48416C1B4849
:1051F000C0F800131B48816C1848C0F80413194804
:10520000C16C1648C0F808131648016D1348C0F861
:105210000C131448416D1148C0F810131148816DEA
:105220000E48C0F814130F48C16D0C48C0F818138D
:105230000C48016E0948C0F81C130B48C16B0748A5
:1052400016E00000800D0020980D00205C07002073
:10525000DC0800205C0A0020281C00402860012097
:1052600000100240580C0020D40C002048F4FFFF2E
:10527000C0F82013FE48016CFE48C0F82413FC4817
:10528000416CFC48C0F82813F948816CF948C0F813
:105290002C13F748C16CF748C0F83013F448016D7F
:1052A000F448C0F83413F248416DF248C0F838139E
:1052B000EF48816DEF48C0F83C13ED48C16DED48F3
:1052C000C0F84013EA48016EEA48C0F844134AF6B1
:1052D0005521C0F8481337E50520E749C8630A207F
:1052E00008640F2048640A2088640520C8640865A3
:1052F0004865462088653C20C8651420086605205E
:10530000DB49C8630A2008640F2048640A208864C7
:105310000520C86408654865462088653C20C86546
:1053200014200866D448C16BD248C0F8F812D2489D
:10533000016CD048C0F8FC12CF48416CCD48C0F891
:105340000013CD48816CCB48C0F80413CA48C16C27
:10535000C848C0F80813C848016DC648C0F80C1307
:10536000C548416DC348C0F81013C348816DC1489A
:10537000C0F81413C048C16DBE48C0F81813BE4829
:10538000016EBC48C0F81C13B948C16BB948C0F8DD
:105390002013B748016CB748C0F82413B448416CD7
:1053A000B448C0F82813B248816CB248C0F82C1336
:1053B000AF48C16CAF48C0F83013AD48016DAD487F
:1053C000C0F83413AA48416DAA48C0F83813A84859
:1053D000816DA848C0F83C13A548C16DA548C0F828
:1053E0004013A348016EA348C0F844134AF6552160
:1053F000C0F84813F8E30020A049C1F85801C1F8EB
:105400005C01C1F86001C1F864010FF0D2FE002018
:105410000FF0DEFEE8E308F09AFA0DF0E7FCFAF789
:10542000E3FF012003F053FC05F081FD022003F0AF
:105430004EFCD9E30BF061FAD6E30BF03BFAD3E371
:1054400040460BF02EFB0E90CEE38D48C0F8C8818D
:10545000CAE3B8F57A7F02D18A48C0F868A018F587
:105460007A7F03D14FF0FF3086490860BCE3B8F57E
:105470007A7F03D14FF0806083490860B8F5FA6FF6
:1054800003D14FF480608049086040F6B830804511
:1054900002D101207B49C866B8F57A6F03D101209B
:1054A0007749C1F8B40041F28830804503D1AA2081
:1054B0007349C1F8CC0097E3B8F1000F02D17148ED
:1054C000C0F87080B8F1010F02D16E48C0F870804A
:1054D000BAF1000F05DDBAF5FA6F02DA6948C0F8D3
:1054E00008A0EEE36948C0F84481EAE36748C0F8E1
:1054F0004C80C0F83CA0E4E3B8F1010F0ED1BAF142
:10550000000F03D14FF4803061498861BAF1010F77
:1055100004D101205E4900E08DE38861B8F1020FFB
:105520000CD1BAF1000F03D14FF400305849886113
:10553000BAF1010F02D1022055498861B8F1030F79
:105540000CD1BAF1000F03D14FF48020504988618B
:10555000BAF1010F02D104204D498861B8F1040F5E
:105560000CD1BAF1000F03D14FF4002048498861F3
:10557000BAF1010F02D1082045498861A1E3B8F1D1
:10558000000F09D0B8F1010F0ED0B8F1020F11D001
:10559000B8F1030F1DD116E04FF400103D4908602B
:1055A0004000086016E042E020203A4908604004CC
:1055B00008600FE04FF40010364908604020086092
:1055C00008E061E37CE32020324908604020086065
:1055D00000E000BF00BF74E361682648C0F82C12E9
:1055E0004AF65521C0F8301205F0A1FC2148D0F848
:1055F0002C02CBF8C0000020119062E303E02648A3
:10560000A0F8D4805DE3606824490860A068486021
:10561000E06888602069C86060690861A0694861C5
:10562000E0698861206AC861606A086249E360686D
:105630001B498863A068C863E06808612069486105
:1056400060698860A069C860E06916490860206ADE
:105650004860134800690D2807D0114800690E28DA
:1056600003D00F4800690F282FD10D48806B1BE035
:10567000D40C002028600120580C00209C5B0120E5
:10568000A45D0120DC0B0020180C02405C0A002005
:10569000000002401804024010060020EC04002024
:1056A0000800002000000020F9490864084640690D
:1056B0000D2807D0084640690E2803D008464069E7
:1056C0000F2802D10020F2494861F14840690D28B5
:1056D00007D0EF4840690E2803D0ED4840690F28F5
:1056E00012D1EB48C06BEA490864084600690D28EE
:1056F00007D0084600690E2803D0084600690F2825
:1057000002D10020E2490861E1480069132873D200
:10571000DFE800F00A13243A5072727272726677F0
:1057200090A9CAF9F7F6F500012003F0D2F900209C
:10573000D8494862D84808601AE1012003F0C9F945
:10574000D3488068012802D1D249086102E00020D4
:10575000D0490861D148CF49086009E1012003F030
:10576000B8F90220CA4988610020086208468068AA
:10577000012802D1C749086102E00220C549086139
:10578000C748C4490860F3E0012003F0A2F90420EF
:10579000BF4988610020086208468068012802D15C
:1057A000BC49086102E00220BA490861BD48B94914
:1057B0000860DDE0012003F08CF90820B44988611D
:1057C0000020086208468068012802D1B1490861BA
:1057D00002E00220AF490861B348AE490860C7E063
:1057E000022003F076F9B148AA498860A848806889
:1057F000012802D1086103E0B9E00020A549086151
:10580000B6E0022003F065F90120A2494862202099
:105810009F4908620020886108468068012802D1FB
:105820009C49486102E002209A494861A048994990
:1058300088609DE0022003F04CF901209549486200
:10584000802093490862002088610846806801280A
:1058500002D19049486102E002208E494861954892
:105860008C49886084E0022003F033F98848806B1B
:105870008749086408468068012805D18E488F4909
:1058800088620120486204E08D488C4988620020CB
:1058900048628A480FF031FD0FF061FC0020874913
:1058A00008620120C86263E0022003F012F9784820
:1058B000806B774908648148006980490860084620
:1058C0004069404248600846806988607048806846
:1058D000012804D1784888620120486204E07848B1
:1058E000764988620020486274480FF006FD0FF088
:1058F00036FC0020714908620120C86238E02FE0C0
:1059000027E01FE0FFE7022003F0E3F86048806B28
:105910005F49086408468068012805D166486749E0
:1059200088620120486204E065486449886200207A
:10593000486262480FF0E1FC0FF011FC01205F4962
:10594000C86215E0022003F0C4F85E48514988603F
:105950000EE0022003F0BDF85B484E49886007E086
:10596000022003F0B6F859484A49886000E000BFB9
:1059700000BF47484069132873D2DFE800F00A13DC
:10598000243A5072727272726677BAD3F9F7F6F5EA
:10599000F400012003F072F83F483E4948600020BF
:1059A000886246E1012003F069F83948C06801289F
:1059B00002D13849886102E00020364988614448B4
:1059C0003449486035E1012003F058F8022030499D
:1059D000C861002048620846C068012802D12D49EC
:1059E000886102E002202B4988613A4829494860D1
:1059F0001FE1012003F042F804202549C86100207E
:105A000048620846C068012802D12249886102E044
:105A100002202049886130481E49486009E1012080
:105A200003F02CF808201A49C86100204862084693
:105A3000C068012802D11749886102E00220154997
:105A40008861264813494860F3E0022003F016F805
:105A500023481049C8600E48C068012802D18861F7
:105A600003E0E5E000200B498861E2E0022003F05A
:105A700005F8012007498862202005494862002076
:105A8000C8610846C06801282CD10249C8612CE0D1
:105A90000800002024050020A53601080D37010864
:105AA000753701084B3B010829410108CD36010833
:105AB0001942010863440108414F0108EC04002029
:105AC000514F01083F4D01082D4C0108A14A010822
:105AD0002F37010855390108273E0108A141010867
