:020000040800F2
:10000000C8740020855C0108A35C0108A55C010898
:10001000A75C0108A95C0108AB5C010800000000B6
:10002000000000000000000000000000AD5C0108BE
:10003000AF5C010800000000B15C0108B35C01087E
:10004000B55C0108B55C0108B55C0108B55C010848
:10005000B55C0108B55C0108B55C0108B55C010838
:10006000B55C0108B55C0108B55C0108B55C010828
:10007000B55C0108B55C0108B55C0108B55C010818
:10008000B55C0108B55C0108B55C0108B55C010808
:10009000B55C0108B55C0108B55C0108B55C0108F8
:1000A000B55C0108B55C0108B55C0108B55C0108E8
:1000B000E94E0108938D0008ED980008B55C010831
:1000C000B55C0108B55C0108B55C0108B55C0108C8
:1000D000B55C0108B55C0108B55C0108B55C0108B8
:1000E000B55C0108B55C0108B55C0108B55C0108A8
:1000F000B55C0108B55C0108B55C0108B55C010898
:10010000B55C0108B55C0108F9850008B55C01081B
:10011000B55C0108B55C010825890008134F01088A
:10012000B55C0108B55C0108B55C0108B55C010867
:10013000B55C0108B55C0108B55C0108B55C010857
:10014000B55C0108B55C0108B55C0108B55C010847
:10015000B55C0108B55C0108B55C0108B55C010837
:10016000B55C0108B55C0108B55C0108B55C010827
:10017000B55C0108B55C0108B55C0108B55C010817
:10018000B55C0108B55C010800F002F800F0B2F8B7
:100190000AA090E8000C82448344AAF10107DA45E2
:1001A00001D100F0A7F8AFF2090EBAE80F0013F082
:1001B000010F18BFFB1A43F001031847DCC601000A
:1001C000FCC601000A444FF0000C10F8013B13F08C
:1001D000070408BF10F8014B1D1108BF10F8015BA0
:1001E000641E05D010F8016B641E01F8016BF9D193
:1001F00013F0080F1EBF10F8014BAD1C0C1B09D1EA
:100200006D1E58BF01F801CBFAD505E014F8016B5B
:1002100001F8016B6D1EF9D59142D6D370470000ED
:100220000023002400250026103A28BF78C1FBD8FF
:10023000520728BF30C148BF0B6070476E2917F0C6
:100240006B87702917F0BB8766291AF0DF8765294D
:100250001AF0DC8767291AF0D98761291AF0D88744
:1002600003681B0A28BF41F08001692917F018872D
:10027000642917F01587752917F012876F2918F070
:10028000EB84782917F08787E92918F08584E42919
:1002900018F08284F52918F07F84EF2918F0E8849B
:1002A000F82917F086870368DB0928BF41F0800131
:1002B000632918F00684732918F00B84E32918F0D9
:1002C0003587F32918F03A87002070471FB51AF0D8
:1002D00093FF18F00DFD0400002000211AF072FABF
:1002E000401C6060002000211AF056FAE0601FBD3B
:1002F00010B510BD19F072F91146FFF7E7FF07F0CE
:1003000022F819F099F903B4FFF7F2FF03BC19F0D2
:10031000DDF9000000BF00BF00BFBFF34F8F00BF7B
:1003200000BF00BFFE48006800F4E060FD490843DC
:10033000001DFB49086000BF00BF00BFBFF34F8F27
:1003400000BF00BF00BF00BF00BFFDE710B50446FF
:10035000B4F5886F20D011DC40F22341A4EB0100FA
:100360008C421FD005DCA4F2134090B1032833D196
:1003700010E0032829D017282ED10CE0B4F5966F91
:1003800017D0A4F2B340A8B1032811D04D2823D12F
:1003900021E022E021E020E04AF65521E248C0F8C1
:1003A00000111AE04AF65521DF48C0F8181114E090
:1003B00013E012E0DD48B0F87810DB48C0F8041212
:1003C0004AF65521C0F8081207E04AF65521D648EA
:1003D000C0F8281201E000E000BF00BFD448D249B5
:1003E00048600AF07EFA10BD4FF0FF30CE49086039
:1003F00048608860C86008617047CE48A0F1740109
:10040000D1F8BC21C849C1F8E420A0F17401D1F8A9
:10041000C021C549C1F8E8204AF65522C1F8EC20B0
:10042000C549D1F8AC10C04A5161C349D1F8B020D8
:10043000BD498A61C04991F8B420BB490A77BE49D9
:1004400091F8B520B8494A77BB4991F8B620B6492A
:100450008A774AF655220A622C30426BC1F8F020A6
:10046000826BC1F8F420C26AC1F8F820C26BC1F8EF
:10047000FC204AF65522C1F80021026EC1F81C2169
:10048000426EC1F82021826EC1F83421C26EC1F8DB
:100490003821026FC1F84C21426FC1F85021826FA0
:1004A000C1F86421C26FC1F86821A0F1A001D1F8A0
:1004B000D0219D49C1F8D021A0F1A001D1F8D421CB
:1004C0009949C1F8D421A0F1A001D1F8D8219649C9
:1004D000C1F8D821A0F1A001D1F8DC219249C1F8DE
:1004E000DC21A0F1A001D1F8E0218F49C1F8E02181
:1004F000A0F1A001D1F8E4218B49C1F8E421A0F1D9
:10050000A001D1F8E8218849C1F8E821A0F1A001B3
:10051000D1F8EC218449C1F8EC21426CC1F8F021FA
:1005200050F80C2CC1F8F421026D2C38C1F8F821D8
:10053000A0F174010A687C49C1F8FC214AF65522F1
:10054000C1F800227D49098F8AB27749A1F8342287
:100550007A49898F8AB27449A1F836227749098A83
:100560008AB27149A1F83822744909898AB26E4960
:10057000A1F83A227149898A8AB26B49A1F83C22D2
:100580006E4989898AB26849A1F83E224AF6552205
:10059000C1F840226A490A686349C1F8442268499F
:1005A0004A686149C1F8482265498A685E49C1F8CC
:1005B0004C226349CA685C49C1F8502260490A6903
:1005C0005949C1F854225E494A695749C1F858222D
:1005D0005B498A695449C1F85C225949CA69524940
:1005E000C1F860224AF65522C1F8642254490A6AC9
:1005F0004D49C1F8682252494A6A4B49C1F86C22F8
:100600004F498A6A4849C1F870224D49CA6A464929
:10061000C1F874224A490A6B4349C1F87822484913
:100620004A6B4149C1F87C2245498A6B3E49C1F871
:1006300080224349CA6B3C49C1F884224AF65522BC
:10064000C1F888223E490A6C3749C1F88C223C49DE
:100650004A6C3549C1F8902239498A6C3249C1F84F
:1006600094223749CA6C3049C1F8982234490A6D3E
:100670002D49C1F89C2232494A6D2B49C1F8A0226C
:100680002F498A6D2849C1F8A4222D49CA6D2649EF
:10069000C1F8A8224AF65522C1F8AC2228490A6EB0
:1006A0002149C1F8B02226494A6E1F49C1F8B42237
:1006B00023498A6E1C49C1F8B8222149CA6E1A49D9
:1006C000C1F8BC221E490A6F1749C1F8C0221C4953
:1006D0004A6F1549C1F8C42219498A6F1249C1F8F5
:1006E000C8221749CA6F1049C1F8CC224AF65522D0
:1006F000C1F8D02213490A6F0B490A6712490A6FE1
:1007000009494A670F494A6F07498A670E494A6F84
:100710000549CA670B49D1F88020034916E000005B
:100720000CED00E00000FA05F4670020340600201C
:1007300002000100A06300203865002008000020AE
:10074000606B002070070020F4080020C1F88020B2
:10075000FB49D1F88020FB49C1F88420FA49D1F83F
:100760008420F849C1F88820F549D1F88420F5495A
:10077000C1F88C20F449D1F88820F249C1F89020C2
:10078000EF49D1F88820EF49C1F89420EE49D1F81B
:100790008C20EC49C1F89820E949D1F88C20E9492E
:1007A000C1F89C20E8490A6EE649C1F8A020E44956
:1007B0000A6EE449C1F8A420E3494A6EE149C1F850
:1007C000A820DF494A6EDF49C1F8AC20DE498A6EB5
:1007D000DC49C1F8B020DA498A6EDA49C1F8B420A0
:1007E000D949CA6ED749C1F8B820D549CA6ED5498A
:1007F000C1F8BC204AF65522C1F8D420D2498A6DEE
:10080000D049CA65CE498A6DCE490A66CE49CA6DBD
:10081000CC494A66CA49CA6DCA498A664AF655220F
:10082000CA66C9498A6CC7498A64C5498A6CC54980
:10083000CA64C549CA6CC3490A65C149CA6CC14981
:100840004A65C1498A6BBF498A63BD498A6BBD4904
:10085000CA63BD49CA6BBB490A64B949CA6BB94985
:100860004A64B949D1F8D420B6498A62B449D1F86A
:10087000D420B449CA62B449D1F8D820B1490A6336
:10088000AF49D1F8D820AF494A634AF655228A6564
:10089000A0F17401D1F8D021AA49C1F8D021A0F16A
:1008A0007401D1F8D421A749C1F8D421A0F1740171
:1008B000D1F8D821A349C1F8D821A0F17401D1F809
:1008C000DC21A049C1F8DC21A0F17401D1F8E021BC
:1008D0009C49C1F8E021A0F17401D1F8E4219949C3
:1008E000C1F8E421A0F17401D1F8E8219549C1F8DB
:1008F000E821A0F17401D1F8EC219249C1F8EC2172
:10090000026FC1F8F021026AC1F8F421C26FC1F888
:10091000F821A0F174010A688A49C1F8FC214AF65D
:100920005522C1F8002288498A6A8649C1F8D42232
:100930008549CA6A8349C1F8DC2281498A6A8149AA
:10094000C1F8D8227E49CA6A7E49C1F8E0227E49B0
:100950000A6B7C49C1F8E4227B494A6B7949C1F8AA
:10096000E82277490A6B7749C1F8EC2274494A6B4F
:100970007449C1F8F0224AF65522C1F8F4227349AD
:10098000CA6B7049C1F8F82270490A6C6D49C1F808
:10099000FC226E494A6C6B49C1F800236B498A6C92
:1009A0006849C1F804236949CA6C6649C1F808233B
:1009B00066490A6D6349C1F80C2364494A6D61496F
:1009C000C1F8102361498A6D5E49C1F814235F495B
:1009D000CA6D5C49C1F818235C490A6E5949C1F8CF
:1009E0001C235B49CA6B5749C1F8202358490A6C3C
:1009F0005449C1F8242356494A6C5249C1F8282366
:100A000053498A6C4F49C1F82C235149CA6C4D494E
:100A1000C1F830234E490A6D4A49C1F834234C4984
:100A20004A6D4849C1F8382349498A6D4549C1F89A
:100A30003C234749CA6D4349C1F8402344490A6EE3
:100A40004049C1F844234AF65522C1F84823414998
:100A500009693C4AD16070471FB504460E203E49E3
:100A600088700020C87081200871012C0BD10120F2
:100A7000ADF8000039480068CDF802000020CDF83C
:100A80000600CDF80A00022C0BD10220ADF80000C0
:100A900032484068CDF802000020CDF80600CDF8BD
:100AA0000A00042C0BD10420ADF800002B4880680C
:100AB000CDF802000020CDF80600CDF80A00082C81
:100AC0000BD10820ADF800002448C068CDF8020022
:100AD0000020CDF80600CDF80A0006211E4807F0D8
:100AE000C2FE0E21684607F0BEFE1FBD2DE9F0478D
:100AF00001460020844600228046194CDFF86490AD
:100B000099F80230172B70D010DC0B2B6ED006DC5E
:100B1000032B37D0052B40D0072B68D1F9E00F2BE2
:100B20007ED0132B7DD0152BF7D1B5E2302B79D0A9
:100B30001ADC192B77D02B2B1BD02D2BEDD157E0A6
:100B4000F4080020F467002070070020780C0020D3
:100B5000F40C00208C67002089000020780A002017
:100B6000A0630020F8110020322B6ED0342BD4D19A
:100B700077E104200B80DFF8949CB9F8B090A1F8DD
:100B8000029088E208200B804FF00109A1F8029042
:100B90004FF06409C1F804907DE2DFF8749C99F885
:100BA00003200C200B804A80012A04D1DFF8649CCA
:100BB000D9F8005013E0022A04D1DFF85C9CD9F880
:100BC00000500CE0042A04D1DFF8489CD9F8045006
:100BD00005E0082A03D1DFF8409CD9F804504D60A5
:100BE0004FF00009C1F8089055E2B9E281E1FDE358
:100BF000DFF81C9C99F8032016200B804A80012AFC
:100C000024D1DFF8109CB9F87090A1F80490DFF8B7
:100C1000049CD9F88090C1F80690DFF8F89B03E0B7
:100C20004AE1A1E1D0E0D4E2D9F88890C1F80A9075
:100C3000DFF8E09BD9F86890C1F80E90DFF8D49BFC
:100C4000D9F86090C1F8129062E0DFE0022A1ED16C
:100C5000DFF8C49BB9F87090A1F80490DFF8B89B56
:100C6000D9F88090C1F80690DFF8AC9BD9F888904D
:100C7000C1F80A90DFF8A09BD9F86890C1F80E90EF
:100C8000DFF8949BD9F86090C1F8129040E0042AF4
:100C90001ED1DFF8809BB9F87490A1F80490DFF8BA
:100CA000749BD9F88490C1F80690DFF8689BD9F856
:100CB0008C90C1F80A90DFF85C9BD9F86C90C1F871
:100CC0000E90DFF8509BD9F86490C1F812901FE0A5
:100CD000082A1DD1DFF8409BB9F87490A1F8049060
:100CE000DFF8349BD9F88490C1F80690DFF8289B90
:100CF000D9F88C90C1F80A90DFF81C9BD9F86C9059
:100D0000C1F80E90DFF8109BD9F86490C1F81290EA
:100D100084E3DFF8FC9A99F803200E200B804A80C8
:100D2000012A12D1DFF8EC9AB9F8D490A1F8049016
:100D3000DFF8E09AD9F84890C1F80690DFF8D49A25
:100D4000D9F83890C1F80A903DE0022A12D1DFF8B4
:100D5000C89AB9F8D490A1F80490DFF8BC9AD9F8F1
:100D60004890C1F80690DFF8B09AD9F83890C1F8E9
:100D70000A9028E0042A12D1DFF8989AB9F8D8909E
:100D8000A1F80490DFF88C9AD9F84C90C1F806903D
:100D9000DFF8809AD9F83C90C1F80A9013E0082A4D
:100DA00011D1DFF8749AB9F8D890A1F80490DFF85F
:100DB000689AD9F84C90C1F80690DFF85C9AD9F897
:100DC0003C90C1F80A9029E3DFF8449A99F803208F
:100DD00012200B804A80DFF8449AB9F8BC91A1F840
:100DE0000490DFF8389AD9F8C091C1F806904FF016
:100DF0000009A1F80A904FF0000A01F10A09A1F8D0
:100E00000CA0A1F80EA0A1F810A007E3DFF8009A4B
:100E100099F803200820012A06D1DFF8F899D9F8BB
:100E20003090C1F8049019E0022A06D1DFF8E89961
:100E3000D9F83090C1F8049010E0042A06D1DFF808
:100E4000D499D9F83490C1F8049007E0082A05D164
:100E5000DFF8C499D9F83490C1F804900B804A8027
:100E6000DCE2DFF8AC9999F8032008200B804A8077
:100E7000012A06D1DFF89C99D9F82890C1F804908E
:100E800019E0022A06D1DFF89099D9F82890C1F824
:100E9000049010E0042A06D1DFF87899D9F82C9054
:100EA000C1F8049007E0082A05D1DFF86C99D9F859
:100EB0002C90C1F80490B1E210200B804FF0010992
:100EC000A1F80290012A08D1A1F80490A1F8069097
:100ED00032278F600A26CE600AE0022A08D19146A6
:100EE000A1F80490A1F8069032278F600C26CE60FE
:100EF00094E2DFF81C9999F803200A200B804A80BD
:100F0000012A08D1B4F88C90A1F80490B4F890901C
:100F1000A1F8069023E0022A0CD1B4F89490A1F82D
:100F20000490B4F89890A1F806904FF00109A1F848
:100F3000089014E0042A08D1B4F89C90A1F8049019
:100F4000B4F8A090A1F8069009E0082A07D1B4F8F7
:100F5000A490A1F80490B4F8A890A1F806904FF0DE
:100F60000109A1F8089059E2DFF8A49899F8032044
:100F700012200B804A80012A22D14FF00109A1F8EA
:100F80000290DFF89C98B9F8A090A1F80490DFF8DF
:100F90009098D9F8A890C1F80690DFF88498D9F80D
:100FA000B090C1F80A90DFF87898B9F8B890A1F835
:100FB0000E90DFF86C98B9F8C090A1F810906AE034
:100FC000022A21D19146A1F80290DFF85498B9F88D
:100FD000A490A1F80490DFF84898D9F8AC90C1F833
:100FE0000690DFF83C98D9F8B490C1F80A90DFF881
:100FF0003098B9F8BC90A1F80E90DFF82498B9F8B1
:10100000C490A1F8109046E0042A21D19146A1F89D
:101010000290DFF80C98B9F8A890A1F80490DFF8D6
:101020000098D9F8B090C1F80690DFF8F497D9F895
:10103000B890C1F80A90DFF8E897B9F8C090A1F825
:101040000E90DFF8DC97B9F8C890A1F8109022E074
:10105000082A20D19146A1F80290DFF8C497B9F888
:10106000AC90A1F80490DFF8B897D9F8B490C1F823
:101070000690DFF8AC97D9F8BC90C1F80A90DFF879
:10108000A097B9F8C490A1F80E90DFF89497B9F83A
:10109000CC90A1F81090C1E1DFF8749799F8032083
:1010A0001E200B804A80012A0CD1DFF87097D9F8F6
:1010B000D091C1F80C90DFF86497D9F8D491C1F8B9
:1010C00010902BE0022A0CD1DFF85097D9F8D89174
:1010D000C1F80C90DFF84497D9F8DC91C1F8109072
:1010E0001CE0042A0CD1DFF83497D9F8E091C1F85C
:1010F0000C90DFF82897D9F8E491C1F810900DE032
:10110000082A0BD1DFF81497D9F8E891C1F80C90B0
:10111000DFF80897D9F8EC91C1F81090B4F8209056
:1011200009F10109A1F80490D4F87090C1F8069073
:10113000B4F87C90A1F80A90DFF8E096B9F8009036
:10114000A1F814904FF00009A1F81690CA4601F1D9
:101150001609A1F818A0A1F81AA0A1F81CA05DE139
:101160001A200B80DFF8BC96B9F83890A1F80290ED
:10117000DFF8B096B9F83C90A1F80490DFF8A49697
:10118000B9F81090A1F80690DFF89896B9F8089091
:10119000A1F80890DFF88C96B9F81490A1F80A909D
:1011A000DFF88096B9F80C90A1F80C904FF0000988
:1011B000A1F80E904FF0000A01F10E09A1F810A05D
:1011C000A1F812A0A1F814A0A1F816A0A1F818A0E7
:1011D00024E1DFF83C9699F8032030200B804A8008
:1011E000012A06D0022A37D0042A68D0082A7DD1E5
:1011F0009AE0DFF83496D9F80090DFF830A6CAF804
:101200000090DFF82496D9F80490CAF80490DFF82B
:101210001896D9F80890CAF80890DFF80C96D9F813
:101220000C90CAF81090DFF80096D9F81090CAF820
:101230001490DFF8F495D9F81490CAF81890DFF8F4
:10124000E895D9F81890CAF80C90DFF8DC95D9F831
:101250001C90CAF820909BE0DFF8CC95D9F820903C
:10126000DFF8C8A5CAF80090DFF8BC95D9F824903B
:10127000CAF80490DFF8B095D9F82890CAF8089019
:10128000DFF8A495D9F82C90CAF81090DFF898955B
:10129000D9F83090CAF81490DFF88C95D9F83490CA
:1012A000CAF81890DFF88095D9F83890CAF80C90F1
:1012B000DFF87495D9F83C90CAF8209068E0DFF820
:1012C0006895D9F84090DFF864A5CAF80090DFF877
:1012D0005895D9F84490CAF80490DFF84C95D9F89D
:1012E0004890CAF80890DFF8409500E04FE0D9F840
:1012F0004C90CAF81090DFF83095D9F85090CAF8A1
:101300001490DFF82495D9F85490CAF81890DFF8B3
:101310001895D9F85890CAF80C90DFF80C95D9F8C0
:101320005C90CAF8209033E0DFF8FC94D9F8609024
:10133000DFF8F8A4CAF80090DFF8EC94D9F86490CC
:10134000CAF80490DFF8E094D9F86890CAF80890D9
:10135000DFF8D494D9F86C90CAF81090DFF8C894EC
:10136000D9F87090CAF81490DFF8BC94D9F874904A
:10137000CAF81890DFF8B094D9F87890CAF80C90B1
:10138000DFF8A494D9F87C90CAF8209000E000BF60
:1013900000BFDFF89894D9F80090C1F80490DFF806
:1013A0008C94D9F80490C1F80890DFF88094D9F8AB
:1013B0000890C1F80C90DFF87494D9F81090C1F837
:1013C0001090DFF86894D9F81490C1F81490DFF801
:1013D0005C94D9F81890C1F81890DFF85094D9F8B7
:1013E0000C90C1F81C90DFF8449400E015E0D9F8A7
:1013F0002090C1F820904FF00009A1F82490CA462F
:1014000001F12409A1F826A0A1F828A0A1F82AA09A
:10141000A1F82CA0A1F82EA000E000BF00BFBDE8FD
:10142000F0872DE9F047FD4D7435F94CA41DA01F40
:10143000C0881FFA80F9B9F12B0F5BD019DCB9F124
:10144000130F70D00ADCB9F1050F6DD0B9F1070F99
:101450006BD0B9F10B0F41F0B48221E0B9F1150F57
:101460007DD0B9F1170F7BD0B9F1190FF3D101F08D
:101470007EB8B9F1340F74D009DCB9F12D0F71D0F9
:10148000B9F1300F6FD0B9F1320FE4D1D5E1B9F134
:10149000360F01F0F880B9F1380FDCD101F040B916
:1014A0006788012F06D0022F0BD0042F10D0082FF1
:1014B0001CD114E0A088C5F88C00E088C5F8900025
:1014C00015E0A088C5F89400E088C5F898000EE003
:1014D000A088C5F89C00E088C5F8A00007E0A088B7
:1014E000C5F8A400E088C5F8A80000E000BF00BF70
:1014F00001F068BAB4F80280CD48806A28B100BF14
:1015000000200CF09EFC0028FAD1B8F1000F03D0A7
:10151000B8F1010F2FD109E00020BC49C1F8AC009F
:10152000C1F8B00028E01AE128E040E00120B74906
:10153000C1F8AC00C1F8B000432081F8B4006821C4
:10154000B24880F8B510312180F8B6100020B149BA
:10155000C1F814010846D0F8D400B04904E0A6E16F
:1015600011E287E18AE0DAE0C1F8B801D1F8B80108
:101570000EF0BDFF00E000BF00BFB9E76788012F94
:1015800003D10020A349086010E0022F03D10020FE
:10159000A14908600AE0042F03D100209D4948605A
:1015A00004E0082F02D100209B494860A0E766882C
:1015B00001209B49C1F8E800012E06D0022E1AD066
:1015C000042E2ED0082E56D140E0A0889149C1F8B3
:1015D000D4000846D0F8D4009049C1F8B801D1F839
:1015E000B8010EF084FFD4F806008A498864D4F864
:1015F0000A00886340E0A0888749C1F8D400084603
:10160000D0F8D4008549C1F8B801D1F8B8010EF07E
:101610006EFFD4F8060080498864D4F80A00886315
:101620002AE0A1887B48C0F8D810D0F8D8007B49C0
:10163000C1F8B801D1F8B8010EF059FFD4F806107E
:101640007448C164D4F80A10C16315E0A1887248D7
:10165000C0F8D810D0F8D8007049C1F8B801D1F856
:10166000B8010EF044FFD4F806106B48C164D4F8FA
:101670000A10C16300E000BF00BF39E76688012E91
:1016800006D0022E15D0042E24D0082E44D132E0EC
:10169000A41D34F8020C5F4908672068C1F8800077
:1016A0006068C1F88800A0688866E068A41F0866C2
:1016B00033E0A41D34F8020C574908672068C1F8CC
:1016C00080006068C1F88800A0688866E068A41F90
:1016D000086622E0A41D34F8021C4E4841672168C8
:1016E000C0F884106168C0F88C10A168C166E16818
:1016F000A41F416611E0A41D34F8021C464841674E
:101700002168C0F884106168C0F88C10A168C166B7
:10171000E168A41F416600E000BF00BFE8E66688FC
:10172000A0883E49C1F8BC01D4F80600C1F8C00148
:101730000846D0F8BC0110B90EF00AFC0EE037489C
:10174000D0F8BC01012802D10EF002FC06E03348BB
:10175000D0F8BC01022801D113F0F5F9C8E666887B
:10176000012E06D0022E17D0042E28D0082E61D1CB
:1017700038E0A0882749C1F8A000D4F80600C1F8D5
:10178000A800D4F80A00C1F8B000E089C1F8B80098
:10179000208AC1F8C0004EE0A0881F49C1F8A0000F
:1017A000D4F80600C1F8A800D4F80A00C1F8B000C7
:1017B000E089C1F8B800208AC1F8C0003BE0A188E8
:1017C0001448C0F8A410D4F80610C0F8AC10D4F82F
:1017D0000A10C0F8B410E189C0F8BC10218AC0F822
:1017E000C41028E0A1880C48C0F8A410D4F8061052
:1017F000C0F8AC10D4F80A10C0F8B410E189C0F8F1
:10180000BC10218AC0F8C41015E013E03865002030
:10181000F811002070070020F40800202C6300203D
:10182000780A002008000020606B0020FC040020E3
:101830001007002000BF00BF5AE66688012E06D0C0
:10184000022E08D0042E0AD0082E10D10BE06068BA
:10185000FE4908630CE06068FD49086308E06168C0
:10186000FA48416304E06168F948416300E000BF61
:1018700000BF3DE66688012E06D0022E08D0042E59
:101880000AD0082E10D10BE06068F04988620CE0A5
:101890006068EF49886208E06168EC48C16204E072
:1018A0006168EB48C16200E000BF00BF20E66788C6
:1018B000012F07D1E168E748C0F8D0112169C0F8CD
:1018C000D4111CE0022F07D1E168E248C0F8D8111A
:1018D0002169C0F8DC1112E0042F07D1E168DD486E
:1018E000C0F8E0112169C0F8E41108E0082F06D122
:1018F000E168D848C0F8E8112169C0F8EC11A08867
:10190000401E2862D4F8060028676089E867A08A2C
:10191000D049086008680EF0F4FB4FF47A71286F24
:1019200091FBF0F0C949C1F8D0004FF47A71286FEB
:1019300091FBF0F0C649C1F8D000C448D0F8D000FF
:10194000B0F57A7F08DD4FF47A70C049C1F8D00055
:10195000BF49C1F8D0000BE0BC48D0F8D000012846
:1019600006DA0120B949C1F8D000B949C1F8D00060
:10197000286F0BF0D4FAB8498862286F0BF0CFFAC1
:10198000B6498862B4E50120B5498863C863E08838
:1019900008612089886060894861A089C86008461C
:1019A00000690D2807D0084600690E2803D00846B4
:1019B00000690F2812D1AA48806BA949086408461B
:1019C00040690D2807D0084640690E2803D0084614
:1019D00040690F2802D10020A1494861A048406910
:1019E0000D2807D09E4840690E2803D09C484069C6
:1019F0000F2812D19A48C06B9949086408460069BB
:101A00000D2807D0084600690E2803D00846006953
:101A10000F2802D1002092490861914800691328DB
:101A200070D2DFE800F00A162740596F6F6F6F6FB2
:101A3000708099B2FDFCFBFAF900012006F083FAF0
:101A4000002088494862884808600020844908636B
:101A5000ABE2012006F077FA81488068012802D1C4
:101A60008049086102E000207E4908617F487D4985
:101A700008609AE2012006F066FA0220784988613F
:101A80000020086208468068012802D17549086173
:101A900002E002207349086175487249086000201D
:101AA0006F49086381E2012006F04DFA04206C4979
:101AB00088610020086208468068012802D16949CF
:101AC000086102E00220674908616A4865490860C8
:101AD00000206349086368E2012006F034FA082018
:101AE0005F4988610020086208468068012802D1A9
:101AF0005C49086102E002205A4908615E48594980
:101B0000086052E250E2022006F01DFA5B48554997
:101B1000886053488068012801D1086102E00020F4
:101B20005049086141E2022006F00DFA01204D49BA
:101B3000486220204A49086200208861084680687F
:101B4000012802D14749486102E002204549486125
:101B50004B484449886028E2022006F0F4F901204D
:101B60004049486280203E4908620020886108465A
:101B70008068012802D13B49486102E002203949CE
:101B800048614048374988600FE23F48D0F8B000CC
:101B9000012818D13D4800683D4908603B4840682D
:101BA00048603A48806888603848C06808613748AB
:101BB0000069486135484069886134488069C86077
:101BC0003248C06908623048D0F8B000022818D105
:101BD0002E48006A2E4908602C48406A48602B480D
:101BE000806A88602948C06A08612848006B48619B
:101BF0002648406B88612548806BC8602348C06BCD
:101C000008622148D0F8B00003281ED11F48006C9C
:101C10001F4908601D4804E0BFE1B7E1AFE117E1EB
:101C200075E0406C48601948806C88601748C06C4B
:101C300008611648006D48611448406D886113487A
:101C4000806DC8601148C06D086223E070070020F5
:101C5000F40800202C630020780C0020F40C0020F5
:101C600008000020340500202D32010895320108BB
:101C7000FD320108D3360108B13C01087732010872
:101C8000BB3E0108F740010838650020606B00206A
:101C9000FC040020FC48D0F8B000042818D1FB4810
:101CA000006EFB490860F948406E4860F748806E56
:101CB0008860F648C06E0861F448006F4861F348D8
:101CC000406F8861F148806FC860F048C06F08625B
:101CD000022006F038F9EF48806BEE4908640846A8
:101CE0008068012805D1EC48E949886201204862F2
:101CF00004E0EA48E649886200204862E44813F0BC
:101D00007EF812F087FF0120E149C8624DE1DE480C
:101D1000D0F8B000012818D1DC480068DC49086020
:101D2000DA4840684860D94880688860D748C06809
:101D30000861D64800694861D44840698861D34841
:101D40008069C860D148C0690862CF48D0F8B00047
:101D5000022818D1CD48006ACD490860CB48406AB6
:101D60004860CA48806A8860C848C06A0861C74835
:101D7000006B4861C548406B8861C448806BC8608F
:101D8000C248C06B0862C048D0F8B000032818D120
:101D9000BE48006CBE490860BC48406C4860BB4807
:101DA000806C8860B948C06C0861B848006D4861B3
:101DB000B648406D8861B548806DC860B348C06D55
:101DC0000862B148D0F8B000042818D1AF48006EBE
:101DD000AF490860AD48406E4860AC48806E88608E
:101DE000AA48C06E0861A948006F4861A748406FC3
:101DF0008861A648806FC860A448C06F086202204E
:101E000006F0A1F8A348806BA2490864A0480069C5
:101E10009F4908600846406940424860084680691A
:101E200088609C488068012804D19B488862012012
:101E3000486204E0994896498862002048629448C4
:101E400012F0DDFF12F0E6FE01209149C862ACE01D
:101E50008D48D0F8B000012818D18C4800688C4912
:101E600008608A4840684860884880688860874879
:101E7000C068086185480069486184484069886194
:101E800082488069C8608148C06908627E48D0F88D
:101E9000B000022818D17D48006A7D4908607B485F
:101EA000406A48607948806A88607848C06A0861FA
:101EB0007648006B48617548406B88617348806B59
:101EC000C8607248C06B08626F48D0F8B000032841
:101ED00018D16E48006C6E4908606C48406C4860D0
:101EE0006A48806C88606948C06C08616748006D0A
:101EF00048616648406D88616448806DC860634889
:101F0000C06D08626048D0F8B000042818D15F485E
:101F1000006E5F4908605D48406E48605B48806EB7
:101F200088605A48C06E08615848006F4861574839
:101F3000406F88615548806FC8605448C06F086220
:101F4000022006F000F85348806B524908640846A6
:101F50008068012805D150484D49886201204862B7
:101F600004E04E484A49886200204862484812F01E
:101F700046FF12F04FFE01204549C86215E00220DD
:101F800005F0E1FF4648474988600EE0022005F071
:101F9000DAFF45484349886007E0022005F0D3FF97
:101FA00042484049886000E000BF00BF39484069AE
:101FB000132868D2DFE800F00A15263F58676767E4
:101FC00067678B9BB4CDFEFDFCFBFA00012005F09A
:101FD0008AFF374833494860002088622D494863AA
:101FE000C3E2012005F07FFF2A48C068012802D122
:101FF0002C49886102E000202A4988612D4829493E
:102000004860B2E2012005F06EFF02202149C8615C
:10201000002048620846C068012802D12149886131
:1020200002E002201F49886123481E4948600020C1
:102030001849486399E2012005F055FF042015492D
:10204000C861002048620846C068012802D11549CD
:10205000886102E0022013498861184811494860EC
:1020600000200C49486380E2012005F03CFF082075
:102070000849C861002048620846C06801281FD18D
:10208000084988611FE06FE238650020606B00201E
:10209000FC04002008000020C94A0108D94A0108B0
:1020A000C748010834050020B54701082946010842
:1020B0002D320108B7320108DD340108AF390108BB
:1020C0000220FE498861FE48FC4948604DE202203A
:1020D00005F009FFFB48F949C860FB48C0680128C2
:1020E00001D1886102E00020F44988613DE20220CC
:1020F00005F0F9FE0120F14988622020F24948628A
:102100000020C8610846C068012802D1EB49C861B7
:1021100002E00220E949C861EC48E849C86024E2CD
:10212000022005F0E0FE0120E44988628020E649B3
:1021300048620020C8610846C068012802D1DF4912
:10214000C86102E00220DD49C861E148DB49C8609E
:102150000BE2E048D0F8B00001281AD1DE48006850
:10216000DE490860DC4840684860DB488068886079
:10217000D948C0680861D84800694861D6484069B4
:102180008861D5488069C860D348C069086200206A
:102190000862D048D0F8B00002281ED1CE48006AAC
:1021A000CE490860CC48406A486004E0D5E1CDE102
:1021B000C5E110E16CE0C848806A8860C648C06A22
:1021C0000861C548006B4861C348406B8861C248DC
:1021D000806BC860C048C06B0862BE48D0F8B000D1
:1021E000032818D1BC48006CBC490860BA48406C50
:1021F0004860B948806C8860B748C06C0861B648D0
:10220000006D4861B448406D8861B348806DC86016
:10221000B148C06D0862AF48D0F8B000042818D1AA
:10222000AD48006EAD490860AB48406E4860AA48B2
:10223000806E8860A848C06E0861A748006F48613A
:10224000A548406F8861A448806FC860A248C06FED
:102250000862022005F047FE9B48C06B9A4908645B
:102260000846C068012805D19D489C498862012024
:10227000486204E09B489949886200204862974878
:1022800012F0BDFD12F0C6FC01209449C8626CE159
:102290009048D0F8B00001281AD18F4800688F49C3
:1022A00008608D48406848608B48806888608A482C
:1022B000C06808618848006948618748406988614A
:1022C00085488069C8608448C06908620020086247
:1022D0008048D0F8B000022818D17F48006A7F49B2
:1022E00008607D48406A48607B48806A88607A4818
:1022F000C06A08617848006B48617748406B886124
:102300007548806BC8607448C06B08627148D0F82B
:10231000B000032818D17048006C704908606E48FE
:10232000406C48606C48806C88606B48C06C086189
:102330006948006D48616848406D88616648806DF5
:10234000C8606548C06D08626248D0F8B0000428D3
:1023500018D16148006E614908605F48406E48606E
:102360005D48806E88605C48C06E08615A48006FA6
:1023700048615948406F88615748806FC860564827
:10238000C06F0862022005F0AEFD4F48C06B4E4999
:102390000864524800695149086008464069404253
:1023A00048600846806988604748C068012804D1B1
:1023B0004B4888620120486204E04A4847498862E5
:1023C00000204862454812F01AFD12F023FC01205B
:1023D0004249C862C9E03F48D0F8B00001281ED188
:1023E0003D4800683D4908603B48406848603A48BD
:1023F000806888603848C06808613748006948616B
:1024000035484069886134488069C8603248C0698D
:10241000086200203049C1F88000C1F884002D48CE
:10242000D0F8B000022818D12B48006A2B49086068
:102430002948406A48602848806A88602648C06AFF
:1024400008612548006B48612348406B8861224839
:10245000806BC8602048C06B08621E48D0F8B0008E
:10246000032818D11C48006C1C4908601A48406CAD
:1024700048601948806C88601748C06C086116482D
:10248000006D48611448406D88611348806DC860D4
:102490001148C06D08620F48D0F8B00004282FD151
:1024A0000D48006E0D4908600B48406E48600A48B0
:1024B000806E88600848C06E086115E03405002011
:1024C000293D01085532010808000020A13D0108FE
:1024D000EB3F010838650020606B0020FC04002001
:1024E000E94A0108F94A0108FE48006F4861FD48C1
:1024F000406F8861FB48806FC860FA48C06F08620F
:10250000022005F0F0FCF848C06BF7490864084663
:10251000C068012805D1F548F54988620120486264
:1025200004E0F448F249886200204862F04812F062
:1025300066FC12F06FFB0120ED49C86215E0022035
:1025400005F0D1FCEC48ED49C8600EE0022005F032
:10255000CAFCEB48E949C86007E0022005F0C3FC6B
:10256000E848E649C86000E000BF00BF2AE26068B2
:10257000DF490860A0684860E068886020690861F9
:1025800060694861A0698861E069C860206A086282
:102590000020D449C1F88000C1F884006088012877
:1025A00006D002281ED0042836D0082868D14DE075
:1025B000CF480068CB490860CD4840684860CC48A7
:1025C00080688860CA480069C860C9484069086175
:1025D000C74880694861C648C0688861C448006AC5
:1025E000C8614EE0C2480068BE490862C048406801
:1025F0004862BF4880688862BD480069C862BC48BC
:1026000040690863BA4880694863B948C06888630C
:10261000B748006AC86334E0B5480068B149086447
:10262000B34840684864B24880688864B04800692C
:10263000C864AF4840690865AD4880694865AC48E2
:10264000C0688865AA48006AC8651AE0A84800689A
:10265000A4490866A64840684866A5488068886618
:10266000A3480069C866A24840690867A048806915
:1026700048679F48C06888679D48006AC86700E04F
:1026800000BF00BF9EE12688012E06D0022E14D086
:10269000042E22D0082E40D12FE054F8020F9A4980
:1026A000086060684860A0688860E068C860208A48
:1026B000A41E48610020086130E054F8020F9349DD
:1026C000086060684860A0688860E068C860208A28
:1026D000A41E48610020086120E054F8020F8C49D4
:1026E000086060684860A0688860E068C860208A08
:1026F000A41E48610020086110E054F8020F8549CB
:10270000086060684860A0688860E068C860208AE7
:10271000A41E48610020086100E000BF00BF51E135
:10272000A088012802D120207B490861A0880228C6
:1027300002D12120784908617748006920287DD19D
:1027400005207649C8630A2008640F2048640A20DF
:1027500088640520C86408654865462088653C2073
:10276000C8651420086605206D49C8630A200864FE
:102770000F2048640A2088640520C86408654865FD
:10278000462088653C20C865142008666348C16BF4
:102790006448C0F8F8126148016C6248C0F8FC1245
:1027A0005E48416C5F48C0F800135C48816C5D482E
:1027B000C0F804135948C16C5A48C0F80813574868
:1027C000016D5848C0F80C135448416D5548C0F885
:1027D00010135248816D5348C0F814134F48C16D0F
:1027E0005048C0F818134D48016E4E48C0F81C13ED
:1027F0004B48C16B4B48C0F820134948016C49480D
:10280000C0F824134648416C4648C0F82813444891
:10281000816C4448C0F82C134148C16C4148C0F851
:1028200030133F48016D3F48C0F834133C48416DB8
:102830003C48C0F838133A48816D00E010E0394850
:10284000C0F83C133648C16D3648C0F840133448D0
:10285000016E3448C0F844134AF65521C0F84813B5
:102860002D48006921283CD105202C49C863072048
:10287000086448640A2088643220C8640F20086510
:1028800048658865C865086605202549C86307202E
:10289000086448640A2088643220C8640F200865F0
:1028A00048658865C86508661C48C16B1D48C0F846
:1028B000F8121A48016C1B48C0F8FC121748416C0A
:1028C0001848C0F800131548816C1648C0F8041366
:1028D0001248C16C1348C0F808131048016D114824
:1028E00022E06DE0606B002008000020E94A01084A
:1028F000FC040020F94A01081745010834050020AE
:102900000544010893420108700D0020880D002045
:10291000A00D0020B80D00208C670020780C00204E
:10292000F40C0020F4670020C0F80C13F448416D4B
:10293000F448C0F81013F248816DF248C0F814133F
:10294000EF48C16DEF48C0F81813ED48016EED482F
:10295000C0F81C13EC48C16BEA48C0F82013EA48E1
:10296000016CE848C0F82413E748416CE548C0F81A
:102970002813E548816CE348C0F82C13E248C16C89
:10298000E048C0F83013E048016DDE48C0F8341369
:10299000DD48416DDB48C0F83813DB48816DD9480C
:1029A000C0F83C13D848C16DD648C0F84013D6488B
:1029B000016ED448C0F844134AF65521C0F84813B4
:1029C00000E000BF00BFBDE8F08710B5034600205F
:1029D000CE49CF4A00BF012B06D0022B28D0042BB2
:1029E0004AD0082B7ED16BE08C6A012C07D08C6A10
:1029F000022C04D091F83C4004F001041CB140F0DA
:102A0000100040F02000C34CA46B012C05D1D2F87B
:102A1000C440012C01D140F48010BE4CE46B012C69
:102A200005D1D2F8C840012C01D140F400106EE06D
:102A3000CC6A012C07D0CC6A022C04D091F83C401F
:102A400004F001041CB140F0100040F02000B14C33
:102A5000A46B022C05D1D2F8C440012C01D140F462
:102A60008010AC4CE46B022C05D1D2F8C840012C8C
:102A700001D140F400104AE00C6B012C07D00C6B24
:102A8000022C04D091F83C4004F001041CB140F049
:102A9000100040F020009F4CA46B042C05D1D2F80C
:102AA000C440012C01D140F480109A4CE46B042CFA
:102AB00005D1D2F8C840012C01D140F4001026E025
:102AC0004C6B012C07D04C6B022C04D091F83C408D
:102AD00004F001041CB140F0100040F020008D4CC7
:102AE000A46B00E012E0082C05D1D2F8C440012C00
:102AF00001D140F48010874CE46B082C05D1D2F84A
:102B0000C840012C01D140F4001000E000BF00BF1C
:102B100010BD30B58FB004467C4D50207E494871C1
:102B20000C70200A4870382088700020C8708120FE
:102B3000087140F24440844204D10020C870012052
:102B4000887008710120ADF8040074480068CDF861
:102B500006000020CDF80A000120FFF736FFCDF86F
:102B60000E000220ADF812006D48006805900020AC
:102B700006900220FFF729FF07900420ADF82000FF
:102B800066484068CDF822000020CDF826000420D9
:102B9000FFF71BFFCDF82A000820ADF82E00604893
:102BA00040680C9000200D900820FFF70EFF0E905B
:102BB0000621594805F057FE40F24440844203D0B4
:102BC000382101A805F04FFE0FB030BD2DE9F04FC0
:102BD0002DED048BADB000200D909FED520AB0EEAC
:102BE000409A0C909FED500AF0EE409ADFF820A139
:102BF00046480A904D480B904D48008880B214908A
:102C000016A81590851D4A4CA41D00211598C17069
:102C100001211598017150211598417100201390E0
:102C2000129040F223521499881A914267D031DCF5
:102C300040F21322A1EB020091427BD014DC122956
:102C400079D007DC022977D0052977D0112942F005
:102C50000086D1E0142901F02885152902F0A2850B
:102C6000B1F5047FF3D112E140F27F22811A904244
:102C70007ED008DC10287CD0A0F23220002879D049
:102C80000B28E4D1FAE36E2975D08E2974D08F29F0
:102C9000DDD1F4E3B0F56C7F00F0068719DC40F27B
:102CA0006312A0EB0201904267D006DC012876D0C7
:102CB000032875D00428CAD1FDE3A1F23A210029E6
:102CC00001F05083012901F052831029BFD101F096
:102CD00065BB40F2B632811A904201F0B88009DC3F
:102CE000A0F2B13000287AD0012800F0D187032863
:102CF000ADD1FDE3072973D00929A8D1A7E013E1DD
:102D0000780C0020F4670020F40C0020100700204D
:102D1000A0630020080000204D0000207007002064
:102D2000F40800200000803D00000000406B0020FF
:102D3000F8110020BFE06BE08DE0FFE70621159859
:102D400001805421159881701598007940F0800118
:102D5000159801715422F849284615F08DFBF74863
:102D600000682860F6A0007885F84200F4A005E02D
:102D70006CE036E0FEE3D6E082E356E041784320A3
:102D80004155EFA0C17844204155EDA0017945207F
:102D90004155EEA00079202803D1302003E040E324
:102DA000E9E3EAA0007946214855E8A041794720A7
:102DB0004155E6A0017848204155E4A041784920DA
:102DC0004155E2A081784A20415500214B204155D0
:102DD000012013900220E049086002F03ABDD7E3D9
:102DE00045E00120DD49C1F898000020C1F89C00B1
:102DF0004020DB494864F0E70A98406A20F480608C
:102E000000F580600A99486200210A984164E4E76D
:102E10000A98406A20F480610A9841620A98406AE0
:102E200020F400610A984162D7E70AF0C4F8FDF780
:102E3000E4FA012005F03EFC07F08CFA07F051FDA2
:102E4000022005F037FC07F012FBC6E700BF0021A7
:102E50000A984164C1E70420BF490860002013902C
:102E60000A98406A20F400610A984162B5E70A981E
:102E7000406A20F4006000F500600A99486240F65C
:102E8000E100FFF746FE00210A984164A5E7B54836
:102E9000807810901098012806D0022805D00428C8
:102EA00004D0082804D102E003E002E001E000E0E1
:102EB00000BF00BF91E7AB4880781090109800F0F9
:102EC000010050B1A8488068012802D1CAF8CC009E
:102ED0000EE00020CAF8CC000AE0A3488068012870
:102EE00003D10020CAF8CC0002E00120CAF8CC00CF
:102EF000109800F0020050B19B48C068012802D130
:102F0000CAF8D0000EE00020CAF8D0000AE09648C7
:102F1000C068012803D10020CAF8D00002E00120D7
:102F2000CAF8D00059E758E760898F498863A089BB
:102F3000C86360880861E0884861A088886020894B
:102F4000C8600846006913287ED2DFE800F00A1640
:102F50001D364F7D7D7D7D7D656C87A0BDE4F3F2E0
:102F6000F100012004F0EFFF002080494862804812
:102F7000086000207C49086334E1012004F0E3FF8D
:102F80007C487A4908602DE1012004F0DCFF022032
:102F9000754988610020086208468068012802D1CE
:102FA0007249086102E002207049086172486F4965
:102FB000086000206C49086314E1012004F0C3FF9D
:102FC0000420694988610020086208468068012859
:102FD00002D16649086102E002206449086167483D
:102FE00062490860002060490863FBE0012004F0AA
:102FF000AAFF08205C4988610020086208468068B2
:10300000012802D15949086102E0022057490861AC
:103010005B4856490860E5E0022004F094FF5948F7
:1030200052498860DEE0022004F08DFF01204F4904
:10303000486220204C490862002088610846806868
:10304000012804D1494900E0CBE0486102E00220B8
:10305000464948614C4845498860C3E0022004F075
:1030600072FF01204149486280203F4908620020E8
:10307000886108468068012802D13C49486102E025
:1030800002203A494861414838498860AAE0022054
:1030900004F059FF34488068012805D13C483D4977
:1030A00088620120486204E03B483A498862002077
:1030B0004862384811F0A3FE11F0ACFD00203549FC
:1030C00008620120C8628DE0022004F03CFF314814
:1030D0000069304908600846406940424860084637
:1030E0008069886020488068012804D12848886267
:1030F0000120486204E0284826498862002048628E
:10310000244811F07CFE11F085FD00202149086261
:103110000120C86266E0022004F015FF12488068B2
:1031200001283BD11A481B498862012048623AE0D5
:1031300050E048E040E0000088040020F4670020F0
:1031400030383A31383A3036000000004E6F762081
:1031500032372032303230007867002034060020C9
:1031600038650020F81100200800002034050020F8
:103170002D32010895320108FD320108D3360108CD
:10318000B13C010877320108BB3E0108F740010855
:10319000C94A0108FC040020D94A0108FD48FE493B
:1031A000886200204862FC4811F029FE11F032FDCF
:1031B0000120F949C86215E0022004F0C4FEF74876
:1031C000F74988600EE0022004F0BDFEF548F4499E
:1031D000886007E0022004F0B6FEF348F0498860FA
:1031E00000E000BF00BFF148406913287ED2DFE84D
:1031F00000F00A151C354E7D7D7D7D7D646B859EBE
:10320000BBE2F1F0EF00012004F06DFEE848E44974
:10321000486000208862E549486300E1012004F02D
:1032200062FEE448DE494860F9E0012004F05BFEFC
:103230000220DE49C861002048620846C0680128B3
:1032400002D1D749886102E00220D5498861DA4875
:10325000D34948600020D5494863E0E0012004F0EC
:1032600042FE0420D149C861002048620846C06877
:10327000012802D1CA49886102E00220C849886158
:10328000CE48C74948600020C8494863C7E00120CC
:1032900004F029FE0820C549C8610020486208469C
:1032A000C068012802D1BE49886102E00220BC4901
:1032B0008861C348BA494860B1E0022004F013FEB7
:1032C000C048B749C860AAE0022004F00CFE012003
:1032D000B34988622020B54948620020C861084689
:1032E000C068012803D1AE49C86103E096E002201E
:1032F000AB49C861B448AA49C86090E0022004F014
:10330000F2FD0120A64988628020A8494862002079
:10331000C8610846C068012802D1A149C86102E01D
:1033200002209F49C861A9489D49C86077E00220F2
:1033300004F0D9FD9D48C068012805D1A4489649EC
:1033400088620120486204E0A24893498862002014
:103350004862914811F053FD11F05CFC00208E4949
:1033600008620120C8625AE0022004F0BCFD8A48CD
:10337000006989490860084640694042486008463B
:10338000806988608948C068012804D190488862B3
:103390000120486204E08F487F498862002048622B
:1033A0007D4811F02CFD11F035FC00207A490862AF
:1033B0000120C86233E0022004F095FD7B48C0681C
:1033C000012808D18248744988620120486207E0D8
:1033D0001DE015E00DE07F486F49886200204862DB
:1033E0006D4811F00CFD11F015FC01206A49C8620E
:1033F00015E0022004F077FD77486949C8600EE0C7
:10340000022004F070FD75486549C86007E002209D
:1034100004F069FD72486249C86000E000BF00BF67
:10342000DBE440F225511598016016211598817052
:103430001598007940F08001159801715B48008F64
:1034400028805A48008F68815848808FA881574843
:10345000008A68805548808AE88054480089A8809E
:103460005248808928810020E881002105F10E0062
:1034700029826982A98201201390AEE439E14EE0ED
:103480005848807810906088401ECAF82000606814
:10349000CAF86C00A068CAF87400A089CAF87C0059
:1034A000109801280AD1D4F80E104F48C0F8D01156
:1034B000D4F8121000E0D8E0C0F8D4111098022817
:1034C00008D1D4F80E104848C0F8D811D4F812101A
:1034D000C0F8DC111098042808D1D4F80E10424826
:1034E000C0F8E011D4F81210C0F8E411109800E010
:1034F0008FE2012808D1D4F80E103B48C0F8E8113B
:10350000D4F81210C0F8EC117F21DAF86C0090FBAF
:10351000F1F036490867E08A334908605DE440F21B
:103520002251159801602421159881701598007911
:1035300040F08001159801712A4880781090109809
:103540002880BAF82000401E6880DAF86C006860B5
:10355000DAF87400A860BAF87C00A88122480088D4
:10356000E882109801280CD11F48D0F8D001C5F886
:103570000E0001E0B5E062E01B48D0F8D401C5F8C8
:103580000E00109802283AD11748D0F8D8012FE041
:10359000B7E00000D94A0108FC040020C748010830
:1035A00034050020B547010829460108080000201D
:1035B0002D320108B7320108DD340108AF390108A6
:1035C000293D010855320108A13D0108EB3F0108E2
:1035D000E94A0108F94A01081745010805440108AC
:1035E00093420108F81100202C63002034060020CB
:1035F000C5F80E00FB48D0F8DC01C5F80E001098A5
:10360000042809D1F748D0F8E001C5F80E00F548C4
:10361000D0F8E401C5F80E001098082809D1F14847
:10362000D0F8D801C5F80E00EE48D0F8D801C5F89A
:103630000E000020688328830120139005E454F8CD
:10364000020FE949086060684860A0688860A06966
:10365000C860E06808612069486160698861A069A4
:10366000C861E069A41E086210E44FF4A5611598D2
:1036700001602E21159881701598007940F0800125
:10368000159801710120AD1C25F8020CD648006880
:103690002860D54840686860D3488068A860D248F0
:1036A000C068A861D048006AE861CF48006944F862
:1036B0000E0FCD4840696060CB488069A060CA4861
:1036C000C069A0600E3C00202884AD1E002105F1D9
:1036D0002200A984E98429856985A98501201390A0
:1036E00020E42688D4F802000E90C0490E980860A5
:1036F00018E42688D4F802000E90BC490E98486061
:1037000010E4BB48D0F87801082804D0B948D0F8B4
:103710007801082806D10020B549C1F87801B549DB
:10372000C1F878012688D4F802000E90B248D0F88B
:10373000B00007287DD2DFE800F004052E5781AAEB
:10374000FD0062E1AD48806A28B100BF00200AF0A8
:1037500078FB0028FAD106F00100D8B10020A44976
:10376000C1F814010E988860084680680968401AFC
:103770009F49C1F8EC00012100200AF053F981466D
:10378000B9F5807F03D100209C49886202E00120C6
:103790009A49886239E19948C06A28B100BF00207F
:1037A0000AF06FFB0028FAD106F00200D8B1002021
:1037B0009049C1F814010E9888600846806809682D
:1037C000401A8C49C1F8EC000121002009F0B5FF36
:1037D0008146B9F5807F03D100218848C16202E0AB
:1037E00001218648C16210E18448006B28B100BF06
:1037F00001200AF026FB0028FAD106F00400E0B10F
:1038000001207B49C1F814010E98C8600846C068C1
:103810004968411A7648C0F8F010012108460AF0BC
:1038200001F98146B9F5807F04D100217348016315
:1038300003E0E9E0012171480163E6E06F48406B75
:1038400028B100BF00200AF01CFB0028FAD106F0C6
:103850000800D8B101206749C1F814010E98C8606A
:103860000846C0684968411A6248C0F8F010012152
:10387000084609F062FF8146B9F5807F03D1002137
:103880005E48416302E001215C484163BDE05B4862
:10389000806A40B106F0010028B100BF00200AF0A4
:1038A000D0FA0028FAD15548C06A40B106F00200AB
:1038B00028B100BF00200AF0E4FA0028FAD106F08F
:1038C0000100D8B100204A49C1F814010E9888605F
:1038D000084680680968401A4549C1F8EC00012192
:1038E00000200AF09FF88146B9F5807F03D10020BF
:1038F0004249886202E001204049886206F00200E5
:10390000E0B100203B49C1F814010E9888600846D8
:1039100080680968401A3749C1F8EC00012100208D
:1039200009F00BFF8146B9F5807F04D100213348AF
:10393000C16203E003E001213048C16265E02F4825
:10394000006B40B106F0040028B100BF01200AF06E
:1039500078FA0028FAD12948406B40B106F00800F7
:1039600028B100BF01200AF08CFA0028FAD106F035
:103970000400D8B101201E49C1F814010E98C86096
:103980000846C0684968411A1948C0F8F01001217A
:1039900008460AF047F88146B9F5807F03D1002137
:1039A0001648016302E001211448016306F0080093
:1039B00048B301200F49C1F814010E98C8600846A9
:1039C000C0684968411A0B48C0F8F0100121084648
:1039D00009F0B3FE8146B9F5807F11D10021074877
:1039E000416310E02C630020FC0400200000002054
:1039F00070070020F4080020386500201007002020
:103A00000121FA48416300E000BF00BF002013908D
:103A100006E5F748867806F0010070B10020F54908
:103A20000864F248806A28B100BF00200AF009FA51
:103A30000028FAD10120FDF70FF806F0020070B15E
:103A40000020ED490864E948C06A28B100BF0020A1
:103A50000AF017FA0028FAD10220FCF7FDFF06F061
:103A6000040070B10021E3484164E048006B28B1D4
:103A700000BF01200AF0E5F90028FAD10420FCF784
:103A8000EBFF06F0080070B10021DB484164D74825
:103A9000406B28B100BF01200AF0F3F90028FAD1E9
:103AA0000820FCF7D9FFBBE42688D4F802000E906A
:103AB000D248D0F8B00007287ED2DFE800F0040535
:103AC00025456586CB00DFE0C848806A28B100BF85
:103AD00000200AF0B6F90028FAD106F0010090B1F2
:103AE000C4490E98C1F8EC000121002009F09AFFAA
:103AF0008146B9F5807F03D10020BC49886202E08D
:103B00000120BA498862BFE0B848C06A28B100BF46
:103B100000200AF0B6F90028FAD106F0020090B1B0
:103B2000B5490E98C1F8EC000121002009F005FE0E
:103B30008146B9F5807F03D10021AC48C16202E023
:103B40000121AA48C1629FE0A848006B28B100BFCC
:103B500001200AF076F90028FAD106F0040090B1AD
:103B6000A4490E98C1F8F0000121084609F05AFF57
:103B70008146B9F5807F03D100219C48016302E0B2
:103B800001219A4801637FE09848406B28B100BF4B
:103B900000200AF076F90028FAD106F0080098B162
:103BA00095490E98C1F8F0000121084609F0C5FDBD
:103BB000B9F5807F05D100E065E000218B484163C5
:103BC00002E00121894841635EE08848806A40B193
:103BD00006F0010028B100BF00200AF032F90028E9
:103BE000FAD18248C06A40B106F0020028B100BF95
:103BF00000200AF046F90028FAD106F0010090B141
:103C00007C490E98C1F8EC000121002009F00AFF60
:103C10008146B9F5807F03D100207449886202E0B3
:103C200001207249886206F0020090B172490E9834
:103C3000C1F8EC000121002009F07FFD8146B9F5B3
:103C4000807F03D100216948C16202E001216748F9
:103C5000C16219E06548006B40B106F0040028B16C
:103C600000BF01200AF0EDF80028FAD15F48406B50
:103C700040B106F0080028B100BF01200AF001F9A8
:103C80000028FAD100E000BF00BF0020139045E4F7
:103C90005748C77886785948D0F8B000072874D2BA
:103CA000DFE800F004051D354D659500CBE006F01A
:103CB000010098B1012F08D151484E49C1F8EC00DC
:103CC0000121002009F0AEFE08E04D48404249497C
:103CD000C1F8EC000121002009F0A4FEB3E006F0D9
:103CE000020098B1012F08D145484349C1F8EC00C2
:103CF0000121002009F021FD08E0414840423E49F1
:103D0000C1F8EC000121002009F017FD9BE006F04E
:103D1000040098B1012F08D139493648C0F8F01095
:103D20000121084609F07EFE08E035494942314844
:103D3000C0F8F0100121084609F074FE83E006F097
:103D4000080098B1012F08D12D492B48C0F8F01078
:103D50000121002009F0F1FC08E0294840422649F1
:103D6000C1F8EC000121002009F0E7FC6BE006F04F
:103D70000100A0B1012F09D121481E49C1F8EC0072
:103D80000121002009F04EFE09E05BE01C484042A2
:103D90001849C1F8EC000121002009F043FE06F0AB
:103DA000020098B1012F08D115481349C1F8EC0061
:103DB0000121084609F0C1FC08E0114840420E49C3
:103DC000C1F8EC000121084609F0B7FC3BE006F021
:103DD0000400F8B1012F15D109490648C0F8F010C8
:103DE0000121084609F01EFE14E000001007002023
:103DF000F811002070070020F4080020386500202A
:103E000078FDFF7FFA49FB48C0F8F0100121084611
:103E100009F008FE06F0080098B1012F09D1F44915
:103E20004942F548C0F8F0100121084609F085FC28
:103E300007E0EF48F049C1F8EC000121084609F01D
:103E40007CFC00E000BF00BF002013900CE4EB48B6
:103E50008678C778EA48D0F8B00007287ED2DFE835
:103E600000F00405519FEAFEFD0077E2E548806A14
:103E700028B100BF002009F0E4FF0028FAD106F0C5
:103E8000010080B3DB48006F022820D1012F06D14A
:103E9000D848D0F88000D749C1F8EC0008E0022FDC
:103EA00006D1D448D0F888004042D249C1F8EC008D
:103EB0000221002009F0B6FD8146B9F5807F03D1CB
:103EC0000020D049886202E00220CE498862C948B9
:103ED000006F012815D1012F06D1C5484042C549C0
:103EE000C1F8EC0006E00CE0022F03D1C048C14944
:103EF000C1F8EC000221002009F094FD0220C14924
:103F000088622BE2BF48C06A28B100BF002009F0D8
:103F1000B8FF0028FAD106F0020090B3B648006F4F
:103F2000022822D1012F06D1B348D0F88000B2492F
:103F3000C1F8EC0008E0022F06D1AF48D0F88800A5
:103F40004042AD49C1F8EC000221002009F0F5FB28
:103F50008146B9F5807F05D1002100E0FDE1A94847
:103F6000C16202E00221A748C162A348006F012894
:103F700015D1012F06D19E4840429F49C1F8EC005F
:103F800006E00CE0022F03D199489B49C1F8EC00F0
:103F90000221002009F0D1FB02219A48C162DDE133
:103FA0009848006B28B100BF012009F04AFF0028A3
:103FB000FAD106F0040078B38E48406F02281FD172
:103FC000012F05D18B48D0F88410C0F8F01008E01C
:103FD000022F06D18748D0F88C0041428548C0F8AE
:103FE000F0100221012009F01DFD8146B9F5807F06
:103FF00003D100218348016302E00221814801636B
:104000007C48406F012815D1012F06D178494942DB
:104010007848C0F8F01006E00CE0022F03D1744994
:104020007448C0F8F0100221012009F0FBFC0221C5
:104030007448016392E17348406B28B100BF0120CE
:1040400009F01FFF0028FAD106F0080090B36A4873
:10405000406F022822D1012F08D101E0E2E038E0D0
:104060006548D0F88410C0F8F01008E0022F06D19F
:104070006148D0F88C0041425F48C0F8F01002213E
:10408000012009F05AFB8146B9F5807F03D1002158
:104090005C48416302E002215A4841635648406F40
:1040A000012815D1012F06D1514949425248C0F883
:1040B000F01006E00CE0022F03D14D494E48C0F845
:1040C000F0100221012009F038FB02214D48416324
:1040D00044E14C48806A40B106F0010028B100BFBD
:1040E000002009F0AEFE0028FAD14648C06A40B16F
:1040F00006F0020028B100BF002009F0C2FE00282F
:10410000FAD106F0010080B33A48006F022820D1AE
:10411000012F06D13748D0F880003649C1F8EC00AD
:1041200008E0022F06D13348D0F8880040423149D8
:10413000C1F8EC000221002009F074FC8146B9F5B9
:10414000807F03D100202F49886202E002202D49A0
:1041500088622848006F012815D1012F06D1244814
:1041600040422449C1F8EC0006E00CE0022F03D1E4
:104170001F482049C1F8EC000221002009F052FC40
:1041800002202049886206F0020080B31A48006FBE
:10419000022820D1012F06D11748D0F880001649F7
:1041A000C1F8EC0008E0022F06D11348D0F88800CF
:1041B00040421149C1F8EC000221002009F0BDFA8B
:1041C0008146B9F5807F03D100210E48C16202E02B
:1041D00002210C48C1620848006F012821D1012F3B
:1041E00012D1034840420449C1F8EC0012E018E043
:1041F0008802008070070020F4080020F8110020D9
:104200003865002010070020022F03D1FD48FE4929
:10421000C1F8EC000221002009F08FFA0221FB48CE
:10422000C1629BE0F948006B40B106F0040028B180
:1042300000BF012009F005FE0028FAD1F348406BC9
:1042400040B106F0080028B100BF012009F019FEB6
:104250000028FAD106F0040078B3ED48406F022838
:104260001FD1012F05D1EA48D0F88410C0F8F01012
:1042700008E0022F06D1E648D0F88C004142E4481D
:10428000C0F8F0100221012009F0CCFB8146B9F5FD
:10429000807F03D10021DD48016302E00221DB4879
:1042A0000163DB48406F012815D1012F06D1D549A4
:1042B0004942D748C0F8F01006E00CE0022F03D1C5
:1042C000D049D348C0F8F0100221012009F0AAFB20
:1042D0000221CE48016306F0080078B3CA48406F57
:1042E00002281FD1012F05D1C748D0F88410C0F88B
:1042F000F01008E0022F06D1C348D0F88C004142EC
:10430000C148C0F8F0100221012009F016FA8146D8
:10431000B9F5807F03D10021BC48416302E002214E
:10432000BA484163B848406F012815D1012F06D122
:10433000B4494942B448C0F8F01006E00CE0022F3E
:1043400003D1B049B048C0F8F0100221012009F0B3
:10435000F4F90221AD48416300E000BF00BF002036
:10436000139094E4FDF75DF8002013908FE4284645
:10437000FCF7BCFB1290C22115980170082115981A
:1043800041701298C1B2159881701598007940F06B
:104390008001159801710120139078E42088149011
:1043A000149819287DD008DC07281BD00B2879D059
:1043B000152878D0172877D14AE12B2804D02D284A
:1043C00048D0302870D1DDE09248D0F8AC00924956
:1043D00048619048D0F8B0108F4881614AF6552165
:1043E000016260E18A48D0F8D4108B488162884825
:1043F000816B894881638648816C874881648248E3
:10440000D0F8D4108448C1627F48816B8248C16370
:104410007D48816C8048C1647D48D0F8D8107E48C2
:1044200001637B48C16B7C4801647948C16C7A4860
:1044300001657548D0F8D810774841637248C16B60
:10444000754841647048C16C734841654AF655210E
:10445000816528E16E48016F6F4801676A48016F06
:104460006D4841676A48416F6B4881676648416F94
:104470006948C1676648D0F880106748C0F8801066
:104480006148D0F880106448C0F884106048D0F8C3
:1044900084106148C0F888105B48D0F884105E48EA
:1044A00003E0FEE048E07EE0FCE0C0F88C105848F5
:1044B000D0F888105848C0F890105348D0F88810A9
:1044C0005548C0F894105248D0F88C105248C0F8A3
:1044D00098104D48D0F88C104F48C0F89C104C48AC
:1044E000016E4D48C0F8A0104748016E4A48C0F818
:1044F000A4104748416E4848C0F8A8104248416E91
:104500004548C0F8AC104248816E4348C0F8B0102E
:104510003D48816E4048C0F8B4103D48C16E3E48E9
:10452000C0F8B8103848C16E3B48C0F8BC104AF615
:104530005521C0F8D410B6E03748DAF88C10C0F82E
:104540001C11DAF89010C0F82011DAF89410C0F8B5
:104550003411DAF89810C0F83811DAF89C10C0F865
:104560004C11DAF8A010C0F85011DAF8A410C0F815
:104570006411DAF8A810C0F868114AF65521C0F89D
:10458000181190E02548D0F8BC112348C0F8E41079
:104590002248D0F8C0112048C0F8E8104AF655214A
:1045A000C0F8EC107FE01D48D0F8D0111A48C0F8D0
:1045B000D0111A48D0F8D4111748C0F8D4111748B0
:1045C000D0F8D8111448C0F8D8111448D0F8DC112C
:1045D0001148C0F8DC111148D0F8E0110E48C0F8BD
:1045E000E0110E48D0F8E4110B48C0F8E4110B4874
:1045F000D0F8E8110848C0F8E8110848D0F8EC11E4
:1046000005480DE088020080F40800201007002013
:104610007007002038650020F46700202C6300201C
:10462000C0F8EC11DAF87010C0F8F011DAF82010C8
:10463000C0F8F411DAF87C10C0F8F811FE480168EF
:10464000FE48C0F8FC114AF65521C0F800122AE0D5
:10465000FB48008F81B2F948A0F83412F848808FE7
:1046600081B2F648A0F83612F548008A81B2F348C4
:10467000A0F83812F248808A81B2F048A0F83C12C3
:10468000EF48008981B2ED48A0F83A12EC488089E1
:1046900081B2EA48A0F83E124AF65521C0F840120D
:1046A00001E000E000BF00BF5BE620680990D4F89D
:1046B0000480D4F808B0E068089020690790606929
:1046C0000690A0690590E0690490206A0390606AF2
:1046D000029009982C287DD030DCA0F102002A2815
:1046E00081F05D80DFE810F081015B0822015B084A
:1046F0005B085B085B08620077005B0879017D015D
:104700005B08DC046E01760172015B0887005B08C0
:104710005B085B085B085B085B085B085B085B0881
:104720005B085B08EE0487011B0429044F04650441
:1047300069046F04AA02B10464010C0438286BD028
:104740000BDCA0F12D000B28CAD2DFE800F0EEED63
:10475000ECEBEAE9E8E7E6E5E400B0F5A06F75D038
:1047600011DC3E2873D005DC3C2872D03D2841F096
:104770001680E8E0B0F5C87F00F0F587A0F21320BE
:104780000028F4D1FAE040F28662811A904244D0C7
:1047900006DCA0F22350002879D00328E7D1F1E30A
:1047A000A1F25121B9B30229E1D1A0E0002001908A
:1047B00007E00021A34A019842F820100198401C0C
:1047C000019001980A28F4DB9F4840689D494860A1
:1047D00000F0E6BF97E360689B49486048680BF0CB
:1047E0005DFD00209949C1F880009349D1F8F0019E
:1047F0000BF0FCFBECE79548D0F88C0040F0020091
:104800009249C1F88C0090484068914948604AF646
:1048100055208860DCE7A9E050E008F0CCFBFBF70E
:10482000ECFD05F097FD002107200BF0F3FB0120C4
:1048300003F040FF06F055F8022003F03BFF05F0BF
:1048400016FE002107200BF0E5FBC1E7FCE380E04A
:10485000FFE7B8F1000F06D0B8F1010F18D0B8F19A
:10486000020F28D124E011E0002107200BF0D2FB39
:1048700000234FF453721946704805F093FF00214E
:1048800007200BF0C7FB0A2003F014FFECE7F0E36E
:10489000002107200BF0BEFB4FF453720021674844
:1048A00005F0C2FF0190002107200BF0B3FB03E0ED
:1048B000FBF79AFD00E000BF00BF89E75E48C0F843
:1048C000BC81D0F8BC0110B90BF042FB0EE05A4895
:1048D000D0F8BC01012802D10BF03AFB06E05648A3
:1048E000D0F8BC01022801D110F02DF970E747463D
:1048F000012F04D157485849C1F8EC0006E0022FB7
:1049000004D1544840425449C1F8EC00022100202F
:1049100009F088F85CE7E4E2D3E232E2C8E1BAE108
:10492000ACE19EE190E1F6E2F0E247E0002143488D
:10493000C0F8D410012003F0BDFE05F0D2FF022024
:1049400003F0B8FE44E74548C0F84081C0F844B1E0
:104950003EE74148C0F87C81C0F880B140490898E2
:10496000C1F87C010798C1F8800131E704210020DB
:1049700009F058F80120FCF76FF829E7CDF84080DE
:10498000DDF8408008F0010018B10120CAF8CC0021
:1049900002E00020CAF8CC00109800F0020018B124
:1049A0000120CAF8D00002E00020CAF8D0000FE7CA
:1049B00005F0D0FC4046FBF7C9FC09E740460BF088
:1049C00015FB05E72548C0F8408101E72548C0F8F8
:1049D0000080FDE60BF033F8FAE66068CAF84C0098
:1049E000F6E66068CAF84800F2E6606813490860B5
:1049F00000201390ECE64FF400601B4988614010E2
:104A00008861B8F57A7F48D1400488614014886194
:104A100000201149C1F814010846D0F814011349C7
:104A2000486011200860012048610F20C8610846D5
:104A3000C0F834B008981BE02C630020F467002015
:104A400008000020D00D0020DC6700203865002021
:104A5000E867002078FDFF7F70070020780A0020BB
:104A6000F4080020281C004000100240780C0020B0
:104A700088600020FE49C1F814010846D0F81401EE
:104A8000FC49486011200860012048610F20C8617E
:104A90000846C0F834B00898886018F57A7F2DD1A0
:104AA0004FF00060F4498861401488610020F349A8
:104AB000C1F814010846D0F81401F14948601220E9
:104AC0000860012048610520C8610846C0F834B07C
:104AD000089888600020E649C1F814010846D0F81B
:104AE0001401E44948601220086001204861052053
:104AF000C8610846C0F834B008988860B8F5FA6F05
:104B00000BD11120DB490860012048610F20C861EA
:104B10000846C0F834B00898886018F5FA6F0BD1D1
:104B20001220D4490860012048610520C861084668
:104B3000C0F834B00898886040F6B83080452DD170
:104B40004FF40060CC498861C00388610120CB49E3
:104B5000C1F814010846D0F81401C9494860112071
:104B60000860012048610F20C8610846C0F834B0D1
:104B7000089888600120BE49C1F814010846D0F8A1
:104B80001401BC49486011200860012048610F20D1
:104B9000C8610846C0F834B008988860B9488045B4
:104BA0002DD14FF40060B4498861C00388610120B1
:104BB000B249C1F814010846D0F81401B049486060
:104BC00012200860012048610F20C8610846C0F823
:104BD00034B0089888600120A549C1F8140108463E
:104BE000D0F81401A34948601220086001204861F0
:104BF0000F20C8610846C0F834B008988860B8F53E
:104C00007A6F0BD111209B490860012048610F2069
:104C1000C8610846C0F834B00898886018F57A6F03
:104C20000BD1122093490860012048610520C8611A
:104C30000846C0F834B008988860C9E59248C0F8C2
:104C40003880C0F848B0C3E58D48C0F83C80C0F853
:104C500040B08B4908984864079888640698C864EF
:104C6000B6E58748C0F85080C0F854B08449089829
:104C700088650798C86506980866A9E57D48C0F864
:104C80003C80C0F840B07B49089848640798886425
:104C90000698C8649CE57748C0F85080C0F854B0C6
:104CA0007449089888650798C865069808668FE56E
:104CB0007348C16B7548C0F8F8127148016C7348AD
:104CC000C0F8FC126E48416C7048C0F800136C4884
:104CD000816C6E48C0F804136948C16C6B48C0F819
:104CE00008136748016D6948C0F80C136448416DAA
:104CF0006648C0F810136248816D6448C0F8141308
:104D00005F48C16D6148C0F818135D48016E5F4887
:104D1000C0F81C135748C16B5C48C0F820135548B5
:104D2000016C5A48C0F824135248416C5748C0F8E7
:104D300028135048816C5548C0F82C134D48C16C5D
:104D40005248C0F830134B48016D5048C0F8341336
:104D50004848416D4D48C0F838134648816D4B486E
:104D6000C0F83C134348C16D4848C0F8401341485F
:104D7000016E4648C0F844134AF65521C0F848135E
:104D800026E505203E49C8630A2008640F204864D0
:104D90000A2088640520C86408654865462088653F
:104DA0003C20C8651420086605203249C8630A20E3
:104DB00008640F2048640A2088640520C8640865D8
:104DC0004865462088653C20C865142008662C4844
:104DD000C16B2E48C0F8F8122948016C2B48C0F866
:104DE000FC122748416C2948C0F800132448816C04
:104DF0002648C0F804132248C16C2448C0F80813A0
:104E00001F48016D2148C0F80C131D48416D1F4813
:104E1000C0F810131A48816D1C48C0F814131848C4
:104E2000C16D1A48C0F818131548016E1748C0F82C
:104E30001C131048C16B1548C0F820130D48016CB5
:104E40001248C0F824130B48416C1048C0F82813CE
:104E50000848816C0D48C0F82C130648C16C0B48FB
:104E6000C0F830130348016D0848C0F834130FE050
:104E7000F4080020F40C002000100240700700200D
:104E8000780C002048F4FFFF780A0020F467002027
:104E9000F748416DF748C0F83813F548816DF5487B
:104EA000C0F83C13F248C16DF248C0F84013F04816
:104EB000016EF048C0F844134AF65521C0F8481373
:104EC000EFE30020EC49C1F85801C1F85C01C1F8DA
:104ED0006001C1F864010FF0C6FE00200FF0D2FEA1
:104EE000DFE308F068F80DF02FFDFBF786FA0120EC
:104EF00003F0E0FB05F0F5FC022003F0DBFBD0E360
:104F00000BF022FACDE30BF0FCF9CAE340460BF0BC
:104F1000EEFA1090C5E3D948C0F8EC81C1E3B8F5CA
:104F20007A7F02D1D648C0F868B018F57A7F03D1ED
:104F30004FF0FF30D2490860B3E3B8F57A7F03D170
:104F40004FF08070CF498861B8F5FA6F03D14FF404
:104F50008070CC49886140F6B830804502D101208C
:104F6000C749C866B8F57A6F03D10120C349C1F8B3
:104F7000CC0041F28830804503D1AA20BF49C1F856
:104F8000E4008EE3A2E0B8F1000F02D1BC48C0F803
:104F90007080B8F1010F02D1B948C0F87080BBF140
:104FA000000F05DDBBF5FA6F02DAB548C0F808B0AE
:104FB000F6E3B548C0F84881F2E3B348C0F84C8046
:104FC000C0F83CB0ECE3B8F1010F0CD1BBF1000F1D
:104FD00003D14FF48030AB498861BBF1010F02D19E
:104FE0000120A8498861B8F1020F0CD1BBF1000F74
:104FF00003D14FF40030A3498861BBF1010F02D106
:105000000220A0498861B8F1030F0CD1BBF1000F59
:1050100003D14FF480209B498861BBF1010F02D17D
:10502000042098498861B8F1040F0CD1BBF1000F3E
:1050300003D14FF4002093498861BBF1010F02D1E5
:10504000082090498861ABE364E3B8F1000F09D010
:10505000B8F1010F0ED0B8F1020F11D0B8F1030F63
:105060001BD114E04FF4001088490860400008602C
:1050700014E03FE0202085490860400408600DE00E
:105080004FF40010814908604020086006E02020AD
:105090007E4908604020086000E000BF00BF7FE359
:1050A00061687448C0F82C124AF65521C0F83012D5
:1050B00005F017FC6F48D0F82C02CAF8C000002099
:1050C00013906DE37248A0F8D48069E36068714979
:1050D0000860A0684860E06888602069C86060690E
:1050E0000861A0694861E0698861206AC861606AF6
:1050F000086255E3606868498863A068C863E0682F
:1051000008612069486160698860A069C860E069D9
:1051100062490860206A48605F4800690D2807D02E
:105120005D4800690E2803D05B4800690F2812D142
:105130005948806B58490864084640690D2807D0D3
:10514000084640690E2803D0084640690F2802D15E
:10515000002051494861504840690D2807D04E4809
:1051600040690E2803D04C4840690F2812D14A48A4
:10517000C06B49490864084600690D2807D00846F5
:1051800000690E2803D0084600690F2802D10020CC
:105190004149086140480069132867D2DFE800F000
:1051A0000A13243A5066666666668C9CB5CEF4F2A5
:1051B000F1F0EF00012002F0C6FE002038494862FD
:1051C0003848086040E1012002F0BDFE32488068A6
:1051D000012802D13249086102E00020304908610B
:1051E00031482F4908602FE1012002F0ACFE022077
:1051F000294988610020086208468068012802D198
:105200002749086102E0022025490861274824490E
:10521000086019E1012002F096FE04201E49886111
:105220000020086208468068012802D11C490861F4
:1052300002E002201A4908611D481949086003E18B
:10524000012002F080FE08201349886100200862D6
:1052500008468068012802D11149086102E0022055
:105260000F49086113480E490860EDE0EBE00000CB
:10527000F40C0020F46700202C6300203865002027
:10528000FC0B002000000240780A002018040240B5
:1052900034060020FC04002008000020000000204C
:1052A000340500202D32010895320108FD32010835
:1052B000D3360108B13C0108022002F044FEF9484F
:1052C000F9498860F9488068012801D1086102E045
:1052D0000020F5490861B7E0022002F034FE012009
:1052E000F14948622020F14908620020886108469F
:1052F0008068012802D1EC49486102E00220EA49B5
:105300004861EB48E84988609EE0022002F01BFEFD
:105310000120E54948628020E44908620020886154
:1053200008468068012802D1DF49486102E0022076
:10533000DD494861DF48DC49886085E0022002F0F1
:1053400002FEDA48806BD949086408468068012863
:1053500005D1D948D94988620120486204E0D8487B
:10536000D649886200204862D4480FF048FD0FF00B
:1053700051FC0020D14908620120C86264E05BE072
:1053800053E04BE02BE0FFE7022002F0DCFDC748D2
:10539000806BC6490864C9480069C8490860084666
:1053A000406940424860084680698860BF4880681C
:1053B000012804D1C04888620120486204E0C04846
:1053C000BE49886200204862BC480FF018FD0FF00B
:1053D00021FC0020B94908620120C86234E00220A3
:1053E00002F0B1FDB148806BB0490864084680689E
:1053F000012805D1B048B14988620120486204E023
:10540000AF48AE49886200204862AC480FF0F7FC14
:105410000FF000FC0120A949C86215E0022002F04B
:1054200092FDA848A04988600EE0022002F08BFDA2
:10543000A5489D49886007E0022002F084FDA3484A
:105440009949886000E000BF00BF98484069132870
:1054500073D2DFE800F00A13243A5072727272724B
:10546000667790A9CAF9F7F6F500012002F03BFD36
:1054700097488D4948600020886249E1012002F088
:1054800032FD8A48C068012802D18749886102E05C
:105490000020854988618F488349486038E10120B0
:1054A00002F021FD02208149C861002048620846BF
:1054B000C068012802D17C49886102E002207A4953
:1054C000886185487849486022E1012002F00BFD9F
:1054D00004207649C861002048620846C068012857
:1054E00002D17149886102E002206F4988617B48DE
:1054F0006D4948600CE1012002F0F5FC08206B4981
:10550000C861002048620846C068012802D1664987
:10551000886102E0022064498861714862494860FC
:10552000F6E0022002F0DFFC6E485F49C8605F4889
:10553000C068012802D1886103E0E8E000205A49F0
:105540008861E5E0022002F0CEFC01205649886225
:105550002020564948620020C8610846C0680128DA
:1055600002D15149C86102E002204F49C8615E483A
:105570004D49C860CCE0022002F0B5FC01204A4948
:1055800088628020494948620020C8610846C06896
:10559000012802D14449C86102E002204249C861A1
:1055A00052484149C860B3E0022002F09CFC3F48E9
:1055B000C06B3E4908640846C068012805D14C48C4
:1055C0003E4988620120486204E04A483B498862BB
:1055D0000020486239480FF012FC0FF01BFB00203E
:1055E000364908620120C86292E0022002F07BFC8A
:1055F0002E48C06B2D490864304800692F49086067
:1056000008464069404248600846806988602748EB
:10561000C068012804D1364888620120486204E04D
:105620003448264988620020486224480FF0E7FB8E
:105630000FF0F0FA0020214908620120C86267E0FB
:105640005EE027E01FE0FFE7022002F04CFC174875
:10565000C06B164908640846C068012805D1244873
:10566000164988620120486204E022481349886292
:105670000020486211480FF0C2FB0FF0CBFA012066
:105680000E49C86244E0022002F02DFC1A48064987
:10569000C8603DE0022002F026FC18480249C860BC
:1056A00036E07DE077320108340500200800002054
:1056B000BB3E0108F7400108C94A0108FC0400206C
:1056C000D94A0108C7480108B54701082946010819
:1056D0002D320108B7320108DD340108AF39010865
:1056E000293D010855320108A13D0108EB3F0108A1
:1056F000E94A0108F94A010817450108054401086B
:10570000022002F0F0FBFE48FE49C86000E000BF46
:1057100000BF45E060681190A0680F9011980128C3
:1057200002D1F949886002E00020F74988600F98AB
:1057300030B1022808D004280AD0082810D10BE084
:105740000020F14988610CE00220EF49886108E0FF
:105750000420ED49886104E00820EB49886100E0FD
:1057600000BF00BF1CE040F2C570804516D1BBF100
:10577000000F13D1642002F09DFF72B6E348006869
:1057800020F48000E14908600846006820F4001019
:105790000860DF48DF490860FAF7BCFD00E000BFA1
:1057A00000BF56E016211598017000211598417030
:1057B0002821159881701598007940F0800115987E
:1057C0000171D54890ED000AD0ED010A30EE200AB3
:1057D000D0ED020A30EE208AB0EE080AC8EE008A48
:1057E00090ED000ABDEEC00A10EE100A2860CA480B
:1057F00090ED010ABDEEC00A10EE100A6860C648BE
:1058000090ED020ABDEEC00A10EE100AA860C24870
:1058100090ED030ABDEEC00A10EE100AE860BF4822
:10582000D0F840012861BC48C06E6861BA48D0F821
:10583000E800A861B848D0F8EC00E861B648D0F8B4
:10584000F0002862B448D0F8F40068620120139098
:1058500000BF00BF139870B19DF85C0000F080009D
:1058600018B19DF85A00801D00E00620129016A87D
:10587000129902F0F8FF2DB0BDEC048BBDE8F08F5B
:1058800070B5A74C00234FF453721946A54804F095
:1058900089FF0546A348006A4AF6552188426ED121
:1058A000A04840699C49C1F8AC009E488069C1F895
:1058B000B0009C48007F81F8B4009A48417F964828
:1058C00080F8B5109748817F934880F8B610D0F8DB
:1058D000B000072878D2DFE800F0040B2E53789C44
:1058E000C00000208C49C1F8AC00C1F8B000D9E07C
:1058F00001208949C1F8AC00C1F8B000432081F80B
:10590000B4006821844880F8B510312180F8B610C1
:1059100000208549C1F814018449C1F81401824866
:10592000D0F8D4007E497439C1F8B801D1F8B80173
:105930000AF0DDFDB6E001207749C1F8AC00022095
:10594000C1F8B000432081F8B4006821724880F8A3
:10595000B510322180F8B61000207349C1F8140147
:105960007249C1F814010846D0F8D4006C49743962
:10597000C1F8B801D1F8B8010AF0B9FD92E092E09F
:1059800001206549C1F8AC000320C1F8B0004320F4
:1059900081F8B4006821604880F8B510332180F8A0
:1059A000B61001206049C1F814016049C1F8140122
:1059B0005D48D0F8D8005A497439C1F8B801D1F817
:1059C000B8010AF094FD6DE06BE001205249C1F886
:1059D000AC000420C1F8B000432081F8B400682175
:1059E0004D4880F8B510342180F8B61001204E499A
:1059F000C1F814014D49C1F814014B48D0F8D80042
:105A000047497439C1F8B801D1F8B8010AF06FFDFF
:105A100048E002204049C1F8AC000520C1F8B000C0
:105A2000312081F8B4002B213B4880F8B510322199
:105A300080F8B61000203C49C1F814013B49C1F878
:105A400014013948D0F8D40035497439C1F8B80187
:105A5000D1F8B8010AF04BFD24E002202E49C1F82C
:105A6000AC000620C1F8B000332081F8B4002B212F
:105A7000294880F8B510342180F8B61001202A4951
:105A8000C1F814012949C1F814012748D0F8D800F9
:105A900023497439C1F8B801D1F8B8010AF027FDDB
:105AA00000E000BF00BF1F48806D4AF655218842C4
:105AB0004CD11C48806C1C4988641A48C06C1B4936
:105AC00088641848016D1848C1641648416D17482C
:105AD000C1641448806B144988631248C06B134931
